:020000040800F2
:10000000386C00203D030008450300084703000842
:10001000490300084B0300084D03000800000000DE
:100020000000000000000000000000007502000851
:100030005103000800000000ED0200082903000839
:1000400057030008570300085703000845780008C5
:100050005703000857030008413F0008613F0008AC
:10006000693F0008713F0008793F00085703000806
:1000700057030008570300085703000857030008F8
:1000800057030008570300085703000857030008E8
:10009000570300085703000857030008813F000872
:1000A00057030008570300085703000857030008C8
:1000B0005703000857030008B195000857030008CC
:1000C00057030008570300085703000857030008A8
:1000D000570300085703000857030008A9970008B2
:1000E000493F0008570300085703000800F002F8D2
:1000F00000F07AF80AA090E8000C82448344AAF148
:100100000107DA4501D100F06FF8AFF2090EBAE845
:100110000F0013F0010F18BFFB1A43F0010318473B
:10012000E4E4010004E501000A444FF0000C10F87B
:10013000013B13F0070408BF10F8014B1D1108BF65
:1001400010F8015B641E05D010F8016B641E01F805
:10015000016BF9D113F0080F1EBF10F8014BAD1C55
:100160000C1B09D16D1E58BF01F801CBFAD505E073
:1001700014F8016B01F8016B6D1EF9D59142D6D3CD
:10018000704700000023002400250026103A28BFF5
:1001900078C1FBD8520728BF30C148BF0B607047F9
:1001A000662911F04885642900F07881752900F0EE
:1001B0007581782900F0AE81732900F080870020D6
:1001C00070471FB500F07FFF04000020002110F0F1
:1001D000F9FFE0601FBD10B510BD03B4FFF7FBFFD2
:1001E00003BC01F06FF8000000F0CCF81146FFF7F7
:1001F000E8FF0FF05DFA044800210FF01FFB0FF03D
:1002000069FA00F053FA00004000002080F30988EA
:100210007047EFF309807047684680F30988044807
:100220000078C00714BF0220032080F314887047B1
:1002300018D10108DFF818C0EFF305831B0618BFBB
:100240006047EFF31483DB0708BF604700DF7047A8
:100250003DF90008DFF818C0EFF305831B0618BF4F
:100260006047EFF31483DB0708BF604700DF704788
:1002700021FB0008EFF30980816911F8021CF1B934
:1002800090E80F10E047EFF3098C8CE80700144B5F
:1002900093E8060091420FD039B12CE9F00FC1F874
:1002A00024C00CB40FF070FF0CBC1A60D2F824C04C
:1002B000BCE8F00F8CF309886FF0020E704710B5A0
:1002C000084A1268914209D8074C54F8214090E836
:1002D0000F10A047EFF3098C8CE80F0010BD000051
:1002E000A4030020C81A0008C81A00080FF0E8FD8F
:1002F0000C4B93E80600914210D0EFF3098C2CE9E7
:10030000F00FC1F824C00CB40FF03EFF0CBC1A6013
:10031000D2F824C0BCE8F00F8CF309886FF0020E0D
:1003200070470000A40300200FF0F4FFE0E7000096
:100330000FF0D6FA0FF0EEFFDAE700000948804729
:1003400009480047FEE77047FEE7FEE7FEE7FEE7E5
:10035000FEE7FEE7FEE7FEE704480549054A064BCF
:10036000704700008D940008ED00000838660020FA
:10037000386C00203868002038680020004870473A
:10038000D86500207546FFF7F9FFAE4605006946BF
:10039000534620F00700854618B020B5FFF7DCFF74
:1003A000BDE820404FF000064FF000074FF0000876
:1003B0004FF0000B21F00701AC46ACE8C009ACE8F7
:1003C000C009ACE8C009ACE8C0098D467047000020
:1003D0000FB41CB5074B06AA7B44694600900598EC
:1003E00000F043FE0020694600F052FE1CBC5DF8A0
:1003F00014FB0000B50C000070B504468569006868
:10040000C10601D5302600E02026C00708D070BD07
:10041000D4E9012130469047206A00F101002062B2
:100420006D1EF5D570BD70B5044685690078C007AE
:1004300008D170BDD4E9012120209047206A00F145
:10044000010020626D1EF5D570BD70B50C460546E5
:10045000012A05D02878800600D5EA69002302E049
:10046000012305E05B1C934202D2E05C0028F9D135
:10047000A869E618C01AA861286A184428622846A4
:10048000FFF7BAFF04E0D5E9012114F8010B90470A
:10049000B442F8D32846FFF7C6FF70BD2DE9F041FE
:1004A0000646002410687529314616A511D0AFF311
:1004B0000080002803DAC0F1000013A507E03168CE
:1004C0008A0701D511A502E0490704D510A501242A
:1004D00001E0AFF3008000210A2306F1240707E0C2
:1004E000B0FBF3F203FB1200303078541046491C85
:1004F0000028F5D123462A463046BDE8F04100F0F9
:1005000043BB0000000000002D0000002B00000095
:100510002000000070B504460D4621461068AFF378
:1005200000802188090502D5104A7A4402E00F4A6A
:100530007A440E32002104F1240307E000F00F0694
:100540004FEA1010965D5E5401F101010028F5D1CB
:1005500003462078000704D5702D02D009B111326E
:1005600002232046BDE8704000F00EBB02D9010016
:100570002DE9F05F894604464FF0000ADFF828B104
:10058000FB44C0F820A02046E168884700287CD0C2
:10059000252806D0D4E901219047206A401C20621A
:1005A000F1E700255F462046E16888472028064697
:1005B00008DB312E06D207EB060010F8200C08B13C
:1005C0000543F0E7A80701D525F00405C4F81CA0F1
:1005D0000027C4F818A02A2E09D030460AF045F8A2
:1005E00038B304EB8708303EC8F8186019E059F8B2
:1005F000041B204604EB87029161E1688847012FC4
:10060000064618D1E069002820DA25F020051DE013
:10061000D8F8180000EB800006EB40003038C8F82E
:1006200018002046E168884706460AF01EF80028B0
:10063000EED1012F0AD02E2E08D12046E16888473E
:100640007F1C0646022F45F02005C4DBA069002868
:1006500003DA404245F00105A061E80701D025F02A
:10066000100596B1A6F14100192802D8203645F4AC
:1006700000654A463146204625604D46FFF790FD0D
:1006800060B1012807D0ED1D00E009E025F007006A
:1006900000F1080977E705F1040974E7304679E7C6
:1006A000206ABDE8F09F0000D4D801000446AFF3F3
:1006B00000802046FFF791FD10B5431C02E010F8C2
:1006C000011B71B18107FAD14FF0013202C88C1AB7
:1006D0008C4314EAC211F9D0C01A0A0603D0C01E16
:1006E00010BDC01A10BD0A0401D0801E10BD090241
:1006F000FCD0401E10BD40EA010370B59B072ED10F
:100700004FF00136042A2AD308C810C9121F9D1BB6
:100710009D4315EAC61517D0D8B2E1B2401A50EA87
:10072000056110D198B2A1B2401A50EA05410AD130
:1007300023F07F4024F07F41401A50EA052102D186
:10074000180EA0EB146070BDA342DBD018BA21BA1A
:10075000884201D9012070BD4FF0FF3070BD0AB949
:10076000002070BD10F8013B11F8014B63B1A342AA
:100770000AD1521E08D010F8013B11F8014B1BB1F1
:10078000A34201D1521EEDD1181B70BD421E12F8BA
:10079000013F002BFBD111F8013B002B02F8013B7C
:1007A000F9D17047032A40F2308010F0030C00F0BA
:1007B000158011F8013BBCF1020F624498BF11F89B
:1007C00001CB00F8013B38BF11F8013BA2F1040254
:1007D00098BF00F801CB38BF00F8013B11F00303CC
:1007E00000F02580083AC0F0088051F8043B083A30
:1007F00051F804CBA0E80810F5E7121D5CBF51F8D2
:10080000043B40F8043BAFF30080D20724BF11F84B
:10081000013B11F801CB48BF11F8012B24BF00F8B0
:10082000013B00F801CB48BF00F8012B704710B521
:10083000203AC0F00B80B1E81850203AA0E81850D8
:10084000B1E81850A0E81850BFF4F5AF5FEA027C99
:1008500024BFB1E81850A0E8185044BF18C918C008
:10086000BDE810405FEA827C24BF51F8043B40F8A9
:10087000043B08BF7047D20728BF31F8023B48BF8E
:1008800011F8012B28BF20F8023B48BF00F8012BCC
:1008900070474FF000020429C0F0128010F0030CE2
:1008A00000F01B80CCF1040CBCF1020F18BF00F863
:1008B000012BA8BF20F8022BA1EB0C0100F00DB812
:1008C0005FEAC17C24BF00F8012B00F8012B48BF70
:1008D00000F8012B70474FF0000200B51346944614
:1008E0009646203922BFA0E80C50A0E80C50B1F188
:1008F0002001BFF4F7AF090728BFA0E80C5048BF9C
:100900000CC05DF804EB890028BF40F8042B08BF39
:10091000704748BF20F8022B11F0804F18BF00F835
:10092000012B704730B503681C1404EB21459BB2C2
:1009300089B2194495FBF2F402FB145301EB034115
:1009400091FBF2F302FB131101E05B1E114400293D
:10095000FBDB016003EB044030BD2DE9F0470446AA
:100960004FF0FF3A86B00068029060680390A0687C
:100970000490E0680190206900906569B5F1804FAE
:100980007EDCB5F1404F7BDB3C22002102A8FFF763
:10099000C9FF3C22014603A8FFF7C4FF1822014605
:1009A00004A8FFF7BFFF411E40F2B55201A8FFF7B0
:1009B000B9FF0C22064668460021FFF7B3FF00EBA3
:1009C000860028443E4D00267D440FE09A1A491CBB
:1009D000CDE90012022902D00C2907D104E08107D9
:1009E00004D0521C019201E0401C00960099019B2A
:1009F0006A5C9A42EADD012906D11C2B04D18107E9
:100A000002D00221CDE90016A0F146018B2940D287
:100A10000199009B00220F4602E0AE5C521C31445B
:100A20009A42FADB012B02DD820700D0491E40F218
:100A3000B55540F26D16C21700EB927292106A43E0
:100A400000F0030505FB062285070A4400D1521E6B
:100A5000049D02EB4206DDF80C80A94605EBC605B5
:100A6000184EC5EB0515DDF808C008EB85053544C3
:100A70002E14ADB2C6EB0616C5EB0515B60000E0A8
:100A800007E00CEB850506EB154666F31F45360CB3
:100A900003D0504606B0BDE8F0877F1CC4E904309F
:100AA000521C072092FBF0F304F1180600FB132000
:100AB000A6E803042846C4E90297C4E900C8E9E7A8
:100AC0009DD40100A039CEFD70B50C460168002010
:100AD0004A1C34D040F2B5553C23B1FBF3F203FB82
:100AE00012112160B2FBF3F103FB112218236260A3
:100AF000B1FBF3F203FB1211A16046F2E0310A44AC
:100B00000721B2FBF1F301FB1321B2FBF5F305FB67
:100B10001322A1619900B2F5B77F06D3521EAD1022
:100B2000B2FBF5F3194405FB13220F4BE26161613F
:100B300089077B440CD03B2A0AD3521C08E02C21A5
:100B40002046FFF7C8FE0120E0600AE0521A401C70
:100B5000195C9142FAD9521CC4E903204FF0FF30CE
:100B60002062204670BD000033D3010070477047FB
:100B7000704710B500F0ACFA006810BD10B504461F
:100B800000F0A6FA046010BD2DE9F0470D46994625
:100B90009246044600F124080168880604D5E069FD
:100BA00021F01001216000E00120A84202DDA0EB4D
:100BB000050700E00027A16907EB050202EB090029
:100BC000A1EB0000A0612078C00602D42046FFF708
:100BD00013FC002608E0D4E901211AF8060090472A
:100BE000206A401C761C20624E45F4DB2078C0064B
:100BF0000AD52046FFF700FC06E0D4E901213020A9
:100C00009047206A401C2062381EA7F10107F4DCDF
:100C100007E0D4E9012118F805009047206A401C3C
:100C20002062281EA5F10105F3DC2046FFF7FBFB3F
:100C30002078000602D50220BDE8F0870120FBE7FE
:100C400070472DE9FF4F0C461E464FF0FF378BB023
:100C5000D2E90001DDF860800A908A46C1F30A55A6
:100C600005B93D46002108464FF00000BAF1000FDB
:100C700000F4400005DA00EB80004FF4400101EA87
:100C800050004FEA9059B9F1010F00DDB9460A98BA
:100C900050EA4A000ED044F61050A5F2FF35454305
:100CA0002F14B8F1000F1ED07542291E1EDDC9F1A8
:100CB00000021CE0B8F1010F4FF0000001D030211C
:100CC00003E0F24305E02154401CB042FBDB304618
:100CD0000022002121540B99C1F80880C1E90020AD
:100CE0000FB0BDE8F08FBD1B6D1CDEE74A4600DA91
:100CF000694206A800F074FA06AB07CB03AB07C342
:100D000050460A9900F025FB8DE80700A0F5005039
:100D10001F3800900398002D09DD42F21F014A465A
:100D2000084403A90390684600F084FD08E0A0F59C
:100D300000504A461F3803A90390684600F08EFD14
:100D40008DE807000004000C03D04FF0FF3041088D
:100D500000E01046B8F1000F03D0002200921546C3
:100D60001FE0751E06D400F0B5F902F1300262559D
:100D70006D1EF8D5B3460122084302D000227F1C25
:100D800004E02078302801D100227F1E002A099734
:100D900087D01DE0112D07DA00F09CF93032625542
:100DA0006D1C50EA0102F5D108430FD10021681EE5
:100DB00005E0235C625C6354491C2254401E81425E
:100DC000F7DBAB46A81B401E099001E0009848B134
:100DD000002004F80B000B98099AC0F80880C0E9BD
:100DE000002B7DE711264FF000085AE72DE9F04F60
:100DF00088460446D21D22F0070191B0D1E90001D6
:100E0000CDE90A0109F063FB02460B98C00F01D03F
:100E10002D2007E02068810701D52B2002E020214A
:100E200001EAC000032A099001D0072A05DB034626
:100E30004146204600F094F90FE12078800601D564
:100E4000E06900E00620B8F1650F814606D0B8F1F0
:100E5000660F18D0B8F1670F72D132E00020B9F1F7
:100E6000110F009001DB112301E009F101030AAA2F
:100E700001A90CA8FFF7E5FEDDE90C70002609F1D9
:100E80000105834648E001204B4600904FF00047A3
:100E90000AAA01A90CA8FFF7D4FEDDE90DB00C9950
:100EA0005D46002618B909F1010001EB0005B9EB18
:100EB000050003D4C0F1FF3609F10105A5EB0900D7
:100EC0002BE0B9F1010F01DA4FF001090020B9F16F
:100ED000110F0090484601DD112300E003460AAAE5
:100EE00001A90CA8FFF7ADFEDDE90C704D46002608
:100EF0008346207800070AD4AB4500DA5D4601A896
:100F0000012D04DD411911F8011C302907D04F458E
:100F100002DA17F1040F04DA0120824610E06D1E98
:100F2000EEE7002F02DCED1B3E4403E0781CA842F4
:100F300000DD0546A7EB060000F1010A4FF000476F
:100F40002078000703D4AA4501DB4FF0FF3A0021C7
:100F5000B7F1004F0DF143088DF8431023D0022064
:100F60002B23002F01DA7F422D234FF00A0C011EA4
:100F7000A0F1010000DC4FB197FBFCF10CFB1172FA
:100F80000F4602F1300208F8012DF0E7A8F1010048
:100F900003702188090501D5452100E06521A0F1F4
:100FA000010800F8011C09980FA9A1EB080707F137
:100FB000070700B1012000EB050101EBEA70A16910
:100FC0003844A1EB0000A0F10100A0612078C00628
:100FD00002D42046FFF710FA099830B1D4E9012174
:100FE0009047206A00F1010020622078C00620D5D9
:100FF0002046FFF701FA1CE0002E04DBB34502DDBA
:1010000001A8805D00E03020D4E901219047206AEA
:10101000761C401CBAF1010A20620AD100F053F894
:10102000C0680168405CD4E901219047206A401CF7
:101030002062281EA5F10105DEDC07E0D4E90121CC
:1010400018F8010B9047206A401C2062381EA7F157
:101050000107F3DC2046FFF7E6F9022011B040E675
:1010600001694A1C02610878704700B58FB0CDE96C
:1010700001310021059105497944CDE9031011465C
:101080006846FFF775FA0FB000BD0000E5FFFFFFEF
:101090000A6802F8010B0A60704710B5436913B182
:1010A000AFF3008001E0FFF7D0F9012010BD127806
:1010B00000F124010A7000224A700122EDE7116854
:1010C0004FF0FF32E9E710B5FFF758F9203010BDB7
:1010D00009F012BA30B5B0F10A024FEA900E71F180
:1010E00000034EEA817EB0EB0E0061EB91014FEA06
:1010F000101E4EEA017E10EB0E0041EB11114FEA7B
:10110000102E4EEA016E10EB0E0041EB11214FEA5A
:10111000104E4EEA014E10EB0E0041EB114140180B
:1011200041F100014FEAD00040EA41704FEAD1019D
:1011300010EB80054FEA810444EA907444EB01040B
:101140006D1944EB0404521BA3414FF0000348BF48
:101150000A3200D530BD401C41F1000130BD000015
:101160002DE9F0411F46044603260168072A01F4D1
:10117000006004DB08B116A505E016A503E008B180
:1011800015A500E015A521F010002060A069C01E83
:10119000A0610FB1401EA0612046FFF72DF94FB1AD
:1011A000D4E9012138469047206A401C2062C01CC7
:1011B000206206E0206AFAE7D4E9012115F8010B64
:1011C0009047761EF8D22046FFF72DF9BDE8F08152
:1011D0004E414E006E616E00494E4600696E6600DB
:1011E0002DE9F047814616468AB035487844D0E963
:1011F000002380680092CDE90130314878440C38F2
:10120000D0E90223006903924FF03702CDE90430A0
:1012100041F69B30014491FBF2F0A0F1800502FB06
:1012200010141B3C02D56442012000E00020DFF8CE
:1012300090A080460027FA44AAF1C60A0DE0E00714
:1012400009D03246684607EB47010AEB810100F0FE
:1012500005FB8DE8070064107F1C002CEFD1184FB0
:101260007F44B43F17E0E80713D007EB04100DF1FB
:10127000180A90E80E00AAE80E00C068F04201D1FA
:1012800098190890324606A903A800F0E7FA03ABC4
:1012900007C36D10641C002DE5D132466946B8F1D4
:1012A000000F03A802D000F0C5FA01E000F0D6FA62
:1012B000C9E90001C9F808200AB0BDE8F0870000BC
:1012C00004CD010001491820ABBEFEE72600020054
:1012D0004FF0013C50F8042B51F8043B9A4221D1C5
:1012E000A2EB0C03934313EACC1317D150F8042B51
:1012F00051F8043B9A4215D1A2EB0C03934313EA35
:10130000CC130BD150F8042B51F8043B9A4209D16D
:10131000A2EB0C03934313EACC13DBD04FF0000095
:10132000704700BFD01A01BAB1FA81F101F018017B
:1013300022FA01F0CB40C1F12001DBB2C0B2C01AE9
:101340002CFA01F3D11A914311EAC311E6D1704787
:1013500070475FEA400C08BF91F0000F4FEA8C2302
:101360004FEAC12243EA51514FEA1C5018BF00F521
:10137000F0404FEA300018BF41F000415FEA6C5C7A
:1013800000F02980BCF1FF3F08BF40F0804070476B
:10139000130C06BF12044FF0100C4FF0000C130E8C
:1013A00004BF12020CF1080C130F04BF12010CF160
:1013B000040C930F04BF92000CF1020CD30F04BF76
:1013C00052000CF1010C11464FF00002A0F11F0079
:1013D000A0EB0C00704711F0004F08BF704731F0D0
:1013E00000413FF4D5AF0B0C06BF09044FF0100CC1
:1013F0004FF0000C0B0E04BF09020CF1080C0B0F90
:1014000004BF09010CF1040C8B0F04BF89000CF11F
:10141000020CCB0F04BF49000CF1010CCCF12003EE
:10142000A0EB0C0022FA03F302FA0CF241EA0301EA
:1014300000F10100704720F07F4C80EA030023F0A8
:101440007F47ACEB070303F57C5300F0004003F14A
:10145000FF032DE980494FEA154B09B44FEA1443C5
:1014600025EA0B4E24EA03480FF2042606EB132765
:1014700049083E785FEA320203FB0667C7F50007BA
:1014800007FB06F64FEA54374FEAD64606F1020646
:1014900007FB066CCCF1005C4FEA1C472CEA074CBA
:1014A00007FB06F40CFB06F504EB15464FEA96160F
:1014B00034BF00204FF000404FEAD13706FB07FC55
:1014C0004FEA1C4C0CFB0BF7D21B03FB0CF761EB38
:1014D00007010CFB0EF7B0EB074072EB17420CFB59
:1014E00008F734BFA2EB0742B2EB074261EB1741AA
:1014F0004FEA0C444FEA910706FB07FC4FEA1C4CED
:101500000CFB0BF7B0EBC74072EB573203FB0CF749
:1015100034BFA2EBC742B2EBC74261EB57310CFBC1
:101520000EF7B0EBC70072EB57720CFB08F734BF35
:10153000A2EBC702B2EBC70261EB5771039F4FEA00
:10154000816141EA921104EBCC044FEAD1374FEAB2
:10155000826206FB07FC42EA90124FEA80604FEA83
:101560001C4C0CFB0BF7D21B03FB0CF761EB0701C8
:101570000CFB0EF7B0EB074072EB17420CFB08F7C1
:1015800034BFA2EB0742B2EB074261EB17414FEACF
:101590008C554FEA910704EB9C2406FB07FC4FEAAD
:1015A0001C4C0CFB0BF7B0EBC74072EB573203FB44
:1015B0000CF734BFA2EBC742B2EBC74261EB573125
:1015C0000CFB0EF7B0EBC70072EB57720CFB08F781
:1015D00034BFA2EBC702B2EBC70261EB577115EB48
:1015E0004C254FEA816141EA92114FEA82624FEA4B
:1015F000D13742EA901206FB07FC44F100044FEA9F
:1016000080604FEA1C4C0CFB0BF7D21B03FB0CF762
:1016100061EB07010CFB0EF7B0EB074072EB1742D2
:101620000CFB08F734BFA2EB0742B2EB074261EBB9
:10163000174115EB1C154FEA813141EA92414FEAFF
:10164000823242EA90424FEA80304FEA0C7644F10F
:10165000000448EA03434EEA0B484FF0000EB2EB99
:10166000080C71EB030724BF624639464EEB0E0EA1
:101670004FF0000B0018524149414BEB0B0BB2EB02
:10168000080C71EB03077BF1000B24BF624639465F
:101690004EEB0E0E4FF0000B0018524149414BEB40
:1016A0000B0BB2EB080C71EB03077BF1000B24BFB3
:1016B000624639464EEB0E0E51EA020718BF46F05D
:1016C000010616EB0E7655F1000254F1000103D528
:1016D000BDE88901BDE80088BDE88901BDE8004892
:1016E000B619524141EB0101A3F10103704780801B
:1016F0007F7E7D7C7B7A797877767675747372716C
:1017000071706F6E6E6D6C6C6B6A6A696868676623
:1017100066656464636362616160605F5F5E5E5DB5
:101720005D5C5C5B5B5A5A59595858575756565529
:1017300055555454535352525251515050504F4F8B
:101740004F4E4E4D4D4D4C4C4C4B4B4B4A4A4A49DB
:10175000494948484847474747464646454545441E
:101760004444444343434342424242414141002BAB
:1017700026D4770021D01CB54FEA370703B44FF0C9
:1017800010004FF010014FF000000FBCBDE81040FA
:101790000BF1010BBBF1010F08BF5FEA170722BF76
:1017A00012F1010211F101014FF0004143F1000378
:1017B00000F0004043EA00007047F9D35708DAE729
:1017C00046EA064613F1400F4FEA16461FDD13F1B5
:1017D000200FDFBF16430A46002120335B42C8D0EA
:1017E000C3F1200746EA064602FA07F74FEA164613
:1017F00046EA0706C3F1200722FA03F201FA07F7C7
:1018000021FA03F14FF0000342EA0702B1E746EA8A
:10181000020646EA06464FEA164646EA0106BCBFFD
:1018200046EA0646360C4FF000034FF000024FF038
:1018300000019EE72DE9C048934630B491E8380096
:1018400007C831EA400C48BF34EA430C03D5FFF720
:10185000F2FDFFF78CFFF0BCBDE800882DE9C04821
:10186000934630B491E8380007C810F0804F08BFA5
:1018700013F0804F03D100F005F8FFF778FFF0BCBC
:10188000BDE8008820F07F4780EA030023F07F4C0A
:1018900007EB0C03A3F57C5300F00040A3F1FE031B
:1018A00092F0000F00F0B38095F0000F00F0778009
:1018B0002DE901494FEA11404FEA144621EA004858
:1018C00000FB06FC24EA064708FB06F607FB08F8BF
:1018D00000FB07F718EB06484CEB164C4FEA124B8F
:1018E00018EB07484FEA15464CEB174022EA0B4E1F
:1018F0000BFB06FC25EA06470EFB06F607FB0EFE71
:101900000BFB07F71EEB064E4CEB164C4FF0000698
:101910001EEB074E4CEB174B18EB0B0840F1000089
:1019200018EB0E0B58EB000840F100008F1A4FF037
:1019300000013CBFC943661B14BFB5EB040C00217A
:101940003CBFC943F61B4FEA17444EEA8E0E27EA06
:1019500004454FEA1C4704FB07622CEA074C05FBD1
:1019600007F70CFB05F604FB0CFC16EB074642EBF5
:10197000174216EB0C4642EB1C421BEB060658EBDB
:101980000202414146EA9E0601D5BDE80189B61929
:10199000524141EB0101A3F10103BDE801894FEA86
:1019A00014454FEA114724EA054621EA074C05FB96
:1019B00007F406FB07F70CFB06F105FB0CFC11EB2B
:1019C000074144EB17444FEA124711EB0C4144EB3B
:1019D0001C4422EA074C05FB07F206FB07F70CFB49
:1019E00006F605FB0CFC16EB074642EB174216EB1E
:1019F0000C4642EB1C456A1854F1000148BF704781
:101A0000B619524141EB0101A3F10103704795F072
:101A1000000F37D04FEA11424FEA144721EA02463D
:101A200024EA074C02FB07F106FB07F70CFB06F460
:101A300002FB0CFC14EB074441EB17414FEA15473E
:101A400014EB0C4441EB1C4125EA074C02FB07F563
:101A500006FB07F70CFB06F602FB0CFC16EB074631
:101A600045EB174516EB0C4645EB1C42121951F19C
:101A7000000148BF7047B619524141EB0101A3F183
:101A8000010370474FEA14454FEA114724EA05461F
:101A900021EA074C05FB07F106FB07F70CFB06F2F2
:101AA0004FF0000605FB0CFC12EB074241EB17411F
:101AB00012EB0C4251EB1C4148BF7047921841EBAE
:101AC0000101A3F1010370470000000006F072BBA2
:101AD00010B50022074B114601EB810403EB4404CF
:101AE00034F81040491CC9B222441029F4D3C2F37F
:101AF0000F1010BDCE030020044890F83C000128D0
:101B000001D0034800E0034808F004BC3865002019
:101B1000EEA601086E810108264910B508684FF647
:101B2000FF021040244A40F4E060104308600620A1
:101B300004F0A6F9072004F0A3F9082004F0A0F9A6
:101B4000092004F09DF90A2004F09AF9172004F006
:101B500097F9282004F094F91E2004F091F9272029
:101B600004F08EF907F0D4FC154A1448D16941F00D
:101B70000201D16100210180018540F65F13838558
:101B800001238382018446F2600303838383818679
:101B900001878187A0F84010018841F00101018090
:101BA000906940F0010090610648416841F440614D
:101BB000416010BD0CED00E00000FA05000400409B
:101BC000001002400000014008B50249084400909E
:101BD000008808BD006C004008B5024A104400901F
:101BE000016008BD006C0040002007F02DBD000022
:101BF0000148007807F028BD2800002070B59AB091
:101C000015460E46044609F0B1FF204600F01CFAC6
:101C1000304600F0CDF800222946684600F008F969
:101C2000094C6070012000F0B1F909F0A7FF60785D
:101C3000142802D0172803D004E001201AB070BD88
:101C400009F087FF0020F9E75601002010B504468F
:101C500009F08CFF204600F0F7F900F0FBF904468C
:101C600009F08CFF204610BD2DE9F0411C461546B9
:101C70000E46074609F07AFF23462A463146384683
:101C800000F056F8142804D009F078FF0020BDE8D1
:101C9000F08109F073FF0120F9E700002DE9F04120
:101CA0001C4615460E46074609F060FF23462A46A5
:101CB0003146384600F05CF8084C607009F05EFF71
:101CC0006078142802D0172803D004E00120BDE872
:101CD000F08109F03EFF0020F9E7000056010020E6
:101CE00010B5044609F042FF204600F0CFF8044941
:101CF0004870012000F04AF9BDE8104009F03EBFED
:101D00005601002070B514460E46054609F02EFF18
:101D1000284600F048F9A1B20022304600F088F8C9
:101D2000012000F033F9BDE8704009F027BF000042
:101D30002DE9F0411C4616460F46054609F016FFF0
:101D4000284600F081F9384600F032F8A1B20022AE
:101D5000304600F046F8054C6070012000F016F99E
:101D600009F00CFF6078BDE8F0810000560100200A
:101D70002DE9F0411C4617460E46054609F0F6FED1
:101D8000284600F061F9384600F012F8A1B2074A7F
:101D9000304600F04DF8054CA41E6070012000F0A4
:101DA000F5F809F0EBFE6078BDE8F08158010020FD
:101DB00010B5044639200FF0EBF9E0B20FF0FBF953
:101DC000C4F307200FF0F7F9C4F307400FF0F3F95D
:101DD000200E0FF0F0F90FF0A9F9BDE8104008F05F
:101DE000A5BA70B5064614460D463A200FF0D0F954
:101DF000E8B20FF0E0F9280A0FF0DDF90FF096F9DC
:101E00000CB1002011E008F091FA1D280FD13046E6
:101E100000F052F905463B200FF0BAF90FF086F9B1
:101E20002E44002CEFD0208828442080EBE770BDA2
:101E30002DE9F041064614460D463C200FF0A8F966
:101E4000E8B20FF0B8F9280A0FF0B5F90FF06EF903
:101E50000CB1002020800C4F08F068FA1E2810D129
:101E6000304600F03CFA054638703D200FF090F9FE
:101E70000FF05CF92E44002CEED0208828442080FE
:101E8000EAE7BDE8F08100005501002010B50446E6
:101E900000F0C4F920785C2801D02F2803D100215C
:101EA000642000F032FABDE81040402000F096B9FE
:101EB00010B504F063FF08B100F0CFF8BDE81040A2
:101EC000302000F08BB9312000F088B910B5052022
:101ED0000AF0EBFD5A2000F081F9044605200AF0D3
:101EE000E4FD204610BD00002DE9F74F82B0834687
:101EF00004980E46C700080E4FF0000AC1F30729E8
:101F0000C1F30748009056200FF042F9F0B20FF0ED
:101F100052F948460FF04FF940460FF04CF900983F
:101F20000FF049F904980FF046F90FF0FFF83C461E
:101F300014E000BF08F0FAF905461E2801D07CB174
:101F400013E04021584600F0B4F957200FF020F973
:101F50000FF0ECF8641E0BF1400BA4B2002CE9D199
:101F600008F0E4F9054614280ED0162D09D0FFF725
:101F7000ADFF0AF1010000F0FF0ABAF1030FC2D170
:101F8000284605B0BDE8F08F1420FAE70146362058
:101F900000F017B910B508B100F040F9BDE81040E5
:101FA000342000F01BB970B5054600F021F904009B
:101FB0000DD00146284600F021F8412807D014280A
:101FC00003D0422800D1B32070BD432070BD281932
:101FD000BDE87040FFF7DEBF10B5044600F01EF903
:101FE00020785C2801D02F2803D10021642000F044
:101FF0008CF9BDE81040322000F0F0B870B505460D
:1020000000200E46012401E0641CE4B2295D5C2935
:1020100013D02F2911D00029F6D100242844FFF72E
:10202000DBFF002C08D0B44206D041280AD0142887
:1020300006D0422800D1B32070BD641CE4B2EDE7A5
:10204000432070BD2046E1E7FF21FFF7D7BF2B20DB
:1020500000F054B8682000F045B810B522200FF009
:1020600097F80FF08EF804460FF060F8204610BD88
:1020700004480178012901D0002070470021017037
:1020800001207047380000202DE9F0410FF079F869
:1020900006460FF076F805460FF073F804460FF089
:1020A00070F807460FF042F846EA052040EA04407F
:1020B00040EA0760BDE8F08170B5054627200FF0C3
:1020C00067F80FF05EF80400264607D00FF059F8C5
:1020D000641E05F8010B14F0FF04F7D10FF026F889
:1020E000304670BD10B504460C200FF051F8204664
:1020F0000FF061F8BDE81040FFF7C6BF10B5044609
:102100000A200FF045F820460FF055F80FF039F887
:1021100004460FF00BF8204610BD10B504464A20C7
:102120000FF036F8E0B20FF046F8C4F307200FF0D6
:1021300042F8C4F307400FF03EF800200FF03BF8E0
:102140000EF0F4FFBDE8104008F0F0B82DE9F041C2
:1021500015000F46804601D0002028704C200FF05B
:1021600017F838460FF027F80EF0E0FF08F0DEF819
:102170000646142823D127200FF00AF80FF001F8A3
:102180000EF0FFFF04460EF0FCFF0EF0FAFF0EF01B
:10219000F8FFFFF779FF014684B122464046FFF77A
:1021A000A3FE064614280AD108EB442815B1287866
:1021B00020442870381B10F0FF07CFD13046BDE80F
:1021C000F08110B50C460EF0E3FF20460EF0F3FF51
:1021D0000EF0ACFFBDE8104008F0A8B810B50EF046
:1021E000D7FF0EF0A3FFBDE8104008F09FB8000035
:1021F000014600E0491C0A78002AFBD106E000BF36
:1022000011F8012D5C2A03D02F2A01D08142F7D189
:10221000814200D0491C081AC0B2704770B505460B
:1022200001200EF0B5FF0EF0ACFF432828D22B2082
:10223000FFF764FF102823D22F200EF0A9FF002003
:102240000EF0B9FF3220FFF7C9FF142818D1CF20B4
:10225000FFF754FF040013D04C20FFF743FF00EBBF
:1022600004214C2000F051F85020FFF73BFF00EB19
:102270000421502000F049F80021702000F045F8BA
:102280002F200EF085FF2C7806E000BF15F8014FD7
:102290005C2C0AD02F2C08D020460EF08CFF002C8E
:1022A000F4D1BDE870400EF041BF00200EF083FF76
:1022B000F7E770B505460C462C200EF069FF204666
:1022C0000EF079FF3CB128780EF075FF6D1C641E8E
:1022D00014F0FF04F7D1BDE870400EF027BF70B5D1
:1022E00005462D200EF054FF0EF04BFF040026464D
:1022F00007D028780EF05FFF6D1C641E14F0FF04F9
:10230000F7D10EF013FF304670BD70B505460C4690
:102310000D200EF03DFF28460EF04DFFE0B20EF00E
:102320004AFFC4F307200EF046FFC4F307400EF047
:1023300042FF200E0EF03FFFBDE870400EF0F6BEEB
:1023400010B502F0CBFC09F02BFC08494FF400401B
:10235000086006480C38016821F0704141F0405196
:102360000160BDE81040012009F00EBC10080140DA
:1023700010B504460121502009F0D0FCC8B100205E
:1023800009F064FC2070002009F060FC60700020FF
:1023900009F05CFCA070012009F058FCE07009F025
:1023A000F7FC0021502009F0B9FC09F0F1FC0120F4
:1023B00010BD09F0EDFC002010BDF8B50D46064635
:1023C00009F036FC6846FFF7D3FF040011D09DF8F2
:1023D00001009DF8001000EB0120C0F30D003080DB
:1023E0009DF803009DF8021000EB0120C0F38D0062
:1023F000288009F025FC2046F8BD10B504460021D0
:10240000D82009F08BFC60B3062009F055FC40B3DE
:102410000121D82009F082FC18B3002009F016FC35
:102420002070002009F012FC6070002009F00EFC02
:10243000A070002009F00AFCE070012009F006FC01
:10244000207109F0A5FC0021D82009F067FC30209C
:1024500009F032FC0A2009F02FFC09F099FC012058
:1024600010BD09F095FC002010BD7CB50D46064658
:1024700009F0DEFB6846FFF7C0FF040014D09DF8AA
:1024800000009DF80110000400EB01209DF80210EF
:102490009DF8032001449DF804004FF4205303EB02
:1024A000022210443160288009F0CAFB20467CBD1E
:1024B00030B50E480E4C00230078042234F810107A
:1024C000401CC0B20D46052800D3002034F810107F
:1024D0004D1BADB2521E2B4412F0FF02F0D1C3F3DC
:1024E0008F004FF4FA71484330BD00000000002017
:1024F000C403002010B5044612490FF0A1F9124997
:102500000EF0E8FF21460FF09BF910490EF0E2FFB4
:1025100021460FF095F90E490EF0DCFF21460FF031
:102520008FF90C490EF0D6FF21460FF089F90A49C0
:102530000EF0D0FF21460FF083F9BDE810400749A7
:102540000EF0C8BF92EBD72CEEC70B310DBDA234F5
:102550003E5ADE37774BBB3A45B8353D145C1C3FDD
:102560002DE9F04706461A4F0898984691468A4644
:10257000002540B10AF0DAF904461649884504DA24
:102580003046BDE8F0873C46F7E7134890F82C004A
:1025900018B15046FFF7AEFF0546494640460EF0DB
:1025A00099FF29460FF0D2FA21460FF049F9044667
:1025B000394650460EF08EFF08490FF041F931467A
:1025C0000FF03EF92146BDE8F0470EF0F7BF0000DE
:1025D000339388436F12833A3865002066A6CA4257
:1025E0002DE9F0411F4690460C4606460AF09EF93A
:1025F00005460F4920460EF06DFF0E490FF020F9F9
:102600000446414638460EF065FF29460FF018F99A
:1026100021460EF0D3FF31460FF012F906498842E9
:1026200002DA0020BDE8F081BDE8F0410EF03CBACE
:102630003393884366A6CA426F12833A2DE9FF4F4F
:1026400087B090460F461D46182226496846FEF779
:10265000EEF80026012440F2151B40F2035941F622
:102660000C0A00BF09F0A8FB684602F02FFE58468E
:10267000079906F0A5FD1CA140F6020002F0FEFD40
:1026800058F825101AA340F2013240F60C0006F06B
:1026900053FB37F8151000234A46504606F072FBEC
:1026A00000222146684602F03DFE0446012807D07C
:1026B000022C0ED0002CD5D10BB03046BDE8F08FE7
:1026C0002B4642463946079800F014F807E00126E9
:1026D000C8E707EB45014A46504601F0EFFF0028E6
:1026E000C0D0F4E794DA0108C1F7C1BF3A00000096
:1026F0004C2F6D002DE9FF4F8DB0002004908F48C6
:102700001F460E46848831F8175008880A90B1F8A1
:1027100002B0B1F804A0B1F806904FF0010852F8E9
:10272000270087490FF08CF84FF07C510EF0D2FE55
:102730000FF006F881490D9A01EB4201069188815C
:1027400001210D9804F008FB09F036FB7DA1002063
:1027500002F094FDF580B580758035800D980AF003
:10276000F9F803907AA1002002F088FD002340F2DE
:1027700003522946192006F005FB78A14FF440606A
:1027800002F07CFD77A340F2036240F60C4003990F
:1027900006F0D2FA74A14FF4C05002F06FFD0D980C
:1027A00004F0CCFA014641F60C0006F01BFB642055
:1027B0000AF024F90028D1D009F05CFF112856D086
:1027C00008DC01281AD0042878D0092877D01028EE
:1027D00013D106E0212873D0402808D041280CD11D
:1027E00062E042F20F70854205D26D1C02E0632D5B
:1027F00001D96D1EADB20120049089E006986421D4
:102800005B4A8089484303210590880202F034FD29
:1028100040F2036205A940F60C4001F05DFF00B3F1
:102820000120049005980EF0C3FF0290642D19D387
:10283000039810F0FF4F17D028460EF0B9FF054659
:10284000069880890EF0B4FF29460EF0B7FE0146C7
:1028500002980EF0B3FE47490EF0B0FE0EF070FF86
:1028600085B201E04FF47A7509F0A6FA50E040F61F
:102870009800844201D2641CA4B2642111200DF09E
:1028800043F850B138E0641CA4B220460EF090FF2B
:1028900039490EF0D5FF01F057FA012111200DF052
:1028A00033F80028EFD027E0C82C01D9641EA4B269
:1028B000642141200DF028F868B11DE02CE011E002
:1028C00016E0641EA4B220460EF072FF2A490EF0F4
:1028D000B7FF01F039FA012141200DF015F8002869
:1028E000EFD009E040F29E70844205D2643402E0E9
:1028F000DC2C01D9143CA4B220460EF059FF1E492D
:102900000EF09EFF01F020FA0C48848001F050F890
:10291000B8F1000F7FF41EAF00210D9804F01CFAEF
:102920000A983080A6F802B0A6F804A0A6F806908F
:1029300026F81750049811B0BDE8F08F38650020D4
:1029400000002041B5F7CAD4C1F7C1BF00000000A4
:10295000C1F7C1BFB1B6C2CA3A000000C1F7C1BFDA
:102960003A0000004C2F6D00CAE4B3F63A000000B4
:10297000EED001080000C8420AD7233C2DE9F04FF1
:102980008BB0824620223D4901A8FDF750FF40F25E
:10299000015009903B483A4900EB4A0B01EBCA054C
:1029A000BBF80C0001243C354FF00009ADF80000E5
:1029B00040F60C0640F2035741F60C0809F0FCF90A
:1029C00001A802F083FC514640F2151006F0F8FB16
:1029D0002DA3BDF800103046099A06F0D3F92988D6
:1029E00000233A46404606F0CDF90022214601A8D0
:1029F00002F098FC04000FD0012C24D0022C33D01C
:102A0000032CE5D13A462946404601F057FE0028FE
:102A1000DED04FF00109DBE7B9F1000F0AD0232126
:102A20001AA003F0CBF9062807D0072808D0012404
:102A3000002CC3D10BB0BDE8F08F00F043FAF9E7EA
:102A400000F0CAF9F4E769463046099A01F036FE0B
:102A50000028BDD0BDF800006421B0FBF1F1ABF857
:102A60000C1000F0A5FFB3E72946504600F016F819
:102A70000028A3D04FF00109A0E7000074DA010894
:102A8000C4640020386500204C2F6D00B1A3B4E66B
:102A9000B1EAB6A8CAFDBEDD203F00002DE9F04F27
:102AA0005FEA000987B08A484FF0000703978488DF
:102AB0000D46049703D0002007B0BDE8F08F40F228
:102AC0000150019083A0029009F076F90121484657
:102AD00004F042F97E494FF4006B01EB490040F6E7
:102AE0000C0A0590484609F035FF804609F0D4FDF0
:102AF000064609F0E7FE01460020024600903346F4
:102B00004046FFF72DFD064673A1002002F0B6FBFC
:102B10002988002340F20352192006F033F971A1ED
:102B2000584602F0ABFBDDE901233146504606F082
:102B300003F96EA14FF4805002F0A0FBDDE9012300
:102B4000414641F20C0006F0F7F86AA14FF4C0507C
:102B500002F094FB484604F0F1F8014641F60C00FF
:102B600006F040F9642009F049FF0028BAD009F0C6
:102B700081FD112858D00EDC012825D0042872D000
:102B8000092871D01028ADD1288842F20F718842EF
:102B900017D2401C14E0212867D040280CD04128CF
:102BA000A0D1C82C01D9641EA4B2642141200CF02C
:102BB000ABFE002865D076E02888632801D9401E46
:102BC0002880012003908DE705984C4A03218089D5
:102BD0000490584602F050FB04A95046019A01F0B7
:102BE0007BFD0028EFD00120039004980EF0E0FD5B
:102BF00080462888642814D316F0FF4FE3D00EF0E7
:102C0000D7FD0646059880890EF0D2FD31460EF0BC
:102C1000D5FC014640460EF0D1FC0EF091FD288017
:102C200060E74FF47A70FAE740F69800844201D2E8
:102C3000641CA4B2642111200CF066FE58B132E08D
:102C4000641CA4B220460EF0B3FD31460EF0F8FD30
:102C500001F07AF800E02A4E012111200CF054FE18
:102C60000028EDD01FE02CE013E018E0641EA4B2B1
:102C700020460EF09DFD31460EF0E2FD01F064F8B5
:102C800000E01F4E012141200CF03EFE0028EDD057
:102C900009E040F29E70844205D2643402E0DC2CEC
:102CA00001D9143CA4B220460EF082FD14490EF066
:102CB000C7FD01F049F80648848000F079FE002F36
:102CC000AED00021484604F047F80398F4E600002F
:102CD000386500204C2F6D00C1F7C1BFB1B6C2CA24
:102CE0003A000000B9A4BFF63A000000B1EABFF60E
:102CF0003A000000CAE4B3F63A000000EED0010842
:102D00000AD7233C2DE9F0472B49804601EB080008
:102D10002A4990F82060012401EBC800002500F149
:102D20003C0A012E16D0022E43D1254FDFF8949095
:102D300009F042F8384602F0C9FA00222146384626
:102D400002F0F0FA0446052831D2DFE800F0061858
:102D50001E282C001A4F283FE8E7002D29D02321F8
:102D600019A003F02BF8062805D0072821D1BDE8CB
:102D7000F04700F031B8BDE8F04700F0A3B809EB28
:102D80000612002304E00125D2E709EB0612012315
:102D900051464046FFF752FC0028C9D0F3E709EB43
:102DA00006120223F4E709EB06120323F0E7002CD6
:102DB000BED1BDE8F087000038650020C464002063
:102DC000D4DA01088CD90108B1A3B4E6B1EAB6A8F7
:102DD000CAFDBEDD203F000010B5062237494FF482
:102DE000807001F083FE354845F6A5214FF47A74D2
:102DF00082888A4203D0E20002804480818072226D
:102E00002F49802001F072FE2D4845F6A422B0F82B
:102E10007010914250D046F6B321A0F86410A0F88B
:102E20006810A0F86C10A0F86640A0F86A40A0F8FE
:102E30006E4041818181C181018241820485448546
:102E40008485C48504864FF40041018041808180DF
:102E5000C18001818182C182018341838183C483D6
:102E6000048444848484C48444868486C486048719
:102E700044878487A0F84440A0F84640A0F8484022
:102E8000A0F84A40A0F84C40A0F84E40A0F85040AE
:102E9000A0F85240A0F85440A0F85640A0F858407E
:102EA000A0F85A40A0F85C40A0F85E40A0F860404E
:102EB000A0F86240A0F8702010BD0000240200209D
:102EC000C464002010B5062205494FF4807001F05B
:102ED0001DFE7222BDE810400249802001F016BE9E
:102EE00024020020C46400202DE9F04F07467448F6
:102EF00000258BB084882E4608F05EFF40F2044027
:102F0000052F0FD2DFE807F0030507090B006DA1BD
:102F100006E071A104E075A102E079A100E07DA1C5
:102F200002F0ACF98049DFF804A205A8EB4601EBFA
:102F300047080A90B8F822102BF815100BEB450043
:102F40006D1CB8F81810EDB281820A2D02D026B19E
:102F50000A2103E000250126FAE72946684608F021
:102F6000E9FD2AF817000EB10A2100E029460A9867
:102F700008F0E0FD0AEB4709A9F814000EB10A2198
:102F800000E02946684608F0D5FD2AF817000EB182
:102F90000A2100E029460A9808F0CCFDA9F814009F
:102FA00063A140F6064002F069F9384609F006FDD3
:102FB000014640F2026900234A4641F2082005F02A
:102FC000BBFE5DA140F6144002F058F9384609F006
:102FD0005BFC014600234A4641F2162005F0ACFE98
:102FE000282009F00BFD0028A4D009F043FB11288C
:102FF0001FD00BDC012817D0042815D0092899D13F
:1030000040F29E7084424DD264344AE0212845D07B
:1030100041288FD1C82C01D9641EA4B2642141205B
:103020000CF072FC80B33DE0FFF74CFF0BB0BDE845
:10303000F08F40F69800844201D2641CA4B264214F
:1030400011200CF061FC58B12CE0641CA4B22046A5
:103050000EF0AEFB49460EF0F3FB00F075FE01E00A
:10306000DFF8DC90012111200CF04EFC0028ECD0A0
:1030700018E0641EA4B220460EF09AFB49460EF0FA
:10308000DFFB00F061FE02E0FFE7DFF8B490012112
:1030900041200CF039FC0028EBD003E0DC2C01D9F6
:1030A000143CA4B220460EF083FB25490EF0C8FB69
:1030B00000F04AFE0248848000F07AFC3AE7000003
:1030C000386500203CB7DB20B3BE3E20D7D4B6AF76
:1030D000B5F7C1E3000000003CC8D5BEF9413E2071
:1030E000D7D4B6AFB5F7C1E3000000003CC8D5BEE9
:1030F000F9423E20D7D4B6AFB5F7C1E300000000D7
:103100003CCAB1BEF9433E20D7D4B6AFB5F7C1E350
:10311000000000003CCAB1BEF9443E20D7D4B6AF8F
:10312000B5F7C1E30000000034620020C464002051
:10313000C1F7C1BF3A000000BCC6D1B93A000000D7
:103140000AD7233C10B5044602F0C8FE40F60E0034
:10315000052C09D2DFE804F003050D0F110008A1CA
:1031600000E00BA102F08AF82046BDE8104001F013
:1031700091BE0BA1F6E70EA1F4E711A1F2E7000062
:10318000B7DB20B3BE20D7D4B6AFB5F7C1E300009C
:10319000C8D5BEF94120D7D4B6AFB5F7C1E300001A
:1031A000C8D5BEF94220D7D4B6AFB5F7C1E3000009
:1031B000CAB1BEF94320D7D4B6AFB5F7C1E300001A
:1031C000CAB1BEF94420D7D4B6AFB5F7C1E3000009
:1031D0002DE9F14F88B0182278496846FDF727FBA2
:1031E000774808990125848876484FF4A06800EB59
:1031F000410606F114073236002041F20C0940F274
:10320000035A41F60C0B069001E0079858B108F0FC
:10321000D3FD684602F05AF840F21510089905F0FF
:10322000CFFF00200790398800234246484605F02A
:10323000A9FD318800235246584605F0A3FD2946D2
:10324000684602F033F860A140F6020002F016F87A
:10325000089809F019FB01465DA340F2026240F6AE
:103260000C0005F069FD192009F0C8FB0028EAD020
:103270002946684602F01AF809F0FCF9112849D0ED
:1032800008DC012819D004282ED009287CD0102869
:1032900017D10CE021287DD0402802D0412810D140
:1032A00055E06D1CEDB2032D0BD3012509E0012D76
:1032B00000D803256D1EEDB203E0012D06D0022DCE
:1032C00008D0002DAFD109B0BDE8F08F4246394695
:1032D000484602E052463146584601F0EFF90028D0
:1032E000A1D0012006909EE706980028EBD023216C
:1032F00038A002F063FD062802D0072806D102E0BC
:10330000FFF7E0FDDFE7FFF7DDFD0025002D7FF48F
:103310007BAFD8E740F69800844201D2641CA4B287
:10332000642111200CF0F0FA50B137E0641CA4B213
:1033300020460EF03DFA2B490EF082FA00F004FD13
:10334000012111200CF0E0FA0028EFD026E0C82C73
:1033500001D9641EA4B2642141200CF0D5FA50B109
:103360001CE0641EA4B220460EF022FA1D490EF0A5
:1033700067FA00F0E9FC012141200CF0C5FA0028B1
:10338000EFD00BE000E005E040F29E70844205D2F1
:10339000643402E0DC2C01D9143CA4B220460EF0C7
:1033A00007FA10490EF04CFA00F0CEFC0448848075
:1033B00000F0FEFA002D7FF428AF84E744DA01081C
:1033C00038650020C4640020BCC6D1B93A000000B2
:1033D0006B506100B1A3B4E6B1EAB6A8CAFDBEDD88
:1033E000203F00000AD7233C2DE9F14F774882B0F7
:1033F000012584887648029940F2026700EB410675
:1034000006F10A082836002041F20C0B40F203595D
:1034100041F60C0A009001E0019858B108F0CCFC8C
:103420006C4801F053FF40F21510029905F0C8FEF8
:1034300000200190B8F8001000233A46584605F0E5
:10344000A1FC318800234A46504605F09BFC2946E2
:10345000604801F02BFF60A140F6020001F00EFF72
:10346000029809F031FA01465DA33A4640F60C0095
:1034700005F062FC192009F0C1FA0028EBD02946BA
:10348000544801F013FF09F0F5F8112849D008DC81
:10349000012819D004282DD009287CD0102817D154
:1034A0000CE021287DD0402802D0412810D155E0E1
:1034B0006D1CEDB2032D0BD3012509E0012D00D8C1
:1034C00003256D1EEDB203E0012D05D0022D07D0BE
:1034D000002DAFD1BDE8FE8F3A464146584602E086
:1034E0004A463146504601F0E9F80028A2D00120B2
:1034F00000909FE700980028ECD0232139A002F02B
:103500005DFC062802D0072807D103E0BDE8FE4F86
:10351000FFF7D8BCFFF7D6FC0025002D7FF47BAF6A
:10352000D8E740F69800844201D2641CA4B264211A
:1035300011200CF0E9F950B137E0641CA4B2204628
:103540000EF036F92B490EF07BF900F0FDFB01215E
:1035500011200CF0D9F90028EFD026E0C82C01D9B1
:10356000641EA4B2642141200CF0CEF950B11CE0DD
:10357000641EA4B220460EF01BF91E490EF060F93D
:1035800000F0E2FB012141200CF0BEF90028EFD051
:103590000BE000E005E040F29E70844205D2643406
:1035A00002E0DC2C01D9143CA4B220460EF000F954
:1035B00010490EF045F900F0C7FB0448848000F084
:1035C000F7F9002D7FF428AF84E70000386500206C
:1035D000C46400202CDA0108CEC2B6C83A0000004C
:1035E000A1E60000B1A3B4E6B1EAB6A8CAFDBEDD0B
:1035F000203F00000AD7233C2DE9F14F88B0182264
:1036000078496846FDF713F97748089901258488B9
:1036100076484FF4A06800EB4107002007F11E0632
:1036200041F20C0940F2035A41F60C0B069001E0FE
:10363000079858B108F0C0FB684601F047FE40F219
:103640001510089905F0BCFD00200790398800236B
:103650004246484605F096FB3188002352465846BC
:1036600005F090FB2946684601F020FE60A140F677
:10367000020001F003FE089809F0A0F901465EA3DC
:1036800040F2036240F60C0005F056FB192009F0E9
:10369000B5F90028EAD02946684601F007FE08F08F
:1036A000E9FF112849D008DC012819D004282ED0C0
:1036B00009287CD0102817D10CE021287DD0402883
:1036C00002D0412810D155E06D1CEDB2032D0BD373
:1036D000012509E0012D00D803256D1EEDB203E0A0
:1036E000012D06D0022D08D0002DAFD109B0BDE8C4
:1036F000F08F42463946484602E052463146584627
:1037000000F0DCFF0028A1D0012006909EE706987B
:103710000028EBD0232139A002F050FB062802D06C
:10372000072806D102E0FFF7CDFBDFE7FFF7CAFB72
:103730000025002D7FF47BAFD8E740F69800844247
:1037400001D2641CA4B2642111200CF0DDF850B148
:1037500037E0641CA4B220460EF02AF82B490EF084
:103760006FF800F0F1FA012111200CF0CDF80028DB
:10377000EFD026E0C82C01D9641EA4B264214120F8
:103780000CF0C2F850B11CE0641EA4B220460EF04A
:103790000FF81E490EF054F800F0D6FA012141202E
:1037A0000CF0B2F80028EFD00BE000E005E040F2AA
:1037B0009E70844205D2643402E0DC2C01D9143CB2
:1037C000A4B220460DF0F4FF10490EF039F800F0D5
:1037D000BBFA0548848000F0EBF8002D7FF428AF99
:1037E00084E700005CDA010838650020C46400202A
:1037F000B2EED1B93A0000006B506100B1A3B4E65B
:10380000B1EAB6A8CAFDBEDD203F00000AD7233CBE
:1038100010B5402207494FF4C07001F067F9054820
:10382000C08FA0F5B4418B3903D0BDE8104000F043
:1038300003B810BD3865002030B50F4C207830B18A
:10384000012807D0022808D003280BD108E000F097
:103850008FF807E000F072F804E000F055F801E09E
:1038600000F038F8E08F45F68B25A84202D000F032
:1038700005F8E58730BD00003865002013484FF497
:103880009671F0224185002180F8291080F82810D7
:10389000C284012202728270C170427242F2957338
:1038A00043814FF46B738380322383710223C3718E
:1038B0004FF47A73C38503866423438680F82C1003
:1038C0000349416380F83C207047000038650020C0
:1038D000D9AB09000B4803214FF47A7200F8061C9B
:1038E00000218176C2800122C27602230381027701
:1038F00043814177052383818177C381C27780F833
:10390000271070473E6500200B480222002300F874
:10391000062C83764FF47A71C1800121C176028131
:10392000017742814177052282818177C281C17707
:1039300080F82730704700003E6500200B480121C9
:103940004FF47A7200F8061C8176C2800022C2769B
:1039500002230381027743814177052383818177A5
:10396000C381C17780F82720704700003E650020A2
:1039700010B50E480023012100F8063C4FF47A727E
:103980008176C28054100482C1760224048142826E
:10399000017744818282417705248481C2828177C4
:1039A000C4810283C17780F8273010BD3E650020B6
:1039B000402202494FF4C07001F0A8B838650020D9
:1039C0002DE9F84FDFF8E8B0012500269BF82840E4
:1039D000BBF82600ADF8000040F2015741F2144850
:1039E000DFF8D09040F6164A08F0E6F931481C306E
:1039F00001F06CFCC4EBC4014944504601F03EFCAC
:103A00002DA33A46BDF80010404605F0BBF9294801
:103A1000002229461C3001F085FC050023D0012D31
:103A20001DD0022DE6D13A466946404600F046FEDA
:103A30000028DFD0BDF80000962804D29620ADF80B
:103A4000000008F086F8BDF800104FF4967081422F
:103A500003D9ADF8000008F07CF80126CAE7641C21
:103A600004F00304F9E7002E0BD0232113A002F089
:103A7000A5F902281AD0062805D0072801D1FFF79A
:103A8000C7FEBDE8F88F0BF12605AC70BDF800004D
:103A9000ABF82600FFF78CFF28880DF089FE0B4954
:103AA0000DF0CEFEA9780CF05BFDEAE701259BE75F
:103AB0003865002030DC0108A1E60000B1A3B4E6BF
:103AC000C5E4D6C3CAFDBEDD203F0000CDCCCC3D51
:103AD0002DE9F84F404E0125002796F82940708DBA
:103AE000ADF8000040F2015A4FF4AF78DFF8EC90E7
:103AF00040F6194B08F060F934B13848C83001F08D
:103B0000E5FB012C05D00CE03448E03001F0DEFB91
:103B100007E033A35246BDF8001040F6144005F00C
:103B200031F959F82410584601F0A8FB4FF0000273
:103B3000294634B32948C83001F0F4FB050028D0E9
:103B4000012D21D0022DDCD1012CD3D15246694662
:103B500041F6140000F0B2FD0028CBD0BDF8000003
:103B6000962804D29620ADF8000007F0F2FFBDF8C9
:103B70000010414503D9ADF8008007F0EAFF0127A6
:103B8000B8E71648E030D7E70CB10024F7E7012486
:103B9000F5E7002F0BD0232112A002F00FF9022825
:103BA00017D0062805D0072801D1FFF731FEBDE860
:103BB000F88FBDF80000708586F82940FFF7F8FE01
:103BC000708D0DF0F5FD0B490DF03AFE0CF0DCFCAC
:103BD000EDE701258EE70000386500209CDB010839
:103BE000A1E60000B1A3B4E6C5E4D6C3CAFDBEDDBC
:103BF000203F0000CDCCCC3D2DE9F05F002540F208
:103C000002594FF4247640F2145A4FF48177DFF8CA
:103C100090804FF4897B234C08F0CEF8224A494625
:103C2000304606F080FB204A5146304606F07BFBCA
:103C30001EA1384601F022FB1F4A0621384601F03A
:103C40001BFB2178584658F8211001F017FBFFF7AD
:103C5000F3FD02F0ADFF08F00DFD01280ED00428A1
:103C6000DAD13DB1232115A002F0A8F806280FD023
:103C70000728D1D1BDE8F05FFFF7CABD2078401C0E
:103C8000C0B22070042801D3002020700125C3E7B2
:103C9000FFF7D2FDFFF78CFEBDE8F05F04F0C4BC77
:103CA000BCD7010838650020AECE0108D2C7C6F7E0
:103CB000D0CDBAC53A000000EED00108B1A3B4E6F9
:103CC000D0DEB8C4BDE1B9FB3F0000002DE9FF5FC5
:103CD00000249B4691468A46264625463AF814001B
:103CE0000DF066FD17490DF0ABFDB04659F82460A4
:103CF00001462F4630460DF061FC0546014600980E
:103D00000DF06AFE03D2641CE4B25C45E6D339468A
:103D100028460DF01BFF0446414630460DF016FFC5
:103D200021460DF04BFC0446394600980DF00EFF7D
:103D300021460DF085FD04B04146BDE8F05F0DF071
:103D4000C9BB00006F12833A014948607047000008
:103D500028000020044908700448C079002801D0D8
:103D6000FDF746BF7047000028000020386500209E
:103D70000A4980B1012806D0022807D0032808D0BC
:103D80004FF0FF3007E043F6982004E047F2305050
:103D900001E04EF6602048607047000008000020F7
:103DA00003F01ABFC0B2202800D27F20024901EBE5
:103DB0000010A0F500707047341D0108C0B2202823
:103DC00000D27F20034900EB400001EB0010A0F57A
:103DD000C06070476E6F010870B5C0B20123114C0E
:103DE00060F31F211F229818400804EB400514F8C7
:103DF00010606D7805EB0625ADB2A94205D10949E1
:103E000001F1400101EB401070BD03D900F1010048
:103E100083B202E0A0F1010082B29342E3D90148EB
:103E2000403070BD3423010870B5C0B20123114D7C
:103E300060F31F21F8229818400805EB400415F89C
:103E40001060647804EB0624A4B2A14205D10A49AB
:103E500000EBC00001EBC00070BD03D900F1010010
:103E600083B202E0A0F1010082B29342E3D902489A
:103E700070BD0000742701086629010870B50C4662
:103E8000064615460021A02007F048FF60B1300A21
:103E900007F012FF40B1F0B207F00EFF20B1012190
:103EA000A02007F03BFF48B907F072FF002070BD6B
:103EB000002007F0CBFEC04304F8010B6D1E15F087
:103EC000FF05F5D1012007F0C1FEC043207007F0C7
:103ED0005FFF012070BD000070B50C460646154618
:103EE0000021A02007F01AFF08B3300A07F0E4FE13
:103EF000E8B1F0B207F0E0FEC8B100BF14F8010B62
:103F0000C043C0B207F0D8FE88B16D1E15F0FF05A2
:103F1000F4D107F03DFFA0254FF4C87400212846D6
:103F200007F0FCFE30B107F033FF012070BD07F051
:103F30002FFF03E0641E2404240CEFD1002070BD89
:103F400010B501F0C7F810BD0349012008700349FE
:103F5000400308607047000038000020140401404E
:103F600010B501F0B7F810BD10B501F0B3F810BDF1
:103F700010B501F0AFF810BD10B501F0ABF810BDF1
:103F800010B501F0A7F810BD2DE9F34FE44897B044
:103F90004FF00108858803A91898FCF795FD08984B
:103FA000DFF880B300F26C7087B207984FF4FA6ABA
:103FB000401CC6B2069840F63309C4B233463A46AE
:103FC000D9A111A80094FCF703FA11A9179801F0E0
:103FD00055F94046B8F1010F05D0022807D0B8F1D5
:103FE000030F09D117E0D44A0421179802E017986B
:103FF0000A3012E001F040F908F03CFB10282ED006
:104000000FDC0A28DAD2DFE800F005EF0505EE053F
:104010000505EDECD2E71798103080B2C64A0221B0
:10402000E8E7212878D00BDC112876D02028C5D1EC
:10403000A8F1010010F0FF08C0D103208046BDE7C1
:1040400040286BD04128B9D1C82D01D96D1EADB221
:10405000642141200BF058FC00287BD053E14046FE
:10406000B8F1010F14D0022834D0B8F1030FA5D154
:104070003C2110200BF048FC002864D03146384623
:1040800007F09CFE641CE4B2A04297D2012495E79D
:104090003C2110200BF038FCA8B17F1CBFB24F456B
:1040A00000D9574691E07F1CBFB24F4500D9574613
:1040B00033463A469CA111A80094FCF789F911A94E
:1040C000179801F0DBF80F2110200BF01DFC0028E1
:1040D000E9D07AE03C2110200BF016FCA8B1761C48
:1040E000F6B20C2E96D9012668E7761CF6B20C2E95
:1040F00000D9012633463A468BA111A80094FCF75B
:1041000067F911A9179801F0B9F80F2110200BF0E9
:10411000FBFB002893D1E8E7F1E0BCE01BE031466F
:10412000384607F04BFE641CE4B2A04200D20124E2
:1041300033463A467CA111A80094FCF749F911A92D
:10414000179801F09BF80F2110200BF0DDFB0028E1
:104150009DD1E4E7C6E04046B8F1010F14D0022833
:1041600043D0B8F1030F92D13C2140200BF0CCFB9F
:10417000002870D0641E14F0FF0488D13146384600
:1041800007F01CFE044619E73C2140200BF0BCFB65
:10419000A8B17F1EBFB2574517D24F4615E07F1E0C
:1041A000BFB2574500D24F4633463A465EA111A8EA
:1041B0000094FCF70DF911A9179801F05FF80F2191
:1041C00040200BF0A1FB0028E9D033463A4656A127
:1041D00011A80094FCF7FCF811A9179801F04EF80B
:1041E00001E786E03EE054E045E03C2140200BF052
:1041F0008BFBA8B1761E16F0FF06C4D10C26DDE6B7
:10420000761E16F0FF0600D10C2633463A4646A12C
:1042100011A80094FCF7DCF811A9179801F02EF80A
:104220000F2140200BF070FB0028ACD1E8E7641EA2
:1042300014F0FF0404D13146384607F0BFFD0446B0
:1042400033463A4638A111A80094FCF7C1F811A9E9
:10425000179801F013F80F2140200BF055FB0028B0
:1042600091D1E4E708F1010000F0FF08B8F1030F75
:1042700089D90120E2E606A9A7F26C77761ED0C1A3
:1042800003A8FCF76AFB18990860012019B0BDE883
:10429000F08F0020FAE740F69800854201D26D1CAD
:1042A000ADB2642111200BF02FFB50B12BE06D1C3F
:1042B000ADB228460DF07CFA59460DF0C1FAFFF771
:1042C00043FD012111200BF01FFB0028EFD01AE065
:1042D0006D1EADB228460DF06BFA59460DF0B0FADE
:1042E000FFF732FD012141200BF00EFB0028EFD03B
:1042F00009E040F29E70854205D2643502E0DC2D73
:1043000001D9143DADB228460DF052FA59460DF0D0
:1043100097FAFFF719FD02488580FFF749FB4DE644
:10432000386500200AD7233C253034752D253032DE
:10433000752D253032750000EED001082DE9F04FC3
:10434000DFF85C938A4691B08346B9F804400125B2
:1043500001A95046FCF7B8FB1827DFF848833C2634
:104360000198DDE902320090CFA10CA8FCF730F8EB
:104370000CA9584600F082FF012D04D0022D06D072
:10438000032D09D117E0CC4A0221584602E00BF177
:10439000060012E000F070FF08F06CF910282CD035
:1043A0000FDC0A28DCD2DFE800F005F00505EF0598
:1043B0000505EEEDD4E70BF10C0080B2BE4A0221F8
:1043C000E8E721287DD009DC11287BD02028C7D13F
:1043D0006D1E15F0FF05C3D10325C1E740287DD030
:1043E0004128BDD1C82C01D9641EA4B2642141204A
:1043F0000BF08AFA002867D044E1012D0CD0022D81
:104400002CD0032DACD13C2110200BF07DFA0028DC
:104410005DD00198401C6FE03C2110200BF074FA35
:10442000A8B10398401C74E00398401CB0FBF7F15E
:1044300007FB110003900198DDE9023200909AA178
:104440000CA8FBF7C5FF0CA9584600F017FF0F2179
:1044500010200BF059FA0028E6D079E03C2110201A
:104460000BF052FAA8B10298401C85E00298401C5B
:10447000B0FBF6F106FB110002900198DDE9023273
:10448000009089A10CA8FBF7A3FF0CA9584600F0E7
:10449000F5FE0F2110200BF037FA00288AD1E5E74E
:1044A0000198DDE90232401CB0FBF6F106FB110079
:1044B000019000907CA10CA8FBF78AFF0CA958463C
:1044C00003E0DBE0A6E009E0CBE000F0D7FE0F213F
:1044D00010200BF019FA002894D1E1E7012D11D03A
:1044E000022D42D0032D8DD13C2140200BF00CFA3F
:1044F000002877D001983B30B0FBF6F106FB1100A5
:1045000001902DE73C2140200BF0FEF9D0B103983B
:104510001730B0FBF7F107FB1100039018E0039888
:104520001730B0FBF7F107FB110003900198DDE9AC
:10453000023200905CA10CA8FBF74AFF0CA9584678
:1045400000F09CFE0F2140200BF0DEF90028E6D0A1
:104550000198DDE90232009053A10CA8FBF738FF67
:104560000CA9584600F08AFE0DE73C2140200BF0D4
:10457000CBF9F0B102983B30B0FBF6F106FB11002D
:104580000290EDE674E034E042E038E002983B301F
:10459000B0FBF6F106FB110002900198DDE9023252
:1045A000009041A10CA8FBF713FF0CA9584600F09E
:1045B00065FE0F2140200BF0A7F90028A1D1E5E707
:1045C0000198DDE902323B30B0FBF6F106FB110049
:1045D0000190009034A10CA8FBF7FAFE0CA95846F4
:1045E00000F04CFE0F2140200BF08EF9002888D1FE
:1045F000E6E76D1CEDB2032DC3D90125B0E601A895
:10460000FCF7ABF9CAF80000012011B0BDE8F08F4B
:104610000020FAE740F69800844201D2641CA4B25C
:10462000642111200BF070F950B12BE0641CA4B28E
:1046300020460DF0BDF841460DF002F9FFF784FB6E
:10464000012111200BF060F90028EFD01AE0641E60
:10465000A4B220460DF0ACF841460DF0F1F8FFF79A
:1046600073FB012141200BF04FF90028EFD009E046
:1046700040F29E70844205D2643402E0DC2C01D901
:10468000143CA4B220460DF093F841460DF0D8F842
:10469000FFF75AFBA9F80440FFF78AF960E600002B
:1046A000386500200AD7233C253032753A25303250
:1046B000753A253032750000EED0010838B50C4649
:1046C00009880091694600F007F8002802D0009898
:1046D0002080012038BD00002DE9F74F90B0002563
:1046E0001198904612F0FF070168724884884FEADB
:1046F0001220814601D0A9F10100C6B26E48A6EB96
:10470000070A50F82600B1FBF0F200FB121B5846D6
:104710000DF04EF86849283151F827100CF04EFF83
:104720000CF0ACFECDE9000108F0FF034A4663A19E
:104730000AA8FBF74DFE0AA9109800F09FFD1098FB
:10474000AA4500EB450000DC801C80B25D4A0121D7
:1047500000F092FD681C0090864206D35648711BFB
:1047600000EB810050F8040C00E00120019007F0FC
:1047700081FF112857D01CDC082843D007DC012812
:104780004CD00428C3D1002013B0BDE8F08F092815
:1047900079D01028BBD101990A20BBFBF1F1B1FB04
:1047A000F0F200FB1210092815D001990BEB010063
:1047B00020E020282AD021286BD040280ED0412884
:1047C000A5D1C82C01D9641EA4B2642141200BF0EC
:1047D0009BF8A0B361E0019840420EE001990A20E5
:1047E000BBFBF1F1B1FBF0F200FB121020B101991B
:1047F000ABEB010083468AE7019800EBC00101EBB7
:104800000B00F7E70098B0FBF6F103E0A819401E93
:1048100090FBF6F106FB1100C5B278E71199012073
:10482000C1F800B0B0E740F69800844201D2641CA1
:10483000A4B2642111200BF067F858B12DE01AE002
:10484000641CA4B220460CF0B3FF1F490CF0F8FF23
:10485000FFF77AFA012111200BF056F80028EFD06B
:104860001BE0641EA4B220460CF0A2FF16490CF017
:10487000E7FFFFF769FA012141200BF045F8002816
:10488000EFD00AE0FFE740F29E70844205D2643424
:1048900002E0DC2C01D9143CA4B220460CF088FFC5
:1048A00009490CF0CDFFFFF74FFA02488480FFF76B
:1048B0007FF82CE73865002034D6010825302A2EF1
:1048C0002A660000EED001080AD7233C2DE9F35FE9
:1048D0000A8889464FF03C0BB2FBFBF16423B1FB25
:1048E000F3F4DFF8FCA103FB14160BFB1125BAF857
:1048F00004404FF000080127C6EB061005EB8001CD
:10490000009804F089FC012F06D0022F08D0032F55
:1049100018D0042F09D118E0724A0121009802E052
:104920000098801C13E000F0A7FC07F0A3FE1128FC
:104930007FD015DC082861D00DDC01286CD004285C
:104940005BD172E00098801D01E00098083080B2D1
:10495000644A0121E7E7092877D010284DD108E003
:10496000202851D0212871D0402813D0412844D18B
:104970007EE0012F06D0022F06D0032F06D0042F91
:104980003BD105E00A360FE0711C15E00A3521E045
:10499000691C26E0012F06D0022F0BD0032F18D060
:1049A000042F2AD11BE05A366420B6FBF0F100FB3D
:1049B0001166A1E706F109010A20B1FBF0F200FB44
:1049C0001211B6FBF0F000EB800001EB4000C6B224
:1049D00092E73235B5FBFBF10BFB11558CE705F186
:1049E00009010A20B1FBF0F200FB1211B5FBF0F057
:1049F00000EB800001EB4000C5B26AE07F1CFFB213
:104A0000042F66D9012764E07F1E17F0FF0760D1ED
:104A100004275EE00DE0FFE7C6EB061005EB800122
:104A2000A9F800104FF0010856E04FF00008474683
:104A30004FE040F69800844201D2641CA4B2642185
:104A400011200AF061FF60B137E02CE031E0641C16
:104A5000A4B220460CF0ACFE23490CF0F1FEFFF7A7
:104A600073F9012111200AF04FFF0028EFD024E054
:104A7000C82C01D9641EA4B2642141200AF044FF6D
:104A800050B11AE0641EA4B220460CF091FE164903
:104A90000CF0D6FEFFF758F9012141200AF034FF4F
:104AA0000028EFD009E040F29E70844205D26434C1
:104AB00002E0DC2C01D9143CA4B220460CF078FEB4
:104AC00009490CF0BDFEFFF73FF9AAF80440FEF7D4
:104AD0006FFF002F7FF46DAF4046BDE8FC9F0000E4
:104AE00038650020EED001080AD7233C70B5144683
:104AF0000D46064607F09CF8E2B229463046FFF71D
:104B0000BDF9044607F09CF8204670BD70B5144608
:104B10000D46064607F08CF8E2B229463046FFF70C
:104B2000DBF9044607F08CF8204670BD70B50BA089
:104B3000FDF7D6F80C4D0024102255F824000B493F
:104B4000FDF7E0F855F8240040221021FDF756F853
:104B5000641CE4B2052CEFD370BD00005C53414DE2
:104B6000504C45520000000058D301085A01002063
:104B700010B51446064A01EB8101C90052F8200025
:104B80002423224602F016FF002800D1206010BD29
:104B900058D3010870B50D460446164664210A48EC
:104BA000FBF777FE242231460748FBF7FBFD05EBB8
:104BB0008500C10005482823034A50F82400BDE8B9
:104BC000704002F0F9BE0000BC61002058D301081B
:104BD00070B58CB00D460446302226496846FBF776
:104BE00026FE25492846FBF76FFF234822492C3033
:104BF000C368CA6893423BD04B6903F26C7343614C
:104C00000969491CC0E9032161696422481E90FBBF
:104C1000F2F3C51700EB9575C3EBA503950090FB68
:104C2000F5F633448E070ED191FBF2F602FB161215
:104C300022B991FBF5F205FB121121B92169022974
:104C400001DD012100E0002122696D4605EB8202B1
:104C5000E56852F8042C2A4440F26D1500FB05303B
:104C600010440844072190FBF1F201FB1200A061FF
:104C70000CB070BD84D60108AC63002070B5154C33
:104C8000154E204694F8251090F82850C08C012924
:104C900015D0022909D003291BD10CF089FD31461A
:104CA0000CF0CEFD29460BF05BFC608D0CF080FD16
:104CB00031460CF0C5FDBDE870400BF065BC0CF052
:104CC00077FD31460CF0BCFD2946BDE870400BF085
:104CD00047BC70BD38650020CDCCCC3D1148816902
:104CE00041F0010181611049202048610F480168AD
:104CF00021F400510160001F016821F45C41016052
:104D00000A49091D0A680A60091D0A6842F400522E
:104D10000A60064A411410321160016841F40051E2
:104D2000016070470010024000000140040401408F
:104D300008B50020009001F0D1F808A140F6162037
:104D400000F09CFA4FF4C062694641F21620FFF76A
:104D5000C3FC002800D0009808BD0000CAE4C8EBDE
:104D6000C3DCC2EB3A00000010B50DA140F60F0005
:104D700000F084FA0EA140F60F4000F07FFA10A177
:104D800041F20F0000F07AFA11A141F20F4000F059
:104D900075FABDE8104012A141F60F0000F06EBA9E
:104DA000B0FCC0A8CAB1BCE4C9E8D6C3000000008A
:104DB000CEACBBA4C3DCC2EBB5C4D0DEB8C400002B
:104DC000D2D4BCB0D2BABEA7C6C1C4BBB5C4000061
:104DD000CFD4CABEB6D4B1C8B6C820C1C1B6C80007
:104DE000BACDC1C1C6C1CAB1B3A400002DE9F0411A
:104DF000012406F0E1FF4FF431664FF4C0681A4D0C
:104E000041F2142701F06AF8184800F05FFA184AD6
:104E10002146164800F086FA0446012807D0022CE5
:104E200008D0032C1CD0002CECD1BDE8F0810AF096
:104E30005FF9E7E701F052F80EA1304600F01EFAE4
:104E4000424629463846FFF747FC0028DAD00021C1
:104E50000CA000F0B3FF06F0AFFFFEF7A9FDD1E70D
:104E60000AF088F8CEE700006C650020E4DB01085A
:104E7000694D0008C7EBCAE4C8EBD0C2C3DCC2EB83
:104E80003A000000C3DCC2EBD0DEB8C4B3C9B9A697
:104E9000210000002DE9F04F074669488BB06949B1
:104EA00084880025DFF8A0A105A82E46EB4601EB7B
:104EB00047080A90B8F822102BF815100BEB4500A4
:104EC0006D1CB8F81810EDB281820A2D02D026B1FF
:104ED0000A2103E000250126FAE72946684606F084
:104EE00029FE2AF817000EB10A2100E029460A9887
:104EF00006F020FE0AEB4709A9F814000EB10A21BA
:104F000000E02946684606F015FE2AF817000EB1A3
:104F10000A2100E029460A9806F00CFEA9F81400C0
:104F20004AA140F60F7000F0A9F9384607F046FD97
:104F3000014640F2026900234A4641F20E5003F056
:104F4000FBFE44A140F61C7000F098F9384607F0CB
:104F50009BFC014600234A4641F21B5003F0ECFE45
:104F6000282007F04BFD0028A4D007F083FB112870
:104F70001FD00BDC012817D0042815D0092899D19F
:104F800040F29E7084424DD264344AE0212845D0DC
:104F900041288FD1C82C01D9641EA4B264214120BC
:104FA0000AF0B2FC80B33DE0FDF78CFF0BB0BDE82A
:104FB000F08F40F69800844201D2641CA4B26421B0
:104FC00011200AF0A1FC58B12CE0641CA4B22046C8
:104FD0000CF0EEFB49460CF033FCFEF7B5FE01E0A9
:104FE000DFF87890012111200AF08EFC0028ECD027
:104FF00018E0641EA4B220460CF0DAFB49460CF01F
:105000001FFCFEF7A1FE02E0FFE7DFF85090012150
:1050100041200AF079FC0028EBD003E0DC2C01D918
:10502000143CA4B220460CF0C3FB0C490CF008FC65
:10503000FEF78AFE02488480FEF7BAFC3AE70000D9
:105040003865002034620020C4640020C1F7C1BF6D
:105050003A000000BCC6D1B93A0000000AD7233C90
:105060000449FF2008600348143801686FF3090100
:1050700001607047140401401348816941F0010147
:1050800081611248012181600021C16010480168DE
:105090006FF309010160001F016821F44071016094
:1050A0000B49091D0A6842F0FF020A60091D0A68DF
:1050B00042F0FF020A60064AFF21103211600168C7
:1050C00041F0FD0101607047001002400000014006
:1050D0000404014010B5FFF7C3FF0348C068BDE8F2
:1050E00010400AF081BB00000800002010B500212C
:1050F00008480AF061FB084C0021E0600548001DEB
:105100000AF05AFBA06003480021BDE810400830B7
:105110000AF094BB1C1D0108080000200F4881699B
:1051200041F004018161816941F0080181610C490C
:10513000FC2008600B49032008600948103801680A
:10514000094AC9B21143016006481038016821F0CC
:105150000F0141F00801016070470000001002409B
:1051600010080140100C014000888888064800683B
:105170000649C0F38500096801F0010140EA811188
:105180007F2088437047000008080140080C014058
:105190002DE9F0412C4C2B4820612C4860612C48B3
:1051A000A0612C4805682C48854200DD05462B4847
:1051B000C08905F077F90146E068606280462846BC
:1051C0000CF0C4FC0546E060294620690CF038FB71
:1051D00007466060294660690CF032FBA1680CF05C
:1051E00079F90646A060414628460CF0AFFCA1695B
:1051F0000CF026FB05462062314638460CF06AF971
:1052000029460CF067F916490CF01AFB05461549BA
:10521000E0690CF015FB29460CF05CF91249E061DD
:10522000884202DC1149884200DAE1611049E069F4
:105230000CF006FB0CF084FABDE8F04180B200F0FF
:1052400045BE0000A69B443C900000200E745A3CD2
:1052500051499D3B2C0000200000B04120620020FD
:105260003333333F9A99993E83C02A3F0AD7A33CF0
:105270000000D84604F0C8B902F008BE02F000BF32
:1052800008498A6942F010028A6108B1891501E073
:105290004FF0807104480161416821F00F01C91C81
:1052A00041607047001002400010014070B50C468C
:1052B00000EBC40605467068FBF7FEF9C1B235F88D
:1052C00034007268BDE87040FFF7D6BF70B5018842
:1052D0000546080ACEB201D07043C6B2696819B15A
:1052E0004FF48170FFF7CAFF4FF424740C4A40F268
:1052F0000251204605F017F8094A40F214512046A1
:1053000005F011F8012408E005EBC400416835F808
:105310003400FFF7B3FF641CE4B2B442F4D970BDAB
:10532000AECE010800F03AB930B41C46134622460E
:1053300030BC00F005BA30B41C461346224630BCDF
:1053400000F0E8BA30B41C461346224630BC00F0E8
:1053500001B800002DE9FF5F06460C4685483188FC
:10536000904685884FF0000B080ACFB232D07843C0
:1053700000F0FF0A0CB1544500D9012406EBC40922
:10538000D9F80400FBF798F9C1B236F83400D9F81F
:105390000420FFF771FF00BF5FEA080000D08047DC
:1053A000322007F02BFB0028F6D036F83400D9F86D
:1053B0000410FFF763FF07F05DF9102847D00BDCFE
:1053C0000A28DBD2DFE800F005575B05D005A90508
:1053D0002292D3E7BA46CDE7212872D008DC112803
:1053E0004FD02028CAD1039850EA0B003CD032E0BD
:1053F000402823D04128C1D1C82D01D96D1EADB29E
:10540000642141200AF080FAA0B379E0039850EAC1
:105410000B0017D003E000BFA4EB0A000CE0B4FBC4
:10542000F7F007FB104008B9E01BC4B2641CE4B2FB
:10543000A4E7E01B00E0E019C4B29FE7039830EA5C
:105440000B00ECD1E019C4B2544597D9E4E70398B6
:1054500030EA0B0008D0641EE4B2B4FBF7F007FB9F
:10546000104000288AD1E6E7BC42E2D804EB0A00EB
:10547000C4B2DEE731E0204604B0BDE8F09FFF2073
:10548000FAE740F69800854201D26D1CADB2642166
:1054900011200AF039FA58B132E06D1CADB228463D
:1054A0000CF086F949460CF0CBF9FEF74DFC01E013
:1054B000DFF8C490012111200AF026FA0028ECD070
:1054C0001EE019E06D1EADB228460CF071F9494698
:1054D0000CF0B6F9FEF738FC01E0DFF89C900121F2
:1054E00041200AF011FA0028ECD009E040F29E7049
:1054F000854205D2643502E0DC2D01D9143DADB200
:1055000028460CF055F91C490CF09AF9FEF71CFCE2
:1055100018488580FEF74CFA30E7C82106200AF0CB
:10552000F3F9002884D106F014FB642006F098FCFF
:1055300006F00FFB06F040FC10A14FF4C160FFF72E
:105540009DFEFEF765F90B494FF4E062383140F6F5
:105550000C40FFF7C1F838B104210CA000F02EFC7C
:10556000062803D0FEF754F9002085E7FEF720FA5D
:10557000FAE70000386500200AD7233CC7EBCAE4ED
:10558000C8EBB3F6B3A7B1E0BAC53A00CAC7B7F1E2
:10559000B1A3B4E6B1E0BAC53F0000002DE9F05F69
:1055A0000C46DFF894B101880646BBF804509046DB
:1055B000080ACFB232D0784300F0FF0A0CB154454C
:1055C00000D9012406EBC409D9F80400FBF774F8EC
:1055D000C1B236F83400D9F80420FFF74DFE00BF01
:1055E0005FEA080000D08047322007F007FA002861
:1055F000F6D036F83400D9F80410FFF73FFE07F074
:1056000039F810283DD00BDC0A28DBD2DFE800F0A7
:105610000540450543050505277DD3E7BA46CDE797
:10562000212878D00DDC112839D02028CAD1641E59
:10563000E4B2B4FBF7F007FB10400028C2D1E01938
:105640001DE0402815D04128BCD1C82D01D96D1EC0
:10565000ADB2642141200AF057F9B8B35FE0B4FB62
:10566000F7F007FB104008B9E01BC4B2641CE4B2B9
:10567000A8E7E019C4B25445A4D9A4EB0A00C4B207
:10568000A0E7BC4202D804EB0A00C4B2E01BF6E774
:105690002046BDE8F09F0020FBE7FF20F9E740F639
:1056A0009800854201D26D1CADB2642111200AF030
:1056B0002BF960B133E06D1CADB228460CF078F8E0
:1056C00049460CF0BDF8FEF73FFB02E013E0DFF8BF
:1056D0006C90012111200AF017F90028EBD01EE090
:1056E0006D1EADB228460CF063F849460CF0A8F8E0
:1056F000FEF72AFB01E0DFF84490012141200AF087
:1057000003F90028ECD00AE005E040F29E708542E3
:1057100005D2643502E0DC2D01D9143DADB2284636
:105720000CF046F805490CF08BF8FEF70DFBABF8D2
:105730000450FEF73DF945E7386500200AD7233CC1
:105740002DE9FF5F06460C467048318890468588F3
:105750004FF0000B080ACFB232D0784300F0FF0AB6
:105760000CB1544500D9012406EBC409D9F8040052
:10577000FAF7A2FFC1B236F83400D9F80420FFF7D7
:105780007BFD00BF5FEA080000D08047322007F0B1
:1057900035F90028F6D036F83400D9F80410FFF7B0
:1057A0006DFD06F067FF102847D00BDC0A28DBD21E
:1057B000DFE800F005575D055B0505052294D3E79A
:1057C000BA46CDE7212874D008DC112851D0202812
:1057D000CAD1039850EA0B003CD032E0402823D0D5
:1057E0004128C1D1C82D01D96D1EADB2642141201F
:1057F0000AF08AF8A0B37BE0039850EA0B0017D0B8
:1058000003E000BFA4EB0A000CE0B4FBF7F007FBD9
:10581000104008B9E01BC4B2641CE4B2A4E7E01B6A
:1058200000E0E019C4B29FE7039830EA0B00ECD126
:10583000E019C4B2544597D9E4E7039830EA0B0065
:1058400008D0641EE4B2B4FBF7F007FB1040002858
:105850008AD1E6E7BC42E2D804EB0A00C4B2DEE734
:1058600033E0204604B0BDE8F09F0020FAE7FF20B7
:10587000F8E740F69800854201D26D1CADB2642174
:1058800011200AF041F858B132E06D1CADB2284643
:105890000BF08EFF49460BF0D3FFFEF755FA01E0FF
:1058A000DFF86C90012111200AF02EF80028ECD0CE
:1058B0001EE019E06D1EADB228460BF079FF494697
:1058C0000BF0BEFFFEF740FA01E0DFF84490012143
:1058D00041200AF019F80028ECD009E040F29E704F
:1058E000854205D2643502E0DC2D01D9143DADB20C
:1058F00028460BF05DFF06490BF0A2FFFEF724FAE5
:1059000002488580FEF754F82EE700003865002035
:105910000AD7233C2DE9FF5F064673480C463188C1
:105920008588080AC9B2984691468A4630D000FB5D
:105930000AF0C0B200900CB1844200D9012406F0F4
:1059400099FF834606EBC40703977868FAF7B4FE1D
:10595000C1B236F834007A68FFF78EFC5FEA0900BE
:1059600000D0804706F086FFA0EB0B00C7B2A8EB83
:1059700007025EA101A8FAF72BFD01A940F6097004
:10598000FFF77CFC474507D3012004B0BDE8F09F3A
:105990000846CDF800A0CEE7322007F02FF8002807
:1059A000DCD00398416836F83400FFF767FC06F056
:1059B00061FE10283ED009DC0A28C3D2DFE800F0DF
:1059C0000542460544050505267CBBE7212879D01C
:1059D0000EDC11283CD02028B4D1641EE4B2B4FB04
:1059E000FAF10AFB11400028ACD104EB0A001FE0D9
:1059F000402816D04128A5D1C82D01D96D1EADB2C1
:105A00006421412009F080FFC8B35FE0B4FBFAF1E4
:105A10000AFB114010B9A4EB0A00C4B2641CE4B242
:105A200090E704EB0A00C4B2009884428AD9201A95
:105A3000C4B287E7544502D800982044C4B2A4EB0E
:105A40000A00F5E72046A0E700209EE7FF209CE73C
:105A500040F69800854201D26D1CADB26421112040
:105A600009F052FF60B131E06D1CADB228460BF079
:105A70009FFE39460BF0E4FEFEF766F901E012E006
:105A80001C4F0121112009F03FFF0028ECD01DE040
:105A90006D1EADB228460BF08BFE39460BF0D0FEE2
:105AA000FEF752F900E0134F0121412009F02CFFCD
:105AB0000028EDD00AE005E040F29E70854205D254
:105AC000643502E0DC2D01D9143DADB228460BF05F
:105AD0006FFE08490BF0B4FEFEF736F902488580E8
