:020000040800F2
:10000000905000203D030008450300084703000806
:10001000490300084B0300084D03000800000000DE
:100020000000000000000000000000007502000851
:100030005103000800000000ED0200082903000839
:1000400057030008570300085703000825690008F4
:100050005703000857030008013B0008213B000834
:10006000293B0008313B0008393B000857030008D2
:1000700057030008570300085703000857030008F8
:1000800057030008570300085703000857030008E8
:10009000570300085703000857030008413B0008B6
:1000A00057030008570300085703000857030008C8
:1000B00057030008570300081D8500085703000870
:1000C00057030008570300085703000857030008A8
:1000D000570300085703000857030008E18500088C
:1000E000093B0008570300085703000800F002F816
:1000F00000F07AF80AA090E8000C82448344AAF148
:100100000107DA4501D100F06FF8AFF2090EBAE845
:100110000F0013F0010F18BFFB1A43F0010318473B
:1001200070D5010090D501000A444FF0000C10F882
:10013000013B13F0070408BF10F8014B1D1108BF65
:1001400010F8015B641E05D010F8016B641E01F805
:10015000016BF9D113F0080F1EBF10F8014BAD1C55
:100160000C1B09D16D1E58BF01F801CBFAD505E073
:1001700014F8016B01F8016B6D1EF9D59142D6D3CD
:10018000704700000023002400250026103A28BFF5
:1001900078C1FBD8520728BF30C148BF0B607047F9
:1001A00066290FF0A883642900F07881752900F092
:1001B0007581782900F0AE81732900F098870020BE
:1001C00070471FB500F097FF0400002000210EF0DB
:1001D000EDFCE0601FBD10B510BD03B4FFF7FBFFE1
:1001E00003BC01F087F8000000F0CCF81146FFF7DF
:1001F000E8FF0CF0F9FF044800210DF0BBF80DF00A
:1002000005F800F053FA00003800002080F3098858
:100210007047EFF309807047684680F30988044807
:100220000078C00714BF0220032080F314887047B1
:100230007CC50108DFF818C0EFF305831B0618BF63
:100240006047EFF31483DB0708BF604700DF7047A8
:1002500075D40008DFF818C0EFF305831B0618BF3C
:100260006047EFF31483DB0708BF604700DF704788
:1002700059D60008EFF30980816911F8021CF1B921
:1002800090E80F10E047EFF3098C8CE80700144B5F
:1002900093E8060091420FD039B12CE9F00FC1F874
:1002A00024C00CB40DF00CFD0CBC1A60D2F824C0B4
:1002B000BCE8F00F8CF309886FF0020E704710B5A0
:1002C000084A1268914209D8074C54F8214090E836
:1002D0000F10A047EFF3098C8CE80F0010BD000051
:1002E00020020020F81A0008F81A00080DF084FB1C
:1002F0000C4B93E80600914210D0EFF3098C2CE9E7
:10030000F00FC1F824C00CB40DF0DAFC0CBC1A607C
:10031000D2F824C0BCE8F00F8CF309886FF0020E0D
:1003200070470000200200200DF090FDE0E7000083
:100330000DF072F80DF08AFDDAE7000009488047F9
:1003400009480047FEE77047FEE7FEE7FEE7FEE7E5
:10035000FEE7FEE7FEE7FEE704480549054A064BCF
:1003600070470000F9830008ED000008904A002063
:1003700090500020904C0020904C00200048704786
:10038000304A00207546FFF7F9FFAE460500694682
:10039000534620F00700854618B020B5FFF7DCFF74
:1003A000BDE820404FF000064FF000074FF0000876
:1003B0004FF0000B21F00701AC46ACE8C009ACE8F7
:1003C000C009ACE8C009ACE8C0098D467047000020
:1003D0000FB41CB5074B06AA7B44694600900598EC
:1003E00000F05BFE0020694600F06AFE1CBC5DF870
:1003F00014FB0000E50C000070B504468569006838
:10040000C10601D5302600E02026C00708D070BD07
:10041000D4E9012130469047206A00F101002062B2
:100420006D1EF5D570BD70B5044685690078C007AE
:1004300008D170BDD4E9012120209047206A00F145
:10044000010020626D1EF5D570BD70B50C460546E5
:10045000012A05D02878800600D5EA69002302E049
:10046000012305E05B1C934202D2E05C0028F9D135
:10047000A869E618C01AA861286A184428622846A4
:10048000FFF7BAFF04E0D5E9012114F8010B90470A
:10049000B442F8D32846FFF7C6FF70BD2DE9F041FE
:1004A0000646002410687529314616A511D0AFF311
:1004B0000080002803DAC0F1000013A507E03168CE
:1004C0008A0701D511A502E0490704D510A501242A
:1004D00001E0AFF3008000210A2306F1240707E0C2
:1004E000B0FBF3F203FB1200303078541046491C85
:1004F0000028F5D123462A463046BDE8F04100F0F9
:100500005BBB0000000000002D0000002B0000007D
:100510002000000070B504460D4621461068AFF378
:1005200000802188090502D5104A7A4402E00F4A6A
:100530007A440E32002104F1240307E000F00F0694
:100540004FEA1010965D5E5401F101010028F5D1CB
:1005500003462078000704D5702D02D009B111326E
:1005600002232046BDE8704000F026BBC2CA01004D
:100570002DE9F05F894604464FF0000ADFF828B104
:10058000FB44C0F820A02046E168884700287CD0C2
:10059000252806D0D4E901219047206A401C20621A
:1005A000F1E700255F462046E16888472028064697
:1005B00008DB312E06D207EB060010F8200C08B13C
:1005C0000543F0E7A80701D525F00405C4F81CA0F1
:1005D0000027C4F818A02A2E09D0304608F015FAD2
:1005E00038B304EB8708303EC8F8186019E059F8B2
:1005F000041B204604EB87029161E1688847012FC4
:10060000064618D1E069002820DA25F020051DE013
:10061000D8F8180000EB800006EB40003038C8F82E
:1006200018002046E1688847064608F0EEF90028E1
:10063000EED1012F0AD02E2E08D12046E16888473E
:100640007F1C0646022F45F02005C4DBA069002868
:1006500003DA404245F00105A061E80701D025F02A
:10066000100596B1A6F14100192802D8203645F4AC
:1006700000654A463146204625604D46FFF790FD0D
:1006800060B1012807D0ED1D00E009E025F007006A
:1006900000F1080977E705F1040974E7304679E7C6
:1006A000206ABDE8F09F000094CA01000446AFF341
:1006B00000802046FFF791FD40EA0103024630B575
:1006C0009B0710D14FF0013400E008C208C91D1B80
:1006D0009D4315EAC41FF8D013F0FF0102F8011B77
:1006E0000DD01B0AF8E711F8013B002B02F8013B83
:1006F00005D011F8013B002B02F8013BF3D130BDCE
:1007000010B5431C02E010F8011B71B18107FAD14A
:100710004FF0013202C88C1A8C4314EAC211F9D08E
:10072000C01A0A0603D0C01E10BDC01A10BD0A04AC
:1007300001D0801E10BD0902FCD0401E10BD40EA51
:10074000010370B59B072ED14FF00136042A2AD33E
:1007500008C810C9121F9D1B9D4315EAC61517D066
:10076000D8B2E1B2401A50EA056110D198B2A1B2F4
:10077000401A50EA05410AD123F07F4024F07F411E
:10078000401A50EA052102D1180EA0EB146070BD8A
:10079000A342DBD018BA21BA884201D9012070BD2A
:1007A0004FF0FF3070BD0AB9002070BD10F8013B5A
:1007B00011F8014B63B1A3420AD1521E08D010F8C0
:1007C000013B11F8014B1BB1A34201D1521EEDD1E7
:1007D000181B70BD032A40F2308010F0030C00F0AB
:1007E000158011F8013BBCF1020F624498BF11F86B
:1007F00001CB00F8013B38BF11F8013BA2F1040224
:1008000098BF00F801CB38BF00F8013B11F003039B
:1008100000F02580083AC0F0088051F8043B083AFF
:1008200051F804CBA0E80810F5E7121D5CBF51F8A1
:10083000043B40F8043BAFF30080D20724BF11F81B
:10084000013B11F801CB48BF11F8012B24BF00F880
:10085000013B00F801CB48BF00F8012B704710B5F1
:10086000203AC0F00B80B1E81850203AA0E81850A8
:10087000B1E81850A0E81850BFF4F5AF5FEA027C69
:1008800024BFB1E81850A0E8185044BF18C918C0D8
:10089000BDE810405FEA827C24BF51F8043B40F879
:1008A000043B08BF7047D20728BF31F8023B48BF5E
:1008B00011F8012B28BF20F8023B48BF00F8012B9C
:1008C00070474FF000020429C0F0128010F0030CB2
:1008D00000F01B80CCF1040CBCF1020F18BF00F833
:1008E000012BA8BF20F8022BA1EB0C0100F00DB8E2
:1008F0005FEAC17C24BF00F8012B00F8012B48BF40
:1009000000F8012B70474FF0000200B513469446E3
:100910009646203922BFA0E80C50A0E80C50B1F157
:100920002001BFF4F7AF090728BFA0E80C5048BF6B
:100930000CC05DF804EB890028BF40F8042B08BF09
:10094000704748BF20F8022B11F0804F18BF00F805
:10095000012B704730B503681C1404EB21459BB292
:1009600089B2194495FBF2F402FB145301EB0341E5
:1009700091FBF2F302FB131101E05B1E114400290D
:10098000FBDB016003EB044030BD2DE9F04704467A
:100990004FF0FF3A86B00068029060680390A0684C
:1009A0000490E0680190206900906569B5F1804F7E
:1009B0007EDCB5F1404F7BDB3C22002102A8FFF733
:1009C000C9FF3C22014603A8FFF7C4FF18220146D5
:1009D00004A8FFF7BFFF411E40F2B55201A8FFF780
:1009E000B9FF0C22064668460021FFF7B3FF00EB73
:1009F000860028443E4D00267D440FE09A1A491C8B
:100A0000CDE90012022902D00C2907D104E08107A8
:100A100004D0521C019201E0401C00960099019BF9
:100A20006A5C9A42EADD012906D11C2B04D18107B8
:100A300002D00221CDE90016A0F146018B2940D257
:100A40000199009B00220F4602E0AE5C521C31442B
:100A50009A42FADB012B02DD820700D0491E40F2E8
:100A6000B55540F26D16C21700EB927292106A43B0
:100A700000F0030505FB062285070A4400D1521E3B
:100A8000049D02EB4206DDF80C80A94605EBC60585
:100A9000184EC5EB0515DDF808C008EB8505354493
:100AA0002E14ADB2C6EB0616C5EB0515B60000E078
:100AB00007E00CEB850506EB154666F31F45360C83
:100AC00003D0504606B0BDE8F0877F1CC4E904306F
:100AD000521C072092FBF0F304F1180600FB1320D0
:100AE000A6E803042846C4E90297C4E900C8E9E778
:100AF0002DC60100A039CEFD70B50C46016800205E
:100B00004A1C34D040F2B5553C23B1FBF3F203FB51
:100B100012112160B2FBF3F103FB11221823626072
:100B2000B1FBF3F203FB1211A16046F2E0310A447B
:100B30000721B2FBF1F301FB1321B2FBF5F305FB37
:100B40001322A1619900B2F5B77F06D3521EAD10F2
:100B5000B2FBF5F3194405FB13220F4BE26161610F
:100B600089077B440CD03B2A0AD3521C08E02C2175
:100B70002046FFF7C8FE0120E0600AE0521A401C40
:100B8000195C9142FAD9521CC4E903204FF0FF309E
:100B90002062204670BD0000C3C40100704770474A
:100BA000704710B500F0ACFA006810BD10B50446EF
:100BB00000F0A6FA046010BD2DE9F0470D469946F5
:100BC0009246044600F124080168880604D5E069CD
:100BD00021F01001216000E00120A84202DDA0EB1D
:100BE000050700E00027A16907EB050202EB0900F9
:100BF000A1EB0000A0612078C00602D42046FFF7D8
:100C0000FBFB002608E0D4E901211AF80600904712
:100C1000206A401C761C20624E45F4DB2078C0061A
:100C20000AD52046FFF7E8FB06E0D4E90121302091
:100C30009047206A401C2062381EA7F10107F4DCAF
:100C400007E0D4E9012118F805009047206A401C0C
:100C50002062281EA5F10105F3DC2046FFF7E3FB27
:100C60002078000602D50220BDE8F0870120FBE7CE
:100C700070472DE9FF4F0C461E464FF0FF378BB0F3
:100C8000D2E90001DDF860800A908A46C1F30A5576
:100C900005B93D46002108464FF00000BAF1000FAB
:100CA00000F4400005DA00EB80004FF4400101EA57
:100CB00050004FEA9059B9F1010F00DDB9460A988A
:100CC00050EA4A000ED044F61050A5F2FF354543D5
:100CD0002F14B8F1000F1ED07542291E1EDDC9F178
:100CE00000021CE0B8F1010F4FF0000001D03021EC
:100CF00003E0F24305E02154401CB042FBDB3046E8
:100D00000022002121540B99C1F80880C1E900207C
:100D10000FB0BDE8F08FBD1B6D1CDEE74A4600DA60
:100D2000694206A800F074FA06AB07CB03AB07C311
:100D300050460A9900F025FB8DE80700A0F5005009
:100D40001F3800900398002D09DD42F21F014A462A
:100D5000084403A90390684600F084FD08E0A0F56C
:100D600000504A461F3803A90390684600F08EFDE4
:100D70008DE807000004000C03D04FF0FF3041085D
:100D800000E01046B8F1000F03D000220092154693
:100D90001FE0751E06D400F0B5F902F1300262556D
:100DA0006D1EF8D5B3460122084302D000227F1CF5
:100DB00004E02078302801D100227F1E002A099704
:100DC00087D01DE0112D07DA00F09CF93032625512
:100DD0006D1C50EA0102F5D108430FD10021681EB5
:100DE00005E0235C625C6354491C2254401E81422E
:100DF000F7DBAB46A81B401E099001E0009848B104
:100E0000002004F80B000B98099AC0F80880C0E98C
:100E1000002B7DE711264FF000085AE72DE9F04F2F
:100E200088460446D21D22F0070191B0D1E90001A5
:100E3000CDE90A0107F047FD02460B98C00F01D02B
:100E40002D2007E02068810701D52B2002E020211A
:100E500001EAC000032A099001D0072A05DB0346F6
:100E60004146204600F094F90FE12078800601D534
:100E7000E06900E00620B8F1650F814606D0B8F1C0
:100E8000660F18D0B8F1670F72D132E00020B9F1C7
:100E9000110F009001DB112301E009F101030AAAFF
:100EA00001A90CA8FFF7E5FEDDE90C70002609F1A9
:100EB0000105834648E001204B4600904FF0004773
:100EC0000AAA01A90CA8FFF7D4FEDDE90DB00C9920
:100ED0005D46002618B909F1010001EB0005B9EBE8
:100EE000050003D4C0F1FF3609F10105A5EB0900A7
:100EF0002BE0B9F1010F01DA4FF001090020B9F13F
:100F0000110F0090484601DD112300E003460AAAB4
:100F100001A90CA8FFF7ADFEDDE90C704D460026D7
:100F20008346207800070AD4AB4500DA5D4601A865
:100F3000012D04DD411911F8011C302907D04F455E
:100F400002DA17F1040F04DA0120824610E06D1E68
:100F5000EEE7002F02DCED1B3E4403E0781CA842C4
:100F600000DD0546A7EB060000F1010A4FF000473F
:100F70002078000703D4AA4501DB4FF0FF3A002197
:100F8000B7F1004F0DF143088DF8431023D0022034
:100F90002B23002F01DA7F422D234FF00A0C011E74
:100FA000A0F1010000DC4FB197FBFCF10CFB1172CA
:100FB0000F4602F1300208F8012DF0E7A8F1010018
:100FC00003702188090501D5452100E06521A0F1C4
:100FD000010800F8011C09980FA9A1EB080707F107
:100FE000070700B1012000EB050101EBEA70A169E0
:100FF0003844A1EB0000A0F10100A0612078C006F8
:1010000002D42046FFF7F8F9099830B1D4E901215C
:101010009047206A00F1010020622078C00620D5A8
:101020002046FFF7E9F91CE0002E04DBB34502DDA2
:1010300001A8805D00E03020D4E901219047206ABA
:10104000761C401CBAF1010A20620AD100F053F864
:10105000C0680168405CD4E901219047206A401CC7
:101060002062281EA5F10105DEDC07E0D4E901219C
:1010700018F8010B9047206A401C2062381EA7F127
:101080000107F3DC2046FFF7CEF9022011B040E65D
:1010900001694A1C02610878704700B58FB0CDE93C
:1010A00001310021059105497944CDE9031011462C
:1010B0006846FFF75DFA0FB000BD0000E5FFFFFFD7
:1010C0000A6802F8010B0A60704710B5436913B152
:1010D000AFF3008001E0FFF7B8F9012010BD1278EE
:1010E00000F124010A7000224A700122EDE7116824
:1010F0004FF0FF32E9E710B5FFF740F9203010BD9F
:1011000007F0F6BB30B5B0F10A024FEA900E71F16C
:1011100000034EEA817EB0EB0E0061EB91014FEAD5
:10112000101E4EEA017E10EB0E0041EB11114FEA4A
:10113000102E4EEA016E10EB0E0041EB11214FEA2A
:10114000104E4EEA014E10EB0E0041EB11414018DB
:1011500041F100014FEAD00040EA41704FEAD1016D
:1011600010EB80054FEA810444EA907444EB0104DB
:101170006D1944EB0404521BA3414FF0000348BF18
:101180000A3200D530BD401C41F1000130BD0000E5
:101190002DE9F0411F46044603260168072A01F4A1
:1011A000006004DB08B116A505E016A503E008B150
:1011B00015A500E015A521F010002060A069C01E53
:1011C000A0610FB1401EA0612046FFF715F94FB195
:1011D000D4E9012138469047206A401C2062C01C97
:1011E000206206E0206AFAE7D4E9012115F8010B34
:1011F0009047761EF8D22046FFF715F9BDE8F0813A
:101200004E414E006E616E00494E4600696E6600AA
:101210002DE9F047814616468AB035487844D0E932
:10122000002380680092CDE90130314878440C38C1
:10123000D0E90223006903924FF03702CDE9043070
:1012400041F69B30014491FBF2F0A0F1800502FBD6
:1012500010141B3C02D56442012000E00020DFF89E
:1012600090A080460027FA44AAF1C60A0DE0E007E4
:1012700009D03246684607EB47010AEB810100F0CE
:1012800005FB8DE8070064107F1C002CEFD1184F80
:101290007F44B43F17E0E80713D007EB04100DF1CB
:1012A000180A90E80E00AAE80E00C068F04201D1CA
:1012B00098190890324606A903A800F0E7FA03AB94
:1012C00007C36D10641C002DE5D132466946B8F1A4
:1012D000000F03A802D000F0C5FA01E000F0D6FA32
:1012E000C9E90001C9F808200AB0BDE8F08700008C
:1012F00094BE010001491820ABBEFEE726000200A3
:101300004FF0013C50F8042B51F8043B9A4221D194
:10131000A2EB0C03934313EACC1317D150F8042B20
:1013200051F8043B9A4215D1A2EB0C03934313EA04
:10133000CC130BD150F8042B51F8043B9A4209D13D
:10134000A2EB0C03934313EACC13DBD04FF0000065
:10135000704700BFD01A01BAB1FA81F101F018014B
:1013600022FA01F0CB40C1F12001DBB2C0B2C01AB9
:101370002CFA01F3D11A914311EAC311E6D1704757
:1013800070475FEA400C08BF91F0000F4FEA8C23D2
:101390004FEAC12243EA51514FEA1C5018BF00F5F1
:1013A000F0404FEA300018BF41F000415FEA6C5C4A
:1013B00000F02980BCF1FF3F08BF40F0804070473B
:1013C000130C06BF12044FF0100C4FF0000C130E5C
:1013D00004BF12020CF1080C130F04BF12010CF130
:1013E000040C930F04BF92000CF1020CD30F04BF46
:1013F00052000CF1010C11464FF00002A0F11F0049
:10140000A0EB0C00704711F0004F08BF704731F09F
:1014100000413FF4D5AF0B0C06BF09044FF0100C90
:101420004FF0000C0B0E04BF09020CF1080C0B0F5F
:1014300004BF09010CF1040C8B0F04BF89000CF1EF
:10144000020CCB0F04BF49000CF1010CCCF12003BE
:10145000A0EB0C0022FA03F302FA0CF241EA0301BA
:1014600000F10100704720F07F4C80EA030023F078
:101470007F47ACEB070303F57C5300F0004003F11A
:10148000FF032DE980494FEA154B09B44FEA144395
:1014900025EA0B4E24EA03480FF2042606EB132735
:1014A00049083E785FEA320203FB0667C7F500078A
:1014B00007FB06F64FEA54374FEAD64606F1020616
:1014C00007FB066CCCF1005C4FEA1C472CEA074C8A
:1014D00007FB06F40CFB06F504EB15464FEA9616DF
:1014E00034BF00204FF000404FEAD13706FB07FC25
:1014F0004FEA1C4C0CFB0BF7D21B03FB0CF761EB08
:1015000007010CFB0EF7B0EB074072EB17420CFB28
:1015100008F734BFA2EB0742B2EB074261EB174179
:101520004FEA0C444FEA910706FB07FC4FEA1C4CBC
:101530000CFB0BF7B0EBC74072EB573203FB0CF719
:1015400034BFA2EBC742B2EBC74261EB57310CFB91
:101550000EF7B0EBC70072EB57720CFB08F734BF05
:10156000A2EBC702B2EBC70261EB5771039F4FEAD0
:10157000816141EA921104EBCC044FEAD1374FEA82
:10158000826206FB07FC42EA90124FEA80604FEA53
:101590001C4C0CFB0BF7D21B03FB0CF761EB070198
:1015A0000CFB0EF7B0EB074072EB17420CFB08F791
:1015B00034BFA2EB0742B2EB074261EB17414FEA9F
:1015C0008C554FEA910704EB9C2406FB07FC4FEA7D
:1015D0001C4C0CFB0BF7B0EBC74072EB573203FB14
:1015E0000CF734BFA2EBC742B2EBC74261EB5731F5
:1015F0000CFB0EF7B0EBC70072EB57720CFB08F751
:1016000034BFA2EBC702B2EBC70261EB577115EB17
:101610004C254FEA816141EA92114FEA82624FEA1A
:10162000D13742EA901206FB07FC44F100044FEA6E
:1016300080604FEA1C4C0CFB0BF7D21B03FB0CF732
:1016400061EB07010CFB0EF7B0EB074072EB1742A2
:101650000CFB08F734BFA2EB0742B2EB074261EB89
:10166000174115EB1C154FEA813141EA92414FEACF
:10167000823242EA90424FEA80304FEA0C7644F1DF
:10168000000448EA03434EEA0B484FF0000EB2EB69
:10169000080C71EB030724BF624639464EEB0E0E71
:1016A0004FF0000B0018524149414BEB0B0BB2EBD2
:1016B000080C71EB03077BF1000B24BF624639462F
:1016C0004EEB0E0E4FF0000B0018524149414BEB10
:1016D0000B0BB2EB080C71EB03077BF1000B24BF83
:1016E000624639464EEB0E0E51EA020718BF46F02D
:1016F000010616EB0E7655F1000254F1000103D5F8
:10170000BDE88901BDE80088BDE88901BDE8004861
:10171000B619524141EB0101A3F1010370478080EA
:101720007F7E7D7C7B7A797877767675747372713B
:1017300071706F6E6E6D6C6C6B6A6A6968686766F3
:1017400066656464636362616160605F5F5E5E5D85
:101750005D5C5C5B5B5A5A595958585757565655F9
:1017600055555454535352525251515050504F4F5B
:101770004F4E4E4D4D4D4C4C4C4B4B4B4A4A4A49AB
:1017800049494848484747474746464645454544EE
:101790004444444343434342424242414141002B7B
:1017A00026D4770021D01CB54FEA370703B44FF099
:1017B00010004FF010014FF000000FBCBDE81040CA
:1017C0000BF1010BBBF1010F08BF5FEA170722BF46
:1017D00012F1010211F101014FF0004143F1000348
:1017E00000F0004043EA00007047F9D35708DAE7F9
:1017F00046EA064613F1400F4FEA16461FDD13F185
:10180000200FDFBF16430A46002120335B42C8D0B9
:10181000C3F1200746EA064602FA07F74FEA1646E2
:1018200046EA0706C3F1200722FA03F201FA07F796
:1018300021FA03F14FF0000342EA0702B1E746EA5A
:10184000020646EA06464FEA164646EA0106BCBFCD
:1018500046EA0646360C4FF000034FF000024FF008
:1018600000019EE72DE9C048934630B491E8380066
:1018700007C831EA400C48BF34EA430C03D5FFF7F0
:10188000F2FDFFF78CFFF0BCBDE800882DE9C048F1
:10189000934630B491E8380007C810F0804F08BF75
:1018A00013F0804F03D100F005F8FFF778FFF0BC8C
:1018B000BDE8008820F07F4780EA030023F07F4CDA
:1018C00007EB0C03A3F57C5300F00040A3F1FE03EB
:1018D00092F0000F00F0B38095F0000F00F07780D9
:1018E0002DE901494FEA11404FEA144621EA004828
:1018F00000FB06FC24EA064708FB06F607FB08F88F
:1019000000FB07F718EB06484CEB164C4FEA124B5E
:1019100018EB07484FEA15464CEB174022EA0B4EEE
:101920000BFB06FC25EA06470EFB06F607FB0EFE40
:101930000BFB07F71EEB064E4CEB164C4FF0000668
:101940001EEB074E4CEB174B18EB0B0840F1000059
:1019500018EB0E0B58EB000840F100008F1A4FF007
:1019600000013CBFC943661B14BFB5EB040C00214A
:101970003CBFC943F61B4FEA17444EEA8E0E27EAD6
:1019800004454FEA1C4704FB07622CEA074C05FBA1
:1019900007F70CFB05F604FB0CFC16EB074642EBC5
:1019A000174216EB0C4642EB1C421BEB060658EBAB
:1019B0000202414146EA9E0601D5BDE80189B619F9
:1019C000524141EB0101A3F10103BDE801894FEA56
:1019D00014454FEA114724EA054621EA074C05FB66
:1019E00007F406FB07F70CFB06F105FB0CFC11EBFB
:1019F000074144EB17444FEA124711EB0C4144EB0B
:101A00001C4422EA074C05FB07F206FB07F70CFB18
:101A100006F605FB0CFC16EB074642EB174216EBED
:101A20000C4642EB1C456A1854F1000148BF704750
:101A3000B619524141EB0101A3F10103704795F042
:101A4000000F37D04FEA11424FEA144721EA02460D
:101A500024EA074C02FB07F106FB07F70CFB06F430
:101A600002FB0CFC14EB074441EB17414FEA15470E
:101A700014EB0C4441EB1C4125EA074C02FB07F533
:101A800006FB07F70CFB06F602FB0CFC16EB074601
:101A900045EB174516EB0C4645EB1C42121951F16C
:101AA000000148BF7047B619524141EB0101A3F153
:101AB000010370474FEA14454FEA114724EA0546EF
:101AC00021EA074C05FB07F106FB07F70CFB06F2C2
:101AD0004FF0000605FB0CFC12EB074241EB1741EF
:101AE00012EB0C4251EB1C4148BF7047921841EB7E
:101AF0000101A3F1010370470000000005F0E0BB05
:101B000010B50022074B114601EB810403EB44049E
:101B100034F81040491CC9B222441029F4D3C2F34E
:101B20000F1010BD4A020020044890F83C00012824
:101B300001D0034800E0034806F0DCBD90490020D6
:101B4000509B0108D0750108264910B508684FF66A
:101B5000FF021040244A40F4E06010430860062071
:101B600003F09AFD072003F097FD082003F094FD91
:101B7000092003F091FD0A2003F08EFD172003F0E9
:101B80008BFD282003F088FD1E2003F085FD272013
:101B900003F082FD06F072FC154A1448D16941F049
:101BA0000201D16100210180018540F65F13838528
:101BB00001238382018446F2600303838383818649
:101BC00001878187A0F84010018841F00101018060
:101BD000906940F0010090610648416841F440611D
:101BE000416010BD0CED00E00000FA05000400406B
:101BF000001002400000014008B50249084400906E
:101C0000008808BD006C004008B5024A10440090EE
:101C1000016008BD006C0040002006F0CBBC000055
:101C20000148007806F0C6BC2800002070B51546B3
:101C30000E46044608F01AF921461648FEF73CFD08
:101C4000144800F00CFA304600F028F964211248DC
:101C5000FEF737FE002229460F4800F05FF90F4CCF
:101C60006070012000F09DF964210A48FEF729FE0A
:101C700064210948FEF725FE08F000F96078142871
:101C800002D0172802D003E0012070BD08F0E5F86B
:101C9000002070BDA04700207446002046010020AF
:101CA00010B5044608F0E2F821460648FEF704FDA8
:101CB000044800F0D4F900F0D8F9044608F0DEF842
:101CC000204610BDA04700202DE9F0411C461546D6
:101CD0000E46074608F0CAF823462A4631463846DB
:101CE00000F07CF8142804D008F0C8F80020BDE803
:101CF000F08108F0C3F80120F9E700002DE9F04178
:101D00001C4615460E46074608F0B0F823462A46FC
:101D10003146384600F092F8084C607008F0AEF892
:101D20006078142802D0172803D004E00120BDE811
:101D3000F08108F092F80020F9E700004601002049
:101D400010B5044608F092F821460B48FEF7B4FCA3
:101D5000094800F011F909494870012000F021F903
:101D600064210548FEF7ADFD64210548FEF7A9FD95
:101D7000BDE8104008F082B8A047002046010020CE
:101D80007446002070B515460E46044608F06EF8FD
:101D900021460F48FEF790FC0D4800F00FF90D4C5E
:101DA000A9B200226070304600F0B8F860700120DF
:101DB00000F0F7F8607064210548FEF782FD6421A9
:101DC0000548FEF77EFDBDE8704008F057B80000FA
:101DD000A047002046010020744600202DE9F04174
:101DE0001C4616460F46054608F040F8294610489E
:101DF000FEF762FC0E4800F032F9384600F04EF86B
:101E0000A1B20022304600F062F80A4C6070012056
:101E100000F0C7F864210648FEF753FD6421064828
:101E2000FEF74FFD08F02AF86078BDE8F081000069
:101E3000A047002046010020744600202DE9F04113
:101E40001C4617460E46054608F010F8294610486D
:101E5000FEF732FC0E4800F002F9384600F01EF89A
:101E6000A1B20C4A304600F059F80A4CA41E60702A
:101E7000012000F096F864210548FEF722FD642158
:101E80000548FEF71EFD07F0F9FF6078BDE8F08118
:101E9000A0470020480100207446002010B50446E9
:101EA00039200CF071FEE0B20CF079FEC4F307208B
:101EB0000CF075FEC4F307400CF071FE200E0CF020
:101EC0006EFE0CF031FEBDE8104006F01FBC70B590
:101ED000064614460D463A200CF056FEE8B20CF0C9
:101EE0005EFE280A0CF05BFE0CF01EFE0CB100201A
:101EF00011E006F00BFC1D280FD1304600F0E8F889
:101F000005463B200CF040FE0CF00EFE2E44002C4B
:101F1000EFD0208828442080EBE770BD2DE9F04108
:101F2000064614460D463C200CF02EFEE8B20CF09E
:101F300036FE280A0CF033FE0CF0F6FD0CB1002042
:101F400020800C4F06F0E2FB1E2810D1304600F036
:101F500068F9054638703D200CF016FE0CF0E4FDE3
:101F60002E44002CEED0208828442080EAE7BDE8EB
:101F7000F08100004501002010B5044600F006F98C
:101F800020785C2801D02F2803D10021642000F0A4
:101F90005EF9BDE81040402000F0D8B8312000F0D4
:101FA000D5B80146362000F0C4B810B508B100F02D
:101FB000EDF8BDE81040342000F0C8B870B5054613
:101FC00000F0CEF804000DD00146284600F021F8BC
:101FD000412807D0142803D0422800D1B32070BD77
:101FE000432070BD2819BDE87040FFF7DEBF10B573
:101FF000044600F0CBF820785C2801D02F2803D1CC
:102000000021642000F023F9BDE81040322000F0E8
:102010009DB870B5054600200E46012401E0641C01
:10202000E4B2295D5C2913D02F2911D00029F6D103
:1020300000242844FFF7DBFF002C08D0B44206D070
:1020400041280AD0142806D0422800D1B32070BD00
:10205000641CE4B2EDE7432070BD2046E1E7FF21B8
:10206000FFF7D7BF2B2000F055B8682000F046B826
:1020700010B522200CF088FD0CF07FFD04460CF01A
:1020800053FD204610BD000004480178012901D00D
:1020900000207047002101700120704730000020AF
:1020A0002DE9F0410CF069FD06460CF066FD054691
:1020B0000CF063FD04460CF060FD07460CF034FDA7
:1020C00046EA052040EA044040EA0760BDE8F081A6
:1020D00070B5054627200CF057FD0CF04EFD0400AE
:1020E000264607D00CF049FD641E05F8010B14F0DC
:1020F000FF04F7D10CF018FD304670BD10B5044652
:102100000C200CF041FD20460CF049FDBDE81040CC
:10211000FFF7C6BF10B504460A200CF035FD204677
:102120000CF03DFD0CF029FD04460CF0FDFC2046B2
:1021300010BD10B50C460CF027FD20460CF02FFD0D
:102140000CF0F2FCBDE8104006F0E0BA10B50CF05F
:102150001BFD0CF0E9FCBDE8104006F0D7BA00000A
:10216000014600E0491C0A78002AFBD106E000BFC6
:1021700011F8012D5C2A03D02F2A01D08142F7D11A
:10218000814200D0491C081AC0B2704770B505469C
:1021900001200CF0F9FC0CF0F0FC432828D22B2095
:1021A000FFF7B8FF102823D22F200CF0EDFC002001
:1021B0000CF0F5FC3220FFF7C9FF142818D1CF200E
:1021C000FFF7A8FF040013D04C20FFF797FF00EBA8
:1021D00004214C2000F03BF85020FFF78FFF00EB6C
:1021E0000421502000F033F80021702000F02FF877
:1021F0002F200CF0C9FC2C7806E000BF15F8014F29
:102200005C2C0AD02F2C08D020460CF0C8FC002CE7
:10221000F4D1BDE870400CF087BC00200CF0BFFC8E
:10222000F7E770B505462D200CF0AEFC0CF0A5FCD0
:102230000400264607D028780CF0B1FC6D1C641E03
:1022400014F0FF04F7D10CF06FFC304670BD70B590
:1022500005460C460D200CF097FC28460CF09FFC20
:10226000E0B20CF09CFCC4F307200CF098FCC4F323
:1022700007400CF094FC200E0CF091FCBDE870407F
:102280000CF052BC012007F0FFBD10B502F078F948
:1022900004F0CCFFBDE81040FFF7F4BF10B50446D2
:1022A0000121502007F07CFEC8B1002007F010FE8D
:1022B0002070002007F00CFE6070002007F008FE80
:1022C000A070012007F004FEE07007F0A3FE0021DB
:1022D000502007F065FE07F09DFE012010BD07F0BD
:1022E00099FE002010BDF8B50D46064607F0E2FD48
:1022F0006846FFF7D3FF040011D09DF801009DF858
:10230000001000EB0120C0F30D0030809DF80300A9
:102310009DF8021000EB0120C0F38D00288007F02B
:10232000D1FD2046F8BD000030B50E480E4C00230C
:102330000078042234F81010401CC0B20D46052865
:1023400000D3002034F810104D1BADB2521E2B44A8
:1023500012F0FF02F0D1C3F38F004FF4FA7148433B
:1023600030BD0000000000204002002010B50446EF
:1023700012490DF0C5F812490CF00CFF21460DF082
:10238000BFF810490CF006FF21460DF0B9F80E49D0
:102390000CF000FF21460DF0B3F80C490CF0FAFEEA
:1023A00021460DF0ADF80A490CF0F4FE21460DF07F
:1023B000A7F8BDE8104007490CF0ECBE92EBD72C13
:1023C000EEC70B310DBDA2343E5ADE37774BBB3A18
:1023D00045B8353D145C1C3F2DE9F04706461A4FC1
:1023E0000898984691468A46002540B108F0B8FB07
:1023F00004461649884504DA3046BDE8F0873C4675
:10240000F7E7134890F82C0018B15046FFF7AEFFDD
:102410000546494640460CF0BDFE29460DF0F6F94A
:1024200021460DF06DF80446394650460CF0B2FED8
:1024300008490DF065F831460DF062F82146BDE817
:10244000F0470CF01BBF0000339388436F12833AB0
:102450009049002066A6CA422DE9F0411F469046E9
:102460000C46064608F07CFB05460F4920460CF05A
:1024700091FE0E490DF044F80446414638460CF0F2
:1024800089FE29460DF03CF821460CF0F7FE314656
:102490000DF036F80649884202DA0020BDE8F081E6
:1024A000BDE8F0410CF002B83393884366A6CA42F7
:1024B0006F12833A2DE9FF4F87B090460F461D46B5
:1024C000182221496846FEF7CAF90026012440F285
:1024D000013B40F2035941F60C0A00BF07F0AEFD84
:1024E000684602F019FB58F8251018A35A4640F226
:1024F000191005F0D7FB37F8151000234A4650464F
:1025000005F0F6FB00222146684602F031FB044646
:10251000012807D0022C0ED0002CDFD10BB03046A2
:10252000BDE8F08F2B4642463946079800F010F878
:1025300007E00126D2E707EB45014A46504601F085
:1025400007FD0028CAD0F4E760CC01084C2F6D00CD
:102550002DE9FF4F8FB00020069092481F460E468F
:10256000848831F8175008880C90B1F802B0B1F89F
:1025700004A0B1F806904FF0010852F827008A49EC
:102580000CF0BEFF4FF07C510CF004FE0CF038FF55
:1025900084490F9A01EB42010891888101210F982B
:1025A00003F0B2FC07F04AFD80A1002002F08CFA93
:1025B000F580B580758035800F9808F0E5FA0090B9
:1025C0007DA1002002F080FA002340F20352294648
:1025D000192005F08DFB7BA14FF4406002F074FAE6
:1025E0007AA340F2036240F60C40009905F05AFBD2
:1025F00077A14FF4C05002F067FA0F9803F076FC11
:10260000014641F60C0005F0A3FB642008F010FB26
:102610000028D1D008F054F911285CD008DC01283A
:102620001AD0042874D0092873D0102813D106E0DA
:1026300021286FD0402808D041280CD16BE042F20D
:102640000F70854205D26D1C02E0632D01D96D1E0D
:10265000ADB2012006908FE0089864215E4A80891F
:10266000484303210790880202F02CFA40F20362EB
:1026700007A940F60C4001F079FC30B30120069028
:1026800007980CF0F5FE019095B128460CF045FC3A
:10269000524A534B0CF054FC0546039100980CF041
:1026A0004DFD2A46039B0CF0C9FA0CF095FA02E0A6
:1026B0004C490CF0E3FD014610F0FF4F06D00198A5
:1026C0000CF0DCFD0CF09CFE85B201E04FF47A7555
:1026D00007F0B4FC50E040F69800844201D2641C3C
:1026E000A4B2642111200AF0ABFE50B138E0641CA2
:1026F000A4B220460CF0BCFE3B490CF001FF01F0F7
:102700002FF9012111200AF09BFE0028EFD027E0CD
:1027100036E01BE020E0C82C01D9641EA4B264217D
:1027200041200AF08DFE50B11AE0641EA4B220468A
:102730000CF09EFE2C490CF0E3FE01F011F9012192
:1027400041200AF07DFE0028EFD009E040F29E70A3
:10275000844205D2643402E0DC2C01D9143CA4B2DA
:1027600020460CF085FE20490CF0CAFE01F0F8F876
:102770000C48848000F028FFB8F1000F7FF418AFF8
:1027800000210F9803F0C0FB0C983080A6F802B02F
:10279000A6F804A0A6F8069026F81750069813B0DD
:1027A000BDE8F08F9049002000002041B5F7CAD461
:1027B000C1F7C1BF00000000C1F7C1BFB1B6C2CAB6
:1027C0003A000000C1F7C1BF3A0000004C2F6D0075
:1027D000CAE4B3F63A00000050C50108FCA9F1D2E2
:1027E0004D62503F00007A440AD7233C2DE9F04F58
:1027F00089B0834620223B496846FEF730F83A49C3
:10280000002001EBCB0701243C3740F2035608902F
:10281000BBF1010F05D0BBF1020F02D040F2015A0B
:1028200000E0B246314940F60C0801EB4B0541F699
:102830000C0900BF07F002FC684602F06DF959462A
:1028400040F2151005F072FCA98929A352464046B2
:1028500005F04EFA398800233246484605F048FA1A
:1028600000222146684602F083F904000FD0012CB3
:1028700024D0022C2DD0032CE6D1324639464846CE
:1028800001F066FB0028DFD001200890DCE7089803
:1028900000280AD0232117A002F09CFE062807D0AA
:1028A000072808D00124002CC4D109B0BDE8F08F5E
:1028B00000F0A4FAF9E700F037FAF4E705F10C01AB
:1028C0005246404601F044FB0028BDD000F07CFE9B
:1028D000BAE73946584600F015F80028AAD001207A
:1028E0000890A7E740CC01081C490020904900202F
:1028F0004C2F6D00B1A3B4E6B1EAB6A8CAFDBEDDA7
:10290000203F00002DE9FF5F80460020074602902F
:10291000C0480D4640F20356848800208246834614
:1029200001905FEA080005D0012853D0B8F1020FEA
:1029300004D14FE040F2015A0FF2DC2B07F07EFB8E
:102940000121404603F0E0FA404608F01DF98146B7
:10295000B8F1000F40D0B1A10020CDF8009002F0F6
:10296000B3F82988002340F20352192005F0C0F97A
:10297000ADA14FF4406002F0A7F85B4652464946CD
:1029800040F60C4005F08EF9A9A14FF4C05002F0BA
:102990009BF8404603F0AAFA014641F60C0005F008
:1029A000D7F9642008F044F90028CDD007F088FF5B
:1029B00011287CD041DC012857D0042878D0092880
:1029C00077D01028C0D1288842F20F7188424AD2AD
:1029D000401C47E0B246AFE707F084FF064608F028
:1029E0008BF800210A460091014633464846FFF71E
:1029F000F3FC0646009089A1002002F065F82988C2
:102A0000002340F20352192005F072F98AA14FF415
:102A1000006002F059F85B465246314640F60C0021
:102A200005F040F980A14FF4805002F04DF85B466C
:102A30005246494641F20C00A4E7212870D04028B4
:102A40000CD0412880D1C82C01D9641EA4B26421C5
:102A500041200AF0F5FC002871D0C3E028886328E3
:102A600001D9401E288001276EE76A48744A00EBAE
:102A70004800B8F1000F808901904FF0030128D081
:102A8000880202F01FF8524601A940F60C4001F0FE
:102A90006DFA0028E8D0012701980CF0E9FC064601
:102AA0002888E0B30CF039FA664A674B02E05DE033
:102AB000A7E08DE00CF044FA8146039100980CF0F9
:102AC0003DFB4A46039B0CF0B9F80CF085F8014633
:102AD0003FE04FF4006001F0F5FF524601A940F6D7
:102AE0000C0001F043FA0028BED0012701980CF039
:102AF000BFFC81462888A0B10CF00FFA514A524B16
:102B00000CF01EFA0646039100980CF017FB3246B3
:102B1000039B0CF093F80CF05FF8064602E017E018
:102B20005CE04E4616F0FF4F0AD0484948460CF08C
:102B3000E7FC31460CF0A2FB0CF062FC02E03FE047
:102B40004FF47A702880404608F01EF8814643E72B
:102B5000314611F0FF4F05D030460CF08FFB0CF0E2
:102B60004FFC01E04FF47A702880EDE640F69800C3
:102B7000844201D2641CA4B2642111200AF060FCDA
:102B800058B12FE0641CA4B220460CF071FC314611
:102B90000CF0B6FC00F0E4FE00E02D4E0121112007
:102BA0000AF04EFC0028EDD01CE0641EA4B22046C2
:102BB0000CF05EFC31460CF0A3FC00F0D1FE00E00E
:102BC000234E012141200AF03BFC0028EDD009E012
:102BD00040F29E70844205D2643402E0DC2C01D9BC
:102BE000143CA4B220460CF043FC19490CF088FCBC
:102BF00000F0B6FE0748848000F0E6FC029800284A
:102C0000B3D00021404603F07FF904B03846BDE858
:102C1000F09F0000904900204C2F6D00C1F7C1BF0C
:102C2000B1B6C2CA3A000000B1EABFF63A000000ED
:102C3000CAE4B3F63A000000B9A4BFF63A000000B7
:102C400050C50108FCA9F1D24D62503F0000C842B6
:102C50000AD7233C2DE9F0472B49804601EB0800B9
:102C60002A4990F82060012401EBC800002500F1FA
:102C70003C0A012E16D0022E43D1254FDFF8949046
:102C800007F0DCF9384601F047FF002221463846BC
:102C900001F06EFF0446052831D2DFE800F0061887
:102CA0001E282C001A4F283FE8E7002D29D02321A9
:102CB00019A002F08FFC062805D0072821D1BDE815
:102CC000F04700F031B8BDE8F04700F097B809EBE5
:102CD0000612002304E00125D2E709EB06120123C6
:102CE00051464046FFF7E6FB0028C9D0F3E709EB61
:102CF00006120223F4E709EB06120323F0E7002C87
:102D0000BED1BDE8F0870000904900201C4900209A
:102D1000A0CC010858CB0108B1A3B4E6B1EAB6A82B
:102D2000CAFDBEDD203F000010B5062231494FF438
:102D3000807001F02DFB2F4845F6A5214FF47A74E1
:102D400082888A4203D0E20002804480818072221D
:102D50002949802001F01CFB274845F6A422B0F841
:102D60007010914244D046F6B321A0F86410A0F848
:102D70006810A0F86C10A0F86640A0F86A40A0F8AF
:102D80006E4041818181C1810182418204854485F7
:102D90008485C48504864FF4004101804180818090
:102DA000C18001818182C182018341838183C48387
:102DB000048444848484C48444868486C4860487CA
:102DC00044878487A0F84440A0F84C40A0F85440C1
:102DD000A0F85640A0F85840A0F85A40A0F85C402F
:102DE000A0F85E40A0F86040A0F86240A0F8702013
:102DF00010BD0000120200201C49002010B5062260
:102E000005494FF4807001F0D3FA7222BDE81040FA
:102E10000249802001F0CCBA120200201C49002097
:102E200010B5044602F066FC40F60E00052C09D2EF
:102E3000DFE804F003050D0F110008A100E00BA16D
:102E400001F042FE2046BDE8104001F035BC0BA168
:102E5000F6E70EA1F4E711A1F2E70000B7DB20B31B
:102E6000BE20D7D4B6AFB5F7C1E30000C8D5BEF9D0
:102E70004120D7D4B6AFB5F7C1E30000C8D5BEF93D
:102E80004220D7D4B6AFB5F7C1E30000CAB1BEF94E
:102E90004320D7D4B6AFB5F7C1E30000CAB1BEF93D
:102EA0004420D7D4B6AFB5F7C1E300002DE9F14F08
:102EB00088B0182278496846FDF7D1FC7748089910
:102EC0000125848876484FF4A06800EB410606F19E
:102ED00014073236002041F20C0940F2035A41F641
:102EE0000C0B069001E0079858B107F0A7F8684668
:102EF00001F012FE40F21510089905F017F90020B4
:102F00000790398800234246484604F0F1FE318894
:102F100000235246584604F0EBFE2946684601F06D
:102F2000EBFD60A14FF4006001F0CEFD089807F0C2
:102F3000C5FD01465DA340F2026240F60C0004F0BC
:102F4000B1FE192007F074FE0028EAD02946684631
:102F500001F0D2FD07F0B4FC112849D008DC0128AB
:102F600019D004282ED009287CD0102817D10CE0C5
:102F700021287DD0402802D0412810D155E06D1C79
:102F8000EDB2032D0BD3012509E0012D00D8032557
:102F90006D1EEDB203E0012D06D0022D08D0002DEC
:102FA000AFD109B0BDE8F08F42463946484602E04D
:102FB00052463146584600F0CBFF0028A1D00120F0
:102FC00006909EE706980028EBD0232138A002F057
:102FD00001FB062802D0072806D102E0FFF70EFF0A
:102FE000DFE7FFF70BFF0025002D7FF47BAFD8E76D
:102FF00040F69800844201D2641CA4B264211120DE
:103000000AF01EFA50B137E0641CA4B220460CF05E
:103010002FFA2B490CF074FA00F0A2FC01211120C8
:103020000AF00EFA0028EFD026E0C82C01D9641E61
:10303000A4B2642141200AF003FA50B11CE0641EDE
:10304000A4B220460CF014FA1D490CF059FA00F015
:1030500087FC012141200AF0F3F90028EFD00BE0B2
:1030600000E005E040F29E70844205D2643402E044
:10307000DC2C01D9143CA4B220460CF0F9F910491B
:103080000CF03EFA00F06CFC0448848000F09CFADE
:10309000002D7FF428AF84E710CC01089049002070
:1030A0001C490020BCC6D1B93A0000006B50610039
:1030B000B1A3B4E6B1EAB6A8CAFDBEDD203F000068
:1030C0000AD7233C2DE9F14F774882B00125848847
:1030D0007648029940F2026700EB410606F10A08C1
:1030E0002836002041F20C0B40F2035941F60C0A3D
:1030F000009001E0019858B106F0A0FF6C4801F083
:103100000BFD40F21510029905F010F80020019017
:10311000B8F8001000233A46584604F0E9FD31881B
:1031200000234A46504604F0E3FD2946604801F07A
:10313000E3FC60A14FF4006001F0C6FC029807F0C8
:10314000DDFC01465DA33A4640F60C0004F0AAFD02
:10315000192007F06DFD0028EBD02946544801F0F6
:10316000CBFC07F0ADFB112849D008DC012819D0B1
:1031700004282DD009287CD0102817D10CE0212854
:103180007DD0402802D0412810D155E06D1CEDB211
:10319000032D0BD3012509E0012D00D803256D1E59
:1031A000EDB203E0012D05D0022D07D0002DAFD1E7
:1031B000BDE8FE8F3A464146584602E04A4631464F
:1031C000504600F0C5FE0028A2D0012000909FE7E5
:1031D00000980028ECD0232139A002F0FBF9062842
:1031E00002D0072807D103E0BDE8FE4FFFF706BE77
:1031F000FFF704FE0025002D7FF47BAFD8E740F6F3
:103200009800844201D2641CA4B2642111200AF007
:1032100017F950B137E0641CA4B220460CF028F92D
:103220002B490CF06DF900F09BFB012111200AF0F5
:1032300007F90028EFD026E0C82C01D9641EA4B2FB
:10324000642141200AF0FCF850B11CE0641EA4B2D5
:1032500020460CF00DF91E490CF052F900F080FBED
:10326000012141200AF0ECF80028EFD00BE000E04B
:1032700005E040F29E70844205D2643402E0DC2C0A
:1032800001D9143CA4B220460CF0F2F810490CF01D
:1032900037F900F065FB0448848000F095F9002DB3
:1032A0007FF428AF84E70000904900201C490020EB
:1032B000F8CB0108CEC2B6C83A000000A1E6000073
:1032C000B1A3B4E6B1EAB6A8CAFDBEDD203F000056
:1032D0000AD7233C2DE9F14F88B018227849684677
:1032E000FDF7BDFA774808990125848876484FF4A0
:1032F000A06800EB4107002007F11E0641F20C090F
:1033000040F2035A41F60C0B069001E0079858B1C1
:1033100006F094FE684601F0FFFB40F21510089994
:1033200004F004FF002007903988002342464846F5
:1033300004F0DEFC318800235246584604F0D8FCE5
:103340002946684601F0D8FB60A14FF4006001F007
:10335000BBFB089807F04CFC01465EA340F20362F9
:1033600040F60C0004F09EFC192007F061FC0028D8
:10337000EAD02946684601F0BFFB07F0A1FA112800
:1033800049D008DC012819D004282ED009287CD087
:10339000102817D10CE021287DD0402802D04128E8
:1033A00010D155E06D1CEDB2032D0BD3012509E0C2
:1033B000012D00D803256D1EEDB203E0012D06D0CE
:1033C000022D08D0002DAFD109B0BDE8F08F4246E4
:1033D0003946484602E052463146584600F0B8FDAC
:1033E0000028A1D0012006909EE706980028EBD087
:1033F000232139A002F0EEF8062802D0072806D1D2
:1034000002E0FFF7FBFCDFE7FFF7F8FC0025002DEB
:103410007FF47BAFD8E740F69800844201D2641C69
:10342000A4B2642111200AF00BF850B137E0641CFB
:10343000A4B220460CF01CF82B490CF061F800F007
:103440008FFA0121112009F0FBFF0028EFD026E0C0
:10345000C82C01D9641EA4B26421412009F0F0FFF8
:1034600050B11CE0641EA4B220460CF001F81E49C5
:103470000CF046F800F074FA0121412009F0E0FF59
:103480000028EFD00BE000E005E040F29E7084429F
:1034900005D2643402E0DC2C01D9143CA4B22046ED
:1034A0000BF0E6FF10490CF02BF800F059FA054834
:1034B000848000F089F8002D7FF428AF84E70000B5
:1034C00028CC0108904900201C490020B2EED1B957
:1034D0003A0000006B506100B1A3B4E6B1EAB6A8AF
:1034E000CAFDBEDD203F00000AD7233C70B5402254
:1034F00007494FF4C07000F04BFF054C054DE08FBD
:103500006968884203D000F007F8A888E08770BD9A
:10351000904900208000002030B500F03BF8054CB9
:10352000054DE08F2968884203D000F007F828880D
:10353000E08730BD904900208400002013484FF4FC
:103540009671F0224185002180F8291080F828101A
:10355000C284012202728270C170427242F295737B
:1035600043814FF4FA638380322383710223C37152
:103570004FF47A73C38503866423438680F82C1046
:103580000349416380F83C207047000090490020C7
:10359000D9AB09000B480022012100F8062C8176E6
:1035A0004FF47A73C380C176C823038101774381C6
:1035B0004177052383818177C381C17780F82720F4
:1035C0007047000096490020402202494FF4C07025
:1035D00000F0EEBE904900202DE9F84FDFF8ECB086
:1035E000012500269BF82840BBF82600ADF8000016
:1035F00040F2015741F21648DFF8D49040F6164ADF
:1036000006F01CFD3248183001F086FA04EB440144
:1036100009EB4101504601F057FA2EA33A46BDF896
:103620000010404604F064FB294800222946183067
:1036300001F09EFA050023D0012D1DD0022DE5D109
:103640003A466946404600F083FC0028DED0BDF8CB
:103650000000962804D29620ADF8000006F0FDFB8D
:10366000BDF800104FF49670814203D9ADF8000008
:1036700006F0F3FB0126C9E7641C04F00304F9E734
:10368000002E0BD0232114A001F0A4FF02281AD091
:10369000062805D0072801D1FFF728FFBDE8F88FDD
:1036A0000BF12605AC70BDF80000ABF82600FFF763
:1036B0008BFF28880BF0DCFE0B490BF021FFA9786B
:1036C0000AF0EAFCEAE701259AE7000090490020A9
:1036D00018CE0108A1E60000B1A3B4E6C5E4D6C344
:1036E000CAFDBEDD203F0000CDCCCC3D2DE9F84F1A
:1036F000404E0125002796F82940708DADF8000056
:1037000040F2015A4FF4AF78DFF8EC9040F6194BD5
:1037100006F094FC34B13848803001F0FDF9012CFA
:1037200005D00CE03448983001F0F6F907E033A3F7
:103730005246BDF8001040F6144004F0D9FA59F88A
:103740002410584601F0C0F94FF00002294634B366
:103750002948803001F00CFA050028D0012D21D035
:10376000022DDCD1012CD3D15246694641F614001A
:1037700000F0EEFB0028CBD0BDF80000962804D264
:103780009620ADF8000006F068FBBDF8001041453A
:1037900003D9ADF8008006F060FB0127B8E71648B2
:1037A0009830D7E70CB10024F7E70124F5E7002FA4
:1037B0000BD0232112A001F00DFF022817D00628FC
:1037C00005D0072801D1FFF791FEBDE8F88FBDF8BD
:1037D0000000708586F82940FFF7F6FE708D0BF02B
:1037E00047FE0B490BF08CFE0AF06AFCEDE7012561
:1037F0008EE7000090490020C8CD0108A1E6000036
:10380000B1A3B4E6C5E4D6C3CAFDBEDD203F0000C7
:10381000CDCCCC3D2DE9F05F00252C4F2C4C2E4615
:1038200040F60B0AA7F1100840F60B7BA94600BF33
:1038300006F004FC2548703001F06EF9607857F806
:103840002010504601F040F9207858F820105846D2
:1038500001F03AF91D4800222946703001F088F93C
:1038600005001FD0012D06D0022D0FD0032DDFD172
:1038700002F02EF9DCE706F0E1FB6078401CC0B2F4
:10388000607006280CD384F8019009E006F0D6FB9E
:103890002078401CC0B22070042801D384F8009026
:1038A0000126C5E76EB123210AA001F093FE062888
:1038B00003D0072805D00125BAE7BDE8F05FFFF780
:1038C00083BEBDE8F05FFFF711BE000018CA010813
:1038D00090490020B1A3B4E6D0DEB8C4BDE1B9FB85
:1038E0003F0000002DE9FF5F00249B4691468A4679
:1038F000264625463AF814000BF0BAFD17490BF09E
:10390000FFFDB04659F8246001462F4630460BF0C3
:10391000B5FC0546014600980BF0BEFE03D2641CC0
:10392000E4B25C45E6D3394628460BF06FFF044607
:10393000414630460BF06AFF21460BF09FFC0446DF
:10394000394600980BF062FF21460BF0D9FD04B018
:103950004146BDE8F05F0BF01DBC00006F12833ADA
:1039600001494860704700002800002001490870A4
:10397000FEF756B9280000200A4980B1012806D078
:10398000022807D0032808D04FF0FF3007E043F6A5
:10399000982004E047F2305001E04EF66020486085
:1039A000704700000800002003F050B9C0B2202882
:1039B00000D27F20024901EB0010A0F50070704793
:1039C000F6F90008C0B2202800D27F20034900EB9E
:1039D000400001EB0010A0F5C0607047D063010803
:1039E00000487047F6FF000870B5C0B2114D60F393
:1039F0001F2101234FF4AC729818400805EB4004D6
:103A000015F81060647804EB0624A4B2A14205D135
:103A1000094900EBC00001EBC00070BD03D900F103
:103A2000010083B202E0A0F1010082B29342E3D927
:103A3000014870BD16000108C802010870B50C46A7
:103A4000064615460021A02006F0AAFA60B1300A09
:103A500006F074FA40B1F0B206F070FA20B101211C
:103A6000A02006F09DFA48B906F0D4FA002070BDF7
:103A7000002006F02DFAC04304F8010B6D1E15F06E
:103A8000FF05F5D1012006F023FAC043207006F0AF
:103A9000C1FA012070BD000070B50C4606461546FF
:103AA0000021A02006F07CFA08B3300A06F046FA9E
:103AB000E8B1F0B206F042FAC8B100BF14F8010B49
:103AC000C043C0B206F03AFA88B16D1E15F0FF058A
:103AD000F4D106F09FFAA0254FF4C87400212846BF
:103AE00006F05EFA30B106F095FA012070BD06F0DE
:103AF00091FA03E0641E2404240CEFD1002070BD71
:103B000010B500F015FF10BD0349012008700349EE
:103B1000400308607047000030000020140401409A
:103B200010B500F005FF10BD10B500F001FF10BD8D
:103B300010B500F0FDFE10BD10B500F0F9FE10BD8F
:103B400010B500F0F5FE10BD2DE9F34FDFF8089237
:103B50008B4691B00126B9F8044001A95846FCF7FC
:103B6000CBFF0698DFF8F4A100F26C7085B20598DF
:103B7000401C00F0FF080498C7B243462A4678A1CB
:103B80000CA80097FCF724FC0CA9119800F09CFFEE
:103B9000012E04D0022E06D0032E09D118E0744A5B
:103BA0000421119802E011980A3013E000F08AFF16
:103BB00006F086FE11286AD024DC082869D00DDCC6
:103BC000012873D00428D8D1002013B0BDE8F08FAD
:103BD0001198103080B2664A0221E7E7092873D0B5
:103BE0001028CAD1012E1FD0022E26D0032EC4D1F8
:103BF0004146284606F024FA7F1CFFB2B842BCD2E8
:103C00000127BAE720284AD021287BD040281DD0A0
:103C10004128B2D1C82C01D9641EA4B2642141202C
:103C200009F00EFC90B389E06D1CADB240F6330094
:103C30008542A2D94FF4FA659FE708F1010000F030
:103C4000FF08B8F10C0F98D901201DE0012E0DD00E
:103C5000022E13D0032E90D17F1E17F0FF078CD1B8
:103C60004146284606F0ECF9074686E76D1EADB2E0
:103C7000B5F5FA6F81D240F633057EE7A8F1010071
:103C800010F0FF08BDD10C20804676E745E01CE02F
:103C9000FFE7761CF6B2032EB3D901266DE7761E38
:103CA00016F0FF06ADD1032667E7FFE7A5F26C75B6
:103CB000A8F101000497CDE9050501A8FCF765FE10
:103CC000CBF80000012080E72EE040F69800844207
:103CD00001D2641CA4B26421112009F0B1FB50B1DF
:103CE0002CE0641CA4B220460BF0C2FB51460BF042
:103CF00007FCFFF735FE0121112009F0A1FB002888
:103D0000EFD01BE016E0641EA4B220460BF0B0FB1F
:103D100051460BF0F5FBFFF723FE0121412009F08E
:103D20008FFB0028EFD009E040F29E70844205D25C
:103D3000643402E0DC2C01D9143CA4B220460BF020
:103D400097FB51460BF0DCFBFFF70AFEA9F8044095
:103D5000FFF73AFC11E70000904900200AD7233C06
:103D6000253034752D253032752D25303275000003
:103D700050C501082DE9F04F6E4F884691B083463B
:103D8000BC88012501A94046FCF7B6FE6A4E4FF0FB
:103D9000180A4FF03C090198DDE90232009067A152
:103DA0000CA8FCF715FB0CA9584600F08DFE012D60
:103DB00004D0022D06D0032D09D118E0634A022158
:103DC000584602E00BF1060013E000F07BFE06F01F
:103DD00077FD112868D01DDC082851D00DDC0128A2
:103DE0005BD00428D7D1002011B0BDE8F08F0BF1D3
:103DF0000C0080B2554A0221E7E7092871D010284B
:103E0000C9D1012D18D0022D19D0032DC3D101988D
:103E1000401C1FE0202839D021287BD0402811D019
:103E20004128B8D1C82C01D9641EA4B26421412014
:103E300009F006FB80B371E00398401C12E0029881
:103E4000401C17E0012D0BD0022D11D0032DA2D163
:103E500001983B30B0FBF9F209FB120001909AE7A0
:103E600003981730B0FBFAF20AFB1200039092E7B6
:103E700002983B30B0FBF9F209FB120002908AE78E
:103E80006D1CEDB2032D86D9012584E76D1E15F05A
:103E9000FF0580D103257EE72EE001A8FCF775FD24
:103EA000C8F8000001209FE740F69800844201D244
:103EB000641CA4B26421112009F0C2FA50B12DE0B3
:103EC000641CA4B220460BF0D3FA31460BF018FB69
:103ED000FFF746FD0121112009F0B2FA0028EFD0CA
:103EE0001CE011E0641EA4B220460BF0C1FA31467A
:103EF0000BF006FBFFF734FD0121412009F0A0FA89
:103F00000028EFD00AE005E040F29E70844205D21E
:103F1000643402E0DC2C01D9143CA4B220460BF03E
:103F2000A7FA31460BF0ECFAFFF71AFDBC80FFF759
:103F30004BFB30E7904900200AD7233C25303275EF
:103F40003A253032753A25303275000050C50108E7
:103F500038B50C4609880091694600F007F800283A
:103F600002D000982080012038BD00002DE9F74FD5
:103F700090B000251198904612F0FF070168724832
:103F800084884FEA1220814601D0A9F10100C6B20F
:103F90006E48A6EB070A50F82600B1FBF0F200FBD2
:103FA000121B58460BF064FA6849283151F8271063
:103FB0000BF064F90BF0C2F8CDE9000108F0FF0343
:103FC0004A4663A10AA8FCF703FA0AA9109800F070
:103FD0007BFD1098AA4500EB450000DC801C80B2F8
:103FE0005D4A012100F06EFD681C0090864206D3F8
:103FF0005648711B00EB810050F8040C00E00120D2
:10400000019006F05DFC112857D01CDC082843D035
:1040100007DC01284CD00428C3D1002013B0BDE830
:10402000F08F092879D01028BBD101990A20BBFB59
:10403000F1F1B1FBF0F200FB1210092815D0019943
:104040000BEB010020E020282AD021286BD040284B
:104050000ED04128A5D1C82C01D9641EA4B2642178
:10406000412009F0EDF9A0B361E0019840420EE073
:1040700001990A20BBFBF1F1B1FBF0F200FB121039
:1040800020B10199ABEB010083468AE7019800EB70
:10409000C00101EB0B00F7E70098B0FBF6F103E07D
:1040A000A819401E90FBF6F106FB1100C5B278E797
:1040B00011990120C1F800B0B0E740F698008442A1
:1040C00001D2641CA4B26421112009F0B9F958B1DD
:1040D0002DE01AE0641CA4B220460BF0C9F91F4978
:1040E0000BF00EFAFFF73CFC0121112009F0A8F9B2
:1040F0000028EFD01BE0641EA4B220460BF0B8F9F4
:1041000016490BF0FDF9FFF72BFC0121412009F0C6
:1041100097F90028EFD00AE0FFE740F29E70844252
:1041200005D2643402E0DC2C01D9143CA4B2204650
:104130000BF09EF909490BF0E3F9FFF711FC024877
:104140008480FFF741FA2CE79049002080C80108DD
:1041500025302A2E2A66000050C501080AD7233CC4
:104160002DE9F35F0A8889464FF03C0BB2FBFBF167
:104170006423B1FBF3F4DFF8FCA103FB14160BFB83
:104180001125BAF804404FF000080127C6EB0610CD
:1041900005EB8001009803F0F5FF012F06D0022FF8
:1041A00008D0032F18D0042F09D118E0724A01213A
:1041B000009802E00098801C13E000F083FC06F0F9
:1041C0007FFB11287FD015DC082861D00DDC012889
:1041D0006CD004285BD172E00098801D01E000984B
:1041E000083080B2644A0121E7E7092877D0102817
:1041F0004DD108E0202851D0212871D0402813D07B
:10420000412844D17EE0012F06D0022F06D0032F93
:1042100006D0042F3BD105E00A360FE0711C15E0F3
:104220000A3521E0691C26E0012F06D0022F0BD0B1
:10423000032F18D0042F2AD11BE05A366420B6FB76
:10424000F0F100FB1166A1E706F109010A20B1FBBC
:10425000F0F200FB1211B6FBF0F000EB800001EB76
:104260004000C6B292E73235B5FBFBF10BFB1155AE
:104270008CE705F109010A20B1FBF0F200FB1211F5
:10428000B5FBF0F000EB800001EB4000C5B26AE046
:104290007F1CFFB2042F66D9012764E07F1E17F050
:1042A000FF0760D104275EE00DE0FFE7C6EB0610D4
:1042B00005EB8001A9F800104FF0010856E04FF01F
:1042C000000847464FE040F69800844201D2641C43
:1042D000A4B26421112009F0B3F860B137E02CE0FA
:1042E00031E0641CA4B220460BF0C2F823490BF065
:1042F00007F9FFF735FB0121112009F0A1F800288B
:10430000EFD024E0C82C01D9641EA4B2642141205E
:1043100009F096F850B11AE0641EA4B220460BF0E2
:10432000A7F816490BF0ECF8FFF71AFB0121412022
:1043300009F086F80028EFD009E040F29E70844230
:1043400005D2643402E0DC2C01D9143CA4B220462E
:104350000BF08EF809490BF0D3F8FFF701FBAAF830
:104360000440FFF731F9002F7FF46DAF4046BDE800
:10437000FC9F00009049002050C501080AD7233C4B
:10438000024945F63A20086070470000840000208A
:1043900070B514460D46064605F08CFDE2B229467E
:1043A0003046FFF74BFB044605F08CFD204670BD00
:1043B00070B514460D46064605F07CFDE2B229466E
:1043C0003046FFF769FB044605F07CFD204670BDD2
:1043D00070B50BA0FDF7B4FC0C4D0024102255F86D
:1043E00024000B49FDF7CEFC55F824004022102193
:1043F000FDF71CFC641CE4B2052CEFD370BD00007B
:104400005C53616D706C657200000000BCC70108F0
:104410004A01002010B51446064A01EB8101C9008B
:1044200052F820002423224602F01AFB002800D173
:10443000206010BDBCC7010870B50D460446164685
:1044400064210A48FCF73DFA242231460748FCF76C
:10445000C1F905EB8500C10005482823034A50F83F
:104460002400BDE8704002F0FDBA0000F0440020D6
:10447000BCC7010870B58CB00D46044630222649F1
:104480006846FCF7ECF925492846FCF735FB23483C
:1044900022492C30C368CA6893423BD04B6903F26F
:1044A0006C7343610969491CC0E903216169642295
:1044B000481E90FBF2F3C51700EB9575C3EBA503FF
:1044C000950090FBF5F633448E070ED191FBF2F682
:1044D00002FB161222B991FBF5F205FB121121B96C
:1044E0002169022901DD012100E0002122696D46D8
:1044F00005EB8202E56852F8042C2A4440F26D155F
:1045000000FB053010440844072190FBF1F201FB49
:104510001200A0610CB070BDD0C801080448002092
:1045200070B5154C154E204694F8251090F828507B
:10453000C08C012915D0022909D003291BD10AF00A
:1045400097FF31460AF0DCFF294609F0A5FD608D92
:104550000AF08EFF31460AF0D3FFBDE8704009F043
:10456000AFBD0AF085FF31460AF0CAFF2946BDE813
:10457000704009F091BD70BD90490020CDCCCC3D7C
:104580001148816941F00101816110492020486191
:104590000F48016821F400510160001F016821F4F7
:1045A0005C4101600A49091D0A680A60091D0A6820
:1045B00042F400520A60064A411410321160016848
:1045C00041F40051016070470010024000000140BA
:1045D0000404014008B50020009001F08BF808A108
:1045E00040F6162000F070FA4FF4C062694641F2BE
:1045F0001620FFF7BBFC002800D0009808BD000083
:10460000CAE4C8EBC3DCC2EB3A0000002DE9F84372
:104610000124194D40F608084FF4C06640F60C67B7
:1046200005F00CFD154800F077FA002221461348EA
:1046300000F09EFA0446012804D0022C05D0032C79
:1046400012D115E008F02EFBEAE705F0F7FC686BE5
:1046500000900BA1404600F037FA324669463846D2
:10466000FFF784FC0028F0D1002CD9D1BDE8F883F5
:1046700007F014FBD4E700009049002028CF010880
:10468000C7EBCAE4C8EBD0C2C3DCC2EB3A000000FF
:10469000042801D00420704703207047022805D069
:1046A000032805D0042805D0022070470320704756
:1046B00004207047012070472DE9F04F07466948F4
:1046C0008BB0694984880025DFF8A0A105A82E4693
:1046D000EB4601EB47080A90B8F822102BF81510AA
:1046E0000BEB45006D1CB8F81810EDB281820A2D55
:1046F00002D026B10A2103E000250126FAE7294667
:10470000684605F09BFB2AF817000EB10A2100E06D
:1047100029460A9805F092FB0AEB4709A9F814000C
:104720000EB10A2100E02946684605F087FB2AF809
:1047300017000EB10A2100E029460A9805F07EFB19
:10474000A9F814004AA140F60F7000F0BDF93846F0
:1047500006F04EFA014640F2026900234A4641F251
:104760000E5003F09FFA44A140F61C7000F0ACF923
:10477000384606F0A3F9014600234A4641F21B5091
:1047800003F090FA282006F053FA0028A4D006F08F
:1047900097F811281FD00BDC012817D0042815D05A
:1047A000092899D140F29E7084424DD264344AE087
:1047B000212845D041288FD1C82C01D9641EA4B22C
:1047C0006421412008F03CFE80B33DE0FEF716FB7B
:1047D0000BB0BDE8F08F40F69800844201D2641C13
:1047E000A4B26421112008F02BFE58B12CE0641C07
:1047F000A4B220460AF03CFE49460AF081FEFFF7CB
:10480000AFF801E0DFF878900121112008F018FEE0
:104810000028ECD018E0641EA4B220460AF028FE5E
:1048200049460AF06DFEFFF79BF802E0FFE7DFF86C
:1048300050900121412008F003FE0028EBD003E056
:10484000DC2C01D9143CA4B220460AF011FE0C491C
:104850000AF056FEFFF784F802488480FEF7B4FEA3
:104860003AE7000090490020B24500201C49002092
:10487000C1F7C1BF3A000000BCC6D1B93A00000080
:104880000AD7233C032803D0042803D00320704711
:104890000420704700207047012807D0022807D065
:1048A000032807D0042807D0012070470220704752
:1048B0000320704704207047002070470449FF2000
:1048C00008600348143801686FF3090101607047FC
:1048D000140401401348816941F0010181611248CB
:1048E000012181600021C160104801686FF3090156
:1048F0000160001F016821F4407101600B49091D2E
:104900000A6842F0FF020A60091D0A6842F0FF02CD
:104910000A60064AFF2110321160016841F0FD0172
:104920000160704700100240000001400404014093
:1049300010B5FFF7C3FF0348C068BDE8104008F09A
:10494000EFBC00000800002010B50021084808F066
:10495000CFFC084C0021E0600548001D08F0C8FCB1
:10496000A06003480021BDE81040083008F002BDF7
:10497000DCF90008080000200F48816941F00401BB
:104980008161816941F0080181610C49FC20086066
:104990000B4903200860094810380168094AC9B268
:1049A0001143016006481038016821F00F0141F001
:1049B000080101607047000000100240100801402B
:1049C000100C014000888888064800680649C0F33A
:1049D0008500096801F0010140EA81117F208843C8
:1049E0007047000008080140080C01402DE9F04123
:1049F000274805682748854200DD05462648008986
:104A000003F04CFF254C0146E068A0618046284633
:104A10000AF0FCFE05462249E0600AF071FD0746F7
:104A20002061204928460AF06BFD61680AF0B2FB5C
:104A300006466060414628460AF0E8FE1A490AF038
:104A40005FFD05466061314638460AF0A3FB294602
:104A50000AF0A0FB15490AF053FD05461449A06869
:104A60000AF04EFD29460AF095FB1249A0608842E3
:104A700002DC1149884200DAA1601049A0680AF0FE
:104A80003FFD0AF0BDFCBDE8F04180B200F02ABE57
:104A90002C0000200000B041A44500208C00002024
:104AA0004260E53B8FC2753CA69B443B6666663F11
:104AB000CDCCCC3D83C02A3F0AD7A33C0000D846CA
:104AC00003F058BD02F01CBA02F014BB08498A6911
:104AD00042F010028A6108B1891501E04FF080713F
:104AE00004480161416821F00F01C91C4160704711
:104AF000001002400010014070B50C4600EBC406E7
:104B000005467068FBF7FCFDC1B235F834007268E9
:104B1000BDE87040FFF7D6BF70B501880546080AAA
:104B2000CEB201D07043C6B2696819B14FF481703A
:104B3000FFF7CAFF4FF424740C4A40F2025120469A
:104B400003F0E1FD094A40F21451204603F0DBFD79
:104B5000012408E005EBC400416835F83400FFF794
:104B6000B3FF641CE4B2B442F4D970BD10C30108B1
:104B700000F03AB930B41C461346224630BC00F06F
:104B800005BA30B41C461346224630BC00F0E8BAE1
:104B900030B41C461346224630BC00F001B8000079
:104BA0002DE9FF5F06460C4685483188904685888A
:104BB0004FF0000B080ACFB232D0784300F0FF0A62
:104BC0000CB1544500D9012406EBC409D9F80400FE
:104BD000FBF796FDC1B236F83400D9F80420FFF790
:104BE00071FF00BF5FEA080000D08047322006F066
:104BF0001FF80028F6D036F83400D9F80410FFF773
:104C000063FF05F05DFE102847D00BDC0A28DBD2DD
:104C1000DFE800F005575B05D005A9052292D3E730
:104C2000BA46CDE7212872D008DC11284FD02028C1
:104C3000CAD1039850EA0B003CD032E0402823D080
:104C40004128C1D1C82D01D96D1EADB264214120CA
:104C500008F0F6FBA0B379E0039850EA0B0017D0F8
:104C600003E000BFA4EB0A000CE0B4FBF7F007FB85
:104C7000104008B9E01BC4B2641CE4B2A4E7E01B16
:104C800000E0E019C4B29FE7039830EA0B00ECD1D2
:104C9000E019C4B2544597D9E4E7039830EA0B0011
:104CA00008D0641EE4B2B4FBF7F007FB1040002804
:104CB0008AD1E6E7BC42E2D804EB0A00C4B2DEE7E0
:104CC00031E0204604B0BDE8F09FFF20FAE740F64F
:104CD0009800854201D26D1CADB26421112008F00C
:104CE000AFFB58B132E06D1CADB228460AF0C0FBF4
:104CF00049460AF005FCFEF733FE01E0DFF8C490F8
:104D00000121112008F09CFB0028ECD01EE019E0E6
:104D10006D1EADB228460AF0ABFB49460AF0F0FB27
:104D2000FEF71EFE01E0DFF89C900121412008F013
:104D300087FB0028ECD009E040F29E70854205D246
:104D4000643502E0DC2D01D9143DADB228460AF0ED
:104D50008FFB1C490AF0D4FBFEF702FE1848858041
:104D6000FEF732FC30E7C821062008F069FB002876
:104D700084D105F072F8642005F0B4F905F06DF8FF
:104D800005F05CF910A14FF4C160FFF79DFEFEF73E
:104D9000ADFB0B494FF4E062383140F60C40FFF7B1
:104DA000E5F838B104210CA000F014FC062803D06B
:104DB000FEF79CFB002085E7FEF706FCFAE7000003
:104DC000904900200AD7233CC7EBCAE4C8EBB3F6EE
:104DD000B3A7B1E0BAC53A00CAC7B7F1B1A3B4E608
:104DE000B1E0BAC53F0000002DE9F05F0C46DFF8E6
:104DF00094B101880646BBF804509046080ACFB229
:104E000032D0784300F0FF0A0CB1544500D9012498
:104E100006EBC409D9F80400FBF772FCC1B236F8FE
:104E20003400D9F80420FFF74DFE00BF5FEA080008
:104E300000D08047322005F0FBFE0028F6D036F87F
:104E40003400D9F80410FFF73FFE05F039FD1028B3
:104E50003DD00BDC0A28DBD2DFE800F00540450539
:104E600043050505277DD3E7BA46CDE7212878D04D
:104E70000DDC112839D02028CAD1641EE4B2B4FB5D
:104E8000F7F007FB10400028C2D1E0191DE04028D0
:104E900015D04128BCD1C82D01D96D1EADB26421F9
:104EA000412008F0CDFAB8B35FE0B4FBF7F007FBA0
:104EB000104008B9E01BC4B2641CE4B2A8E7E019D2
:104EC000C4B25445A4D9A4EB0A00C4B2A0E7BC42C2
:104ED00002D804EB0A00C4B2E01BF6E72046BDE8A6
:104EE000F09F0020FBE7FF20F9E740F6980085429D
:104EF00001D26D1CADB26421112008F0A1FA60B19D
:104F000033E06D1CADB228460AF0B2FA49460AF009
:104F1000F7FAFEF725FD02E013E0DFF86C900121BF
:104F2000112008F08DFA0028EBD01EE06D1EADB206
:104F300028460AF09DFA49460AF0E2FAFEF710FD0B
:104F400001E0DFF844900121412008F079FA0028BF
:104F5000ECD00AE005E040F29E70854205D264354F
:104F600002E0DC2D01D9143DADB228460AF080FAEA
:104F700005490AF0C5FAFEF7F3FCABF80450FEF75A
:104F800023FB45E7904900200AD7233C2DE9FF5F2A
:104F900006460C4670483188904685884FF0000BD5
:104FA000080ACFB232D0784300F0FF0A0CB1544562
:104FB00000D9012406EBC409D9F80400FBF7A0FBD3
:104FC000C1B236F83400D9F80420FFF77BFD00BFEA
:104FD0005FEA080000D08047322005F029FE002853
:104FE000F6D036F83400D9F80410FFF76DFD05F05F
:104FF00067FC102847D00BDC0A28DBD2DFE800F082
:1050000005575D055B0505052294D3E7BA46CDE754
:10501000212874D008DC112851D02028CAD1039847
:1050200050EA0B003CD032E0402823D04128C1D1C7
:10503000C82D01D96D1EADB26421412008F000FADF
:10504000A0B37BE0039850EA0B0017D003E000BF49
:10505000A4EB0A000CE0B4FBF7F007FB104008B922
:10506000E01BC4B2641CE4B2A4E7E01B00E0E0195A
:10507000C4B29FE7039830EA0B00ECD1E019C4B248
:10508000544597D9E4E7039830EA0B0008D0641E32
:10509000E4B2B4FBF7F007FB104000288AD1E6E742
:1050A000BC42E2D804EB0A00C4B2DEE733E020469B
:1050B00004B0BDE8F09F0020FAE7FF20F8E740F6D3
:1050C0009800854201D26D1CADB26421112008F018
:1050D000B7F958B132E06D1CADB228460AF0C8F9F4
:1050E00049460AF00DFAFEF73BFC01E0DFF86C9050
:1050F0000121112008F0A4F90028ECD01EE019E0ED
:105100006D1EADB228460AF0B3F949460AF0F8F927
:10511000FEF726FC01E0DFF844900121412008F071
:105120008FF90028ECD009E040F29E70854205D24C
:10513000643502E0DC2D01D9143DADB228460AF0F9
:1051400097F906490AF0DCF9FEF70AFC0248858067
:10515000FEF73AFA2EE70000904900200AD7233CD8
:105160002DE9FF5F064673480C4631888588080A9A
:10517000C9B2984691468A4630D000FB0AF0C0B2C8
:1051800000900CB1844200D9012405F08DFC8346C7
:1051900006EBC40703977868FBF7B2FAC1B236F89A
:1051A00034007A68FFF78EFC5FEA090000D0804780
:1051B00005F07AFCA0EB0B00C7B2A8EB07025EA1DA
:1051C00001A8FBF705F901A940F60970FFF77CFC7F
:1051D000474507D3012004B0BDE8F09F0846CDF84D
:1051E00000A0CEE7322005F023FD0028DCD0039894
:1051F000416836F83400FFF767FC05F061FB1028C2
:105200003ED009DC0A28C3D2DFE800F0054246059B
:1052100044050505267CBBE7212879D00EDC112842
:105220003CD02028B4D1641EE4B2B4FBFAF10AFBEE
:1052300011400028ACD104EB0A001FE0402816D032
:105240004128A5D1C82D01D96D1EADB264214120E0
:1052500008F0F6F8C8B35FE0B4FBFAF10AFB1140BE
:1052600010B9A4EB0A00C4B2641CE4B290E704EBEA
:105270000A00C4B2009884428AD9201AC4B287E7CF
:10528000544502D800982044C4B2A4EB0A00F5E7C4
:105290002046A0E700209EE7FF209CE740F698000C
:1052A000854201D26D1CADB26421112008F0C8F80E
:1052B00060B131E06D1CADB228460AF0D9F839462C
:1052C0000AF01EF9FEF74CFB01E012E01C4F012131
:1052D000112008F0B5F80028ECD01DE06D1EADB22D
:1052E00028460AF0C5F839460AF00AF9FEF738FBF5
:1052F00000E0134F0121412008F0A2F80028EDD072
:105300000AE005E040F29E70854205D2643502E075
:10531000DC2D01D9143DADB228460AF0A9F80849A0
:105320000AF0EEF8FEF71CFB02488580FEF74CF908
:105330002EE70000904900202825327573290000CF
:105340000AD7233C2DE9F04F04468DB00020019090
:105350000546069003907A480A907A4805907A4864
:1053600000EB440080890AF083F8784901EB0419C6
:10537000D9F800100AF0C4F8DFF8D4B14FF0000AF1
:10538000099084B14BF824A00021204600F00EF9CA
:105390000121204600F0F8F8642004F0A3FE07F095
:1053A0006BFF0646B7E06B48059056460021304635
:1053B000CBF800A000F0FAF80121304600F0E4F844
:1053C000642004F08FFE07F057FF0646624800781D
:1053D000012808D0A4E02046052C19D2DFE804F00B
:1053E000041515151500204605F0CEFB804605F086
:1053F00083FB074605F076FA03460022394640460D
:10540000CDF800A0FCF7E8FF03E005F0BDFB00E0ED
:1054100000200146019F09980AF0F8F90190D9F897
:10542000040001990AF06CF80790D9F80800019976
:105430000AF066F8294609F0ADFE054647484FF0E8
:105440007E58854201D9054602E0454500DD4546C6
:10545000394601980AF0DAF9D9F80C100AF050F838
:105460003F490AF04DF807463E4906980AF048F8C9
:10547000394609F08FFE0690404605990AF0C6F9B4
:1054800007462946079809F085FE069909F082FE2D
:1054900039460AF035F80746059903980AF030F8BE
:1054A000394609F077FE03900A9909F073FE10F16E
:1054B000FF4F01D3002002E0404500DD40464BF89D
:1054C000240029490AF01CF809F09AFF81B220460D
:1054D00000F06CF825484FF47A714FF47A72008826
:1054E000484323490988514300EB114807F0C4FEA3
:1054F00000EB08018A1B521EB2FBF8F1B1F5967F52
:1055000002D2C1F5967701E006461E27B8B204F034
:10551000E9FD07FB08661048005D01283FF45BAF1A
:1055200055464BF824A00021204600F03FF800210A
:10553000204600F029F8084805550DB0BDE8F08F69
:105540003333B33ECDCC4C3F9049002020C80108F6
:10555000604600206666663F40010020000080BF74
:10556000FA7EAA3E83C02A3F0000D84674C50108CF
:1055700076C5010810B5C0B2FFF7E4FE07F01EFFC4
:10558000BDE8104007F026BF0A4608B506496B463D
:1055900031F810008DF80020401C81B20122104625
:1055A00004F0BAFF08BD0000D0C701080A4608B5DC
:1055B00007496B4631F8100049F641410844ADF8FF
:1055C000002081B20122104604F0A6FF08BD0000B1
:1055D000D0C701082DE9F0410D46040006D004F0C3
:1055E0002DFD214640F20670FFF76EFA264805F0C1
:1055F0000F0450F824603046FFF78EFA4FF42477FA
:10560000224A41F60201384603F07DF81F4A41F66E
:105610001401384603F077F84AF201071C4A40F2B9
:105620000251384603F06FF81A4A40F226513846C4
:1056300003F069F8C5F303110022491C3046FFF757
:1056400097FA062C04D2DFE804F0030307131319BA
:10565000012815D1BDE8F081012802D0032811D11D
:1056600001E00320F6E70520F4E7022808D103E073
:105670000128FAD10620EDE70720EBE7012801D049
:105680000220E7E70420E5E798C9010810C30108F4
:10569000B0C4010810C4010800F01F0201219140AC
:1056A00040094FF0E02202EB8000C0F80011704783
:1056B00002480068C0F3072070470000080C014052
:1056C0004FF07F4141EA0020014908607047000027
:1056D000100C014010B5024C03F0ECF8A08610BD90
:1056E0000004004010B5024C03F0E4F8208710BD20
:1056F0000004004010B540F20E614CF2D60001F0FB
:1057000071FABDE81040034A40F20D514BF201001E
:1057100001F071BB60C30108094A30B4148800234A
:10572000844202D91288101A83B2642000EBC300AD
:105730000A46014630BC082302A001F091B90000DE
:10574000800000205C53616D706C65725C504F5737
:105750004552000070B51DA0FCF7A2FA1F4D643839
:10576000C0F3CF002880002000F09CF905F1080468
:10577000010EE170010CA170010A6170207028888F
:10578000682101EBC0010423224610A001F06AF950
:10579000298842F21070B1FBF0F200FB1210401C9D
:1057A000288005F081F9010EE170010CA170010A59
:1057B00061702070288822466421BDE8704001EBAA
:1057C000C001042301A001F04DB900005C53616DDC
:1057D000706C65725C504F5745520000800000208D
:1057E00010B505F061F9BDE81040002100F064B982
:1057F00010B510A0FCF7A4FA1022114911A0FCF773
:10580000C1FA582210210FA0FCF710FA0DA0FCF7E6
:1058100047FA6438C0F3CF010E4801800088642144
:105820000C4A01EBC0010423BDE81040083205A07A
:1058300001F018B95C53616D706C65720000000076
:105840004A0100205C53616D706C65725C504F576B
:1058500045520000800000200021014807F08ABD69
:10586000E0C901082DE9F04FDFF8D0B18BB0012776
:105870000025BBF80440142104A8FBF744F8DFF826
:10588000C0814FF4247942F2107A00BF04F0D6FBB5
:105890006CA14FF48170FFF717F96D4A40F2025185
:1058A0004E46484602F02FFF694A40F214513046F6
:1058B00002F029FFB8F8003046465B1C6A1C65A15F
:1058C00004A8FAF785FD04A940F60200FFF7FCF8EA
:1058D00002A92846FFF720FF63A141F20200FFF76B
:1058E000F3F841F20C00029902F014F960A141F6BC
:1058F0000200FFF7E9F825B141F60C00039902F028
:1059000009F93188514573D204F0DAFF112833D0F8
:1059100008DC01281ED004286BD009286BD0102881
:105920007FD106E021286CD040280ED0412878D1C4
:1059300041E03088854201D26D1C09E004F08DFA07
:1059400000214DA0FFF746FE6BE0002D69D06D1ED3
:10595000ADB266E0C821012007F072FD002860D1D9
:1059600004F07BFA142147A0FFF734FE062858D133
:10597000FFF73EFF002554E040F69800844201D234
:10598000641CA4B26421112007F05AFD58B13CE018
:10599000641CA4B2204609F06BFD314609F0B0FD4D
:1059A000FDF7DEFF00E03B4E0121112007F048FD2E
:1059B0000028EDD029E0C82C01D9641EA4B26421CE
:1059C000412007F03DFD58B11FE0641EA4B22046FF
:1059D00009F04EFD314609F093FDFDF7C1FF00E0EF
:1059E0002C4E0121412007F02BFD0028EDD00CE0CA
:1059F0001DE019E0FFE740F29E70844205D2643456
:105A000002E0DC2C01D9143CA4B2204609F030FDA0
:105A1000204909F075FDFDF7A3FFABF80440FDF741
:105A2000D3FD002F7FF432AF0BB0BDE8F08F04F050
:105A300014FA002118A0FFF7CDFDF5E790490020EA
:105A400080000020BFAAB9D8BBFABCC7C2BC000006
:105A500010C30108B1E0BAC53A2020205B2531759A
:105A60002F2531755D000000BFAABBFA3A00000087
:105A7000B9D8BBFA3A000000CEDEB8FCB6E0BCC72D
:105A8000C2BC2100C7E5BFD5BFAAB9D8BBFABCC705
:105A9000C2BC3F000AD7233CCEC4BCFEC2FAA3A1BD
:105AA0000000000000B50C20FCF7A6F8020410204E
:105AB000FCF7A2F8104300BD10B5010C84B20C2015
:105AC000FCF7A2F82146BDE810401020FCF79CB876
:105AD0002DE9F04FCB49CA4887B091E81C00868871
