:020000040800F2
:10000000C87100203D0300084503000847030008AD
:10001000490300084B0300084D03000800000000DE
:100020000000000000000000000000007502000851
:100030005103000800000000ED0200082903000839
:100040005703000857030008570300087977000892
:100050005703000857030008B93F0008D93F0008BC
:10006000E13F0008E93F0008F13F0008570300089E
:1000700057030008570300085703000857030008F8
:1000800057030008570300085703000857030008E8
:10009000570300085703000857030008F93F0008FA
:1000A00057030008570300085703000857030008C8
:1000B0005703000857030008F1940008570300088D
:1000C00057030008570300085703000857030008A8
:1000D000570300085703000857030008E996000873
:1000E000C13F0008570300085703000800F002F85A
:1000F00000F07AF80AA090E8000C82448344AAF148
:100100000107DA4501D100F06FF8AFF2090EBAE845
:100110000F0013F0010F18BFFB1A43F0010318473B
:1001200068DB010088DB01000A444FF0000C10F886
:10013000013B13F0070408BF10F8014B1D1108BF65
:1001400010F8015B641E05D010F8016B641E01F805
:10015000016BF9D113F0080F1EBF10F8014BAD1C55
:100160000C1B09D16D1E58BF01F801CBFAD505E073
:1001700014F8016B01F8016B6D1EF9D59142D6D3CD
:10018000704700000023002400250026103A28BFF5
:1001900078C1FBD8520728BF30C148BF0B607047F9
:1001A000662911F09083642900F07881752900F0A8
:1001B0007581782900F0AE81732900F0A4870020B2
:1001C00070471FB500F0A3FF04000020002110F0CD
:1001D00041FEE0601FBD10B510BD03B4FFF7FBFF8B
:1001E00003BC01F093F8000000F0CCF81146FFF7D3
:1001F000E8FF0FF01DF9044800210FF0DFF90FF0C0
:1002000029F900F053FA00004000002080F309882B
:100210007047EFF309807047684680F30988044807
:100220000078C00714BF0220032080F314887047B1
:10023000D0C70108DFF818C0EFF305831B0618BF0D
:100240006047EFF31483DB0708BF604700DF7047A8
:10025000BDF60008DFF818C0EFF305831B0618BFD2
:100260006047EFF31483DB0708BF604700DF704788
:10027000A1F80008EFF30980816911F8021CF1B9B7
:1002800090E80F10E047EFF3098C8CE80700144B5F
:1002900093E8060091420FD039B12CE9F00FC1F874
:1002A00024C00CB40FF030FE0CBC1A60D2F824C08D
:1002B000BCE8F00F8CF309886FF0020E704710B5A0
:1002C000084A1268914209D8074C54F8214090E836
:1002D0000F10A047EFF3098C8CE80F0010BD000051
:1002E00048030020101B0008101B00080FF0A8FC9A
:1002F0000C4B93E80600914210D0EFF3098C2CE9E7
:10030000F00FC1F824C00CB40FF0FEFD0CBC1A6055
:10031000D2F824C0BCE8F00F8CF309886FF0020E0D
:1003200070470000480300200FF0B4FEE0E7000033
:100330000FF096F90FF0AEFEDAE7000009488047AB
:1003400009480047FEE77047FEE7FEE7FEE7FEE7E5
:10035000FEE7FEE7FEE7FEE704480549054A064BCF
:1003600070470000CD930008ED000008C86B002026
:10037000C8710020C86D0020C86D0020004870477B
:10038000686B00207546FFF7F9FFAE460500694629
:10039000534620F00700854618B020B5FFF7DCFF74
:1003A000BDE820404FF000064FF000074FF0000876
:1003B0004FF0000B21F00701AC46ACE8C009ACE8F7
:1003C000C009ACE8C009ACE8C0098D467047000020
:1003D0000FB41CB5074B06AA7B44694600900598EC
:1003E00000F067FE0020694600F076FE1CBC5DF858
:1003F00014FB0000FD0C000070B504468569006820
:10040000C10601D5302600E02026C00708D070BD07
:10041000D4E9012130469047206A00F101002062B2
:100420006D1EF5D570BD70B5044685690078C007AE
:1004300008D170BDD4E9012120209047206A00F145
:10044000010020626D1EF5D570BD70B50C460546E5
:10045000012A05D02878800600D5EA69002302E049
:10046000012305E05B1C934202D2E05C0028F9D135
:10047000A869E618C01AA861286A184428622846A4
:10048000FFF7BAFF04E0D5E9012114F8010B90470A
:10049000B442F8D32846FFF7C6FF70BD2DE9F041FE
:1004A0000646002410687529314616A511D0AFF311
:1004B0000080002803DAC0F1000013A507E03168CE
:1004C0008A0701D511A502E0490704D510A501242A
:1004D00001E0AFF3008000210A2306F1240707E0C2
:1004E000B0FBF3F203FB1200303078541046491C85
:1004F0000028F5D123462A463046BDE8F04100F0F9
:1005000067BB0000000000002D0000002B00000071
:100510002000000070B504460D4621461068AFF378
:1005200000802188090502D5104A7A4402E00F4A6A
:100530007A440E32002104F1240307E000F00F0694
:100540004FEA1010965D5E5401F101010028F5D1CB
:1005500003462078000704D5702D02D009B111326E
:1005600002232046BDE8704000F032BB8ECF010070
:100570002DE9F05F894604464FF0000ADFF828B104
:10058000FB44C0F820A02046E168884700287CD0C2
:10059000252806D0D4E901219047206A401C20621A
:1005A000F1E700255F462046E16888472028064697
:1005B00008DB312E06D207EB060010F8200C08B13C
:1005C0000543F0E7A80701D525F00405C4F81CA0F1
:1005D0000027C4F818A02A2E09D0304609F0C5FF1C
:1005E00038B304EB8708303EC8F8186019E059F8B2
:1005F000041B204604EB87029161E1688847012FC4
:10060000064618D1E069002820DA25F020051DE013
:10061000D8F8180000EB800006EB40003038C8F82E
:1006200018002046E1688847064609F09EFF00282A
:10063000EED1012F0AD02E2E08D12046E16888473E
:100640007F1C0646022F45F02005C4DBA069002868
:1006500003DA404245F00105A061E80701D025F02A
:10066000100596B1A6F14100192802D8203645F4AC
:1006700000654A463146204625604D46FFF790FD0D
:1006800060B1012807D0ED1D00E009E025F007006A
:1006900000F1080977E705F1040974E7304679E7C6
:1006A000206ABDE8F09F000060CF01000446AFF370
:1006B00000802046FFF791FD40EA0103024630B575
:1006C0009B0710D14FF0013400E008C208C91D1B80
:1006D0009D4315EAC41FF8D013F0FF0102F8011B77
:1006E0000DD01B0AF8E711F8013B002B02F8013B83
:1006F00005D011F8013B002B02F8013BF3D130BDCE
:1007000010B5431C02E010F8011B71B18107FAD14A
:100710004FF0013202C88C1A8C4314EAC211F9D08E
:10072000C01A0A0603D0C01E10BDC01A10BD0A04AC
:1007300001D0801E10BD0902FCD0401E10BD40EA51
:10074000010370B59B072ED14FF00136042A2AD33E
:1007500008C810C9121F9D1B9D4315EAC61517D066
:10076000D8B2E1B2401A50EA056110D198B2A1B2F4
:10077000401A50EA05410AD123F07F4024F07F411E
:10078000401A50EA052102D1180EA0EB146070BD8A
:10079000A342DBD018BA21BA884201D9012070BD2A
:1007A0004FF0FF3070BD0AB9002070BD10F8013B5A
:1007B00011F8014B63B1A3420AD1521E08D010F8C0
:1007C000013B11F8014B1BB1A34201D1521EEDD1E7
:1007D000181B70BD421E12F8013F002BFBD111F80F
:1007E000013B002B02F8013BF9D17047032A40F28C
:1007F000308010F0030C00F0158011F8013BBCF1C3
:10080000020F624498BF11F801CB00F8013B38BFDA
:1008100011F8013BA2F1040298BF00F801CB38BFE8
:1008200000F8013B11F0030300F02580083AC0F006
:10083000088051F8043B083A51F804CBA0E80810AE
:10084000F5E7121D5CBF51F8043B40F8043BAFF3E1
:100850000080D20724BF11F8013B11F801CB48BF3B
:1008600011F8012B24BF00F8013B00F801CB48BF71
:1008700000F8012B704710B5203AC0F00B80B1E8AA
:100880001850203AA0E81850B1E81850A0E81850C5
:10089000BFF4F5AF5FEA027C24BFB1E81850A0E8CE
:1008A000185044BF18C918C0BDE810405FEA827CE8
:1008B00024BF51F8043B40F8043B08BF7047D207FF
:1008C00028BF31F8023B48BF11F8012B28BF20F8A0
:1008D000023B48BF00F8012B70474FF0000204298B
:1008E000C0F0128010F0030C00F01B80CCF1040C5F
:1008F000BCF1020F18BF00F8012BA8BF20F8022B93
:10090000A1EB0C0100F00DB85FEAC17C24BF00F838
:10091000012B00F8012B48BF00F8012B70474FF066
:10092000000200B5134694469646203922BFA0E83F
:100930000C50A0E80C50B1F12001BFF4F7AF09074B
:1009400028BFA0E80C5048BF0CC05DF804EB89003C
:1009500028BF40F8042B08BF704748BF20F8022B7F
:1009600011F0804F18BF00F8012B704730B50368B5
:100970001C1404EB21459BB289B2194495FBF2F497
:1009800002FB145301EB034191FBF2F302FB131141
:1009900001E05B1E11440029FBDB016003EB044016
:1009A00030BD2DE9F04704464FF0FF3A86B00068AD
:1009B000029060680390A0680490E068019020694C
:1009C00000906569B5F1804F7EDCB5F1404F7BDB6F
:1009D0003C22002102A8FFF7C9FF3C22014603A8E0
:1009E000FFF7C4FF1822014604A8FFF7BFFF411E0E
:1009F00040F2B55201A8FFF7B9FF0C22064668463F
:100A00000021FFF7B3FF00EB860028443E4D00268F
:100A10007D440FE09A1A491CCDE90012022902D048
:100A20000C2907D104E0810704D0521C019201E097
:100A3000401C00960099019B6A5C9A42EADD0129FC
:100A400006D11C2B04D1810702D00221CDE900166A
:100A5000A0F146018B2940D20199009B00220F464C
:100A600002E0AE5C521C31449A42FADB012B02DDFB
:100A7000820700D0491E40F2B55540F26D16C217EC
:100A800000EB927292106A4300F0030505FB062208
:100A900085070A4400D1521E049D02EB4206DDF890
:100AA0000C80A94605EBC605184EC5EB0515DDF80B
:100AB00008C008EB850535442E14ADB2C6EB06160A
:100AC000C5EB0515B60000E007E00CEB850506EB6D
:100AD000154666F31F45360C03D0504606B0BDE8F8
:100AE000F0877F1CC4E90430521C072092FBF0F30E
:100AF00004F1180600FB1320A6E803042846C4E905
:100B00000297C4E900C8E9E7E1CA0100A039CEFDB7
:100B100070B50C46016800204A1C34D040F2B5552F
:100B20003C23B1FBF3F203FB12112160B2FBF3F1A2
:100B300003FB112218236260B1FBF3F203FB1211D5
:100B4000A16046F2E0310A440721B2FBF1F301FB58
:100B50001321B2FBF5F305FB1322A1619900B2F555
:100B6000B77F06D3521EAD10B2FBF5F3194405FB57
:100B700013220F4BE261616189077B440CD03B2A51
:100B80000AD3521C08E02C212046FFF7C8FE0120A2
:100B9000E0600AE0521A401C195C9142FAD9521CDA
:100BA000C4E903204FF0FF302062204670BD0000F2
:100BB00077C9010070477047704710B500F0ACFA74
:100BC000006810BD10B5044600F0A6FA046010BD20
:100BD0002DE9F0470D4699469246044600F1240857
:100BE0000168880604D5E06921F01001216000E069
:100BF0000120A84202DDA0EB050700E00027A16963
:100C000007EB050202EB0900A1EB0000A0612078D0
:100C1000C00602D42046FFF7EFFB002608E0D4E927
:100C200001211AF806009047206A401C761C2062B9
:100C30004E45F4DB2078C0060AD52046FFF7DCFBE2
:100C400006E0D4E9012130209047206A401C206250
:100C5000381EA7F10107F4DC07E0D4E9012118F8F8
:100C600005009047206A401C2062281EA5F101055E
:100C7000F3DC2046FFF7D7FB2078000602D50220E0
:100C8000BDE8F0870120FBE770472DE9FF4F0C46D8
:100C90001E464FF0FF378BB0D2E90001DDF86080CF
:100CA0000A908A46C1F30A5505B93D460021084617
:100CB0004FF00000BAF1000F00F4400005DA00EB3D
:100CC00080004FF4400101EA50004FEA9059B9F119
:100CD000010F00DDB9460A9850EA4A000ED044F6EA
:100CE0001050A5F2FF3545432F14B8F1000F1ED068
:100CF0007542291E1EDDC9F100021CE0B8F1010F8A
:100D00004FF0000001D0302103E0F24305E0215410
:100D1000401CB042FBDB30460022002121540B99DD
:100D2000C1F80880C1E900200FB0BDE8F08FBD1BFD
:100D30006D1CDEE74A4600DA694206A800F074FA44
:100D400006AB07CB03AB07C350460A9900F025FB5F
:100D50008DE80700A0F500501F3800900398002D83
:100D600009DD42F21F014A46084403A90390684680
:100D700000F084FD08E0A0F500504A461F3803A9A2
:100D80000390684600F08EFD8DE807000004000C1B
:100D900003D04FF0FF30410800E01046B8F1000FDB
:100DA00003D00022009215461FE0751E06D400F005
:100DB000B5F902F1300262556D1EF8D5B346012235
:100DC000084302D000227F1C04E02078302801D1A3
:100DD00000227F1E002A099787D01DE0112D07DA17
:100DE00000F09CF9303262556D1C50EA0102F5D1D9
:100DF00008430FD10021681E05E0235C625C635448
:100E0000491C2254401E8142F7DBAB46A81B401E02
:100E1000099001E0009848B1002004F80B000B98FD
:100E2000099AC0F80880C0E9002B7DE711264FF031
:100E300000085AE72DE9F04F88460446D21D22F0FB
:100E4000070191B0D1E90001CDE90A0109F0EBFAFF
:100E500002460B98C00F01D02D2007E020688107C3
:100E600001D52B2002E0202101EAC000032A0990CD
:100E700001D0072A05DB03464146204600F094F9DD
:100E80000FE12078800601D5E06900E00620B8F186
:100E9000650F814606D0B8F1660F18D0B8F1670F1C
:100EA00072D132E00020B9F1110F009001DB112363
:100EB00001E009F101030AAA01A90CA8FFF7E5FE68
:100EC000DDE90C70002609F10105834648E00120A8
:100ED0004B4600904FF000470AAA01A90CA8FFF763
:100EE000D4FEDDE90DB00C995D46002618B909F174
:100EF000010001EB0005B9EB050003D4C0F1FF369A
:100F000009F10105A5EB09002BE0B9F1010F01DAA8
:100F10004FF001090020B9F1110F0090484601DDA2
:100F2000112300E003460AAA01A90CA8FFF7ADFEB1
:100F3000DDE90C704D4600268346207800070AD470
:100F4000AB4500DA5D4601A8012D04DD411911F819
:100F5000011C302907D04F4502DA17F1040F04DADB
:100F60000120824610E06D1EEEE7002F02DCED1B33
:100F70003E4403E0781CA84200DD0546A7EB0600CE
:100F800000F1010A4FF000472078000703D4AA457A
:100F900001DB4FF0FF3A0021B7F1004F0DF143089C
:100FA0008DF8431023D002202B23002F01DA7F423B
:100FB0002D234FF00A0C011EA0F1010000DC4FB1FF
:100FC00097FBFCF10CFB11720F4602F1300208F89E
:100FD000012DF0E7A8F1010003702188090501D572
:100FE000452100E06521A0F1010800F8011C0998E5
:100FF0000FA9A1EB080707F1070700B1012000EBDB
:10100000050101EBEA70A1693844A1EB0000A0F1F1
:101010000100A0612078C00602D42046FFF7ECF959
:10102000099830B1D4E901219047206A00F101000C
:1010300020622078C00620D52046FFF7DDF91CE0AD
:10104000002E04DBB34502DD01A8805D00E0302006
:10105000D4E901219047206A761C401CBAF1010AAC
:1010600020620AD100F053F8C0680168405CD4E9FE
:1010700001219047206A401C2062281EA5F101052D
:10108000DEDC07E0D4E9012118F8010B9047206A63
:10109000401C2062381EA7F10107F3DC2046FFF751
:1010A000C2F9022011B040E601694A1C02610878C9
:1010B000704700B58FB0CDE9013100210591054998
:1010C0007944CDE9031011466846FFF751FA0FB095
:1010D00000BD0000E5FFFFFF0A6802F8010B0A608F
:1010E000704710B5436913B1AFF3008001E0FFF71B
:1010F000ACF9012010BD127800F124010A70002221
:101100004A700122EDE711684FF0FF32E9E710B5B0
:10111000FFF734F9203010BD09F09AB930B5B0F1BD
:101120000A024FEA900E71F100034EEA817EB0EBA5
:101130000E0061EB91014FEA101E4EEA017E10EBAA
:101140000E0041EB11114FEA102E4EEA016E10EB2A
:101150000E0041EB11214FEA104E4EEA014E10EB0A
:101160000E0041EB1141401841F100014FEAD0005F
:1011700040EA41704FEAD10110EB80054FEA81044B
:1011800044EA907444EB01046D1944EB0404521BCF
:10119000A3414FF0000348BF0A3200D530BD401CC8
:1011A00041F1000130BD00002DE9F0411F46044629
:1011B00003260168072A01F4006004DB08B116A5C4
:1011C00005E016A503E008B115A500E015A521F07E
:1011D00010002060A069C01EA0610FB1401EA06178
:1011E0002046FFF709F94FB1D4E90121384690476D
:1011F000206A401C2062C01C206206E0206AFAE7D8
:10120000D4E9012115F8010B9047761EF8D220464B
:10121000FFF709F9BDE8F0814E414E006E616E00A6
:10122000494E4600696E66002DE9F0478146164634
:101230008AB035487844D0E9002380680092CDE92F
:101240000130314878440C38D0E902230069039218
:101250004FF03702CDE9043041F69B30014491FB59
:10126000F2F0A0F1800502FB10141B3C02D5644291
:10127000012000E00020DFF890A080460027FA441B
:10128000AAF1C60A0DE0E00709D03246684607EB2E
:1012900047010AEB810100F005FB8DE807006410AF
:1012A0007F1C002CEFD1184F7F44B43F17E0E807B4
:1012B00013D007EB04100DF1180A90E80E00AAE80D
:1012C0000E00C068F04201D198190890324606A974
:1012D00003A800F0E7FA03AB07C36D10641C002DF0
:1012E000E5D132466946B8F1000F03A802D000F0FC
:1012F000C5FA01E000F0D6FAC9E90001C9F80820F2
:101300000AB0BDE8F087000048C301000149182079
:10131000ABBEFEE7260002004FF0013C50F8042B64
:1013200051F8043B9A4221D1A2EB0C03934313EAF8
:10133000CC1317D150F8042B51F8043B9A4215D125
:10134000A2EB0C03934313EACC130BD150F8042BFC
:1013500051F8043B9A4209D1A2EB0C03934313EAE0
:10136000CC13DBD04FF00000704700BFD01A01BA99
:10137000B1FA81F101F0180122FA01F0CB40C1F17C
:101380002001DBB2C0B2C01A2CFA01F3D11A91438A
:1013900011EAC311E6D1704770475FEA400C08BFFD
:1013A00091F0000F4FEA8C234FEAC12243EA5151DA
:1013B0004FEA1C5018BF00F5F0404FEA300018BF4C
:1013C00041F000415FEA6C5C00F02980BCF1FF3F16
:1013D00008BF40F080407047130C06BF12044FF066
:1013E000100C4FF0000C130E04BF12020CF1080C8D
:1013F000130F04BF12010CF1040C930F04BF9200F1
:101400000CF1020CD30F04BF52000CF1010C114679
:101410004FF00002A0F11F00A0EB0C00704711F08C
:10142000004F08BF704731F000413FF4D5AF0B0CBF
:1014300006BF09044FF0100C4FF0000C0B0E04BF58
:1014400009020CF1080C0B0F04BF09010CF1040C8C
:101450008B0F04BF89000CF1020CCB0F04BF4900B5
:101460000CF1010CCCF12003A0EB0C0022FA03F3E9
:1014700002FA0CF241EA030100F10100704720F08A
:101480007F4C80EA030023F07F47ACEB070303F5B2
:101490007C5300F0004003F1FF032DE980494FEA3F
:1014A000154B09B44FEA144325EA0B4E24EA0348CE
:1014B0000FF2042606EB132749083E785FEA320252
:1014C00003FB0667C7F5000707FB06F64FEA54372C
:1014D0004FEAD64606F1020607FB066CCCF1005C2B
:1014E0004FEA1C472CEA074C07FB06F40CFB06F5F9
:1014F00004EB15464FEA961634BF00204FF000402B
:101500004FEAD13706FB07FC4FEA1C4C0CFB0BF7EC
:10151000D21B03FB0CF761EB07010CFB0EF7B0EBE2
:10152000074072EB17420CFB08F734BFA2EB0742EF
:10153000B2EB074261EB17414FEA0C444FEA9107C7
:1015400006FB07FC4FEA1C4C0CFB0BF7B0EBC7404B
:1015500072EB573203FB0CF734BFA2EBC742B2EB7E
:10156000C74261EB57310CFB0EF7B0EBC70072EBD3
:1015700057720CFB08F734BFA2EBC702B2EBC702ED
:1015800061EB5771039F4FEA816141EA921104EBCD
:10159000CC044FEAD1374FEA826206FB07FC42EAED
:1015A00090124FEA80604FEA1C4C0CFB0BF7D21BE9
:1015B00003FB0CF761EB07010CFB0EF7B0EB0740E8
:1015C00072EB17420CFB08F734BFA2EB0742B2EBF9
:1015D000074261EB17414FEA8C554FEA910704EB44
:1015E0009C2406FB07FC4FEA1C4C0CFB0BF7B0EBF2
:1015F000C74072EB573203FB0CF734BFA2EBC74274
:10160000B2EBC74261EB57310CFB0EF7B0EBC700F2
:1016100072EB57720CFB08F734BFA2EBC702B2EBB8
:10162000C70261EB577115EB4C254FEA816141EA26
:1016300092114FEA82624FEAD13742EA901206FBDA
:1016400007FC44F100044FEA80604FEA1C4C0CFB9D
:101650000BF7D21B03FB0CF761EB07010CFB0EF73A
:10166000B0EB074072EB17420CFB08F734BFA2EB5C
:101670000742B2EB074261EB174115EB1C154FEA2D
:10168000813141EA92414FEA823242EA90424FEA86
:1016900080304FEA0C7644F1000448EA03434EEAF6
:1016A0000B484FF0000EB2EB080C71EB030724BFA0
:1016B000624639464EEB0E0E4FF0000B00185241B9
:1016C00049414BEB0B0BB2EB080C71EB03077BF1C1
:1016D000000B24BF624639464EEB0E0E4FF0000B56
:1016E0000018524149414BEB0B0BB2EB080C71EB6C
:1016F00003077BF1000B24BF624639464EEB0E0E0A
:1017000051EA020718BF46F0010616EB0E7655F1B6
:10171000000254F1000103D5BDE88901BDE800884D
:10172000BDE88901BDE80048B619524141EB01010D
:10173000A3F10103704780807F7E7D7C7B7A79787E
:10174000777676757473727171706F6E6E6D6C6C86
:101750006B6A6A6968686766666564646363626128
:101760006160605F5F5E5E5D5D5C5C5B5B5A5A59A9
:101770005958585757565655555554545353525215
:101780005251515050504F4F4F4E4E4D4D4D4C4C6D
:101790004C4B4B4B4A4A4A494949484848474747B6
:1017A00047464646454545444444444343434342F3
:1017B000424242414141002B26D4770021D01CB542
:1017C0004FEA370703B44FF010004FF010014FF00D
:1017D00000000FBCBDE810400BF1010BBBF1010F85
:1017E00008BF5FEA170722BF12F1010211F10101E0
:1017F0004FF0004143F1000300F0004043EA0000D5
:101800007047F9D35708DAE746EA064613F1400F66
:101810004FEA16461FDD13F1200FDFBF16430A46BD
:10182000002120335B42C8D0C3F1200746EA0646B8
:1018300002FA07F74FEA164646EA0706C3F1200701
:1018400022FA03F201FA07F721FA03F14FF000033D
:1018500042EA0702B1E746EA020646EA06464FEACE
:10186000164646EA0106BCBF46EA0646360C4FF06D
:1018700000034FF000024FF000019EE72DE9C04841
:10188000934630B491E8380007C831EA400C48BFAD
:1018900034EA430C03D5FFF7F2FDFFF78CFFF0BCF1
:1018A000BDE800882DE9C048934630B491E838007F
:1018B00007C810F0804F08BF13F0804F03D100F02D
:1018C00005F8FFF778FFF0BCBDE8008820F07F47FF
:1018D00080EA030023F07F4C07EB0C03A3F57C5355
:1018E00000F00040A3F1FE0392F0000F00F0B3807F
:1018F00095F0000F00F077802DE901494FEA114083
:101900004FEA144621EA004800FB06FC24EA064799
:1019100008FB06F607FB08F800FB07F718EB06487C
:101920004CEB164C4FEA124B18EB07484FEA1546A2
:101930004CEB174022EA0B4E0BFB06FC25EA064750
:101940000EFB06F607FB0EFE0BFB07F71EEB064E23
:101950004CEB164C4FF000061EEB074E4CEB174BB2
:1019600018EB0B0840F1000018EB0E0B58EB0008C9
:1019700040F100008F1A4FF000013CBFC943661BC5
:1019800014BFB5EB040C00213CBFC943F61B4FEA62
:1019900017444EEA8E0E27EA04454FEA1C4704FB23
:1019A00007622CEA074C05FB07F70CFB05F604FB66
:1019B0000CFC16EB074642EB174216EB0C4642EBCB
:1019C0001C421BEB060658EB0202414146EA9E060A
:1019D00001D5BDE80189B619524141EB0101A3F1DE
:1019E0000103BDE801894FEA14454FEA114724EA93
:1019F000054621EA074C05FB07F406FB07F70CFB3D
:101A000006F105FB0CFC11EB074144EB17444FEAD0
:101A1000124711EB0C4144EB1C4422EA074C05FB36
:101A200007F206FB07F70CFB06F605FB0CFC16EBB2
:101A3000074642EB174216EB0C4642EB1C456A1870
:101A400054F1000148BF7047B619524141EB010102
:101A5000A3F10103704795F0000F37D04FEA114210
:101A60004FEA144721EA024624EA074C02FB07F139
:101A700006FB07F70CFB06F402FB0CFC14EB074417
:101A800041EB17414FEA154714EB0C4441EB1C4165
:101A900025EA074C02FB07F506FB07F70CFB06F6E9
:101AA00002FB0CFC16EB074645EB174516EB0C4604
:101AB00045EB1C42121951F1000148BF7047B6199D
:101AC000524141EB0101A3F1010370474FEA144574
:101AD0004FEA114724EA054621EA074C05FB07F1C6
:101AE00006FB07F70CFB06F24FF0000605FB0CFCAB
:101AF00012EB074241EB174112EB0C4251EB1C4138
:101B000048BF7047921841EB0101A3F101037047F0
:101B10000000000006F0FEBA10B50022074B114687
:101B200001EB810403EB440434F81040491CC9B2B2
:101B300022441029F4D3C2F30F1010BD7203002009
:101B4000044890F83C00012801D0034800E0034815
:101B500008F080BBC86A0020A49D01082478010811
:101B6000264910B508684FF6FF021040244A40F499
:101B7000E06010430860062004F006F8072004F037
:101B800003F8082004F000F8092003F0FDFF0A2004
:101B900003F0FAFF172003F0F7FF282003F0F4FF0B
:101BA0001E2003F0F1FF272003F0EEFF07F050FCAA
:101BB000154A1448D16941F00201D1610021018028
:101BC000018540F65F13838501238382018446F2F9
:101BD000600303838383818601878187A0F8401097
:101BE000018841F001010180906940F0010090619D
:101BF0000648416841F44061416010BD0CED00E0D1
:101C00000000FA05000400400010024000000140FE
:101C100008B5024908440090008808BD006C0040E7
:101C200008B5024A10440090016008BD006C0040F5
:101C3000002007F0A9BC00000148007807F0A4BC10
:101C40002800002070B515460E46044609F0D8FE5F
:101C500021461648FEF730FD144800F077FA30466A
:101C600000F028F964211248FEF737FE00222946C9
:101C70000F4800F05FF90F4C6070012000F008FA87
:101C800064210A48FEF729FE64210948FEF725FE73
:101C900009F0BEFE6078142802D0172802D003E0B5
:101CA000012070BD09F0A3FE002070BDD86800209F
:101CB000AC6700204A01002010B5044609F0A0FEE0
:101CC00021460648FEF7F8FC044800F03FFA00F011
:101CD00043FA044609F09CFE204610BDD868002057
:101CE0002DE9F0411C4615460E46074609F088FED0
:101CF00023462A463146384600F07CF8142804D0A2
:101D000009F086FE0020BDE8F08109F081FE012087
:101D1000F9E700002DE9F0411C4615460E4607463E
:101D200009F06EFE23462A463146384600F092F806
:101D3000084C607009F06CFE6078142802D01728F7
:101D400003D004E00120BDE8F08109F050FE00203E
:101D5000F9E700004A01002010B5044609F050FEE2
:101D600021460B48FEF7A8FC094800F011F9094983
:101D70004870012000F08CF964210548FEF7ADFDA4
:101D800064210548FEF7A9FDBDE8104009F040BEFA
:101D9000D86800204A010020AC67002070B51546C5
:101DA0000E46044609F02CFE21460F48FEF784FC3F
:101DB0000D4800F07AF90D4CA9B20022607030464F
:101DC00000F0B8F86070012000F062F960706421E2
:101DD0000548FEF782FD64210548FEF77EFDBDE85B
:101DE000704009F015BE0000D86800204A010020AC
:101DF000AC6700202DE9F0411C4616460F4605460B
:101E000009F0FEFD29461048FEF756FC0E4800F08A
:101E10009DF9384600F04EF8A1B20022304600F09D
:101E200062F80A4C6070012000F032F96421064823
:101E3000FEF753FD64210648FEF74FFD09F0E8FD6B
:101E40006078BDE8F0810000D86800204A010020D9
:101E5000AC6700202DE9F0411C4617460E460546AA
:101E600009F0CEFD29461048FEF726FC0E4800F08A
:101E70006DF9384600F01EF8A1B20C4A304600F069
:101E800059F80A4CA41E6070012000F001F9642189
:101E90000548FEF722FD64210548FEF71EFD09F006
:101EA000B7FD6078BDE8F081D86800204C010020C3
:101EB000AC67002010B5044639200EF0B9FFE0B23F
:101EC0000EF0C1FFC4F307200EF0BDFFC4F30740BE
:101ED0000EF0B9FF200E0EF0B6FF0EF079FFBDE850
:101EE000104008F0C3B970B5064614460D463A20B6
:101EF0000EF09EFFE8B20EF0A6FF280A0EF0A3FF38
:101F00000EF066FF0CB1002011E008F0AFF91D28BB
:101F10000FD1304600F052F905463B200EF088FF05
:101F20000EF056FF2E44002CEFD02088284420804D
:101F3000EBE770BD2DE9F041064614460D463C2006
:101F40000EF076FFE8B20EF07EFF280A0EF07BFF5F
:101F50000EF03EFF0CB1002020800C4F08F086F9F7
:101F60001E2810D1304600F03CFA054638703D205E
:101F70000EF05EFF0EF02CFF2E44002CEED02088D9
:101F800028442080EAE7BDE8F081000049010020F4
:101F900010B5044600F0C4F920785C2801D02F2841
:101FA00003D10021642000F032FABDE81040402047
:101FB00000F096B910B504F07DFE08B100F0CFF83E
:101FC000BDE81040302000F08BB9312000F088B916
:101FD00010B505200AF04DFC5A2000F081F90446A6
:101FE00005200AF046FC204610BD00002DE9F74F01
:101FF00082B0834604980E46C700080E4FF0000AD0
:10200000C1F30729C1F30748009056200EF010FFD6
:10201000F0B20EF018FF48460EF015FF40460EF0E5
:1020200012FF00980EF00FFF04980EF00CFF0EF058
:10203000CFFE3C4614E000BF08F018F905461E2804
:1020400001D07CB113E04021584600F0B4F957208C
:102050000EF0EEFE0EF0BCFE641E0BF1400BA4B2BF
:10206000002CE9D108F002F9054614280ED0162DEF
:1020700009D0FFF7ADFF0AF1010000F0FF0ABAF145
:10208000030FC2D1284605B0BDE8F08F1420FAE74F
:102090000146362000F017B910B508B100F040F93C
:1020A000BDE81040342000F01BB970B5054600F0C3
:1020B00021F904000DD00146284600F021F84128FE
:1020C00007D0142803D0422800D1B32070BD43208C
:1020D00070BD2819BDE87040FFF7DEBF10B504469B
:1020E00000F01EF920785C2801D02F2803D10021B0
:1020F000642000F08CF9BDE81040322000F0F0B808
:1021000070B5054600200E46012401E0641CE4B2CF
:10211000295D5C2913D02F2911D00029F6D1002484
:102120002844FFF7DBFF002C08D0B44206D041283A
:102130000AD0142806D0422800D1B32070BD641CF8
:10214000E4B2EDE7432070BD2046E1E7FF21FFF751
:10215000D7BF2B2000F054B8682000F045B810B568
:1021600022200EF065FE0EF05CFE04460EF030FEFE
:10217000204610BD04480178012901D00020704795
:102180000021017001207047380000202DE9F04146
:102190000EF047FE06460EF044FE05460EF041FEE8
:1021A00004460EF03EFE07460EF012FE46EA0520FB
:1021B00040EA044040EA0760BDE8F08170B505469A
:1021C00027200EF035FE0EF02CFE0400264607D028
:1021D0000EF027FE641E05F8010B14F0FF04F7D182
:1021E0000EF0F6FD304670BD10B504460C200EF022
:1021F0001FFE20460EF027FEBDE81040FFF7C6BFC9
:1022000010B504460A200EF013FE20460EF01BFE09
:102210000EF007FE04460EF0DBFD204610BD10B5A3
:1022200004464A200EF004FEE0B20EF00CFEC4F3A9
:1022300007200EF008FEC4F307400EF004FE002055
:102240000EF001FE0EF0C4FDBDE8104008F00EB81F
:102250002DE9F04115000F46804601D0002028707E
:102260004C200EF0E5FD38460EF0EDFD0EF0B0FD11
:1022700007F0FCFF0646142823D127200EF0D8FDD6
:102280000EF0CFFD0EF0CDFD04460EF0CAFD0EF0AF
:10229000C8FD0EF0C6FDFFF779FF014684B1224666
:1022A0004046FFF7A3FE064614280AD108EB44284F
:1022B00015B1287820442870381B10F0FF07CFD1C3
:1022C0003046BDE8F08110B50C460EF0B1FD204659
:1022D0000EF0B9FD0EF07CFDBDE8104007F0C6BF62
:1022E00010B50EF0A5FD0EF073FDBDE8104007F02F
:1022F000BDBF0000014600E0491C0A78002AFBD15E
:1023000006E000BF11F8012D5C2A03D02F2A01D06E
:102310008142F7D1814200D0491C081AC0B27047EF
:1023200070B5054601200EF083FD0EF07AFD4328BE
:1023300028D22B20FFF764FF102823D22F200EF085
:1023400077FD00200EF07FFD3220FFF7C9FF142833
:1023500018D1CF20FFF754FF040013D04C20FFF713
:1023600043FF00EB04214C2000F051F85020FFF710
:102370003BFF00EB0421502000F049F800217020C1
:1023800000F045F82F200EF053FD2C7806E000BF3A
:1023900015F8014F5C2C0AD02F2C08D020460EF0E7
:1023A00052FD002CF4D1BDE870400EF011BD0020AC
:1023B0000EF049FDF7E770B505460C462C200EF0EF
:1023C00037FD20460EF03FFD3CB128780EF03BFD76
:1023D0006D1C641E14F0FF04F7D1BDE870400EF0D0
:1023E000F7BC70B505462D200EF022FD0EF019FD4C
:1023F0000400264607D028780EF025FD6D1C641ECB
:1024000014F0FF04F7D10EF0E3FC304670BD70B558
:1024100005460C460D200EF00BFD28460EF013FD70
:10242000E0B20EF010FDC4F307200EF00CFDC4F373
:1024300007400EF008FD200E0EF005FDBDE87040CF
:102440000EF0C6BC012009F0E9BA10B502F0ECFAB2
:1024500005F016FEBDE81040FFF7F4BF10B50446C6
:102460000121502009F066FBC8B1002009F0FAFAFA
:102470002070002009F0F6FA6070002009F0F2FAEE
:10248000A070012009F0EEFAE07009F08DFB002148
:10249000502009F04FFB09F087FB012010BD09F027
:1024A00083FB002010BDF8B50D46064609F0CCFAB6
:1024B0006846FFF7D3FF040011D09DF801009DF896
:1024C000001000EB0120C0F30D0030809DF80300E8
:1024D0009DF8021000EB0120C0F38D00288009F068
:1024E000BBFA2046F8BD000030B50E480E4C002364
:1024F0000078042234F81010401CC0B20D460528A4
:1025000000D3002034F810104D1BADB2521E2B44E6
:1025100012F0FF02F0D1C3F38F004FF4FA71484379
:1025200030BD0000000000206803002010B5044604
:1025300012490EF0CDFF12490EF014FE21460EF0A6
:10254000C7FF10490EF00EFE21460EF0C1FF0E49E6
:102550000EF008FE21460EF0BBFF0C490EF002FE05
:1025600021460EF0B5FF0A490EF0FCFD21460EF0A3
:10257000AFFFBDE8104007490EF0F4BD92EBD72C39
:10258000EEC70B310DBDA2343E5ADE37774BBB3A56
:1025900045B8353D145C1C3F2DE9F04706461A4FFF
:1025A0000898984691468A46002540B10AF0A2F85C
:1025B00004461649884504DA3046BDE8F0873C46B3
:1025C000F7E7134890F82C0018B15046FFF7AEFF1C
:1025D0000546494640460EF0C5FD29460FF0FEF877
:1025E00021460EF075FF0446394650460EF0BAFDFE
:1025F00008490EF06DFF31460EF06AFF2146BDE836
:10260000F0470EF023BE0000339388436F12833AE5
:10261000C86A002066A6CA422DE9F0411F469046CE
:102620000C4606460AF066F805460F4920460EF0AD
:1026300099FD0E490EF04CFF0446414638460EF017
:1026400091FD29460EF044FF21460EF0FFFD314674
:102650000EF03EFF0649884202DA0020BDE8F08114
:10266000BDE8F0410EF076B83393884366A6CA42BF
:102670006F12833A2DE9FF4F87B090460F461D46F3
:10268000182221496846FEF7F6F80026012440F298
:10269000013B40F2035941F60C0A00BF09F098FAD9
:1026A000684602F0B1FC58F8251018A35A4640F2CB
:1026B000191006F08DFA37F8151000234A465046D7
:1026C00006F0ACFA00222146684602F0C9FC044636
:1026D000012807D0022C0ED0002CDFD10BB03046E1
:1026E000BDE8F08F2B4642463946079800F010F8B7
:1026F00007E00126D2E707EB45014A46504601F0C4
:1027000083FE0028CAD0F4E710D101084C2F6D00D9
:102710002DE9FF4F8DB0002004908F481F460E46D4
:10272000848831F8175008880A90B1F802B0B1F8DF
:1027300004A0B1F806904FF0010852F8270087492D
:102740000EF0C6FE4FF07C510EF00CFD0EF040FE78
:1027500081490D9A01EB42010691888101210D9872
:1027600004F096FA09F034FA7DA1002002F024FC6E
:10277000F580B580758035800D9809F0CFFF039006
:102780007AA1002002F018FC002340F203522946EF
:10279000192006F043FA78A14FF4406002F00CFCD7
:1027A00077A340F2036240F60C40039906F010FA5A
:1027B00074A14FF4C05002F0FFFB0D9804F05AFAD8
:1027C000014641F60C0006F059FA642009F0FAFFC0
:1027D0000028D1D009F03EFE112856D008DC01288F
:1027E0001AD0042878D0092877D0102813D106E011
:1027F000212873D0402808D041280CD162E042F251
:102800000F70854205D26D1C02E0632D01D96D1E4B
:10281000ADB20120049089E0069864215B4A80896A
:10282000484303210590880202F0C4FB40F2036292
:1028300005A940F60C4001F0F5FD00B3012004901D
:1028400005980EF0FDFD0290642D19D3039810F049
:10285000FF4F17D028460EF0F3FD054606988089F5
:102860000EF0EEFD29460EF0F1FC014602980EF046
:10287000EDFC47490EF0EAFC0EF0AAFD85B201E03E
:102880004FF47A7509F0A4F950E040F698008442BC
:1028900001D2641CA4B2642111200CF0F5FE50B1E9
:1028A00038E0641CA4B220460EF0CAFD39490EF08F
:1028B0000FFE01F0B1FA012111200CF0E5FE002815
:1028C000EFD027E0C82C01D9641EA4B264214120B6
:1028D0000CF0DAFE68B11DE02CE011E016E0641E99
:1028E000A4B220460EF0ACFD2A490EF0F1FD01F035
:1028F00093FA012141200CF0C7FE0028EFD009E037
:1029000040F29E70844205D2643402E0DC2C01D98E
:10291000143CA4B220460EF093FD1E490EF0D8FDE3
:1029200001F07AFA0C48848001F0B4F8B8F1000F95
:102930007FF41EAF00210D9804F0AAF90A983080A8
:10294000A6F802B0A6F804A0A6F8069026F817503C
:10295000049811B0BDE8F08FC86A00200000204143
:10296000B5F7CAD4C1F7C1BF00000000C1F7C1BFAD
:10297000B1B6C2CA3A000000C1F7C1BF3A000000B8
:102980004C2F6D00CAE4B3F63A000000A4C701085A
:102990000000C8420AD7233C2DE9F04F8FB0814692
:1029A0002022454902A8FDF766FF4449444801EB4F
:1029B000C906494600EB41000D9001243C36808950
:1029C0004FF0000A40F20355B9F1010F05D0B9F1FB
:1029D000020F02D040F2015B08E000EBC00101EB06
:1029E00000104FF6FF71AB4601EA8000ADF8000021
:1029F00040F60C0741F60C0809F0EAF802A802F0CC
:102A000003FB494640F2151006F026FB2DA35A465B
:102A1000BDF80010384606F001F9318800232A4637
:102A2000404606F0FBF80022214602A802F018FBFF
:102A300004000FD0012C24D0022C33D0032CE5D17C
:102A40002A463146404601F0DFFC0028DED04FF038
:102A5000010ADBE7BAF1000F0AD023211AA003F024
:102A600031F8062807D0072808D00124002CC3D14C
:102A70000FB0BDE8F08F00F097FAF9E700F02AFAFE
:102A8000F4E75A466946384601F0BEFC0028BDD03E
:102A9000BDF800106420B1FBF0F10D98818100F0C9
:102AA000F9FFB3E73146484600F016F80028A3D0F6
:102AB0004FF0010AA0E70000F0D00108546A00209E
:102AC000C86A00204C2F6D00B1A3B4E6B1EAB6A8E5
:102AD000CAFDBEDD203F00002DE9FF5F80460020DB
:102AE00007460390B8480D4640F2035684880020FC
:102AF0008346019002905FEA080005D0012855D076
:102B0000B8F1020F04D151E040F2015BAFA0029096
:102B100009F05EF80121404604F0BAF8AA4901EB39
:102B2000480A404609F0FAFD8146B8F1000F3FD04F
:102B30004E46A7A1002002F03FFA2988002340F268
:102B40000352192006F06AF8A4A14FF4406002F085
:102B500033FA5A46494640F60C40029B06F038F8D4
:102B6000A0A14FF4C05002F027FA404604F082F8CA
:102B7000014641F60C0006F081F8642009F022FEBF
:102B80000028CED009F066FC112877D040DC01285F
:102B900056D0042873D0092872D01028C1D12888B3
:102BA00042F20F71884249D2401C46E0B346ADE77D
:102BB00009F062FC064609F069FD01460020024664
:102BC000009033464846FFF7E7FC064680A1002008
:102BD00002F0F2F92988002340F20352192006F08E
:102BE0001DF882A14FF4006002F0E6F95A46314622
:102BF00040F60C00029B05F0EBFF78A14FF48050EB
:102C000002F0DAF95A46494641F20C00029BA5E768
:102C100021287DD040280CD0412882D1C82C01D950
:102C2000641EA4B2642141200CF02EFD002870D057
:102C3000B3E02888632801D9401E2880012770E767
:102C4000B8F1000F1DD0BAF80C00642148430321ED
:102C50000190684A880202F0ADF95A4601A940F68F
:102C60000C4001F0DFFB0028E9D0012701980EF0AD
:102C7000E7FB81462888642838D234E051E09BE0A5
:102C800081E051485B4A0321808901904FF4006044
:102C900002F090F95A4601A940F60C0001F0C2FB7F
:102CA0000028CCD0012701980EF0CAFB8146288865
:102CB000642818D316F0FF4F10D00EF0C1FB064663
:102CC000414880890EF0BCFB31460EF0BFFA014648
:102CD00048460EF0BBFA0EF07BFB2880404609F018
:102CE0001DFD814664E74FF47A7018E016F0FF4F3F
:102CF000A5D00EF0A5FB0646BAF80C000EF0A0FB1E
:102D000031460EF0A3FA014648460EF09FFA01E064
:102D10003FE030E038490EF099FA0EF059FB288078
:102D2000FFE640F69800844201D2641CA4B26421FC
:102D300011200CF0A9FC58B12FE0641CA4B220466D
:102D40000EF07EFB31460EF0C3FB01F065F800E0AB
:102D50002A4E012111200CF097FC0028EDD01CE038
:102D6000641EA4B220460EF06BFB31460EF0B0FBA1
:102D700001F052F800E0214E012141200CF084FCCA
:102D80000028EDD009E040F29E70844205D2643400
:102D900002E0DC2C01D9143CA4B220460EF050FB1A
:102DA00016490EF095FB01F037F80748848000F0D3
:102DB00071FE03980028B3D00021404603F068FF5D
:102DC00004B03846BDE8F09FC86A00204C2F6D0063
:102DD000C1F7C1BFB1B6C2CA3A000000B1EABFF63E
:102DE0003A000000CAE4B3F63A000000B9A4BFF606
:102DF0003A000000A4C701080000C8420AD7233CDB
:102E00002DE9F0472B49804601EB08002A4990F84C
:102E10002060012401EBC800002500F13C0A012ECE
:102E200016D0022E43D1254FDFF8949008F0D0FE43
:102E3000384602F0E9F800222146384602F010F93F
:102E40000446052831D2DFE800F006181E282C00C1
:102E50001A4F283FE8E7002D29D0232119A002F0BE
:102E600031FE062805D0072821D1BDE8F04700F043
:102E700031B8BDE8F04700F097B809EB061200231F
:102E800004E00125D2E709EB061201235146404632
:102E9000FFF7F0FB0028C9D0F3E709EB0612022385
:102EA000F4E709EB06120323F0E7002CBED1BDE8DE
:102EB000F0870000C86A0020546A002050D1010841
:102EC00008D00108B1A3B4E6B1EAB6A8CAFDBEDDD8
:102ED000203F000010B5062231494FF4807001F008
:102EE000ABFC2F4845F6A5214FF47A7482888A42BC
:102EF00003D0E20002804480818072222949802030
:102F000001F09AFC274845F6A422B0F870109142CF
:102F100044D046F6B321A0F86410A0F86810A0F8D9
:102F20006C10A0F86640A0F86A40A0F86E4041819D
:102F30008181C18101824182048544858485C48563
:102F400004864FF40041018041808180C18001816D
:102F50008182C182018341838183C4830484448448
:102F60008484C48444868486C48604874487848792
:102F7000A0F84440A0F84C40A0F85440A0F85640B7
:102F8000A0F85840A0F85A40A0F85C40A0F85E4075
:102F9000A0F86040A0F86240A0F8702010BD0000CA
:102FA00018020020546A002010B5062205494FF48B
:102FB000807001F051FC7222BDE81040024980206F
:102FC00001F04ABC18020020546A00202DE9F04F9D
:102FD0000746744800258BB084882E4608F0F8FD1B
:102FE00040F20440052F0FD2DFE807F00305070980
:102FF0000B006DA106E071A104E075A102E079A1CA
:1030000000E07DA101F0D8FF8049DFF804A205A807
:10301000EB4601EB47080A90B8F822102BF8151080
:103020000BEB45006D1CB8F81810EDB281820A2D2B
:1030300002D026B10A2103E000250126FAE729463D
:10304000684608F0C5FC2AF817000EB10A2100E016
:1030500029460A9808F0BCFC0AEB4709A9F81400B5
:103060000EB10A2100E02946684608F0B1FC2AF8B2
:1030700017000EB10A2100E029460A9808F0A8FCC2
:10308000A9F8140063A140F6064001F095FF384608
:1030900009F078FB014640F2026900234A4641F2FA
:1030A000082005F095FD5DA140F6144001F084FF75
:1030B000384609F0CDFA014600234A4641F216206F
:1030C00005F086FD282009F07DFB0028A4D009F03A
:1030D000C1F911281FD00BDC012817D0042815D006
:1030E000092899D140F29E7084424DD264344AE05E
:1030F000212845D041288FD1C82C01D9641EA4B203
:10310000642141200CF0C0FA80B33DE0FFF74CFF92
:103110000BB0BDE8F08F40F69800844201D2641CE9
:10312000A4B2642111200CF0AFFA58B12CE0641C59
:10313000A4B220460EF084F949460EF0C9F900F019
:103140006BFE01E0DFF8DC90012111200CF09CFA0D
:103150000028ECD018E0641EA4B220460EF070F9EE
:1031600049460EF0B5F900F057FE02E0FFE7DFF840
:10317000B490012141200CF087FA0028EBD003E045
:10318000DC2C01D9143CA4B220460EF059F9254993
:103190000EF09EF900F040FE0248848000F07AFCB8
:1031A0003AE70000C86A00203CB7DB20B3BE3E20EF
:1031B000D7D4B6AFB5F7C1E3000000003CC8D5BE18
:1031C000F9413E20D7D4B6AFB5F7C1E30000000007
:1031D0003CC8D5BEF9423E20D7D4B6AFB5F7C1E35F
:1031E000000000003CCAB1BEF9433E20D7D4B6AFC0
:1031F000B5F7C1E3000000003CCAB1BEF9443E206F
:10320000D7D4B6AFB5F7C1E300000000EA660020EE
:10321000546A0020C1F7C1BF3A000000BCC6D1B952
:103220003A0000000AD7233C10B5044602F0DAFC4D
:1032300040F60E00052C09D2DFE804F003050D0F5F
:10324000110008A100E00BA101F0B6FE2046BDE888
:10325000104001F0C5BC0BA1F6E70EA1F4E711A1E7
:10326000F2E70000B7DB20B3BE20D7D4B6AFB5F786
:10327000C1E30000C8D5BEF94120D7D4B6AFB5F739
:10328000C1E30000C8D5BEF94220D7D4B6AFB5F728
:10329000C1E30000CAB1BEF94320D7D4B6AFB5F739
:1032A000C1E30000CAB1BEF94420D7D4B6AFB5F728
:1032B000C1E300002DE9F14F88B018227849684633
:1032C000FDF7D9FA774808990125848876484FF4A4
:1032D000A06800EB410606F114073236002041F2E7
:1032E0000C0940F2035A41F60C0B069001E00798D6
:1032F00058B108F06DFC684601F086FE40F21510EA
:10330000089905F0A9FE002007903988002342465D
:10331000484605F083FC318800235246584605F0A4
:103320007DFC2946684601F05FFE60A14FF4006015
:1033300001F042FE089809F08BF901465DA340F2C6
:10334000026240F60C0005F043FC192009F03AFA3D
:103350000028EAD02946684601F046FE09F07AF8CE
:10336000112849D008DC012819D004282ED00928BA
:103370007CD0102817D10CE021287DD0402802D025
:10338000412810D155E06D1CEDB2032D0BD3012562
:1033900009E0012D00D803256D1EEDB203E0012DDB
:1033A00006D0022D08D0002DAFD109B0BDE8F08FB6
:1033B00042463946484602E052463146584601F0F8
:1033C00023F80028A1D0012006909EE70698002847
:1033D000EBD0232138A002F075FB062802D0072885
:1033E00006D102E0FFF7E0FDDFE7FFF7DDFD002596
:1033F000002D7FF47BAFD8E740F69800844201D2DD
:10340000641CA4B2642111200CF03EF950B137E0E5
:10341000641CA4B220460EF013F82B490EF058F8A5
:1034200000F0FAFC012111200CF02EF90028EFD059
:1034300026E0C82C01D9641EA4B2642141200CF0FE
:1034400023F950B11CE0641EA4B220460DF0F8FF31
:103450001D490EF03DF800F0DFFC012141200CF089
:1034600013F90028EFD00BE000E005E040F29E7079
:10347000844205D2643402E0DC2C01D9143CA4B2AD
:1034800020460DF0DDFF10490EF022F800F0C4FCDC
:103490000448848000F0FEFA002D7FF428AF84E712
:1034A000C0D00108C86A0020546A0020BCC6D1B947
:1034B0003A0000006B506100B1A3B4E6B1EAB6A8CF
:1034C000CAFDBEDD203F00000AD7233C2DE9F14FA5
:1034D000774882B0012584887648029940F20267D5
:1034E00000EB410606F10A082836002041F20C0BD9
:1034F00040F2035941F60C0A009001E0019858B1DE
:1035000008F066FB6C4801F07FFD40F2151002994F
:1035100005F0A2FD00200190B8F8001000233A4603
:10352000584605F07BFB318800234A46504605F09B
:1035300075FB2946604801F057FD60A14FF400601B
:1035400001F03AFD029809F0A3F801465DA33A465E
:1035500040F60C0005F03CFB192009F033F9002877
:10356000EBD02946544801F03FFD08F073FF1128C5
:1035700049D008DC012819D004282DD009287CD096
:10358000102817D10CE021287DD0402802D04128F6
:1035900010D155E06D1CEDB2032D0BD3012509E0D0
:1035A000012D00D803256D1EEDB203E0012D05D0DD
:1035B000022D07D0002DAFD1BDE8FE8F3A4641461F
:1035C000584602E04A463146504600F01DFF0028AA
:1035D000A2D0012000909FE700980028ECD0232182
:1035E00039A002F06FFA062802D0072807D103E0BD
:1035F000BDE8FE4FFFF7D8BCFFF7D6FC0025002D35
:103600007FF47BAFD8E740F69800844201D2641C77
:10361000A4B2642111200CF037F850B137E0641CDB
:10362000A4B220460DF00CFF2B490DF051FF00F025
:10363000F3FB012111200CF027F80028EFD026E041
:10364000C82C01D9641EA4B2642141200CF01CF8DE
:1036500050B11CE0641EA4B220460DF0F1FE1E49DC
:103660000DF036FF00F0D8FB012141200CF00CF8E2
:103670000028EFD00BE000E005E040F29E708442AD
:1036800005D2643402E0DC2C01D9143CA4B22046FB
:103690000DF0D6FE10490DF01BFF00F0BDFB0448F5
:1036A000848000F0F7F9002D7FF428AF84E7000054
:1036B000C86A0020546A0020A8D00108CEC2B6C84B
:1036C0003A000000A1E60000B1A3B4E6B1EAB6A852
:1036D000CAFDBEDD203F00000AD7233C2DE9F14F93
:1036E00088B0182278496846FDF7C5F877480899E8
:1036F0000125848876484FF4A06800EB410700203C
:1037000007F11E0641F20C0940F2035A41F60C0B78
:10371000069001E0079858B108F05AFA684601F09F
:1037200073FC40F21510089905F096FC00200790F4
:10373000398800234246484605F070FA3188002354
:103740005246584605F06AFA2946684601F04CFC94
:1037500060A14FF4006001F02FFC089809F012F806
:1037600001465EA340F2036240F60C0005F030FA19
:10377000192009F027F80028EAD02946684601F008
:1037800033FC08F067FE112849D008DC012819D065
:1037900004282ED009287CD0102817D10CE021282D
:1037A0007DD0402802D0412810D155E06D1CEDB2EB
:1037B000032D0BD3012509E0012D00D803256D1E33
:1037C000EDB203E0012D06D0022D08D0002DAFD1BF
:1037D00009B0BDE8F08F42463946484602E05246FD
:1037E0003146584600F010FE0028A1D00120069076
:1037F0009EE706980028EBD0232139A002F062F959
:10380000062802D0072806D102E0FFF7CDFBDFE74C
:10381000FFF7CAFB0025002D7FF47BAFD8E740F609
:103820009800844201D2641CA4B2642111200BF0E0
:103830002BFF50B137E0641CA4B220460DF000FE0F
:103840002B490DF045FE00F0E7FA012111200BF0A5
:103850001BFF0028EFD026E0C82C01D9641EA4B2BB
:10386000642141200BF010FF50B11CE0641EA4B293
:1038700020460DF0E5FD1E490DF02AFE00F0CCFAC1
:10388000012141200BF000FF0028EFD00BE000E009
:1038900005E040F29E70844205D2643402E0DC2CE4
:1038A00001D9143CA4B220460DF0CAFD10490DF018
:1038B0000FFE00F0B1FA0548848000F0EBF8002D0F
:1038C0007FF428AF84E70000D8D00108C86A002040
:1038D000546A0020B2EED1B93A0000006B5061008A
:1038E000B1A3B4E6B1EAB6A8CAFDBEDD203F000030
:1038F0000AD7233C10B5402207494FF4C07000F0AE
:103900009BFF0548C08FA0F5B4418B3903D0BDE8BB
:10391000104000F003B810BDC86A002030B50F4C4D
:10392000207830B1012807D0022808D003280BD115
:1039300008E000F08FF807E000F072F804E000F013
:1039400055F801E000F038F8E08F45F68B25A842E5
:1039500002D000F005F8E58730BD0000C86A0020FD
:1039600013484FF49671F0224185002180F8291008
:1039700080F82810C284012202728270C1704272E3
:1039800042F2957343814FF4FA638380322383714B
:103990000223C3714FF47A73C3850386642343867D
:1039A00080F82C100349416380F83C2070470000E8
:1039B000C86A0020D9AB09000B4803214FF47A7282
:1039C00000F8061C00218176C280C17602220281A5
:1039D0000177428101224277052383818277C38167
:1039E000C27780F827107047CE6A00200B48022269
:1039F000002300F8062C83764FF47A71C1800121F0
:103A0000C1760281017742814177052282818177E7
:103A1000C281C17780F8273070470000CE6A00204D
:103A20000B4801214FF47A7200F8061C8176C2809F
:103A30000022C27602230381027743814177052366
:103A400083818177C381C17780F827207047000088
:103A5000CE6A002010B50E480023012100F8063C74
:103A60004FF47A728176C28054100482C1760224A7
:103A700004814282017744818282417705248481D6
:103A8000C2828177C4810283C17780F8273010BD5C
:103A9000CE6A0020402202494FF4C07000F0DCBE24
:103AA000C86A00202DE9F84FDFF8E8B001250026AC
:103AB0009BF82840BBF82600ADF8000040F2015703
:103AC00041F21448DFF8D09040F6164A08F080F82A
:103AD00031481C3001F098FAC4EBC4014944504607
:103AE00001F06AFA2DA33A46BDF80010404605F0F1
:103AF00095F82948002229461C3001F0B1FA05004A
:103B000023D0012D1DD0022DE6D13A46694640460C
:103B100000F07AFC0028DFD0BDF80000962804D21F
:103B20009620ADF8000007F062FFBDF800104FF4DA
:103B30009670814203D9ADF8000007F058FF0126C6
:103B4000CAE7641C04F00304F9E7002E0BD023211C
:103B500013A001F0B7FF02281AD0062805D00728C5
:103B600001D1FFF7C7FEBDE8F88F0BF12605AC7059
:103B7000BDF80000ABF82600FFF78CFF28880DF099
:103B80005FFC0B490DF0A4FCA9780CF0A9FBEAE757
:103B900001259BE7C86A0020DCD20108A1E60000ED
:103BA000B1A3B4E6C5E4D6C3CAFDBEDD203F000024
:103BB000CDCCCC3D2DE9F84F404E0125002796F89D
:103BC0002940708DADF8000040F2015A4FF4AF78F3
:103BD000DFF8EC9040F6194B07F0FAFF34B13848A3
:103BE000E03001F011FA012C05D00CE03448F83037
:103BF00001F00AFA07E033A35246BDF8001040F680
:103C0000144005F00BF859F82410584601F0D4F987
:103C10004FF00002294634B32948E03001F020FA81
:103C2000050028D0012D21D0022DDCD1012CD3D1CB
:103C30005246694641F6140000F0E6FB0028CBD05E
:103C4000BDF80000962804D29620ADF8000007F0D9
:103C5000CEFEBDF80010414503D9ADF8008007F055
:103C6000C6FE0127B8E71648F830D7E70CB10024A4
:103C7000F7E70124F5E7002F0BD0232112A001F074
:103C800021FF022817D0062805D0072801D1FFF709
:103C900031FEBDE8F88FBDF80000708586F8294038
:103CA000FFF7F8FE708D0DF0CBFB0B490DF010FC0B
:103CB0000CF02AFBEDE701258EE70000C86A002022
:103CC00030D20108A1E60000B1A3B4E6C5E4D6C332
:103CD000CAFDBEDD203F0000CDCCCC3D2DE9F04734
:103CE000284F00252E4640F60B09A7F1100840F694
:103CF0000B7A254C07F06CFF2248643001F084F900
:103D0000607857F82010484601F056F9217850465F
:103D100058F8211001F050F91A4800222946643061
:103D200001F09EF9050015D0012D07D0022DE1D13B
:103D30000EB1FFF7F3FD02F0B9FDDBE707F048FF36
:103D40002078401CC0B22070042801D300202070CD
:103D50000126CFE78EB123210CA001F0B3FE062887
:103D600003D0072809D00125C4E7FFF7D7FDFFF7E7
:103D700091FEBDE8F04704F00BBCBDE8F047FFF74B
:103D8000B9BD000084CE0108C86A0020B1A3B4E622
:103D9000D0DEB8C4BDE1B9FB3F0000002DE9FF5FF4
:103DA00000249B4691468A46264625463AF814004A
:103DB0000DF046FB17490DF08BFBB04659F8246017
:103DC00001462F4630460DF041FA0546014600985F
:103DD0000DF04AFC03D2641CE4B25C45E6D33946DC
:103DE00028460DF0FBFC0446414630460DF0F6FC3B
:103DF00021460DF02BFA0446394600980DF0EEFCF2
:103E000021460DF065FB04B04146BDE8F05F0DF0C2
:103E1000A9B900006F12833A014948607047000059
:103E20002800002001490870FDF706BF2800002087
:103E30000A4980B1012806D0022807D0032808D0FB
:103E40004FF0FF3007E043F6982004E047F230508F
:103E500001E04EF660204860704700000800002036
:103E600003F01EBEC0B2202800D27F20024901EB21
:103E70000010A0F500707047C6190108C0B22028D4
:103E800000D27F20034900EB400001EB0010A0F5B9
:103E9000C06070472466010800487047C61F0108CB
:103EA00070B5C0B20123114D60F31F21F2229818A2
:103EB000400805EB400415F81060647804EB062414
:103EC000A4B2A14205D10A4900EBC00001EBC00039
:103ED00070BD03D900F1010083B202E0A0F101003E
:103EE00082B29342E3D9024870BD0000E61F010888
:103EF000CC21010870B50C46064615460021A020CD
:103F000007F018FE60B1300A07F0E2FD40B1F0B2F0
:103F100007F0DEFD20B10121A02007F00BFE48B91B
:103F200007F042FE002070BD002007F09BFDC0435B
:103F300004F8010B6D1E15F0FF05F5D1012007F007
:103F400091FDC043207007F02FFE012070BD0000DE
:103F500070B50C46064615460021A02007F0EAFD84
:103F600008B3300A07F0B4FDE8B1F0B207F0B0FDD5
:103F7000C8B100BF14F8010BC043C0B207F0A8FDE0
:103F800088B16D1E15F0FF05F4D107F00DFEA025D8
:103F90004FF4C8740021284607F0CCFD30B107F07B
:103FA00003FE012070BD07F0FFFD03E0641E240442
:103FB000240CEFD1002070BD10B500F031FF10BD12
:103FC000034901200870034940030860704700005E
:103FD000380000201404014010B500F021FF10BD8E
:103FE00010B500F01DFF10BD10B500F019FF10BD99
:103FF00010B500F015FF10BD10B500F011FF10BD99
:104000002DE9F34FDFF808928B4691B00126B9F8FD
:10401000044001A95846FCF77BFD0698DFF8F4A19F
:1040200000F26C7085B20598401C00F0FF080498FF
:10403000C7B243462A4678A10CA80097FCF7C8F9F6
:104040000CA9119800F0B8FF012E04D0022E06D062
:10405000032E09D118E0744A0421119802E0119846
:104060000A3013E000F0A6FF08F0F4F911286AD036
:1040700024DC082869D00DDC012873D00428D8D1AD
:10408000002013B0BDE8F08F1198103080B2664A5E
:104090000221E7E7092873D01028CAD1012E1FD0CA
:1040A000022E26D0032EC4D14146284607F092FDA9
:1040B0007F1CFFB2B842BCD20127BAE720284AD001
:1040C00021287BD040281DD04128B2D1C82C01D94D
:1040D000641EA4B2642141200BF0D6FA90B389E0AB
:1040E0006D1CADB240F633008542A2D94FF4FA659B
:1040F0009FE708F1010000F0FF08B8F10C0F98D914
:1041000001201DE0012E0DD0022E13D0032E90D1E0
:104110007F1E17F0FF078CD14146284607F05AFD55
:10412000074686E76D1EADB2B5F5FA6F81D240F64F
:1041300033057EE7A8F1010010F0FF08BDD10C2087
:10414000804676E745E01CE0FFE7761CF6B2032EDA
:10415000B3D901266DE7761E16F0FF06ADD1032612
:1041600067E7FFE7A5F26C75A8F101000497CDE9B8
:10417000050501A8FCF715FCCBF80000012080E73D
:104180002EE040F69800844201D2641CA4B264215F
:1041900011200BF079FA50B12CE0641CA4B2204637
:1041A0000DF04EF951460DF093F9FFF735FE012160
:1041B00011200BF069FA0028EFD01BE016E0641E16
:1041C000A4B220460DF03CF951460DF081F9FFF7FD
:1041D00023FE012141200BF057FA0028EFD009E01F
:1041E00040F29E70844205D2643402E0DC2C01D996
:1041F000143CA4B220460DF023F951460DF068F9A5
:10420000FFF70AFEA9F80440FFF744FC11E700009D
:10421000C86A00200AD7233C253034752D2530325A
:10422000752D253032750000A4C701082DE9F04F27
:104230006E4F884691B08346BC88012501A940464F
:10424000FCF766FC6A4E4FF0180A4FF03C090198E3
:10425000DDE90232009067A10CA8FCF7B9F80CA9BF
:10426000584600F0A9FE012D04D0022D06D0032DE2
:1042700009D118E0634A0221584602E00BF106001A
:1042800013E000F097FE08F0E5F8112868D01DDC77
:10429000082851D00DDC01285BD00428D7D100209C
:1042A00011B0BDE8F08F0BF10C0080B2554A02212D
:1042B000E7E7092871D01028C9D1012D18D0022DA7
:1042C00019D0032DC3D10198401C1FE0202839D0FC
:1042D00021287BD0402811D04128B8D1C82C01D941
:1042E000641EA4B2642141200BF0CEF980B371E0CA
:1042F0000398401C12E00298401C17E0012D0BD0DF
:10430000022D11D0032DA2D101983B30B0FBF9F260
:1043100009FB120001909AE703981730B0FBFAF2FC
:104320000AFB1200039092E702983B30B0FBF9F2CF
:1043300009FB120002908AE76D1CEDB2032D86D9AD
:10434000012584E76D1E15F0FF0580D103257EE76A
:104350002EE001A8FCF725FBC8F8000001209FE72C
:1043600040F69800844201D2641CA4B2642111205A
:104370000BF08AF950B12DE0641CA4B220460DF078
:104380005FF831460DF0A4F8FFF746FD012111203A
:104390000BF07AF90028EFD01CE011E0641EA4B203
:1043A00020460DF04DF831460DF092F8FFF734FD40
:1043B000012141200BF068F90028EFD00AE005E068
:1043C00040F29E70844205D2643402E0DC2C01D9B4
:1043D000143CA4B220460DF033F831460DF078F8C5
:1043E000FFF71AFDBC80FFF755FB30E7C86A0020D5
:1043F0000AD7233C253032753A253032753A2530BC
:1044000032750000A4C7010838B50C460988009130
:10441000694600F007F8002802D0009820800120AB
:1044200038BD00002DE9F74F90B000251198904657
:1044300012F0FF070168724884884FEA1220814613
:1044400001D0A9F10100C6B26E48A6EB070A50F8E8
:104450002600B1FBF0F200FB121B58460CF0F0FFF7
:104460006849283151F827100CF0F0FE0CF04EFE90
:10447000CDE9000108F0FF034A4663A10AA8FBF753
:10448000A7FF0AA9109800F097FD1098AA4500EB25
:10449000450000DC801C80B25D4A012100F08AFDED
:1044A000681C0090864206D35648711B00EB8100C1
:1044B00050F8040C00E00120019007F0CBFF112818
:1044C00057D01CDC082843D007DC01284CD0042836
:1044D000C3D1002013B0BDE8F08F092879D010288F
:1044E000BBD101990A20BBFBF1F1B1FBF0F200FB5B
:1044F0001210092815D001990BEB010020E02028AB
:104500002AD021286BD040280ED04128A5D1C82C14
:1045100001D9641EA4B2642141200BF0B5F8A0B308
:1045200061E0019840420EE001990A20BBFBF1F1E5
:10453000B1FBF0F200FB121020B10199ABEB0100CE
:1045400083468AE7019800EBC00101EB0B00F7E717
:104550000098B0FBF6F103E0A819401E90FBF6F1BD
:1045600006FB1100C5B278E711990120C1F800B02F
:10457000B0E740F69800844201D2641CA4B26421E2
:1045800011200BF081F858B12DE01AE0641CA4B2A0
:1045900020460CF055FF1F490CF09AFFFFF73CFC3A
:1045A000012111200BF070F80028EFD01BE0641EF1
:1045B000A4B220460CF044FF16490CF089FFFFF727
:1045C0002BFC012141200BF05FF80028EFD00AE01E
:1045D000FFE740F29E70844205D2643402E0DC2C96
:1045E00001D9143CA4B220460CF02AFF09490CF072
:1045F0006FFFFFF711FC02488480FFF74BFA2CE7AE
:10460000C86A0020ECCC010825302A2E2A6600005A
:10461000A4C701080AD7233C2DE9F35F0A8889461D
:104620004FF03C0BB2FBFBF16423B1FBF3F4DFF87A
:10463000FCA103FB14160BFB1125BAF804404FF044
:1046400000080127C6EB061005EB8001009804F076
:104650002FFD012F06D0022F08D0032F18D0042FD2
:1046600009D118E0724A0121009802E00098801CEC
:1046700013E000F09FFC07F0EDFE11287FD015DC61
:10468000082861D00DDC01286CD004285BD172E0D1
:104690000098801D01E00098083080B2644A012132
:1046A000E7E7092877D010284DD108E0202851D01D
:1046B000212871D0402813D0412844D17EE0012F19
:1046C00006D0022F06D0032F06D0042F3BD105E0E1
:1046D0000A360FE0711C15E00A3521E0691C26E05E
:1046E000012F06D0022F0BD0032F18D0042F2AD170
:1046F0001BE05A366420B6FBF0F100FB1166A1E71F
:1047000006F109010A20B1FBF0F200FB1211B6FB21
:10471000F0F000EB800001EB4000C6B292E73235CA
:10472000B5FBFBF10BFB11558CE705F109010A20E4
:10473000B1FBF0F200FB1211B5FBF0F000EB8000D2
:1047400001EB4000C5B26AE07F1CFFB2042F66D9BE
:10475000012764E07F1E17F0FF0760D104275EE0A9
:104760000DE0FFE7C6EB061005EB8001A9F800108D
:104770004FF0010856E04FF0000847464FE040F682
:104780009800844201D2641CA4B2642111200AF072
:104790007BFF60B137E02CE031E0641CA4B220461E
:1047A0000CF04EFE23490CF093FEFFF735FB012180
:1047B00011200AF069FF0028EFD024E0C82C01D9AD
:1047C000641EA4B2642141200AF05EFF50B11AE0D9
:1047D000641EA4B220460CF033FE16490CF078FE9D
:1047E000FFF71AFB012141200AF04EFF0028EFD00D
:1047F00009E040F29E70844205D2643402E0DC2C71
:1048000001D9143CA4B220460CF01AFE09490CF060
:104810005FFEFFF701FBAAF80440FFF73BF9002F0A
:104820007FF46DAF4046BDE8FC9F0000C86A0020E1
:10483000A4C701080AD7233C70B514460D460646A6
:1048400007F002F9E2B229463046FFF753FB04466F
:1048500007F002F9204670BD70B514460D460646B5
:1048600007F0F2F8E2B229463046FFF771FB044642
:1048700007F0F2F8204670BD70B50BA0FDF76CFA9A
:104880000C4D0024102255F824000B49FDF786FA40
:1048900055F8240040221021FDF7D4F9641CE4B23D
:1048A000052CEFD370BD00005C53414D504C455278
:1048B0000000000010CA01084E01002010B5144687
:1048C000064A01EB8101C90052F820002423224648
:1048D00002F0F0FF002800D1206010BD10CA0108CE
:1048E00070B50D460446164664210A48FBF7F5FFED
:1048F000242231460748FBF779FF05EB8500C1000C
:1049000005482823034A50F82400BDE8704002F00F
:10491000D3BF00002866002010CA010870B58CB013
:104920000D460446302226496846FBF7A4FF254978
:104930002846FCF7EDF8234822492C30C368CA68A2
:1049400093423BD04B6903F26C7343610969491C84
:10495000C0E9032161696422481E90FBF2F3C51788
:1049600000EB9575C3EBA503950090FBF5F633447A
:104970008E070ED191FBF2F602FB161222B991FBC3
:10498000F5F205FB121121B92169022901DD01218E
:1049900000E0002122696D4605EB8202E56852F8CD
:1049A000042C2A4440F26D1500FB053010440844E5
:1049B000072190FBF1F201FB1200A0610CB070BD69
:1049C0003CCD01083C69002070B5154C154E2046C1
:1049D00094F8251090F82850C08C012915D0022990
:1049E00009D003291BD10CF02BFD31460CF070FDD2
:1049F00029460BF075FC608D0CF022FD31460CF061
:104A000067FDBDE870400BF07FBC0CF019FD31462E
:104A10000CF05EFD2946BDE870400BF061BC70BD36
:104A2000C86A0020CDCCCC3D1148816941F001011C
:104A300081611049202048610F48016821F400512C
:104A40000160001F016821F45C4101600A49091DF1
:104A50000A680A60091D0A6842F400520A60064AA0
:104A6000411410321160016841F400510160704737
:104A700000100240000001400404014008B500207D
:104A8000009001F0AFF808A140F6162000F094FA6B
:104A90004FF4C062694641F21620FFF7C3FC0028BC
:104AA00000D0009808BD0000CAE4C8EBC3DCC2EB2C
:104AB0003A00000010B50DA140F60F0000F07CFA9E
:104AC0000EA140F60F4000F077FA10A141F20F005E
:104AD00000F072FA11A141F20F4000F06DFABDE84A
:104AE000104012A141F60F0000F066BAB0FCC0A859
:104AF000CAB1BCE4C9E8D6C300000000CEACBBA478
:104B0000C3DCC2EBB5C4D0DEB8C40000D2D4BCB0A4
:104B1000D2BABEA7C6C1C4BBB5C40000CFD4CABEFA
:104B2000B6D4B1C8B6C820C1C1B6C800BACDC1C1DB
:104B3000C6C1CAB1B3A400002DE9F041012407F0B9
:104B400047F84FF431664FF4C0681A4D41F214270C
:104B500001F048F8184800F057FA184A214616485C
:104B600000F07EFA0446012807D0022C08D0032C5E
:104B70001CD0002CECD1BDE8F0810AF079F9E7E710
:104B800001F030F80EA1304600F016FA42462946F0
:104B90003846FFF747FC0028DAD000210CA000F0CF
:104BA00091FF07F015F8FEF775FFD1E70AF09EF8C0
:104BB000CEE70000FC6A002070D20108B54A000868
:104BC000C7EBCAE4C8EBD0C2C3DCC2EB3A000000BA
:104BD000C3DCC2EBD0DEB8C4B3C9B9A62100000063
:104BE0002DE9F04F074669488BB069498488002554
:104BF000DFF8A0A105A82E46EB4601EB47080A9076
:104C0000B8F822102BF815100BEB45006D1CB8F806
:104C10001810EDB281820A2D02D026B10A2103E0DC
:104C200000250126FAE72946684606F0D1FE2AF853
:104C300017000EB10A2100E029460A9806F0C8FEC6
:104C40000AEB4709A9F814000EB10A2100E0294631
:104C5000684606F0BDFE2AF817000EB10A2100E0F2
:104C600029460A9806F0B4FEA9F814004AA140F6B5
:104C70000F7000F0A1F9384607F084FD014640F2BC
:104C8000026900234A4641F20E5003F0A1FF44A1FD
:104C900040F61C7000F090F9384607F0D9FC014648
:104CA00000234A4641F21B5003F092FF282007F0F0
:104CB00089FD0028A4D007F0CDFB11281FD00BDC04
:104CC000012817D0042815D0092899D140F29E70E8
:104CD00084424DD264344AE0212845D041288FD106
:104CE000C82C01D9641EA4B2642141200AF0CCFC76
:104CF00080B33DE0FEF758F90BB0BDE8F08F40F609
:104D00009800844201D2641CA4B2642111200AF0EC
:104D1000BBFC58B12CE0641CA4B220460CF090FB04
:104D200049460CF0D5FBFFF777F801E0DFF8789003
:104D3000012111200AF0A8FC0028ECD018E0641E24
:104D4000A4B220460CF07CFB49460CF0C1FBFFF7F7
:104D500063F802E0FFE7DFF85090012141200AF0FC
:104D600093FC0028EBD003E0DC2C01D9143CA4B266
:104D700020460CF065FB0C490CF0AAFBFFF74CF841
:104D800002488480FEF786FE3AE70000C86A0020E9
:104D9000EA660020546A0020C1F7C1BF3A00000053
:104DA000BCC6D1B93A0000000AD7233C0449FF2011
:104DB00008600348143801686FF309010160704707
:104DC000140401401348816941F0010181611248D6
:104DD000012181600021C160104801686FF3090161
:104DE0000160001F016821F4407101600B49091D39
:104DF0000A6842F0FF020A60091D0A6842F0FF02D9
:104E00000A60064AFF2110321160016841F0FD017D
:104E1000016070470010024000000140040401409E
:104E200010B5FFF7C3FF0348C068BDE810400AF0A3
:104E30009BBB00000800002010B5002108480AF0C4
:104E40007BFB084C0021E0600548001D0AF074FB64
:104E5000A06003480021BDE8104008300AF0AEBB56
:104E6000AC190108080000200F48816941F00401D5
:104E70008161816941F0080181610C49FC20086071
:104E80000B4903200860094810380168094AC9B273
:104E90001143016006481038016821F00F0141F00C
:104EA0000801016070470000001002401008014036
:104EB000100C014000888888064800680649C0F345
:104EC0008500096801F0010140EA81117F208843D3
:104ED0007047000008080140080C01402DE9F0412E
:104EE000274805682748854200DD05462648008991
:104EF00005F084FA254C0146E068A061804628460A
:104F00000CF06CFC05462249E0600CF0E1FA074623
:104F10002061204928460CF0DBFA61680CF022F988
:104F200006466060414628460CF058FC1A490CF0D1
:104F3000CFFA05466061314638460CF013F9294630
:104F40000CF010F915490CF0C3FA05461449A06895
:104F50000CF0BEFA29460CF005F91249A06088420F
:104F600002DC1149884200DAA1601049A0680CF007
:104F7000AFFA0CF02DFABDE8F04180B200F02ABE85
:104F80002C0000200000B041DC66002090000020D2
:104F90004260E53B8FC2753CA69B443B6666663F1C
:104FA000CDCCCC3D83C02A3F0AD7A33C0000D846D5
:104FB00004F0CABA02F0CEBE02F0C6BF08498A6940
:104FC00042F010028A6108B1891501E04FF080714A
:104FD00004480161416821F00F01C91C416070471C
:104FE000001002400010014070B50C4600EBC406F2
:104FF00005467068FBF784FBC1B235F8340072686F
:10500000BDE87040FFF7D6BF70B501880546080AB5
:10501000CEB201D07043C6B2696819B14FF4817045
:10502000FFF7CAFF4FF424740C4A40F202512046A5
:1050300005F019F9094A40F21451204605F013F918
:10504000012408E005EBC400416835F83400FFF79F
:10505000B3FF641CE4B2B442F4D970BD64C5010866
:1050600000F03AB930B41C461346224630BC00F07A
:1050700005BA30B41C461346224630BC00F0E8BAEC
:1050800030B41C461346224630BC00F001B8000084
:105090002DE9FF5F06460C46854831889046858895
:1050A0004FF0000B080ACFB232D0784300F0FF0A6D
:1050B0000CB1544500D9012406EBC409D9F8040009
:1050C000FBF71EFBC1B236F83400D9F80420FFF715
:1050D00071FF00BF5FEA080000D08047322007F070
:1050E00071FB0028F6D036F83400D9F80410FFF729
:1050F00063FF07F0AFF9102847D00BDC0A28DBD29A
:10510000DFE800F005575B05D005A9052292D3E73B
:10511000BA46CDE7212872D008DC11284FD02028CC
:10512000CAD1039850EA0B003CD032E0402823D08B
:105130004128C1D1C82D01D96D1EADB264214120D5
:105140000AF0A2FAA0B379E0039850EA0B0017D056
:1051500003E000BFA4EB0A000CE0B4FBF7F007FB90
:10516000104008B9E01BC4B2641CE4B2A4E7E01B21
:1051700000E0E019C4B29FE7039830EA0B00ECD1DD
:10518000E019C4B2544597D9E4E7039830EA0B001C
:1051900008D0641EE4B2B4FBF7F007FB104000280F
:1051A0008AD1E6E7BC42E2D804EB0A00C4B2DEE7EB
:1051B00031E0204604B0BDE8F09FFF20FAE740F65A
:1051C0009800854201D26D1CADB2642111200AF015
:1051D0005BFA58B132E06D1CADB228460CF030F9E4
:1051E00049460CF075F9FEF717FE01E0DFF8C490B0
:1051F000012111200AF048FA0028ECD01EE019E045
:105200006D1EADB228460CF01BF949460CF060F952
:10521000FEF702FE01E0DFF89C90012141200AF038
:1052200033FA0028ECD009E040F29E70854205D2A6
:10523000643502E0DC2D01D9143DADB228460CF0F6
:10524000FFF81C490CF044F9FEF7E6FD184885808C
:10525000FEF720FC30E7C82106200AF015FA0028E6
:1052600084D106F0C4FB642006F006FD06F0BFFB07
:1052700006F0AEFC10A14FF4C160FFF79DFEFEF7F3
:1052800039FB0B494FF4E062383140F60C40FFF730
:10529000C9F838B104210CA000F014FC062803D092
:1052A000FEF728FB002085E7FEF7F4FBFAE7000095
:1052B000C86A00200AD7233CC7EBCAE4C8EBB3F6A0
:1052C000B3A7B1E0BAC53A00CAC7B7F1B1A3B4E613
:1052D000B1E0BAC53F0000002DE9F05F0C46DFF8F1
:1052E00094B101880646BBF804509046080ACFB234
:1052F00032D0784300F0FF0A0CB1544500D90124A4
:1053000006EBC409D9F80400FBF7FAF9C1B236F884
:105310003400D9F80420FFF74DFE00BF5FEA080013
:1053200000D08047322007F04DFA0028F6D036F83A
:105330003400D9F80410FFF73FFE07F08BF810286F
:105340003DD00BDC0A28DBD2DFE800F00540450544
:1053500043050505277DD3E7BA46CDE7212878D058
:105360000DDC112839D02028CAD1641EE4B2B4FB68
:10537000F7F007FB10400028C2D1E0191DE04028DB
:1053800015D04128BCD1C82D01D96D1EADB2642104
:1053900041200AF079F9B8B35FE0B4FBF7F007FBFE
:1053A000104008B9E01BC4B2641CE4B2A8E7E019DD
:1053B000C4B25445A4D9A4EB0A00C4B2A0E7BC42CD
:1053C00002D804EB0A00C4B2E01BF6E72046BDE8B1
:1053D000F09F0020FBE7FF20F9E740F698008542A8
:1053E00001D26D1CADB2642111200AF04DF960B1FB
:1053F00033E06D1CADB228460CF022F849460CF0A3
:1054000067F8FEF709FD02E013E0DFF86C90012178
:1054100011200AF039F90028EBD01EE06D1EADB264
:1054200028460CF00DF849460CF052F8FEF7F4FC53
:1054300001E0DFF84490012141200AF025F900281D
:10544000ECD00AE005E040F29E70854205D264355A
:1054500002E0DC2D01D9143DADB228460BF0F0FF7F
:1054600005490CF035F8FEF7D7FCABF80450FEF711
:1054700011FB45E7C86A00200AD7233C2DE9FF5FEE
:1054800006460C4670483188904685884FF0000BE0
:10549000080ACFB232D0784300F0FF0A0CB154456D
:1054A00000D9012406EBC409D9F80400FBF728F958
:1054B000C1B236F83400D9F80420FFF77BFD00BFF5
:1054C0005FEA080000D08047322007F07BF900280F
:1054D000F6D036F83400D9F80410FFF76DFD06F069
:1054E000B9FF102847D00BDC0A28DBD2DFE800F038
:1054F00005575D055B0505052294D3E7BA46CDE760
:10550000212874D008DC112851D02028CAD1039852
:1055100050EA0B003CD032E0402823D04128C1D1D2
:10552000C82D01D96D1EADB2642141200AF0ACF83E
:10553000A0B37BE0039850EA0B0017D003E000BF54
:10554000A4EB0A000CE0B4FBF7F007FB104008B92D
:10555000E01BC4B2641CE4B2A4E7E01B00E0E01965
:10556000C4B29FE7039830EA0B00ECD1E019C4B253
:10557000544597D9E4E7039830EA0B0008D0641E3D
:10558000E4B2B4FBF7F007FB104000288AD1E6E74D
:10559000BC42E2D804EB0A00C4B2DEE733E02046A6
:1055A00004B0BDE8F09F0020FAE7FF20F8E740F6DE
:1055B0009800854201D26D1CADB2642111200AF021
:1055C00063F858B132E06D1CADB228460BF038FFDD
:1055D00049460BF07DFFFEF71FFC01E0DFF86C9001
:1055E000012111200AF050F80028ECD01EE019E04B
:1055F0006D1EADB228460BF023FF49460BF068FF45
:10560000FEF70AFC01E0DFF84490012141200AF096
:105610003BF80028ECD009E040F29E70854205D2AC
:10562000643502E0DC2D01D9143DADB228460BF003
:1056300007FF06490BF04CFFFEF7EEFB02488580A2
:10564000FEF728FA2EE70000C86A00200AD7233C9C
:105650002DE9FF5F064673480C4631888588080AA5
:10566000C9B2984691468A4630D000FB0AF0C0B2D3
:1056700000900CB1844200D9012406F0DFFF83467C
:1056800006EBC40703977868FBF73AF8C1B236F81F
:1056900034007A68FFF78EFC5FEA090000D080478B
:1056A00006F0CCFFA0EB0B00C7B2A8EB07025EA18F
:1056B00001A8FAF78DFE01A940F60970FFF77CFCFE
:1056C000474507D3012004B0BDE8F09F0846CDF858
:1056D00000A0CEE7322007F075F80028DCD0039850
:1056E000416836F83400FFF767FC06F0B3FE102877
:1056F0003ED009DC0A28C3D2DFE800F005424605A7
:1057000044050505267CBBE7212879D00EDC11284D
:105710003CD02028B4D1641EE4B2B4FBFAF10AFBF9
:1057200011400028ACD104EB0A001FE0402816D03D
:105730004128A5D1C82D01D96D1EADB264214120EB
:1057400009F0A2FFC8B35FE0B4FBFAF10AFB114015
:1057500010B9A4EB0A00C4B2641CE4B290E704EBF5
:105760000A00C4B2009884428AD9201AC4B287E7DA
:10577000544502D800982044C4B2A4EB0A00F5E7CF
:105780002046A0E700209EE7FF209CE740F6980017
:10579000854201D26D1CADB26421112009F074FF65
:1057A00060B131E06D1CADB228460BF049FE3946C0
:1057B0000BF08EFEFEF730FB01E012E01C4F0121E2
:1057C000112009F061FF0028ECD01DE06D1EADB284
:1057D00028460BF035FE39460BF07AFEFEF71CFB2F
:1057E00000E0134F0121412009F04EFF0028EDD0C9
:1057F0000AE005E040F29E70854205D2643502E081
:10580000DC2D01D9143DADB228460BF019FE084934
:105810000BF05EFEFEF700FB02488580FEF73AF9CA
:105820002EE70000C86A0020282532757329000081
:105830000AD7233C2DE9F04F04468DB0002001909B
:105840000546069003907A480A907A4805907A486F
:1058500000EB440080890BF0F3FD784901EB04195B
:10586000D9F800100BF034FEDFF8D4B14FF0000A85
:10587000099084B14BF824A00021204600F00EF9D5
:105880000121204600F0F8F8642006F0F5F909F04F
:1058900017FE0646B7E06B48059056460021304695
:1058A000CBF800A000F0FAF80121304600F0E4F84F
:1058B000642006F0E1F909F003FE0646624800782C
:1058C000012808D0A4E02046052C19D2DFE804F016
:1058D000041515151500204606F020FF804606F039
:1058E000D5FE074606F0C8FD03460022394640466D
:1058F000CDF800A0FCF750FE03E006F00FFF00E03B
:1059000000200146019F09980BF068FF0190D9F82B
:10591000040001990BF0DCFD0790D9F8080001990B
:105920000BF0D6FD29460BF01DFC054647484FF00D
:105930007E58854201D9054602E0454500DD4546D1
:10594000394601980BF04AFFD9F80C100BF0C0FD56
:105950003F490BF0BDFD07463E4906980BF0B8FDE8
:1059600039460BF0FFFB0690404605990BF036FFD9
:105970000746294607980BF0F5FB06990BF0F2FB5A
:1059800039460BF0A5FD0746059903980BF0A0FDDD
:1059900039460BF0E7FB03900A990BF0E3FB10F19B
:1059A000FF4F01D3002002E0404500DD40464BF8A8
:1059B000240029490BF08CFD0BF00AFD81B2204632
:1059C00000F06CF825484FF47A714FF47A72008831
:1059D000484323490988514300EB114809F070FD01
:1059E00000EB08018A1B521EB2FBF8F1B1F5967F5D
:1059F00002D2C1F5967701E006461E27B8B206F03E
:105A00003BF907FB08661048005D01283FF45BAFD7
:105A100055464BF824A00021204600F03FF8002115
:105A2000204600F029F8084805550DB0BDE8F08F74
:105A30003333B33ECDCC4C3FC86A002074CA010852
:105A4000986700206666663F44010020000080BF22
:105A5000FA7EAA3E83C02A3F0000D846C8C7010884
:105A6000CAC7010810B5C0B2FFF7E4FE09F0CAFDCD
:105A7000BDE8104009F0D2BD0A4608B506496B469C
:105A800031F810008DF80020401C81B20122104630
:105A900006F00CFB08BD000024CA01080A4608B540
:105AA00007496B4631F8100049F641410844ADF80A
:105AB000002081B20122104606F0F8FA08BD00006D
:105AC00024CA01082DE9F0410D46040006D006F075
:105AD0007FF8214640F20670FFF76EFA264805F07F
