:020000040800F2
:10000000D87100203D03000845030008470300089D
:10001000490300084B0300084D03000800000000DE
:100020000000000000000000000000007502000851
:100030005103000800000000ED0200082903000839
:10004000570300085703000857030008B975000854
:1000500057030008570300082540000845400008E2
:100060004D400008554000085D4000085703000857
:1000700057030008570300085703000857030008F8
:1000800057030008570300085703000857030008E8
:10009000570300085703000857030008654000088D
:1000A00057030008570300085703000857030008C8
:1000B0005703000857030008D593000857030008AA
:1000C00057030008570300085703000857030008A8
:1000D000570300085703000857030008CD95000890
:1000E0002D400008570300085703000800F002F8ED
:1000F00000F07AF80AA090E8000C82448344AAF148
:100100000107DA4501D100F06FF8AFF2090EBAE845
:100110000F0013F0010F18BFFB1A43F0010318473B
:10012000E0E0010000E101000A444FF0000C10F88B
:10013000013B13F0070408BF10F8014B1D1108BF65
:1001400010F8015B641E05D010F8016B641E01F805
:10015000016BF9D113F0080F1EBF10F8014BAD1C55
:100160000C1B09D16D1E58BF01F801CBFAD505E073
:1001700014F8016B01F8016B6D1EF9D59142D6D3CD
:10018000704700000023002400250026103A28BFF5
:1001900078C1FBD8520728BF30C148BF0B607047F9
:1001A000662911F04E83642900F07881752900F0EA
:1001B0007581782900F0AE81732900F0A4870020B2
:1001C00070471FB500F0A3FF04000020002110F0CD
:1001D000FFFDE0601FBD10B510BD03B4FFF7FBFFCE
:1001E00003BC01F093F8000000F0CCF81146FFF7D3
:1001F000E8FF0FF07BF8044800210FF03DF90FF005
:1002000087F800F053FA00004000002080F30988CE
:100210007047EFF309807047684680F30988044807
:100220000078C00714BF0220032080F314887047B1
:10023000DCCC0108DFF818C0EFF305831B0618BFFC
:100240006047EFF31483DB0708BF604700DF7047A8
:1002500079F50008DFF818C0EFF305831B0618BF17
:100260006047EFF31483DB0708BF604700DF704788
:100270005DF70008EFF30980816911F8021CF1B9FC
:1002800090E80F10E047EFF3098C8CE80700144B5F
:1002900093E8060091420FD039B12CE9F00FC1F874
:1002A00024C00CB40FF08EFD0CBC1A60D2F824C030
:1002B000BCE8F00F8CF309886FF0020E704710B5A0
:1002C000084A1268914209D8074C54F8214090E836
:1002D0000F10A047EFF3098C8CE80F0010BD000051
:1002E00058030020101B0008101B00080FF006FC2C
:1002F0000C4B93E80600914210D0EFF3098C2CE9E7
:10030000F00FC1F824C00CB40FF05CFD0CBC1A60F7
:10031000D2F824C0BCE8F00F8CF309886FF0020E0D
:1003200070470000580300200FF012FEE0E70000C5
:100330000FF0F4F80FF00CFEDAE7000009488047F0
:1003400009480047FEE77047FEE7FEE7FEE7FEE7E5
:10035000FEE7FEE7FEE7FEE704480549054A064BCF
:1003600070470000B1920008ED000008D86B002033
:10037000D8710020D86D0020D86D0020004870474B
:10038000786B00207546FFF7F9FFAE460500694619
:10039000534620F00700854618B020B5FFF7DCFF74
:1003A000BDE820404FF000064FF000074FF0000876
:1003B0004FF0000B21F00701AC46ACE8C009ACE8F7
:1003C000C009ACE8C009ACE8C0098D467047000020
:1003D0000FB41CB5074B06AA7B44694600900598EC
:1003E00000F067FE0020694600F076FE1CBC5DF858
:1003F00014FB0000FD0C000070B504468569006820
:10040000C10601D5302600E02026C00708D070BD07
:10041000D4E9012130469047206A00F101002062B2
:100420006D1EF5D570BD70B5044685690078C007AE
:1004300008D170BDD4E9012120209047206A00F145
:10044000010020626D1EF5D570BD70B50C460546E5
:10045000012A05D02878800600D5EA69002302E049
:10046000012305E05B1C934202D2E05C0028F9D135
:10047000A869E618C01AA861286A184428622846A4
:10048000FFF7BAFF04E0D5E9012114F8010B90470A
:10049000B442F8D32846FFF7C6FF70BD2DE9F041FE
:1004A0000646002410687529314616A511D0AFF311
:1004B0000080002803DAC0F1000013A507E03168CE
:1004C0008A0701D511A502E0490704D510A501242A
:1004D00001E0AFF3008000210A2306F1240707E0C2
:1004E000B0FBF3F203FB1200303078541046491C85
:1004F0000028F5D123462A463046BDE8F04100F0F9
:1005000067BB0000000000002D0000002B00000071
:100510002000000070B504460D4621461068AFF378
:1005200000802188090502D5104A7A4402E00F4A6A
:100530007A440E32002104F1240307E000F00F0694
:100540004FEA1010965D5E5401F101010028F5D1CB
:1005500003462078000704D5702D02D009B111326E
:1005600002232046BDE8704000F032BBF6D4010003
:100570002DE9F05F894604464FF0000ADFF828B104
:10058000FB44C0F820A02046E168884700287CD0C2
:10059000252806D0D4E901219047206A401C20621A
:1005A000F1E700255F462046E16888472028064697
:1005B00008DB312E06D207EB060010F8200C08B13C
:1005C0000543F0E7A80701D525F00405C4F81CA0F1
:1005D0000027C4F818A02A2E09D0304609F037FFAA
:1005E00038B304EB8708303EC8F8186019E059F8B2
:1005F000041B204604EB87029161E1688847012FC4
:10060000064618D1E069002820DA25F020051DE013
:10061000D8F8180000EB800006EB40003038C8F82E
:1006200018002046E1688847064609F010FF0028B8
:10063000EED1012F0AD02E2E08D12046E16888473E
:100640007F1C0646022F45F02005C4DBA069002868
:1006500003DA404245F00105A061E80701D025F02A
:10066000100596B1A6F14100192802D8203645F4AC
:1006700000654A463146204625604D46FFF790FD0D
:1006800060B1012807D0ED1D00E009E025F007006A
:1006900000F1080977E705F1040974E7304679E7C6
:1006A000206ABDE8F09F0000C8D401000446AFF303
:1006B00000802046FFF791FD40EA0103024630B575
:1006C0009B0710D14FF0013400E008C208C91D1B80
:1006D0009D4315EAC41FF8D013F0FF0102F8011B77
:1006E0000DD01B0AF8E711F8013B002B02F8013B83
:1006F00005D011F8013B002B02F8013BF3D130BDCE
:1007000010B5431C02E010F8011B71B18107FAD14A
:100710004FF0013202C88C1A8C4314EAC211F9D08E
:10072000C01A0A0603D0C01E10BDC01A10BD0A04AC
:1007300001D0801E10BD0902FCD0401E10BD40EA51
:10074000010370B59B072ED14FF00136042A2AD33E
:1007500008C810C9121F9D1B9D4315EAC61517D066
:10076000D8B2E1B2401A50EA056110D198B2A1B2F4
:10077000401A50EA05410AD123F07F4024F07F411E
:10078000401A50EA052102D1180EA0EB146070BD8A
:10079000A342DBD018BA21BA884201D9012070BD2A
:1007A0004FF0FF3070BD0AB9002070BD10F8013B5A
:1007B00011F8014B63B1A3420AD1521E08D010F8C0
:1007C000013B11F8014B1BB1A34201D1521EEDD1E7
:1007D000181B70BD421E12F8013F002BFBD111F80F
:1007E000013B002B02F8013BF9D17047032A40F28C
:1007F000308010F0030C00F0158011F8013BBCF1C3
:10080000020F624498BF11F801CB00F8013B38BFDA
:1008100011F8013BA2F1040298BF00F801CB38BFE8
:1008200000F8013B11F0030300F02580083AC0F006
:10083000088051F8043B083A51F804CBA0E80810AE
:10084000F5E7121D5CBF51F8043B40F8043BAFF3E1
:100850000080D20724BF11F8013B11F801CB48BF3B
:1008600011F8012B24BF00F8013B00F801CB48BF71
:1008700000F8012B704710B5203AC0F00B80B1E8AA
:100880001850203AA0E81850B1E81850A0E81850C5
:10089000BFF4F5AF5FEA027C24BFB1E81850A0E8CE
:1008A000185044BF18C918C0BDE810405FEA827CE8
:1008B00024BF51F8043B40F8043B08BF7047D207FF
:1008C00028BF31F8023B48BF11F8012B28BF20F8A0
:1008D000023B48BF00F8012B70474FF0000204298B
:1008E000C0F0128010F0030C00F01B80CCF1040C5F
:1008F000BCF1020F18BF00F8012BA8BF20F8022B93
:10090000A1EB0C0100F00DB85FEAC17C24BF00F838
:10091000012B00F8012B48BF00F8012B70474FF066
:10092000000200B5134694469646203922BFA0E83F
:100930000C50A0E80C50B1F12001BFF4F7AF09074B
:1009400028BFA0E80C5048BF0CC05DF804EB89003C
:1009500028BF40F8042B08BF704748BF20F8022B7F
:1009600011F0804F18BF00F8012B704730B50368B5
:100970001C1404EB21459BB289B2194495FBF2F497
:1009800002FB145301EB034191FBF2F302FB131141
:1009900001E05B1E11440029FBDB016003EB044016
:1009A00030BD2DE9F04704464FF0FF3A86B00068AD
:1009B000029060680390A0680490E068019020694C
:1009C00000906569B5F1804F7EDCB5F1404F7BDB6F
:1009D0003C22002102A8FFF7C9FF3C22014603A8E0
:1009E000FFF7C4FF1822014604A8FFF7BFFF411E0E
:1009F00040F2B55201A8FFF7B9FF0C22064668463F
:100A00000021FFF7B3FF00EB860028443E4D00268F
:100A10007D440FE09A1A491CCDE90012022902D048
:100A20000C2907D104E0810704D0521C019201E097
:100A3000401C00960099019B6A5C9A42EADD0129FC
:100A400006D11C2B04D1810702D00221CDE900166A
:100A5000A0F146018B2940D20199009B00220F464C
:100A600002E0AE5C521C31449A42FADB012B02DDFB
:100A7000820700D0491E40F2B55540F26D16C217EC
:100A800000EB927292106A4300F0030505FB062208
:100A900085070A4400D1521E049D02EB4206DDF890
:100AA0000C80A94605EBC605184EC5EB0515DDF80B
:100AB00008C008EB850535442E14ADB2C6EB06160A
:100AC000C5EB0515B60000E007E00CEB850506EB6D
:100AD000154666F31F45360C03D0504606B0BDE8F8
:100AE000F0877F1CC4E90430521C072092FBF0F30E
:100AF00004F1180600FB1320A6E803042846C4E905
:100B00000297C4E900C8E9E749D00100A039CEFD49
:100B100070B50C46016800204A1C34D040F2B5552F
:100B20003C23B1FBF3F203FB12112160B2FBF3F1A2
:100B300003FB112218236260B1FBF3F203FB1211D5
:100B4000A16046F2E0310A440721B2FBF1F301FB58
:100B50001321B2FBF5F305FB1322A1619900B2F555
:100B6000B77F06D3521EAD10B2FBF5F3194405FB57
:100B700013220F4BE261616189077B440CD03B2A51
:100B80000AD3521C08E02C212046FFF7C8FE0120A2
:100B9000E0600AE0521A401C195C9142FAD9521CDA
:100BA000C4E903204FF0FF302062204670BD0000F2
:100BB000DFCE010070477047704710B500F0ACFA07
:100BC000006810BD10B5044600F0A6FA046010BD20
:100BD0002DE9F0470D4699469246044600F1240857
:100BE0000168880604D5E06921F01001216000E069
:100BF0000120A84202DDA0EB050700E00027A16963
:100C000007EB050202EB0900A1EB0000A0612078D0
:100C1000C00602D42046FFF7EFFB002608E0D4E927
:100C200001211AF806009047206A401C761C2062B9
:100C30004E45F4DB2078C0060AD52046FFF7DCFBE2
:100C400006E0D4E9012130209047206A401C206250
:100C5000381EA7F10107F4DC07E0D4E9012118F8F8
:100C600005009047206A401C2062281EA5F101055E
:100C7000F3DC2046FFF7D7FB2078000602D50220E0
:100C8000BDE8F0870120FBE770472DE9FF4F0C46D8
:100C90001E464FF0FF378BB0D2E90001DDF86080CF
:100CA0000A908A46C1F30A5505B93D460021084617
:100CB0004FF00000BAF1000F00F4400005DA00EB3D
:100CC00080004FF4400101EA50004FEA9059B9F119
:100CD000010F00DDB9460A9850EA4A000ED044F6EA
:100CE0001050A5F2FF3545432F14B8F1000F1ED068
:100CF0007542291E1EDDC9F100021CE0B8F1010F8A
:100D00004FF0000001D0302103E0F24305E0215410
:100D1000401CB042FBDB30460022002121540B99DD
:100D2000C1F80880C1E900200FB0BDE8F08FBD1BFD
:100D30006D1CDEE74A4600DA694206A800F074FA44
:100D400006AB07CB03AB07C350460A9900F025FB5F
:100D50008DE80700A0F500501F3800900398002D83
:100D600009DD42F21F014A46084403A90390684680
:100D700000F084FD08E0A0F500504A461F3803A9A2
:100D80000390684600F08EFD8DE807000004000C1B
:100D900003D04FF0FF30410800E01046B8F1000FDB
:100DA00003D00022009215461FE0751E06D400F005
:100DB000B5F902F1300262556D1EF8D5B346012235
:100DC000084302D000227F1C04E02078302801D1A3
:100DD00000227F1E002A099787D01DE0112D07DA17
:100DE00000F09CF9303262556D1C50EA0102F5D1D9
:100DF00008430FD10021681E05E0235C625C635448
:100E0000491C2254401E8142F7DBAB46A81B401E02
:100E1000099001E0009848B1002004F80B000B98FD
:100E2000099AC0F80880C0E9002B7DE711264FF031
:100E300000085AE72DE9F04F88460446D21D22F0FB
:100E4000070191B0D1E90001CDE90A0109F05DFA8D
:100E500002460B98C00F01D02D2007E020688107C3
:100E600001D52B2002E0202101EAC000032A0990CD
:100E700001D0072A05DB03464146204600F094F9DD
:100E80000FE12078800601D5E06900E00620B8F186
:100E9000650F814606D0B8F1660F18D0B8F1670F1C
:100EA00072D132E00020B9F1110F009001DB112363
:100EB00001E009F101030AAA01A90CA8FFF7E5FE68
:100EC000DDE90C70002609F10105834648E00120A8
:100ED0004B4600904FF000470AAA01A90CA8FFF763
:100EE000D4FEDDE90DB00C995D46002618B909F174
:100EF000010001EB0005B9EB050003D4C0F1FF369A
:100F000009F10105A5EB09002BE0B9F1010F01DAA8
:100F10004FF001090020B9F1110F0090484601DDA2
:100F2000112300E003460AAA01A90CA8FFF7ADFEB1
:100F3000DDE90C704D4600268346207800070AD470
:100F4000AB4500DA5D4601A8012D04DD411911F819
:100F5000011C302907D04F4502DA17F1040F04DADB
:100F60000120824610E06D1EEEE7002F02DCED1B33
:100F70003E4403E0781CA84200DD0546A7EB0600CE
:100F800000F1010A4FF000472078000703D4AA457A
:100F900001DB4FF0FF3A0021B7F1004F0DF143089C
:100FA0008DF8431023D002202B23002F01DA7F423B
:100FB0002D234FF00A0C011EA0F1010000DC4FB1FF
:100FC00097FBFCF10CFB11720F4602F1300208F89E
:100FD000012DF0E7A8F1010003702188090501D572
:100FE000452100E06521A0F1010800F8011C0998E5
:100FF0000FA9A1EB080707F1070700B1012000EBDB
:10100000050101EBEA70A1693844A1EB0000A0F1F1
:101010000100A0612078C00602D42046FFF7ECF959
:10102000099830B1D4E901219047206A00F101000C
:1010300020622078C00620D52046FFF7DDF91CE0AD
:10104000002E04DBB34502DD01A8805D00E0302006
:10105000D4E901219047206A761C401CBAF1010AAC
:1010600020620AD100F053F8C0680168405CD4E9FE
:1010700001219047206A401C2062281EA5F101052D
:10108000DEDC07E0D4E9012118F8010B9047206A63
:10109000401C2062381EA7F10107F3DC2046FFF751
:1010A000C2F9022011B040E601694A1C02610878C9
:1010B000704700B58FB0CDE9013100210591054998
:1010C0007944CDE9031011466846FFF751FA0FB095
:1010D00000BD0000E5FFFFFF0A6802F8010B0A608F
:1010E000704710B5436913B1AFF3008001E0FFF71B
:1010F000ACF9012010BD127800F124010A70002221
:101100004A700122EDE711684FF0FF32E9E710B5B0
:10111000FFF734F9203010BD09F00CB930B5B0F14B
:101120000A024FEA900E71F100034EEA817EB0EBA5
:101130000E0061EB91014FEA101E4EEA017E10EBAA
:101140000E0041EB11114FEA102E4EEA016E10EB2A
:101150000E0041EB11214FEA104E4EEA014E10EB0A
:101160000E0041EB1141401841F100014FEAD0005F
:1011700040EA41704FEAD10110EB80054FEA81044B
:1011800044EA907444EB01046D1944EB0404521BCF
:10119000A3414FF0000348BF0A3200D530BD401CC8
:1011A00041F1000130BD00002DE9F0411F46044629
:1011B00003260168072A01F4006004DB08B116A5C4
:1011C00005E016A503E008B115A500E015A521F07E
:1011D00010002060A069C01EA0610FB1401EA06178
:1011E0002046FFF709F94FB1D4E90121384690476D
:1011F000206A401C2062C01C206206E0206AFAE7D8
:10120000D4E9012115F8010B9047761EF8D220464B
:10121000FFF709F9BDE8F0814E414E006E616E00A6
:10122000494E4600696E66002DE9F0478146164634
:101230008AB035487844D0E9002380680092CDE92F
:101240000130314878440C38D0E902230069039218
:101250004FF03702CDE9043041F69B30014491FB59
:10126000F2F0A0F1800502FB10141B3C02D5644291
:10127000012000E00020DFF890A080460027FA441B
:10128000AAF1C60A0DE0E00709D03246684607EB2E
:1012900047010AEB810100F005FB8DE807006410AF
:1012A0007F1C002CEFD1184F7F44B43F17E0E807B4
:1012B00013D007EB04100DF1180A90E80E00AAE80D
:1012C0000E00C068F04201D198190890324606A974
:1012D00003A800F0E7FA03AB07C36D10641C002DF0
:1012E000E5D132466946B8F1000F03A802D000F0FC
:1012F000C5FA01E000F0D6FAC9E90001C9F80820F2
:101300000AB0BDE8F0870000B0C80100014918200C
:10131000ABBEFEE7260002004FF0013C50F8042B64
:1013200051F8043B9A4221D1A2EB0C03934313EAF8
:10133000CC1317D150F8042B51F8043B9A4215D125
:10134000A2EB0C03934313EACC130BD150F8042BFC
:1013500051F8043B9A4209D1A2EB0C03934313EAE0
:10136000CC13DBD04FF00000704700BFD01A01BA99
:10137000B1FA81F101F0180122FA01F0CB40C1F17C
:101380002001DBB2C0B2C01A2CFA01F3D11A91438A
:1013900011EAC311E6D1704770475FEA400C08BFFD
:1013A00091F0000F4FEA8C234FEAC12243EA5151DA
:1013B0004FEA1C5018BF00F5F0404FEA300018BF4C
:1013C00041F000415FEA6C5C00F02980BCF1FF3F16
:1013D00008BF40F080407047130C06BF12044FF066
:1013E000100C4FF0000C130E04BF12020CF1080C8D
:1013F000130F04BF12010CF1040C930F04BF9200F1
:101400000CF1020CD30F04BF52000CF1010C114679
:101410004FF00002A0F11F00A0EB0C00704711F08C
:10142000004F08BF704731F000413FF4D5AF0B0CBF
:1014300006BF09044FF0100C4FF0000C0B0E04BF58
:1014400009020CF1080C0B0F04BF09010CF1040C8C
:101450008B0F04BF89000CF1020CCB0F04BF4900B5
:101460000CF1010CCCF12003A0EB0C0022FA03F3E9
:1014700002FA0CF241EA030100F10100704720F08A
:101480007F4C80EA030023F07F47ACEB070303F5B2
:101490007C5300F0004003F1FF032DE980494FEA3F
:1014A000154B09B44FEA144325EA0B4E24EA0348CE
:1014B0000FF2042606EB132749083E785FEA320252
:1014C00003FB0667C7F5000707FB06F64FEA54372C
:1014D0004FEAD64606F1020607FB066CCCF1005C2B
:1014E0004FEA1C472CEA074C07FB06F40CFB06F5F9
:1014F00004EB15464FEA961634BF00204FF000402B
:101500004FEAD13706FB07FC4FEA1C4C0CFB0BF7EC
:10151000D21B03FB0CF761EB07010CFB0EF7B0EBE2
:10152000074072EB17420CFB08F734BFA2EB0742EF
:10153000B2EB074261EB17414FEA0C444FEA9107C7
:1015400006FB07FC4FEA1C4C0CFB0BF7B0EBC7404B
:1015500072EB573203FB0CF734BFA2EBC742B2EB7E
:10156000C74261EB57310CFB0EF7B0EBC70072EBD3
:1015700057720CFB08F734BFA2EBC702B2EBC702ED
:1015800061EB5771039F4FEA816141EA921104EBCD
:10159000CC044FEAD1374FEA826206FB07FC42EAED
:1015A00090124FEA80604FEA1C4C0CFB0BF7D21BE9
:1015B00003FB0CF761EB07010CFB0EF7B0EB0740E8
:1015C00072EB17420CFB08F734BFA2EB0742B2EBF9
:1015D000074261EB17414FEA8C554FEA910704EB44
:1015E0009C2406FB07FC4FEA1C4C0CFB0BF7B0EBF2
:1015F000C74072EB573203FB0CF734BFA2EBC74274
:10160000B2EBC74261EB57310CFB0EF7B0EBC700F2
:1016100072EB57720CFB08F734BFA2EBC702B2EBB8
:10162000C70261EB577115EB4C254FEA816141EA26
:1016300092114FEA82624FEAD13742EA901206FBDA
:1016400007FC44F100044FEA80604FEA1C4C0CFB9D
:101650000BF7D21B03FB0CF761EB07010CFB0EF73A
:10166000B0EB074072EB17420CFB08F734BFA2EB5C
:101670000742B2EB074261EB174115EB1C154FEA2D
:10168000813141EA92414FEA823242EA90424FEA86
:1016900080304FEA0C7644F1000448EA03434EEAF6
:1016A0000B484FF0000EB2EB080C71EB030724BFA0
:1016B000624639464EEB0E0E4FF0000B00185241B9
:1016C00049414BEB0B0BB2EB080C71EB03077BF1C1
:1016D000000B24BF624639464EEB0E0E4FF0000B56
:1016E0000018524149414BEB0B0BB2EB080C71EB6C
:1016F00003077BF1000B24BF624639464EEB0E0E0A
:1017000051EA020718BF46F0010616EB0E7655F1B6
:10171000000254F1000103D5BDE88901BDE800884D
:10172000BDE88901BDE80048B619524141EB01010D
:10173000A3F10103704780807F7E7D7C7B7A79787E
:10174000777676757473727171706F6E6E6D6C6C86
:101750006B6A6A6968686766666564646363626128
:101760006160605F5F5E5E5D5D5C5C5B5B5A5A59A9
:101770005958585757565655555554545353525215
:101780005251515050504F4F4F4E4E4D4D4D4C4C6D
:101790004C4B4B4B4A4A4A494949484848474747B6
:1017A00047464646454545444444444343434342F3
:1017B000424242414141002B26D4770021D01CB542
:1017C0004FEA370703B44FF010004FF010014FF00D
:1017D00000000FBCBDE810400BF1010BBBF1010F85
:1017E00008BF5FEA170722BF12F1010211F10101E0
:1017F0004FF0004143F1000300F0004043EA0000D5
:101800007047F9D35708DAE746EA064613F1400F66
:101810004FEA16461FDD13F1200FDFBF16430A46BD
:10182000002120335B42C8D0C3F1200746EA0646B8
:1018300002FA07F74FEA164646EA0706C3F1200701
:1018400022FA03F201FA07F721FA03F14FF000033D
:1018500042EA0702B1E746EA020646EA06464FEACE
:10186000164646EA0106BCBF46EA0646360C4FF06D
:1018700000034FF000024FF000019EE72DE9C04841
:10188000934630B491E8380007C831EA400C48BFAD
:1018900034EA430C03D5FFF7F2FDFFF78CFFF0BCF1
:1018A000BDE800882DE9C048934630B491E838007F
:1018B00007C810F0804F08BF13F0804F03D100F02D
:1018C00005F8FFF778FFF0BCBDE8008820F07F47FF
:1018D00080EA030023F07F4C07EB0C03A3F57C5355
:1018E00000F00040A3F1FE0392F0000F00F0B3807F
:1018F00095F0000F00F077802DE901494FEA114083
:101900004FEA144621EA004800FB06FC24EA064799
:1019100008FB06F607FB08F800FB07F718EB06487C
:101920004CEB164C4FEA124B18EB07484FEA1546A2
:101930004CEB174022EA0B4E0BFB06FC25EA064750
:101940000EFB06F607FB0EFE0BFB07F71EEB064E23
:101950004CEB164C4FF000061EEB074E4CEB174BB2
:1019600018EB0B0840F1000018EB0E0B58EB0008C9
:1019700040F100008F1A4FF000013CBFC943661BC5
:1019800014BFB5EB040C00213CBFC943F61B4FEA62
:1019900017444EEA8E0E27EA04454FEA1C4704FB23
:1019A00007622CEA074C05FB07F70CFB05F604FB66
:1019B0000CFC16EB074642EB174216EB0C4642EBCB
:1019C0001C421BEB060658EB0202414146EA9E060A
:1019D00001D5BDE80189B619524141EB0101A3F1DE
:1019E0000103BDE801894FEA14454FEA114724EA93
:1019F000054621EA074C05FB07F406FB07F70CFB3D
:101A000006F105FB0CFC11EB074144EB17444FEAD0
:101A1000124711EB0C4144EB1C4422EA074C05FB36
:101A200007F206FB07F70CFB06F605FB0CFC16EBB2
:101A3000074642EB174216EB0C4642EB1C456A1870
:101A400054F1000148BF7047B619524141EB010102
:101A5000A3F10103704795F0000F37D04FEA114210
:101A60004FEA144721EA024624EA074C02FB07F139
:101A700006FB07F70CFB06F402FB0CFC14EB074417
:101A800041EB17414FEA154714EB0C4441EB1C4165
:101A900025EA074C02FB07F506FB07F70CFB06F6E9
:101AA00002FB0CFC16EB074645EB174516EB0C4604
:101AB00045EB1C42121951F1000148BF7047B6199D
:101AC000524141EB0101A3F1010370474FEA144574
:101AD0004FEA114724EA054621EA074C05FB07F1C6
:101AE00006FB07F70CFB06F24FF0000605FB0CFCAB
:101AF00012EB074241EB174112EB0C4251EB1C4138
:101B000048BF7047921841EB0101A3F101037047F0
:101B10000000000006F01EBA10B50022074B114667
:101B200001EB810403EB440434F81040491CC9B2B2
:101B300022441029F4D3C2F30F1010BD82030020F9
:101B4000044890F83C00012801D0034800E0034815
:101B500008F0F2BAD86A0020B0A20108307D01086E
:101B6000264910B508684FF6FF021040244A40F499
:101B7000E06010430860062004F044F8072004F0F9
:101B800041F8082004F03EF8092004F03BF80A2050
:101B900004F038F8172004F035F8282004F032F863
:101BA0001E2004F02FF8272004F02CF807F0C2FBC9
:101BB000154A1448D16941F00201D1610021018028
:101BC000018540F65F13838501238382018446F2F9
:101BD000600303838383818601878187A0F8401097
:101BE000018841F001010180906940F0010090619D
:101BF0000648416841F44061416010BD0CED00E0D1
:101C00000000FA05000400400010024000000140FE
:101C100008B5024908440090008808BD006C0040E7
:101C200008B5024A10440090016008BD006C0040F5
:101C3000002007F01BBC00000148007807F016BC2C
:101C40002800002070B515460E46044609F050FEE7
:101C500021461648FEF730FD144800F077FA30466A
:101C600000F028F964211248FEF737FE00222946C9
:101C70000F4800F05FF90F4C6070012000F008FA87
:101C800064210A48FEF729FE64210948FEF725FE73
:101C900009F036FE6078142802D0172802D003E03D
:101CA000012070BD09F017FE002070BDE86800201B
:101CB000BC6700205601002010B5044609F018FE4C
:101CC00021460648FEF7F8FC044800F03FFA00F011
:101CD00043FA044609F014FE204610BDE8680020CF
:101CE0002DE9F0411C4615460E46074609F000FE58
:101CF00023462A463146384600F07CF8142804D0A2
:101D000009F0FEFD0020BDE8F08109F0F9FD012099
:101D1000F9E700002DE9F0411C4615460E4607463E
:101D200009F0E6FD23462A463146384600F092F88F
:101D3000084C607009F0E4FD6078142802D0172880
:101D400003D004E00120BDE8F08109F0C4FD0020CB
:101D5000F9E700005601002010B5044609F0C8FD5F
:101D600021460B48FEF7A8FC094800F011F9094983
:101D70004870012000F08CF964210548FEF7ADFDA4
:101D800064210548FEF7A9FDBDE8104009F0B8BD83
:101D9000E868002056010020BC67002070B5154699
:101DA0000E46044609F0A4FD21460F48FEF784FCC8
:101DB0000D4800F07AF90D4CA9B20022607030464F
:101DC00000F0B8F86070012000F062F960706421E2
:101DD0000548FEF782FD64210548FEF77EFDBDE85B
:101DE000704009F08DBD0000E86800205601002019
:101DF000BC6700202DE9F0411C4616460F460546FB
:101E000009F076FD29461048FEF756FC0E4800F012
:101E10009DF9384600F04EF8A1B20022304600F09D
:101E200062F80A4C6070012000F032F96421064823
:101E3000FEF753FD64210648FEF74FFD09F060FDF3
:101E40006078BDE8F0810000E868002056010020BD
:101E5000BC6700202DE9F0411C4617460E4605469A
:101E600009F046FD29461048FEF726FC0E4800F012
:101E70006DF9384600F01EF8A1B20C4A304600F069
:101E800059F80A4CA41E6070012000F001F9642189
:101E90000548FEF722FD64210548FEF71EFD09F006
:101EA0002FFD6078BDE8F081E8680020580100202F
:101EB000BC67002010B5044639200EF077FFE0B271
:101EC0000EF07FFFC4F307200EF07BFFC4F3074042
:101ED0000EF077FF200E0EF074FF0EF037FFBDE816
:101EE000104008F035B970B5064614460D463A2044
:101EF0000EF05CFFE8B20EF064FF280A0EF061FFFE
:101F00000EF024FF0CB1002011E008F021F91D288B
:101F10000FD1304600F052F905463B200EF046FF47
:101F20000EF014FF2E44002CEFD02088284420808F
:101F3000EBE770BD2DE9F041064614460D463C2006
:101F40000EF034FFE8B20EF03CFF280A0EF039FF25
:101F50000EF0FCFE0CB1002020800C4F08F0F8F8C9
:101F60001E2810D1304600F03CFA054638703D205E
:101F70000EF01CFF0EF0EAFE2E44002CEED020885E
:101F800028442080EAE7BDE8F081000055010020E8
:101F900010B5044600F0C4F920785C2801D02F2841
:101FA00003D10021642000F032FABDE81040402047
:101FB00000F096B910B504F09DFD08B100F0CFF81F
:101FC000BDE81040302000F08BB9312000F088B916
:101FD00010B505200AF0C5FB5A2000F081F904462F
:101FE00005200AF0BEFB204610BD00002DE9F74F8A
:101FF00082B0834604980E46C700080E4FF0000AD0
:10200000C1F30729C1F30748009056200EF0CEFE19
:10201000F0B20EF0D6FE48460EF0D3FE40460EF06B
:10202000D0FE00980EF0CDFE04980EF0CAFE0EF021
:102030008DFE3C4614E000BF08F08AF805461E28D5
:1020400001D07CB113E04021584600F0B4F957208C
:102050000EF0ACFE0EF07AFE641E0BF1400BA4B243
:10206000002CE9D108F074F8054614280ED0162D7E
:1020700009D0FFF7ADFF0AF1010000F0FF0ABAF145
:10208000030FC2D1284605B0BDE8F08F1420FAE74F
:102090000146362000F017B910B508B100F040F93C
:1020A000BDE81040342000F01BB970B5054600F0C3
:1020B00021F904000DD00146284600F021F84128FE
:1020C00007D0142803D0422800D1B32070BD43208C
:1020D00070BD2819BDE87040FFF7DEBF10B504469B
:1020E00000F01EF920785C2801D02F2803D10021B0
:1020F000642000F08CF9BDE81040322000F0F0B808
:1021000070B5054600200E46012401E0641CE4B2CF
:10211000295D5C2913D02F2911D00029F6D1002484
:102120002844FFF7DBFF002C08D0B44206D041283A
:102130000AD0142806D0422800D1B32070BD641CF8
:10214000E4B2EDE7432070BD2046E1E7FF21FFF751
:10215000D7BF2B2000F054B8682000F045B810B568
:1021600022200EF023FE0EF01AFE04460EF0EEFDC5
:10217000204610BD04480178012901D00020704795
:102180000021017001207047380000202DE9F04146
:102190000EF005FE06460EF002FE05460EF0FFFDAF
:1021A00004460EF0FCFD07460EF0D0FD46EA052081
:1021B00040EA044040EA0760BDE8F08170B505469A
:1021C00027200EF0F3FD0EF0EAFD0400264607D0AE
:1021D0000EF0E5FD641E05F8010B14F0FF04F7D1C5
:1021E0000EF0B4FD304670BD10B504460C200EF064
:1021F000DDFD20460EF0E5FDBDE81040FFF7C6BF4F
:1022000010B504460A200EF0D1FD20460EF0D9FD8F
:102210000EF0C5FD04460EF099FD204610BD10B528
:1022200004464A200EF0C2FDE0B20EF0CAFDC4F32F
:1022300007200EF0C6FDC4F307400EF0C2FD0020DB
:102240000EF0BFFD0EF082FDBDE8104007F080BF2C
:102250002DE9F04115000F46804601D0002028707E
:102260004C200EF0A3FD38460EF0ABFD0EF06EFDD7
:1022700007F06EFF0646142823D127200EF096FDA6
:102280000EF08DFD0EF08BFD04460EF088FD0EF075
:1022900086FD0EF084FDFFF779FF014684B12246EA
:1022A0004046FFF7A3FE064614280AD108EB44284F
:1022B00015B1287820442870381B10F0FF07CFD1C3
:1022C0003046BDE8F08110B50C460EF06FFD20469B
:1022D0000EF077FD0EF03AFDBDE8104007F038BF74
:1022E00010B50EF063FD0EF031FDBDE8104007F0B3
:1022F0002FBF0000014600E0491C0A78002AFBD1EC
:1023000006E000BF11F8012D5C2A03D02F2A01D06E
:102310008142F7D1814200D0491C081AC0B27047EF
:1023200070B5054601200EF041FD0EF038FD432842
:1023300028D22B20FFF764FF102823D22F200EF085
:1023400035FD00200EF03DFD3220FFF7C9FF1428B7
:1023500018D1CF20FFF754FF040013D04C20FFF713
:1023600043FF00EB04214C2000F051F85020FFF710
:102370003BFF00EB0421502000F049F800217020C1
:1023800000F045F82F200EF011FD2C7806E000BF7C
:1023900015F8014F5C2C0AD02F2C08D020460EF0E7
:1023A00010FD002CF4D1BDE870400EF0CFBC002031
:1023B0000EF007FDF7E770B505460C462C200EF031
:1023C000F5FC20460EF0FDFC3CB128780EF0F9FC3F
:1023D0006D1C641E14F0FF04F7D1BDE870400EF0D0
:1023E000B5BC70B505462D200EF0E0FC0EF0D7FC14
:1023F0000400264607D028780EF0E3FC6D1C641E0E
:1024000014F0FF04F7D10EF0A1FC304670BD70B59A
:1024100005460C460D200EF0C9FC28460EF0D1FCF6
:10242000E0B20EF0CEFCC4F307200EF0CAFCC4F3F9
:1024300007400EF0C6FC200E0EF0C3FCBDE8704055
:102440000EF084BC012009F061BA10B502F022FB45
:1024500005F036FDBDE81040FFF7F4BF10B50446A7
:102460000121502009F0DEFAC8B1002009F072FA0B
:102470002070002009F06EFA6070002009F06AFAFE
:10248000A070012009F066FAE07009F005FB002158
:10249000502009F0C7FA09F0FFFA012010BD09F039
:1024A000FBFA002010BDF8B50D46064609F044FAC7
:1024B0006846FFF7D3FF040011D09DF801009DF896
:1024C000001000EB0120C0F30D0030809DF80300E8
:1024D0009DF8021000EB0120C0F38D00288009F068
:1024E00033FA2046F8BD000030B50E480E4C0023EC
:1024F0000078042234F81010401CC0B20D460528A4
:1025000000D3002034F810104D1BADB2521E2B44E6
:1025100012F0FF02F0D1C3F38F004FF4FA71484379
:1025200030BD0000000000207803002010B50446F4
:1025300012490EF08BFF12490EF0D2FD21460EF02B
:1025400085FF10490EF0CCFD21460EF07FFF0E49AD
:102550000EF0C6FD21460EF079FF0C490EF0C0FDCD
:1025600021460EF073FF0A490EF0BAFD21460EF027
:102570006DFFBDE8104007490EF0B2BD92EBD72CBD
:10258000EEC70B310DBDA2343E5ADE37774BBB3A56
:1025900045B8353D145C1C3F2DE9F04706461A4FFF
:1025A0000898984691468A46002540B10AF01AF8E4
:1025B00004461649884504DA3046BDE8F0873C46B3
:1025C000F7E7134890F82C0018B15046FFF7AEFF1C
:1025D0000546494640460EF083FD29460FF0BCF8FB
:1025E00021460EF033FF0446394650460EF078FD82
:1025F00008490EF02BFF31460EF028FF2146BDE8BA
:10260000F0470EF0E1BD0000339388436F12833A28
:10261000D86A002066A6CA422DE9F0411F469046BE
:102620000C46064609F0DEFF05460F4920460EF02F
:1026300057FD0E490EF00AFF0446414638460EF09B
:102640004FFD29460EF002FF21460EF0BDFD31463A
:102650000EF0FCFE0649884202DA0020BDE8F08157
:10266000BDE8F0410EF030B83393884366A6CA4205
:102670006F12833A2DE9FF4F87B090460F461D46F3
:10268000182221496846FEF7F6F80026012440F298
:10269000013B40F2035941F60C0A00BF09F010FA61
:1026A000684602F0EFFC58F8251018A35A4640F28D
:1026B000191006F0FFF937F8151000234A46504666
:1026C00006F01EFA00222146684602F007FD044685
:1026D000012807D0022C0ED0002CDFD10BB03046E1
:1026E000BDE8F08F2B4642463946079800F010F8B7
:1026F00007E00126D2E707EB45014A46504601F0C4
:10270000B9FE0028CAD0F4E758D601084C2F6D0056
:102710002DE9FF4F8DB0002004908F481F460E46D4
:10272000848831F8175008880A90B1F802B0B1F8DF
:1027300004A0B1F806904FF0010852F8270087492D
:102740000EF084FE4FF07C510EF0CAFC0EF0FEFD40
:1027500081490D9A01EB42010691888101210D9872
:1027600004F0B6F909F0ACF97DA1002002F062FC9A
:10277000F580B580758035800D9809F047FF03908E
:102780007AA1002002F056FC002340F203522946B1
:10279000192006F0B5F978A14FF4406002F04AFC28
:1027A00077A340F2036240F60C40039906F082F9E9
:1027B00074A14FF4C05002F03DFC0D9804F07AF97A
:1027C000014641F60C0006F0CBF9642009F072FFD7
:1027D0000028D1D009F0B6FD112856D008DC012818
:1027E0001AD0042878D0092877D0102813D106E011
:1027F000212873D0402808D041280CD162E042F251
:102800000F70854205D26D1C02E0632D01D96D1E4B
:10281000ADB20120049089E0069864215B4A80896A
:10282000484303210590880202F002FC40F2036253
:1028300005A940F60C4001F02BFE00B301200490E6
:1028400005980EF0BBFD0290642D19D3039810F08B
:10285000FF4F17D028460EF0B1FD05460698808937
:102860000EF0ACFD29460EF0AFFC014602980EF0CA
:10287000ABFC47490EF0A8FC0EF068FD85B201E004
:102880004FF47A7509F01CF950E040F69800844244
:1028900001D2641CA4B2642111200CF053FE50B18B
:1028A00038E0641CA4B220460EF088FD39490EF0D1
:1028B000CDFD01F0BBFA012111200CF043FE0028F0
:1028C000EFD027E0C82C01D9641EA4B264214120B6
:1028D0000CF038FE68B11DE02CE011E016E0641E3B
:1028E000A4B220460EF06AFD2A490EF0AFFD01F0B9
:1028F0009DFA012141200CF025FE0028EFD009E0CF
:1029000040F29E70844205D2643402E0DC2C01D98E
:10291000143CA4B220460EF051FD1E490EF096FD67
:1029200001F084FA0C48848001F0B4F8B8F1000F8B
:102930007FF41EAF00210D9804F0CAF80A98308089
:10294000A6F802B0A6F804A0A6F8069026F817503C
:10295000049811B0BDE8F08FD86A00200000204133
:10296000B5F7CAD4C1F7C1BF00000000C1F7C1BFAD
:10297000B1B6C2CA3A000000C1F7C1BF3A000000B8
:102980004C2F6D00CAE4B3F63A000000B0CC010849
:102990000000C8420AD7233C2DE9F04F8FB0814692
:1029A0002022454902A8FDF766FF4449444801EB4F
:1029B000C906494600EB41000D9001243C36808950
:1029C0004FF0000A40F20355B9F1010F05D0B9F1FB
:1029D000020F02D040F2015B08E000EBC00101EB06
:1029E00000104FF6FF71AB4601EA8000ADF8000021
:1029F00040F60C0741F60C0809F062F802A802F054
:102A000041FB494640F2151006F098FA2DA35A46AC
:102A1000BDF80010384606F073F8318800232A46C6
:102A2000404606F06DF80022214602A802F056FB4F
:102A300004000FD0012C24D0022C33D0032CE5D17C
:102A40002A463146404601F015FD0028DED04FF001
:102A5000010ADBE7BAF1000F0AD023211AA003F024
:102A60006FF8062807D0072808D00124002CC3D10E
:102A70000FB0BDE8F08F00F097FAF9E700F02AFAFE
:102A8000F4E75A466946384601F0F4FC0028BDD008
:102A9000BDF800106420B1FBF0F10D98818100F0C9
:102AA000F9FFB3E73146484600F016F80028A3D0F6
:102AB0004FF0010AA0E7000038D60108646A002040
:102AC000D86A00204C2F6D00B1A3B4E6B1EAB6A8D5
:102AD000CAFDBEDD203F00002DE9FF5F80460020DB
:102AE00007460390B8480D4640F2035684880020FC
:102AF0008346019002905FEA080005D0012855D076
:102B0000B8F1020F04D151E040F2015BAFA0029096
:102B100008F0D6FF0121404603F0DAFFAA4901EB95
:102B2000480A404609F072FD8146B8F1000F3FD0D7
:102B30004E46A7A1002002F07DFA2988002340F22A
:102B40000352192005F0DCFFA4A14FF4406002F00D
:102B500071FA5A46494640F60C40029B05F0AAFF1E
:102B6000A0A14FF4C05002F065FA404603F0A2FF66
:102B7000014641F60C0005F0F3FF642009F09AFDD0
:102B80000028CED009F0DEFB112877D040DC0128E8
:102B900056D0042873D0092872D01028C1D12888B3
:102BA00042F20F71884249D2401C46E0B346ADE77D
:102BB00009F0DAFB064609F0E1FC01460020024676
:102BC000009033464846FFF7E7FC064680A1002008
:102BD00002F030FA2988002340F20352192005F050
:102BE0008FFF82A14FF4006002F024FA5A4631466A
:102BF00040F60C00029B05F05DFF78A14FF4805079
:102C000002F018FA5A46494641F20C00029BA5E729
:102C100021287DD040280CD0412882D1C82C01D950
:102C2000641EA4B2642141200CF08CFC002870D0FA
:102C3000B3E02888632801D9401E2880012770E767
:102C4000B8F1000F1DD0BAF80C00642148430321ED
:102C50000190684A880202F0EBF95A4601A940F651
:102C60000C4001F015FC0028E9D0012701980EF076
:102C7000A5FB81462888642838D234E051E09BE0E7
:102C800081E051485B4A0321808901904FF4006044
:102C900002F0CEF95A4601A940F60C0001F0F8FB0B
:102CA0000028CCD0012701980EF088FB81462888A7
:102CB000642818D316F0FF4F10D00EF07FFB0646A5
:102CC000414880890EF07AFB31460EF07DFA0146CC
:102CD00048460EF079FA0EF039FB2880404609F09C
:102CE00095FC814664E74FF47A7018E016F0FF4FC8
:102CF000A5D00EF063FB0646BAF80C000EF05EFBA2
:102D000031460EF061FA014648460EF05DFA01E0E8
:102D10003FE030E038490EF057FA0EF017FB2880FC
:102D2000FFE640F69800844201D2641CA4B26421FC
:102D300011200CF007FC58B12FE0641CA4B220460F
:102D40000EF03CFB31460EF081FB01F06FF800E025
:102D50002A4E012111200CF0F5FB0028EDD01CE0DB
:102D6000641EA4B220460EF029FB31460EF06EFB25
:102D700001F05CF800E0214E012141200CF0E2FB63
:102D80000028EDD009E040F29E70844205D2643400
:102D900002E0DC2C01D9143CA4B220460EF00EFB5C
:102DA00016490EF053FB01F041F80748848000F00B
:102DB00071FE03980028B3D00021404603F088FE3E
:102DC00004B03846BDE8F09FD86A00204C2F6D0053
:102DD000C1F7C1BFB1B6C2CA3A000000B1EABFF63E
:102DE0003A000000CAE4B3F63A000000B9A4BFF606
:102DF0003A000000B0CC01080000C8420AD7233CCA
:102E00002DE9F0472B49804601EB08002A4990F84C
:102E10002060012401EBC800002500F13C0A012ECE
:102E200016D0022E43D1254FDFF8949008F048FECB
:102E3000384602F027F900222146384602F04EF9C2
:102E40000446052831D2DFE800F006181E282C00C1
:102E50001A4F283FE8E7002D29D0232119A002F0BE
:102E60006FFE062805D0072821D1BDE8F04700F005
:102E700031B8BDE8F04700F097B809EB061200231F
:102E800004E00125D2E709EB061201235146404632
:102E9000FFF7F0FB0028C9D0F3E709EB0612022385
:102EA000F4E709EB06120323F0E7002CBED1BDE8DE
:102EB000F0870000D86A0020646A002098D60108D4
:102EC00050D50108B1A3B4E6B1EAB6A8CAFDBEDD8B
:102ED000203F000010B5062231494FF4807001F008
:102EE000E1FC2F4845F6A5214FF47A7482888A4286
:102EF00003D0E20002804480818072222949802030
:102F000001F0D0FC274845F6A422B0F87010914299
:102F100044D046F6B321A0F86410A0F86810A0F8D9
:102F20006C10A0F86640A0F86A40A0F86E4041819D
:102F30008181C18101824182048544858485C48563
:102F400004864FF40041018041808180C18001816D
:102F50008182C182018341838183C4830484448448
:102F60008484C48444868486C48604874487848792
:102F7000A0F84440A0F84C40A0F85440A0F85640B7
:102F8000A0F85840A0F85A40A0F85C40A0F85E4075
:102F9000A0F86040A0F86240A0F8702010BD0000CA
:102FA00024020020646A002010B5062205494FF46F
:102FB000807001F087FC7222BDE810400249802039
:102FC00001F080BC24020020646A00202DE9F04F4B
:102FD0000746744800258BB084882E4608F070FDA3
:102FE00040F20440052F0FD2DFE807F00305070980
:102FF0000B006DA106E071A104E075A102E079A1CA
:1030000000E07DA102F016F88049DFF804A205A8CF
:10301000EB4601EB47080A90B8F822102BF8151080
:103020000BEB45006D1CB8F81810EDB281820A2D2B
:1030300002D026B10A2103E000250126FAE729463D
:10304000684608F039FC2AF817000EB10A2100E0A2
:1030500029460A9808F030FC0AEB4709A9F8140041
:103060000EB10A2100E02946684608F025FC2AF83E
:1030700017000EB10A2100E029460A9808F01CFC4E
:10308000A9F8140063A140F6064001F0D3FF3846CA
:1030900009F0F0FA014640F2026900234A4641F283
:1030A000082005F007FD5DA140F6144001F0C2FFC5
:1030B000384609F045FA014600234A4641F21620F7
:1030C00005F0F8FC282009F0F5FA0028A4D009F052
:1030D00039F911281FD00BDC012817D0042815D08E
:1030E000092899D140F29E7084424DD264344AE05E
:1030F000212845D041288FD1C82C01D9641EA4B203
:10310000642141200CF01EFA80B33DE0FFF74CFF34
:103110000BB0BDE8F08F40F69800844201D2641CE9
:10312000A4B2642111200CF00DFA58B12CE0641CFB
:10313000A4B220460EF042F949460EF087F900F09D
:1031400075FE01E0DFF8DC90012111200CF0FAF9A6
:103150000028ECD018E0641EA4B220460EF02EF930
:1031600049460EF073F900F061FE02E0FFE7DFF878
:10317000B490012141200CF0E5F90028EBD003E0E8
:10318000DC2C01D9143CA4B220460EF017F92549D5
:103190000EF05CF900F04AFE0248848000F07AFCF0
:1031A0003AE70000D86A00203CB7DB20B3BE3E20DF
:1031B000D7D4B6AFB5F7C1E3000000003CC8D5BE18
:1031C000F9413E20D7D4B6AFB5F7C1E30000000007
:1031D0003CC8D5BEF9423E20D7D4B6AFB5F7C1E35F
:1031E000000000003CCAB1BEF9433E20D7D4B6AFC0
:1031F000B5F7C1E3000000003CCAB1BEF9443E206F
:10320000D7D4B6AFB5F7C1E300000000FA660020DE
:10321000646A0020C1F7C1BF3A000000BCC6D1B942
:103220003A0000000AD7233C10B5044602F018FD0E
:1032300040F60E00052C09D2DFE804F003050D0F5F
:10324000110008A100E00BA101F0F4FE2046BDE84A
:10325000104001F0FBBC0BA1F6E70EA1F4E711A1B1
:10326000F2E70000B7DB20B3BE20D7D4B6AFB5F786
:10327000C1E30000C8D5BEF94120D7D4B6AFB5F739
:10328000C1E30000C8D5BEF94220D7D4B6AFB5F728
:10329000C1E30000CAB1BEF94320D7D4B6AFB5F739
:1032A000C1E30000CAB1BEF94420D7D4B6AFB5F728
:1032B000C1E300002DE9F14F88B018227849684633
:1032C000FDF7D9FA774808990125848876484FF4A4
:1032D000A06800EB410606F114073236002041F2E7
:1032E0000C0940F2035A41F60C0B069001E00798D6
:1032F00058B108F0E5FB684601F0C4FE40F2151035
:10330000089905F01BFE00200790398800234246EB
:10331000484605F0F5FB318800235246584605F033
:10332000EFFB2946684601F09DFE60A14FF4006066
:1033300001F080FE089809F003F901465DA340F210
:10334000026240F60C0005F0B5FB192009F0B2F955
:103350000028EAD02946684601F084FE08F0F2FF12
:10336000112849D008DC012819D004282ED00928BA
:103370007CD0102817D10CE021287DD0402802D025
:10338000412810D155E06D1CEDB2032D0BD3012562
:1033900009E0012D00D803256D1EEDB203E0012DDB
:1033A00006D0022D08D0002DAFD109B0BDE8F08FB6
:1033B00042463946484602E052463146584601F0F8
:1033C00059F80028A1D0012006909EE70698002811
:1033D000EBD0232138A002F0B3FB062802D0072847
:1033E00006D102E0FFF7E0FDDFE7FFF7DDFD002596
:1033F000002D7FF47BAFD8E740F69800844201D2DD
:10340000641CA4B2642111200CF09CF850B137E088
:10341000641CA4B220460DF0D1FF2B490EF016F823
:1034200000F004FD012111200CF08CF80028EFD0F1
:1034300026E0C82C01D9641EA4B2642141200CF0FE
:1034400081F850B11CE0641EA4B220460DF0B6FF16
:103450001D490DF0FBFF00F0E9FC012141200CF0BB
:1034600071F80028EFD00BE000E005E040F29E701C
:10347000844205D2643402E0DC2C01D9143CA4B2AD
:1034800020460DF09BFF10490DF0E0FF00F0CEFC50
:103490000448848000F0FEFA002D7FF428AF84E712
:1034A00008D60108D86A0020646A0020BCC6D1B9D9
:1034B0003A0000006B506100B1A3B4E6B1EAB6A8CF
:1034C000CAFDBEDD203F00000AD7233C2DE9F14FA5
:1034D000774882B0012584887648029940F20267D5
:1034E00000EB410606F10A082836002041F20C0BD9
:1034F00040F2035941F60C0A009001E0019858B1DE
:1035000008F0DEFA6C4801F0BDFD40F2151002999A
:1035100005F014FD00200190B8F8001000233A4691
:10352000584605F0EDFA318800234A46504605F02A
:10353000E7FA2946604801F095FD60A14FF400606C
:1035400001F078FD029809F01BF801465DA33A46A8
:1035500040F60C0005F0AEFA192009F0ABF800288F
:10356000EBD02946544801F07DFD08F0EBFE112810
:1035700049D008DC012819D004282DD009287CD096
:10358000102817D10CE021287DD0402802D04128F6
:1035900010D155E06D1CEDB2032D0BD3012509E0D0
:1035A000012D00D803256D1EEDB203E0012D05D0DD
:1035B000022D07D0002DAFD1BDE8FE8F3A4641461F
:1035C000584602E04A463146504600F053FF002874
:1035D000A2D0012000909FE700980028ECD0232182
:1035E00039A002F0ADFA062802D0072807D103E07F
:1035F000BDE8FE4FFFF7D8BCFFF7D6FC0025002D35
:103600007FF47BAFD8E740F69800844201D2641C77
:10361000A4B2642111200BF095FF50B137E0641C77
:10362000A4B220460DF0CAFE2B490DF00FFF00F0AA
:10363000FDFB012111200BF085FF0028EFD026E0D3
:10364000C82C01D9641EA4B2642141200BF07AFF7A
:1036500050B11CE0641EA4B220460DF0AFFE1E491E
:103660000DF0F4FE00F0E2FB012141200BF06AFFB7
:103670000028EFD00BE000E005E040F29E708442AD
:1036800005D2643402E0DC2C01D9143CA4B22046FB
:103690000DF094FE10490DF0D9FE00F0C7FB044870
:1036A000848000F0F7F9002D7FF428AF84E7000054
:1036B000D86A0020646A0020F0D50108CEC2B6C8DE
:1036C0003A000000A1E60000B1A3B4E6B1EAB6A852
:1036D000CAFDBEDD203F00000AD7233C2DE9F14F93
:1036E00088B0182278496846FDF7C5F877480899E8
:1036F0000125848876484FF4A06800EB410700203C
:1037000007F11E0641F20C0940F2035A41F60C0B78
:10371000069001E0079858B108F0D2F9684601F028
:10372000B1FC40F21510089905F008FC0020079044
:10373000398800234246484605F0E2F931880023E3
:103740005246584605F0DCF92946684601F08AFCE5
:1037500060A14FF4006001F06DFC089808F08AFF4A
:1037600001465EA340F2036240F60C0005F0A2F9A8
:10377000192008F09FFF0028EAD02946684601F08A
:1037800071FC08F0DFFD112849D008DC012819D0B0
:1037900004282ED009287CD0102817D10CE021282D
:1037A0007DD0402802D0412810D155E06D1CEDB2EB
:1037B000032D0BD3012509E0012D00D803256D1E33
:1037C000EDB203E0012D06D0022D08D0002DAFD1BF
:1037D00009B0BDE8F08F42463946484602E05246FD
:1037E0003146584600F046FE0028A1D00120069040
:1037F0009EE706980028EBD0232139A002F0A0F91B
:10380000062802D0072806D102E0FFF7CDFBDFE74C
:10381000FFF7CAFB0025002D7FF47BAFD8E740F609
:103820009800844201D2641CA4B2642111200BF0E0
:1038300089FE50B137E0641CA4B220460DF0BEFDF5
:103840002B490DF003FE00F0F1FA012111200BF0DD
:1038500079FE0028EFD026E0C82C01D9641EA4B25E
:10386000642141200BF06EFE50B11CE0641EA4B236
:1038700020460DF0A3FD1E490DF0E8FD00F0D6FA3C
:10388000012141200BF05EFE0028EFD00BE000E0AC
:1038900005E040F29E70844205D2643402E0DC2CE4
:1038A00001D9143CA4B220460DF088FD10490DF05A
:1038B000CDFD00F0BBFA0548848000F0EBF8002D48
:1038C0007FF428AF84E7000020D60108D86A0020E2
:1038D000646A0020B2EED1B93A0000006B5061007A
:1038E000B1A3B4E6B1EAB6A8CAFDBEDD203F000030
:1038F0000AD7233C10B5402207494FF4C07000F0AE
:10390000D1FF0548C08FA0F5B4418B3903D0BDE885
:10391000104000F003B810BDD86A002030B50F4C3D
:10392000207830B1012807D0022808D003280BD115
:1039300008E000F08FF807E000F072F804E000F013
:1039400055F801E000F038F8E08F45F68B25A842E5
:1039500002D000F005F8E58730BD0000D86A0020ED
:1039600013484FF49671F0224185002180F8291008
:1039700080F82810C284012202728270C1704272E3
:1039800042F2957343814FF4FA638380322383714B
:103990000223C3714FF47A73C3850386642343867D
:1039A00080F82C100349416380F83C2070470000E8
:1039B000D86A0020D9AB09000B4803214FF47A7272
:1039C00000F8061C00218176C280C17602220281A5
:1039D0000177428101224277052383818277C38167
:1039E000C27780F827107047DE6A00200B48022259
:1039F000002300F8062C83764FF47A71C1800121F0
:103A0000C1760281017742814177052282818177E7
:103A1000C281C17780F8273070470000DE6A00203D
:103A20000B4801214FF47A7200F8061C8176C2809F
:103A30000022C27602230381027743814177052366
:103A400083818177C381C17780F827207047000088
:103A5000DE6A002010B50E480023012100F8063C64
:103A60004FF47A728176C28054100482C1760224A7
:103A700004814282017744818282417705248481D6
:103A8000C2828177C4810283C17780F8273010BD5C
:103A9000DE6A0020402202494FF4C07000F012BFDD
:103AA000D86A00202DE9F84FDFF8E8B0012500269C
:103AB0009BF82840BBF82600ADF8000040F2015703
:103AC00041F21448DFF8D09040F6164A07F0F8FFAC
:103AD00031481C3001F0D6FAC4EBC40149445046C9
:103AE00001F0A8FA2DA33A46BDF80010404605F0B3
:103AF00007F82948002229461C3001F0EFFA05009A
:103B000023D0012D1DD0022DE6D13A46694640460C
:103B100000F0B0FC0028DFD0BDF80000962804D2E9
:103B20009620ADF8000007F0D6FEBDF800104FF467
:103B30009670814203D9ADF8000007F0CCFE012653
:103B4000CAE7641C04F00304F9E7002E0BD023211C
:103B500013A001F0F5FF02281AD0062805D0072887
:103B600001D1FFF7C7FEBDE8F88F0BF12605AC7059
:103B7000BDF80000ABF82600FFF78CFF28880DF099
:103B80001DFC0B490DF062FCA9780CF007FBEAE77D
:103B900001259BE7D86A002024D80108A1E600008F
:103BA000B1A3B4E6C5E4D6C3CAFDBEDD203F000024
:103BB000CDCCCC3D2DE9F84F404E0125002796F89D
:103BC0002940708DADF8000040F2015A4FF4AF78F3
:103BD000DFF8EC9040F6194B07F072FF34B138482B
:103BE000E03001F04FFA012C05D00CE03448F830F9
:103BF00001F048FA07E033A35246BDF8001040F642
:103C0000144004F07DFF59F82410584601F012FAD0
:103C10004FF00002294634B32948E03001F05EFA43
:103C2000050028D0012D21D0022DDCD1012CD3D1CB
:103C30005246694641F6140000F01CFC0028CBD027
:103C4000BDF80000962804D29620ADF8000007F0D9
:103C500042FEBDF80010414503D9ADF8008007F0E1
:103C60003AFE0127B8E71648F830D7E70CB1002430
:103C7000F7E70124F5E7002F0BD0232112A001F074
:103C80005FFF022817D0062805D0072801D1FFF7CB
:103C900031FEBDE8F88FBDF80000708586F8294038
:103CA000FFF7F8FE708D0DF089FB0B490DF0CEFB90
:103CB0000CF088FAEDE701258EE70000D86A0020B5
:103CC00078D70108A1E60000B1A3B4E6C5E4D6C3E5
:103CD000CAFDBEDD203F0000CDCCCC3D2DE9F05F1C
:103CE000002540F202594FF4247640F2145A4FF462
:103CF0008177DFF890804FF4897B234C07F0E0FE5A
:103D0000224A4946304606F020FA204A51463046BB
:103D100006F01BFA1EA1384601F08CF91F4A062155
:103D2000384601F085F92178584658F8211001F0FD
:103D300081F9FFF7F3FD02F0F7FD08F003FB01281E
:103D40000ED00428DAD13DB1232115A001F0F8FEF0
:103D500006280FD00728D1D1BDE8F05FFFF7CABD14
:103D60002078401CC0B22070042801D300202070AD
:103D70000125C3E7FFF7D2FDFFF78CFEBDE8F05F3A
:103D800004F022BB80D30108D86A002070CA010861
:103D9000D2C7C6F7D0CDBAC53A000000B0CC0108F2
:103DA000B1A3B4E6D0DEB8C4BDE1B9FB3F0000006A
:103DB0002DE9FF5F00249B4691468A46264625460C
:103DC0003AF814000DF0FAFA17490DF03FFBB0462F
:103DD00059F8246001462F4630460DF0F5F90546A6
:103DE000014600980DF0FEFB03D2641CE4B25C4572
:103DF000E6D3394628460DF0AFFC0446414630462E
:103E00000DF0AAFC21460DF0DFF904463946009872
:103E10000DF0A2FC21460DF019FB04B04146BDE8AF
:103E2000F05F0DF05DB900006F12833A0149486000
:103E30007047000028000020044908700448C07939
:103E4000002801D0FDF7F8BE7047000028000020D0
:103E5000D86A00200A4980B1012806D0022807D07C
:103E6000032808D04FF0FF3007E043F6982004E025
:103E700047F2305001E04EF6602048607047000085
:103E80000800002003F02CBDC0B2202800D27F2003
:103E9000024901EB0010A0F50070704740190108BD
:103EA000C0B2202800D27F20034900EB400001EB84
:103EB0000010A0F5C0607047306B010870B5C0B24B
:103EC0000123114C60F31F211F229818400804EBB6
:103ED000400514F810606D7805EB0625ADB2A942D7
:103EE00005D1094901F1400101EB401070BD03D932
:103EF00000F1010083B202E0A0F1010082B293421E
:103F0000E3D90148403070BD401F010870B5C0B210
:103F10000123114D60F31F21F7229818400805EB8B
:103F2000400415F81060647804EB0624A4B2A142A2
:103F300005D10A4900EBC00001EBC00070BD03D9F8
:103F400000F1010083B202E0A0F1010082B29342CD
:103F5000E3D9024870BD00008023010870250108E4
:103F600070B50C46064615460021A02007F05AFD04
:103F700060B1300A07F024FD40B1F0B207F020FD37
:103F800020B10121A02007F04DFD48B907F084FDC4
:103F9000002070BD002007F0DDFCC04304F8010BD9
:103FA0006D1E15F0FF05F5D1012007F0D3FCC043CD
:103FB000207007F071FD012070BD000070B50C4647
:103FC000064615460021A02007F02CFD08B3300A54
:103FD00007F0F6FCE8B1F0B207F0F2FCC8B100BFA0
:103FE00014F8010BC043C0B207F0EAFC88B16D1EA3
:103FF00015F0FF05F4D107F04FFDA0254FF4C8746C
:104000000021284607F00EFD30B107F045FD0120E4
:1040100070BD07F041FD03E0641E2404240CEFD1C1
:10402000002070BD10B500F031FF10BD0349012024
:104030000870034940030860704700003800002002
:104040001404014010B500F021FF10BD10B500F0C0
:104050001DFF10BD10B500F019FF10BD10B500F028
:1040600015FF10BD10B500F011FF10BD2DE9F34F85
:10407000DFF808928B4691B00126B9F8044001A9F7
:104080005846FCF745FD0698DFF8F4A100F26C7085
:1040900085B20598401C00F0FF080498C7B243465B
:1040A0002A4678A10CA80097FCF792F90CA9119860
:1040B00000F0C0FF012E04D0022E06D0032E09D13D
:1040C00018E0744A0421119802E011980A3013E0B4
:1040D00000F0AEFF08F036F911286AD024DC082879
:1040E00069D00DDC012873D00428D8D1002013B08A
:1040F000BDE8F08F1198103080B2664A0221E7E7E0
:10410000092873D01028CAD1012E1FD0022E26D024
:10411000032EC4D14146284607F0D4FC7F1CFFB2D1
:10412000B842BCD20127BAE720284AD021287BD048
:1041300040281DD04128B2D1C82C01D9641EA4B298
:10414000642141200BF0FEF990B389E06D1CADB203
:1041500040F633008542A2D94FF4FA659FE708F193
:10416000010000F0FF08B8F10C0F98D901201DE004
:10417000012E0DD0022E13D0032E90D17F1E17F0EA
:10418000FF078CD14146284607F09CFC074686E78E
:104190006D1EADB2B5F5FA6F81D240F633057EE7FC
:1041A000A8F1010010F0FF08BDD10C20804676E791
:1041B00045E01CE0FFE7761CF6B2032EB3D90126DA
:1041C0006DE7761E16F0FF06ADD1032667E7FFE721
:1041D000A5F26C75A8F101000497CDE9050501A8C9
:1041E000FCF7DFFBCBF80000012080E72EE040F673
:1041F0009800844201D2641CA4B2642111200BF007
:10420000A1F950B12CE0641CA4B220460DF0D6F800
:1042100051460DF01BF9FFF709FE012111200BF0AB
:1042200091F90028EFD01BE016E0641EA4B22046EE
:104230000DF0C4F851460DF009F9FFF7F7FD012123
:1042400041200BF07FF90028EFD009E040F29E708A
:10425000844205D2643402E0DC2C01D9143CA4B2BF
:1042600020460DF0ABF851460DF0F0F8FFF7DEFDFB
:10427000A9F80440FFF70EFC11E70000D86A0020FF
:104280000AD7233C253034752D253032752D253045
:1042900032750000B0CC01082DE9F04F6E4F884612
:1042A00091B08346BC88012501A94046FCF730FC4B
:1042B0006A4E4FF0180A4FF03C090198DDE90232CE
:1042C000009067A10CA8FCF783F80CA9584600F0F1
:1042D000B1FE012D04D0022D06D0032D09D118E026
:1042E000634A0221584602E00BF1060013E000F099
:1042F0009FFE08F027F8112868D01DDC082851D04F
:104300000DDC01285BD00428D7D1002011B0BDE816
:10431000F08F0BF10C0080B2554A0221E7E7092823
:1043200071D01028C9D1012D18D0022D19D0032D1C
:10433000C3D10198401C1FE0202839D021287BD010
:10434000402811D04128B8D1C82C01D9641EA4B28C
:10435000642141200BF0F6F880B371E00398401C13
:1043600012E00298401C17E0012D0BD0022D11D055
:10437000032DA2D101983B30B0FBF9F209FB1200EA
:1043800001909AE703981730B0FBFAF20AFB12008B
:10439000039092E702983B30B0FBF9F209FB120060
:1043A00002908AE76D1CEDB2032D86D9012584E7C2
:1043B0006D1E15F0FF0580D103257EE72EE001A8D4
:1043C000FCF7EFFAC8F8000001209FE740F69800DC
:1043D000844201D2641CA4B2642111200BF0B2F813
:1043E00050B12DE0641CA4B220460CF0E7FF31462A
:1043F0000DF02CF8FFF71AFD012111200BF0A2F8A7
:104400000028EFD01CE011E0641EA4B220460CF09E
:10441000D5FF31460DF01AF8FFF708FD01214120C4
:104420000BF090F80028EFD00AE005E040F29E7013
:10443000844205D2643402E0DC2C01D9143CA4B2DD
:1044400020460CF0BBFF31460DF000F8FFF7EEFC04
:10445000BC80FFF71FFB30E7D86A00200AD7233C57
:10446000253032753A253032753A253032750000E4
:10447000B0CC010838B50C4609880091694600F0B7
:1044800007F8002802D000982080012038BD0000E5
:104490002DE9F74F90B000251198904612F0FF07D4
:1044A0000168724884884FEA1220814601D0A9F140
:1044B0000100C6B26E48A6EB070A50F82600B1FB11
:1044C000F0F200FB121B58460CF078FF68492831C7
:1044D00051F827100CF078FE0CF0D6FDCDE9000164
:1044E00008F0FF034A4663A10AA8FBF771FF0AA977
:1044F000109800F09FFD1098AA4500EB450000DCE5
:10450000801C80B25D4A012100F092FD681C009081
:10451000864206D35648711B00EB810050F8040C0C
:1045200000E00120019007F00DFF112857D01CDC9E
:10453000082843D007DC01284CD00428C3D1002030
:1045400013B0BDE8F08F092879D01028BBD10199AC
:104550000A20BBFBF1F1B1FBF0F200FB12100928BD
:1045600015D001990BEB010020E020282AD021284A
:104570006BD040280ED04128A5D1C82C01D9641E8B
:10458000A4B2642141200AF0DDFFA0B361E00198EC
:1045900040420EE001990A20BBFBF1F1B1FBF0F2C1
:1045A00000FB121020B10199ABEB010083468AE7B2
:1045B000019800EBC00101EB0B00F7E70098B0FB9E
:1045C000F6F103E0A819401E90FBF6F106FB11007E
:1045D000C5B278E711990120C1F800B0B0E740F604
:1045E0009800844201D2641CA4B2642111200AF014
:1045F000A9FF58B12DE01AE0641CA4B220460CF0CB
:10460000DDFE1F490CF022FFFFF710FC01211120F5
:104610000AF098FF0028EFD01BE0641EA4B22046E9
:104620000CF0CCFE16490CF011FFFFF7FFFB012147
:1046300041200AF087FF0028EFD00AE0FFE740F2B0
:104640009E70844205D2643402E0DC2C01D9143C13
:10465000A4B220460CF0B2FE09490CF0F7FEFFF7B9
:10466000E5FB02488480FFF715FA2CE7D86A0020A2
:10467000F8D1010825302A2E2A660000B0CC0108A6
:104680000AD7233C2DE9F35F0A8889464FF03C0B9B
:10469000B2FBFBF16423B1FBF3F4DFF8FCA103FBF5
:1046A00014160BFB1125BAF804404FF0000801273F
:1046B000C6EB061005EB8001009804F06BFC012F9F
:1046C00006D0022F08D0032F18D0042F09D118E0EC
:1046D000724A0121009802E00098801C13E000F06B
:1046E000A7FC07F02FFE11287FD015DC082861D029
:1046F0000DDC01286CD004285BD172E00098801D8D
:1047000001E00098083080B2644A0121E7E70928F7
:1047100077D010284DD108E0202851D0212871D021
:10472000402813D0412844D17EE0012F06D0022F2B
:1047300006D0032F06D0042F3BD105E00A360FE048
:10474000711C15E00A3521E0691C26E0012F06D016
:10475000022F0BD0032F18D0042F2AD11BE05A367A
:104760006420B6FBF0F100FB1166A1E706F1090138
:104770000A20B1FBF0F200FB1211B6FBF0F000EBE7
:10478000800001EB4000C6B292E73235B5FBFBF189
:104790000BFB11558CE705F109010A20B1FBF0F282
:1047A00000FB1211B5FBF0F000EB800001EB4000C4
:1047B000C5B26AE07F1CFFB2042F66D9012764E00E
:1047C0007F1E17F0FF0760D104275EE00DE0FFE7D2
:1047D000C6EB061005EB8001A9F800104FF00108A8
:1047E00056E04FF0000847464FE040F698008442FC
:1047F00001D2641CA4B2642111200AF0A3FE60B1AE
:1048000037E02CE031E0641CA4B220460CF0D6FD69
:1048100023490CF01BFEFFF709FB012111200AF0D0
:1048200091FE0028EFD024E0C82C01D9641EA4B268
:10483000642141200AF086FE50B11AE0641EA4B241
:1048400020460CF0BBFD16490CF000FEFFF7EEFA17
:10485000012141200AF076FE0028EFD009E040F265
:104860009E70844205D2643402E0DC2C01D9143CF1
:10487000A4B220460CF0A2FD09490CF0E7FDFFF7B9
:10488000D5FAAAF80440FFF705F9002F7FF46DAFC1
:104890004046BDE8FC9F0000D86A0020B0CC01086B
:1048A0000AD7233C70B514460D46064607F044F877
:1048B000E2B229463046FFF753FB044607F044F8BE
:1048C000204670BD70B514460D46064607F034F814
:1048D000E2B229463046FFF771FB044607F034F890
:1048E000204670BD70B50BA0FDF736FA0C4D0024C4
:1048F000102255F824000B49FDF750FA55F8240012
:1049000040221021FDF79EF9641CE4B2052CEFD380
:1049100070BD00005C53414D504C455200000000FA
:104920001CCF01085A01002010B51446064A01EBBD
:104930008101C90052F820002423224602F0DAFE49
:10494000002800D1206010BD1CCF010870B50D46B5
:104950000446164664210A48FBF7BFFF242231466D
:104960000748FBF743FF05EB8500C10005482823F6
:10497000034A50F82400BDE8704002F0BDBE0000BC
:10498000386600201CCF010870B58CB00D46044677
:10499000302226496846FBF76EFF25492846FCF77A
:1049A000B7F8234822492C30C368CA6893423BD0E9
:1049B0004B6903F26C7343610969491CC0E9032127
:1049C00061696422481E90FBF2F3C51700EB9575F0
:1049D000C3EBA503950090FBF5F633448E070ED18B
:1049E00091FBF2F602FB161222B991FBF5F205FBE0
:1049F000121121B92169022901DD012100E0002104
:104A000022696D4605EB8202E56852F8042C2A44BF
:104A100040F26D1500FB053010440844072190FB5F
:104A2000F1F201FB1200A0610CB070BD48D2010888
:104A30004C69002070B5154C154E204694F8251091
:104A400090F82850C08C012915D0022909D00329DB
:104A50001BD10CF0B3FC31460CF0F8FC29460BF0EE
:104A60009DFB608D0CF0AAFC31460CF0EFFCBDE81C
:104A700070400BF0A7BB0CF0A1FC31460CF0E6FC3B
:104A80002946BDE870400BF089BB70BDD86A002094
:104A9000CDCCCC3D1148816941F0010181611049C3
:104AA000202048610F48016821F400510160001F77
:104AB000016821F45C4101600A49091D0A680A6025
:104AC000091D0A6842F400520A60064A4114103275
:104AD0001160016841F4005101607047001002400C
:104AE000000001400404014008B50020009001F0DE
:104AF000B7F808A140F6162000F09CFA4FF4C06207
:104B0000694641F21620FFF7C3FC002800D0009848
:104B100008BD0000CAE4C8EBC3DCC2EB3A000000E9
:104B200010B50DA140F60F0000F084FA0EA140F67A
:104B30000F4000F07FFA10A141F20F0000F07AFA66
:104B400011A141F20F4000F075FABDE8104012A12A
:104B500041F60F0000F06EBAB0FCC0A8CAB1BCE4C8
:104B6000C9E8D6C300000000CEACBBA4C3DCC2EBD6
:104B7000B5C4D0DEB8C40000D2D4BCB0D2BABEA78F
:104B8000C6C1C4BBB5C40000CFD4CABEB6D4B1C878
:104B9000B6C820C1C1B6C800BACDC1C1C6C1CAB16C
:104BA000B3A400002DE9F041012406F089FF4FF481
:104BB00031664FF4C0681A4D41F2142701F050F8E5
:104BC000184800F05FFA184A2146164800F086FAA5
:104BD0000446012807D0022C08D0032C1CD0002C3E
:104BE000ECD1BDE8F0810AF0A1F8E7E701F038F870
:104BF0000EA1304600F01EFA424629463846FFF71D
:104C000047FC0028DAD000210CA000F099FF06F044
:104C100057FFFEF73FFFD1E709F0CAFFCEE70000DC
:104C20000C6B0020B8D70108214B0008C7EBCAE481
:104C3000C8EBD0C2C3DCC2EB3A000000C3DCC2EB5D
:104C4000D0DEB8C4B3C9B9A6210000002DE9F04FE9
:104C5000074669488BB0694984880025DFF8A0A120
:104C600005A82E46EB4601EB47080A90B8F822103B
:104C70002BF815100BEB45006D1CB8F81810EDB2B1
:104C800081820A2D02D026B10A2103E000250126E7
:104C9000FAE72946684606F00FFE2AF817000EB11B
:104CA0000A2100E029460A9806F006FE0AEB4709A9
:104CB000A9F814000EB10A2100E02946684606F062
:104CC000FBFD2AF817000EB10A2100E029460A98D8
:104CD00006F0F2FDA9F814004AA140F60F7000F0AA
:104CE000A9F9384607F0C6FC014640F202690023E4
:104CF0004A4641F20E5003F0DDFE44A140F61C701E
:104D000000F098F9384607F01BFC014600234A469C
:104D100041F21B5003F0CEFE282007F0CBFC002808
:104D2000A4D007F00FFB11281FD00BDC012817D0EF
:104D3000042815D0092899D140F29E7084424DD2A2
:104D400064344AE0212845D041288FD1C82C01D9AC
:104D5000641EA4B2642141200AF0F4FB80B33DE05C
:104D6000FEF722F90BB0BDE8F08F40F698008442C0
:104D700001D2641CA4B2642111200AF0E3FB58B1F3
:104D80002CE0641CA4B220460CF018FB49460CF041
:104D90005DFBFFF74BF801E0DFF87890012111206F
:104DA0000AF0D0FB0028ECD018E0641EA4B2204624
:104DB0000CF004FB49460CF049FBFFF737F802E022
:104DC000FFE7DFF85090012141200AF0BBFB0028EB
:104DD000EBD003E0DC2C01D9143CA4B220460CF04B
:104DE000EDFA0C490CF032FBFFF720F80248848002
:104DF000FEF750FE3AE70000D86A0020FA6600206D
:104E0000646A0020C1F7C1BF3A000000BCC6D1B936
:104E10003A0000000AD7233C0449FF2008600348F9
:104E2000143801686FF309010160704714040140F0
:104E30001348816941F001018161124801218160BB
:104E40000021C160104801686FF309010160001F73
:104E5000016821F4407101600B49091D0A6842F0A4
:104E6000FF020A60091D0A6842F0FF020A60064A52
:104E7000FF2110321160016841F0FD0101607047AF
:104E800000100240000001400404014010B5FFF78B
:104E9000C3FF0348C068BDE810400AF0C3BA000071
:104EA0000800002010B5002108480AF0A3FA084CB9
:104EB0000021E0600548001D0AF09CFAA06003484C
:104EC0000021BDE8104008300AF0D6BA28190108C0
:104ED000080000200F48816941F004018161816967
:104EE00041F0080181610C49FC2008600B49032056
:104EF0000860094810380168094AC9B211430160C5
:104F000006481038016821F00F0141F008010160E6
:104F1000704700000010024010080140100C0140D2
:104F200000888888064800680649C0F3850009683B
:104F300001F0010140EA81117F20884370470000A1
:104F400008080140080C01402DE9F0412C4C2B4889
:104F500020612C4860612C48A0612C4805682C48D1
:104F6000854200DD05462B48008905F0B9F9014668
:104F7000E0686062804628460CF0EEFB0546E06083
:104F8000294620690CF062FA07466060294660698C
:104F90000CF05CFAA1680CF0A3F80646A06041464C
:104FA00028460CF0D9FBA1690CF050FA05462062A6
:104FB000314638460CF094F829460CF091F8164921
:104FC0000CF044FA05461549E0690CF03FFA294611
:104FD0000CF086F81249E061884202DC11498842EF
:104FE00000DAE1611049E0690CF030FA0CF0AEF93A
:104FF000BDE8F04180B200F02BBE0000A69B443C0F
:10500000900000200E745A3C51499D3B2C0000201A
:105010000000B041EC6600203333333F9A99993E4B
:1050200083C02A3F0AD7A33C0000D84604F0FEB94B
:1050300002F0B0BD02F0A8BE08498A6942F0100231
:105040008A6108B1891501E04FF08071044801615F
:10505000416821F00F01C91C4160704700100240F7
:105060000010014070B50C4600EBC40605467068A0
:10507000FBF746FBC1B235F834007268BDE87040FA
:10508000FFF7D6BF70B501880546080ACEB201D039
:105090007043C6B2696819B14FF48170FFF7CAFF57
:1050A0004FF424740C4A40F20251204605F04DF8AA
:1050B000094A40F21451204605F047F8012408E05F
:1050C00005EBC400416835F83400FFF7B3FF641CFA
:1050D000E4B2B442F4D970BD70CA010800F03AB924
:1050E00030B41C461346224630BC00F005BA30B43A
:1050F0001C461346224630BC00F0E8BA30B41C46C9
:105100001346224630BC00F001B800002DE9FF5FD5
:1051100006460C4685483188904685884FF0000B3E
:10512000080ACFB232D0784300F0FF0A0CB15445E0
:1051300000D9012406EBC409D9F80400FBF7E0FA12
:10514000C1B236F83400D9F80420FFF771FF00BF70
:105150005FEA080000D08047322007F0ABFA002851
:10516000F6D036F83400D9F80410FFF763FF07F0E3
:10517000E9F8102847D00BDC0A28DBD2DFE800F082
:1051800005575B05D005A9052292D3E7BA46CDE7BE
:10519000212872D008DC11284FD02028CAD10398CA
:1051A00050EA0B003CD032E0402823D04128C1D146
:1051B000C82D01D96D1EADB2642141200AF0C2F99B
:1051C000A0B379E0039850EA0B0017D003E000BFCA
:1051D000A4EB0A000CE0B4FBF7F007FB104008B9A1
:1051E000E01BC4B2641CE4B2A4E7E01B00E0E019D9
:1051F000C4B29FE7039830EA0B00ECD1E019C4B2C7
:10520000544597D9E4E7039830EA0B0008D0641EB0
:10521000E4B2B4FBF7F007FB104000288AD1E6E7C0
:10522000BC42E2D804EB0A00C4B2DEE731E020461B
:1052300004B0BDE8F09FFF20FAE740F698008542F1
:1052400001D26D1CADB2642111200AF07BF958B176
:1052500032E06D1CADB228460CF0B0F849460CF0B7
:10526000F5F8FEF7E3FD01E0DFF8C490012111201D
:105270000AF068F90028ECD01EE019E06D1EADB20E
:1052800028460CF09BF849460CF0E0F8FEF7CEFDFE
:1052900001E0DFF89C90012141200AF053F9002839
:1052A000ECD009E040F29E70854205D2643502E000
:1052B000DC2D01D9143DADB228460CF07FF81C4915
:1052C0000CF0C4F8FEF7B2FD18488580FEF7E2FB4B
:1052D00030E7C82106200AF035F9002884D106F00D
:1052E000FAFA642006F040FC06F0F5FA06F0E8FB56
:1052F00010A14FF4C160FFF79DFEFEF7FBFA0B49CA
:105300004FF4E062383140F60C40FFF7C1F838B195
:1053100004210CA000F014FC062803D0FEF7EAFAE2
:10532000002085E7FEF7B6FBFAE70000D86A002008
:105330000AD7233CC7EBCAE4C8EBB3F6B3A7B1E086
:10534000BAC53A00CAC7B7F1B1A3B4E6B1E0BAC56D
:105350003F0000002DE9F05F0C46DFF894B10188B2
:105360000646BBF804509046080ACFB232D07843C4
:1053700000F0FF0A0CB1544500D9012406EBC40922
:10538000D9F80400FBF7BCF9C1B236F83400D9F8FB
:105390000420FFF74DFE00BF5FEA080000D0804701
:1053A000322007F087F90028F6D036F83400D9F813
:1053B0000410FFF73FFE06F0C5FF10283DD00BDCC0
:1053C0000A28DBD2DFE800F0054045054305050566
:1053D000277DD3E7BA46CDE7212878D00DDC112808
:1053E00039D02028CAD1641EE4B2B4FBF7F007FB21
:1053F00010400028C2D1E0191DE0402815D04128F6
:10540000BCD1C82D01D96D1EADB2642141200AF076
:1054100099F8B8B35FE0B4FBF7F007FB104008B9A8
:10542000E01BC4B2641CE4B2A8E7E019C4B254455E
:10543000A4D9A4EB0A00C4B2A0E7BC4202D804EB92
:105440000A00C4B2E01BF6E72046BDE8F09F00204A
:10545000FBE7FF20F9E740F69800854201D26D1C7A
:10546000ADB2642111200AF06DF860B133E06D1C1B
:10547000ADB228460BF0A2FF49460BF0E7FFFEF75E
:10548000D5FC02E013E0DFF86C90012111200AF056
:1054900059F80028EBD01EE06D1EADB228460BF087
:1054A0008DFF49460BF0D2FFFEF7C0FC01E0DFF8AC
:1054B0004490012141200AF045F80028ECD00AE090
:1054C00005E040F29E70854205D2643502E0DC2D95
:1054D00001D9143DADB228460BF070FF05490BF021
:1054E000B5FFFEF7A3FCABF80450FEF7D3FA45E78F
:1054F000D86A00200AD7233C2DE9FF5F06460C46F8
:1055000070483188904685884FF0000B080ACFB26A
:1055100032D0784300F0FF0A0CB1544500D9012481
:1055200006EBC409D9F80400FBF7EAF8C1B236F873
:105530003400D9F80420FFF77BFD00BF5FEA0800C4
:1055400000D08047322007F0B5F80028F6D036F8B2
:105550003400D9F80410FFF76DFD06F0F3FE1028B3
:1055600047D00BDC0A28DBD2DFE800F005575D05E9
:105570005B0505052294D3E7BA46CDE7212874D010
:1055800008DC112851D02028CAD1039850EA0B001A
:105590003CD032E0402823D04128C1D1C82D01D9C8
:1055A0006D1EADB26421412009F0CCFFA0B37BE0B9
:1055B000039850EA0B0017D003E000BFA4EB0A00E9
:1055C0000CE0B4FBF7F007FB104008B9E01BC4B2D5
:1055D000641CE4B2A4E7E01B00E0E019C4B29FE75A
:1055E000039830EA0B00ECD1E019C4B2544597D9C6
:1055F000E4E7039830EA0B0008D0641EE4B2B4FB81
:10560000F7F007FB104000288AD1E6E7BC42E2D859
:1056100004EB0A00C4B2DEE733E0204604B0BDE884
:10562000F09F0020FAE7FF20F8E740F69800854257
:1056300001D26D1CADB26421112009F083FF58B175
:1056400032E06D1CADB228460BF0B8FE49460BF0B7
:10565000FDFEFEF7EBFB01E0DFF86C90012111206D
:1056600009F070FF0028ECD01EE019E06D1EADB20D
:1056700028460BF0A3FE49460BF0E8FEFEF7D6FBEA
:1056800001E0DFF844900121412009F05BFF002890
:10569000ECD009E040F29E70854205D2643502E00C
:1056A000DC2D01D9143DADB228460BF087FE06492A
:1056B0000BF0CCFEFEF7BAFB02488580FEF7EAF954
:1056C0002EE70000D86A00200AD7233C2DE9FF5FAF
:1056D000064673480C4631888588080AC9B2984640
:1056E00091468A4630D000FB0AF0C0B200900CB15F
:1056F000844200D9012406F019FF834606EBC40753
:1057000003977868FAF7FCFFC1B236F834007A687C
:10571000FFF78EFC5FEA090000D0804706F006FF25
:10572000A0EB0B00C7B2A8EB07025EA101A8FAF735
:105730004FFE01A940F60970FFF77CFC474507D3EF
:10574000012004B0BDE8F09F0846CDF800A0CEE7E8
:10575000322006F0AFFF0028DCD00398416836F80D
:105760003400FFF767FC06F0EDFD10283ED009DCA1
:105770000A28C3D2DFE800F00542460544050505C6
:10578000267CBBE7212879D00EDC11283CD02028CC
:10579000B4D1641EE4B2B4FBFAF10AFB1140002854
:1057A000ACD104EB0A001FE0402816D04128A5D157
:1057B000C82D01D96D1EADB26421412009F0C2FE91
:1057C000C8B35FE0B4FBFAF10AFB114010B9A4EBD7
:1057D0000A00C4B2641CE4B290E704EB0A00C4B24D
:1057E000009884428AD9201AC4B287E7544502D867
:1057F00000982044C4B2A4EB0A00F5E72046A0E7D5
:1058000000209EE7FF209CE740F69800854201D2E9
:105810006D1CADB26421112009F094FE60B131E03D
:105820006D1CADB228460BF0C9FD39460BF00EFEDB
:10583000FEF7FCFA01E012E01C4F0121112009F0F3
:1058400081FE0028ECD01DE06D1EADB228460BF0A5
:10585000B5FD39460BF0FAFDFEF7E8FA00E0134F0C
:105860000121412009F06EFE0028EDD00AE005E09C
:1058700040F29E70854205D2643502E0DC2D01D9EC
:10588000143DADB228460BF099FD08490BF0DEFD42
:10589000FEF7CCFA02488580FEF7FCF82EE7000000
:1058A000D86A002028253275732900000AD7233CC6
:1058B0002DE9F04F04468DB000200190054606907A
:1058C00003907A480A907A4805907A4800EB4400A1
:1058D00080890BF073FD784901EB0419D9F80010A9
:1058E0000BF0B4FDDFF8D4B14FF0000A099084B199
:1058F0004BF824A00021204600F00EF9012120469B
:1059000000F0F8F8642006F02FF909F037FD06469C
:10591000B7E06B480590564600213046CBF800A012
:1059200000F0FAF80121304600F0E4F8642006F0B7
:105930001BF909F023FD064662480078012808D0CB
:10594000A4E02046052C19D2DFE804F00415151553
:105950001500204606F05AFE804606F00FFE074668
:1059600006F002FD0346002239464046CDF800A06D
:10597000FCF712FE03E006F049FE00E000200146BD
:10598000019F09980BF0E8FE0190D9F804000199F5
:105990000BF05CFD0790D9F8080001990BF056FD5B
:1059A00029460BF09DFB054647484FF07E5885423F
:1059B00001D9054602E0454500DD454639460198D6
:1059C0000BF0CAFED9F80C100BF040FD3F490BF06C
:1059D0003DFD07463E4906980BF038FD39460BF071
:1059E0007FFB0690404605990BF0B6FE0746294618
:1059F00007980BF075FB06990BF072FB39460BF01C
:105A000025FD0746059903980BF020FD39460BF05C
:105A100067FB03900A990BF063FB10F1FF4F01D372
:105A2000002002E0404500DD40464BF824002949B3
:105A30000BF00CFD0BF08AFC81B2204600F06CF8F4
:105A400025484FF47A714FF47A720088484323490D
:105A50000988514300EB114809F090FC00EB080164
:105A60008A1B521EB2FBF8F1B1F5967F02D2C1F546
:105A7000967701E006461E27B8B206F075F807FBD8
:105A800008661048005D01283FF45BAF55464BF8AF
:105A900024A00021204600F03FF80021204600F01D
:105AA00029F8084805550DB0BDE8F08F3333B33EF3
:105AB000CDCC4C3FD86A002080CF0108A8670020D9
:105AC0006666663F50010020000080BFFA7EAA3E55
:105AD00083C02A3F0000D846D4CC0108D6CC0108A8
