:020000040800F2
:10000000406D00203D030008450300084703000839
:10001000490300084B0300084D03000800000000DE
:100020000000000000000000000000007502000851
:100030005103000800000000ED0200082903000839
:100040005703000857030008570300081D790008EC
:1000500057030008570300082540000845400008E2
:100060004D400008554000085D4000085703000857
:1000700057030008570300085703000857030008F8
:1000800057030008570300085703000857030008E8
:10009000570300085703000857030008654000088D
:1000A00057030008570300085703000857030008C8
:1000B0005703000857030008CD97000857030008AE
:1000C00057030008570300085703000857030008A8
:1000D000570300085703000857030008C599000894
:1000E0002D400008570300085703000800F002F8ED
:1000F00000F07AF80AA090E8000C82448344AAF148
:100100000107DA4501D100F06FF8AFF2090EBAE845
:100110000F0013F0010F18BFFB1A43F0010318473B
:1001200044E5010064E501000A444FF0000C10F8BA
:10013000013B13F0070408BF10F8014B1D1108BF65
:1001400010F8015B641E05D010F8016B641E01F805
:10015000016BF9D113F0080F1EBF10F8014BAD1C55
:100160000C1B09D16D1E58BF01F801CBFAD505E073
:1001700014F8016B01F8016B6D1EF9D59142D6D3CD
:10018000704700000023002400250026103A28BFF5
:1001900078C1FBD8520728BF30C148BF0B607047F9
:1001A000662911F08085642900F07881752900F0B6
:1001B0007581782900F0AE81732900F0A4870020B2
:1001C00070471FB500F0A3FF04000020002111F0CC
:1001D00031F8E0601FBD10B510BD03B4FFF7FBFFA1
:1001E00003BC01F093F8000000F0CCF81146FFF7D3
:1001F000E8FF0FF0BDFA044800210FF07FFB0FF07D
:10020000C9FA00F053FA00004000002080F309888A
:100210007047EFF309807047684680F30988044807
:100220000078C00714BF0220032080F314887047B1
:1002300040D10108DFF818C0EFF305831B0618BF93
:100240006047EFF31483DB0708BF604700DF7047A8
:10025000FDF90008DFF818C0EFF305831B0618BF8F
:100260006047EFF31483DB0708BF604700DF704788
:10027000E1FB0008EFF30980816911F8021CF1B974
:1002800090E80F10E047EFF3098C8CE80700144B5F
:1002900093E8060091420FD039B12CE9F00FC1F874
:1002A00024C00CB40FF0D0FF0CBC1A60D2F824C0EC
:1002B000BCE8F00F8CF309886FF0020E704710B5A0
:1002C000084A1268914209D8074C54F8214090E836
:1002D0000F10A047EFF3098C8CE80F0010BD000051
:1002E00060030020101B0008101B00080FF048FEE0
:1002F0000C4B93E80600914210D0EFF3098C2CE9E7
:10030000F00FC1F824C00CB40FF09EFF0CBC1A60B3
:10031000D2F824C0BCE8F00F8CF309886FF0020E0D
:10032000704700006003002010F044F8E0E7000090
:100330000FF036FB10F03EF8DAE70000094880477E
:1003400009480047FEE77047FEE7FEE7FEE7FEE7E5
:10035000FEE7FEE7FEE7FEE704480549054A064BCF
:1003600070470000A9960008ED00000840670020D3
:10037000406D00204069002040690020004870471F
:10038000DC6600207546FFF7F9FFAE4605006946BA
:10039000534620F00700854618B020B5FFF7DCFF74
:1003A000BDE820404FF000064FF000074FF0000876
:1003B0004FF0000B21F00701AC46ACE8C009ACE8F7
:1003C000C009ACE8C009ACE8C0098D467047000020
:1003D0000FB41CB5074B06AA7B44694600900598EC
:1003E00000F067FE0020694600F076FE1CBC5DF858
:1003F00014FB0000FD0C000070B504468569006820
:10040000C10601D5302600E02026C00708D070BD07
:10041000D4E9012130469047206A00F101002062B2
:100420006D1EF5D570BD70B5044685690078C007AE
:1004300008D170BDD4E9012120209047206A00F145
:10044000010020626D1EF5D570BD70B50C460546E5
:10045000012A05D02878800600D5EA69002302E049
:10046000012305E05B1C934202D2E05C0028F9D135
:10047000A869E618C01AA861286A184428622846A4
:10048000FFF7BAFF04E0D5E9012114F8010B90470A
:10049000B442F8D32846FFF7C6FF70BD2DE9F041FE
:1004A0000646002410687529314616A511D0AFF311
:1004B0000080002803DAC0F1000013A507E03168CE
:1004C0008A0701D511A502E0490704D510A501242A
:1004D00001E0AFF3008000210A2306F1240707E0C2
:1004E000B0FBF3F203FB1200303078541046491C85
:1004F0000028F5D123462A463046BDE8F04100F0F9
:1005000067BB0000000000002D0000002B00000071
:100510002000000070B504460D4621461068AFF378
:1005200000802188090502D5104A7A4402E00F4A6A
:100530007A440E32002104F1240307E000F00F0694
:100540004FEA1010965D5E5401F101010028F5D1CB
:1005500003462078000704D5702D02D009B111326E
:1005600002232046BDE8704000F032BB5AD901009A
:100570002DE9F05F894604464FF0000ADFF828B104
:10058000FB44C0F820A02046E168884700287CD0C2
:10059000252806D0D4E901219047206A401C20621A
:1005A000F1E700255F462046E16888472028064697
:1005B00008DB312E06D207EB060010F8200C08B13C
:1005C0000543F0E7A80701D525F00405C4F81CA0F1
:1005D0000027C4F818A02A2E09D030460AF033F9B3
:1005E00038B304EB8708303EC8F8186019E059F8B2
:1005F000041B204604EB87029161E1688847012FC4
:10060000064618D1E069002820DA25F020051DE013
:10061000D8F8180000EB800006EB40003038C8F82E
:1006200018002046E168884706460AF00CF90028C1
:10063000EED1012F0AD02E2E08D12046E16888473E
:100640007F1C0646022F45F02005C4DBA069002868
:1006500003DA404245F00105A061E80701D025F02A
:10066000100596B1A6F14100192802D8203645F4AC
:1006700000654A463146204625604D46FFF790FD0D
:1006800060B1012807D0ED1D00E009E025F007006A
:1006900000F1080977E705F1040974E7304679E7C6
:1006A000206ABDE8F09F00002CD901000446AFF39A
:1006B00000802046FFF791FD40EA0103024630B575
:1006C0009B0710D14FF0013400E008C208C91D1B80
:1006D0009D4315EAC41FF8D013F0FF0102F8011B77
:1006E0000DD01B0AF8E711F8013B002B02F8013B83
:1006F00005D011F8013B002B02F8013BF3D130BDCE
:1007000010B5431C02E010F8011B71B18107FAD14A
:100710004FF0013202C88C1A8C4314EAC211F9D08E
:10072000C01A0A0603D0C01E10BDC01A10BD0A04AC
:1007300001D0801E10BD0902FCD0401E10BD40EA51
:10074000010370B59B072ED14FF00136042A2AD33E
:1007500008C810C9121F9D1B9D4315EAC61517D066
:10076000D8B2E1B2401A50EA056110D198B2A1B2F4
:10077000401A50EA05410AD123F07F4024F07F411E
:10078000401A50EA052102D1180EA0EB146070BD8A
:10079000A342DBD018BA21BA884201D9012070BD2A
:1007A0004FF0FF3070BD0AB9002070BD10F8013B5A
:1007B00011F8014B63B1A3420AD1521E08D010F8C0
:1007C000013B11F8014B1BB1A34201D1521EEDD1E7
:1007D000181B70BD421E12F8013F002BFBD111F80F
:1007E000013B002B02F8013BF9D17047032A40F28C
:1007F000308010F0030C00F0158011F8013BBCF1C3
:10080000020F624498BF11F801CB00F8013B38BFDA
:1008100011F8013BA2F1040298BF00F801CB38BFE8
:1008200000F8013B11F0030300F02580083AC0F006
:10083000088051F8043B083A51F804CBA0E80810AE
:10084000F5E7121D5CBF51F8043B40F8043BAFF3E1
:100850000080D20724BF11F8013B11F801CB48BF3B
:1008600011F8012B24BF00F8013B00F801CB48BF71
:1008700000F8012B704710B5203AC0F00B80B1E8AA
:100880001850203AA0E81850B1E81850A0E81850C5
:10089000BFF4F5AF5FEA027C24BFB1E81850A0E8CE
:1008A000185044BF18C918C0BDE810405FEA827CE8
:1008B00024BF51F8043B40F8043B08BF7047D207FF
:1008C00028BF31F8023B48BF11F8012B28BF20F8A0
:1008D000023B48BF00F8012B70474FF0000204298B
:1008E000C0F0128010F0030C00F01B80CCF1040C5F
:1008F000BCF1020F18BF00F8012BA8BF20F8022B93
:10090000A1EB0C0100F00DB85FEAC17C24BF00F838
:10091000012B00F8012B48BF00F8012B70474FF066
:10092000000200B5134694469646203922BFA0E83F
:100930000C50A0E80C50B1F12001BFF4F7AF09074B
:1009400028BFA0E80C5048BF0CC05DF804EB89003C
:1009500028BF40F8042B08BF704748BF20F8022B7F
:1009600011F0804F18BF00F8012B704730B50368B5
:100970001C1404EB21459BB289B2194495FBF2F497
:1009800002FB145301EB034191FBF2F302FB131141
:1009900001E05B1E11440029FBDB016003EB044016
:1009A00030BD2DE9F04704464FF0FF3A86B00068AD
:1009B000029060680390A0680490E068019020694C
:1009C00000906569B5F1804F7EDCB5F1404F7BDB6F
:1009D0003C22002102A8FFF7C9FF3C22014603A8E0
:1009E000FFF7C4FF1822014604A8FFF7BFFF411E0E
:1009F00040F2B55201A8FFF7B9FF0C22064668463F
:100A00000021FFF7B3FF00EB860028443E4D00268F
:100A10007D440FE09A1A491CCDE90012022902D048
:100A20000C2907D104E0810704D0521C019201E097
:100A3000401C00960099019B6A5C9A42EADD0129FC
:100A400006D11C2B04D1810702D00221CDE900166A
:100A5000A0F146018B2940D20199009B00220F464C
:100A600002E0AE5C521C31449A42FADB012B02DDFB
:100A7000820700D0491E40F2B55540F26D16C217EC
:100A800000EB927292106A4300F0030505FB062208
:100A900085070A4400D1521E049D02EB4206DDF890
:100AA0000C80A94605EBC605184EC5EB0515DDF80B
:100AB00008C008EB850535442E14ADB2C6EB06160A
:100AC000C5EB0515B60000E007E00CEB850506EB6D
:100AD000154666F31F45360C03D0504606B0BDE8F8
:100AE000F0877F1CC4E90430521C072092FBF0F30E
:100AF00004F1180600FB1320A6E803042846C4E905
:100B00000297C4E900C8E9E7ADD40100A039CEFDE1
:100B100070B50C46016800204A1C34D040F2B5552F
:100B20003C23B1FBF3F203FB12112160B2FBF3F1A2
:100B300003FB112218236260B1FBF3F203FB1211D5
:100B4000A16046F2E0310A440721B2FBF1F301FB58
:100B50001321B2FBF5F305FB1322A1619900B2F555
:100B6000B77F06D3521EAD10B2FBF5F3194405FB57
:100B700013220F4BE261616189077B440CD03B2A51
:100B80000AD3521C08E02C212046FFF7C8FE0120A2
:100B9000E0600AE0521A401C195C9142FAD9521CDA
:100BA000C4E903204FF0FF302062204670BD0000F2
:100BB00043D3010070477047704710B500F0ACFA9E
:100BC000006810BD10B5044600F0A6FA046010BD20
:100BD0002DE9F0470D4699469246044600F1240857
:100BE0000168880604D5E06921F01001216000E069
:100BF0000120A84202DDA0EB050700E00027A16963
:100C000007EB050202EB0900A1EB0000A0612078D0
:100C1000C00602D42046FFF7EFFB002608E0D4E927
:100C200001211AF806009047206A401C761C2062B9
:100C30004E45F4DB2078C0060AD52046FFF7DCFBE2
:100C400006E0D4E9012130209047206A401C206250
:100C5000381EA7F10107F4DC07E0D4E9012118F8F8
:100C600005009047206A401C2062281EA5F101055E
:100C7000F3DC2046FFF7D7FB2078000602D50220E0
:100C8000BDE8F0870120FBE770472DE9FF4F0C46D8
:100C90001E464FF0FF378BB0D2E90001DDF86080CF
:100CA0000A908A46C1F30A5505B93D460021084617
:100CB0004FF00000BAF1000F00F4400005DA00EB3D
:100CC00080004FF4400101EA50004FEA9059B9F119
:100CD000010F00DDB9460A9850EA4A000ED044F6EA
:100CE0001050A5F2FF3545432F14B8F1000F1ED068
:100CF0007542291E1EDDC9F100021CE0B8F1010F8A
:100D00004FF0000001D0302103E0F24305E0215410
:100D1000401CB042FBDB30460022002121540B99DD
:100D2000C1F80880C1E900200FB0BDE8F08FBD1BFD
:100D30006D1CDEE74A4600DA694206A800F074FA44
:100D400006AB07CB03AB07C350460A9900F025FB5F
:100D50008DE80700A0F500501F3800900398002D83
:100D600009DD42F21F014A46084403A90390684680
:100D700000F084FD08E0A0F500504A461F3803A9A2
:100D80000390684600F08EFD8DE807000004000C1B
:100D900003D04FF0FF30410800E01046B8F1000FDB
:100DA00003D00022009215461FE0751E06D400F005
:100DB000B5F902F1300262556D1EF8D5B346012235
:100DC000084302D000227F1C04E02078302801D1A3
:100DD00000227F1E002A099787D01DE0112D07DA17
:100DE00000F09CF9303262556D1C50EA0102F5D1D9
:100DF00008430FD10021681E05E0235C625C635448
:100E0000491C2254401E8142F7DBAB46A81B401E02
:100E1000099001E0009848B1002004F80B000B98FD
:100E2000099AC0F80880C0E9002B7DE711264FF031
:100E300000085AE72DE9F04F88460446D21D22F0FB
:100E4000070191B0D1E90001CDE90A0109F059FC8F
:100E500002460B98C00F01D02D2007E020688107C3
:100E600001D52B2002E0202101EAC000032A0990CD
:100E700001D0072A05DB03464146204600F094F9DD
:100E80000FE12078800601D5E06900E00620B8F186
:100E9000650F814606D0B8F1660F18D0B8F1670F1C
:100EA00072D132E00020B9F1110F009001DB112363
:100EB00001E009F101030AAA01A90CA8FFF7E5FE68
:100EC000DDE90C70002609F10105834648E00120A8
:100ED0004B4600904FF000470AAA01A90CA8FFF763
:100EE000D4FEDDE90DB00C995D46002618B909F174
:100EF000010001EB0005B9EB050003D4C0F1FF369A
:100F000009F10105A5EB09002BE0B9F1010F01DAA8
:100F10004FF001090020B9F1110F0090484601DDA2
:100F2000112300E003460AAA01A90CA8FFF7ADFEB1
:100F3000DDE90C704D4600268346207800070AD470
:100F4000AB4500DA5D4601A8012D04DD411911F819
:100F5000011C302907D04F4502DA17F1040F04DADB
:100F60000120824610E06D1EEEE7002F02DCED1B33
:100F70003E4403E0781CA84200DD0546A7EB0600CE
:100F800000F1010A4FF000472078000703D4AA457A
:100F900001DB4FF0FF3A0021B7F1004F0DF143089C
:100FA0008DF8431023D002202B23002F01DA7F423B
:100FB0002D234FF00A0C011EA0F1010000DC4FB1FF
:100FC00097FBFCF10CFB11720F4602F1300208F89E
:100FD000012DF0E7A8F1010003702188090501D572
:100FE000452100E06521A0F1010800F8011C0998E5
:100FF0000FA9A1EB080707F1070700B1012000EBDB
:10100000050101EBEA70A1693844A1EB0000A0F1F1
:101010000100A0612078C00602D42046FFF7ECF959
:10102000099830B1D4E901219047206A00F101000C
:1010300020622078C00620D52046FFF7DDF91CE0AD
:10104000002E04DBB34502DD01A8805D00E0302006
:10105000D4E901219047206A761C401CBAF1010AAC
:1010600020620AD100F053F8C0680168405CD4E9FE
:1010700001219047206A401C2062281EA5F101052D
:10108000DEDC07E0D4E9012118F8010B9047206A63
:10109000401C2062381EA7F10107F3DC2046FFF751
:1010A000C2F9022011B040E601694A1C02610878C9
:1010B000704700B58FB0CDE9013100210591054998
:1010C0007944CDE9031011466846FFF751FA0FB095
:1010D00000BD0000E5FFFFFF0A6802F8010B0A608F
:1010E000704710B5436913B1AFF3008001E0FFF71B
:1010F000ACF9012010BD127800F124010A70002221
:101100004A700122EDE711684FF0FF32E9E710B5B0
:10111000FFF734F9203010BD09F008BB30B5B0F14D
:101120000A024FEA900E71F100034EEA817EB0EBA5
:101130000E0061EB91014FEA101E4EEA017E10EBAA
:101140000E0041EB11114FEA102E4EEA016E10EB2A
:101150000E0041EB11214FEA104E4EEA014E10EB0A
:101160000E0041EB1141401841F100014FEAD0005F
:1011700040EA41704FEAD10110EB80054FEA81044B
:1011800044EA907444EB01046D1944EB0404521BCF
:10119000A3414FF0000348BF0A3200D530BD401CC8
:1011A00041F1000130BD00002DE9F0411F46044629
:1011B00003260168072A01F4006004DB08B116A5C4
:1011C00005E016A503E008B115A500E015A521F07E
:1011D00010002060A069C01EA0610FB1401EA06178
:1011E0002046FFF709F94FB1D4E90121384690476D
:1011F000206A401C2062C01C206206E0206AFAE7D8
:10120000D4E9012115F8010B9047761EF8D220464B
:10121000FFF709F9BDE8F0814E414E006E616E00A6
:10122000494E4600696E66002DE9F0478146164634
:101230008AB035487844D0E9002380680092CDE92F
:101240000130314878440C38D0E902230069039218
:101250004FF03702CDE9043041F69B30014491FB59
:10126000F2F0A0F1800502FB10141B3C02D5644291
:10127000012000E00020DFF890A080460027FA441B
:10128000AAF1C60A0DE0E00709D03246684607EB2E
:1012900047010AEB810100F005FB8DE807006410AF
:1012A0007F1C002CEFD1184F7F44B43F17E0E807B4
:1012B00013D007EB04100DF1180A90E80E00AAE80D
:1012C0000E00C068F04201D198190890324606A974
:1012D00003A800F0E7FA03AB07C36D10641C002DF0
:1012E000E5D132466946B8F1000F03A802D000F0FC
:1012F000C5FA01E000F0D6FAC9E90001C9F80820F2
:101300000AB0BDE8F087000014CD010001491820A3
:10131000ABBEFEE7260002004FF0013C50F8042B64
:1013200051F8043B9A4221D1A2EB0C03934313EAF8
:10133000CC1317D150F8042B51F8043B9A4215D125
:10134000A2EB0C03934313EACC130BD150F8042BFC
:1013500051F8043B9A4209D1A2EB0C03934313EAE0
:10136000CC13DBD04FF00000704700BFD01A01BA99
:10137000B1FA81F101F0180122FA01F0CB40C1F17C
:101380002001DBB2C0B2C01A2CFA01F3D11A91438A
:1013900011EAC311E6D1704770475FEA400C08BFFD
:1013A00091F0000F4FEA8C234FEAC12243EA5151DA
:1013B0004FEA1C5018BF00F5F0404FEA300018BF4C
:1013C00041F000415FEA6C5C00F02980BCF1FF3F16
:1013D00008BF40F080407047130C06BF12044FF066
:1013E000100C4FF0000C130E04BF12020CF1080C8D
:1013F000130F04BF12010CF1040C930F04BF9200F1
:101400000CF1020CD30F04BF52000CF1010C114679
:101410004FF00002A0F11F00A0EB0C00704711F08C
:10142000004F08BF704731F000413FF4D5AF0B0CBF
:1014300006BF09044FF0100C4FF0000C0B0E04BF58
:1014400009020CF1080C0B0F04BF09010CF1040C8C
:101450008B0F04BF89000CF1020CCB0F04BF4900B5
:101460000CF1010CCCF12003A0EB0C0022FA03F3E9
:1014700002FA0CF241EA030100F10100704720F08A
:101480007F4C80EA030023F07F47ACEB070303F5B2
:101490007C5300F0004003F1FF032DE980494FEA3F
:1014A000154B09B44FEA144325EA0B4E24EA0348CE
:1014B0000FF2042606EB132749083E785FEA320252
:1014C00003FB0667C7F5000707FB06F64FEA54372C
:1014D0004FEAD64606F1020607FB066CCCF1005C2B
:1014E0004FEA1C472CEA074C07FB06F40CFB06F5F9
:1014F00004EB15464FEA961634BF00204FF000402B
:101500004FEAD13706FB07FC4FEA1C4C0CFB0BF7EC
:10151000D21B03FB0CF761EB07010CFB0EF7B0EBE2
:10152000074072EB17420CFB08F734BFA2EB0742EF
:10153000B2EB074261EB17414FEA0C444FEA9107C7
:1015400006FB07FC4FEA1C4C0CFB0BF7B0EBC7404B
:1015500072EB573203FB0CF734BFA2EBC742B2EB7E
:10156000C74261EB57310CFB0EF7B0EBC70072EBD3
:1015700057720CFB08F734BFA2EBC702B2EBC702ED
:1015800061EB5771039F4FEA816141EA921104EBCD
:10159000CC044FEAD1374FEA826206FB07FC42EAED
:1015A00090124FEA80604FEA1C4C0CFB0BF7D21BE9
:1015B00003FB0CF761EB07010CFB0EF7B0EB0740E8
:1015C00072EB17420CFB08F734BFA2EB0742B2EBF9
:1015D000074261EB17414FEA8C554FEA910704EB44
:1015E0009C2406FB07FC4FEA1C4C0CFB0BF7B0EBF2
:1015F000C74072EB573203FB0CF734BFA2EBC74274
:10160000B2EBC74261EB57310CFB0EF7B0EBC700F2
:1016100072EB57720CFB08F734BFA2EBC702B2EBB8
:10162000C70261EB577115EB4C254FEA816141EA26
:1016300092114FEA82624FEAD13742EA901206FBDA
:1016400007FC44F100044FEA80604FEA1C4C0CFB9D
:101650000BF7D21B03FB0CF761EB07010CFB0EF73A
:10166000B0EB074072EB17420CFB08F734BFA2EB5C
:101670000742B2EB074261EB174115EB1C154FEA2D
:10168000813141EA92414FEA823242EA90424FEA86
:1016900080304FEA0C7644F1000448EA03434EEAF6
:1016A0000B484FF0000EB2EB080C71EB030724BFA0
:1016B000624639464EEB0E0E4FF0000B00185241B9
:1016C00049414BEB0B0BB2EB080C71EB03077BF1C1
:1016D000000B24BF624639464EEB0E0E4FF0000B56
:1016E0000018524149414BEB0B0BB2EB080C71EB6C
:1016F00003077BF1000B24BF624639464EEB0E0E0A
:1017000051EA020718BF46F0010616EB0E7655F1B6
:10171000000254F1000103D5BDE88901BDE800884D
:10172000BDE88901BDE80048B619524141EB01010D
:10173000A3F10103704780807F7E7D7C7B7A79787E
:10174000777676757473727171706F6E6E6D6C6C86
:101750006B6A6A6968686766666564646363626128
:101760006160605F5F5E5E5D5D5C5C5B5B5A5A59A9
:101770005958585757565655555554545353525215
:101780005251515050504F4F4F4E4E4D4D4D4C4C6D
:101790004C4B4B4B4A4A4A494949484848474747B6
:1017A00047464646454545444444444343434342F3
:1017B000424242414141002B26D4770021D01CB542
:1017C0004FEA370703B44FF010004FF010014FF00D
:1017D00000000FBCBDE810400BF1010BBBF1010F85
:1017E00008BF5FEA170722BF12F1010211F10101E0
:1017F0004FF0004143F1000300F0004043EA0000D5
:101800007047F9D35708DAE746EA064613F1400F66
:101810004FEA16461FDD13F1200FDFBF16430A46BD
:10182000002120335B42C8D0C3F1200746EA0646B8
:1018300002FA07F74FEA164646EA0706C3F1200701
:1018400022FA03F201FA07F721FA03F14FF000033D
:1018500042EA0702B1E746EA020646EA06464FEACE
:10186000164646EA0106BCBF46EA0646360C4FF06D
:1018700000034FF000024FF000019EE72DE9C04841
:10188000934630B491E8380007C831EA400C48BFAD
:1018900034EA430C03D5FFF7F2FDFFF78CFFF0BCF1
:1018A000BDE800882DE9C048934630B491E838007F
:1018B00007C810F0804F08BF13F0804F03D100F02D
:1018C00005F8FFF778FFF0BCBDE8008820F07F47FF
:1018D00080EA030023F07F4C07EB0C03A3F57C5355
:1018E00000F00040A3F1FE0392F0000F00F0B3807F
:1018F00095F0000F00F077802DE901494FEA114083
:101900004FEA144621EA004800FB06FC24EA064799
:1019100008FB06F607FB08F800FB07F718EB06487C
:101920004CEB164C4FEA124B18EB07484FEA1546A2
:101930004CEB174022EA0B4E0BFB06FC25EA064750
:101940000EFB06F607FB0EFE0BFB07F71EEB064E23
:101950004CEB164C4FF000061EEB074E4CEB174BB2
:1019600018EB0B0840F1000018EB0E0B58EB0008C9
:1019700040F100008F1A4FF000013CBFC943661BC5
:1019800014BFB5EB040C00213CBFC943F61B4FEA62
:1019900017444EEA8E0E27EA04454FEA1C4704FB23
:1019A00007622CEA074C05FB07F70CFB05F604FB66
:1019B0000CFC16EB074642EB174216EB0C4642EBCB
:1019C0001C421BEB060658EB0202414146EA9E060A
:1019D00001D5BDE80189B619524141EB0101A3F1DE
:1019E0000103BDE801894FEA14454FEA114724EA93
:1019F000054621EA074C05FB07F406FB07F70CFB3D
:101A000006F105FB0CFC11EB074144EB17444FEAD0
:101A1000124711EB0C4144EB1C4422EA074C05FB36
:101A200007F206FB07F70CFB06F605FB0CFC16EBB2
:101A3000074642EB174216EB0C4642EB1C456A1870
:101A400054F1000148BF7047B619524141EB010102
:101A5000A3F10103704795F0000F37D04FEA114210
:101A60004FEA144721EA024624EA074C02FB07F139
:101A700006FB07F70CFB06F402FB0CFC14EB074417
:101A800041EB17414FEA154714EB0C4441EB1C4165
:101A900025EA074C02FB07F506FB07F70CFB06F6E9
:101AA00002FB0CFC16EB074645EB174516EB0C4604
:101AB00045EB1C42121951F1000148BF7047B6199D
:101AC000524141EB0101A3F1010370474FEA144574
:101AD0004FEA114724EA054621EA074C05FB07F1C6
:101AE00006FB07F70CFB06F24FF0000605FB0CFCAB
:101AF00012EB074241EB174112EB0C4251EB1C4138
:101B000048BF7047921841EB0101A3F101037047F0
:101B10000000000006F0ECBB10B50022074B114698
:101B200001EB810403EB440434F81040491CC9B2B2
:101B300022441029F4D3C2F30F1010BD8A030020F1
:101B4000044890F83C00012801D0034800E0034815
:101B500008F0EEBC3C66002014A70108948101083F
:101B6000264910B508684FF6FF021040244A40F499
:101B7000E06010430860062004F0F6F9072004F046
:101B8000F3F9082004F0F0F9092004F0EDF90A2037
:101B900004F0EAF9172004F0E7F9282004F0E4F94A
:101BA0001E2004F0E1F9272004F0DEF907F0BEFD65
:101BB000154A1448D16941F00201D1610021018028
:101BC000018540F65F13838501238382018446F2F9
:101BD000600303838383818601878187A0F8401097
:101BE000018841F001010180906940F0010090619D
:101BF0000648416841F44061416010BD0CED00E0D1
:101C00000000FA05000400400010024000000140FE
:101C100008B5024908440090008808BD006C0040E7
:101C200008B5024A10440090016008BD006C0040F5
:101C3000002007F017BE00000148007807F012BE30
:101C40002800002070B515460E4604460AF05CF8E0
:101C500021461648FEF730FD144800F077FA30466A
:101C600000F028F964211248FEF737FE00222946C9
:101C70000F4800F05FF90F4C6070012000F008FA87
:101C800064210A48FEF729FE64210948FEF725FE73
:101C90000AF042F86078142802D0172802D003E036
:101CA000012070BD0AF023F8002070BD4C640020B4
:101CB000206300205E01002010B504460AF024F8DD
:101CC00021460648FEF7F8FC044800F03FFA00F011
:101CD00043FA04460AF020F8204610BD4C64002068
:101CE0002DE9F0411C4615460E4607460AF00CF851
:101CF00023462A463146384600F07CF8142804D0A2
:101D00000AF00AF80020BDE8F0810AF005F8012089
:101D1000F9E700002DE9F0411C4615460E4607463E
:101D200009F0F2FF23462A463146384600F092F881
:101D3000084C607009F0F0FF6078142802D0172872
:101D400003D004E00120BDE8F08109F0D0FF0020BD
:101D5000F9E700005E01002010B5044609F0D4FF49
:101D600021460B48FEF7A8FC094800F011F9094983
:101D70004870012000F08CF964210548FEF7ADFDA4
:101D800064210548FEF7A9FDBDE8104009F0C4BF75
:101D90004C6400205E0100202063002070B51546D1
:101DA0000E46044609F0B0FF21460F48FEF784FCBA
:101DB0000D4800F07AF90D4CA9B20022607030464F
:101DC00000F0B8F86070012000F062F960706421E2
:101DD0000548FEF782FD64210548FEF77EFDBDE85B
:101DE000704009F099BF00004C6400205E010020A3
:101DF000206300202DE9F0411C4616460F4605469B
:101E000009F082FF29461048FEF756FC0E4800F004
:101E10009DF9384600F04EF8A1B20022304600F09D
:101E200062F80A4C6070012000F032F96421064823
:101E3000FEF753FD64210648FEF74FFD09F06CFFE5
:101E40006078BDE8F08100004C6400205E01002055
:101E5000206300202DE9F0411C4617460E4605463A
:101E600009F052FF29461048FEF726FC0E4800F004
:101E70006DF9384600F01EF8A1B20C4A304600F069
:101E800059F80A4CA41E6070012000F001F9642189
:101E90000548FEF722FD64210548FEF71EFD09F006
:101EA0003BFF6078BDE8F0814C64002060010020B9
:101EB0002063002010B5044639200FF0A9F9E0B2E4
:101EC0000FF0B1F9C4F307200FF0ADF9C4F30740E8
:101ED0000FF0A9F9200E0FF0A6F90FF069F9BDE88F
:101EE000104008F031BB70B5064614460D463A2046
:101EF0000FF08EF9E8B20FF096F9280A0FF093F977
:101F00000FF056F90CB1002011E008F01DFB1D2860
:101F10000FD1304600F052F905463B200FF078F91A
:101F20000FF046F92E44002CEFD020882844208062
:101F3000EBE770BD2DE9F041064614460D463C2006
:101F40000FF066F9E8B20FF06EF9280A0FF06BF99E
:101F50000FF02EF90CB1002020800C4F08F0F4FA9D
:101F60001E2810D1304600F03CFA054638703D205E
:101F70000FF04EF90FF01CF92E44002CEED0208803
:101F800028442080EAE7BDE8F08100005D010020E0
:101F900010B5044600F0C4F920785C2801D02F2841
:101FA00003D10021642000F032FABDE81040402047
:101FB00000F096B910B504F04FFF08B100F0CFF86B
:101FC000BDE81040302000F08BB9312000F088B916
:101FD00010B505200AF0D1FD5A2000F081F9044621
:101FE00005200AF0CAFD204610BD00002DE9F74F7C
:101FF00082B0834604980E46C700080E4FF0000AD0
:10200000C1F30729C1F30748009056200FF000F9EB
:10201000F0B20FF008F948460FF005F940460FF00E
:1020200002F900980FF0FFF804980FF0FCF80FF099
:10203000BFF83C4614E000BF08F086FA05461E28AB
:1020400001D07CB113E04021584600F0B4F957208C
:102050000FF0DEF80FF0ACF8641E0BF1400BA4B2E9
:10206000002CE9D108F070FA054614280ED0162D80
:1020700009D0FFF7ADFF0AF1010000F0FF0ABAF145
:10208000030FC2D1284605B0BDE8F08F1420FAE74F
:102090000146362000F017B910B508B100F040F93C
:1020A000BDE81040342000F01BB970B5054600F0C3
:1020B00021F904000DD00146284600F021F84128FE
:1020C00007D0142803D0422800D1B32070BD43208C
:1020D00070BD2819BDE87040FFF7DEBF10B504469B
:1020E00000F01EF920785C2801D02F2803D10021B0
:1020F000642000F08CF9BDE81040322000F0F0B808
:1021000070B5054600200E46012401E0641CE4B2CF
:10211000295D5C2913D02F2911D00029F6D1002484
:102120002844FFF7DBFF002C08D0B44206D041283A
:102130000AD0142806D0422800D1B32070BD641CF8
:10214000E4B2EDE7432070BD2046E1E7FF21FFF751
:10215000D7BF2B2000F054B8682000F045B810B568
:1021600022200FF055F80FF04CF804460FF020F83D
:10217000204610BD04480178012901D00020704795
:102180000021017001207047380000202DE9F04146
:102190000FF037F806460FF034F805460FF031F827
:1021A00004460FF02EF807460FF002F846EA052025
:1021B00040EA044040EA0760BDE8F08170B505469A
:1021C00027200FF025F80FF01CF80400264607D052
:1021D0000FF017F8641E05F8010B14F0FF04F7D197
:1021E0000EF0E6FF304670BD10B504460C200FF02F
:1021F0000FF820460FF017F8BDE81040FFF7C6BFF4
:1022000010B504460A200FF003F820460FF00BF833
:102210000EF0F7FF04460EF0CBFF204610BD10B5C0
:1022200004464A200EF0F4FFE0B20EF0FCFFC4F3C7
:1022300007200EF0F8FFC4F307400EF0F4FF002073
:102240000EF0F1FF0EF0B4FFBDE8104008F07CB9CD
:102250002DE9F04115000F46804601D0002028707E
:102260004C200EF0D5FF38460EF0DDFF0EF0A0FF3B
:1022700008F06AF90646142823D127200EF0C8FF7B
:102280000EF0BFFF0EF0BDFF04460EF0BAFF0EF0D9
:10229000B8FF0EF0B6FFFFF779FF014684B1224682
:1022A0004046FFF7A3FE064614280AD108EB44284F
:1022B00015B1287820442870381B10F0FF07CFD1C3
:1022C0003046BDE8F08110B50C460EF0A1FF204667
:1022D0000EF0A9FF0EF06CFFBDE8104008F034B915
:1022E00010B50EF095FF0EF063FFBDE8104008F04A
:1022F0002BB90000014600E0491C0A78002AFBD1F6
:1023000006E000BF11F8012D5C2A03D02F2A01D06E
:102310008142F7D1814200D0491C081AC0B27047EF
:1023200070B5054601200EF073FF0EF06AFF4328DA
:1023300028D22B20FFF764FF102823D22F200EF085
:1023400067FF00200EF06FFF3220FFF7C9FF14284F
:1023500018D1CF20FFF754FF040013D04C20FFF713
:1023600043FF00EB04214C2000F051F85020FFF710
:102370003BFF00EB0421502000F049F800217020C1
:1023800000F045F82F200EF043FF2C7806E000BF48
:1023900015F8014F5C2C0AD02F2C08D020460EF0E7
:1023A00042FF002CF4D1BDE870400EF001BF0020C8
:1023B0000EF039FFF7E770B505460C462C200EF0FD
:1023C00027FF20460EF02FFF3CB128780EF02BFFA0
:1023D0006D1C641E14F0FF04F7D1BDE870400EF0D0
:1023E000E7BE70B505462D200EF012FF0EF009FF76
:1023F0000400264607D028780EF015FF6D1C641ED9
:1024000014F0FF04F7D10EF0D3FE304670BD70B566
:1024100005460C460D200EF0FBFE28460EF003FF8D
:10242000E0B20EF000FFC4F307200EF0FCFEC4F390
:1024300007400EF0F8FE200E0EF0F5FEBDE87040ED
:102440000EF0B6BE012009F06DBC10B502F0D4FC50
:1024500005F004FFBDE81040FFF7F4BF10B50446D7
:102460000121502009F0EAFCC8B1002009F07EFCEF
:102470002070002009F07AFC6070002009F076FCE2
:10248000A070012009F072FCE07009F011FD00213C
:10249000502009F0D3FC09F00BFD012010BD09F01C
:1024A00007FD002010BDF8B50D46064609F050FCAA
:1024B0006846FFF7D3FF040011D09DF801009DF896
:1024C000001000EB0120C0F30D0030809DF80300E8
:1024D0009DF8021000EB0120C0F38D00288009F068
:1024E0003FFC2046F8BD000030B50E480E4C0023DE
:1024F0000078042234F81010401CC0B20D460528A4
:1025000000D3002034F810104D1BADB2521E2B44E6
:1025100012F0FF02F0D1C3F38F004FF4FA71484379
:1025200030BD0000000000208003002010B50446EC
:1025300012490FF0BDF912490FF004F821460FF0CF
:10254000B7F910490EF0FEFF21460FF0B1F90E4920
:102550000EF0F8FF21460FF0ABF90C490EF0F2FF38
:1025600021460FF0A5F90A490EF0ECFF21460FF0C5
:102570009FF9BDE8104007490EF0E4BF92EBD72C5D
:10258000EEC70B310DBDA2343E5ADE37774BBB3A56
:1025900045B8353D145C1C3F2DE9F04706461A4FFF
:1025A0000898984691468A46002540B10AF026FAD6
:1025B00004461649884504DA3046BDE8F0873C46B3
:1025C000F7E7134890F82C0018B15046FFF7AEFF1C
:1025D0000546494640460EF0B5FF29460FF0EEFA93
:1025E00021460FF065F90446394650460EF0AAFF21
:1025F00008490FF05DF931460FF05AF92146BDE860
:10260000F0470FF013B80000339388436F12833AFA
:102610003C66002066A6CA422DE9F0411F4690465E
:102620000C4606460AF0EAF905460F4920460EF028
:1026300089FF0E490FF03CF90446414638460EF03A
:1026400081FF29460FF034F921460EF0EFFF3146A5
:102650000FF02EF90649884202DA0020BDE8F08129
:10266000BDE8F0410EF062BA3393884366A6CA42D1
:102670006F12833A2DE9FF4F87B090460F461D46F3
:10268000182221496846FEF7F6F80026012440F298
:10269000013B40F2035941F60C0A00BF09F01CFC53
:1026A000684602F0A1FE58F8251018A35A4640F2D9
:1026B000191006F0FBFB37F8151000234A46504668
:1026C00006F01AFC00222146684602F0B9FE0446D4
:1026D000012807D0022C0ED0002CDFD10BB03046E1
:1026E000BDE8F08F2B4642463946079800F010F8B7
:1026F00007E00126D2E707EB45014A46504602F0C3
:102700004FF80028CAD0F4E7BCDA01084C2F6D005E
:102710002DE9FF4F8DB0002004908F481F460E46D4
:10272000848831F8175008880A90B1F802B0B1F8DF
:1027300004A0B1F806904FF0010852F8270087492D
:102740000FF0B6F84FF07C510EF0FCFE0FF030F8B1
:1027500081490D9A01EB42010691888101210D9872
:1027600004F068FB09F0B8FB7DA1002002F014FE24
:10277000F580B580758035800D980AF053F9039087
:102780007AA1002002F008FE002340F203522946FD
:10279000192006F0B1FB78A14FF4406002F0FCFD77
:1027A00077A340F2036240F60C40039906F07EFBEB
:1027B00074A14FF4C05002F0EFFD0D9804F02CFB13
:1027C000014641F60C0006F0C7FB64200AF07EF9D2
:1027D0000028D1D009F0C2FF112856D008DC01280A
:1027E0001AD0042878D0092877D0102813D106E011
:1027F000212873D0402808D041280CD162E042F251
:102800000F70854205D26D1C02E0632D01D96D1E4B
:10281000ADB20120049089E0069864215B4A80896A
:10282000484303210590880202F0B4FD40F20362A0
:1028300005A940F60C4001F0C1FF00B3012004904F
:1028400005980EF0EDFF0290642D19D3039810F057
:10285000FF4F17D028460EF0E3FF05460698808903
:102860000EF0DEFF29460EF0E1FE014602980EF062
:10287000DDFE47490EF0DAFE0EF09AFF85B201E068
:102880004FF47A7509F028FB50E040F69800844236
:1028900001D2641CA4B2642111200DF095F850B14E
:1028A00038E0641CA4B220460EF0BAFF39490EF09D
:1028B000FFFF01F0BBFA012111200DF085F800287F
:1028C000EFD027E0C82C01D9641EA4B264214120B6
:1028D0000DF07AF868B11DE02CE011E016E0641EFE
:1028E000A4B220460EF09CFF2A490EF0E1FF01F051
:1028F0009DFA012141200DF067F80028EFD009E092
:1029000040F29E70844205D2643402E0DC2C01D98E
:10291000143CA4B220460EF083FF1E490EF0C8FFFF
:1029200001F084FA0C48848001F0B4F8B8F1000F8B
:102930007FF41EAF00210D9804F07CFA0A983080D5
:10294000A6F802B0A6F804A0A6F8069026F817503C
:10295000049811B0BDE8F08F3C66002000002041D3
:10296000B5F7CAD4C1F7C1BF00000000C1F7C1BFAD
:10297000B1B6C2CA3A000000C1F7C1BF3A000000B8
:102980004C2F6D00CAE4B3F63A00000014D10108E0
:102990000000C8420AD7233C2DE9F04F8FB0814692
:1029A0002022454902A8FDF766FF4449444801EB4F
:1029B000C906494600EB41000D9001243C36808950
:1029C0004FF0000A40F20355B9F1010F05D0B9F1FB
:1029D000020F02D040F2015B08E000EBC00101EB06
:1029E00000104FF6FF71AB4601EA8000ADF8000021
:1029F00040F60C0741F60C0809F06EFA02A802F046
:102A0000F3FC494640F2151006F094FC2DA35A46FB
:102A1000BDF80010384606F06FFA318800232A46C8
:102A2000404606F069FA0022214602A802F008FD9D
:102A300004000FD0012C24D0022C33D0032CE5D17C
:102A40002A463146404601F0ABFE0028DED04FF06A
:102A5000010ADBE7BAF1000F0AD023211AA003F024
:102A600021FA062807D0072808D00124002CC3D15A
:102A70000FB0BDE8F08F00F097FAF9E700F02AFAFE
:102A8000F4E75A466946384601F08AFE0028BDD070
:102A9000BDF800106420B1FBF0F10D98818100F0C9
:102AA000F9FFB3E73146484600F016F80028A3D0F6
:102AB0004FF0010AA0E700009CDA0108C865002079
:102AC0003C6600204C2F6D00B1A3B4E6B1EAB6A875
:102AD000CAFDBEDD203F00002DE9FF5F80460020DB
:102AE00007460390B8480D4640F2035684880020FC
:102AF0008346019002905FEA080005D0012855D076
:102B0000B8F1020F04D151E040F2015BAFA0029096
:102B100009F0E2F90121404604F08CF9AA4901EBE1
:102B2000480A404609F07EFF8146B8F1000F3FD0C9
:102B30004E46A7A1002002F02FFC2988002340F276
:102B40000352192006F0D8F9A4A14FF4406002F016
:102B500023FC5A46494640F60C40029B06F0A6F973
:102B6000A0A14FF4C05002F017FC404604F054F905
:102B7000014641F60C0006F0EFF9642009F0A6FFCB
:102B80000028CED009F0EAFD112877D040DC0128DA
:102B900056D0042873D0092872D01028C1D12888B3
:102BA00042F20F71884249D2401C46E0B346ADE77D
:102BB00009F0E6FD064609F0EDFE0146002002465A
:102BC000009033464846FFF7E7FC064680A1002008
:102BD00002F0E2FB2988002340F20352192006F09C
:102BE0008BF982A14FF4006002F0D6FB5A463146C1
:102BF00040F60C00029B06F059F978A14FF4805082
:102C000002F0CAFB5A46494641F20C00029BA5E776
:102C100021287DD040280CD0412882D1C82C01D950
:102C2000641EA4B2642141200CF0CEFE002870D0B6
:102C3000B3E02888632801D9401E2880012770E767
:102C4000B8F1000F1DD0BAF80C00642148430321ED
:102C50000190684A880202F09DFB5A4601A940F69D
:102C60000C4001F0ABFD0028E9D0012701980EF0DF
:102C7000D7FD81462888642838D234E051E09BE0B3
:102C800081E051485B4A0321808901904FF4006044
:102C900002F080FB5A4601A940F60C0001F08EFDBF
:102CA0000028CCD0012701980EF0BAFD8146288873
:102CB000642818D316F0FF4F10D00EF0B1FD064671
:102CC000414880890EF0ACFD31460EF0AFFC014664
:102CD00048460EF0ABFC0EF06BFD2880404609F034
:102CE000A1FE814664E74FF47A7018E016F0FF4FBA
:102CF000A5D00EF095FD0646BAF80C000EF090FD3A
:102D000031460EF093FC014648460EF08FFC01E080
:102D10003FE030E038490EF089FC0EF049FD288094
:102D2000FFE640F69800844201D2641CA4B26421FC
:102D300011200CF049FE58B12FE0641CA4B22046CB
:102D40000EF06EFD31460EF0B3FD01F06FF800E0BD
:102D50002A4E012111200CF037FE0028EDD01CE096
:102D6000641EA4B220460EF05BFD31460EF0A0FDBD
:102D700001F05CF800E0214E012141200CF024FE1E
:102D80000028EDD009E040F29E70844205D2643400
:102D900002E0DC2C01D9143CA4B220460EF040FD28
:102DA00016490EF085FD01F041F80748848000F0D7
:102DB00071FE03980028B3D00021404604F03AF891
:102DC00004B03846BDE8F09F3C6600204C2F6D00F3
:102DD000C1F7C1BFB1B6C2CA3A000000B1EABFF63E
:102DE0003A000000CAE4B3F63A000000B9A4BFF606
:102DF0003A00000014D101080000C8420AD7233C61
:102E00002DE9F0472B49804601EB08002A4990F84C
:102E10002060012401EBC800002500F13C0A012ECE
:102E200016D0022E43D1254FDFF8949009F054F8C4
:102E3000384602F0D9FA00222146384602F000FB5B
:102E40000446052831D2DFE800F006181E282C00C1
:102E50001A4F283FE8E7002D29D0232119A003F0BD
:102E600021F8062805D0072821D1BDE8F04700F059
:102E700031B8BDE8F04700F097B809EB061200231F
:102E800004E00125D2E709EB061201235146404632
:102E9000FFF7F0FB0028C9D0F3E709EB0612022385
:102EA000F4E709EB06120323F0E7002CBED1BDE8DE
:102EB000F08700003C660020C8650020FCDA0108AD
:102EC000B4D90108B1A3B4E6B1EAB6A8CAFDBEDD23
:102ED000203F000010B5062231494FF4807001F008
:102EE00077FE2F4845F6A5214FF47A7482888A42EE
:102EF00003D0E20002804480818072222949802030
:102F000001F066FE274845F6A422B0F87010914201
:102F100044D046F6B321A0F86410A0F86810A0F8D9
:102F20006C10A0F86640A0F86A40A0F86E4041819D
:102F30008181C18101824182048544858485C48563
:102F400004864FF40041018041808180C18001816D
:102F50008182C182018341838183C4830484448448
:102F60008484C48444868486C48604874487848792
:102F7000A0F84440A0F84C40A0F85440A0F85640B7
:102F8000A0F85840A0F85A40A0F85C40A0F85E4075
:102F9000A0F86040A0F86240A0F8702010BD0000CA
:102FA0002C020020C865002010B5062205494FF408
:102FB000807001F01DFE7222BDE8104002498020A1
:102FC00001F016BE2C020020C86500202DE9F04F4C
:102FD0000746744800258BB084882E4608F07CFF95
:102FE00040F20440052F0FD2DFE807F00305070980
:102FF0000B006DA106E071A104E075A102E079A1CA
:1030000000E07DA102F0C8F98049DFF804A205A81C
:10301000EB4601EB47080A90B8F822102BF8151080
:103020000BEB45006D1CB8F81810EDB281820A2D2B
:1030300002D026B10A2103E000250126FAE729463D
:10304000684608F045FE2AF817000EB10A2100E094
:1030500029460A9808F03CFE0AEB4709A9F8140033
:103060000EB10A2100E02946684608F031FE2AF830
:1030700017000EB10A2100E029460A9808F028FE40
:10308000A9F8140063A140F6064002F085F938461D
:1030900009F0FCFC014640F2026900234A4641F275
:1030A000082005F003FF5DA140F6144002F074F91A
:1030B000384609F051FC014600234A4641F21620E9
:1030C00005F0F4FE282009F001FD0028A4D009F045
:1030D00045FB11281FD00BDC012817D0042815D080
:1030E000092899D140F29E7084424DD264344AE05E
:1030F000212845D041288FD1C82C01D9641EA4B203
:10310000642141200CF060FC80B33DE0FFF74CFFF0
:103110000BB0BDE8F08F40F69800844201D2641CE9
:10312000A4B2642111200CF04FFC58B12CE0641CB7
:10313000A4B220460EF074FB49460EF0B9FB00F035
:1031400075FE01E0DFF8DC90012111200CF03CFC61
:103150000028ECD018E0641EA4B220460EF060FBFC
:1031600049460EF0A5FB00F061FE02E0FFE7DFF844
:10317000B490012141200CF027FC0028EBD003E0A3
:10318000DC2C01D9143CA4B220460EF049FB2549A1
:103190000EF08EFB00F04AFE0248848000F07AFCBC
:1031A0003AE700003C6600203CB7DB20B3BE3E207F
:1031B000D7D4B6AFB5F7C1E3000000003CC8D5BE18
:1031C000F9413E20D7D4B6AFB5F7C1E30000000007
:1031D0003CC8D5BEF9423E20D7D4B6AFB5F7C1E35F
:1031E000000000003CCAB1BEF9433E20D7D4B6AFC0
:1031F000B5F7C1E3000000003CCAB1BEF9443E206F
:10320000D7D4B6AFB5F7C1E3000000005E6200207E
:10321000C8650020C1F7C1BF3A000000BCC6D1B9E3
:103220003A0000000AD7233C10B5044602F0CAFE5B
:1032300040F60E00052C09D2DFE804F003050D0F5F
:10324000110008A100E00BA102F0A6F82046BDE89D
:10325000104001F0ADBE0BA1F6E70EA1F4E711A1FD
:10326000F2E70000B7DB20B3BE20D7D4B6AFB5F786
:10327000C1E30000C8D5BEF94120D7D4B6AFB5F739
:10328000C1E30000C8D5BEF94220D7D4B6AFB5F728
:10329000C1E30000CAB1BEF94320D7D4B6AFB5F739
:1032A000C1E30000CAB1BEF94420D7D4B6AFB5F728
:1032B000C1E300002DE9F14F88B018227849684633
:1032C000FDF7D9FA774808990125848876484FF4A4
:1032D000A06800EB410606F114073236002041F2E7
:1032E0000C0940F2035A41F60C0B069001E00798D6
:1032F00058B108F0F1FD684602F076F840F215107A
:10330000089906F017F800200790398800234246F4
:10331000484605F0F1FD318800235246584605F035
:10332000EBFD2946684602F04FF860A14FF40060BB
:1033300002F032F8089809F00FFB01465DA340F255
:10334000026240F60C0005F0B1FD192009F0BEFB49
:103350000028EAD02946684602F036F809F0FEF95E
:10336000112849D008DC012819D004282ED00928BA
:103370007CD0102817D10CE021287DD0402802D025
:10338000412810D155E06D1CEDB2032D0BD3012562
:1033900009E0012D00D803256D1EEDB203E0012DDB
:1033A00006D0022D08D0002DAFD109B0BDE8F08FB6
:1033B00042463946484602E052463146584601F0F8
:1033C000EFF90028A1D0012006909EE7069800287A
:1033D000EBD0232138A002F065FD062802D0072893
:1033E00006D102E0FFF7E0FDDFE7FFF7DDFD002596
:1033F000002D7FF47BAFD8E740F69800844201D2DD
:10340000641CA4B2642111200CF0DEFA50B137E044
:10341000641CA4B220460EF003FA2B490EF048FAC1
:1034200000F004FD012111200CF0CEFA0028EFD0AD
:1034300026E0C82C01D9641EA4B2642141200CF0FE
:10344000C3FA50B11CE0641EA4B220460EF0E8F9A5
:103450001D490EF02DFA00F0E9FC012141200CF08D
:10346000B3FA0028EFD00BE000E005E040F29E70D8
:10347000844205D2643402E0DC2C01D9143CA4B2AD
:1034800020460EF0CDF910490EF012FA00F0CEFCF5
:103490000448848000F0FEFA002D7FF428AF84E712
:1034A0006CDA01083C660020C8650020BCC6D1B9B2
:1034B0003A0000006B506100B1A3B4E6B1EAB6A8CF
:1034C000CAFDBEDD203F00000AD7233C2DE9F14FA5
:1034D000774882B0012584887648029940F20267D5
:1034E00000EB410606F10A082836002041F20C0BD9
:1034F00040F2035941F60C0A009001E0019858B1DE
:1035000008F0EAFC6C4801F06FFF40F215100299D8
:1035100005F010FF00200190B8F8001000233A4693
:10352000584605F0E9FC318800234A46504605F02C
:10353000E3FC2946604801F047FF60A14FF40060BA
:1035400001F02AFF029809F027FA01465DA33A46E6
:1035500040F60C0005F0AAFC192009F0B7FA002883
:10356000EBD02946544801F02FFF09F0F7F8112855
:1035700049D008DC012819D004282DD009287CD096
:10358000102817D10CE021287DD0402802D04128F6
:1035900010D155E06D1CEDB2032D0BD3012509E0D0
:1035A000012D00D803256D1EEDB203E0012D05D0DD
:1035B000022D07D0002DAFD1BDE8FE8F3A4641461F
:1035C000584602E04A463146504601F0E9F80028E4
:1035D000A2D0012000909FE700980028ECD0232182
:1035E00039A002F05FFC062802D0072807D103E0CB
:1035F000BDE8FE4FFFF7D8BCFFF7D6FC0025002D35
:103600007FF47BAFD8E740F69800844201D2641C77
:10361000A4B2642111200CF0D7F950B137E0641C3A
:10362000A4B220460EF0FCF82B490EF041F900F050
:10363000FDFB012111200CF0C7F90028EFD026E096
:10364000C82C01D9641EA4B2642141200CF0BCF93D
:1036500050B11CE0641EA4B220460EF0E1F81E49F1
:103660000EF026F900F0E2FB012141200CF0ACF94C
:103670000028EFD00BE000E005E040F29E708442AD
:1036800005D2643402E0DC2C01D9143CA4B22046FB
:103690000EF0C6F810490EF00BF900F0C7FB044815
:1036A000848000F0F7F9002D7FF428AF84E7000054
:1036B0003C660020C865002054DA0108CEC2B6C8B6
:1036C0003A000000A1E60000B1A3B4E6B1EAB6A852
:1036D000CAFDBEDD203F00000AD7233C2DE9F14F93
:1036E00088B0182278496846FDF7C5F877480899E8
:1036F0000125848876484FF4A06800EB410700203C
:1037000007F11E0641F20C0940F2035A41F60C0B78
:10371000069001E0079858B108F0DEFB684601F01A
:1037200063FE40F21510089905F004FE0020079092
:10373000398800234246484605F0DEFB31880023E5
:103740005246584605F0D8FB2946684601F03CFE33
:1037500060A14FF4006001F01FFE089809F096F98F
:1037600001465EA340F2036240F60C0005F09EFBAA
:10377000192009F0ABF90028EAD02946684601F083
:1037800023FE08F0EBFF112849D008DC012819D0EE
:1037900004282ED009287CD0102817D10CE021282D
:1037A0007DD0402802D0412810D155E06D1CEDB2EB
:1037B000032D0BD3012509E0012D00D803256D1E33
:1037C000EDB203E0012D06D0022D08D0002DAFD1BF
:1037D00009B0BDE8F08F42463946484602E05246FD
:1037E0003146584600F0DCFF0028A1D001200690A9
:1037F0009EE706980028EBD0232139A002F052FB67
:10380000062802D0072806D102E0FFF7CDFBDFE74C
:10381000FFF7CAFB0025002D7FF47BAFD8E740F609
:103820009800844201D2641CA4B2642111200CF0DF
:10383000CBF850B137E0641CA4B220460DF0F0FF85
:103840002B490EF035F800F0F1FA012111200CF0AF
:10385000BBF80028EFD026E0C82C01D9641EA4B222
:10386000642141200CF0B0F850B11CE0641EA4B2F9
:1038700020460DF0D5FF1E490EF01AF800F0D6FADA
:10388000012141200CF0A0F80028EFD00BE000E06F
:1038900005E040F29E70844205D2643402E0DC2CE4
:1038A00001D9143CA4B220460DF0BAFF10490DF026
:1038B000FFFF00F0BBFA0548848000F0EBF8002D14
:1038C0007FF428AF84E7000084DA01083C6600201A
:1038D000C8650020B2EED1B93A0000006B5061001B
:1038E000B1A3B4E6B1EAB6A8CAFDBEDD203F000030
:1038F0000AD7233C10B5402207494FF4C07001F0AD
:1039000067F90548C08FA0F5B4418B3903D0BDE8F5
:10391000104000F003B810BD3C66002030B50F4CDD
:10392000207830B1012807D0022808D003280BD115
:1039300008E000F08FF807E000F072F804E000F013
:1039400055F801E000F038F8E08F45F68B25A842E5
:1039500002D000F005F8E58730BD00003C6600208D
:1039600013484FF49671F0224185002180F8291008
:1039700080F82810C284012202728270C1704272E3
:1039800042F2957343814FF4FA638380322383714B
:103990000223C3714FF47A73C3850386642343867D
:1039A00080F82C100349416380F83C2070470000E8
:1039B0003C660020D9AB09000B4803214FF47A7212
:1039C00000F8061C00218176C280C17602220281A5
:1039D0000177428101224277052383818277C38167
:1039E000C27780F827107047426600200B480222F9
:1039F000002300F8062C83764FF47A71C1800121F0
:103A0000C1760281017742814177052282818177E7
:103A1000C281C17780F827307047000042660020DD
:103A20000B4801214FF47A7200F8061C8176C2809F
:103A30000022C27602230381027743814177052366
:103A400083818177C381C17780F827207047000088
:103A50004266002010B50E480023012100F8063C04
:103A60004FF47A728176C28054100482C1760224A7
:103A700004814282017744818282417705248481D6
:103A8000C2828177C4810283C17780F8273010BD5C
:103A900042660020402202494FF4C07001F0A8B8ED
:103AA0003C6600202DE9F84FDFF8E8B0012500263C
:103AB0009BF82840BBF82600ADF8000040F2015703
:103AC00041F21448DFF8D09040F6164A08F004FAA4
:103AD00031481C3001F088FCC4EBC4014944504615
:103AE00001F05AFC2DA33A46BDF80010404605F0FF
:103AF00003FA2948002229461C3001F0A1FC0500E8
:103B000023D0012D1DD0022DE6D13A46694640460C
:103B100000F046FE0028DFD0BDF80000962804D251
:103B20009620ADF8000008F0E2F8BDF800104FF460
:103B30009670814203D9ADF8000008F0D8F801264C
:103B4000CAE7641C04F00304F9E7002E0BD023211C
:103B500013A002F0A7F902281AD0062805D00728DA
:103B600001D1FFF7C7FEBDE8F88F0BF12605AC7059
:103B7000BDF80000ABF82600FFF78CFF28880DF099
:103B80004FFE0B490DF094FEA9780CF039FDEAE7E1
:103B900001259BE73C66002088DC0108A1E60000C7
:103BA000B1A3B4E6C5E4D6C3CAFDBEDD203F000024
:103BB000CDCCCC3D2DE9F84F404E0125002796F89D
:103BC0002940708DADF8000040F2015A4FF4AF78F3
:103BD000DFF8EC9040F6194B08F07EF934B1384824
:103BE000E03001F001FC012C05D00CE03448F83045
:103BF00001F0FAFB07E033A35246BDF8001040F68F
:103C0000144005F079F959F82410584601F0C4FB26
:103C10004FF00002294634B32948E03001F010FC8F
:103C2000050028D0012D21D0022DDCD1012CD3D1CB
:103C30005246694641F6140000F0B2FD0028CBD090
:103C4000BDF80000962804D29620ADF8000008F0D8
:103C50004EF8BDF80010414503D9ADF8008008F0DA
:103C600046F80127B8E71648F830D7E70CB100242A
:103C7000F7E70124F5E7002F0BD0232112A002F073
:103C800011F9022817D0062805D0072801D1FFF71F
:103C900031FEBDE8F88FBDF80000708586F8294038
:103CA000FFF7F8FE708D0DF0BBFD0B490DF000FE27
:103CB0000CF0BAFCEDE701258EE700003C66002021
:103CC000DCDB0108A1E60000B1A3B4E6C5E4D6C37D
:103CD000CAFDBEDD203F0000CDCCCC3D2DE9F05F1C
:103CE000002540F202594FF4247640F2145A4FF462
:103CF0008177DFF890804FF4897B234C08F0ECF853
:103D0000224A4946304606F01CFC204A51463046BD
:103D100006F017FC1EA1384601F03EFB1F4A0621A3
:103D2000384601F037FB2178584658F8211001F049
:103D300033FBFFF7F3FD02F0A9FF08F00FFD0128A8
:103D40000ED00428DAD13DB1232115A002F0AAF843
:103D500006280FD00728D1D1BDE8F05FFFF7CABD14
:103D60002078401CC0B22070042801D300202070AD
:103D70000125C3E7FFF7D2FDFFF78CFEBDE8F05F3A
:103D800004F0F0BCE4D701083C660020D4CE010862
:103D9000D2C7C6F7D0CDBAC53A00000014D1010889
:103DA000B1A3B4E6D0DEB8C4BDE1B9FB3F0000006A
:103DB0002DE9FF5F00249B4691468A46264625460C
:103DC0003AF814000DF02CFD17490DF071FDB046C6
:103DD00059F8246001462F4630460DF027FC054671
:103DE000014600980DF030FE03D2641CE4B25C453D
:103DF000E6D3394628460DF0E1FE044641463046FA
:103E00000DF0DCFE21460DF011FC04463946009809
:103E10000DF0D4FE21460DF04BFD04B04146BDE847
:103E2000F05F0DF08FBB00006F12833A01494860CC
:103E30007047000028000020044908700448C07939
:103E4000002801D0FDF7F8BE7047000028000020D0
:103E50003C6600200A4980B1012806D0022807D01C
:103E6000032808D04FF0FF3007E043F6982004E025
:103E700047F2305001E04EF6602048607047000085
:103E80000800002003F0FABEC0B2202800D27F2034
:103E9000024901EB0010A0F500707047A41D010855
:103EA000C0B2202800D27F20034900EB400001EB84
:103EB0000010A0F5C0607047946F010870B5C0B2E3
:103EC0000123114C60F31F211F229818400804EBB6
:103ED000400514F810606D7805EB0625ADB2A942D7
:103EE00005D1094901F1400101EB401070BD03D932
:103EF00000F1010083B202E0A0F1010082B293421E
:103F0000E3D90148403070BDA423010870B5C0B2A8
:103F10000123114D60F31F21F7229818400805EB8B
:103F2000400415F81060647804EB0624A4B2A142A2
:103F300005D10A4900EBC00001EBC00070BD03D9F8
:103F400000F1010083B202E0A0F1010082B29342CD
:103F5000E3D9024870BD0000E4270108D429010814
:103F600070B50C46064615460021A02007F066FFF6
:103F700060B1300A07F030FF40B1F0B207F02CFF1B
:103F800020B10121A02007F059FF48B907F090FFA8
:103F9000002070BD002007F0E9FEC04304F8010BCB
:103FA0006D1E15F0FF05F5D1012007F0DFFEC043BF
:103FB000207007F07DFF012070BD000070B50C4639
:103FC000064615460021A02007F038FF08B3300A46
:103FD00007F002FFE8B1F0B207F0FEFEC8B100BF83
:103FE00014F8010BC043C0B207F0F6FE88B16D1E95
:103FF00015F0FF05F4D107F05BFFA0254FF4C8745E
:104000000021284607F01AFF30B107F051FF0120C8
:1040100070BD07F04DFF03E0641E2404240CEFD1B3
:10402000002070BD10B501F0E3F810BD0349012078
:104030000870034940030860704700003800002002
:104040001404014010B501F0D3F810BD10B501F013
:10405000CFF810BD10B501F0CBF810BD10B501F0D0
:10406000C7F810BD10B501F0C3F810BD2DE9F34F2E
:10407000E44897B04FF00108858803A91898FCF729
:1040800047FD0898DFF880B300F26C7087B207989C
:104090004FF4FA6A401CC6B2069840F63309C4B21F
:1040A00033463A46D9A111A80094FCF791F911A919
:1040B000179801F071F94046B8F1010F05D00228B8
:1040C00007D0B8F1030F09D117E0D44A042117989B
:1040D00002E017980A3012E001F05CF908F03EFBAC
:1040E00010282ED00FDC0A28DAD2DFE800F005EF26
:1040F0000505EE050505EDECD2E71798103080B206
:10410000C64A0221E8E7212878D00BDC112876D0B6
:104110002028C5D1A8F1010010F0FF08C0D103206C
:104120008046BDE740286BD04128B9D1C82D01D9C0
:104130006D1EADB2642141200BF046FC00287BD0FF
:1041400053E14046B8F1010F14D0022834D0B8F141
:10415000030FA5D13C2110200BF036FC002864D0C1
:104160003146384607F0BAFE641CE4B2A04297D24A
:10417000012495E73C2110200BF026FCA8B17F1C00
:10418000BFB24F4500D9574691E07F1CBFB24F45A3
:1041900000D9574633463A469CA111A80094FCF733
:1041A00017F911A9179801F0F7F80F2110200BF05B
:1041B0000BFC0028E9D07AE03C2110200BF004FC35
:1041C000A8B1761CF6B20C2E96D9012668E7761CAB
:1041D000F6B20C2E00D9012633463A468BA111A81F
:1041E0000094FCF7F5F811A9179801F0D5F80F2104
:1041F00010200BF0E9FB002893D1E8E7F1E0BCE0E8
:104200001BE03146384607F069FE641CE4B2A04268
:1042100000D2012433463A467CA111A80094FCF751
:10422000D7F811A9179801F0B7F80F2110200BF05B
:10423000CBFB00289DD1E4E7C6E04046B8F1010F72
:1042400014D0022843D0B8F1030F92D13C21402072
:104250000BF0BAFB002870D0641E14F0FF0488D164
:104260003146384607F03AFE044619E73C21402023
:104270000BF0AAFBA8B17F1EBFB2574517D24F461D
:1042800015E07F1EBFB2574500D24F4633463A462F
:104290005EA111A80094FCF79BF811A9179801F0F2
:1042A0007BF80F2140200BF08FFB0028E9D033462C
:1042B0003A4656A111A80094FCF78AF811A917985C
:1042C00001F06AF801E786E03EE054E045E03C2179
:1042D00040200BF079FBA8B1761E16F0FF06C4D182
:1042E0000C26DDE6761E16F0FF0600D10C263346BE
:1042F0003A4646A111A80094FCF76AF811A917984C
:1043000001F04AF80F2140200BF05EFB0028ACD1F1
:10431000E8E7641E14F0FF0404D13146384607F084
:10432000DDFD044633463A4638A111A80094FCF757
:104330004FF811A9179801F02FF80F2140200BF02A
:1043400043FB002891D1E4E708F1010000F0FF08E9
:10435000B8F1030F89D90120E2E606A9A7F26C772C
:10436000761ED0C103A8FCF71CFB18990860012039
:1043700019B0BDE8F08F0020FAE740F698008542BA
:1043800001D26D1CADB2642111200BF01DFB50B1A8
:104390002BE06D1CADB228460DF042FA59460DF0E7
:1043A00087FAFFF743FD012111200BF00DFB0028D8
:1043B000EFD01AE06D1EADB228460DF031FA594625
:1043C0000DF076FAFFF732FD012141200BF0FCFAE7
:1043D0000028EFD009E040F29E70854205D2643596
:1043E00002E0DC2D01D9143DADB228460DF018FADB
:1043F00059460DF05DFAFFF719FD02488580FFF779
:1044000049FB4DE63C6600200AD7233C2530347535
:104410002D253032752D25303275000014D101085C
:104420002DE9F04FDFF85C938A4691B08346B9F8E6
:104430000440012501A95046FCF76AFB1827DFF864
:1044400048833C260198DDE902320090CFA10CA8F8
:10445000FBF7BEFF0CA9584600F09EFF012D04D0CB
:10446000022D06D0032D09D117E0CC4A022158466F
:1044700002E00BF1060012E000F08CFF08F06EF98C
:1044800010282CD00FDC0A28DCD2DFE800F005F081
:104490000505EF050505EEEDD4E70BF10C0080B244
:1044A000BE4A0221E8E721287DD009DC11287BD013
:1044B0002028C7D16D1E15F0FF05C3D10325C1E724
:1044C00040287DD04128BDD1C82C01D9641EA4B29A
:1044D000642141200BF078FA002867D044E1012DD7
:1044E0000CD0022D2CD0032DACD13C2110200BF090
:1044F0006BFA00285DD00198401C6FE03C21102031
:104500000BF062FAA8B10398401C74E00398401CB9
:10451000B0FBF7F107FB110003900198DDE90232CF
:1045200000909AA10CA8FBF753FF0CA9584600F085
:1045300033FF0F2110200BF047FA0028E6D079E076
:104540003C2110200BF040FAA8B10298401C85E0F5
:104550000298401CB0FBF6F106FB11000290019896
:10456000DDE90232009089A10CA8FBF731FF0CA90C
:10457000584600F011FF0F2110200BF025FA0028FB
:104580008AD1E5E70198DDE90232401CB0FBF6F183
:1045900006FB1100019000907CA10CA8FBF718FF0E
:1045A0000CA9584603E0DBE0A6E009E0CBE000F010
:1045B000F3FE0F2110200BF007FA002894D1E1E759
:1045C000012D11D0022D42D0032D8DD13C21402050
:1045D0000BF0FAF9002877D001983B30B0FBF6F1E8
:1045E00006FB110001902DE73C2140200BF0ECF977
:1045F000D0B103981730B0FBF7F107FB110003901F
:1046000018E003981730B0FBF7F107FB1100039097
:104610000198DDE9023200905CA10CA8FBF7D8FEFE
:104620000CA9584600F0B8FE0F2140200BF0CCF941
:104630000028E6D00198DDE90232009053A10CA8D1
:10464000FBF7C6FE0CA9584600F0A6FE0DE73C217C
:1046500040200BF0B9F9F0B102983B30B0FBF6F115
:1046600006FB11000290EDE674E034E042E038E031
:1046700002983B30B0FBF6F106FB11000290019866
:10468000DDE90232009041A10CA8FBF7A1FE0CA9C4
:10469000584600F081FE0F2140200BF095F90028CC
:1046A000A1D1E5E70198DDE902323B30B0FBF6F13C
:1046B00006FB11000190009034A10CA8FBF788FEC6
:1046C0000CA9584600F068FE0F2140200BF07CF941
:1046D000002888D1E6E76D1CEDB2032DC3D9012572
:1046E000B0E601A8FCF75DF9CAF80000012011B09E
:1046F000BDE8F08F0020FAE740F69800844201D22E
:10470000641CA4B2642111200BF05EF950B12BE0BF
:10471000641CA4B220460DF083F841460DF0C8F8A1
:10472000FFF784FB012111200BF04EF90028EFD098
:104730001AE0641EA4B220460DF072F841460DF056
:10474000B7F8FFF773FB012141200BF03DF900287A
:10475000EFD009E040F29E70844205D2643402E05A
:10476000DC2C01D9143CA4B220460DF059F8414686
:104770000DF09EF8FFF75AFBA9F80440FFF78AF9FD
:1047800060E600003C6600200AD7233C25303275E5
:104790003A253032753A25303275000014D10108BF
:1047A00038B50C4609880091694600F007F80028E2
:1047B00002D000982080012038BD00002DE9F74F7D
:1047C00090B000251198904612F0FF0701687248DA
:1047D00084884FEA1220814601D0A9F10100C6B2B7
:1047E0006E48A6EB070A50F82600B1FBF0F200FB7A
:1047F000121B58460DF014F86849283151F827105B
:104800000CF014FF0CF072FECDE9000108F0FF037C
:104810004A4663A10AA8FBF7DBFD0AA9109800F03D
:10482000BBFD1098AA4500EB450000DC801C80B25F
:104830005D4A012100F0AEFD681C0090864206D35F
:104840005648711B00EB810050F8040C00E0012079
:10485000019007F083FF112857D01CDC082843D0B3
:1048600007DC01284CD00428C3D1002013B0BDE8D8
:10487000F08F092879D01028BBD101990A20BBFB01
:10488000F1F1B1FBF0F200FB1210092815D00199EB
:104890000BEB010020E020282AD021286BD04028F3
:1048A0000ED04128A5D1C82C01D9641EA4B2642120
:1048B00041200BF089F8A0B361E0019840420EE07E
:1048C00001990A20BBFBF1F1B1FBF0F200FB1210E1
:1048D00020B10199ABEB010083468AE7019800EB18
:1048E000C00101EB0B00F7E70098B0FBF6F103E025
:1048F000A819401E90FBF6F106FB1100C5B278E73F
:1049000011990120C1F800B0B0E740F69800844248
:1049100001D2641CA4B2642111200BF055F858B1E7
:104920002DE01AE0641CA4B220460CF079FF1F4968
:104930000CF0BEFFFFF77AFA012111200BF044F8CA
:104940000028EFD01BE0641EA4B220460CF068FFE4
:1049500016490CF0ADFFFFF769FA012141200BF079
:1049600033F80028EFD00AE0FFE740F29E7084425F
:1049700005D2643402E0DC2C01D9143CA4B22046F8
:104980000CF04EFF09490CF093FFFFF74FFA024875
:104990008480FFF77FF82CE73C6600205CD6010896
:1049A00025302A2E2A66000014D101080AD7233C9C
:1049B0002DE9F35F0A8889464FF03C0BB2FBFBF10F
:1049C0006423B1FBF3F4DFF8FCA103FB14160BFB2B
:1049D0001125BAF804404FF000080127C6EB061075
:1049E00005EB8001009804F0D1FC012F06D0022FC6
:1049F00008D0032F18D0042F09D118E0724A0121E2
:104A0000009802E00098801C13E000F0C3FC07F05F
:104A1000A5FE11287FD015DC082861D00DDC012807
:104A20006CD004285BD172E00098801D01E00098F2
:104A3000083080B2644A0121E7E7092877D01028BE
:104A40004DD108E0202851D0212871D0402813D022
:104A5000412844D17EE0012F06D0022F06D0032F3B
:104A600006D0042F3BD105E00A360FE0711C15E09B
:104A70000A3521E0691C26E0012F06D0022F0BD059
:104A8000032F18D0042F2AD11BE05A366420B6FB1E
:104A9000F0F100FB1166A1E706F109010A20B1FB64
:104AA000F0F200FB1211B6FBF0F000EB800001EB1E
:104AB0004000C6B292E73235B5FBFBF10BFB115556
:104AC0008CE705F109010A20B1FBF0F200FB12119D
:104AD000B5FBF0F000EB800001EB4000C5B26AE0EE
:104AE0007F1CFFB2042F66D9012764E07F1E17F0F8
:104AF000FF0760D104275EE00DE0FFE7C6EB06107C
:104B000005EB8001A9F800104FF0010856E04FF0C6
:104B1000000847464FE040F69800844201D2641CEA
:104B2000A4B2642111200AF04FFF60B137E02CE0FD
:104B300031E0641CA4B220460CF072FE23490CF054
:104B4000B7FEFFF773F9012111200AF03DFF00289D
:104B5000EFD024E0C82C01D9641EA4B26421412006
:104B60000AF032FF50B11AE0641EA4B220460CF0E5
:104B700057FE16490CF09CFEFFF758F90121412021
:104B80000AF022FF0028EFD009E040F29E70844234
:104B900005D2643402E0DC2C01D9143CA4B22046D6
:104BA0000CF03EFE09490CF083FEFFF73FF9AAF82E
:104BB0000440FEF76FFF002F7FF46DAF4046BDE865
:104BC000FC9F00003C66002014D101080AD7233C5A
:104BD00070B514460D46064607F0BAF8E2B229460B
:104BE0003046FFF7BDF9044607F0BAF8204670BD1D
:104BF00070B514460D46064607F0AAF8E2B22946FB
:104C00003046FFF7DBF9044607F0AAF8204670BDEE
:104C100070B50BA0FDF7A0F80C4D0024102255F83C
:104C200024000B49FDF7BAF855F824004022102162
:104C3000FDF708F8641CE4B2052CEFD370BD00004A
:104C40005C53414D504C45520000000080D3010898
:104C5000620100200B460246002101A002F0FCBECA
:104C60005C53445F4552525C4552522E5458540096
:104C700010B51446064A01EB8101C90052F8200024
:104C80002423224602F0E8FE002800D1206010BD57
:104C900080D301080246012301A002F0DFBE00001C
:104CA0005C53445F4552525C4552522E5458540056
:104CB00070B50D460446164664210A48FBF70DFE02
:104CC000242231460748FBF791FD05EB8500C10022
:104CD00005482823034A50F82400BDE8704002F03C
:104CE000BDBE00007461002080D3010870B58CB097
:104CF0000D460446302226496846FBF7BCFD25498F
:104D00002846FBF705FF234822492C30C368CA68B0
:104D100093423BD04B6903F26C7343610969491CB0
:104D2000C0E9032161696422481E90FBF2F3C517B4
:104D300000EB9575C3EBA503950090FBF5F63344A6
:104D40008E070ED191FBF2F602FB161222B991FBEF
:104D5000F5F205FB121121B92169022901DD0121BA
:104D600000E0002122696D4605EB8202E56852F8F9
:104D7000042C2A4440F26D1500FB05301044084411
:104D8000072190FBF1F201FB1200A0610CB070BD95
:104D9000ACD60108B064002070B5154C154E204605
:104DA00094F8251090F82850C08C012915D00229BC
:104DB00009D003291BD10CF033FD31460CF078FDEE
:104DC00029460BF01DFC608D0CF02AFD31460CF0DD
:104DD0006FFDBDE870400BF027BC0CF021FD3146A3
:104DE0000CF066FD2946BDE870400BF009BC70BDB3
:104DF0003C660020CDCCCC3D1148816941F00101D9
:104E000081611049202048610F48016821F4005158
:104E10000160001F016821F45C4101600A49091D1D
:104E20000A680A60091D0A6842F400520A60064ACC
:104E3000411410321160016841F400510160704763
:104E400000100240000001400404014008B50020A9
:104E5000009001F0B7F808A140F6162000F09CFA87
:104E60004FF4C062694641F21620FFF7A7FC002804
:104E700000D0009808BD0000CAE4C8EBC3DCC2EB58
:104E80003A00000010B50DA140F60F0000F084FAC2
:104E90000EA140F60F4000F07FFA10A141F20F0082
:104EA00000F07AFA11A141F20F4000F075FABDE866
:104EB000104012A141F60F0000F06EBAB0FCC0A87D
:104EC000CAB1BCE4C9E8D6C300000000CEACBBA4A4
:104ED000C3DCC2EBB5C4D0DEB8C40000D2D4BCB0D1
:104EE000D2BABEA7C6C1C4BBB5C40000CFD4CABE27
:104EF000B6D4B1C8B6C820C1C1B6C800BACDC1C108
:104F0000C6C1CAB1B3A400002DE9F041012406F0E6
:104F1000E3FF4FF431664FF4C0681A4D41F2142795
:104F200001F050F8184800F05FFA184A2146164878
:104F300000F086FA0446012807D0022C08D0032C82
:104F40001CD0002CECD1BDE8F0810AF031F9E7E784
:104F500001F038F80EA1304600F01EFA424629460C
:104F60003846FFF72BFC0028DAD000210CA000F017
:104F700099FF06F0B1FFFEF78DFDD1E70AF05AF870
:104F8000CEE70000706600201CDC0108854E00089A
:104F9000C7EBCAE4C8EBD0C2C3DCC2EB3A000000E6
:104FA000C3DCC2EBD0DEB8C4B3C9B9A6210000008F
:104FB0002DE9F04F074669488BB069498488002580
:104FC000DFF8A0A105A82E46EB4601EB47080A90A2
:104FD000B8F822102BF815100BEB45006D1CB8F833
:104FE0001810EDB281820A2D02D026B10A2103E009
:104FF00000250126FAE72946684606F069FE2AF8E8
:1050000017000EB10A2100E029460A9806F060FE5A
:105010000AEB4709A9F814000EB10A2100E029465D
:10502000684606F055FE2AF817000EB10A2100E086
:1050300029460A9806F04CFEA9F814004AA140F649
:105040000F7000F0A9F9384607F020FD014640F244
:10505000026900234A4641F20E5003F027FF44A1A3
:1050600040F61C7000F098F9384607F075FC0146D0
:1050700000234A4641F21B5003F018FF282007F096
:1050800025FD0028A4D007F069FB11281FD00BDCF8
:10509000012817D0042815D0092899D140F29E7014
:1050A00084424DD264344AE0212845D041288FD132
:1050B000C82C01D9641EA4B2642141200AF084FCEA
:1050C00080B33DE0FDF770FF0BB0BDE8F08F40F618
:1050D0009800844201D2641CA4B2642111200AF019
:1050E00073FC58B12CE0641CA4B220460CF098FB71
:1050F00049460CF0DDFBFEF799FE01E0DFF8789001
:10510000012111200AF060FC0028ECD018E0641E98
:10511000A4B220460CF084FB49460CF0C9FBFEF714
:1051200085FE02E0FFE7DFF85090012141200AF000
:105130004BFC0028EBD003E0DC2C01D9143CA4B2DA
:1051400020460CF06DFB0C490CF0B2FBFEF76EFE36
:1051500002488480FEF79EFC3AE700003C6600208F
:105160005E620020C8650020C1F7C1BF3A000000A0
:10517000BCC6D1B93A0000000AD7233C0449FF203D
:1051800008600348143801686FF309010160704733
:10519000140401401348816941F001018161124802
:1051A000012181600021C160104801686FF309018D
:1051B0000160001F016821F4407101600B49091D65
:1051C0000A6842F0FF020A60091D0A6842F0FF0205
:1051D0000A60064AFF2110321160016841F0FD01AA
:1051E00001607047001002400000014004040140CB
:1051F00010B5FFF7C3FF0348C068BDE810400AF0D0
:1052000053BB00000800002010B5002108480AF038
:1052100033FB084C0021E0600548001D0AF02CFB20
:10522000A06003480021BDE8104008300AF066BBCA
:105230008C1D0108080000200F48816941F004011D
:105240008161816941F0080181610C49FC2008609D
:105250000B4903200860094810380168094AC9B29F
:105260001143016006481038016821F00F0141F038
:105270000801016070470000001002401008014062
:10528000100C014000888888064800680649C0F371
:105290008500096801F0010140EA81117F208843FF
:1052A0007047000008080140080C01402DE9F0415A
:1052B0002C4C2B48A0612C48E0612C4820622C48E3
:1052C00005682C48854200DD05462B48008905F01D
:1052D00003FA01466069E062804628460CF06EFCE5
:1052E000054660612946A0690CF0E2FA0746E060D5
:1052F0002946E0690CF0DCFA21690CF023F9064636
:105300002061414628460CF059FC216A0CF0D0FA85
:105310000546A062314638460CF014F929460CF0D7
:1053200011F916490CF0C4FA05461549606A0CF0EB
:10533000BFFA29460CF006F912496062884202DC85
:105340001149884200DA61621049606A0CF0B0FAD3
:105350000CF02EFABDE8F04180B200F02BBE000048
:10536000A69B443C900000200E745A3C51499D3B42
:105370002C0000200000B041506200203333333F46
:105380009A99993E83C02A3F0AD7A33C0000D84689
:1053900004F048BA02F0CCBD02F0C4BE08498A69E4
:1053A00042F010028A6108B1891501E04FF0807166
:1053B00004480161416821F00F01C91C4160704738
:1053C000001002400010014070B50C4600EBC4060E
:1053D00005467068FBF794F9C1B235F8340072687D
:1053E000BDE87040FFF7D6BF70B501880546080AD2
:1053F000CEB201D07043C6B2696819B14FF4817062
:10540000FFF7CAFF4FF424740C4A40F202512046C1
:1054100005F097F8094A40F21451204605F091F83A
:10542000012408E005EBC400416835F83400FFF7BB
:10543000B3FF641CE4B2B442F4D970BDD4CE010809
:1054400000F03AB930B41C461346224630BC00F096
:1054500005BA30B41C461346224630BC00F0E8BA08
:1054600030B41C461346224630BC00F001B80000A0
:105470002DE9FF5F06460C468548318890468588B1
:105480004FF0000B080ACFB232D0784300F0FF0A89
:105490000CB1544500D9012406EBC409D9F8040025
:1054A000FBF72EF9C1B236F83400D9F80420FFF723
:1054B00071FF00BF5FEA080000D08047322007F08C
:1054C00005FB0028F6D036F83400D9F80410FFF7B1
:1054D00063FF07F043F9102847D00BDC0A28DBD222
:1054E000DFE800F005575B05D005A9052292D3E758
:1054F000BA46CDE7212872D008DC11284FD02028E9
:10550000CAD1039850EA0B003CD032E0402823D0A7
:105510004128C1D1C82D01D96D1EADB264214120F1
:105520000AF052FAA0B379E0039850EA0B0017D0C2
:1055300003E000BFA4EB0A000CE0B4FBF7F007FBAC
:10554000104008B9E01BC4B2641CE4B2A4E7E01B3D
:1055500000E0E019C4B29FE7039830EA0B00ECD1F9
:10556000E019C4B2544597D9E4E7039830EA0B0038
:1055700008D0641EE4B2B4FBF7F007FB104000282B
:105580008AD1E6E7BC42E2D804EB0A00C4B2DEE707
:1055900031E0204604B0BDE8F09FFF20FAE740F676
:1055A0009800854201D26D1CADB2642111200AF031
:1055B0000BFA58B132E06D1CADB228460CF030F950
:1055C00049460CF075F9FEF731FC01E0DFF8C490B4
:1055D000012111200AF0F8F90028ECD01EE019E0B2
:1055E0006D1EADB228460CF01BF949460CF060F96F
:1055F000FEF71CFC01E0DFF89C90012141200AF03D
:10560000E3F90028ECD009E040F29E70854205D213
:10561000643502E0DC2D01D9143DADB228460CF012
:10562000FFF81C490CF044F9FEF700FC184885808F
:10563000FEF730FA30E7C82106200AF0C5F9002845
:1056400084D106F054FB642006F09AFC06F04FFB70
:1056500006F042FC10A14FF4C160FFF79DFEFEF77B
:1056600049F90B494FF4E062383140F60C40FFF73E
:10567000A5F838B104210CA000F014FC062803D0D2
:10568000FEF738F9002085E7FEF704FAFAE7000094
:105690003C6600200AD7233CC7EBCAE4C8EBB3F64C
:1056A000B3A7B1E0BAC53A00CAC7B7F1B1A3B4E62F
:1056B000B1E0BAC53F0000002DE9F05F0C46DFF80D
:1056C00094B101880646BBF804509046080ACFB250
:1056D00032D0784300F0FF0A0CB1544500D90124C0
:1056E00006EBC409D9F80400FBF70AF8C1B236F892
:1056F0003400D9F80420FFF74DFE00BF5FEA080030
:1057000000D08047322007F0E1F90028F6D036F8C3
:105710003400D9F80410FFF73FFE07F01FF81028F7
:105720003DD00BDC0A28DBD2DFE800F00540450560
:1057300043050505277DD3E7BA46CDE7212878D074
:105740000DDC112839D02028CAD1641EE4B2B4FB84
:10575000F7F007FB10400028C2D1E0191DE04028F7
:1057600015D04128BCD1C82D01D96D1EADB2642120
:1057700041200AF029F9B8B35FE0B4FBF7F007FB6A
:10578000104008B9E01BC4B2641CE4B2A8E7E019F9
:10579000C4B25445A4D9A4EB0A00C4B2A0E7BC42E9
:1057A00002D804EB0A00C4B2E01BF6E72046BDE8CD
:1057B000F09F0020FBE7FF20F9E740F698008542C4
:1057C00001D26D1CADB2642111200AF0FDF860B168
:1057D00033E06D1CADB228460CF022F849460CF0BF
:1057E00067F8FEF723FB02E013E0DFF86C9001217D
:1057F00011200AF0E9F80028EBD01EE06D1EADB2D2
:1058000028460CF00DF849460CF052F8FEF70EFB56
:1058100001E0DFF84490012141200AF0D5F800288A
:10582000ECD00AE005E040F29E70854205D2643576
:1058300002E0DC2D01D9143DADB228460BF0F0FF9B
:1058400005490CF035F8FEF7F1FAABF80450FEF715
:1058500021F945E73C6600200AD7233C2DE9FF5F8C
:1058600006460C4670483188904685884FF0000BFC
:10587000080ACFB232D0784300F0FF0A0CB1544589
:1058800000D9012406EBC409D9F80400FAF738FF5F
:10589000C1B236F83400D9F80420FFF77BFD00BF11
:1058A0005FEA080000D08047322007F00FF9002897
:1058B000F6D036F83400D9F80410FFF76DFD06F085
:1058C0004DFF102847D00BDC0A28DBD2DFE800F0C0
:1058D00005575D055B0505052294D3E7BA46CDE77C
:1058E000212874D008DC112851D02028CAD103986F
:1058F00050EA0B003CD032E0402823D04128C1D1EF
:10590000C82D01D96D1EADB2642141200AF05CF8AA
:10591000A0B37BE0039850EA0B0017D003E000BF70
:10592000A4EB0A000CE0B4FBF7F007FB104008B949
:10593000E01BC4B2641CE4B2A4E7E01B00E0E01981
:10594000C4B29FE7039830EA0B00ECD1E019C4B26F
:10595000544597D9E4E7039830EA0B0008D0641E59
:10596000E4B2B4FBF7F007FB104000288AD1E6E769
:10597000BC42E2D804EB0A00C4B2DEE733E02046C2
:1059800004B0BDE8F09F0020FAE7FF20F8E740F6FA
:105990009800854201D26D1CADB2642111200AF03D
:1059A00013F858B132E06D1CADB228460BF038FF49
:1059B00049460BF07DFFFEF739FA01E0DFF86C9005
:1059C000012111200AF000F80028ECD01EE019E0B7
:1059D0006D1EADB228460BF023FF49460BF068FF61
:1059E000FEF724FA01E0DFF844900121412009F09C
:1059F000EBFF0028ECD009E040F29E70854205D212
:105A0000643502E0DC2D01D9143DADB228460BF01F
:105A100007FF06490BF04CFFFEF708FA02488580A5
:105A2000FEF738F82EE700003C6600200AD7233C3A
:105A30002DE9FF5F064673480C4631888588080AC1
:105A4000C9B2984691468A4630D000FB0AF0C0B2EF
:105A500000900CB1844200D9012406F073FF834604
:105A600006EBC40703977868FAF74AFEC1B236F826
:105A700034007A68FFF78EFC5FEA090000D08047A7
:105A800006F060FFA0EB0B00C7B2A8EB07025EA117
:105A900001A8FAF79DFC01A940F60970FFF77CFC0C
:105AA000474507D3012004B0BDE8F09F0846CDF874
:105AB00000A0CEE7322007F009F80028DCD00398D8
:105AC000416836F83400FFF767FC06F047FE1028FF
:105AD0003ED009DC0A28C3D2DFE800F005424605C3
