:020000040800F2
:10000000A05000203D0300084503000847030008F6
:10001000490300084B0300084D03000800000000DE
:100020000000000000000000000000007502000851
:100030005103000800000000ED0200082903000839
:1000400057030008570300085703000801940008ED
:1000500057030008570300082541000845410008E0
:100060004D410008554100085D4100085703000854
:1000700057030008570300085703000857030008F8
:1000800057030008570300085703000857030008E8
:10009000570300085703000857030008654100088C
:1000A00057030008570300085703000857030008C8
:1000B000570300085703000835B400085703000829
:1000C00057030008570300085703000857030008A8
:1000D00057030008570300085703000891B50008AC
:1000E0002D410008570300085703000800F002F8EC
:1000F00000F07AF80AA090E8000C82448344AAF148
:100100000107DA4501D100F06FF8AFF2090EBAE845
:100110000F0013F0010F18BFFB1A43F0010318473B
:10012000481F0200681F02000A444FF0000C10F83C
:10013000013B13F0070408BF10F8014B1D1108BF65
:1001400010F8015B641E05D010F8016B641E01F805
:10015000016BF9D113F0080F1EBF10F8014BAD1C55
:100160000C1B09D16D1E58BF01F801CBFAD505E073
:1001700014F8016B01F8016B6D1EF9D59142D6D3CD
:10018000704700000023002400250026103A28BFF5
:1001900078C1FBD8520728BF30C148BF0B607047F9
:1001A000662913F09086642900F07881752900F0A3
:1001B0007581782900F0AE81732900F0A4870020B2
:1001C00070471FB500F0A3FF04000020002112F0CB
:1001D000D5FFE0601FBD10B510BD03B4FFF7FBFFF6
:1001E00003BC01F093F8000000F0CCF81146FFF7D3
:1001F000E8FF11F03DFA0448002111F0FFFA11F078
:1002000049FA00F053FA00004000002080F309880A
:100210007047EFF309807047684680F30988044807
:100220000078C00714BF0220032080F314887047B1
:100230004C0B0208DFF818C0EFF305831B0618BF4C
:100240006047EFF31483DB0708BF604700DF7047A8
:10025000FD180108DFF818C0EFF305831B0618BF6F
:100260006047EFF31483DB0708BF604700DF704788
:10027000E11A0108EFF30980816911F8021CF1B954
:1002800090E80F10E047EFF3098C8CE80700144B5F
:1002900093E8060091420FD039B12CE9F00FC1F874
:1002A00024C00CB411F050FF0CBC1A60D2F824C06A
:1002B000BCE8F00F8CF309886FF0020E704710B5A0
:1002C000084A1268914209D8074C54F8214090E836
:1002D0000F10A047EFF3098C8CE80F0010BD000051
:1002E000FC010020101B0008101B000811F0C8FDC5
:1002F0000C4B93E80600914210D0EFF3098C2CE9E7
:10030000F00FC1F824C00CB411F01EFF0CBC1A6031
:10031000D2F824C0BCE8F00F8CF309886FF0020E0D
:1003200070470000FC01002011F0D4FFE0E700005E
:1003300011F0B6FA11F0CEFFDAE700000948804765
:1003400009480047FEE77047FEE7FEE7FEE7FEE7E5
:10035000FEE7FEE7FEE7FEE704480549054A064BCF
:100360007047000011B30008ED000008A04A00200B
:10037000A0500020A04C0020A04C00200048704756
:100380003C4A00207546FFF7F9FFAE460500694676
:10039000534620F00700854618B020B5FFF7DCFF74
:1003A000BDE820404FF000064FF000074FF0000876
:1003B0004FF0000B21F00701AC46ACE8C009ACE8F7
:1003C000C009ACE8C009ACE8C0098D467047000020
:1003D0000FB41CB5074B06AA7B44694600900598EC
:1003E00000F067FE0020694600F076FE1CBC5DF858
:1003F00014FB0000FD0C000070B504468569006820
:10040000C10601D5302600E02026C00708D070BD07
:10041000D4E9012130469047206A00F101002062B2
:100420006D1EF5D570BD70B5044685690078C007AE
:1004300008D170BDD4E9012120209047206A00F145
:10044000010020626D1EF5D570BD70B50C460546E5
:10045000012A05D02878800600D5EA69002302E049
:10046000012305E05B1C934202D2E05C0028F9D135
:10047000A869E618C01AA861286A184428622846A4
:10048000FFF7BAFF04E0D5E9012114F8010B90470A
:10049000B442F8D32846FFF7C6FF70BD2DE9F041FE
:1004A0000646002410687529314616A511D0AFF311
:1004B0000080002803DAC0F1000013A507E03168CE
:1004C0008A0701D511A502E0490704D510A501242A
:1004D00001E0AFF3008000210A2306F1240707E0C2
:1004E000B0FBF3F203FB1200303078541046491C85
:1004F0000028F5D123462A463046BDE8F04100F0F9
:1005000067BB0000000000002D0000002B00000071
:100510002000000070B504460D4621461068AFF378
:1005200000802188090502D5104A7A4402E00F4A6A
:100530007A440E32002104F1240307E000F00F0694
:100540004FEA1010965D5E5401F101010028F5D1CB
:1005500003462078000704D5702D02D009B111326E
:1005600002232046BDE8704000F032BBCA140200EE
:100570002DE9F05F894604464FF0000ADFF828B104
:10058000FB44C0F820A02046E168884700287CD0C2
:10059000252806D0D4E901219047206A401C20621A
:1005A000F1E700255F462046E16888472028064697
:1005B00008DB312E06D207EB060010F8200C08B13C
:1005C0000543F0E7A80701D525F00405C4F81CA0F1
:1005D0000027C4F818A02A2E09D030460CF06DFC74
:1005E00038B304EB8708303EC8F8186019E059F8B2
:1005F000041B204604EB87029161E1688847012FC4
:10060000064618D1E069002820DA25F020051DE013
:10061000D8F8180000EB800006EB40003038C8F82E
:1006200018002046E168884706460CF046FC002882
:10063000EED1012F0AD02E2E08D12046E16888473E
:100640007F1C0646022F45F02005C4DBA069002868
:1006500003DA404245F00105A061E80701D025F02A
:10066000100596B1A6F14100192802D8203645F4AC
:1006700000654A463146204625604D46FFF790FD0D
:1006800060B1012807D0ED1D00E009E025F007006A
:1006900000F1080977E705F1040974E7304679E7C6
:1006A000206ABDE8F09F00009C1402000446AFF3EE
:1006B00000802046FFF791FD40EA0103024630B575
:1006C0009B0710D14FF0013400E008C208C91D1B80
:1006D0009D4315EAC41FF8D013F0FF0102F8011B77
:1006E0000DD01B0AF8E711F8013B002B02F8013B83
:1006F00005D011F8013B002B02F8013BF3D130BDCE
:1007000010B5431C02E010F8011B71B18107FAD14A
:100710004FF0013202C88C1A8C4314EAC211F9D08E
:10072000C01A0A0603D0C01E10BDC01A10BD0A04AC
:1007300001D0801E10BD0902FCD0401E10BD40EA51
:10074000010370B59B072ED14FF00136042A2AD33E
:1007500008C810C9121F9D1B9D4315EAC61517D066
:10076000D8B2E1B2401A50EA056110D198B2A1B2F4
:10077000401A50EA05410AD123F07F4024F07F411E
:10078000401A50EA052102D1180EA0EB146070BD8A
:10079000A342DBD018BA21BA884201D9012070BD2A
:1007A0004FF0FF3070BD0AB9002070BD10F8013B5A
:1007B00011F8014B63B1A3420AD1521E08D010F8C0
:1007C000013B11F8014B1BB1A34201D1521EEDD1E7
:1007D000181B70BD421E12F8013F002BFBD111F80F
:1007E000013B002B02F8013BF9D17047032A40F28C
:1007F000308010F0030C00F0158011F8013BBCF1C3
:10080000020F624498BF11F801CB00F8013B38BFDA
:1008100011F8013BA2F1040298BF00F801CB38BFE8
:1008200000F8013B11F0030300F02580083AC0F006
:10083000088051F8043B083A51F804CBA0E80810AE
:10084000F5E7121D5CBF51F8043B40F8043BAFF3E1
:100850000080D20724BF11F8013B11F801CB48BF3B
:1008600011F8012B24BF00F8013B00F801CB48BF71
:1008700000F8012B704710B5203AC0F00B80B1E8AA
:100880001850203AA0E81850B1E81850A0E81850C5
:10089000BFF4F5AF5FEA027C24BFB1E81850A0E8CE
:1008A000185044BF18C918C0BDE810405FEA827CE8
:1008B00024BF51F8043B40F8043B08BF7047D207FF
:1008C00028BF31F8023B48BF11F8012B28BF20F8A0
:1008D000023B48BF00F8012B70474FF0000204298B
:1008E000C0F0128010F0030C00F01B80CCF1040C5F
:1008F000BCF1020F18BF00F8012BA8BF20F8022B93
:10090000A1EB0C0100F00DB85FEAC17C24BF00F838
:10091000012B00F8012B48BF00F8012B70474FF066
:10092000000200B5134694469646203922BFA0E83F
:100930000C50A0E80C50B1F12001BFF4F7AF09074B
:1009400028BFA0E80C5048BF0CC05DF804EB89003C
:1009500028BF40F8042B08BF704748BF20F8022B7F
:1009600011F0804F18BF00F8012B704730B50368B5
:100970001C1404EB21459BB289B2194495FBF2F497
:1009800002FB145301EB034191FBF2F302FB131141
:1009900001E05B1E11440029FBDB016003EB044016
:1009A00030BD2DE9F04704464FF0FF3A86B00068AD
:1009B000029060680390A0680490E068019020694C
:1009C00000906569B5F1804F7EDCB5F1404F7BDB6F
:1009D0003C22002102A8FFF7C9FF3C22014603A8E0
:1009E000FFF7C4FF1822014604A8FFF7BFFF411E0E
:1009F00040F2B55201A8FFF7B9FF0C22064668463F
:100A00000021FFF7B3FF00EB860028443E4D00268F
:100A10007D440FE09A1A491CCDE90012022902D048
:100A20000C2907D104E0810704D0521C019201E097
:100A3000401C00960099019B6A5C9A42EADD0129FC
:100A400006D11C2B04D1810702D00221CDE900166A
:100A5000A0F146018B2940D20199009B00220F464C
:100A600002E0AE5C521C31449A42FADB012B02DDFB
:100A7000820700D0491E40F2B55540F26D16C217EC
:100A800000EB927292106A4300F0030505FB062208
:100A900085070A4400D1521E049D02EB4206DDF890
:100AA0000C80A94605EBC605184EC5EB0515DDF80B
:100AB00008C008EB850535442E14ADB2C6EB06160A
:100AC000C5EB0515B60000E007E00CEB850506EB6D
:100AD000154666F31F45360C03D0504606B0BDE8F8
:100AE000F0877F1CC4E90430521C072092FBF0F30E
:100AF00004F1180600FB1320A6E803042846C4E905
:100B00000297C4E900C8E9E71D100200A039CEFD34
:100B100070B50C46016800204A1C34D040F2B5552F
:100B20003C23B1FBF3F203FB12112160B2FBF3F1A2
:100B300003FB112218236260B1FBF3F203FB1211D5
:100B4000A16046F2E0310A440721B2FBF1F301FB58
:100B50001321B2FBF5F305FB1322A1619900B2F555
:100B6000B77F06D3521EAD10B2FBF5F3194405FB57
:100B700013220F4BE261616189077B440CD03B2A51
:100B80000AD3521C08E02C212046FFF7C8FE0120A2
:100B9000E0600AE0521A401C195C9142FAD9521CDA
:100BA000C4E903204FF0FF302062204670BD0000F2
:100BB000B30E020070477047704710B500F0ACFAF2
:100BC000006810BD10B5044600F0A6FA046010BD20
:100BD0002DE9F0470D4699469246044600F1240857
:100BE0000168880604D5E06921F01001216000E069
:100BF0000120A84202DDA0EB050700E00027A16963
:100C000007EB050202EB0900A1EB0000A0612078D0
:100C1000C00602D42046FFF7EFFB002608E0D4E927
:100C200001211AF806009047206A401C761C2062B9
:100C30004E45F4DB2078C0060AD52046FFF7DCFBE2
:100C400006E0D4E9012130209047206A401C206250
:100C5000381EA7F10107F4DC07E0D4E9012118F8F8
:100C600005009047206A401C2062281EA5F101055E
:100C7000F3DC2046FFF7D7FB2078000602D50220E0
:100C8000BDE8F0870120FBE770472DE9FF4F0C46D8
:100C90001E464FF0FF378BB0D2E90001DDF86080CF
:100CA0000A908A46C1F30A5505B93D460021084617
:100CB0004FF00000BAF1000F00F4400005DA00EB3D
:100CC00080004FF4400101EA50004FEA9059B9F119
:100CD000010F00DDB9460A9850EA4A000ED044F6EA
:100CE0001050A5F2FF3545432F14B8F1000F1ED068
:100CF0007542291E1EDDC9F100021CE0B8F1010F8A
:100D00004FF0000001D0302103E0F24305E0215410
:100D1000401CB042FBDB30460022002121540B99DD
:100D2000C1F80880C1E900200FB0BDE8F08FBD1BFD
:100D30006D1CDEE74A4600DA694206A800F074FA44
:100D400006AB07CB03AB07C350460A9900F025FB5F
:100D50008DE80700A0F500501F3800900398002D83
:100D600009DD42F21F014A46084403A90390684680
:100D700000F084FD08E0A0F500504A461F3803A9A2
:100D80000390684600F08EFD8DE807000004000C1B
:100D900003D04FF0FF30410800E01046B8F1000FDB
:100DA00003D00022009215461FE0751E06D400F005
:100DB000B5F902F1300262556D1EF8D5B346012235
:100DC000084302D000227F1C04E02078302801D1A3
:100DD00000227F1E002A099787D01DE0112D07DA17
:100DE00000F09CF9303262556D1C50EA0102F5D1D9
:100DF00008430FD10021681E05E0235C625C635448
:100E0000491C2254401E8142F7DBAB46A81B401E02
:100E1000099001E0009848B1002004F80B000B98FD
:100E2000099AC0F80880C0E9002B7DE711264FF031
:100E300000085AE72DE9F04F88460446D21D22F0FB
:100E4000070191B0D1E90001CDE90A010BF093FF50
:100E500002460B98C00F01D02D2007E020688107C3
:100E600001D52B2002E0202101EAC000032A0990CD
:100E700001D0072A05DB03464146204600F094F9DD
:100E80000FE12078800601D5E06900E00620B8F186
:100E9000650F814606D0B8F1660F18D0B8F1670F1C
:100EA00072D132E00020B9F1110F009001DB112363
:100EB00001E009F101030AAA01A90CA8FFF7E5FE68
:100EC000DDE90C70002609F10105834648E00120A8
:100ED0004B4600904FF000470AAA01A90CA8FFF763
:100EE000D4FEDDE90DB00C995D46002618B909F174
:100EF000010001EB0005B9EB050003D4C0F1FF369A
:100F000009F10105A5EB09002BE0B9F1010F01DAA8
:100F10004FF001090020B9F1110F0090484601DDA2
:100F2000112300E003460AAA01A90CA8FFF7ADFEB1
:100F3000DDE90C704D4600268346207800070AD470
:100F4000AB4500DA5D4601A8012D04DD411911F819
:100F5000011C302907D04F4502DA17F1040F04DADB
:100F60000120824610E06D1EEEE7002F02DCED1B33
:100F70003E4403E0781CA84200DD0546A7EB0600CE
:100F800000F1010A4FF000472078000703D4AA457A
:100F900001DB4FF0FF3A0021B7F1004F0DF143089C
:100FA0008DF8431023D002202B23002F01DA7F423B
:100FB0002D234FF00A0C011EA0F1010000DC4FB1FF
:100FC00097FBFCF10CFB11720F4602F1300208F89E
:100FD000012DF0E7A8F1010003702188090501D572
:100FE000452100E06521A0F1010800F8011C0998E5
:100FF0000FA9A1EB080707F1070700B1012000EBDB
:10100000050101EBEA70A1693844A1EB0000A0F1F1
:101010000100A0612078C00602D42046FFF7ECF959
:10102000099830B1D4E901219047206A00F101000C
:1010300020622078C00620D52046FFF7DDF91CE0AD
:10104000002E04DBB34502DD01A8805D00E0302006
:10105000D4E901219047206A761C401CBAF1010AAC
:1010600020620AD100F053F8C0680168405CD4E9FE
:1010700001219047206A401C2062281EA5F101052D
:10108000DEDC07E0D4E9012118F8010B9047206A63
:10109000401C2062381EA7F10107F3DC2046FFF751
:1010A000C2F9022011B040E601694A1C02610878C9
:1010B000704700B58FB0CDE9013100210591054998
:1010C0007944CDE9031011466846FFF751FA0FB095
:1010D00000BD0000E5FFFFFF0A6802F8010B0A608F
:1010E000704710B5436913B1AFF3008001E0FFF71B
:1010F000ACF9012010BD127800F124010A70002221
:101100004A700122EDE711684FF0FF32E9E710B5B0
:10111000FFF734F9203010BD0BF042BE30B5B0F10E
:101120000A024FEA900E71F100034EEA817EB0EBA5
:101130000E0061EB91014FEA101E4EEA017E10EBAA
:101140000E0041EB11114FEA102E4EEA016E10EB2A
:101150000E0041EB11214FEA104E4EEA014E10EB0A
:101160000E0041EB1141401841F100014FEAD0005F
:1011700040EA41704FEAD10110EB80054FEA81044B
:1011800044EA907444EB01046D1944EB0404521BCF
:10119000A3414FF0000348BF0A3200D530BD401CC8
:1011A00041F1000130BD00002DE9F0411F46044629
:1011B00003260168072A01F4006004DB08B116A5C4
:1011C00005E016A503E008B115A500E015A521F07E
:1011D00010002060A069C01EA0610FB1401EA06178
:1011E0002046FFF709F94FB1D4E90121384690476D
:1011F000206A401C2062C01C206206E0206AFAE7D8
:10120000D4E9012115F8010B9047761EF8D220464B
:10121000FFF709F9BDE8F0814E414E006E616E00A6
:10122000494E4600696E66002DE9F0478146164634
:101230008AB035487844D0E9002380680092CDE92F
:101240000130314878440C38D0E902230069039218
:101250004FF03702CDE9043041F69B30014491FB59
:10126000F2F0A0F1800502FB10141B3C02D5644291
:10127000012000E00020DFF890A080460027FA441B
:10128000AAF1C60A0DE0E00709D03246684607EB2E
:1012900047010AEB810100F005FB8DE807006410AF
:1012A0007F1C002CEFD1184F7F44B43F17E0E807B4
:1012B00013D007EB04100DF1180A90E80E00AAE80D
:1012C0000E00C068F04201D198190890324606A974
:1012D00003A800F0E7FA03AB07C36D10641C002DF0
:1012E000E5D132466946B8F1000F03A802D000F0FC
:1012F000C5FA01E000F0D6FAC9E90001C9F80820F2
:101300000AB0BDE8F08700008408020001491820F7
:10131000ABBEFEE7260002004FF0013C50F8042B64
:1013200051F8043B9A4221D1A2EB0C03934313EAF8
:10133000CC1317D150F8042B51F8043B9A4215D125
:10134000A2EB0C03934313EACC130BD150F8042BFC
:1013500051F8043B9A4209D1A2EB0C03934313EAE0
:10136000CC13DBD04FF00000704700BFD01A01BA99
:10137000B1FA81F101F0180122FA01F0CB40C1F17C
:101380002001DBB2C0B2C01A2CFA01F3D11A91438A
:1013900011EAC311E6D1704770475FEA400C08BFFD
:1013A00091F0000F4FEA8C234FEAC12243EA5151DA
:1013B0004FEA1C5018BF00F5F0404FEA300018BF4C
:1013C00041F000415FEA6C5C00F02980BCF1FF3F16
:1013D00008BF40F080407047130C06BF12044FF066
:1013E000100C4FF0000C130E04BF12020CF1080C8D
:1013F000130F04BF12010CF1040C930F04BF9200F1
:101400000CF1020CD30F04BF52000CF1010C114679
:101410004FF00002A0F11F00A0EB0C00704711F08C
:10142000004F08BF704731F000413FF4D5AF0B0CBF
:1014300006BF09044FF0100C4FF0000C0B0E04BF58
:1014400009020CF1080C0B0F04BF09010CF1040C8C
:101450008B0F04BF89000CF1020CCB0F04BF4900B5
:101460000CF1010CCCF12003A0EB0C0022FA03F3E9
:1014700002FA0CF241EA030100F10100704720F08A
:101480007F4C80EA030023F07F47ACEB070303F5B2
:101490007C5300F0004003F1FF032DE980494FEA3F
:1014A000154B09B44FEA144325EA0B4E24EA0348CE
:1014B0000FF2042606EB132749083E785FEA320252
:1014C00003FB0667C7F5000707FB06F64FEA54372C
:1014D0004FEAD64606F1020607FB066CCCF1005C2B
:1014E0004FEA1C472CEA074C07FB06F40CFB06F5F9
:1014F00004EB15464FEA961634BF00204FF000402B
:101500004FEAD13706FB07FC4FEA1C4C0CFB0BF7EC
:10151000D21B03FB0CF761EB07010CFB0EF7B0EBE2
:10152000074072EB17420CFB08F734BFA2EB0742EF
:10153000B2EB074261EB17414FEA0C444FEA9107C7
:1015400006FB07FC4FEA1C4C0CFB0BF7B0EBC7404B
:1015500072EB573203FB0CF734BFA2EBC742B2EB7E
:10156000C74261EB57310CFB0EF7B0EBC70072EBD3
:1015700057720CFB08F734BFA2EBC702B2EBC702ED
:1015800061EB5771039F4FEA816141EA921104EBCD
:10159000CC044FEAD1374FEA826206FB07FC42EAED
:1015A00090124FEA80604FEA1C4C0CFB0BF7D21BE9
:1015B00003FB0CF761EB07010CFB0EF7B0EB0740E8
:1015C00072EB17420CFB08F734BFA2EB0742B2EBF9
:1015D000074261EB17414FEA8C554FEA910704EB44
:1015E0009C2406FB07FC4FEA1C4C0CFB0BF7B0EBF2
:1015F000C74072EB573203FB0CF734BFA2EBC74274
:10160000B2EBC74261EB57310CFB0EF7B0EBC700F2
:1016100072EB57720CFB08F734BFA2EBC702B2EBB8
:10162000C70261EB577115EB4C254FEA816141EA26
:1016300092114FEA82624FEAD13742EA901206FBDA
:1016400007FC44F100044FEA80604FEA1C4C0CFB9D
:101650000BF7D21B03FB0CF761EB07010CFB0EF73A
:10166000B0EB074072EB17420CFB08F734BFA2EB5C
:101670000742B2EB074261EB174115EB1C154FEA2D
:10168000813141EA92414FEA823242EA90424FEA86
:1016900080304FEA0C7644F1000448EA03434EEAF6
:1016A0000B484FF0000EB2EB080C71EB030724BFA0
:1016B000624639464EEB0E0E4FF0000B00185241B9
:1016C00049414BEB0B0BB2EB080C71EB03077BF1C1
:1016D000000B24BF624639464EEB0E0E4FF0000B56
:1016E0000018524149414BEB0B0BB2EB080C71EB6C
:1016F00003077BF1000B24BF624639464EEB0E0E0A
:1017000051EA020718BF46F0010616EB0E7655F1B6
:10171000000254F1000103D5BDE88901BDE800884D
:10172000BDE88901BDE80048B619524141EB01010D
:10173000A3F10103704780807F7E7D7C7B7A79787E
:10174000777676757473727171706F6E6E6D6C6C86
:101750006B6A6A6968686766666564646363626128
:101760006160605F5F5E5E5D5D5C5C5B5B5A5A59A9
:101770005958585757565655555554545353525215
:101780005251515050504F4F4F4E4E4D4D4D4C4C6D
:101790004C4B4B4B4A4A4A494949484848474747B6
:1017A00047464646454545444444444343434342F3
:1017B000424242414141002B26D4770021D01CB542
:1017C0004FEA370703B44FF010004FF010014FF00D
:1017D00000000FBCBDE810400BF1010BBBF1010F85
:1017E00008BF5FEA170722BF12F1010211F10101E0
:1017F0004FF0004143F1000300F0004043EA0000D5
:101800007047F9D35708DAE746EA064613F1400F66
:101810004FEA16461FDD13F1200FDFBF16430A46BD
:10182000002120335B42C8D0C3F1200746EA0646B8
:1018300002FA07F74FEA164646EA0706C3F1200701
:1018400022FA03F201FA07F721FA03F14FF000033D
:1018500042EA0702B1E746EA020646EA06464FEACE
:10186000164646EA0106BCBF46EA0646360C4FF06D
:1018700000034FF000024FF000019EE72DE9C04841
:10188000934630B491E8380007C831EA400C48BFAD
:1018900034EA430C03D5FFF7F2FDFFF78CFFF0BCF1
:1018A000BDE800882DE9C048934630B491E838007F
:1018B00007C810F0804F08BF13F0804F03D100F02D
:1018C00005F8FFF778FFF0BCBDE8008820F07F47FF
:1018D00080EA030023F07F4C07EB0C03A3F57C5355
:1018E00000F00040A3F1FE0392F0000F00F0B3807F
:1018F00095F0000F00F077802DE901494FEA114083
:101900004FEA144621EA004800FB06FC24EA064799
:1019100008FB06F607FB08F800FB07F718EB06487C
:101920004CEB164C4FEA124B18EB07484FEA1546A2
:101930004CEB174022EA0B4E0BFB06FC25EA064750
:101940000EFB06F607FB0EFE0BFB07F71EEB064E23
:101950004CEB164C4FF000061EEB074E4CEB174BB2
:1019600018EB0B0840F1000018EB0E0B58EB0008C9
:1019700040F100008F1A4FF000013CBFC943661BC5
:1019800014BFB5EB040C00213CBFC943F61B4FEA62
:1019900017444EEA8E0E27EA04454FEA1C4704FB23
:1019A00007622CEA074C05FB07F70CFB05F604FB66
:1019B0000CFC16EB074642EB174216EB0C4642EBCB
:1019C0001C421BEB060658EB0202414146EA9E060A
:1019D00001D5BDE80189B619524141EB0101A3F1DE
:1019E0000103BDE801894FEA14454FEA114724EA93
:1019F000054621EA074C05FB07F406FB07F70CFB3D
:101A000006F105FB0CFC11EB074144EB17444FEAD0
:101A1000124711EB0C4144EB1C4422EA074C05FB36
:101A200007F206FB07F70CFB06F605FB0CFC16EBB2
:101A3000074642EB174216EB0C4642EB1C456A1870
:101A400054F1000148BF7047B619524141EB010102
:101A5000A3F10103704795F0000F37D04FEA114210
:101A60004FEA144721EA024624EA074C02FB07F139
:101A700006FB07F70CFB06F402FB0CFC14EB074417
:101A800041EB17414FEA154714EB0C4441EB1C4165
:101A900025EA074C02FB07F506FB07F70CFB06F6E9
:101AA00002FB0CFC16EB074645EB174516EB0C4604
:101AB00045EB1C42121951F1000148BF7047B6199D
:101AC000524141EB0101A3F1010370474FEA144574
:101AD0004FEA114724EA054621EA074C05FB07F1C6
:101AE00006FB07F70CFB06F24FF0000605FB0CFCAB
:101AF00012EB074241EB174112EB0C4251EB1C4138
:101B000048BF7047921841EB0101A3F101037047F0
:101B10000000000008F09CB910B50022074B1146E8
:101B200001EB810403EB440434F81040491CC9B2B2
:101B300022441029F4D3C2F30F1010BD2602002056
:101B400009498A6942F010028A6108B1491501E029
:101B50004FF0007105480161416821F0F00141F04A
:101B60003001416070470000001002400010014049
:101B7000044890F83C00012801D0034800E00348E5
:101B80000BF010B89849002020E10108A0BB010823
:101B9000264910B508684FF6FF021040244A40F469
:101BA000E06010430860062004F02EFC072004F0DB
:101BB0002BFC082004F028FC092004F025FC0A2056
:101BC00004F022FC172004F01FFC282004F01CFC69
:101BD0001E2004F019FC272004F016FC09F0DAFBA3
:101BE000154A1448D16941F00201D16100210180F8
:101BF000018540F65F13838501238382018446F2C9
:101C0000600303838383818601878187A0F8401066
:101C1000018841F001010180906940F0010090616C
:101C20000648416841F44061416010BD0CED00E0A0
:101C30000000FA05000400400010024000000140CE
:101C400008B5024908440090008808BD006C0040B7
:101C500008B5024A10440090016008BD006C0040C5
:101C6000002009F033BC00000148007809F02EBCC8
:101C70002800002070B515460E4604460CF0BAF94F
:101C800021461648FEF718FD144800F077FA304652
:101C900000F028F964211248FEF71FFE00222946B1
:101CA0000F4800F05FF90F4C6070012000F008FA57
:101CB00064210A48FEF711FE64210948FEF70DFE73
:101CC0000CF0A0F96078142802D0172802D003E0A5
:101CD000012070BD0CF085F9002070BD9C470020EC
:101CE000704600202C01002010B504460CF082F94B
:101CF00021460648FEF7E0FC044800F03FFA00F0F9
:101D000043FA04460CF07EF9204610BD9C470020A3
:101D10002DE9F0411C4615460E4607460CF06AF9BF
:101D200023462A463146384600F07CF8142804D071
:101D30000CF068F90020BDE8F0810CF063F9012097
:101D4000F9E700002DE9F0411C4615460E4607460E
:101D50000CF050F923462A463146384600F092F8F6
:101D6000084C60700CF04EF96078142802D01728E7
:101D700003D004E00120BDE8F0810CF032F900202E
:101D8000F9E700002C01002010B504460CF032F9F0
:101D900021460B48FEF790FC094800F011F909496B
:101DA0004870012000F08CF964210548FEF795FD8C
:101DB00064210548FEF791FDBDE810400CF022B902
:101DC0009C4700202C0100207046002070B515466D
:101DD0000E4604460CF00EF921460F48FEF76CFC47
:101DE0000D4800F07AF90D4CA9B20022607030461F
:101DF00000F0B8F86070012000F062F960706421B2
:101E00000548FEF76AFD64210548FEF766FDBDE85A
:101E100070400CF0F7B800009C4700202C01002017
:101E2000704600202DE9F0411C4616460F46054637
:101E30000CF0E0F829461048FEF73EFC0E4800F092
:101E40009DF9384600F04EF8A1B20022304600F06D
:101E500062F80A4C6070012000F032F964210648F3
:101E6000FEF73BFD64210648FEF737FD0CF0CAF88B
:101E70006078BDE8F08100009C4700202C01002024
:101E8000704600202DE9F0411C4617460E460546D7
:101E90000CF0B0F829461048FEF70EFC0E4800F092
:101EA0006DF9384600F01EF8A1B20C4A304600F039
:101EB00059F80A4CA41E6070012000F001F9642159
:101EC0000548FEF70AFD64210548FEF706FD0CF003
:101ED00099F86078BDE8F0819C4700202E01002031
:101EE0007046002010B50446392011F035F9E0B2F3
:101EF00011F03DF9C4F3072011F039F9C4F307409C
:101F000011F035F9200E11F032F911F0F5F8BDE8B5
:101F100010400AF053BE70B5064614460D463A20EE
:101F200011F01AF9E8B211F022F9280A11F01FF99C
:101F300011F0E2F80CB1002011E00AF03FFE1D287C
:101F40000FD1304600F052F905463B2011F004F95C
:101F500011F0D2F82E44002CEFD0208828442080A5
:101F6000EBE770BD2DE9F041064614460D463C20D6
:101F700011F0F2F8E8B211F0FAF8280A11F0F7F8C7
:101F800011F0BAF80CB1002020800C4F0AF016FEB8
:101F90001E2810D1304600F03CFA054638703D202E
:101FA00011F0DAF811F0A8F82E44002CEED02088B9
:101FB00028442080EAE7BDE8F08100002A010020E3
:101FC00010B5044600F0C4F920785C2801D02F2811
:101FD00003D10021642000F032FABDE81040402017
:101FE00000F096B910B506F005F808B100F0CFF88A
:101FF000BDE81040302000F08BB9312000F088B9E6
:1020000010B505200CF053FF5A2000F081F904466A
:1020100005200CF04CFF204610BD00002DE9F74FC5
:1020200082B0834604980E46C700080E4FF0000A9F
:10203000C1F30729C1F307480090562011F08CF82E
:10204000F0B211F094F8484611F091F8404611F0C2
:102050008EF8009811F08BF8049811F088F811F0C0
:102060004BF83C4614E000BF0AF0A8FD05461E28C8
:1020700001D07CB113E04021584600F0B4F957205C
:1020800011F06AF811F038F8641E0BF1400BA4B29D
:10209000002CE9D10AF092FD054614280ED0162D29
:1020A00009D0FFF7ADFF0AF1010000F0FF0ABAF115
:1020B000030FC2D1284605B0BDE8F08F1420FAE71F
:1020C0000146362000F017B910B508B100F040F90C
:1020D000BDE81040342000F01BB970B5054600F093
:1020E00021F904000DD00146284600F021F84128CE
:1020F00007D0142803D0422800D1B32070BD43205C
:1021000070BD2819BDE87040FFF7DEBF10B504466A
:1021100000F01EF920785C2801D02F2803D100217F
:10212000642000F08CF9BDE81040322000F0F0B8D7
:1021300070B5054600200E46012401E0641CE4B29F
:10214000295D5C2913D02F2911D00029F6D1002454
:102150002844FFF7DBFF002C08D0B44206D041280A
:102160000AD0142806D0422800D1B32070BD641CC8
:10217000E4B2EDE7432070BD2046E1E7FF21FFF721
:10218000D7BF2B2000F054B8682000F045B810B538
:10219000222010F0E1FF10F0D8FF044610F0ACFF51
:1021A000204610BD04480178012901D00020704765
:1021B0000021017001207047380000202DE9F04116
:1021C00010F0C3FF064610F0C0FF054610F0BDFF3B
:1021D000044610F0BAFF074610F08EFF46EA0520CD
:1021E00040EA044040EA0760BDE8F08170B505466A
:1021F000272010F0B1FF10F0A8FF0400264607D0FA
:1022000010F0A3FF641E05F8010B14F0FF04F7D1D2
:1022100010F072FF304670BD10B504460C2010F06F
:102220009BFF204610F0A3FFBDE81040FFF7C6BF9C
:1022300010B504460A2010F08FFF204610F097FFDB
:1022400010F083FF044610F057FF204610BD10B574
:1022500004464A2010F080FFE0B210F088FFC4F37B
:10226000072010F084FFC4F3074010F080FF002027
:1022700010F07DFF10F040FFBDE810400AF09EBC5A
:102280002DE9F04115000F46804601D0002028704E
:102290004C2010F061FF384610F069FF10F02CFF61
:1022A0000AF08CFC0646142823D1272010F054FF96
:1022B00010F04BFF10F049FF044610F046FF10F0FD
:1022C00044FF10F042FFFFF779FF014684B1224638
:1022D0004046FFF7A3FE064614280AD108EB44281F
:1022E00015B1287820442870381B10F0FF07CFD193
:1022F0003046BDE8F08110B50C4610F02DFF2046A9
:1023000010F035FF10F0F8FEBDE810400AF056BCA2
:1023100010B510F021FF10F0EFFEBDE810400AF0FC
:102320004DBC0000014600E0491C0A78002AFBD1A0
:1023300006E000BF11F8012D5C2A03D02F2A01D03E
:102340008142F7D1814200D0491C081AC0B27047BF
:1023500070B50546012010F0FFFE10F0F6FE432890
:1023600028D22B20FFF764FF102823D22F2010F053
:10237000F3FE002010F0FBFE3220FFF7C9FF142807
:1023800018D1CF20FFF754FF040013D04C20FFF7E3
:1023900043FF00EB04214C2000F051F85020FFF7E0
:1023A0003BFF00EB0421502000F049F80021702091
:1023B00000F045F82F2010F0CFFE2C7806E000BF8B
:1023C00015F8014F5C2C0AD02F2C08D0204610F0B5
:1023D000CEFE002CF4D1BDE8704010F08DBE002080
:1023E00010F0C5FEF7E770B505460C462C2010F03E
:1023F000B3FE204610F0BBFE3CB1287810F0B7FECB
:102400006D1C641E14F0FF04F7D1BDE8704010F09D
:1024100073BE70B505462D2010F09EFE10F095FE9F
:102420000400264607D0287810F0A1FE6D1C641E1B
:1024300014F0FF04F7D110F05FFE304670BD70B5A8
:1024400005460C460D2010F087FE284610F08FFE42
:10245000E0B210F08CFEC4F3072010F088FEC4F345
:10246000074010F084FE200E10F081FEBDE87040A1
:1024700010F042BE01200BF0CBBD10B502F08CFD78
:1024800007F09CFCBDE81040FFF7F4BF10B5044610
:10249000012150200BF048FEC8B100200BF0DCFDFC
:1024A000207000200BF0D8FD607000200BF0D4FDF0
:1024B000A07001200BF0D0FDE0700BF06FFE00214A
:1024C00050200BF031FE0BF069FE012010BD0BF027
:1024D00065FE002010BDF8B50D4606460BF0AEFDBA
:1024E0006846FFF7D3FF040011D09DF801009DF866
:1024F000001000EB0120C0F30D0030809DF80300B8
:102500009DF8021000EB0120C0F38D0028800BF035
:102510009DFD2046F8BD000030B50E480E4C00234E
:102520000078042234F81010401CC0B20D46052873
:1025300000D3002034F810104D1BADB2521E2B44B6
:1025400012F0FF02F0D1C3F38F004FF4FA71484349
:1025500030BD0000000000201C02002010B5044621
:10256000124911F0B5FA124911F0FCF8214611F0A8
:10257000AFFA104911F0F6F8214611F0A9FA0E4908
:1025800011F0F0F8214611F0A3FA0C4911F0EAF825
:10259000214611F09DFA0A4911F0E4F8214611F0A4
:1025A00097FABDE81040074911F0DCB892EBD72C40
:1025B000EEC70B310DBDA2343E5ADE37774BBB3A26
:1025C00045B8353D145C1C3F2DE9F04706461A4FCF
:1025D0000898984691468A46002540B10CF0A8FB21
:1025E00004461649884504DA3046BDE8F0873C4683
:1025F000F7E7134890F8330018B15046FFF7AEFFE5
:1026000005464946404611F0ADF8294611F0E6FB73
:10261000214611F05DFA04463946504611F0A2F801
:10262000084911F055FA314611F052FA2146BDE839
:10263000F04711F00BB90000339388436F12833ACF
:102640009849002066A6CA422DE9F0411F469046EF
:102650000C4606460CF06CFB05460F49204611F06F
:1026600081F80E4911F034FA04464146384611F01B
:1026700079F8294611F02CFA214611F0E7F8314695
:1026800011F026FA0649884202DA0020BDE8F081FE
:10269000BDE8F04110F0F2B93393884366A6CA4210
:1026A0006F12833A2DE9FF4F87B090460F461D46C3
:1026B000182221496846FEF7DEF80026012440F280
:1026C000013B40F2035941F60C0A00BF0BF07AFDC2
:1026D000684603F0D5F858F8251018A35A4640F27A
:1026E000191008F063FA37F8151000234A465046CF
:1026F00008F082FA00222146684603F0EDF804460D
:10270000012807D0022C0ED0002CDFD10BB03046B0
:10271000BDE8F08F2B4642463946079800F010F886
:1027200007E00126D2E707EB45014A46504601F093
:1027300021FF0028CAD0F4E7901502084C2F6D0045
:102740002DE9FF4F8FB00020069092481F460E469D
:10275000848831F8175008880C90B1F802B0B1F8AD
:1027600004A0B1F806904FF0010852F827008A49FA
:1027700011F0AEF94FF07C5110F0F4FF11F028F990
:1027800084490F9A01EB42010891888201210F9838
:1027900005F018FC0BF016FD80A1002003F048F8AE
:1027A000F580B580758035800F980CF0D5FA0090D3
:1027B0007DA1002003F03CF8002340F2035229469B
:1027C000192008F019FA7BA14FF4406003F030F8AB
:1027D0007AA340F2036240F60C40009908F0E6F953
:1027E00077A14FF4C05003F023F80F9805F0D4FB05
:1027F000014641F60C0008F02FFA64200CF000FBB3
:102800000028D1D00CF044F911285CD008DC012854
:102810001AD0042874D0092873D0102813D106E0E8
:1028200021286FD0402808D041280CD16BE042F21B
:102830000F70854205D26D1C02E0632D01D96D1E1B
:10284000ADB2012006908FE0089864215E4A808A2C
:10285000484303210790880202F0E8FF40F2036238
:1028600007A940F60C4001F093FE30B3012006901A
:10287000079811F0E5F8019095B1284610F035FE63
:10288000524A534B10F044FE05460391009810F055
:102890003DFF2A46039B10F0B9FC10F085FC02E0D6
:1028A0004C4910F0D3FF014610F0FF4F06D00198BD
:1028B00010F0CCFF11F08CF885B201E04FF47A757E
:1028C0000BF080FC50E040F69800844201D2641C7A
:1028D000A4B2642111200EF0F7FF50B138E0641C5F
:1028E000A4B2204611F0ACF83B4911F0F1F801F028
:1028F00049FB012111200EF0E7FF0028EFD027E06F
:1029000036E01BE020E0C82C01D9641EA4B264218B
:1029100041200EF0D9FF50B11AE0641EA4B2204647
:1029200011F08EF82C4911F0D3F801F02BFB0121A6
:1029300041200EF0C9FF0028EFD009E040F29E7060
:10294000844205D2643402E0DC2C01D9143CA4B2E8
:10295000204611F075F8204911F0BAF801F012FB89
:102960000C48848000F06CFFB8F1000F7FF418AFC2
:1029700000210F9805F026FB0C983080A6F802B0D5
:10298000A6F804A0A6F8069026F81750069813B0EB
:10299000BDE8F08F9849002000002041B5F7CAD467
:1029A000C1F7C1BF00000000C1F7C1BFB1B6C2CAC4
:1029B0003A000000C1F7C1BF3A0000004C2F6D0083
:1029C000CAE4B3F63A000000200B0208FCA9F1D2D9
:1029D0004D62503F00007A440AD7233C2DE9F04F66
:1029E00089B0834620223B496846FDF744FF3A49B7
:1029F000002001EBCB0701243C3740F2035608903E
:102A0000BBF1010F05D0BBF1020F02D040F2015A19
:102A100000E0B246314940F60C0801EB4B0541F6A7
:102A20000C0900BF0BF0CEFB684602F029FF5946A7
:102A300040F2151008F0FAFAA98A29A35246404636
:102A400008F0DAF8398800233246484608F0D4F80E
:102A500000222146684602F03FFF04000FD0012CFF
:102A600024D0022C2DD0032CE6D1324639464846DC
:102A700001F080FD0028DFD001200890DCE70898F5
:102A800000280AD0232117A003F05CFC062807D0F9
:102A9000072808D00124002CC4D109B0BDE8F08F6C
:102AA00000F0A4FAF9E700F037FAF4E705F11401B1
:102AB0005246404601F05EFD0028BDD000F0C0FE49
:102AC000BAE73946584600F015F80028AAD0012088
:102AD0000890A7E7701502082449002098490020B3
:102AE0004C2F6D00B1A3B4E6B1EAB6A8CAFDBEDDB5
:102AF000203F00002DE9FF5F80460020074602903E
:102B0000C0480D4640F20356848800208246834622
:102B100001905FEA080005D0012853D0B8F1020FF8
:102B200004D14FE040F2015A0FF2DC2B0BF04AFBCC
:102B30000121404605F046FA40460CF00DF9814669
:102B4000B8F1000F40D0B1A10020CDF8009002F004
:102B50006FFE2988002340F20352192008F04CF838
:102B6000ADA14FF4406002F063FE5B465246494619
:102B700040F60C4008F01AF8A9A14FF4C05002F03A
:102B800057FE404605F008FA014641F60C0008F0F1
:102B900063F864200CF034F90028CDD00BF078FFF6
:102BA00011287CD041DC012857D0042878D009288E
:102BB00077D01028C0D1288842F20F7188424AD2BB
:102BC000401C47E0B246AFE70BF074FF06460CF03E
:102BD0007BF800210A460091014633464846FFF73C
:102BE000F3FC0646009089A1002002F021FE29880E
:102BF000002340F20352192007F0FEFF8AA14FF490
:102C0000006002F015FE5B465246314640F60C006D
:102C100007F0CCFF80A14FF4805002F009FE5B4624
:102C20005246494641F20C00A4E7212870D04028C2
:102C30000CD0412880D1C82C01D9641EA4B26421D3
:102C400041200EF041FE002871D0C3E0288863289F
:102C500001D9401E288001276EE76A48744A00EBBC
:102C60004800B8F1000F808A01904FF0030128D08E
:102C7000880202F0DBFD524601A940F60C4001F04B
:102C800087FC0028E8D00127019810F0D9FE0646FD
:102C90002888E0B310F029FC664A674B02E05DE04B
:102CA000A7E08DE010F034FC81460391009810F00D
:102CB0002DFD4A46039B10F0A9FA10F075FA014663
:102CC0003FE04FF4006002F0B1FD524601A940F62A
:102CD0000C0001F05DFC0028BED00127019810F027
:102CE000AFFE81462888A0B110F0FFFB514A524B3D
:102CF00010F00EFC06460391009810F007FD3246D6
:102D0000039B10F083FA10F04FFA064602E017E03A
:102D10005CE04E4616F0FF4F0AD04849484610F096
:102D2000D7FE314610F092FD10F052FE02E03FE077
:102D30004FF47A70288040460CF00EF8814643E745
:102D4000314611F0FF4F05D0304610F07FFD10F0F6
:102D50003FFE01E04FF47A702880EDE640F69800DF
:102D6000844201D2641CA4B2642111200EF0ACFD97
:102D700058B12FE0641CA4B2204610F061FE314629
:102D800010F0A6FE01F0FEF800E02D4E012111200A
:102D90000EF09AFD0028EDD01CE0641EA4B220467F
:102DA00010F04EFE314610F093FE01F0EBF800E01B
:102DB000234E012141200EF087FD0028EDD009E0CF
:102DC00040F29E70844205D2643402E0DC2C01D9CA
:102DD000143CA4B2204610F033FE194910F078FEDE
:102DE00001F0D0F80748848000F02AFD02980028FE
:102DF000B3D00021404605F0E5F804B03846BDE800
:102E0000F09F0000984900204C2F6D00C1F7C1BF12
:102E1000B1B6C2CA3A000000B1EABFF63A000000FB
:102E2000CAE4B3F63A000000B9A4BFF63A000000C5
:102E3000200B0208FCA9F1D24D62503F0000C842AD
:102E40000AD7233C2DE9F0472B49804601EB0800C7
:102E50002A4990F82460012401EBC800002500F104
:102E60003C0A012E16D0022E43D1254FDFF8949054
:102E70000BF0A8F9384602F003FD0022214638463F
:102E800002F02AFD0446052831D2DFE800F00618DA
:102E90001E282C001A4F283FE8E7002D29D02321B7
:102EA00019A003F04FFA062805D0072821D1BDE864
:102EB000F04700F031B8BDE8F04700F097B809EBF3
:102EC0000612002304E00125D2E709EB06120123D4
:102ED00051464046FFF7E6FB0028C9D0F3E709EB6F
:102EE00006120223F4E709EB06120323F0E7002C95
:102EF000BED1BDE8F0870000984900202449002099
:102F0000D015020888140208B1A3B4E6B1EAB6A845
:102F1000CAFDBEDD203F000010B5062231494FF446
:102F2000807001F047FD2F4845F6A5214FF47A74D3
:102F300082888A4203D0E20002804480818072222B
:102F40002949802001F036FD274845F6A422B0F833
:102F50007010914244D046F6B321A0F86410A0F856
:102F60006810A0F86C10A0F86640A0F86A40A0F8BD
:102F70006E4041818181C181018241820485448505
:102F80008485C48504864FF400410180418081809E
:102F9000C18001818182C182018341838183C48395
:102FA000048444848484C48444868486C4860487D8
:102FB00044878487A0F84440A0F84C40A0F85440CF
:102FC000A0F85640A0F85840A0F85A40A0F85C403D
:102FD000A0F85E40A0F86040A0F86240A0F8702021
:102FE00010BD0000EE0100202449002010B506228B
:102FF00005494FF4807001F0EDFC7222BDE81040ED
:103000000249802001F0E6BCEE01002024490020A6
:1030100010B503F027FA05A140F60E0002F008FCF7
:103020000221BDE81040012002F078B9C8D5BEF9F0
:1030300020D7D4B6AFB5F7C1E300000010B503F058
:1030400011FA05A140F60E0002F0F2FB0421BDE8E2
:103050001040032002F062B9CAB1BEF920D7D4B63D
:10306000AFB5F7C1E300000010B503F0FBF905A10F
:1030700040F60E0002F0DCFB0021BDE810400846DF
:1030800002F04CB9B7DBB3BE20D7D4B6AFB5F7C1A9
:10309000E300000010B50BF095F805A140F20240E6
:1030A00002F0C6FB0221BDE81040012001F0CEBFB6
:1030B000C8D5BEF9202020D7D4B6AFB5F7C1E300FC
:1030C00010B50BF07FF805A140F2024002F0B0FB12
:1030D0000421BDE81040032001F0B8BFCAB1BEF919
:1030E000202020D7D4B6AFB5F7C1E30010B50BF060
:1030F00069F805A140F2024002F09AFB0021BDE808
:103100001040084601F0A2BFB7DBB3BE202020D795
:10311000D4B6AFB5F7C1E3002DE9F14F88B018225E
:1031200078496846FDF7A7FB774808990125848808
:1031300076484FF4A06800EB410606F114073236DA
:10314000002041F20C0940F2035A41F60C0B0690A4
:1031500001E0079858B10BF035F8684602F090FB93
:1031600040F21510089907F061FF00200790398898
:1031700000234246484607F03FFD3188002352466F
:10318000584607F039FD2946684602F069FB60A100
:103190004FF4006002F04CFB08980BF077FD0146FD
:1031A0005DA340F2026240F60C0007F0FFFC19201C
:1031B0000BF026FE0028EAD02946684602F050FBB4
:1031C0000BF066FC112849D008DC012819D004282E
:1031D0002ED009287CD0102817D10CE021287DD0D2
:1031E000402802D0412810D155E06D1CEDB2032DCE
:1031F0000BD3012509E0012D00D803256D1EEDB28A
:1032000003E0012D06D0022D08D0002DAFD109B06A
:10321000BDE8F08F42463946484602E05246314604
:10322000584601F0A7F90028A1D0012006909EE79A
:1032300006980028EBD0232138A003F083F8062855
:1032400002D0072806D102E0FFF7D0FEDFE7FFF744
:10325000CDFE0025002D7FF47BAFD8E740F6980027
:10326000844201D2641CA4B2642111200EF02CFB14
:1032700050B137E0641CA4B2204610F0E1FB2B49AA
:1032800010F026FC00F07EFE012111200EF01CFB48
:103290000028EFD026E0C82C01D9641EA4B2642116
:1032A00041200EF011FB50B11CE0641EA4B2204678
:1032B00010F0C6FB1D4910F00BFC00F063FE01216D
:1032C00041200EF001FB0028EFD00BE000E005E00C
:1032D00040F29E70844205D2643402E0DC2C01D9B5
:1032E000143CA4B2204610F0ABFB104910F0F0FBE8
:1032F00000F048FE0448848000F0A2FA002D7FF41C
:1033000028AF84E74015020898490020244900208E
:10331000BCC6D1B93A0000006B506100B1A3B4E65D
:10332000B1EAB6A8CAFDBEDD203F00000AD7233CA3
:103330002DE9F14F774882B00125848876480299BB
:1033400040F2026700EB410606F10A082836002029
:1033500041F20C0B40F2035941F60C0A009001E0D7
:10336000019858B10AF02EFF6C4802F089FA40F239
:103370001510029907F05AFE00200190B8F80010CD
:1033800000233A46584607F037FC318800234A4666
:10339000504607F031FC2946604802F061FA60A10E
:1033A0004FF4006002F044FA02980BF08FFC0146E3
:1033B0005DA33A4640F60C0007F0F8FB19200BF02D
:1033C0001FFD0028EBD02946544802F049FA0BF0C3
:1033D0005FFB112849D008DC012819D004282DD022
:1033E00009287CD0102817D10CE021287DD0402856
:1033F00002D0412810D155E06D1CEDB2032D0BD346
:10340000012509E0012D00D803256D1EEDB203E072
:10341000012D05D0022D07D0002DAFD1BDE8FE8FC4
:103420003A464146584602E04A463146504601F087
:10343000A1F80028A2D0012000909FE70098002862
:10344000ECD0232139A002F07DFF062802D0072806
:1034500007D103E0BDE8FE4FFFF7C8BDFFF7C6FD8B
:103460000025002D7FF47BAFD8E740F6980084421A
:1034700001D2641CA4B2642111200EF025FA50B1CF
:1034800037E0641CA4B2204610F0DAFA2B4910F0A1
:103490001FFB00F077FD012111200EF015FA002826
:1034A000EFD026E0C82C01D9641EA4B264214120CB
:1034B0000EF00AFA50B11CE0641EA4B2204610F0CF
:1034C000BFFA1E4910F004FB00F05CFD0121412011
:1034D0000EF0FAF90028EFD00BE000E005E040F232
:1034E0009E70844205D2643402E0DC2C01D9143C85
:1034F000A4B2204610F0A4FA104910F0E9FA00F046
:1035000041FD0448848000F09BF9002D7FF428AF32
:1035100084E700009849002024490020281502086B
:10352000CEC2B6C83A000000A1E60000B1A3B4E6DE
:10353000B1EAB6A8CAFDBEDD203F00000AD7233C91
:103540002DE9F14F88B0182278496846FDF793F9C4
:10355000774808990125848876484FF4A06800EBE5
:103560004107002007F11E0641F20C0940F2035A00
:1035700041F60C0B069001E0079858B10AF022FEC4
:10358000684602F07DF940F21510089907F04EFDEB
:1035900000200790398800234246484607F02CFB5C
:1035A000318800235246584607F026FB29466846D4
:1035B00002F056F960A14FF4006002F039F9089862
:1035C0000BF0FEFB01465EA340F2036240F60C00E6
:1035D00007F0ECFA19200BF013FC0028EAD029467A
:1035E000684602F03DF90BF053FA112849D008DC87
:1035F000012819D004282ED009287CD0102817D1F2
:103600000CE021287DD0402802D0412810D155E07F
:103610006D1CEDB2032D0BD3012509E0012D00D85F
:1036200003256D1EEDB203E0012D06D0022D08D05A
:10363000002DAFD109B0BDE8F08F4246394648466B
:1036400002E052463146584600F094FF0028A1D0CF
:10365000012006909EE706980028EBD0232139A090
:1036600002F070FE062802D0072806D102E0FFF71C
:10367000BDFCDFE7FFF7BAFC0025002D7FF47BAF30
:10368000D8E740F69800844201D2641CA4B26421B9
:1036900011200EF019F950B137E0641CA4B2204695
:1036A00010F0CEF92B4910F013FA00F06BFC012159
:1036B00011200EF009F90028EFD026E0C82C01D91E
:1036C000641EA4B2642141200EF0FEF850B11CE04B
:1036D000641EA4B2204610F0B3F91E4910F0F8F9A8
:1036E00000F050FC012141200EF0EEF80028EFD050
:1036F0000BE000E005E040F29E70844205D26434A5
:1037000002E0DC2C01D9143CA4B2204610F098F958
:10371000104910F0DDF900F035FC0548848000F018
:103720008FF8002D7FF428AF84E7000058150208B9
:103730009849002024490020B2EED1B93A00000097
:103740006B506100B1A3B4E6B1EAB6A8CAFDBEDD14
:10375000203F00000AD7233C70B5442207494FF4AC
:10376000C07001F027F9054C054DA08E69688842AC
:1037700003D000F007F8A888A08670BD9849002003
:103780008800002030B500F039F8054C054DA08EBA
:103790002968884203D000F007F82888A08630BD49
:1037A000984900208C00002012484FF49671F022B6
:1037B000818100218173417242810122C273827032
:1037C000C170027442F2957343824FF4FA638380AE
:1037D000322383710223C3714FF47A738385C385C7
:1037E0006423038680F833100349016480F83C2089
:1037F0007047000098490020D9AB090010B50F4868
:103800000221002300F8141C03744FF47A71018024
:1038100001214174C822428081748280C1740522D2
:10382000C2800175028143754FF4FA74448182812C
:10383000C28100F80C1C837710BD0000AC49002049
:10384000442202494FF4C07001F0C4B898490020E6
:103850002DE9F05F00253A4C2E4640F2015740F624
:1038600011484FF4AF6A41F211494FF4FA6B00BFAF
:103870000AF0A8FC334802F003F8A18A32A33A46C2
:10388000404607F0B9F9618D31B131A340F20252DF
:10389000484607F0B1F903E02FA1484601F0C8FF00
:1038A0006D1CE9B20022274802F016F805001AD074
:1038B000012D2ED0022DE0D1618D25A340F20252C0
:1038C000484607F099F91E4940F202522A3148460B
:1038D00000F050FE0028D0D0618D594501D9A4F8E0
:1038E0002AB00126C9E7002E27D023211EA002F00E
:1038F00029FD02280BD0062805D007281DD1BDE8D8
:10390000F05FFFF729BFBDE8F05FFFF799BF012522
:10391000AEE70B493A461431404600F02BFE002832
:10392000ABD0A08A504502D9A4F814A0D9E74FF42F
:1039300016718842D5D2A182D3E7BDE8F09F00007E
:103940009849002000180208204C2F6D000000004C
:10395000206B5061000000002020205BCDA3D3C36A
:103960005D20202000000000B1A3B4E6D0DEB8C482
:10397000BDE1B9FB203F00002DE9F05F0025344C8C
:103980002F4640F60F4840F2035641F20F494FF4DC
:10399000967A4FF0640B00BF0AF014FC2D4801F03A
:1039A0006FFFE18A2CA33246404607F025F9218BB0
:1039B00029A33246484607F01FF96D1CE9B20022E0
:1039C000244801F089FF050011D0012D25D0022DDA
:1039D000E7D11F4932461831484600F0CBFD002898
:1039E000DFD0218B51452BD9A4F818A02CE0002F53
:1039F0002CD023211AA002F0A5FC02280BD0062807
:103A000005D0072822D1BDE8F05FFFF7A5BEBDE8CD
:103A1000F05FFFF715BF0125BEE70D4932461631AD
:103A2000404600F0A7FD0028BBD0E18A514502D9ED
:103A3000A4F816A008E0642906D2A4F816B003E0A2
:103A4000642901D2A4F818B00127AAE7BDE8F09FC5
:103A500098490020E8170208204C2F6D0000000054
:103A6000B1A3B4E6D0DEB8C4BDE1B9FB203F00008D
:103A70002DE9F05F0025544C2F4640F60F0940F227
:103A8000035640F60F4B40F2015841F20F2A00BF97
:103A90000AF098FB4D4801F0F3FEE18A4CA3324650
:103AA000484607F0A9F8218B49A33246584607F04B
:103AB000A3F8A18A46A34246504607F09DF8618DBF
:103AC00039B145A340F2025241F2116007F094F877
:103AD00004E043A141F2116001F0AAFE6D1CE9B2BD
:103AE00000223A4801F0F8FE0546052867D2DFE8D3
:103AF00000F003192D415400002F62D023213CA077
:103B000002F020FC02280BD0062805D0072858D147
:103B1000BDE8F05FFFF720BEBDE8F05FFFF790BEA5
:103B20000125B5E7284932461631484600F022FD06
:103B30000028B2D0E08A4FF49671884201D9E18220
:103B40003BE0642839D26420E08236E01E493246E8
:103B50001831584600F00EFD00289ED0208B4FF4FF
:103B60009671884201D9218327E0642825D26420F8
:103B7000208322E0144942461431504600F0FAFCFA
:103B800000288AD0A08A4FF4AF61884203D84FF44E
:103B90001671884211D2A1820FE00B4940F2025205
:103BA0002A3141F2116000F0E5FC0028C1D0618D9E
:103BB0004FF4FA60814200D9608501276DE7002D3E
:103BC000FCD1BDE8F09F00009849002018180208B9
:103BD000204C2F6D00000000206B506100000000A1
:103BE0005BCDA3D3C35D2020202020200000000057
:103BF000B1A3B4E6D0DEB8C4BDE1B9FB203F0000FC
:103C00002DE9F84FDFF8ECB0012500269BF80940BC
:103C1000BBF80A00ADF8000040F2015741F2164827
:103C2000DFF8D49040F6164A0AF0CCFA3248183041
:103C300001F026FE04EB440109EB4101504601F07E
:103C4000F7FD2EA33A46BDF80010404606F0D4FF1B
:103C5000294800222946183001F03EFE050023D0F5
:103C6000012D1DD0022DE5D13A466946404600F0AF
:103C700081FC0028DED0BDF80000962804D29620F2
:103C8000ADF800000AF0ADF9BDF800104FF49670E1
:103C9000814203D9ADF800000AF0A3F90126C9E773
:103CA000641C04F00304F9E7002E0BD0232114A0B8
:103CB00002F048FB02281AD0062805D0072801D1B7
:103CC000FFF74AFDBDE8F88F8BF80940BDF800000A
:103CD0005D46ABF80A00FFF7B3FD68890FF0B0FE50
:103CE0000B490FF0F5FE697A0EF01AFCEAE70125A0
:103CF0009AE700009849002048170208A1E6000052
:103D0000B1A3B4E6C5E4D6C3CAFDBEDD203F0000C2
:103D1000CDCCCC3D2DE9F84F3F4E0125DFF8FC908E
:103D2000B47BB089ADF80000002740F2015A4FF48F
:103D3000AF7840F6194B00BF0AF044FA34B1374867
:103D4000803001F09DFD012C05D00CE03348983007
:103D500001F096FD07E032A35246BDF8001040F690
:103D6000144006F049FF59F82410584601F060FD50
:103D70004FF00002294634B32848803001F0ACFDF2
:103D8000050028D0012D21D0022DDCD1012CD3D16A
:103D90005246694641F6140000F0ECFB0028CBD0F7
:103DA000BDF80000962804D29620ADF800000AF075
:103DB00018F9BDF80010414503D9ADF800800AF0AC
:103DC00010F90127B8E715489830D7E70CB100245F
:103DD000F7E70124F5E7002F0BD0232111A002F013
:103DE000B1FA022816D0062805D0072801D1FFF71E
:103DF000B3FCBDE8F88FBDF80000B081B473FFF7E5
:103E00001FFDB0890FF01CFE0A490FF061FE0EF095
:103E10009BFBEEE701258FE798490020F816020882
:103E2000A1E60000B1A3B4E6C5E4D6C3CAFDBEDD79
:103E3000203F0000CDCCCC3D2DE9F05F00252C4F7C
:103E40002C4C2E4640F60B0AA7F1100840F60B7BCF
:103E5000A94600BF0AF0B6F92548703001F010FD00
:103E6000607857F82010504601F0E2FC207858F8AE
:103E70002010584601F0DCFC1D4800222946703015
:103E800001F02AFD05001FD0012D06D0022D0FD014
:103E9000032DDFD103F062FEDCE70AF093F96078CE
:103EA000401CC0B2607006280CD384F8019009E071
:103EB0000AF088F92078401CC0B22070042801D391
:103EC00084F800900126C5E76EB123210AA002F014
:103ED00039FA062803D0072805D00125BAE7BDE83E
:103EE000F05FFFF7ADBCBDE8F05FFFF735BC000049
:103EF000E011020898490020B1A3B4E6D0DEB8C4AE
:103F0000BDE1B9FB3F0000002DE9FF5F00249B46A7
:103F100091468A46264625463AF814000FF090FD51
:103F200017490FF0D5FDB04659F8246001462F46D9
:103F300030460FF08BFC0546014600980FF094FECA
:103F400003D2641CE4B25C45E6D3394628460FF040
:103F500045FF0446414630460FF040FF21460FF032
:103F600075FC0446394600980FF038FF21460FF0E3
:103F7000AFFD04B04146BDE8F05F0FF0F3BB0000B9
:103F80006F12833A01494860704700002800002002
:103F900001490870FDF768BE280000200A4980B179
:103FA000012806D0022807D0032808D04FF0FF30A0
:103FB00007E043F6982004E047F2305001E04EF667
:103FC00060204860704700000800002005F006BC33
:103FD000C0B2202800D27F20024901EB0010A0F5DA
:103FE00000707047C63F0108C0B2202800D27F2071
:103FF000034900EB400001EB0010A0F5C0607047E2
:10400000A0A9010800487047C645010870B5C0B2B4
:10401000114D60F31F2101234FF4AC729818400832
:1040200005EB400415F81060647804EB0624A4B294
:10403000A14205D1094900EBC00001EBC00070BDF1
:1040400003D900F1010083B202E0A0F1010082B2C5
:104050009342E3D9014870BDE6450108984801083C
:1040600070B50C46064615460021A0200AF05CF803
:1040700060B1300A0AF026F840B1F0B20AF022F836
:1040800020B10121A0200AF04FF848B90AF086F8C3
:10409000002070BD002009F0DFFFC04304F8010BD1
:1040A0006D1E15F0FF05F5D1012009F0D5FFC043C5
:1040B00020700AF073F8012070BD000070B50C4646
:1040C000064615460021A0200AF02EF808B3300A53
:1040D00009F0F8FFE8B1F0B209F0F4FFC8B100BF91
:1040E00014F8010BC043C0B209F0ECFF88B16D1E9B
:1040F00015F0FF05F4D10AF051F8A0254FF4C8746B
:10410000002128460AF010F830B10AF047F80120E3
:1041100070BD0AF043F803E0641E2404240CEFD1C0
:10412000002070BD10B501F0B7FA10BD03490120A1
:104130000870034940030860704700003800002001
:104140001404014010B501F0A7FA10BD10B501F03C
:10415000A3FA10BD10B501F09FFA10BD10B501F023
:104160009BFA10BD10B501F097FA10BD2DE9F34F81
:10417000DFF808928B4691B00126B9F8044001A9F6
:104180005846FCF7C5FC0698DFF8F4A100F26C7005
:1041900085B20598401C00F0FF080498C7B243465A
:1041A0002A4678A10CA80097FCF712F90CA91198DF
:1041B00001F03EFB012E04D0022E06D0032E09D1C1
:1041C00018E0744A0421119802E011980A3013E0B3
:1041D00001F02CFB0AF05CFC11286AD024DC0828D2
:1041E00069D00DDC012873D00428D8D1002013B089
:1041F000BDE8F08F1198103080B2664A0221E7E7DF
:10420000092873D01028CAD1012E1FD0022E26D023
:10421000032EC4D14146284609F0D6FF7F1CFFB2C9
:10422000B842BCD20127BAE720284AD021287BD047
:1042300040281DD04128B2D1C82C01D9641EA4B297
:10424000642141200DF040FB90B389E06D1CADB2BC
:1042500040F633008542A2D94FF4FA659FE708F192
:10426000010000F0FF08B8F10C0F98D901201DE003
:10427000012E0DD0022E13D0032E90D17F1E17F0E9
:10428000FF078CD14146284609F09EFF074686E786
:104290006D1EADB2B5F5FA6F81D240F633057EE7FB
:1042A000A8F1010010F0FF08BDD10C20804676E790
:1042B00045E01CE0FFE7761CF6B2032EB3D90126D9
:1042C0006DE7761E16F0FF06ADD1032667E7FFE720
:1042D000A5F26C75A8F101000497CDE9050501A8C8
:1042E000FCF75FFBCBF80000012080E72EE040F6F2
:1042F0009800844201D2641CA4B2642111200DF004
:10430000E3FA50B12CE0641CA4B220460FF098FBF5
:1043100051460FF0DDFBFFF735FE012111200DF0B6
:10432000D3FA0028EFD01BE016E0641EA4B22046AA
:104330000FF086FB51460FF0CBFBFFF723FE012168
:1043400041200DF0C1FA0028EFD009E040F29E7044
:10435000844205D2643402E0DC2C01D9143CA4B2BE
:1043600020460FF06DFB51460FF0B2FBFFF70AFE3F
:10437000A9F80440FFF764FA11E70000984900200B
:104380000AD7233C253034752D253032752D253044
:1043900032750000200B02082DE9F04F6E4F884661
:1043A00091B08346BC88012501A94046FCF7B0FBCB
:1043B0006A4E4FF0180A4FF03C090198DDE90232CD
:1043C000009067A10CA8FCF703F80CA9584601F06F
:1043D0002FFA012D04D0022D06D0032D09D118E0AB
:1043E000634A0221584602E00BF1060013E001F097
:1043F0001DFA0AF04DFB112868D01DDC082851D0A9
:104400000DDC01285BD00428D7D1002011B0BDE815
:10441000F08F0BF10C0080B2554A0221E7E7092822
:1044200071D01028C9D1012D18D0022D19D0032D1B
:10443000C3D10198401C1FE0202839D021287BD00F
:10444000402811D04128B8D1C82C01D9641EA4B28B
:10445000642141200DF038FA80B371E00398401CCC
:1044600012E00298401C17E0012D0BD0022D11D054
:10447000032DA2D101983B30B0FBF9F209FB1200E9
:1044800001909AE703981730B0FBFAF20AFB12008A
:10449000039092E702983B30B0FBF9F209FB12005F
:1044A00002908AE76D1CEDB2032D86D9012584E7C1
:1044B0006D1E15F0FF0580D103257EE72EE001A8D3
:1044C000FCF76FFAC8F8000001209FE740F698005B
:1044D000844201D2641CA4B2642111200DF0F4F9CD
:1044E00050B12DE0641CA4B220460FF0A9FA314669
:1044F0000FF0EEFAFFF746FD012111200DF0E4F96F
:104500000028EFD01CE011E0641EA4B220460FF09A
:1045100097FA31460FF0DCFAFFF734FD0121412014
:104520000DF0D2F90028EFD00AE005E040F29E70CD
:10453000844205D2643402E0DC2C01D9143CA4B2DC
:1045400020460FF07DFA31460FF0C2FAFFF71AFD50
:10455000BC80FFF775F930E7984900200AD7233C63
:10456000253032753A253032753A253032750000E3
:10457000200B020838B50C4609880091694600F006
:1045800007F8002802D000982080012038BD0000E4
:104590002DE9F74F90B000251198904612F0FF07D3
:1045A0000168724884884FEA1220814601D0A9F13F
:1045B0000100C6B26E48A6EB070A50F82600B1FB10
:1045C000F0F200FB121B58460FF03AFA6849283106
:1045D00051F827100FF03AF90FF098F8CDE90001E3
:1045E00008F0FF034A4663A10AA8FBF7F1FE0AA9F7
:1045F000109801F01DF91098AA4500EB450000DC69
:10460000801C80B25D4A012101F010F9681C009005
:10461000864206D35648711B00EB810050F8040C0B
:1046200000E0012001900AF033FA112857D01CDC79
:10463000082843D007DC01284CD00428C3D100202F
:1046400013B0BDE8F08F092879D01028BBD10199AB
:104650000A20BBFBF1F1B1FBF0F200FB12100928BC
:1046600015D001990BEB010020E020282AD0212849
:104670006BD040280ED04128A5D1C82C01D9641E8A
:10468000A4B2642141200DF01FF9A0B361E00198AC
:1046900040420EE001990A20BBFBF1F1B1FBF0F2C0
:1046A00000FB121020B10199ABEB010083468AE7B1
:1046B000019800EBC00101EB0B00F7E70098B0FB9D
:1046C000F6F103E0A819401E90FBF6F106FB11007D
:1046D000C5B278E711990120C1F800B0B0E740F603
:1046E0009800844201D2641CA4B2642111200DF010
:1046F000EBF858B12DE01AE0641CA4B220460FF08C
:104700009FF91F490FF0E4F9FFF73CFC012111204C
:104710000DF0DAF80028EFD01BE0641EA4B22046AA
:104720000FF08EF916490FF0D3F9FFF72BFC01219A
:1047300041200DF0C9F80028EFD00AE0FFE740F271
:104740009E70844205D2643402E0DC2C01D9143C12
:10475000A4B220460FF074F909490FF0B9F9FFF738
:1047600011FC02488480FFF76BF82CE79849002081
:104770004810020825302A2E2A660000200B020865
:104780000AD7233C2DE9F35F0A8889464FF03C0B9A
:10479000B2FBFBF16423B1FBF3F4DFF8FCA103FBF4
:1047A00014160BFB1125BAF804404FF0000801273E
:1047B000C6EB061005EB8001009806F069FC012F9E
:1047C00006D0022F08D0032F18D0042F09D118E0EB
:1047D000724A0121009802E00098801C13E001F069
:1047E00025F80AF055F911287FD015DC082861D08A
:1047F0000DDC01286CD004285BD172E00098801D8C
:1048000001E00098083080B2644A0121E7E70928F6
:1048100077D010284DD108E0202851D0212871D020
:10482000402813D0412844D17EE0012F06D0022F2A
:1048300006D0032F06D0042F3BD105E00A360FE047
:10484000711C15E00A3521E0691C26E0012F06D015
:10485000022F0BD0032F18D0042F2AD11BE05A3679
:104860006420B6FBF0F100FB1166A1E706F1090137
:104870000A20B1FBF0F200FB1211B6FBF0F000EBE6
:10488000800001EB4000C6B292E73235B5FBFBF188
:104890000BFB11558CE705F109010A20B1FBF0F281
:1048A00000FB1211B5FBF0F000EB800001EB4000C3
:1048B000C5B26AE07F1CFFB2042F66D9012764E00D
:1048C0007F1E17F0FF0760D104275EE00DE0FFE7D1
:1048D000C6EB061005EB8001A9F800104FF00108A7
:1048E00056E04FF0000847464FE040F698008442FB
:1048F00001D2641CA4B2642111200CF0E5FF60B168
:1049000037E02CE031E0641CA4B220460FF098F8A8
:1049100023490FF0DDF8FFF735FB012111200CF0E2
:10492000D3FF0028EFD024E0C82C01D9641EA4B224
:10493000642141200CF0C8FF50B11AE0641EA4B2FB
:1049400020460FF07DF816490FF0C2F8FFF71AFB6A
:10495000012141200CF0B8FF0028EFD009E040F21F
:104960009E70844205D2643402E0DC2C01D9143CF0
:10497000A4B220460FF064F809490FF0A9F8FFF738
:1049800001FBAAF80440FEF75BFF002F7FF46DAF38
:104990004046BDE8FC9F000098490020200B02081B
:1049A0000AD7233C024945F63C20086070470000C6
:1049B0008C00002070B514460D46064609F03EFBFB
:1049C000E2B229463046FFF74BFB044609F03EFBB6
:1049D000204670BD70B514460D46064609F02EFB04
:1049E000E2B229463046FFF769FB044609F02EFB88
:1049F000204670BD10B51BA0FDF7C6F910221B495B
:104A00001BA0FDF7E3F93022102119A0FDF732F9C0
:104A10001BA0FDF7B9F9102214491BA0FDF7D6F928
:104A20004022102118A0FDF725F91BA0FDF7ACF9D5
:104A300010220E491AA0FDF7C9F97022102118A002
:104A4000FDF718F91AA0FDF79FF9102207491AA0DF
:104A5000FDF7BCF97022BDE81040102116A0FDF74B
:104A600009B900005C53445F414952003001002005
:104A70005C53445F4149525C4149522E54585400A2
:104A80005C53445F545350005C53445F5453505C38
:104A90005453502E545854005C53445F52323400E7
:104AA0005C53445F5232345C5232342E54585400BA
:104AB0005C53445F534849005C53445F5348495C2E
:104AC0005348492E5458540030B5ADF5017D4FF48C
:104AD00000752A4649496846FBF7CDFE40F60A4470
:104AE00047A1204600F0A4FE0F23484A002148A019
:104AF000FDF70EF900286DD00F2244496846FBF7F8
:104B00001EFE20B12A46694641A0FDF75FF945A186
:104B1000204600F08DFE0F233C4A002144A0FDF703
:104B2000F7F800285AD00F2238496846FBF707FEED
:104B300020B12A4669463EA0FDF748F941A120462A
:104B400000F076FE0F23314A002141A0FDF7E0F886
:104B5000002847D00F222D496846FBF7F0FD20B111
:104B60002A4669463AA0FDF731F93EA1204600F0F9
:104B70005FFE0F23254A00213DA0FDF7C9F800285C
:104B800034D00F2221496846FBF7D9FD20B12A46CF
:104B9000694637A0FDF71AF93AA1204600F048FE11
:104BA0000F231A4A00213BA0FDF7B2F8002821D0BC
:104BB0000F2216496846FBF7C2FD20B12A46694616
:104BC00034A0FDF703F938A1204600F031FE0DF5C1
:104BD000017D30BD38A0FDF7D7F893E739A0FDF788
:104BE000D3F8A6E73AA0FDF7CFF8B9E73BA0FDF769
:104BF000CBF8CCE73CA0FDF7C7F8DFE7480E02088A
:104C00004C6F6164696E672E000000003847002019
:104C10005C5553425F4149525C4149522E545854AD
:104C2000000000004C6F6164696E672E2E0000006A
:104C30005C5553425F5453505C5453502E54585457
:104C4000000000004C6F6164696E672E2E2E00001C
:104C50005C5553425F5232345C5232342E545854B5
:104C6000000000004C6F6164696E672E2E2E2E00CE
:104C70005C5553425F5348495C5348492E5458543D
:104C8000000000004C6F6164696E672E2E2E2E2E80
:104C9000000000005C5553425F504F575C504F5727
:104CA00045522E54585400004C6F6164696E672E53
:104CB0002E2E2E2E2E0000005C5553425F4149528D
:104CC000000000005C5553425F5453500000000048
:104CD0005C5553425F523234000000005C55534231
:104CE0005F534849000000005C5553425F504F57E6
:104CF0000000000010B50C4641010C23224603A021
:104D000004F01CFC002800D1206010BD5C53445FFF
:104D10004149525C4149522E5458540010B50C463A
:104D200081014023224603A004F008FC002800D1A2
:104D3000206010BD5C53445F5232345C5232342EDA
:104D40005458540010B50C4681014023224603A05C
:104D500004F0F4FB002800D1206010BD5C53445FD8
:104D60005348495C5348492E5458540010B50C46DA
:104D700000EB8000C1002423224603A004F0DEFBE8
:104D8000002800D1206010BD5C53445F5453505C38
:104D90005453502E5458540070B50C4605466421A7
:104DA0000848FBF79AFD07482168024601606168E0
:104DB0004160A16881606901BDE87040202302A0C4
:104DC00004F0BEBBD04400205C53445F4149525CB8
:104DD0004149522E5458540070B50D460446642182
:104DE0000748FBF77AFD402229460548FBF7FEFC01
:104DF000A101BDE870404023014A02A004F0A0BB1D
:104E0000D04400205C53445F5232345C5232342E22
:104E10005458540070B50D46044664210748FBF70A
:104E20005CFD402229460548FBF7E0FCA101BDE8F6
:104E300070404023014A02A004F082BBD04400200D
:104E40005C53445F5348495C5348492E54585400BE
:104E500070B50D46044664210848FBF73EFD242248
:104E600029460648FBF7C2FC04EB8400BDE870400D
:104E7000C1002823014A02A004F062BBD0440020F4
:104E80005C53445F5453505C5453502E5458540058
:104E900070B58CB00D460446302226496846FBF7B3
:104EA000EAFC25492846FBF733FE234822492C30EB
:104EB000C368CA6893423BD04B6903F26C73436189
:104EC0000969491CC0E9032161696422481E90FBFD
:104ED000F2F3C51700EB9575C3EBA503950090FBA6
:104EE000F5F633448E070ED191FBF2F602FB161253
:104EF00022B991FBF5F205FB121121B921690229B2
:104F000001DD012100E0002122696D4605EB8202EE
:104F1000E56852F8042C2A4440F26D1500FB053078
:104F200010440844072190FBF1F201FB1200A0613C
:104F30000CB070BD981002080048002070B5144CE9
:104F4000144E2046217A457A4089012915D002293C
:104F500009D003291BD10EF073FD31460EF0B8FDC8
:104F600029460DF0DDFAA0890EF06AFD31460EF0FB
:104F7000AFFDBDE870400DF0E7BA0EF061FD3146BF
:104F80000EF0A6FD2946BDE870400DF0C9BA70BD0F
:104F900098490020CDCCCC3D1148816941F00101F8
:104FA00081611049202048610F48016821F40051B7
:104FB0000160001F016821F45C4101600A49091D7C
:104FC0000A680A60091D0A6842F400520A60064A2B
:104FD000411410321160016841F4005101607047C2
:104FE00000100240000001400404014008B5002008
:104FF000009001F037FA08A140F6162000F018FCE6
:105000004FF4C062694641F21620FFF7C1FA00284A
:1050100000D0009808BD0000CAE4C8EBC3DCC2EBB6
:105020003A000000042801D0042070470320704794
:10503000022805D0032805D0042805D00220704797
:105040000320704704207047012070472DE9F04F7E
:105050000746AA48884699B0848805A91691A848A9
:105060000AA9149100260FA9354600EB480A00EB67
:1050700047091591B9F8261068462DF8161000EB6F
:105080004600BAF826108182B9F81A100185761CFC
:10509000BAF81A10F6B281870A2E02D025B10A2179
:1050A00003E000260125FAE73146684608F08AFF4A
:1050B000DFF850B22BF817000DB10A2100E031469D
:1050C000169808F07FFF2BF818000DB10A2100E0B8
:1050D0003146149808F076FF8A4901EB470BABF88C
:1050E00014000DB10A2100E03146159808F06AFF5E
:1050F0008449474501EB48011791888232D10DB1AF
:105100000A2100E03146684608F05CFF01467D4810
:1051100020F817100DB10A2100E03146149808F06C
:1051200051FFABF8140078A140F6044000F080FB7A
:10513000384609F045FE014640F2026B00235A460C
:1051400041F2035005F032FD71A140F6184000F025
:105150006FFB384609F09AFD014600235A4641F29A
:10516000175058E00DB10A2100E03146684608F0BA
:1051700029FF644921F817000DB10A2100E03146EA
:10518000169808F01FFF01465E4820F818100DB170
:105190000A2100E03146149808F014FFABF814001F
:1051A0000DB10A2100E03146159808F00BFF179960
:1051B000888255A140F6044000F03AFB384609F0D9
:1051C000FFFD014640F2026B00235A4641F20340C4
:1051D00005F0ECFC404609F0F3FD014600235A4679
:1051E00041F6030005F0E2FC49A140F6184000F04A
:1051F0001FFB384609F04AFD014600235A4641F29A
:10520000174005F0D3FC404609F040FD014600235D
:105210005A4641F6170005F0C9FC282009F0F0FDB8
:1052200000283FF427AF09F033FC112820D00CDC14
:10523000012818D0042816D009287FF41BAF40F2AB
:105240009E7084424DD264344AE0212845D04128E2
:10525000F3D1C82C01D9641EA4B2642141200CF002
:1052600033FB80B33DE0FDF7C1FE19B0BDE8F08F20
:1052700040F69800844201D2641CA4B2642111203B
:105280000CF022FB58B12CE0641CA4B220460EF0B6
:10529000D7FB59460EF01CFCFEF774FE01E0DFF868
:1052A00078B0012111200CF00FFB0028ECD018E0A1
:1052B000641EA4B220460EF0C3FB59460EF008FC53
:1052C000FEF760FE02E0FFE7DFF84CB0012141206D
:1052D0000CF0FAFA0028EBD003E0DC2C01D9143CE6
:1052E000A4B220460EF0ACFB0B490EF0F1FBFEF72A
:1052F00049FE02488480FEF7A3FABBE698490020E5
:105300009245002024490020C1F7C1BF3A000000A7
:10531000BCC6D1B93A0000000AD7233C2DE9F04FB2
:105320000746AA48884699B0848805A91691A848D6
:105330000AA9149100260FA9354600EB480A00EB94
:1053400047091591B9F8261068462DF8161000EB9C
:105350004600BAF826108182B9F81A100185761C29
:10536000BAF81A10F6B281870A2E02D025B10A21A6
:1053700003E000260125FAE73146684608F022FEE0
:10538000DFF850B22BF817000DB10A2100E03146CA
:10539000169808F017FE2BF818000DB10A2100E04E
:1053A0003146149808F00EFE8A4901EB470BABF822
:1053B00014000DB10A2100E03146159808F002FEF4
:1053C0008449474501EB48011791888232D10DB1DC
:1053D0000A2100E03146684608F0F4FD01467D48A8
:1053E00020F817100DB10A2100E03146149808F09A
:1053F000E9FDABF8140078A140F60F7000F018FA40
:10540000384609F0DDFC014640F2026B00235A46A3
:1054100041F20E5005F0CAFB71A140F61C7000F07D
:1054200007FA384609F032FC014600235A4641F299
:105430001B5058E00DB10A2100E03146684608F0E3
:10544000C1FD644921F817000DB10A2100E0314681
:10545000169808F0B7FD01465E4820F818100DB107
:105460000A2100E03146149808F0ACFDABF81400B6
:105470000DB10A2100E03146159808F0A3FD1799F7
:10548000888255A140F60F7000F0D2F9384609F035
:1054900097FC014640F2026B00235A4641F20E404F
:1054A00005F084FB404609F08BFC014600235A4678
:1054B00041F60E0005F07AFB49A140F61C7000F0A1
:1054C000B7F9384609F0E2FB014600235A4641F29B
:1054D0001B4005F06BFB404609F0D8FB014600235A
:1054E0005A4641F61B0005F061FB282009F088FCB4
:1054F00000283FF427AF09F0CBFA112820D00CDCAC
:10550000012818D0042816D009287FF41BAF40F2D8
:105510009E7084424DD264344AE0212845D041280F
:10552000F3D1C82C01D9641EA4B2642141200CF02F
:10553000CBF980B33DE0FDF759FD19B0BDE8F08F20
:1055400040F69800844201D2641CA4B26421112068
:105550000CF0BAF958B12CE0641CA4B220460EF04D
:105560006FFA59460EF0B4FAFEF70CFD01E0DFF8D1
:1055700078B0012111200CF0A7F90028ECD018E038
:10558000641EA4B220460EF05BFA59460EF0A0FA53
:10559000FEF7F8FC02E0FFE7DFF84CB00121412004
:1055A0000CF092F90028EBD003E0DC2C01D9143C7C
:1055B000A4B220460EF044FA0B490EF089FAFEF729
:1055C000E1FC02488480FEF73BF9BBE698490020E5
:1055D0009245002024490020C1F7C1BF3A000000D5
:1055E000BCC6D1B93A0000000AD7233C032803D037
:1055F000042803D003207047042070470020704720
:10560000012807D0022807D0032807D0042807D094
:105610000120704702207047032070470420704724
:10562000002070470449FF200860034814380168CF
:105630006FF3090101607047140401401348816948
:1056400041F0010181611248012181600021C160A6
:10565000104801686FF309010160001F016821F41F
:10566000407101600B49091D0A6842F0FF020A609F
:10567000091D0A6842F0FF020A60064AFF21103243
:105680001160016841F0FD010160704700100240A7
:10569000000001400404014010B5FFF7C3FF0348B8
:1056A000C068BDE810400CF07FB800000800002082
:1056B00010B5002108480CF05FF8084C0021E060AC
:1056C0000548001D0CF058F8A06003480021BDE813
:1056D000104008300CF092B8AC3F010808000020E0
:1056E0000F48816941F004018161816941F008013D
:1056F00081610C49FC2008600B49032008600948BF
:1057000010380168094AC9B21143016006481038CF
:10571000016821F00F0141F00801016070470000AD
:105720000010024010080140100C014000888888D9
:10573000064800680649C0F38500096801F00101C8
:1057400040EA81117F20884370470000080801402B
:10575000080C01402DE9F04127480568274885429B
:1057600000DD05462648008907F0F0FA254C014681
:10577000E068A061804628460EF030FB05462249CD
:10578000E0600EF0A5F907462061204928460EF09A
:105790009FF961680DF0E6FF0646606041462846C5
:1057A0000EF01CFB1A490EF093F905466061314674
:1057B00038460DF0D7FF29460DF0D4FF15490EF0FD
:1057C00087F905461449A0680EF082F929460DF0C4
:1057D000C9FF1249A060884202DC1149884200DA00
:1057E000A1601049A0680EF073F90EF0F1F8BDE861
:1057F000F04180B200F02EBE2C0000200000B0412D
:1058000084450020940000204260E53B8FC2753C37
:10581000A69B443B6666663FCDCCCC3D83C02A3F09
:105820000AD7A33C0000D84605F030BE04F030B9DA
:1058300004F028BA08498A6942F010028A6108B166
:10584000891501E04FF0807104480161416821F041
:105850000F01C91C41607047001002400010014058
:1058600070B50C4600EBC40605467068FAF748FFB1
:10587000C1B235F834007268BDE87040FFF7D6BF9A
:1058800070B501880546080ACEB201D07043C6B291
:10589000696819B14FF48170FFF7CAFF4FF424749F
:1058A0000C4A40F20251204607F085F9094A40F2BD
:1058B0001451204607F07FF9012408E005EBC400ED
:1058C000416835F83400FFF7B3FF641CE4B2B4421A
:1058D000F4D970BDE008020800F03AB930B41C46B3
:1058E0001346224630BC00F005BA30B41C461346BD
:1058F000224630BC00F0E8BA30B41C4613462246BB
:1059000030BC00F001B800002DE9FF5F06460C46F0
:1059100085483188904685884FF0000B080ACFB241
:1059200032D0784300F0FF0A0CB1544500D901246D
:1059300006EBC409D9F80400FAF7E2FEC1B236F862
:105940003400D9F80420FFF771FF00BF5FEA0800B8
:1059500000D08047322009F053FA0028F6D036F8FC
:105960003400D9F80410FFF763FF09F091F810280C
:1059700047D00BDC0A28DBD2DFE800F005575B05D7
:10598000D005A9052292D3E7BA46CDE7212872D0E7
:1059900008DC11284FD02028CAD1039850EA0B0008
:1059A0003CD032E0402823D04128C1D1C82D01D9B4
:1059B0006D1EADB2642141200BF086FFA0B379E0EB
:1059C000039850EA0B0017D003E000BFA4EB0A00D5
:1059D0000CE0B4FBF7F007FB104008B9E01BC4B2C1
:1059E000641CE4B2A4E7E01B00E0E019C4B29FE746
:1059F000039830EA0B00ECD1E019C4B2544597D9B2
:105A0000E4E7039830EA0B0008D0641EE4B2B4FB6C
:105A1000F7F007FB104000288AD1E6E7BC42E2D845
:105A200004EB0A00C4B2DEE731E0204604B0BDE872
:105A3000F09FFF20FAE740F69800854201D26D1CE6
:105A4000ADB2642111200BF03FFF58B132E06D1C64
:105A5000ADB228460DF0F4FF49460EF039F8FEF7D6
:105A600091FA01E0DFF8C490012111200BF02CFF26
:105A70000028ECD01EE019E06D1EADB228460DF0F6
:105A8000DFFF49460EF024F8FEF77CFA01E0DFF86C
:105A90009C90012141200BF017FF0028ECD009E079
:105AA00040F29E70854205D2643502E0DC2D01D9BA
:105AB000143DADB228460DF0C3FF1C490EF008F8A6
:105AC000FEF760FA18488580FDF7BAFE30E7C82176
:105AD00006200BF0F9FE002884D108F082FA642039
