:020000040800F2
:10000000B85100203D0300084503000847030008DD
:10001000490300084B0300084D03000800000000DE
:100020000000000000000000000000007502000851
:100030005103000800000000ED0200082903000839
:10004000570300085703000857030008A16B000876
:100050005703000857030008113E0008313E00080E
:10006000393E0008413E0008493E00085703000899
:1000700057030008570300085703000857030008F8
:1000800057030008570300085703000857030008E8
:10009000570300085703000857030008513E0008A3
:1000A00057030008570300085703000857030008C8
:1000B00057030008570300089987000857030008F2
:1000C00057030008570300085703000857030008A8
:1000D0005703000857030008570300085D8800080D
:1000E000193E0008570300085703000800F002F803
:1000F00000F07AF80AA090E8000C82448344AAF148
:100100000107DA4501D100F06FF8AFF2090EBAE845
:100110000F0013F0010F18BFFB1A43F0010318473B
:100120001CDC01003CDC01000A444FF0000C10F81C
:10013000013B13F0070408BF10F8014B1D1108BF65
:1001400010F8015B641E05D010F8016B641E01F805
:10015000016BF9D113F0080F1EBF10F8014BAD1C55
:100160000C1B09D16D1E58BF01F801CBFAD505E073
:1001700014F8016B01F8016B6D1EF9D59142D6D3CD
:10018000704700000023002400250026103A28BFF5
:1001900078C1FBD8520728BF30C148BF0B607047F9
:1001A00066290FF0EC86642900F07881752900F04B
:1001B0007581782900F0AE81732900F098870020BE
:1001C00070471FB500F097FF0400002000210FF0DA
:1001D00031F8E0601FBD10B510BD03B4FFF7FBFFA1
:1001E00003BC01F087F8000000F0CCF81146FFF7DF
:1001F000E8FF0DF039FB044800210DF0FBFB0DF08A
:1002000045FB00F053FA00003800002080F3098815
:100210007047EFF309807047684680F30988044807
:100220000078C00714BF0220032080F314887047B1
:1002300004CC0108DFF818C0EFF305831B0618BFD4
:100240006047EFF31483DB0708BF604700DF7047A8
:10025000F5DA0008DFF818C0EFF305831B0618BFB6
:100260006047EFF31483DB0708BF604700DF704788
:10027000D9DC0008EFF30980816911F8021CF1B99B
:1002800090E80F10E047EFF3098C8CE80700144B5F
:1002900093E8060091420FD039B12CE9F00FC1F874
:1002A00024C00CB40EF04CF80CBC1A60D2F824C078
:1002B000BCE8F00F8CF309886FF0020E704710B5A0
:1002C000084A1268914209D8074C54F8214090E836
:1002D0000F10A047EFF3098C8CE80F0010BD000051
:1002E00048030020F81A0008F81A00080DF0C4FEB0
:1002F0000C4B93E80600914210D0EFF3098C2CE9E7
:10030000F00FC1F824C00CB40EF01AF80CBC1A603F
:10031000D2F824C0BCE8F00F8CF309886FF0020E0D
:1003200070470000480300200EF0D0F8E0E700001E
:100330000DF0B2FB0EF0CAF8DAE70000094880477A
:1003400009480047FEE77047FEE7FEE7FEE7FEE7E5
:10035000FEE7FEE7FEE7FEE704480549054A064BCF
:100360007047000075860008ED000008B84B0020BB
:10037000B8510020B84D0020B84D0020004870470B
:10038000584B00207546FFF7F9FFAE460500694659
:10039000534620F00700854618B020B5FFF7DCFF74
:1003A000BDE820404FF000064FF000074FF0000876
:1003B0004FF0000B21F00701AC46ACE8C009ACE8F7
:1003C000C009ACE8C009ACE8C0098D467047000020
:1003D0000FB41CB5074B06AA7B44694600900598EC
:1003E00000F05BFE0020694600F06AFE1CBC5DF870
:1003F00014FB0000E50C000070B504468569006838
:10040000C10601D5302600E02026C00708D070BD07
:10041000D4E9012130469047206A00F101002062B2
:100420006D1EF5D570BD70B5044685690078C007AE
:1004300008D170BDD4E9012120209047206A00F145
:10044000010020626D1EF5D570BD70B50C460546E5
:10045000012A05D02878800600D5EA69002302E049
:10046000012305E05B1C934202D2E05C0028F9D135
:10047000A869E618C01AA861286A184428622846A4
:10048000FFF7BAFF04E0D5E9012114F8010B90470A
:10049000B442F8D32846FFF7C6FF70BD2DE9F041FE
:1004A0000646002410687529314616A511D0AFF311
:1004B0000080002803DAC0F1000013A507E03168CE
:1004C0008A0701D511A502E0490704D510A501242A
:1004D00001E0AFF3008000210A2306F1240707E0C2
:1004E000B0FBF3F203FB1200303078541046491C85
:1004F0000028F5D123462A463046BDE8F04100F0F9
:100500005BBB0000000000002D0000002B0000007D
:100510002000000070B504460D4621461068AFF378
:1005200000802188090502D5104A7A4402E00F4A6A
:100530007A440E32002104F1240307E000F00F0694
:100540004FEA1010965D5E5401F101010028F5D1CB
:1005500003462078000704D5702D02D009B111326E
:1005600002232046BDE8704000F026BB0ED10100FA
:100570002DE9F05F894604464FF0000ADFF828B104
:10058000FB44C0F820A02046E168884700287CD0C2
:10059000252806D0D4E901219047206A401C20621A
:1005A000F1E700255F462046E16888472028064697
:1005B00008DB312E06D207EB060010F8200C08B13C
:1005C0000543F0E7A80701D525F00405C4F81CA0F1
:1005D0000027C4F818A02A2E09D0304608F053FB93
:1005E00038B304EB8708303EC8F8186019E059F8B2
:1005F000041B204604EB87029161E1688847012FC4
:10060000064618D1E069002820DA25F020051DE013
:10061000D8F8180000EB800006EB40003038C8F82E
:1006200018002046E1688847064608F02CFB0028A1
:10063000EED1012F0AD02E2E08D12046E16888473E
:100640007F1C0646022F45F02005C4DBA069002868
:1006500003DA404245F00105A061E80701D025F02A
:10066000100596B1A6F14100192802D8203645F4AC
:1006700000654A463146204625604D46FFF790FD0D
:1006800060B1012807D0ED1D00E009E025F007006A
:1006900000F1080977E705F1040974E7304679E7C6
:1006A000206ABDE8F09F0000E0D001000446AFF3EF
:1006B00000802046FFF791FD40EA0103024630B575
:1006C0009B0710D14FF0013400E008C208C91D1B80
:1006D0009D4315EAC41FF8D013F0FF0102F8011B77
:1006E0000DD01B0AF8E711F8013B002B02F8013B83
:1006F00005D011F8013B002B02F8013BF3D130BDCE
:1007000010B5431C02E010F8011B71B18107FAD14A
:100710004FF0013202C88C1A8C4314EAC211F9D08E
:10072000C01A0A0603D0C01E10BDC01A10BD0A04AC
:1007300001D0801E10BD0902FCD0401E10BD40EA51
:10074000010370B59B072ED14FF00136042A2AD33E
:1007500008C810C9121F9D1B9D4315EAC61517D066
:10076000D8B2E1B2401A50EA056110D198B2A1B2F4
:10077000401A50EA05410AD123F07F4024F07F411E
:10078000401A50EA052102D1180EA0EB146070BD8A
:10079000A342DBD018BA21BA884201D9012070BD2A
:1007A0004FF0FF3070BD0AB9002070BD10F8013B5A
:1007B00011F8014B63B1A3420AD1521E08D010F8C0
:1007C000013B11F8014B1BB1A34201D1521EEDD1E7
:1007D000181B70BD032A40F2308010F0030C00F0AB
:1007E000158011F8013BBCF1020F624498BF11F86B
:1007F00001CB00F8013B38BF11F8013BA2F1040224
:1008000098BF00F801CB38BF00F8013B11F003039B
:1008100000F02580083AC0F0088051F8043B083AFF
:1008200051F804CBA0E80810F5E7121D5CBF51F8A1
:10083000043B40F8043BAFF30080D20724BF11F81B
:10084000013B11F801CB48BF11F8012B24BF00F880
:10085000013B00F801CB48BF00F8012B704710B5F1
:10086000203AC0F00B80B1E81850203AA0E81850A8
:10087000B1E81850A0E81850BFF4F5AF5FEA027C69
:1008800024BFB1E81850A0E8185044BF18C918C0D8
:10089000BDE810405FEA827C24BF51F8043B40F879
:1008A000043B08BF7047D20728BF31F8023B48BF5E
:1008B00011F8012B28BF20F8023B48BF00F8012B9C
:1008C00070474FF000020429C0F0128010F0030CB2
:1008D00000F01B80CCF1040CBCF1020F18BF00F833
:1008E000012BA8BF20F8022BA1EB0C0100F00DB8E2
:1008F0005FEAC17C24BF00F8012B00F8012B48BF40
:1009000000F8012B70474FF0000200B513469446E3
:100910009646203922BFA0E80C50A0E80C50B1F157
:100920002001BFF4F7AF090728BFA0E80C5048BF6B
:100930000CC05DF804EB890028BF40F8042B08BF09
:10094000704748BF20F8022B11F0804F18BF00F805
:10095000012B704730B503681C1404EB21459BB292
:1009600089B2194495FBF2F402FB145301EB0341E5
:1009700091FBF2F302FB131101E05B1E114400290D
:10098000FBDB016003EB044030BD2DE9F04704467A
:100990004FF0FF3A86B00068029060680390A0684C
:1009A0000490E0680190206900906569B5F1804F7E
:1009B0007EDCB5F1404F7BDB3C22002102A8FFF733
:1009C000C9FF3C22014603A8FFF7C4FF18220146D5
:1009D00004A8FFF7BFFF411E40F2B55201A8FFF780
:1009E000B9FF0C22064668460021FFF7B3FF00EB73
:1009F000860028443E4D00267D440FE09A1A491C8B
:100A0000CDE90012022902D00C2907D104E08107A8
:100A100004D0521C019201E0401C00960099019BF9
:100A20006A5C9A42EADD012906D11C2B04D18107B8
:100A300002D00221CDE90016A0F146018B2940D257
:100A40000199009B00220F4602E0AE5C521C31442B
:100A50009A42FADB012B02DD820700D0491E40F2E8
:100A6000B55540F26D16C21700EB927292106A43B0
:100A700000F0030505FB062285070A4400D1521E3B
:100A8000049D02EB4206DDF80C80A94605EBC60585
:100A9000184EC5EB0515DDF808C008EB8505354493
:100AA0002E14ADB2C6EB0616C5EB0515B60000E078
:100AB00007E00CEB850506EB154666F31F45360C83
:100AC00003D0504606B0BDE8F0877F1CC4E904306F
:100AD000521C072092FBF0F304F1180600FB1320D0
:100AE000A6E803042846C4E90297C4E900C8E9E778
:100AF00079CC0100A039CEFD70B50C46016800200C
:100B00004A1C34D040F2B5553C23B1FBF3F203FB51
:100B100012112160B2FBF3F103FB11221823626072
:100B2000B1FBF3F203FB1211A16046F2E0310A447B
:100B30000721B2FBF1F301FB1321B2FBF5F305FB37
:100B40001322A1619900B2F5B77F06D3521EAD10F2
:100B5000B2FBF5F3194405FB13220F4BE26161610F
:100B600089077B440CD03B2A0AD3521C08E02C2175
:100B70002046FFF7C8FE0120E0600AE0521A401C40
:100B8000195C9142FAD9521CC4E903204FF0FF309E
:100B90002062204670BD00000FCB010070477047F7
:100BA000704710B500F0ACFA006810BD10B50446EF
:100BB00000F0A6FA046010BD2DE9F0470D469946F5
:100BC0009246044600F124080168880604D5E069CD
:100BD00021F01001216000E00120A84202DDA0EB1D
:100BE000050700E00027A16907EB050202EB0900F9
:100BF000A1EB0000A0612078C00602D42046FFF7D8
:100C0000FBFB002608E0D4E901211AF80600904712
:100C1000206A401C761C20624E45F4DB2078C0061A
:100C20000AD52046FFF7E8FB06E0D4E90121302091
:100C30009047206A401C2062381EA7F10107F4DCAF
:100C400007E0D4E9012118F805009047206A401C0C
:100C50002062281EA5F10105F3DC2046FFF7E3FB27
:100C60002078000602D50220BDE8F0870120FBE7CE
:100C700070472DE9FF4F0C461E464FF0FF378BB0F3
:100C8000D2E90001DDF860800A908A46C1F30A5576
:100C900005B93D46002108464FF00000BAF1000FAB
:100CA00000F4400005DA00EB80004FF4400101EA57
:100CB00050004FEA9059B9F1010F00DDB9460A988A
:100CC00050EA4A000ED044F61050A5F2FF354543D5
:100CD0002F14B8F1000F1ED07542291E1EDDC9F178
:100CE00000021CE0B8F1010F4FF0000001D03021EC
:100CF00003E0F24305E02154401CB042FBDB3046E8
:100D00000022002121540B99C1F80880C1E900207C
:100D10000FB0BDE8F08FBD1B6D1CDEE74A4600DA60
:100D2000694206A800F074FA06AB07CB03AB07C311
:100D300050460A9900F025FB8DE80700A0F5005009
:100D40001F3800900398002D09DD42F21F014A462A
:100D5000084403A90390684600F084FD08E0A0F56C
:100D600000504A461F3803A90390684600F08EFDE4
:100D70008DE807000004000C03D04FF0FF3041085D
:100D800000E01046B8F1000F03D000220092154693
:100D90001FE0751E06D400F0B5F902F1300262556D
:100DA0006D1EF8D5B3460122084302D000227F1CF5
:100DB00004E02078302801D100227F1E002A099704
:100DC00087D01DE0112D07DA00F09CF93032625512
:100DD0006D1C50EA0102F5D108430FD10021681EB5
:100DE00005E0235C625C6354491C2254401E81422E
:100DF000F7DBAB46A81B401E099001E0009848B104
:100E0000002004F80B000B98099AC0F80880C0E98C
:100E1000002B7DE711264FF000085AE72DE9F04F2F
:100E200088460446D21D22F0070191B0D1E90001A5
:100E3000CDE90A0107F085FE02460B98C00F01D0EC
:100E40002D2007E02068810701D52B2002E020211A
:100E500001EAC000032A099001D0072A05DB0346F6
:100E60004146204600F094F90FE12078800601D534
:100E7000E06900E00620B8F1650F814606D0B8F1C0
:100E8000660F18D0B8F1670F72D132E00020B9F1C7
:100E9000110F009001DB112301E009F101030AAAFF
:100EA00001A90CA8FFF7E5FEDDE90C70002609F1A9
:100EB0000105834648E001204B4600904FF0004773
:100EC0000AAA01A90CA8FFF7D4FEDDE90DB00C9920
:100ED0005D46002618B909F1010001EB0005B9EBE8
:100EE000050003D4C0F1FF3609F10105A5EB0900A7
:100EF0002BE0B9F1010F01DA4FF001090020B9F13F
:100F0000110F0090484601DD112300E003460AAAB4
:100F100001A90CA8FFF7ADFEDDE90C704D460026D7
:100F20008346207800070AD4AB4500DA5D4601A865
:100F3000012D04DD411911F8011C302907D04F455E
:100F400002DA17F1040F04DA0120824610E06D1E68
:100F5000EEE7002F02DCED1B3E4403E0781CA842C4
:100F600000DD0546A7EB060000F1010A4FF000473F
:100F70002078000703D4AA4501DB4FF0FF3A002197
:100F8000B7F1004F0DF143088DF8431023D0022034
:100F90002B23002F01DA7F422D234FF00A0C011E74
:100FA000A0F1010000DC4FB197FBFCF10CFB1172CA
:100FB0000F4602F1300208F8012DF0E7A8F1010018
:100FC00003702188090501D5452100E06521A0F1C4
:100FD000010800F8011C09980FA9A1EB080707F107
:100FE000070700B1012000EB050101EBEA70A169E0
:100FF0003844A1EB0000A0F10100A0612078C006F8
:1010000002D42046FFF7F8F9099830B1D4E901215C
:101010009047206A00F1010020622078C00620D5A8
:101020002046FFF7E9F91CE0002E04DBB34502DDA2
:1010300001A8805D00E03020D4E901219047206ABA
:10104000761C401CBAF1010A20620AD100F053F864
:10105000C0680168405CD4E901219047206A401CC7
:101060002062281EA5F10105DEDC07E0D4E901219C
:1010700018F8010B9047206A401C2062381EA7F127
:101080000107F3DC2046FFF7CEF9022011B040E65D
:1010900001694A1C02610878704700B58FB0CDE93C
:1010A00001310021059105497944CDE9031011462C
:1010B0006846FFF75DFA0FB000BD0000E5FFFFFFD7
:1010C0000A6802F8010B0A60704710B5436913B152
:1010D000AFF3008001E0FFF7B8F9012010BD1278EE
:1010E00000F124010A7000224A700122EDE7116824
:1010F0004FF0FF32E9E710B5FFF740F9203010BD9F
:1011000007F034BD30B5B0F10A024FEA900E71F12C
:1011100000034EEA817EB0EB0E0061EB91014FEAD5
:10112000101E4EEA017E10EB0E0041EB11114FEA4A
:10113000102E4EEA016E10EB0E0041EB11214FEA2A
:10114000104E4EEA014E10EB0E0041EB11414018DB
:1011500041F100014FEAD00040EA41704FEAD1016D
:1011600010EB80054FEA810444EA907444EB0104DB
:101170006D1944EB0404521BA3414FF0000348BF18
:101180000A3200D530BD401C41F1000130BD0000E5
:101190002DE9F0411F46044603260168072A01F4A1
:1011A000006004DB08B116A505E016A503E008B150
:1011B00015A500E015A521F010002060A069C01E53
:1011C000A0610FB1401EA0612046FFF715F94FB195
:1011D000D4E9012138469047206A401C2062C01C97
:1011E000206206E0206AFAE7D4E9012115F8010B34
:1011F0009047761EF8D22046FFF715F9BDE8F0813A
:101200004E414E006E616E00494E4600696E6600AA
:101210002DE9F047814616468AB035487844D0E932
:10122000002380680092CDE90130314878440C38C1
:10123000D0E90223006903924FF03702CDE9043070
:1012400041F69B30014491FBF2F0A0F1800502FBD6
:1012500010141B3C02D56442012000E00020DFF89E
:1012600090A080460027FA44AAF1C60A0DE0E007E4
:1012700009D03246684607EB47010AEB810100F0CE
:1012800005FB8DE8070064107F1C002CEFD1184F80
:101290007F44B43F17E0E80713D007EB04100DF1CB
:1012A000180A90E80E00AAE80E00C068F04201D1CA
:1012B00098190890324606A903A800F0E7FA03AB94
:1012C00007C36D10641C002DE5D132466946B8F1A4
:1012D000000F03A802D000F0C5FA01E000F0D6FA32
:1012E000C9E90001C9F808200AB0BDE8F08700008C
:1012F000E0C4010001491820ABBEFEE72600020051
:101300004FF0013C50F8042B51F8043B9A4221D194
:10131000A2EB0C03934313EACC1317D150F8042B20
:1013200051F8043B9A4215D1A2EB0C03934313EA04
:10133000CC130BD150F8042B51F8043B9A4209D13D
:10134000A2EB0C03934313EACC13DBD04FF0000065
:10135000704700BFD01A01BAB1FA81F101F018014B
:1013600022FA01F0CB40C1F12001DBB2C0B2C01AB9
:101370002CFA01F3D11A914311EAC311E6D1704757
:1013800070475FEA400C08BF91F0000F4FEA8C23D2
:101390004FEAC12243EA51514FEA1C5018BF00F5F1
:1013A000F0404FEA300018BF41F000415FEA6C5C4A
:1013B00000F02980BCF1FF3F08BF40F0804070473B
:1013C000130C06BF12044FF0100C4FF0000C130E5C
:1013D00004BF12020CF1080C130F04BF12010CF130
:1013E000040C930F04BF92000CF1020CD30F04BF46
:1013F00052000CF1010C11464FF00002A0F11F0049
:10140000A0EB0C00704711F0004F08BF704731F09F
:1014100000413FF4D5AF0B0C06BF09044FF0100C90
:101420004FF0000C0B0E04BF09020CF1080C0B0F5F
:1014300004BF09010CF1040C8B0F04BF89000CF1EF
:10144000020CCB0F04BF49000CF1010CCCF12003BE
:10145000A0EB0C0022FA03F302FA0CF241EA0301BA
:1014600000F10100704720F07F4C80EA030023F078
:101470007F47ACEB070303F57C5300F0004003F11A
:10148000FF032DE980494FEA154B09B44FEA144395
:1014900025EA0B4E24EA03480FF2042606EB132735
:1014A00049083E785FEA320203FB0667C7F500078A
:1014B00007FB06F64FEA54374FEAD64606F1020616
:1014C00007FB066CCCF1005C4FEA1C472CEA074C8A
:1014D00007FB06F40CFB06F504EB15464FEA9616DF
:1014E00034BF00204FF000404FEAD13706FB07FC25
:1014F0004FEA1C4C0CFB0BF7D21B03FB0CF761EB08
:1015000007010CFB0EF7B0EB074072EB17420CFB28
:1015100008F734BFA2EB0742B2EB074261EB174179
:101520004FEA0C444FEA910706FB07FC4FEA1C4CBC
:101530000CFB0BF7B0EBC74072EB573203FB0CF719
:1015400034BFA2EBC742B2EBC74261EB57310CFB91
:101550000EF7B0EBC70072EB57720CFB08F734BF05
:10156000A2EBC702B2EBC70261EB5771039F4FEAD0
:10157000816141EA921104EBCC044FEAD1374FEA82
:10158000826206FB07FC42EA90124FEA80604FEA53
:101590001C4C0CFB0BF7D21B03FB0CF761EB070198
:1015A0000CFB0EF7B0EB074072EB17420CFB08F791
:1015B00034BFA2EB0742B2EB074261EB17414FEA9F
:1015C0008C554FEA910704EB9C2406FB07FC4FEA7D
:1015D0001C4C0CFB0BF7B0EBC74072EB573203FB14
:1015E0000CF734BFA2EBC742B2EBC74261EB5731F5
:1015F0000CFB0EF7B0EBC70072EB57720CFB08F751
:1016000034BFA2EBC702B2EBC70261EB577115EB17
:101610004C254FEA816141EA92114FEA82624FEA1A
:10162000D13742EA901206FB07FC44F100044FEA6E
:1016300080604FEA1C4C0CFB0BF7D21B03FB0CF732
:1016400061EB07010CFB0EF7B0EB074072EB1742A2
:101650000CFB08F734BFA2EB0742B2EB074261EB89
:10166000174115EB1C154FEA813141EA92414FEACF
:10167000823242EA90424FEA80304FEA0C7644F1DF
:10168000000448EA03434EEA0B484FF0000EB2EB69
:10169000080C71EB030724BF624639464EEB0E0E71
:1016A0004FF0000B0018524149414BEB0B0BB2EBD2
:1016B000080C71EB03077BF1000B24BF624639462F
:1016C0004EEB0E0E4FF0000B0018524149414BEB10
:1016D0000B0BB2EB080C71EB03077BF1000B24BF83
:1016E000624639464EEB0E0E51EA020718BF46F02D
:1016F000010616EB0E7655F1000254F1000103D5F8
:10170000BDE88901BDE80088BDE88901BDE8004861
:10171000B619524141EB0101A3F1010370478080EA
:101720007F7E7D7C7B7A797877767675747372713B
:1017300071706F6E6E6D6C6C6B6A6A6968686766F3
:1017400066656464636362616160605F5F5E5E5D85
:101750005D5C5C5B5B5A5A595958585757565655F9
:1017600055555454535352525251515050504F4F5B
:101770004F4E4E4D4D4D4C4C4C4B4B4B4A4A4A49AB
:1017800049494848484747474746464645454544EE
:101790004444444343434342424242414141002B7B
:1017A00026D4770021D01CB54FEA370703B44FF099
:1017B00010004FF010014FF000000FBCBDE81040CA
:1017C0000BF1010BBBF1010F08BF5FEA170722BF46
:1017D00012F1010211F101014FF0004143F1000348
:1017E00000F0004043EA00007047F9D35708DAE7F9
:1017F00046EA064613F1400F4FEA16461FDD13F185
:10180000200FDFBF16430A46002120335B42C8D0B9
:10181000C3F1200746EA064602FA07F74FEA1646E2
:1018200046EA0706C3F1200722FA03F201FA07F796
:1018300021FA03F14FF0000342EA0702B1E746EA5A
:10184000020646EA06464FEA164646EA0106BCBFCD
:1018500046EA0646360C4FF000034FF000024FF008
:1018600000019EE72DE9C048934630B491E8380066
:1018700007C831EA400C48BF34EA430C03D5FFF7F0
:10188000F2FDFFF78CFFF0BCBDE800882DE9C048F1
:10189000934630B491E8380007C810F0804F08BF75
:1018A00013F0804F03D100F005F8FFF778FFF0BC8C
:1018B000BDE8008820F07F4780EA030023F07F4CDA
:1018C00007EB0C03A3F57C5300F00040A3F1FE03EB
:1018D00092F0000F00F0B38095F0000F00F07780D9
:1018E0002DE901494FEA11404FEA144621EA004828
:1018F00000FB06FC24EA064708FB06F607FB08F88F
:1019000000FB07F718EB06484CEB164C4FEA124B5E
:1019100018EB07484FEA15464CEB174022EA0B4EEE
:101920000BFB06FC25EA06470EFB06F607FB0EFE40
:101930000BFB07F71EEB064E4CEB164C4FF0000668
:101940001EEB074E4CEB174B18EB0B0840F1000059
:1019500018EB0E0B58EB000840F100008F1A4FF007
:1019600000013CBFC943661B14BFB5EB040C00214A
:101970003CBFC943F61B4FEA17444EEA8E0E27EAD6
:1019800004454FEA1C4704FB07622CEA074C05FBA1
:1019900007F70CFB05F604FB0CFC16EB074642EBC5
:1019A000174216EB0C4642EB1C421BEB060658EBAB
:1019B0000202414146EA9E0601D5BDE80189B619F9
:1019C000524141EB0101A3F10103BDE801894FEA56
:1019D00014454FEA114724EA054621EA074C05FB66
:1019E00007F406FB07F70CFB06F105FB0CFC11EBFB
:1019F000074144EB17444FEA124711EB0C4144EB0B
:101A00001C4422EA074C05FB07F206FB07F70CFB18
:101A100006F605FB0CFC16EB074642EB174216EBED
:101A20000C4642EB1C456A1854F1000148BF704750
:101A3000B619524141EB0101A3F10103704795F042
:101A4000000F37D04FEA11424FEA144721EA02460D
:101A500024EA074C02FB07F106FB07F70CFB06F430
:101A600002FB0CFC14EB074441EB17414FEA15470E
:101A700014EB0C4441EB1C4125EA074C02FB07F533
:101A800006FB07F70CFB06F602FB0CFC16EB074601
:101A900045EB174516EB0C4645EB1C42121951F16C
:101AA000000148BF7047B619524141EB0101A3F153
:101AB000010370474FEA14454FEA114724EA0546EF
:101AC00021EA074C05FB07F106FB07F70CFB06F2C2
:101AD0004FF0000605FB0CFC12EB074241EB1741EF
:101AE00012EB0C4251EB1C4148BF7047921841EB7E
:101AF0000101A3F1010370470000000005F01EBDC5
:101B000010B50022074B114601EB810403EB44049E
:101B100034F81040491CC9B222441029F4D3C2F34E
:101B20000F1010BD72030020044890F83C000128FB
:101B300001D0034800E0034806F01ABFB84A00206D
:101B4000D8A10108587C0108264910B508684FF64D
:101B5000FF021040244A40F4E06010430860062071
:101B600003F0F8FE072003F0F5FE082003F0F2FE74
:101B7000092003F0EFFE0A2003F0ECFE172003F02B
:101B8000E9FE282003F0E6FE1E2003F0E3FE2720F6
:101B900003F0E0FE06F0B0FD154A1448D16941F0AB
:101BA0000201D16100210180018540F65F13838528
:101BB00001238382018446F2600303838383818649
:101BC00001878187A0F84010018841F00101018060
:101BD000906940F0010090610648416841F440611D
:101BE000416010BD0CED00E00000FA05000400406B
:101BF000001002400000014008B50249084400906E
:101C0000008808BD006C004008B5024A10440090EE
:101C1000016008BD006C0040002006F009BE000015
:101C20000148007806F004BE2800002070B5154673
:101C30000E46044608F072FA21461648FEF73CFDAF
:101C4000144800F00CFA304600F028F964211248DC
:101C5000FEF737FE002229460F4800F05FF90F4CCF
:101C60006070012000F09DF964210A48FEF729FE0A
:101C700064210948FEF725FE08F058FA6078142818
:101C800002D0172802D003E0012070BD08F03DFA11
:101C9000002070BDC84800209C4700204201002061
:101CA00010B5044608F03AFA21460648FEF704FD4E
:101CB000044800F0D4F900F0D8F9044608F036FAE8
:101CC000204610BDC84800202DE9F0411C461546AD
:101CD0000E46074608F022FA23462A463146384681
:101CE00000F07CF8142804D008F020FA0020BDE8A9
:101CF000F08108F01BFA0120F9E700002DE9F0411E
:101D00001C4615460E46074608F008FA23462A46A2
:101D10003146384600F092F8084C607008F006FA38
:101D20006078142802D0172803D004E00120BDE811
:101D3000F08108F0EAF90020F9E7000042010020F4
:101D400010B5044608F0EAF921460B48FEF7B4FC4A
:101D5000094800F011F909494870012000F021F903
:101D600064210548FEF7ADFD64210548FEF7A9FD95
:101D7000BDE8104008F0DAB9C84800204201002050
:101D80009C47002070B515460E46044608F0C6F97B
:101D900021460F48FEF790FC0D4800F00FF90D4C5E
:101DA000A9B200226070304600F0B8F860700120DF
:101DB00000F0F7F8607064210548FEF782FD6421A9
:101DC0000548FEF77EFDBDE8704008F0AFB90000A1
:101DD000C8480020420100209C4700202DE9F04126
:101DE0001C4616460F46054608F098F92946104845
:101DF000FEF762FC0E4800F032F9384600F04EF86B
:101E0000A1B20022304600F062F80A4C6070012056
:101E100000F0C7F864210648FEF753FD6421064828
:101E2000FEF74FFD08F082F96078BDE8F081000010
:101E3000C8480020420100209C4700202DE9F041C5
:101E40001C4617460E46054608F068F92946104814
:101E5000FEF732FC0E4800F002F9384600F01EF89A
:101E6000A1B20C4A304600F059F80A4CA41E60702A
:101E7000012000F096F864210548FEF722FD642158
:101E80000548FEF71EFD08F051F96078BDE8F081C5
:101E9000C8480020440100209C47002010B504469B
:101EA00039200DF0B5F9E0B20DF0BDF9C4F307200B
:101EB0000DF0B9F9C4F307400DF0B5F9200E0DF09F
:101EC000B2F90DF075F9BDE8104006F05DBD70B5D2
:101ED000064614460D463A200DF09AF9E8B20DF088
:101EE000A2F9280A0DF09FF90DF062F90CB100205B
:101EF00011E006F049FD1D280FD1304600F0E8F84A
:101F000005463B200DF084F90DF052F92E44002CCB
:101F1000EFD0208828442080EBE770BD2DE9F04108
:101F2000064614460D463C200DF072F9E8B20DF05D
:101F30007AF9280A0DF077F90DF03AF90CB1002082
:101F400020800C4F06F020FD1E2810D1304600F0F6
:101F500068F9054638703D200DF05AF90DF028F962
:101F60002E44002CEED0208828442080EAE7BDE8EB
:101F7000F08100004101002010B5044600F006F990
:101F800020785C2801D02F2803D10021642000F0A4
:101F90005EF9BDE81040402000F0D8B8312000F0D4
:101FA000D5B80146362000F0C4B810B508B100F02D
:101FB000EDF8BDE81040342000F0C8B870B5054613
:101FC00000F0CEF804000DD00146284600F021F8BC
:101FD000412807D0142803D0422800D1B32070BD77
:101FE000432070BD2819BDE87040FFF7DEBF10B573
:101FF000044600F0CBF820785C2801D02F2803D1CC
:102000000021642000F023F9BDE81040322000F0E8
:102010009DB870B5054600200E46012401E0641C01
:10202000E4B2295D5C2913D02F2911D00029F6D103
:1020300000242844FFF7DBFF002C08D0B44206D070
:1020400041280AD0142806D0422800D1B32070BD00
:10205000641CE4B2EDE7432070BD2046E1E7FF21B8
:10206000FFF7D7BF2B2000F055B8682000F046B826
:1020700010B522200DF0CCF80DF0C3F804460DF099
:1020800097F8204610BD000004480178012901D0CE
:1020900000207047002101700120704730000020AF
:1020A0002DE9F0410DF0ADF806460DF0AAF8054611
:1020B0000DF0A7F804460DF0A4F807460DF078F8E7
:1020C00046EA052040EA044040EA0760BDE8F081A6
:1020D00070B5054627200DF09BF80DF092F804002E
:1020E000264607D00DF08DF8641E05F8010B14F09C
:1020F000FF04F7D10DF05CF8304670BD10B5044612
:102100000C200DF085F820460DF08DF8BDE810404C
:10211000FFF7C6BF10B504460A200DF079F8204637
:102120000DF081F80DF06DF804460DF041F82046F1
:1021300010BD10B50C460DF06BF820460DF073F88D
:102140000DF036F8BDE8104006F01EBC10B50DF0DD
:102150005FF80DF02DF8BDE8104006F015BC00004A
:10216000014600E0491C0A78002AFBD106E000BFC6
:1021700011F8012D5C2A03D02F2A01D08142F7D11A
:10218000814200D0491C081AC0B2704770B505469C
:1021900001200DF03DF80DF034F8432828D22B2013
:1021A000FFF7B8FF102823D22F200DF031F80020C0
:1021B0000DF039F83220FFF7C9FF142818D1CF20CD
:1021C000FFF7A8FF040013D04C20FFF797FF00EBA8
:1021D00004214C2000F03BF85020FFF78FFF00EB6C
:1021E0000421502000F033F80021702000F02FF877
:1021F0002F200DF00DF82C7806E000BF15F8014FE8
:102200005C2C0AD02F2C08D020460DF00CF8002CA6
:10221000F4D1BDE870400CF0CBBF00200DF003F806
:10222000F7E770B505462D200CF0F2FF0CF0E9FF42
:102230000400264607D028780CF0F5FF6D1C641EBC
:1022400014F0FF04F7D10CF0B3FF304670BD70B549
:1022500005460C460D200CF0DBFF28460CF0E3FF92
:10226000E0B20CF0E0FFC4F307200CF0DCFFC4F395
:1022700007400CF0D8FF200E0CF0D5FFBDE87040F1
:102280000CF096BF012007F057BF10B502F0FAFA24
:1022900005F00AF9BDE81040FFF7F4BF10B5044699
:1022A0000121502007F0D4FFC8B1002007F068FFDB
:1022B0002070002007F064FF6070002007F060FFCE
:1022C000A070012007F05CFFE07007F0FBFF002129
:1022D000502007F0BDFF07F0F5FF012010BD07F00B
:1022E000F1FF002010BDF8B50D46064607F03AFF95
:1022F0006846FFF7D3FF040011D09DF801009DF858
:10230000001000EB0120C0F30D0030809DF80300A9
:102310009DF8021000EB0120C0F38D00288007F02B
:1023200029FF2046F8BD000030B50E480E4C0023B2
:102330000078042234F81010401CC0B20D46052865
:1023400000D3002034F810104D1BADB2521E2B44A8
:1023500012F0FF02F0D1C3F38F004FF4FA7148433B
:1023600030BD0000000000206803002010B50446C6
:1023700012490DF009FC12490DF050FA21460DF0FA
:1023800003FC10490DF04AFA21460DF0FDFB0E4901
:102390000DF044FA21460DF0F7FB0C490DF03EFA22
:1023A00021460DF0F1FB0A490DF038FA21460DF0F7
:1023B000EBFBBDE8104007490DF030BA92EBD72C8B
:1023C000EEC70B310DBDA2343E5ADE37774BBB3A18
:1023D00045B8353D145C1C3F2DE9F04706461A4FC1
:1023E0000898984691468A46002540B108F010FDAD
:1023F00004461649884504DA3046BDE8F0873C4675
:10240000F7E7134890F82C0018B15046FFF7AEFFDD
:102410000546494640460DF001FA29460DF03AFDC1
:1024200021460DF0B1FB0446394650460DF0F6F951
:1024300008490DF0A9FB31460DF0A6FB2146BDE889
:10244000F0470DF05FBA0000339388436F12833A70
:10245000B84A002066A6CA422DE9F0411F469046C0
:102460000C46064608F0D4FC05460F4920460DF000
:10247000D5F90E490DF088FB0446414638460DF06B
:10248000CDF929460DF080FB21460DF03BFA31468F
:102490000DF07AFB0649884202DA0020BDE8F0819F
:1024A000BDE8F0410CF046BB3393884366A6CA42B0
:1024B0006F12833A2DE9FF4F87B090460F461D46B5
:1024C000182221496846FEF7CAF90026012440F285
:1024D000013B40F2035941F60C0A00BF07F006FF2A
:1024E000684602F077FC58F8251018A35A4640F2C7
:1024F000191005F015FD37F8151000234A4650460F
:1025000005F034FD00222146684602F08FFC0446A7
:10251000012807D0022C0ED0002CDFD10BB03046A2
:10252000BDE8F08F2B4642463946079800F010F878
:1025300007E00126D2E707EB45014A46504601F085
:102540008FFE0028CAD0F4E7DCD201084C2F6D00C2
:102550002DE9FF4F8FB00020069092481F460E468F
:10256000848831F8175008880C90B1F802B0B1F89F
:1025700004A0B1F806904FF0010852F827008A49EC
:102580000DF002FB4FF07C510DF048F90DF07CFA94
:1025900084490F9A01EB42010891888101210F982B
:1025A00003F0F0FD07F0A2FE80A1002002F0EAFB9C
:1025B000F580B580758035800F9808F03DFC00905F
:1025C0007DA1002002F0DEFB002340F203522946E9
:1025D000192005F0CBFC7BA14FF4406002F0D2FB48
:1025E0007AA340F2036240F60C40009905F098FC93
:1025F00077A14FF4C05002F0C5FB0F9803F0B4FD73
:10260000014641F60C0005F0E1FC642008F068FC8E
:102610000028D1D008F0ACFA11285CD008DC0128E1
:102620001AD0042874D0092873D0102813D106E0DA
:1026300021286FD0402808D041280CD16BE042F20D
:102640000F70854205D26D1C02E0632D01D96D1E0D
:10265000ADB2012006908FE0089864215E4A80891F
:10266000484303210790880202F08AFB40F203628C
:1026700007A940F60C4001F001FE30B3012006909E
:1026800007980DF039FA019095B128460CF089FFB2
:10269000524A534B0CF098FF0546039100980DF0F9
:1026A00091F82A46039B0CF00DFE0CF0D9FD02E0D8
:1026B0004C490DF027F9014610F0FF4F06D0019864
:1026C0000DF020F90DF0E0F985B201E04FF47A75D4
:1026D00007F00CFE50E040F69800844201D2641CE2
:1026E000A4B2642111200BF0EBF950B138E0641C66
:1026F000A4B220460DF000FA3B490DF045FA01F076
:10270000B7FA012111200BF0DBF90028EFD027E008
:1027100036E01BE020E0C82C01D9641EA4B264217D
:1027200041200BF0CDF950B11AE0641EA4B220464E
:102730000DF0E2F92C490DF027FA01F099FA012188
:1027400041200BF0BDF90028EFD009E040F29E7067
:10275000844205D2643402E0DC2C01D9143CA4B2DA
:1027600020460DF0C9F920490DF00EFA01F080FA6B
:102770000C48848001F0AAF8B8F1000F7FF418AF7C
:1027800000210F9803F0FEFC0C983080A6F802B0F0
:10279000A6F804A0A6F8069026F81750069813B0DD
:1027A000BDE8F08FB84A002000002041B5F7CAD438
:1027B000C1F7C1BF00000000C1F7C1BFB1B6C2CAB6
:1027C0003A000000C1F7C1BF3A0000004C2F6D0075
:1027D000CAE4B3F63A000000D8CB0108FCA9F1D254
:1027E0004D62503F00007A440AD7233C2DE9F04F58
:1027F0008FB081462022454902A8FEF730F84449AF
:10280000444801EBC906494600EB41000D90012404
:102810003C3680894FF0000A40F20355B9F1010FB0
:1028200005D0B9F1020F02D040F2015B08E000EBE5
:10283000C00101EB00104FF6FF71AB4601EA8000CA
:10284000ADF8000040F60C0741F60C0807F04EFD0D
:1028500002A802F0BFFA494640F2151005F0A4FDA7
:102860002DA35A46BDF80010384605F07FFB31888D
:1028700000232A46404605F079FB0022214602A8A3
:1028800002F0D4FA04000FD0012C24D0022C33D053
:10289000032CE5D12A463146404601F0E1FC0028F0
:1028A000DED04FF0010ADBE7BAF1000F0AD0232196
:1028B0001AA002F0EDFF062807D0072808D001244F
:1028C000002CC3D10FB0BDE8F08F00F08FFAF9E70C
:1028D00000F022FAF4E75A466946384601F0C0FC97
:1028E0000028BDD0BDF800106420B1FBF0F10D98B8
:1028F000818100F0EBFFB3E73146484600F016F85F
:102900000028A3D04FF0010AA0E70000BCD20108C4
:10291000444A0020B84A00204C2F6D00B1A3B4E611
:10292000B1EAB6A8CAFDBEDD203F00002DE9FF5F79
:102930008046002007460390B4480D4640F20356F7
:10294000848800208346019002905FEA080005D049
:10295000012855D0B8F1020F04D151E040F2015BDB
:10296000ABA0029007F0C2FC0121404603F00AFC34
:10297000A64901EB480A404608F05EFA8146B8F1E4
:10298000000F3FD04E46A3A1002002F0FBF929889A
:10299000002340F20352192005F0E8FAA0A14FF4F9
:1029A000406002F0EFF95A46494640F60C40029B5F
:1029B00005F0B6FA9CA14FF4C05002F0E3F940468E
:1029C00003F0D2FB014641F60C0005F0FFFA64204B
:1029D00008F086FA0028CED008F0CAF8112877D07F
:1029E00040DC012856D0042873D0092872D0102862
:1029F000C1D1288842F20F71884249D2401C46E07A
:102A0000B346ADE708F0C6F8064608F0CDF9014632
:102A100000200246009033464846FFF7DDFC06469C
:102A20007CA1002002F0AEF92988002340F2035275
:102A3000192005F09BFA7EA14FF4006002F0A2F984
:102A40005A46314640F60C00029B05F069FA74A123
:102A50004FF4805002F096F95A46494641F20C0074
:102A6000029BA5E721287BD040280CD0412882D1A9
:102A7000C82C01D9641EA4B2642141200BF020F8B7
:102A800000286ED0AAE02888632801D9401E28803B
:102A9000012770E7B8F1000F1DD0BAF80C006421CF
:102AA000484303210190644A880202F069F95A46BA
:102AB00001A940F60C4001F0E1FB0028E9D0012714
:102AC00001980DF019F881462888642834D230E046
:102AD00048E092E078E04D48574A03218089019010
:102AE0004FF4006002F04CF95A4601A940F60C0080
:102AF00001F0C4FB0028CCD0012701980CF0FCFFAA
:102B000081462888642814D316F0FF4F0CD03F4923
:102B10008989B1FBF0F00CF0EFFF014648460CF05C
:102B2000F1FE0CF0B1FF2880404608F085F981469F
:102B300068E74FF47A7011E016F0FF4FA9D0BAF8A9
:102B40000C10B1FBF0F00CF0D7FF014648460CF03A
:102B5000D9FE3A490CF0D6FE0CF096FF28800AE721
:102B600038E029E040F69800844201D2641CA4B207
:102B7000642111200AF0A4FF58B12FE0641CA4B214
:102B800020460CF0B9FF31460CF0FEFF01F070F862
:102B900000E02B4E012111200AF092FF0028EDD019
:102BA0001CE0641EA4B220460CF0A6FF31460CF0D7
:102BB000EBFF01F05DF800E0214E012141200AF019
:102BC0007FFF0028EDD009E040F29E70844205D2DC
:102BD000643402E0DC2C01D9143CA4B220460CF091
:102BE0008BFF17490CF0D0FF01F042F807488480B2
:102BF00000F06CFE03980028B1D00021404603F09D
:102C0000C1FA04B03846BDE8F09F0000B84A002081
:102C10004C2F6D00C1F7C1BFB1B6C2CA3A00000067
:102C2000B1EABFF63A000000CAE4B3F63A00000089
:102C3000B9A4BFF63A000000D8CB01080000C84292
:102C40000AD7233C2DE9F0472B49804601EB0800C9
:102C50002A4990F82060012401EBC800002500F10A
:102C60003C0A012E16D0022E43D1254FDFF8949056
:102C700007F03CFB384602F0ADF80022214638460A
:102C800002F0D4F80446052831D2DFE800F0061837
:102C90001E282C001A4F283FE8E7002D29D02321B9
:102CA00019A002F0F5FD062805D0072821D1BDE8BE
:102CB000F04700F031B8BDE8F04700F097B809EBF5
:102CC0000612002304E00125D2E709EB06120123D6
:102CD00051464046FFF7EEFB0028C9D0F3E709EB69
:102CE00006120223F4E709EB06120323F0E7002C97
:102CF000BED1BDE8F0870000B84A0020444A002059
:102D00001CD30108D4D10108B1A3B4E6B1EAB6A836
:102D1000CAFDBEDD203F000010B5062231494FF448
:102D2000807001F0B6FC2F4845F6A5214FF47A7467
:102D300082888A4203D0E20002804480818072222D
:102D40002949802001F0A5FC274845F6A422B0F8C7
:102D50007010914244D046F6B321A0F86410A0F858
:102D60006810A0F86C10A0F86640A0F86A40A0F8BF
:102D70006E4041818181C181018241820485448507
:102D80008485C48504864FF40041018041808180A0
:102D9000C18001818182C182018341838183C48397
:102DA000048444848484C48444868486C4860487DA
:102DB00044878487A0F84440A0F84C40A0F85440D1
:102DC000A0F85640A0F85840A0F85A40A0F85C403F
:102DD000A0F85E40A0F86040A0F86240A0F8702023
:102DE00010BD000010020020444A002010B5062249
:102DF00005494FF4807001F05CFC7222BDE8104080
:102E00000249802001F055BC10020020444A0020F5
:102E10002DE9F04F0746744800258BB084882E4674
:102E200007F064FA40F20440052F0FD2DFE807F004
:102E3000030507090B006DA106E071A104E075A16F
:102E400002E079A100E07DA101F09CFF8049DFF85C
:102E500004A205A8EB4601EB47080A90B8F8221037
:102E60002BF815100BEB45006D1CB8F81810EDB2DF
:102E700081820A2D02D026B10A2103E00025012615
:102E8000FAE72946684607F031F92AF817000EB12B
:102E90000A2100E029460A9807F028F90AEB4709B9
:102EA000A9F814000EB10A2100E02946684607F08F
:102EB0001DF92AF817000EB10A2100E029460A98E8
:102EC00007F014F9A9F8140063A140F6064001F0D8
:102ED00059FF384607F0E4FF014640F2026900233B
:102EE0004A4641F2082005F01BF85DA140F6144067
:102EF00001F048FF384607F039FF014600234A46F3
:102F000041F2162005F00CF8282007F0E9FF002810
:102F1000A4D007F02DFE11281FD00BDC012817D0FC
:102F2000042815D0092899D140F29E7084424DD2D0
:102F300064344AE0212845D041288FD1C82C01D9DA
:102F4000641EA4B2642141200AF0BAFD80B33DE0C2
:102F5000FFF74CFF0BB0BDE8F08F40F698008442BD
:102F600001D2641CA4B2642111200AF0A9FD58B159
:102F70002CE0641CA4B220460CF0BEFD49460CF0C7
:102F800003FE00F075FE01E0DFF8DC900121112066
:102F90000AF096FD0028ECD018E0641EA4B220468A
:102FA0000CF0AAFD49460CF0EFFD00F061FE02E0D6
:102FB000FFE7DFF8B490012141200AF081FD0028ED
:102FC000EBD003E0DC2C01D9143CA4B220460CF079
:102FD00093FD25490CF0D8FD00F04AFE024884809C
:102FE00000F074FC3AE70000B84A00203CB7DB2050
:102FF000B3BE3E20D7D4B6AFB5F7C1E300000000A2
:103000003CC8D5BEF9413E20D7D4B6AFB5F7C1E331
:10301000000000003CC8D5BEF9423E20D7D4B6AF70
:10302000B5F7C1E3000000003CCAB1BEF9433E2041
:10303000D7D4B6AFB5F7C1E3000000003CCAB1BEBB
:10304000F9443E20D7D4B6AFB5F7C1E30000000085
:10305000DA460020444A0020C1F7C1BF3A00000010
:10306000BCC6D1B93A0000000AD7233C10B50446CB
:1030700002F09EFC40F60E00052C09D2DFE804F0B9
:1030800003050D0F110008A100E00BA101F07AFE6D
:103090002046BDE8104001F089BC0BA1F6E70EA167
:1030A000F4E711A1F2E70000B7DB20B3BE20D7D4CC
:1030B000B6AFB5F7C1E30000C8D5BEF94120D7D4FB
:1030C000B6AFB5F7C1E30000C8D5BEF94220D7D4EA
:1030D000B6AFB5F7C1E30000CAB1BEF94320D7D4FB
:1030E000B6AFB5F7C1E30000CAB1BEF94420D7D4EA
:1030F000B6AFB5F7C1E300002DE9F14F88B0182253
:1031000078496846FDF7ABFB774808990125848824
:1031100076484FF4A06800EB410606F114073236FA
:10312000002041F20C0940F2035A41F60C0B0690C4
:1031300001E0079858B107F0D9F8684601F04AFE57
:1031400040F21510089905F02FF9002007903988F2
:1031500000234246484604F009FF318800235246C6
:10316000584604F003FF2946684601F023FE60A19B
:103170004FF4006001F006FE089807F0F7FD0146E5
:103180005DA340F2026240F60C0004F0C9FE192073
:1031900007F0A6FE0028EAD02946684601F00AFE9C
:1031A00007F0E6FC112849D008DC012819D00428D2
:1031B0002ED009287CD0102817D10CE021287DD0F2
:1031C000402802D0412810D155E06D1CEDB2032DEE
:1031D0000BD3012509E0012D00D803256D1EEDB2AA
:1031E00003E0012D06D0022D08D0002DAFD109B08B
:1031F000BDE8F08F42463946484602E05246314625
:10320000584601F02DF80028A1D0012006909EE735
:1032100006980028EBD0232138A002F039FB0628BD
:1032200002D0072806D102E0FFF7E0FDDFE7FFF755
:10323000DDFD0025002D7FF47BAFD8E740F6980038
:10324000844201D2641CA4B2642111200AF038FC2B
:1032500050B137E0641CA4B220460CF04DFC2B4961
:103260000CF092FC00F004FD012111200AF028FC72
:103270000028EFD026E0C82C01D9641EA4B2642136
:1032800041200AF01DFC50B11CE0641EA4B220468F
:103290000CF032FC1D490CF077FC00F0E9FC012138
:1032A00041200AF00DFC0028EFD00BE000E005E023
:1032B00040F29E70844205D2643402E0DC2C01D9D5
:1032C000143CA4B220460CF017FC10490CF05CFC36
:1032D00000F0CEFC0448848000F0F8FA002D7FF462
:1032E00028AF84E78CD20108B84A0020444A002065
:1032F000BCC6D1B93A0000006B506100B1A3B4E67E
:10330000B1EAB6A8CAFDBEDD203F00000AD7233CC3
:103310002DE9F14F774882B00125848876480299DB
:1033200040F2026700EB410606F10A082836002049
:1033300041F20C0B40F2035941F60C0A009001E0F7
:10334000019858B106F0D2FF6C4801F043FD40F2FD
:103350001510029905F028F800200190B8F8001027
:1033600000233A46584604F001FE318800234A46BD
:10337000504604F0FBFD2946604801F01BFD60A1AA
:103380004FF4006001F0FEFC029807F00FFD0146CB
:103390005DA33A4640F60C0004F0C2FD192007F088
:1033A0009FFD0028EBD02946544801F003FD07F0AB
:1033B000DFFB112849D008DC012819D004282DD0C2
:1033C00009287CD0102817D10CE021287DD0402876
:1033D00002D0412810D155E06D1CEDB2032D0BD366
:1033E000012509E0012D00D803256D1EEDB203E093
:1033F000012D05D0022D07D0002DAFD1BDE8FE8FE5
:103400003A464146584602E04A463146504600F0A8
:1034100027FF0028A2D0012000909FE700980028F5
:10342000ECD0232139A002F033FA062802D0072875
:1034300007D103E0BDE8FE4FFFF7D8BCFFF7D6FC8D
:103440000025002D7FF47BAFD8E740F6980084423A
:1034500001D2641CA4B2642111200AF031FB50B1E6
:1034600037E0641CA4B220460CF046FB2B490CF05C
:103470008BFB00F0FDFB012111200AF021FB00284D
:10348000EFD026E0C82C01D9641EA4B264214120EB
:103490000AF016FB50B11CE0641EA4B220460CF0EA
:1034A0002BFB1E490CF070FB00F0E2FB01214120D8
:1034B0000AF006FB0028EFD00BE000E005E040F248
:1034C0009E70844205D2643402E0DC2C01D9143CA5
:1034D000A4B220460CF010FB10490CF055FB00F094
:1034E000C7FB0448848000F0F1F9002D7FF428AF79
:1034F00084E70000B84A0020444A002074D2010842
:10350000CEC2B6C83A000000A1E60000B1A3B4E6FE
:10351000B1EAB6A8CAFDBEDD203F00000AD7233CB1
:103520002DE9F14F88B0182278496846FDF797F9E0
:10353000774808990125848876484FF4A06800EB05
:103540004107002007F11E0641F20C0940F2035A20
:1035500041F60C0B069001E0079858B106F0C6FE44
:10356000684601F037FC40F21510089904F01CFF82
:1035700000200790398800234246484604F0F6FCB4
:10358000318800235246584604F0F0FC294668462C
:1035900001F010FC60A14FF4006001F0F3FB08980B
:1035A00007F07EFC01465EA340F2036240F60C0089
:1035B00004F0B6FC192007F093FC0028EAD0294655
:1035C000684601F0F7FB07F0D3FA112849D008DC70
:1035D000012819D004282ED009287CD0102817D112
:1035E0000CE021287DD0402802D0412810D155E0A0
:1035F0006D1CEDB2032D0BD3012509E0012D00D880
:1036000003256D1EEDB203E0012D06D0022D08D07A
:10361000002DAFD109B0BDE8F08F4246394648468B
:1036200002E052463146584600F01AFE0028A1D06A
:10363000012006909EE706980028EBD0232139A0B0
:1036400002F026F9062802D0072806D102E0FFF78B
:10365000CDFBDFE7FFF7CAFB0025002D7FF47BAF32
:10366000D8E740F69800844201D2641CA4B26421D9
:1036700011200AF025FA50B137E0641CA4B22046AC
:103680000CF03AFA2B490CF07FFA00F0F1FA012124
:1036900011200AF015FA0028EFD026E0C82C01D935
:1036A000641EA4B2642141200AF00AFA50B11CE061
:1036B000641EA4B220460CF01FFA1E490CF064FAF6
:1036C00000F0D6FA012141200AF0FAF90028EFD0E3
:1036D0000BE000E005E040F29E70844205D26434C5
:1036E00002E0DC2C01D9143CA4B220460CF004FA10
:1036F00010490CF049FA00F0BBFA0548848000F04C
:10370000E5F8002D7FF428AF84E70000A4D201087B
:10371000B84A0020444A0020B2EED1B93A00000075
:103720006B506100B1A3B4E6B1EAB6A8CAFDBEDD34
:10373000203F00000AD7233C70B5402207494FF4D0
:10374000C07000F0A6FF054C45F68B25E08FA8421F
:1037500002D000F005F8E58770BD0000B84A0020EF
:1037600030B50F4C207830B1012807D0022808D09E
:1037700003280BD108E000F08FF807E000F072F8A2
:1037800004E000F055F801E000F038F8E08F45F66D
:103790008B25A84202D000F005F8E58730BD000077
:1037A000B84A002013484FF49671F0224185002159
:1037B00080F8291080F82810C284012202728270D9
:1037C000C170427242F2957343814FF4FA63838071
:1037D000322383710223C3714FF47A73C385038646
:1037E0006423438680F82C100349416380F83C2011
:1037F00070470000B84A0020D9AB09000B480321EC
:103800004FF47A7200F8061C00218176C280C176DE
:1038100002220281017742810122427705238381BE
:103820008277C381C27780F827107047BE4A002094
:103830000B480222002300F8062C83764FF47A719D
:10384000C1800121C1760281017742814177052241
:1038500082818177C281C17780F82730704700006C
:10386000BE4A00200B4801214FF47A7200F8061C72
:103870008176C2800022C2760223038102774381CF
:103880004177052383818177C381C17780F8272021
:1038900070470000BE4A00200B480022012100F8BA
:1038A000062C81764FF47A73C380C176022303819C
:1038B000017743814177052383818177C381C17774
:1038C00080F8272070470000BE4A002040220249AD
:1038D0004FF4C07000F0EDBEB84A00202DE9F84F5B
:1038E000DFF8ECB0012500269BF82840BBF8260045
:1038F000ADF8000040F2015741F21648DFF8D490CD
:1039000040F6164A06F0F2FC3248183001F062FA2E
:1039100004EB440109EB4101504601F033FA2EA3B8
:103920003A46BDF80010404604F020FB294800222A
:103930002946183001F07AFA050023D0012D1DD058
:10394000022DE5D13A466946404600F089FC002840
:10395000DED0BDF80000962804D29620ADF8000015
:1039600006F0D3FBBDF800104FF49670814203D9E6
:10397000ADF8000006F0C9FB0126C9E7641C04F09D
:103980000304F9E7002E0BD0232114A001F080FFDF
:1039900002281AD0062805D0072801D1FFF7CCFE4F
:1039A000BDE8F88F0BF12605AC70BDF80000ABF850
:1039B0002600FFF78BFF28880CF09EF80B490CF0CF
:1039C000E3F8A9780AF0A8FEEAE701259AE70000E3
:1039D000B84A002074D40108A1E60000B1A3B4E6FF
:1039E000C5E4D6C3CAFDBEDD203F0000CDCCCC3D32
:1039F0002DE9F84F404E0125002796F82940708D9B
:103A0000ADF8000040F2015A4FF4AF78DFF8EC90C7
:103A100040F6194B06F06AFC34B13848A83001F082
:103A2000D9F9012C05D00CE03448C03001F0D2F9AE
:103A300007E033A35246BDF8001040F6144004F0EE
:103A400095FA59F82410584601F09CF94FF00002FD
:103A5000294634B32948A83001F0E8F9050028D0F8
:103A6000012D21D0022DDCD1012CD3D15246694643
:103A700041F6140000F0F4FB0028CBD0BDF80000A4
:103A8000962804D29620ADF8000006F03EFBBDF863
:103A90000010414503D9ADF8008006F036FB012740
:103AA000B8E71648C030D7E70CB10024F7E7012487
:103AB000F5E7002F0BD0232112A001F0E9FE022828
:103AC00017D0062805D0072801D1FFF735FEBDE83D
:103AD000F88FBDF80000708586F82940FFF7F6FEE4
:103AE000708D0CF009F80B490CF04EF80AF028FE26
:103AF000EDE701258EE70000B84A0020FCD301085D
:103B0000A1E60000B1A3B4E6C5E4D6C3CAFDBEDD9C
:103B1000203F0000CDCCCC3D2DE9F05F00252F4F9C
:103B20002F4C2E4640F60B0AA7F1100840F60B7BEF
:103B3000A94600BF06F0DAFB2848643001F04AF9D4
:103B4000607857F82010504601F01CF9207858F89A
:103B50002010584601F016F920480022294664300A
:103B600001F064F9050021D0012D08D0022D11D0FB
:103B7000032DDFD1FFF7F4FD02F006F9DAE706F0D6
:103B8000B5FB6078401CC0B2607006280CD384F886
:103B9000019009E006F0AAFB2078401CC0B220701A
:103BA000042801D384F800900126C3E78EB12321B5
:103BB0000CA001F06DFE062803D0072809D00125CE
:103BC000B8E7FFF7CDFDFFF781FEBDE8F05F03F03A
:103BD000F3BEBDE8F05FFFF7AFBD0000A0D0010865
:103BE000B84A0020B1A3B4E6D0DEB8C4BDE1B9FB49
:103BF0003F0000002DE9FF5F00249B4691468A4666
:103C0000264625463AF814000BF076FF17490BF0CC
:103C1000BBFFB04659F8246001462F4630460BF0F2
:103C200071FE0546014600980CF07AF803D2641C38
:103C3000E4B25C45E6D3394628460CF02BF904463D
:103C4000414630460CF026F921460BF05BFE044657
:103C5000394600980CF01EF921460BF095FF04B090
:103C60004146BDE8F05F0BF0D9BD00006F12833A0A
:103C70000149486070470000280000200149087091
:103C8000FDF7CEBF280000200A4980B1012806D0E8
:103C9000022807D0032808D04FF0FF3007E043F692
:103CA000982004E047F2305001E04EF66020486072
:103CB000704700000800002003F006B9C0B22028B9
:103CC00000D27F20024901EB0010A0F50070704780
:103CD0007E000108C0B2202800D27F20034900EBFB
:103CE000400001EB0010A0F5C0607047586A010861
:103CF000004870477E06010870B5C0B2114D60F3F0
:103D00001F2101234FF4AC729818400805EB4004C2
:103D100015F81060647804EB0624A4B2A14205D122
:103D2000094900EBC00001EBC00070BD03D900F1F0
:103D3000010083B202E0A0F1010082B29342E3D914
:103D4000014870BD9E0601085009010870B50C4677
:103D5000064615460021A02006F07AFA60B1300A26
:103D600006F044FA40B1F0B206F040FA20B1012169
:103D7000A02006F06DFA48B906F0A4FA002070BD44
:103D8000002006F0FDF9C04304F8010B6D1E15F08C
:103D9000FF05F5D1012006F0F3F9C043207006F0CD
:103DA00091FA012070BD000070B50C46064615461C
:103DB0000021A02006F04CFA08B3300A06F016FAEB
:103DC000E8B1F0B206F012FAC8B100BF14F8010B66
:103DD000C043C0B206F00AFA88B16D1E15F0FF05A7
:103DE000F4D106F06FFAA0254FF4C87400212846DC
:103DF00006F02EFA30B106F065FA012070BD06F02B
:103E000061FA03E0641E2404240CEFD1002070BD8D
:103E100010B500F0EBFE10BD034901200870034906
:103E20004003086070470000300000201404014087
:103E300010B500F0DBFE10BD10B500F0D7FE10BDD0
:103E400010B500F0D3FE10BD10B500F0CFFE10BDD0
:103E500010B500F0CBFE10BD2DE9F34FDFF808924E
:103E60008B4691B00126B9F8044001A95846FCF7E9
:103E700043FE0698DFF8F4A100F26C7085B2059855
:103E8000401C00F0FF080498C7B243462A4678A1B8
:103E90000CA80097FCF79CFA0CA9119800F072FF8F
:103EA000012E04D0022E06D0032E09D118E0744A48
:103EB0000421119802E011980A3013E000F060FF2D
:103EC00006F056FE11286AD024DC082869D00DDCE3
:103ED000012873D00428D8D1002013B0BDE8F08F9A
:103EE0001198103080B2664A0221E7E7092873D0A2
:103EF0001028CAD1012E1FD0022E26D0032EC4D1E5
:103F00004146284606F0F4F97F1CFFB2B842BCD205
:103F10000127BAE720284AD021287BD040281DD08D
:103F20004128B2D1C82C01D9641EA4B26421412019
:103F300009F0C6FD90B389E06D1CADB240F63300C8
:103F40008542A2D94FF4FA659FE708F1010000F01D
:103F5000FF08B8F10C0F98D901201DE0012E0DD0FB
:103F6000022E13D0032E90D17F1E17F0FF078CD1A5
:103F70004146284606F0BCF9074686E76D1EADB2FD
:103F8000B5F5FA6F81D240F633057EE7A8F101005E
:103F900010F0FF08BDD10C20804676E745E01CE01C
:103FA000FFE7761CF6B2032EB3D901266DE7761E25
:103FB00016F0FF06ADD1032667E7FFE7A5F26C75A3
:103FC000A8F101000497CDE9050501A8FCF7DDFC87
:103FD000CBF80000012080E72EE040F698008442F4
:103FE00001D2641CA4B26421112009F069FD50B112
:103FF0002CE0641CA4B220460BF07EFD51460BF071
:10400000C3FDFFF735FE0121112009F059FD0028FD
:10401000EFD01BE016E0641EA4B220460BF06CFD4E
:1040200051460BF0B1FDFFF723FE0121412009F0BD
:1040300047FD0028EFD009E040F29E70844205D28F
:10404000643402E0DC2C01D9143CA4B220460BF00D
:1040500053FD51460BF098FDFFF70AFEA9F8044006
:10406000FFF734FC11E70000B84A00200AD7233CD0
:10407000253034752D253032752D253032750000F0
:10408000D8CB01082DE9F04F6E4F884691B083469A
:10409000BC88012501A94046FCF72EFD6A4E4FF071
:1040A000180A4FF03C090198DDE90232009067A13F
:1040B0000CA8FCF78DF90CA9584600F063FE012D01
:1040C00004D0022D06D0032D09D118E0634A022145
:1040D000584602E00BF1060013E000F051FE06F036
:1040E00047FD112868D01DDC082851D00DDC0128BF
:1040F0005BD00428D7D1002011B0BDE8F08F0BF1C0
:104100000C0080B2554A0221E7E7092871D0102837
:10411000C9D1012D18D0022D19D0032DC3D101987A
:10412000401C1FE0202839D021287BD0402811D006
:104130004128B8D1C82C01D9641EA4B26421412001
:1041400009F0BEFC80B371E00398401C12E00298B5
:10415000401C17E0012D0BD0022D11D0032DA2D150
:1041600001983B30B0FBF9F209FB120001909AE78D
:1041700003981730B0FBFAF20AFB1200039092E7A3
:1041800002983B30B0FBF9F209FB120002908AE77B
:104190006D1CEDB2032D86D9012584E76D1E15F047
:1041A000FF0580D103257EE72EE001A8FCF7EDFB9B
:1041B000C8F8000001209FE740F69800844201D231
:1041C000641CA4B26421112009F07AFC50B12DE0E6
:1041D000641CA4B220460BF08FFC31460BF0D4FCDB
:1041E000FFF746FD0121112009F06AFC0028EFD0FD
:1041F0001CE011E0641EA4B220460BF07DFC3146A9
:104200000BF0C2FCFFF734FD0121412009F058FCFE
:104210000028EFD00AE005E040F29E70844205D20B
:10422000643402E0DC2C01D9143CA4B220460BF02B
:1042300063FC31460BF0A8FCFFF71AFDBC80FFF7CA
:1042400045FB30E7B84A00200AD7233C25303275B9
:104250003A253032753A253032750000D8CB010846
:1042600038B50C4609880091694600F007F8002827
:1042700002D000982080012038BD00002DE9F74FC2
:1042800090B000251198904612F0FF07016872481F
:1042900084884FEA1220814601D0A9F10100C6B2FC
:1042A0006E48A6EB070A50F82600B1FBF0F200FBBF
:1042B000121B58460BF020FC6849283151F8271092
:1042C0000BF020FB0BF07EFACDE9000108F0FF03B4
:1042D0004A4663A10AA8FCF77BF80AA9109800F0E7
:1042E00051FD1098AA4500EB450000DC801C80B20F
:1042F0005D4A012100F044FD681C0090864206D30F
:104300005648711B00EB810050F8040C00E00120BE
:10431000019006F02DFC112857D01CDC082843D052
:1043200007DC01284CD00428C3D1002013B0BDE81D
:10433000F08F092879D01028BBD101990A20BBFB46
:10434000F1F1B1FBF0F200FB1210092815D0019930
:104350000BEB010020E020282AD021286BD0402838
:104360000ED04128A5D1C82C01D9641EA4B2642165
:10437000412009F0A5FBA0B361E0019840420EE0A6
:1043800001990A20BBFBF1F1B1FBF0F200FB121026
:1043900020B10199ABEB010083468AE7019800EB5D
:1043A000C00101EB0B00F7E70098B0FBF6F103E06A
:1043B000A819401E90FBF6F106FB1100C5B278E784
:1043C00011990120C1F800B0B0E740F6980084428E
:1043D00001D2641CA4B26421112009F071FB58B110
:1043E0002DE01AE0641CA4B220460BF085FB1F49A7
:1043F0000BF0CAFBFFF73CFC0121112009F060FB28
:104400000028EFD01BE0641EA4B220460BF074FB22
:1044100016490BF0B9FBFFF72BFC0121412009F0F5
:104420004FFB0028EFD00AE0FFE740F29E70844285
:1044300005D2643402E0DC2C01D9143CA4B220463D
:104440000BF05AFB09490BF09FFBFFF711FC0248E8
:104450008480FFF73BFA2CE7B84A002008CF010818
:1044600025302A2E2A660000D8CB01080AD7233C23
:104470002DE9F35F0A8889464FF03C0BB2FBFBF154
:104480006423B1FBF3F4DFF8FCA103FB14160BFB70
:104490001125BAF804404FF000080127C6EB0610BA
:1044A00005EB8001009803F0ABFF012F06D0022F2F
:1044B00008D0032F18D0042F09D118E0724A012127
:1044C000009802E00098801C13E000F059FC06F010
:1044D0004FFB11287FD015DC082861D00DDC0128A6
:1044E0006CD004285BD172E00098801D01E0009838
:1044F000083080B2644A0121E7E7092877D0102804
:104500004DD108E0202851D0212871D0402813D067
:10451000412844D17EE0012F06D0022F06D0032F80
:1045200006D0042F3BD105E00A360FE0711C15E0E0
:104530000A3521E0691C26E0012F06D0022F0BD09E
:10454000032F18D0042F2AD11BE05A366420B6FB63
:10455000F0F100FB1166A1E706F109010A20B1FBA9
:10456000F0F200FB1211B6FBF0F000EB800001EB63
:104570004000C6B292E73235B5FBFBF10BFB11559B
:104580008CE705F109010A20B1FBF0F200FB1211E2
:10459000B5FBF0F000EB800001EB4000C5B26AE033
:1045A0007F1CFFB2042F66D9012764E07F1E17F03D
:1045B000FF0760D104275EE00DE0FFE7C6EB0610C1
:1045C00005EB8001A9F800104FF0010856E04FF00C
:1045D000000847464FE040F69800844201D2641C30
:1045E000A4B26421112009F06BFA60B137E02CE02D
:1045F00031E0641CA4B220460BF07EFA23490BF094
:10460000C3FAFFF735FB0121112009F059FA002800
:10461000EFD024E0C82C01D9641EA4B2642141204B
:1046200009F04EFA50B11AE0641EA4B220460BF015
:1046300063FA16490BF0A8FAFFF71AFB0121412093
:1046400009F03EFA0028EFD009E040F29E70844263
:1046500005D2643402E0DC2C01D9143CA4B220461B
:104660000BF04AFA09490BF08FFAFFF701FBAAF8A1
:104670000440FFF72BF9002F7FF46DAF4046BDE8F3
:10468000FC9F0000B84A0020D8CB01080AD7233C81
:10469000704770B514460D46064605F063FDE2B25C
:1046A00029463046FFF752FB044605F063FD2046DD
:1046B00070BD70B514460D46064605F053FDE2B2D6
:1046C00029463046FFF770FB044605F053FD2046AF
:1046D00070BD000070B50BA0FDF732FB0C4D00243F
:1046E000102255F824000B49FDF74CFB55F8240027
:1046F00040221021FDF79AFA641CE4B2052CEFD396
:1047000070BD00005C53616D706C6572000000004C
:1047100044CE01084601002010B51446064A01EBBC
:104720008101C90052F820002423224602F0D6FA63
:10473000002800D1206010BD44CE010870B50D46A0
:104740000446164664210A48FCF7BBF82422314689
:104750000748FCF73FF805EB8500C1000548282312
:10476000034A50F82400BDE8704002F0B9BA0000D6
:104770001846002044CE010870B58CB00D460446A2
:10478000302226496846FCF76AF825492846FCF796
:10479000B3F9234822492C30C368CA6893423BD0FE
:1047A0004B6903F26C7343610969491CC0E9032139
:1047B00061696422481E90FBF2F3C51700EB957502
:1047C000C3EBA503950090FBF5F633448E070ED19D
:1047D00091FBF2F602FB161222B991FBF5F205FBF2
:1047E000121121B92169022901DD012100E0002116
:1047F00022696D4605EB8202E56852F8042C2A44D2
:1048000040F26D1500FB053010440844072190FB71
:10481000F1F201FB1200A0610CB070BD58CF01088D
:104820002C49002070B5154C154E204694F82510E3
:1048300090F82850C08C012915D0022909D00329ED
:104840001BD10BF059F931460BF09EF9294609F0BE
:1048500063FF608D0BF050F931460BF095F9BDE820
:10486000704009F06DBF0BF047F931460BF08CF941
:104870002946BDE8704009F04FBF70BDB84A00201E
:10488000CDCCCC3D1148816941F0010181611049D5
:10489000202048610F48016821F400510160001F89
:1048A000016821F45C4101600A49091D0A680A6037
:1048B000091D0A6842F400520A60064A4114103287
:1048C0001160016841F4005101607047001002401E
:1048D000000001400404014008B50020009001F0F0
:1048E00067F808A140F6162000F04CFA4FF4C062B9
:1048F000694641F21620FFF7C1FC002800D000985D
:1049000008BD0000CAE4C8EBC3DCC2EB3A000000FB
:104910002DE9F041012440F608064FF4C068194D16
:1049200040F60C6705F0E2FC174800F053FA00224D
:104930002146154800F07AFA0446012807D0022CD7
:1049400008D0032C1AD0002CECD1BDE8F08108F07F
:10495000E9FCE7E705F0CAFC0CA1304600F012FACA
:10496000424629463846FFF789FC0028DAD0002164
:104970000AA000F08DFFFEF7A9FFD3E707F0C0FA09
:10498000D0E70000EC4A00201CD40108C7EBCAE4C1
:10499000C8EBD0C2C3DCC2EB3A000000C3DCC2EB00
:1049A000D0DEB8C4B3C9B9A6210000002DE9F04F8C
:1049B000074669488BB0694984880025DFF8A0A1C3
:1049C00005A82E46EB4601EB47080A90B8F82210DE
:1049D0002BF815100BEB45006D1CB8F81810EDB254
:1049E00081820A2D02D026B10A2103E0002501268A
:1049F000FAE72946684605F079FB2AF817000EB158
:104A00000A2100E029460A9805F070FB0AEB4709E5
:104A1000A9F814000EB10A2100E02946684605F005
:104A200065FB2AF817000EB10A2100E029460A9812
:104A300005F05CFBA9F814004AA140F60F7000F0E5
:104A4000A1F9384606F02CFA014640F2026900232B
:104A50004A4641F20E5003F063FA44A140F61C703E
:104A600000F090F9384606F081F9014600234A46E5
:104A700041F21B5003F054FA282006F031FA0028C6
:104A8000A4D006F075F811281FD00BDC012817D030
:104A9000042815D0092899D140F29E7084424DD245
:104AA00064344AE0212845D041288FD1C82C01D94F
:104AB000641EA4B26421412009F002F880B33DE0F5
:104AC000FEF794F90BB0BDE8F08F40F698008442F1
:104AD00001D2641CA4B26421112008F0F1FF58B186
:104AE0002CE0641CA4B220460BF006F849460BF0FB
:104AF0004BF8FFF7BDF801E0DFF8789001211120B5
:104B000008F0DEFF0028ECD018E0641EA4B22046B6
:104B10000AF0F2FF49460BF037F8FFF7A9F802E078
:104B2000FFE7DFF850900121412008F0C9FF00287D
:104B3000EBD003E0DC2C01D9143CA4B220460AF0EF
:104B4000DBFF0C490BF020F8FFF792F80248848055
:104B5000FEF7BCFE3AE70000B84A0020DA46002023
:104B6000444A0020C1F7C1BF3A000000BCC6D1B919
:104B70003A0000000AD7233C0449FF20086003489C
:104B8000143801686FF30901016070471404014093
:104B90001348816941F0010181611248012181605E
:104BA0000021C160104801686FF309010160001F16
:104BB000016821F4407101600B49091D0A6842F047
:104BC000FF020A60091D0A6842F0FF020A60064AF5
:104BD000FF2110321160016841F0FD010160704752
:104BE00000100240000001400404014010B5FFF72E
:104BF000C3FF0348C068BDE8104008F0D1BE000004
:104C00000800002010B50021084808F0B1FE084C4B
:104C10000021E0600548001D08F0AAFEA0600348DE
:104C20000021BDE81040083008F0E4BE640001082F
:104C3000080000200F48816941F004018161816909
:104C400041F0080181610C49FC2008600B490320F8
:104C50000860094810380168094AC9B21143016067
:104C600006481038016821F00F0141F00801016089
:104C7000704700000010024010080140100C014075
:104C800000888888064800680649C0F385000968DE
:104C900001F0010140EA81117F2088437047000044
:104CA00008080140080C01402DE9F041274805683B
:104CB0002748854200DD05462648008903F02CFF81
:104CC000254C0146E068A061804628460BF0E2F8DA
:104CD00005462249E0600AF057FF07462061204957
:104CE00028460AF051FF61680AF098FD06466060A8
:104CF000414628460BF0CEF81A490AF045FF054612
:104D00006061314638460AF089FD29460AF086FD81
:104D100015490AF039FF05461449A0680AF034FF26
:104D200029460AF07BFD1249A060884202DC114945
:104D3000884200DAA1601049A0680AF025FF0AF055
:104D4000A3FEBDE8F04180B200F02ABE2C00002096
:104D50000000B041CC460020880000204260E53BC6
:104D60008FC2753CA69B443B6666663FCDCCCC3D6E
:104D700083C02A3F0AD7A33C0000D84603F038BDC1
:104D800002F0FCB902F0F4BA08498A6942F0100254
:104D90008A6108B1891501E04FF080710448016112
:104DA000416821F00F01C91C4160704700100240AA
:104DB0000010014070B50C4600EBC4060546706853
:104DC000FBF79EFCC1B235F834007268BDE8704054
:104DD000FFF7D6BF70B501880546080ACEB201D0EC
:104DE0007043C6B2696819B14FF48170FFF7CAFF0A
:104DF0004FF424740C4A40F20251204603F0C1FDE6
:104E0000094A40F21451204603F0BBFD012408E09A
:104E100005EBC400416835F83400FFF7B3FF641CAC
:104E2000E4B2B442F4D970BD98C9010800F03AB9AF
:104E300030B41C461346224630BC00F005BA30B4EC
:104E40001C461346224630BC00F0E8BA30B41C467B
:104E50001346224630BC00F001B800002DE9FF5F88
:104E600006460C4685483188904685884FF0000BF1
:104E7000080ACFB232D0784300F0FF0A0CB1544593
:104E800000D9012406EBC409D9F80400FBF738FC6B
:104E9000C1B236F83400D9F80420FFF771FF00BF23
:104EA0005FEA080000D08047322006F019F8002899
:104EB000F6D036F83400D9F80410FFF763FF05F098
:104EC00057FE102847D00BDC0A28DBD2DFE800F0C1
:104ED00005575B05D005A9052292D3E7BA46CDE771
:104EE000212872D008DC11284FD02028CAD103987D
:104EF00050EA0B003CD032E0402823D04128C1D1F9
:104F0000C82D01D96D1EADB26421412008F0D8FD35
:104F1000A0B379E0039850EA0B0017D003E000BF7C
:104F2000A4EB0A000CE0B4FBF7F007FB104008B953
:104F3000E01BC4B2641CE4B2A4E7E01B00E0E0198B
:104F4000C4B29FE7039830EA0B00ECD1E019C4B279
:104F5000544597D9E4E7039830EA0B0008D0641E63
:104F6000E4B2B4FBF7F007FB104000288AD1E6E773
:104F7000BC42E2D804EB0A00C4B2DEE731E02046CE
:104F800004B0BDE8F09FFF20FAE740F698008542A4
:104F900001D26D1CADB26421112008F091FD58B111
:104FA00032E06D1CADB228460AF0A6FD49460AF073
:104FB000EBFDFEF75DFE01E0DFF8C490012111205A
:104FC00008F07EFD0028ECD01EE019E06D1EADB2A9
:104FD00028460AF091FD49460AF0D6FDFEF748FE44
:104FE00001E0DFF89C900121412008F069FD0028D4
:104FF000ECD009E040F29E70854205D2643502E0B3
:10500000DC2D01D9143DADB228460AF075FD1C49CE
:105010000AF0BAFDFEF72CFE18488580FEF756FC14
:1050200030E7C821062008F04BFD002884D105F0A8
:105030006CF8642005F0AEF905F067F805F056F954
:1050400010A14FF4C160FFF79DFEFEF775FB0B4901
:105050004FF4E062383140F60C40FFF70FF938B1F9
:1050600004210CA000F014FC062803D0FEF764FB1A
:10507000002085E7FEF72AFCFAE70000B84A002086
:105080000AD7233CC7EBCAE4C8EBB3F6B3A7B1E039
:10509000BAC53A00CAC7B7F1B1A3B4E6B1E0BAC520
:1050A0003F0000002DE9F05F0C46DFF894B1018865
:1050B0000646BBF804509046080ACFB232D0784377
:1050C00000F0FF0A0CB1544500D9012406EBC409D5
:1050D000D9F80400FBF714FBC1B236F83400D9F854
:1050E0000420FFF74DFE00BF5FEA080000D08047B4
:1050F000322005F0F5FE0028F6D036F83400D9F855
:105100000410FFF73FFE05F033FD10283DD00BDC07
:105110000A28DBD2DFE800F0054045054305050518
:10512000277DD3E7BA46CDE7212878D00DDC1128BA
:1051300039D02028CAD1641EE4B2B4FBF7F007FBD3
:1051400010400028C2D1E0191DE0402815D04128A8
:10515000BCD1C82D01D96D1EADB26421412008F02B
:10516000AFFCB8B35FE0B4FBF7F007FB104008B941
:10517000E01BC4B2641CE4B2A8E7E019C4B2544511
:10518000A4D9A4EB0A00C4B2A0E7BC4202D804EB45
:105190000A00C4B2E01BF6E72046BDE8F09F0020FD
:1051A000FBE7FF20F9E740F69800854201D26D1C2D
:1051B000ADB26421112008F083FC60B133E06D1CB6
:1051C000ADB228460AF098FC49460AF0DDFCFEF72D
:1051D0004FFD02E013E0DFF86C900121112008F090
:1051E0006FFC0028EBD01EE06D1EADB228460AF021
:1051F00083FC49460AF0C8FCFEF73AFD01E0DFF8FF
:1052000044900121412008F05BFC0028ECD00AE02A
:1052100005E040F29E70854205D2643502E0DC2D47
:1052200001D9143DADB228460AF066FC05490AF0E2
:10523000ABFCFEF71DFDABF80450FEF747FB45E75E
:10524000B84A00200AD7233C2DE9FF5F06460C46EA
:1052500070483188904685884FF0000B080ACFB21D
:1052600032D0784300F0FF0A0CB1544500D9012434
:1052700006EBC409D9F80400FBF742FAC1B236F8CC
:105280003400D9F80420FFF77BFD00BF5FEA080077
:1052900000D08047322005F023FE0028F6D036F8F3
:1052A0003400D9F80410FFF76DFD05F061FC1028FB
:1052B00047D00BDC0A28DBD2DFE800F005575D059C
:1052C0005B0505052294D3E7BA46CDE7212874D0C3
:1052D00008DC112851D02028CAD1039850EA0B00CD
:1052E0003CD032E0402823D04128C1D1C82D01D97B
:1052F0006D1EADB26421412008F0E2FBA0B37BE05B
:10530000039850EA0B0017D003E000BFA4EB0A009B
:105310000CE0B4FBF7F007FB104008B9E01BC4B287
:10532000641CE4B2A4E7E01B00E0E019C4B29FE70C
:10533000039830EA0B00ECD1E019C4B2544597D978
:10534000E4E7039830EA0B0008D0641EE4B2B4FB33
:10535000F7F007FB104000288AD1E6E7BC42E2D80C
:1053600004EB0A00C4B2DEE733E0204604B0BDE837
:10537000F09F0020FAE7FF20F8E740F6980085420A
:1053800001D26D1CADB26421112008F099FB58B117
:1053900032E06D1CADB228460AF0AEFB49460AF079
:1053A000F3FBFEF765FC01E0DFF86C9001211120B2
:1053B00008F086FB0028ECD01EE019E06D1EADB2AF
:1053C00028460AF099FB49460AF0DEFBFEF750FC3E
:1053D00001E0DFF844900121412008F071FB002832
:1053E000ECD009E040F29E70854205D2643502E0BF
:1053F000DC2D01D9143DADB228460AF07DFB0649EB
:105400000AF0C2FBFEF734FC02488580FEF75EFA24
:105410002EE70000B84A00200AD7233C2DE9FF5FA1
:10542000064673480C4631888588080AC9B29846F2
:1054300091468A4630D000FB0AF0C0B200900CB111
:10544000844200D9012405F087FC834606EBC4079B
:1054500003977868FBF754F9C1B236F834007A68DC
:10546000FFF78EFC5FEA090000D0804705F074FC6E
:10547000A0EB0B00C7B2A8EB07025EA101A8FAF7E8
:10548000A7FF01A940F60970FFF77CFC474507D349
:10549000012004B0BDE8F09F0846CDF800A0CEE79B
:1054A000322005F01DFD0028DCD00398416836F855
:1054B0003400FFF767FC05F05BFB10283ED009DCE9
:1054C0000A28C3D2DFE800F0054246054405050579
:1054D000267CBBE7212879D00EDC11283CD020287F
:1054E000B4D1641EE4B2B4FBFAF10AFB1140002807
:1054F000ACD104EB0A001FE0402816D04128A5D10A
:10550000C82D01D96D1EADB26421412008F0D8FA32
:10551000C8B35FE0B4FBFAF10AFB114010B9A4EB89
:105520000A00C4B2641CE4B290E704EB0A00C4B2FF
:10553000009884428AD9201AC4B287E7544502D819
:1055400000982044C4B2A4EB0A00F5E72046A0E787
:1055500000209EE7FF209CE740F69800854201D29C
:105560006D1CADB26421112008F0AAFA60B131E0DF
:105570006D1CADB228460AF0BFFA39460AF004FBAA
:10558000FEF776FB01E012E01C4F0121112008F02C
:1055900097FA0028ECD01DE06D1EADB228460AF047
:1055A000ABFA39460AF0F0FAFEF762FB00E0134F5F
:1055B0000121412008F084FA0028EDD00AE005E03E
:1055C00040F29E70854205D2643502E0DC2D01D99F
:1055D000143DADB228460AF08FFA08490AF0D4FA11
:1055E000FEF746FB02488580FEF770F92EE70000C3
:1055F000B84A002028253275732900000AD7233CB9
:105600002DE9F04F04468DB000200190054606902C
:1056100003907A480A907A4805907A4800EB440053
:1056200080890AF069FA784901EB0419D9F8001069
:105630000AF0AAFADFF8D4B14FF0000A099084B159
:105640004BF824A00021204600F00EF9012120464D
:1056500000F0F8F8642004F09DFE08F04DF90646CD
:10566000B7E06B480590564600213046CBF800A0C5
:1056700000F0FAF80121304600F0E4F8642004F06C
:1056800089FE08F039F9064662480078012808D0FA
:10569000A4E02046052C19D2DFE804F00415151506
:1056A0001500204605F0C8FB804605F07DFB074647
:1056B00005F070FA0346002239464046CDF800A0B6
:1056C000FCF78AFE03E005F0B7FB00E0002001468E
:1056D000019F09980AF0DEFB0190D9F804000199B6
:1056E0000AF052FA0790D9F8080001990AF04CFA2A
:1056F00029460AF093F8054647484FF07E58854200
:1057000001D9054602E0454500DD45463946019888
:105710000AF0C0FBD9F80C100AF036FA3F490AF03B
:1057200033FA07463E4906980AF02EFA39460AF03F
:1057300075F80690404605990AF0ACFB07462946E5
:1057400007980AF06BF806990AF068F839460AF0EB
:105750001BFA0746059903980AF016FA39460AF02B
:105760005DF803900A990AF059F810F1FF4F01D340
:10577000002002E0404500DD40464BF82400294966
:105780000AF002FA0AF080F981B2204600F06CF8C3
:1057900025484FF47A714FF47A72008848432349C0
:1057A0000988514300EB114808F0A6F800EB080106
:1057B0008A1B521EB2FBF8F1B1F5967F02D2C1F5F9
:1057C000967701E006461E27B8B204F0E3FD07FB1A
:1057D00008661048005D01283FF45BAF55464BF862
:1057E00024A00021204600F03FF80021204600F0D0
:1057F00029F8084805550DB0BDE8F08F3333B33EA6
:10580000CDCC4C3FB84A0020A8CE010888470020E4
:105810006666663F3C010020000080BFFA7EAA3E1B
:1058200083C02A3F0000D846FCCB0108FECB01080C
:1058300010B5C0B2FFF7E4FE08F000F9BDE8104073
:1058400008F008B90A4608B506496B4631F8100059
:105850008DF80020401C81B20122104604F0B4FFF4
:1058600008BD000058CE01080A4608B507496B4636
:1058700031F8100049F641410844ADF8002081B2EA
:105880000122104604F0A0FF08BD000058CE010818
:105890002DE9F0410D46040006D004F027FD214615
:1058A00040F20670FFF76EFA264805F00F0450F834
:1058B00024603046FFF78EFA4FF42477224A41F6EF
:1058C0000201384603F05DF81F4A41F614013846DC
:1058D00003F057F84AF201071C4A40F202513846D9
:1058E00003F04FF81A4A40F22651384603F049F8BF
:1058F000C5F303110022491C3046FFF797FA062C26
:1059000004D2DFE804F0030307131319012815D1AB
:10591000BDE8F081012802D0032811D101E0032065
:10592000F6E70520F4E7022808D103E00128FAD1C0
:105930000620EDE70720EBE7012801D00220E7E78A
:105940000420E5E720D0010898C9010838CB0108F8
:1059500098CA010800F01F020121914040094FF050
:10596000E02202EB8000C0F8001170470248006896
:10597000C0F3072070470000080C01404FF07F4142
:1059800041EA00200149086070470000100C014006
:1059900010B5024C03F0CCF8A08610BD0004004006
:1059A00010B5024C03F0C4F8208710BD000400407D
:1059B00010B540F20E614CF2D60001F051FABDE88C
:1059C0001040034A40F20D514BF2010001F051BB6F
:1059D000E8C90108094A30B414880023844202D976
:1059E0001288101A83B2642000EBC3000A460146F5
:1059F00030BC082302A001F071B900008000002033
:105A00005C53616D706C65725C504F57455200007D
:105A100070B51CA0FCF744F91E4D6438C0F3CF00EC
:105A20002880002000F09AF9AC1C010EE170010CF6
:105A3000A170010A617020702888682101EBC00103
:105A4000042322460FA001F04BF9298842F210707E
:105A5000B1FBF0F200FB1210401C288005F07CF92D
:105A6000010EE170010CA170010A6170207028889C
:105A700022466421BDE8704001EBC001042301A06F
:105A800001F02EB95C53616D706C65725C504F57BC
:105A9000455200008000002010B505F05DF9BDE81A
:105AA0001040002100F064B910B510A0FCF748F9CF
:105AB0001022114911A0FCF765F9582210210FA0FE
:105AC000FCF7B4F80DA0FCF7EBF86438C0F3CF0195
:105AD0000E480180008864210C4A01EBC0010423B8
