:020000040800F2
:10000000D07300203D0300084503000847030008A3
:10001000490300084B0300084D03000800000000DE
:100020000000000000000000000000007502000851
:100030005103000800000000ED0200082903000839
:1000400057030008570300085703000855790008B4
:100050005703000857030008D93F0008F93F00087C
:10006000014000080940000811400008570300083B
:1000700057030008570300085703000857030008F8
:1000800057030008570300085703000857030008E8
:1000900057030008570300085703000819400008D9
:1000A00057030008570300085703000857030008C8
:1000B0005703000857030008759500085703000808
:1000C00057030008570300085703000857030008A8
:1000D000570300085703000857030008D19600088B
:1000E000E13F0008570300085703000800F002F83A
:1000F00000F07AF80AA090E8000C82448344AAF148
:100100000107DA4501D100F06FF8AFF2090EBAE845
:100110000F0013F0010F18BFFB1A43F0010318473B
:10012000F4F5010014F601000A444FF0000C10F839
:10013000013B13F0070408BF10F8014B1D1108BF65
:1001400010F8015B641E05D010F8016B641E01F805
:10015000016BF9D113F0080F1EBF10F8014BAD1C55
:100160000C1B09D16D1E58BF01F801CBFAD505E073
:1001700014F8016B01F8016B6D1EF9D59142D6D3CD
:10018000704700000023002400250026103A28BFF5
:1001900078C1FBD8520728BF30C148BF0B607047F9
:1001A000662911F00282642900F07881752900F037
:1001B0007581782900F0AE81732900F0A4870020B2
:1001C00070471FB500F0A3FF04000020002110F0CD
:1001D000B3FCE0601FBD10B510BD03B4FFF7FBFF1B
:1001E00003BC01F093F8000000F0CCF81146FFF7D3
:1001F000E8FF0EF0B1FF044800210FF073F80EF095
:10020000BDFF00F053FA00004000002080F3098891
:100210007047EFF309807047684680F30988044807
:100220000078C00714BF0220032080F314887047B1
:1002300030E20108DFF818C0EFF305831B0618BF92
:100240006047EFF31483DB0708BF604700DF7047A8
:10025000E5F30008DFF818C0EFF305831B0618BFAD
:100260006047EFF31483DB0708BF604700DF704788
:10027000C9F50008EFF30980816911F8021CF1B992
:1002800090E80F10E047EFF3098C8CE80700144B5F
:1002900093E8060091420FD039B12CE9F00FC1F874
:1002A00024C00CB40FF0C4FC0CBC1A60D2F824C0FB
:1002B000BCE8F00F8CF309886FF0020E704710B5A0
:1002C000084A1268914209D8074C54F8214090E836
:1002D0000F10A047EFF3098C8CE80F0010BD000051
:1002E00044030020101B0008101B00080FF03CFB0B
:1002F0000C4B93E80600914210D0EFF3098C2CE9E7
:10030000F00FC1F824C00CB40FF092FC0CBC1A60C2
:10031000D2F824C0BCE8F00F8CF309886FF0020E0D
:1003200070470000440300200FF048FDE0E70000A4
:100330000FF02AF80FF042FDDAE700000948804785
:1003400009480047FEE77047FEE7FEE7FEE7FEE7E5
:10035000FEE7FEE7FEE7FEE704480549054A064BCF
:100360007047000051940008ED000008D06D002097
:10037000D0730020D06F0020D06F0020004870475D
:100380006C6D00207546FFF7F9FFAE460500694623
:10039000534620F00700854618B020B5FFF7DCFF74
:1003A000BDE820404FF000064FF000074FF0000876
:1003B0004FF0000B21F00701AC46ACE8C009ACE8F7
:1003C000C009ACE8C009ACE8C0098D467047000020
:1003D0000FB41CB5074B06AA7B44694600900598EC
:1003E00000F067FE0020694600F076FE1CBC5DF858
:1003F00014FB0000FD0C000070B504468569006820
:10040000C10601D5302600E02026C00708D070BD07
:10041000D4E9012130469047206A00F101002062B2
:100420006D1EF5D570BD70B5044685690078C007AE
:1004300008D170BDD4E9012120209047206A00F145
:10044000010020626D1EF5D570BD70B50C460546E5
:10045000012A05D02878800600D5EA69002302E049
:10046000012305E05B1C934202D2E05C0028F9D135
:10047000A869E618C01AA861286A184428622846A4
:10048000FFF7BAFF04E0D5E9012114F8010B90470A
:10049000B442F8D32846FFF7C6FF70BD2DE9F041FE
:1004A0000646002410687529314616A511D0AFF311
:1004B0000080002803DAC0F1000013A507E03168CE
:1004C0008A0701D511A502E0490704D510A501242A
:1004D00001E0AFF3008000210A2306F1240707E0C2
:1004E000B0FBF3F203FB1200303078541046491C85
:1004F0000028F5D123462A463046BDE8F04100F0F9
:1005000067BB0000000000002D0000002B00000071
:100510002000000070B504460D4621461068AFF378
:1005200000802188090502D5104A7A4402E00F4A6A
:100530007A440E32002104F1240307E000F00F0694
:100540004FEA1010965D5E5401F101010028F5D1CB
:1005500003462078000704D5702D02D009B111326E
:1005600002232046BDE8704000F032BBF2E90100F2
:100570002DE9F05F894604464FF0000ADFF828B104
:10058000FB44C0F820A02046E168884700287CD0C2
:10059000252806D0D4E901219047206A401C20621A
:1005A000F1E700255F462046E16888472028064697
:1005B00008DB312E06D207EB060010F8200C08B13C
:1005C0000543F0E7A80701D525F00405C4F81CA0F1
:1005D0000027C4F818A02A2E09D0304609F0B9FF28
:1005E00038B304EB8708303EC8F8186019E059F8B2
:1005F000041B204604EB87029161E1688847012FC4
:10060000064618D1E069002820DA25F020051DE013
:10061000D8F8180000EB800006EB40003038C8F82E
:1006200018002046E1688847064609F092FF002836
:10063000EED1012F0AD02E2E08D12046E16888473E
:100640007F1C0646022F45F02005C4DBA069002868
:1006500003DA404245F00105A061E80701D025F02A
:10066000100596B1A6F14100192802D8203645F4AC
:1006700000654A463146204625604D46FFF790FD0D
:1006800060B1012807D0ED1D00E009E025F007006A
:1006900000F1080977E705F1040974E7304679E7C6
:1006A000206ABDE8F09F0000C4E901000446AFF3F2
:1006B00000802046FFF791FD40EA0103024630B575
:1006C0009B0710D14FF0013400E008C208C91D1B80
:1006D0009D4315EAC41FF8D013F0FF0102F8011B77
:1006E0000DD01B0AF8E711F8013B002B02F8013B83
:1006F00005D011F8013B002B02F8013BF3D130BDCE
:1007000010B5431C02E010F8011B71B18107FAD14A
:100710004FF0013202C88C1A8C4314EAC211F9D08E
:10072000C01A0A0603D0C01E10BDC01A10BD0A04AC
:1007300001D0801E10BD0902FCD0401E10BD40EA51
:10074000010370B59B072ED14FF00136042A2AD33E
:1007500008C810C9121F9D1B9D4315EAC61517D066
:10076000D8B2E1B2401A50EA056110D198B2A1B2F4
:10077000401A50EA05410AD123F07F4024F07F411E
:10078000401A50EA052102D1180EA0EB146070BD8A
:10079000A342DBD018BA21BA884201D9012070BD2A
:1007A0004FF0FF3070BD0AB9002070BD10F8013B5A
:1007B00011F8014B63B1A3420AD1521E08D010F8C0
:1007C000013B11F8014B1BB1A34201D1521EEDD1E7
:1007D000181B70BD421E12F8013F002BFBD111F80F
:1007E000013B002B02F8013BF9D17047032A40F28C
:1007F000308010F0030C00F0158011F8013BBCF1C3
:10080000020F624498BF11F801CB00F8013B38BFDA
:1008100011F8013BA2F1040298BF00F801CB38BFE8
:1008200000F8013B11F0030300F02580083AC0F006
:10083000088051F8043B083A51F804CBA0E80810AE
:10084000F5E7121D5CBF51F8043B40F8043BAFF3E1
:100850000080D20724BF11F8013B11F801CB48BF3B
:1008600011F8012B24BF00F8013B00F801CB48BF71
:1008700000F8012B704710B5203AC0F00B80B1E8AA
:100880001850203AA0E81850B1E81850A0E81850C5
:10089000BFF4F5AF5FEA027C24BFB1E81850A0E8CE
:1008A000185044BF18C918C0BDE810405FEA827CE8
:1008B00024BF51F8043B40F8043B08BF7047D207FF
:1008C00028BF31F8023B48BF11F8012B28BF20F8A0
:1008D000023B48BF00F8012B70474FF0000204298B
:1008E000C0F0128010F0030C00F01B80CCF1040C5F
:1008F000BCF1020F18BF00F8012BA8BF20F8022B93
:10090000A1EB0C0100F00DB85FEAC17C24BF00F838
:10091000012B00F8012B48BF00F8012B70474FF066
:10092000000200B5134694469646203922BFA0E83F
:100930000C50A0E80C50B1F12001BFF4F7AF09074B
:1009400028BFA0E80C5048BF0CC05DF804EB89003C
:1009500028BF40F8042B08BF704748BF20F8022B7F
:1009600011F0804F18BF00F8012B704730B50368B5
:100970001C1404EB21459BB289B2194495FBF2F497
:1009800002FB145301EB034191FBF2F302FB131141
:1009900001E05B1E11440029FBDB016003EB044016
:1009A00030BD2DE9F04704464FF0FF3A86B00068AD
:1009B000029060680390A0680490E068019020694C
:1009C00000906569B5F1804F7EDCB5F1404F7BDB6F
:1009D0003C22002102A8FFF7C9FF3C22014603A8E0
:1009E000FFF7C4FF1822014604A8FFF7BFFF411E0E
:1009F00040F2B55201A8FFF7B9FF0C22064668463F
:100A00000021FFF7B3FF00EB860028443E4D00268F
:100A10007D440FE09A1A491CCDE90012022902D048
:100A20000C2907D104E0810704D0521C019201E097
:100A3000401C00960099019B6A5C9A42EADD0129FC
:100A400006D11C2B04D1810702D00221CDE900166A
:100A5000A0F146018B2940D20199009B00220F464C
:100A600002E0AE5C521C31449A42FADB012B02DDFB
:100A7000820700D0491E40F2B55540F26D16C217EC
:100A800000EB927292106A4300F0030505FB062208
:100A900085070A4400D1521E049D02EB4206DDF890
:100AA0000C80A94605EBC605184EC5EB0515DDF80B
:100AB00008C008EB850535442E14ADB2C6EB06160A
:100AC000C5EB0515B60000E007E00CEB850506EB6D
:100AD000154666F31F45360C03D0504606B0BDE8F8
:100AE000F0877F1CC4E90430521C072092FBF0F30E
:100AF00004F1180600FB1320A6E803042846C4E905
:100B00000297C4E900C8E9E745E50100A039CEFD38
:100B100070B50C46016800204A1C34D040F2B5552F
:100B20003C23B1FBF3F203FB12112160B2FBF3F1A2
:100B300003FB112218236260B1FBF3F203FB1211D5
:100B4000A16046F2E0310A440721B2FBF1F301FB58
:100B50001321B2FBF5F305FB1322A1619900B2F555
:100B6000B77F06D3521EAD10B2FBF5F3194405FB57
:100B700013220F4BE261616189077B440CD03B2A51
:100B80000AD3521C08E02C212046FFF7C8FE0120A2
:100B9000E0600AE0521A401C195C9142FAD9521CDA
:100BA000C4E903204FF0FF302062204670BD0000F2
:100BB000DBE3010070477047704710B500F0ACFAF6
:100BC000006810BD10B5044600F0A6FA046010BD20
:100BD0002DE9F0470D4699469246044600F1240857
:100BE0000168880604D5E06921F01001216000E069
:100BF0000120A84202DDA0EB050700E00027A16963
:100C000007EB050202EB0900A1EB0000A0612078D0
:100C1000C00602D42046FFF7EFFB002608E0D4E927
:100C200001211AF806009047206A401C761C2062B9
:100C30004E45F4DB2078C0060AD52046FFF7DCFBE2
:100C400006E0D4E9012130209047206A401C206250
:100C5000381EA7F10107F4DC07E0D4E9012118F8F8
:100C600005009047206A401C2062281EA5F101055E
:100C7000F3DC2046FFF7D7FB2078000602D50220E0
:100C8000BDE8F0870120FBE770472DE9FF4F0C46D8
:100C90001E464FF0FF378BB0D2E90001DDF86080CF
:100CA0000A908A46C1F30A5505B93D460021084617
:100CB0004FF00000BAF1000F00F4400005DA00EB3D
:100CC00080004FF4400101EA50004FEA9059B9F119
:100CD000010F00DDB9460A9850EA4A000ED044F6EA
:100CE0001050A5F2FF3545432F14B8F1000F1ED068
:100CF0007542291E1EDDC9F100021CE0B8F1010F8A
:100D00004FF0000001D0302103E0F24305E0215410
:100D1000401CB042FBDB30460022002121540B99DD
:100D2000C1F80880C1E900200FB0BDE8F08FBD1BFD
:100D30006D1CDEE74A4600DA694206A800F074FA44
:100D400006AB07CB03AB07C350460A9900F025FB5F
:100D50008DE80700A0F500501F3800900398002D83
:100D600009DD42F21F014A46084403A90390684680
:100D700000F084FD08E0A0F500504A461F3803A9A2
:100D80000390684600F08EFD8DE807000004000C1B
:100D900003D04FF0FF30410800E01046B8F1000FDB
:100DA00003D00022009215461FE0751E06D400F005
:100DB000B5F902F1300262556D1EF8D5B346012235
:100DC000084302D000227F1C04E02078302801D1A3
:100DD00000227F1E002A099787D01DE0112D07DA17
:100DE00000F09CF9303262556D1C50EA0102F5D1D9
:100DF00008430FD10021681E05E0235C625C635448
:100E0000491C2254401E8142F7DBAB46A81B401E02
:100E1000099001E0009848B1002004F80B000B98FD
:100E2000099AC0F80880C0E9002B7DE711264FF031
:100E300000085AE72DE9F04F88460446D21D22F0FB
:100E4000070191B0D1E90001CDE90A0109F0DFFA0B
:100E500002460B98C00F01D02D2007E020688107C3
:100E600001D52B2002E0202101EAC000032A0990CD
:100E700001D0072A05DB03464146204600F094F9DD
:100E80000FE12078800601D5E06900E00620B8F186
:100E9000650F814606D0B8F1660F18D0B8F1670F1C
:100EA00072D132E00020B9F1110F009001DB112363
:100EB00001E009F101030AAA01A90CA8FFF7E5FE68
:100EC000DDE90C70002609F10105834648E00120A8
:100ED0004B4600904FF000470AAA01A90CA8FFF763
:100EE000D4FEDDE90DB00C995D46002618B909F174
:100EF000010001EB0005B9EB050003D4C0F1FF369A
:100F000009F10105A5EB09002BE0B9F1010F01DAA8
:100F10004FF001090020B9F1110F0090484601DDA2
:100F2000112300E003460AAA01A90CA8FFF7ADFEB1
:100F3000DDE90C704D4600268346207800070AD470
:100F4000AB4500DA5D4601A8012D04DD411911F819
:100F5000011C302907D04F4502DA17F1040F04DADB
:100F60000120824610E06D1EEEE7002F02DCED1B33
:100F70003E4403E0781CA84200DD0546A7EB0600CE
:100F800000F1010A4FF000472078000703D4AA457A
:100F900001DB4FF0FF3A0021B7F1004F0DF143089C
:100FA0008DF8431023D002202B23002F01DA7F423B
:100FB0002D234FF00A0C011EA0F1010000DC4FB1FF
:100FC00097FBFCF10CFB11720F4602F1300208F89E
:100FD000012DF0E7A8F1010003702188090501D572
:100FE000452100E06521A0F1010800F8011C0998E5
:100FF0000FA9A1EB080707F1070700B1012000EBDB
:10100000050101EBEA70A1693844A1EB0000A0F1F1
:101010000100A0612078C00602D42046FFF7ECF959
:10102000099830B1D4E901219047206A00F101000C
:1010300020622078C00620D52046FFF7DDF91CE0AD
:10104000002E04DBB34502DD01A8805D00E0302006
:10105000D4E901219047206A761C401CBAF1010AAC
:1010600020620AD100F053F8C0680168405CD4E9FE
:1010700001219047206A401C2062281EA5F101052D
:10108000DEDC07E0D4E9012118F8010B9047206A63
:10109000401C2062381EA7F10107F3DC2046FFF751
:1010A000C2F9022011B040E601694A1C02610878C9
:1010B000704700B58FB0CDE9013100210591054998
:1010C0007944CDE9031011466846FFF751FA0FB095
:1010D00000BD0000E5FFFFFF0A6802F8010B0A608F
:1010E000704710B5436913B1AFF3008001E0FFF71B
:1010F000ACF9012010BD127800F124010A70002221
:101100004A700122EDE711684FF0FF32E9E710B5B0
:10111000FFF734F9203010BD09F08EB930B5B0F1C9
:101120000A024FEA900E71F100034EEA817EB0EBA5
:101130000E0061EB91014FEA101E4EEA017E10EBAA
:101140000E0041EB11114FEA102E4EEA016E10EB2A
:101150000E0041EB11214FEA104E4EEA014E10EB0A
:101160000E0041EB1141401841F100014FEAD0005F
:1011700040EA41704FEAD10110EB80054FEA81044B
:1011800044EA907444EB01046D1944EB0404521BCF
:10119000A3414FF0000348BF0A3200D530BD401CC8
:1011A00041F1000130BD00002DE9F0411F46044629
:1011B00003260168072A01F4006004DB08B116A5C4
:1011C00005E016A503E008B115A500E015A521F07E
:1011D00010002060A069C01EA0610FB1401EA06178
:1011E0002046FFF709F94FB1D4E90121384690476D
:1011F000206A401C2062C01C206206E0206AFAE7D8
:10120000D4E9012115F8010B9047761EF8D220464B
:10121000FFF709F9BDE8F0814E414E006E616E00A6
:10122000494E4600696E66002DE9F0478146164634
:101230008AB035487844D0E9002380680092CDE92F
:101240000130314878440C38D0E902230069039218
:101250004FF03702CDE9043041F69B30014491FB59
:10126000F2F0A0F1800502FB10141B3C02D5644291
:10127000012000E00020DFF890A080460027FA441B
:10128000AAF1C60A0DE0E00709D03246684607EB2E
:1012900047010AEB810100F005FB8DE807006410AF
:1012A0007F1C002CEFD1184F7F44B43F17E0E807B4
:1012B00013D007EB04100DF1180A90E80E00AAE80D
:1012C0000E00C068F04201D198190890324606A974
:1012D00003A800F0E7FA03AB07C36D10641C002DF0
:1012E000E5D132466946B8F1000F03A802D000F0FC
:1012F000C5FA01E000F0D6FAC9E90001C9F80820F2
:101300000AB0BDE8F0870000ACDD010001491820FB
:10131000ABBEFEE7260002004FF0013C50F8042B64
:1013200051F8043B9A4221D1A2EB0C03934313EAF8
:10133000CC1317D150F8042B51F8043B9A4215D125
:10134000A2EB0C03934313EACC130BD150F8042BFC
:1013500051F8043B9A4209D1A2EB0C03934313EAE0
:10136000CC13DBD04FF00000704700BFD01A01BA99
:10137000B1FA81F101F0180122FA01F0CB40C1F17C
:101380002001DBB2C0B2C01A2CFA01F3D11A91438A
:1013900011EAC311E6D1704770475FEA400C08BFFD
:1013A00091F0000F4FEA8C234FEAC12243EA5151DA
:1013B0004FEA1C5018BF00F5F0404FEA300018BF4C
:1013C00041F000415FEA6C5C00F02980BCF1FF3F16
:1013D00008BF40F080407047130C06BF12044FF066
:1013E000100C4FF0000C130E04BF12020CF1080C8D
:1013F000130F04BF12010CF1040C930F04BF9200F1
:101400000CF1020CD30F04BF52000CF1010C114679
:101410004FF00002A0F11F00A0EB0C00704711F08C
:10142000004F08BF704731F000413FF4D5AF0B0CBF
:1014300006BF09044FF0100C4FF0000C0B0E04BF58
:1014400009020CF1080C0B0F04BF09010CF1040C8C
:101450008B0F04BF89000CF1020CCB0F04BF4900B5
:101460000CF1010CCCF12003A0EB0C0022FA03F3E9
:1014700002FA0CF241EA030100F10100704720F08A
:101480007F4C80EA030023F07F47ACEB070303F5B2
:101490007C5300F0004003F1FF032DE980494FEA3F
:1014A000154B09B44FEA144325EA0B4E24EA0348CE
:1014B0000FF2042606EB132749083E785FEA320252
:1014C00003FB0667C7F5000707FB06F64FEA54372C
:1014D0004FEAD64606F1020607FB066CCCF1005C2B
:1014E0004FEA1C472CEA074C07FB06F40CFB06F5F9
:1014F00004EB15464FEA961634BF00204FF000402B
:101500004FEAD13706FB07FC4FEA1C4C0CFB0BF7EC
:10151000D21B03FB0CF761EB07010CFB0EF7B0EBE2
:10152000074072EB17420CFB08F734BFA2EB0742EF
:10153000B2EB074261EB17414FEA0C444FEA9107C7
:1015400006FB07FC4FEA1C4C0CFB0BF7B0EBC7404B
:1015500072EB573203FB0CF734BFA2EBC742B2EB7E
:10156000C74261EB57310CFB0EF7B0EBC70072EBD3
:1015700057720CFB08F734BFA2EBC702B2EBC702ED
:1015800061EB5771039F4FEA816141EA921104EBCD
:10159000CC044FEAD1374FEA826206FB07FC42EAED
:1015A00090124FEA80604FEA1C4C0CFB0BF7D21BE9
:1015B00003FB0CF761EB07010CFB0EF7B0EB0740E8
:1015C00072EB17420CFB08F734BFA2EB0742B2EBF9
:1015D000074261EB17414FEA8C554FEA910704EB44
:1015E0009C2406FB07FC4FEA1C4C0CFB0BF7B0EBF2
:1015F000C74072EB573203FB0CF734BFA2EBC74274
:10160000B2EBC74261EB57310CFB0EF7B0EBC700F2
:1016100072EB57720CFB08F734BFA2EBC702B2EBB8
:10162000C70261EB577115EB4C254FEA816141EA26
:1016300092114FEA82624FEAD13742EA901206FBDA
:1016400007FC44F100044FEA80604FEA1C4C0CFB9D
:101650000BF7D21B03FB0CF761EB07010CFB0EF73A
:10166000B0EB074072EB17420CFB08F734BFA2EB5C
:101670000742B2EB074261EB174115EB1C154FEA2D
:10168000813141EA92414FEA823242EA90424FEA86
:1016900080304FEA0C7644F1000448EA03434EEAF6
:1016A0000B484FF0000EB2EB080C71EB030724BFA0
:1016B000624639464EEB0E0E4FF0000B00185241B9
:1016C00049414BEB0B0BB2EB080C71EB03077BF1C1
:1016D000000B24BF624639464EEB0E0E4FF0000B56
:1016E0000018524149414BEB0B0BB2EB080C71EB6C
:1016F00003077BF1000B24BF624639464EEB0E0E0A
:1017000051EA020718BF46F0010616EB0E7655F1B6
:10171000000254F1000103D5BDE88901BDE800884D
:10172000BDE88901BDE80048B619524141EB01010D
:10173000A3F10103704780807F7E7D7C7B7A79787E
:10174000777676757473727171706F6E6E6D6C6C86
:101750006B6A6A6968686766666564646363626128
:101760006160605F5F5E5E5D5D5C5C5B5B5A5A59A9
:101770005958585757565655555554545353525215
:101780005251515050504F4F4F4E4E4D4D4D4C4C6D
:101790004C4B4B4B4A4A4A494949484848474747B6
:1017A00047464646454545444444444343434342F3
:1017B000424242414141002B26D4770021D01CB542
:1017C0004FEA370703B44FF010004FF010014FF00D
:1017D00000000FBCBDE810400BF1010BBBF1010F85
:1017E00008BF5FEA170722BF12F1010211F10101E0
:1017F0004FF0004143F1000300F0004043EA0000D5
:101800007047F9D35708DAE746EA064613F1400F66
:101810004FEA16461FDD13F1200FDFBF16430A46BD
:10182000002120335B42C8D0C3F1200746EA0646B8
:1018300002FA07F74FEA164646EA0706C3F1200701
:1018400022FA03F201FA07F721FA03F14FF000033D
:1018500042EA0702B1E746EA020646EA06464FEACE
:10186000164646EA0106BCBF46EA0646360C4FF06D
:1018700000034FF000024FF000019EE72DE9C04841
:10188000934630B491E8380007C831EA400C48BFAD
:1018900034EA430C03D5FFF7F2FDFFF78CFFF0BCF1
:1018A000BDE800882DE9C048934630B491E838007F
:1018B00007C810F0804F08BF13F0804F03D100F02D
:1018C00005F8FFF778FFF0BCBDE8008820F07F47FF
:1018D00080EA030023F07F4C07EB0C03A3F57C5355
:1018E00000F00040A3F1FE0392F0000F00F0B3807F
:1018F00095F0000F00F077802DE901494FEA114083
:101900004FEA144621EA004800FB06FC24EA064799
:1019100008FB06F607FB08F800FB07F718EB06487C
:101920004CEB164C4FEA124B18EB07484FEA1546A2
:101930004CEB174022EA0B4E0BFB06FC25EA064750
:101940000EFB06F607FB0EFE0BFB07F71EEB064E23
:101950004CEB164C4FF000061EEB074E4CEB174BB2
:1019600018EB0B0840F1000018EB0E0B58EB0008C9
:1019700040F100008F1A4FF000013CBFC943661BC5
:1019800014BFB5EB040C00213CBFC943F61B4FEA62
:1019900017444EEA8E0E27EA04454FEA1C4704FB23
:1019A00007622CEA074C05FB07F70CFB05F604FB66
:1019B0000CFC16EB074642EB174216EB0C4642EBCB
:1019C0001C421BEB060658EB0202414146EA9E060A
:1019D00001D5BDE80189B619524141EB0101A3F1DE
:1019E0000103BDE801894FEA14454FEA114724EA93
:1019F000054621EA074C05FB07F406FB07F70CFB3D
:101A000006F105FB0CFC11EB074144EB17444FEAD0
:101A1000124711EB0C4144EB1C4422EA074C05FB36
:101A200007F206FB07F70CFB06F605FB0CFC16EBB2
:101A3000074642EB174216EB0C4642EB1C456A1870
:101A400054F1000148BF7047B619524141EB010102
:101A5000A3F10103704795F0000F37D04FEA114210
:101A60004FEA144721EA024624EA074C02FB07F139
:101A700006FB07F70CFB06F402FB0CFC14EB074417
:101A800041EB17414FEA154714EB0C4441EB1C4165
:101A900025EA074C02FB07F506FB07F70CFB06F6E9
:101AA00002FB0CFC16EB074645EB174516EB0C4604
:101AB00045EB1C42121951F1000148BF7047B6199D
:101AC000524141EB0101A3F1010370474FEA144574
:101AD0004FEA114724EA054621EA074C05FB07F1C6
:101AE00006FB07F70CFB06F24FF0000605FB0CFCAB
:101AF00012EB074241EB174112EB0C4251EB1C4138
:101B000048BF7047921841EB0101A3F101037047F0
:101B10000000000006F0ECBB10B50022074B114698
:101B200001EB810403EB440434F81040491CC9B2B2
:101B300022441029F4D3C2F30F1010BD6E0300200D
:101B4000044890F83C00012801D0034800E0034815
:101B500008F074BBCC6C002004B801088492010822
:101B6000264910B508684FF6FF021040244A40F499
:101B7000E06010430860062004F088F8072004F0B5
:101B800085F8082004F082F8092004F07FF80A2084
:101B900004F07CF8172004F079F8282004F076F897
:101BA0001E2004F073F8272004F070F807F092FC70
:101BB000154A1448D16941F00201D1610021018028
:101BC000018540F65F13838501238382018446F2F9
:101BD000600303838383818601878187A0F8401097
:101BE000018841F001010180906940F0010090619D
:101BF0000648416841F44061416010BD0CED00E0D1
:101C00000000FA05000400400010024000000140FE
:101C100008B5024908440090008808BD006C0040E7
:101C200008B5024A10440090016008BD006C0040F5
:101C3000002007F0EBBC00000148007807F0E6BC8C
:101C40002800002070B515460E46044609F0CCFE6B
:101C500021461648FEF730FD144800F077FA30466A
:101C600000F028F964211248FEF737FE00222946C9
:101C70000F4800F05FF90F4C6070012000F008FA87
:101C800064210A48FEF729FE64210948FEF725FE73
:101C900009F0B2FE6078142802D0172802D003E0C1
:101CA000012070BD09F097FE002070BDDC6A0020A5
:101CB000B06900204A01002010B5044609F094FEE6
:101CC00021460648FEF7F8FC044800F03FFA00F011
:101CD00043FA044609F090FE204610BDDC6A00205D
:101CE0002DE9F0411C4615460E46074609F07CFEDC
:101CF00023462A463146384600F07CF8142804D0A2
:101D000009F07AFE0020BDE8F08109F075FE01209F
:101D1000F9E700002DE9F0411C4615460E4607463E
:101D200009F062FE23462A463146384600F092F812
:101D3000084C607009F060FE6078142802D0172803
:101D400003D004E00120BDE8F08109F044FE00204A
:101D5000F9E700004A01002010B5044609F044FEEE
:101D600021460B48FEF7A8FC094800F011F9094983
:101D70004870012000F08CF964210548FEF7ADFDA4
:101D800064210548FEF7A9FDBDE8104009F034BE06
:101D9000DC6A00204A010020B069002070B51546B9
:101DA0000E46044609F020FE21460F48FEF784FC4B
:101DB0000D4800F07AF90D4CA9B20022607030464F
:101DC00000F0B8F86070012000F062F960706421E2
:101DD0000548FEF782FD64210548FEF77EFDBDE85B
:101DE000704009F009BE0000DC6A00204A010020B2
:101DF000B06900202DE9F0411C4616460F46054605
:101E000009F0F2FD29461048FEF756FC0E4800F096
:101E10009DF9384600F04EF8A1B20022304600F09D
:101E200062F80A4C6070012000F032F96421064823
:101E3000FEF753FD64210648FEF74FFD09F0DCFD77
:101E40006078BDE8F0810000DC6A00204A010020D3
:101E5000B06900202DE9F0411C4617460E460546A4
:101E600009F0C2FD29461048FEF726FC0E4800F096
:101E70006DF9384600F01EF8A1B20C4A304600F069
:101E800059F80A4CA41E6070012000F001F9642189
:101E90000548FEF722FD64210548FEF71EFD09F006
:101EA000ABFD6078BDE8F081DC6A00204C010020C9
:101EB000B069002010B5044639200EF02BFEE0B2C8
:101EC0000EF033FEC4F307200EF02FFEC4F30740DC
:101ED0000EF02BFE200E0EF028FE0EF0EBFDBDE8FE
:101EE000104008F0B7B970B5064614460D463A20C2
:101EF0000EF010FEE8B20EF018FE280A0EF015FEE5
:101F00000EF0D8FD0CB1002011E008F0A3F91D2857
:101F10000FD1304600F052F905463B200EF0FAFD95
:101F20000EF0C8FD2E44002CEFD0208828442080DD
:101F3000EBE770BD2DE9F041064614460D463C2006
:101F40000EF0E8FDE8B20EF0F0FD280A0EF0EDFD0F
:101F50000EF0B0FD0CB1002020800C4F08F07AF993
:101F60001E2810D1304600F03CFA054638703D205E
:101F70000EF0D0FD0EF09EFD2E44002CEED02088F9
:101F800028442080EAE7BDE8F081000049010020F4
:101F900010B5044600F0C4F920785C2801D02F2841
:101FA00003D10021642000F032FABDE81040402047
:101FB00000F096B910B504F061FF08B100F0CFF859
:101FC000BDE81040302000F08BB9312000F088B916
:101FD00010B505200AF041FC5A2000F081F90446B2
:101FE00005200AF03AFC204610BD00002DE9F74F0D
:101FF00082B0834604980E46C700080E4FF0000AD0
:10200000C1F30729C1F30748009056200EF082FD66
:10201000F0B20EF08AFD48460EF087FD40460EF005
:1020200084FD00980EF081FD04980EF07EFD0EF008
:1020300041FD3C4614E000BF08F00CF905461E289F
:1020400001D07CB113E04021584600F0B4F957208C
:102050000EF060FD0EF02EFD641E0BF1400BA4B2DD
:10206000002CE9D108F0F6F8054614280ED0162DFC
:1020700009D0FFF7ADFF0AF1010000F0FF0ABAF145
:10208000030FC2D1284605B0BDE8F08F1420FAE74F
:102090000146362000F017B910B508B100F040F93C
:1020A000BDE81040342000F01BB970B5054600F0C3
:1020B00021F904000DD00146284600F021F84128FE
:1020C00007D0142803D0422800D1B32070BD43208C
:1020D00070BD2819BDE87040FFF7DEBF10B504469B
:1020E00000F01EF920785C2801D02F2803D10021B0
:1020F000642000F08CF9BDE81040322000F0F0B808
:1021000070B5054600200E46012401E0641CE4B2CF
:10211000295D5C2913D02F2911D00029F6D1002484
:102120002844FFF7DBFF002C08D0B44206D041283A
:102130000AD0142806D0422800D1B32070BD641CF8
:10214000E4B2EDE7432070BD2046E1E7FF21FFF751
:10215000D7BF2B2000F054B8682000F045B810B568
:1021600022200EF0D7FC0EF0CEFC04460EF0A2FCAE
:10217000204610BD04480178012901D00020704795
:102180000021017001207047380000202DE9F04146
:102190000EF0B9FC06460EF0B6FC05460EF0B3FC98
:1021A00004460EF0B0FC07460EF084FC46EA05201B
:1021B00040EA044040EA0760BDE8F08170B505469A
:1021C00027200EF0A7FC0EF09EFC0400264607D048
:1021D0000EF099FC641E05F8010B14F0FF04F7D112
:1021E0000EF068FC304670BD10B504460C200EF0B1
:1021F00091FC20460EF099FCBDE81040FFF7C6BFE9
:1022000010B504460A200EF085FC20460EF08DFC29
:102210000EF079FC04460EF04DFC204610BD10B5C2
:1022200004464A200EF076FCE0B20EF07EFCC4F3C9
:1022300007200EF07AFCC4F307400EF076FC002075
:102240000EF073FC0EF036FCBDE8104008F002B84A
:102250002DE9F04115000F46804601D0002028707E
:102260004C200EF057FC38460EF05FFC0EF022FCBE
:1022700007F0F0FF0646142823D127200EF04AFC71
:102280000EF041FC0EF03FFC04460EF03CFC0EF05C
:102290003AFC0EF038FCFFF779FF014684B1224684
:1022A0004046FFF7A3FE064614280AD108EB44284F
:1022B00015B1287820442870381B10F0FF07CFD1C3
:1022C0003046BDE8F08110B50C460EF023FC2046E8
:1022D0000EF02BFC0EF0EEFBBDE8104007F0BABF8D
:1022E00010B50EF017FC0EF0E5FBBDE8104007F04E
:1022F000B1BF0000014600E0491C0A78002AFBD16A
:1023000006E000BF11F8012D5C2A03D02F2A01D06E
:102310008142F7D1814200D0491C081AC0B27047EF
:1023200070B5054601200EF0F5FB0EF0ECFB4328DE
:1023300028D22B20FFF764FF102823D22F200EF085
:10234000E9FB00200EF0F1FB3220FFF7C9FF142853
:1023500018D1CF20FFF754FF040013D04C20FFF713
:1023600043FF00EB04214C2000F051F85020FFF710
:102370003BFF00EB0421502000F049F800217020C1
:1023800000F045F82F200EF0C5FB2C7806E000BFCA
:1023900015F8014F5C2C0AD02F2C08D020460EF0E7
:1023A000C4FB002CF4D1BDE870400EF083BB0020CC
:1023B0000EF0BBFBF7E770B505460C462C200EF07F
:1023C000A9FB20460EF0B1FB3CB128780EF0ADFB26
:1023D0006D1C641E14F0FF04F7D1BDE870400EF0D0
:1023E00069BB70B505462D200EF094FB0EF08BFBFB
:1023F0000400264607D028780EF097FB6D1C641E5B
:1024000014F0FF04F7D10EF055FB304670BD70B5E7
:1024100005460C460D200EF07DFB28460EF085FB90
:10242000E0B20EF082FBC4F307200EF07EFBC4F393
:1024300007400EF07AFB200E0EF077FBBDE87040EF
:102440000EF038BB012009F0DDBA10B502F0B6FB82
:1024500005F004FFBDE81040FFF7F4BF10B50446D7
:102460000121502009F05AFBC8B1002009F0EEFA12
:102470002070002009F0EAFA6070002009F0E6FA06
:10248000A070012009F0E2FAE07009F081FB002160
:10249000502009F043FB09F07BFB012010BD09F03F
:1024A00077FB002010BDF8B50D46064609F0C0FACE
:1024B0006846FFF7D3FF040011D09DF801009DF896
:1024C000001000EB0120C0F30D0030809DF80300E8
:1024D0009DF8021000EB0120C0F38D00288009F068
:1024E000AFFA2046F8BD000030B50E480E4C002370
:1024F0000078042234F81010401CC0B20D460528A4
:1025000000D3002034F810104D1BADB2521E2B44E6
:1025100012F0FF02F0D1C3F38F004FF4FA71484379
:1025200030BD0000000000206403002010B5044608
:1025300012490EF03FFE12490EF086FC21460EF0C5
:1025400039FE10490EF080FC21460EF033FE0E4994
:102550000EF07AFC21460EF02DFE0C490EF074FCB4
:1025600021460EF027FE0A490EF06EFC21460EF0C1
:1025700021FEBDE8104007490EF066BC92EBD72C57
:10258000EEC70B310DBDA2343E5ADE37774BBB3A56
:1025900045B8353D145C1C3F2DE9F04706461A4FFF
:1025A0000898984691468A46002540B10AF096F868
:1025B00004461649884504DA3046BDE8F0873C46B3
:1025C000F7E7134890F82C0018B15046FFF7AEFF1C
:1025D0000546494640460EF037FC29460EF070FF8E
:1025E00021460EF0E7FD0446394650460EF02CFC1D
:1025F00008490EF0DFFD31460EF0DCFD2146BDE856
:10260000F0470EF095BC0000339388436F12833A75
:10261000CC6C002066A6CA422DE9F0411F469046C8
:102620000C4606460AF05AF805460F4920460EF0B9
:102630000BFC0E490EF0BEFD0446414638460EF036
:1026400003FC29460EF0B6FD21460EF071FC314622
:102650000EF0B0FD0649884202DA0020BDE8F081A4
:10266000BDE8F0410DF0E8BE3393884366A6CA4248
:102670006F12833A2DE9FF4F87B090460F461D46F3
:10268000182221496846FEF7F6F80026012440F298
:10269000013B40F2035941F60C0A00BF09F08CFAE5
:1026A000684602F033FD58F8251018A35A4640F248
:1026B000191006F023FB37F8151000234A46504640
:1026C00006F042FB00222146684602F04BFD04461C
:1026D000012807D0022C0ED0002CDFD10BB03046E1
:1026E000BDE8F08F2B4642463946079800F010F8B7
:1026F00007E00126D2E707EB45014A46504601F0C4
:1027000093FE0028CAD0F4E798EB01084C2F6D0027
:102710002DE9FF4F8DB0002004908F481F460E46D4
:10272000848831F8175008880A90B1F802B0B1F8DF
:1027300004A0B1F806904FF0010852F8270087492D
:102740000EF038FD4FF07C510EF07EFB0EF0B2FC27
:1027500081490D9A01EB42010691888101210D9872
:1027600004F07AFB09F028FA7DA1002002F0A6FC13
:10277000F580B580758035800D9809F0C3FF039012
:102780007AA1002002F09AFC002340F2035229466D
:10279000192006F0D9FA78A14FF4406002F08EFCBF
:1027A00077A340F2036240F60C40039906F0A6FAC4
:1027B00074A14FF4C05002F081FC0D9804F03EFB70
:1027C000014641F60C0006F0EFFA642009F0EEFF36
:1027D0000028D1D009F032FE112856D008DC01289B
:1027E0001AD0042878D0092877D0102813D106E011
:1027F000212873D0402808D041280CD162E042F251
:102800000F70854205D26D1C02E0632D01D96D1E4B
:10281000ADB20120049089E0069864215B4A80896A
:10282000484303210590880202F046FC40F203620F
:1028300005A940F60C4001F005FE00B3012004900C
:1028400005980EF06FFC0290642D19D3039810F0D8
:10285000FF4F17D028460EF065FC05460698808984
:102860000EF060FC29460EF063FB014602980EF064
:102870005FFB47490EF05CFB0EF01CFC85B201E0EB
:102880004FF47A7509F098F950E040F698008442C8
:1028900001D2641CA4B2642111200CF089FD50B156
:1028A00038E0641CA4B220460EF03CFC39490EF01E
:1028B00081FC01F0C1FA012111200CF079FD002802
:1028C000EFD027E0C82C01D9641EA4B264214120B6
:1028D0000CF06EFD68B11DE02CE011E016E0641E06
:1028E000A4B220460EF01EFC2A490EF063FC01F053
:1028F000A3FA012141200CF05BFD0028EFD009E094
:1029000040F29E70844205D2643402E0DC2C01D98E
:10291000143CA4B220460EF005FC1E490EF04AFC01
:1029200001F08AFA0C48848001F0B4F8B8F1000F85
:102930007FF41EAF00210D9804F08EFA0A983080C3
:10294000A6F802B0A6F804A0A6F8069026F817503C
:10295000049811B0BDE8F08FCC6C0020000020413D
:10296000B5F7CAD4C1F7C1BF00000000C1F7C1BFAD
:10297000B1B6C2CA3A000000C1F7C1BF3A000000B8
:102980004C2F6D00CAE4B3F63A00000004E20108DF
:102990000000C8420AD7233C2DE9F04F8FB0814692
:1029A0002022454902A8FDF766FF4449444801EB4F
:1029B000C906494600EB41000D9001243C36808950
:1029C0004FF0000A40F20355B9F1010F05D0B9F1FB
:1029D000020F02D040F2015B08E000EBC00101EB06
:1029E00000104FF6FF71AB4601EA8000ADF8000021
:1029F00040F60C0741F60C0809F0DEF802A802F0D8
:102A000085FB494640F2151006F0BCFB2DA35A4643
:102A1000BDF80010384606F097F9318800232A46A1
:102A2000404606F091F90022214602A802F09AFBE6
:102A300004000FD0012C24D0022C33D0032CE5D17C
:102A40002A463146404601F0EFFC0028DED04FF028
:102A5000010ADBE7BAF1000F0AD023211AA003F024
:102A6000B3F8062807D0072808D00124002CC3D1CA
:102A70000FB0BDE8F08F00F097FAF9E700F02AFAFE
:102A8000F4E75A466946384601F0CEFC0028BDD02E
:102A9000BDF800106420B1FBF0F10D98818100F0C9
:102AA000F9FFB3E73146484600F016F80028A3D0F6
:102AB0004FF0010AA0E7000078EB0108586C0020F5
:102AC000CC6C00204C2F6D00B1A3B4E6B1EAB6A8DF
:102AD000CAFDBEDD203F00002DE9FF5F80460020DB
:102AE00007460390B8480D4640F2035684880020FC
:102AF0008346019002905FEA080005D0012855D076
:102B0000B8F1020F04D151E040F2015BAFA0029096
:102B100009F052F80121404604F09EF9AA4901EB60
:102B2000480A404609F0EEFD8146B8F1000F3FD05B
:102B30004E46A7A1002002F0C1FA2988002340F2E6
:102B40000352192006F000F9A4A14FF4406002F0EE
:102B5000B5FA5A46494640F60C40029B06F0CEF8BC
:102B6000A0A14FF4C05002F0A9FA404604F066F963
:102B7000014641F60C0006F017F9642009F016FE34
:102B80000028CED009F05AFC112877D040DC01286B
:102B900056D0042873D0092872D01028C1D12888B3
:102BA00042F20F71884249D2401C46E0B346ADE77D
:102BB00009F056FC064609F05DFD0146002002467C
:102BC000009033464846FFF7E7FC064680A1002008
:102BD00002F074FA2988002340F20352192006F00B
:102BE000B3F882A14FF4006002F068FA5A46314609
:102BF00040F60C00029B06F081F878A14FF480505B
:102C000002F05CFA5A46494641F20C00029BA5E7E5
:102C100021287DD040280CD0412882D1C82C01D950
:102C2000641EA4B2642141200CF0C2FB002870D0C5
:102C3000B3E02888632801D9401E2880012770E767
:102C4000B8F1000F1DD0BAF80C00642148430321ED
:102C50000190684A880202F02FFA5A4601A940F60C
:102C60000C4001F0EFFB0028E9D0012701980EF09D
:102C700059FA81462888642838D234E051E09BE034
:102C800081E051485B4A0321808901904FF4006044
:102C900002F012FA5A4601A940F60C0001F0D2FBEC
:102CA0000028CCD0012701980EF03CFA81462888F4
:102CB000642818D316F0FF4F10D00EF033FA0646F2
:102CC000414880890EF02EFA31460EF031F9014666
:102CD00048460EF02DF90EF0EDF92880404609F037
:102CE00011FD814664E74FF47A7018E016F0FF4F4B
:102CF000A5D00EF017FA0646BAF80C000EF012FA3C
:102D000031460EF015F9014648460EF011F901E082
:102D10003FE030E038490EF00BF90EF0CBF9288097
:102D2000FFE640F69800844201D2641CA4B26421FC
:102D300011200CF03DFB58B12FE0641CA4B22046DA
:102D40000EF0F0F931460EF035FA01F075F800E0BA
:102D50002A4E012111200CF02BFB0028EDD01CE0A5
:102D6000641EA4B220460EF0DDF931460EF022FAC0
:102D700001F062F800E0214E012141200CF018FB27
:102D80000028EDD009E040F29E70844205D2643400
:102D900002E0DC2C01D9143CA4B220460EF0C2F9AA
:102DA00016490EF007FA01F047F80748848000F052
:102DB00071FE03980028B3D00021404604F04CF87F
:102DC00004B03846BDE8F09FCC6C00204C2F6D005D
:102DD000C1F7C1BFB1B6C2CA3A000000B1EABFF63E
:102DE0003A000000CAE4B3F63A000000B9A4BFF606
:102DF0003A00000004E201080000C8420AD7233C60
:102E00002DE9F0472B49804601EB08002A4990F84C
:102E10002060012401EBC800002500F13C0A012ECE
:102E200016D0022E43D1254FDFF8949008F0C4FE4F
:102E3000384602F06BF900222146384602F092F93A
:102E40000446052831D2DFE800F006181E282C00C1
:102E50001A4F283FE8E7002D29D0232119A002F0BE
:102E6000B3FE062805D0072821D1BDE8F04700F0C1
:102E700031B8BDE8F04700F097B809EB061200231F
:102E800004E00125D2E709EB061201235146404632
:102E9000FFF7F0FB0028C9D0F3E709EB0612022385
:102EA000F4E709EB06120323F0E7002CBED1BDE8DE
:102EB000F0870000CC6C0020586C0020D8EB010893
:102EC00090EA0108B1A3B4E6B1EAB6A8CAFDBEDD36
:102ED000203F000010B5062231494FF4807001F008
:102EE000BCFC2F4845F6A5214FF47A7482888A42AB
:102EF00003D0E20002804480818072222949802030
:102F000001F0ABFC274845F6A422B0F870109142BE
:102F100044D046F6B321A0F86410A0F86810A0F8D9
:102F20006C10A0F86640A0F86A40A0F86E4041819D
:102F30008181C18101824182048544858485C48563
:102F400004864FF40041018041808180C18001816D
:102F50008182C182018341838183C4830484448448
:102F60008484C48444868486C48604874487848792
:102F7000A0F84440A0F84C40A0F85440A0F85640B7
:102F8000A0F85840A0F85A40A0F85C40A0F85E4075
:102F9000A0F86040A0F86240A0F8702010BD0000CA
:102FA00018020020586C002010B5062205494FF485
:102FB000807001F062FC7222BDE81040024980205E
:102FC00001F05BBC18020020586C00202DE9F04F86
:102FD0000746744800258BB084882E4608F0ECFD27
:102FE00040F20440052F0FD2DFE807F00305070980
:102FF0000B006DA106E071A104E075A102E079A1CA
:1030000000E07DA102F05AF88049DFF804A205A88B
:10301000EB4601EB47080A90B8F822102BF8151080
:103020000BEB45006D1CB8F81810EDB281820A2D2B
:1030300002D026B10A2103E000250126FAE729463D
:10304000684608F0B9FC2AF817000EB10A2100E022
:1030500029460A9808F0B0FC0AEB4709A9F81400C1
:103060000EB10A2100E02946684608F0A5FC2AF8BE
:1030700017000EB10A2100E029460A9808F09CFCCE
:10308000A9F8140063A140F6064002F017F838468C
:1030900009F06CFB014640F2026900234A4641F206
:1030A000082005F02BFE5DA140F6144002F006F862
:1030B000384609F0C1FA014600234A4641F216207B
:1030C00005F01CFE282009F071FB0028A4D009F0AF
:1030D000B5F911281FD00BDC012817D0042815D012
:1030E000092899D140F29E7084424DD264344AE05E
:1030F000212845D041288FD1C82C01D9641EA4B203
:10310000642141200CF054F980B33DE0FFF74CFFFF
:103110000BB0BDE8F08F40F69800844201D2641CE9
:10312000A4B2642111200CF043F958B12CE0641CC6
:10313000A4B220460DF0F6FF49460EF03BF800F031
:103140007BFE01E0DFF8DC90012111200CF030F96A
:103150000028ECD018E0641EA4B220460DF0E2FF77
:1031600049460EF027F800F067FE02E0FFE7DFF8BF
:10317000B490012141200CF01BF90028EBD003E0B2
:10318000DC2C01D9143CA4B220460DF0CBFF25491C
:103190000EF010F800F050FE0248848000F07AFC37
:1031A0003AE70000CC6C00203CB7DB20B3BE3E20E9
:1031B000D7D4B6AFB5F7C1E3000000003CC8D5BE18
:1031C000F9413E20D7D4B6AFB5F7C1E30000000007
:1031D0003CC8D5BEF9423E20D7D4B6AFB5F7C1E35F
:1031E000000000003CCAB1BEF9433E20D7D4B6AFC0
:1031F000B5F7C1E3000000003CCAB1BEF9443E206F
:10320000D7D4B6AFB5F7C1E300000000E2680020F4
:10321000586C0020C1F7C1BF3A000000BCC6D1B94C
:103220003A0000000AD7233C10B5044602F0B2FD74
:1032300040F60E00052C09D2DFE804F003050D0F5F
:10324000110008A100E00BA101F038FF2046BDE805
:10325000104001F047BD0BA1F6E70EA1F4E711A164
:10326000F2E70000B7DB20B3BE20D7D4B6AFB5F786
:10327000C1E30000C8D5BEF94120D7D4B6AFB5F739
:10328000C1E30000C8D5BEF94220D7D4B6AFB5F728
:10329000C1E30000CAB1BEF94320D7D4B6AFB5F739
:1032A000C1E30000CAB1BEF94420D7D4B6AFB5F728
:1032B000C1E300002DE9F14F88B018227849684633
:1032C000FDF7D9FA774808990125848876484FF4A4
:1032D000A06800EB410606F114073236002041F2E7
:1032E0000C0940F2035A41F60C0B069001E00798D6
:1032F00058B108F061FC684601F008FF40F2151073
:10330000089905F03FFF00200790398800234246C6
:10331000484605F019FD318800235246584605F00D
:1033200013FD2946684601F0E1FE60A14FF40060FC
:1033300001F0C4FE089809F07FF901465DA340F250
:10334000026240F60C0005F0D9FC192009F02EFAB3
:103350000028EAD02946684601F0C8FE09F06EF858
:10336000112849D008DC012819D004282ED00928BA
:103370007CD0102817D10CE021287DD0402802D025
:10338000412810D155E06D1CEDB2032D0BD3012562
:1033900009E0012D00D803256D1EEDB203E0012DDB
:1033A00006D0022D08D0002DAFD109B0BDE8F08FB6
:1033B00042463946484602E052463146584601F0F8
:1033C00033F80028A1D0012006909EE70698002837
:1033D000EBD0232138A002F0F7FB062802D0072803
:1033E00006D102E0FFF7E0FDDFE7FFF7DDFD002596
:1033F000002D7FF47BAFD8E740F69800844201D2DD
:10340000641CA4B2642111200BF0D2FF50B137E04C
:10341000641CA4B220460DF085FE2B490DF0CAFEB7
:1034200000F00AFD012111200BF0C2FF0028EFD0AF
:1034300026E0C82C01D9641EA4B2642141200BF0FF
:10344000B7FF50B11CE0641EA4B220460DF06AFE26
:103450001D490DF0AFFE00F0EFFC012141200BF003
:10346000A7FF0028EFD00BE000E005E040F29E70DF
:10347000844205D2643402E0DC2C01D9143CA4B2AD
:1034800020460DF04FFE10490DF094FE00F0D4FCE4
:103490000448848000F0FEFA002D7FF428AF84E712
:1034A00048EB0108CC6C0020586C0020BCC6D1B998
:1034B0003A0000006B506100B1A3B4E6B1EAB6A8CF
:1034C000CAFDBEDD203F00000AD7233C2DE9F14FA5
:1034D000774882B0012584887648029940F20267D5
:1034E00000EB410606F10A082836002041F20C0BD9
:1034F00040F2035941F60C0A009001E0019858B1DE
:1035000008F05AFB6C4801F001FE40F215100299D8
:1035100005F038FE00200190B8F8001000233A466C
:10352000584605F011FC318800234A46504605F004
:103530000BFC2946604801F0D9FD60A14FF4006002
:1035400001F0BCFD029809F097F801465DA33A46E8
:1035500040F60C0005F0D2FB192009F027F90028ED
:10356000EBD02946544801F0C1FD08F067FF11284F
:1035700049D008DC012819D004282DD009287CD096
:10358000102817D10CE021287DD0402802D04128F6
:1035900010D155E06D1CEDB2032D0BD3012509E0D0
:1035A000012D00D803256D1EEDB203E0012D05D0DD
:1035B000022D07D0002DAFD1BDE8FE8F3A4641461F
:1035C000584602E04A463146504600F02DFF00289A
:1035D000A2D0012000909FE700980028ECD0232182
:1035E00039A002F0F1FA062802D0072807D103E03B
:1035F000BDE8FE4FFFF7D8BCFFF7D6FC0025002D35
:103600007FF47BAFD8E740F69800844201D2641C77
:10361000A4B2642111200BF0CBFE50B137E0641C42
:10362000A4B220460DF07EFD2B490DF0C3FD00F045
:1036300003FC012111200BF0BBFE0028EFD026E097
:10364000C82C01D9641EA4B2642141200BF0B0FE45
:1036500050B11CE0641EA4B220460DF063FD1E496B
:103660000DF0A8FD00F0E8FB012141200BF0A0FEC9
:103670000028EFD00BE000E005E040F29E708442AD
:1036800005D2643402E0DC2C01D9143CA4B22046FB
:103690000DF048FD10490DF08DFD00F0CDFB044804
:1036A000848000F0F7F9002D7FF428AF84E7000054
:1036B000CC6C0020586C002030EB0108CEC2B6C89C
:1036C0003A000000A1E60000B1A3B4E6B1EAB6A852
:1036D000CAFDBEDD203F00000AD7233C2DE9F14F93
:1036E00088B0182278496846FDF7C5F877480899E8
:1036F0000125848876484FF4A06800EB410700203C
:1037000007F11E0641F20C0940F2035A41F60C0B78
:10371000069001E0079858B108F04EFA684601F0AB
:10372000F5FC40F21510089905F02CFD00200790DB
:10373000398800234246484605F006FB31880023BD
:103740005246584605F000FB2946684601F0CEFC7B
:1037500060A14FF4006001F0B1FC089809F006F890
:1037600001465EA340F2036240F60C0005F0C6FA83
:10377000192009F01BF80028EAD02946684601F014
:10378000B5FC08F05BFE112849D008DC012819D0EF
:1037900004282ED009287CD0102817D10CE021282D
:1037A0007DD0402802D0412810D155E06D1CEDB2EB
:1037B000032D0BD3012509E0012D00D803256D1E33
:1037C000EDB203E0012D06D0022D08D0002DAFD1BF
:1037D00009B0BDE8F08F42463946484602E05246FD
:1037E0003146584600F020FE0028A1D00120069066
:1037F0009EE706980028EBD0232139A002F0E4F9D7
:10380000062802D0072806D102E0FFF7CDFBDFE74C
:10381000FFF7CAFB0025002D7FF47BAFD8E740F609
:103820009800844201D2641CA4B2642111200BF0E0
:10383000BFFD50B137E0641CA4B220460DF072FC0D
:103840002B490DF0B7FC00F0F7FA012111200BF025
:10385000AFFD0028EFD026E0C82C01D9641EA4B229
:10386000642141200BF0A4FD50B11CE0641EA4B201
:1038700020460DF057FC1E490DF09CFC00F0DCFAD0
:10388000012141200BF094FD0028EFD00BE000E077
:1038900005E040F29E70844205D2643402E0DC2CE4
:1038A00001D9143CA4B220460DF03CFC10490DF0A7
:1038B00081FC00F0C1FA0548848000F0EBF8002D8F
:1038C0007FF428AF84E7000060EB0108CC6C002097
:1038D000586C0020B2EED1B93A0000006B50610084
:1038E000B1A3B4E6B1EAB6A8CAFDBEDD203F000030
:1038F0000AD7233C70B5402207494FF4C07000F04E
:10390000ACFF054C45F68B25E08FA84202D000F0B5
:1039100005F8E58770BD0000CC6C002030B50F4C79
:10392000207830B1012807D0022808D003280BD115
:1039300008E000F08FF807E000F072F804E000F013
:1039400055F801E000F038F8E08F45F68B25A842E5
:1039500002D000F005F8E58730BD0000CC6C0020F7
:1039600013484FF49671F0224185002180F8291008
:1039700080F82810C284012202728270C1704272E3
:1039800042F2957343814FF4FA638380322383714B
:103990000223C3714FF47A73C3850386642343867D
:1039A00080F82C100349416380F83C2070470000E8
:1039B000CC6C0020D9AB09000B4803214FF47A727C
:1039C00000F8061C00218176C280C17602220281A5
:1039D0000177428101224277052383818277C38167
:1039E000C27780F827107047D26C00200B48022263
:1039F000002300F8062C83764FF47A71C1800121F0
:103A0000C1760281017742814177052282818177E7
:103A1000C281C17780F8273070470000D26C002047
:103A20000B4801214FF47A7200F8061C8176C2809F
:103A30000022C27602230381027743814177052366
:103A400083818177C381C17780F827207047000088
:103A5000D26C002030B50E480024012100F8064C3D
:103A600081764FF47A72C280052303820225C176E3
:103A700005810A22428201774581828241778381D2
:103A8000C2828177C3810283C17780F8274030BD2D
:103A9000D26C0020402202494FF4C07000F0EDBE0D
:103AA000CC6C00202DE9F84FDFF8ECB001250026A2
:103AB0009BF82840BBF82600ADF8000040F2015703
:103AC00041F21648DFF8D49040F6164A08F074F830
:103AD0003248183001F01AFB04EB440109EB4101B4
:103AE000504601F0EBFA2EA33A46BDF800104046CE
:103AF00005F02AF9294800222946183001F032FB46
:103B0000050023D0012D1DD0022DE5D13A4669468E
:103B1000404600F089FC0028DED0BDF80000962861
:103B200004D29620ADF8000007F055FFBDF8001054
:103B30004FF49670814203D9ADF8000007F04BFFB7
:103B40000126C9E7641C04F00304F9E7002E0BD03A
:103B5000232114A002F038F802281AD0062805D034
:103B6000072801D1FFF7C6FEBDE8F88F0BF1260547
:103B7000AC70BDF80000ABF82600FFF78BFF28887B
:103B80000DF0D0FA0B490DF015FBA9780CF03CFABA
:103B9000EAE701259AE70000CC6C002044ED01081B
:103BA000A1E60000B1A3B4E6C5E4D6C3CAFDBEDDFC
:103BB000203F0000CDCCCC3D2DE9F84F404E0125F3
:103BC000002796F82940708DADF8000040F2015AA8
:103BD0004FF4AF78DFF8EC9040F6194B07F0ECFFAC
:103BE00034B13848BC3001F091FA012C05D00CE01A
:103BF0003448D43001F08AFA07E033A35246BDF8C6
:103C0000001040F6144005F09FF859F8241058466B
:103C100001F054FA4FF00002294634B32948BC3071
:103C200001F0A0FA050028D0012D21D0022DDCD111
:103C3000012CD3D15246694641F6140000F0F4FB42
:103C40000028CBD0BDF80000962804D29620ADF80D
:103C5000000007F0C0FEBDF80010414503D9ADF8E3
:103C6000008007F0B8FE0127B8E71648D430D7E740
:103C70000CB10024F7E70124F5E7002F0BD0232136
:103C800012A001F0A1FF022817D0062805D00728AE
:103C900001D1FFF72FFEBDE8F88FBDF80000708559
:103CA00086F82940FFF7F6FE708D0DF03BFA0B49C0
:103CB0000DF080FA0CF0BCF9EDE701258EE700006D
:103CC000CC6C0020B8EC0108A1E60000B1A3B4E67A
:103CD000C5E4D6C3CAFDBEDD203F0000CDCCCC3D3F
:103CE0002DE9F05F00252F4F2F4C2E4640F60B0A92
:103CF000A7F1100840F60B7BA94600BF07F05CFF58
:103D00002848643001F002FA607857F820105046D5
:103D100001F0D4F9207858F82010584601F0CEF977
:103D2000204800222946643001F01CFA050021D009
:103D3000012D08D0022D11D0032DDFD1FFF7EEFDAC
:103D400002F08CFEDAE707F037FF6078401CC0B263
:103D5000607006280CD384F8019009E007F02CFF6E
:103D60002078401CC0B22070042801D384F8009051
:103D70000126C3E78EB123210CA001F025FF062800
:103D800003D0072809D00125B8E7FFF7C7FDFFF7E3
:103D900081FEBDE8F05F04F0E9BCBDE8F05FFFF72D
:103DA000A9BD00001CE90108CC6C0020B1A3B4E659
:103DB000D0DEB8C4BDE1B9FB3F0000002DE9FF5FD4
:103DC00000249B4691468A46264625463AF814002A
:103DD0000DF0A8F917490DF0EDF9B04659F8246037
:103DE00001462F4630460DF0A3F8054601460098DF
:103DF0000DF0ACFA03D2641CE4B25C45E6D339465C
:103E000028460DF05DFB0446414630460DF058FB58
:103E100021460DF08DF80446394600980DF050FB10
:103E200021460DF0C7F904B04146BDE8F05F0DF042
:103E30000BB800006F12833A0149486070470000D8
:103E40002800002001490870FDF7F6BE2800002078
:103E50000A4980B1012806D0022807D0032808D0DB
:103E60004FF0FF3007E043F6982004E047F230506F
:103E700001E04EF660204860704700000800002016
:103E800003F0FCBEC0B2202800D27F20024901EB23
:103E90000010A0F500707047AA160108C0B22028D3
:103EA00000D27F20034900EB400001EB0010A0F599
:103EB000C06070478480010800487047AA1C010850
:103EC00070B5C0B2114D60F31F2101234FF4AC72E5
:103ED0009818400805EB400415F81060647804EB6E
:103EE0000624A4B2A14205D1094900EBC00001EBB0
:103EF000C00070BD03D900F1010083B202E0A0F15F
:103F0000010082B29342E3D9014870BDCA1C010886
:103F10007C1F010870B50C46064615460021A020FE
:103F200007F0FCFD60B1300A07F0C6FD40B1F0B209
:103F300007F0C2FD20B10121A02007F0EFFD48B934
:103F400007F026FE002070BD002007F07FFDC04373
:103F500004F8010B6D1E15F0FF05F5D1012007F0E7
:103F600075FDC043207007F013FE012070BD0000F6
:103F700070B50C46064615460021A02007F0CEFD80
:103F800008B3300A07F098FDE8B1F0B207F094FDED
:103F9000C8B100BF14F8010BC043C0B207F08CFDDC
:103FA00088B16D1E15F0FF05F4D107F0F1FDA025D5
:103FB0004FF4C8740021284607F0B0FD30B107F077
:103FC000E7FD012070BD07F0E3FD03E0641E24045B
:103FD000240CEFD1002070BD10B500F0A3FF10BD80
:103FE000034901200870034940030860704700003E
:103FF000380000201404014010B500F093FF10BDFC
:1040000010B500F08FFF10BD10B500F08BFF10BD94
:1040100010B500F087FF10BD10B500F083FF10BD94
:104020002DE9F34FDFF808928B4691B00126B9F8DD
:10403000044001A95846FCF76BFD0698DFF8F4A18F
:1040400000F26C7085B20598401C00F0FF080498DF
:10405000C7B243462A4678A10CA80097FCF7B8F9E6
:104060000CA9119801F02AF8012E04D0022E06D0D6
:10407000032E09D118E0744A0421119802E0119826
:104080000A3013E001F018F808F0D8F911286AD0C6
:1040900024DC082869D00DDC012873D00428D8D18D
:1040A000002013B0BDE8F08F1198103080B2664A3E
:1040B0000221E7E7092873D01028CAD1012E1FD0AA
:1040C000022E26D0032EC4D14146284607F076FDA5
:1040D0007F1CFFB2B842BCD20127BAE720284AD0E1
:1040E00021287BD040281DD04128B2D1C82C01D92D
:1040F000641EA4B2642141200BF05AF990B389E008
:104100006D1CADB240F633008542A2D94FF4FA657A
:104110009FE708F1010000F0FF08B8F10C0F98D9F3
:1041200001201DE0012E0DD0022E13D0032E90D1C0
:104130007F1E17F0FF078CD14146284607F03EFD51
:10414000074686E76D1EADB2B5F5FA6F81D240F62F
:1041500033057EE7A8F1010010F0FF08BDD10C2067
:10416000804676E745E01CE0FFE7761CF6B2032EBA
:10417000B3D901266DE7761E16F0FF06ADD10326F2
:1041800067E7FFE7A5F26C75A8F101000497CDE998
:10419000050501A8FCF705FCCBF80000012080E72D
:1041A0002EE040F69800844201D2641CA4B264213F
:1041B00011200BF0FDF850B12CE0641CA4B2204695
:1041C0000CF0B0FF51460CF0F5FFFFF735FE012172
:1041D00011200BF0EDF80028EFD01BE016E0641E74
:1041E000A4B220460CF09EFF51460CF0E3FFFFF70F
:1041F00023FE012141200BF0DBF80028EFD009E07D
:1042000040F29E70844205D2643402E0DC2C01D975
:10421000143CA4B220460CF085FF51460CF0CAFFB6
:10422000FFF70AFEA9F80440FFF734FC11E700008D
:10423000CC6C00200AD7233C253034752D25303234
:10424000752D25303275000004E201082DE9F04F8C
:104250006E4F884691B08346BC88012501A940462F
:10426000FCF756FC6A4E4FF0180A4FF03C090198D3
:10427000DDE90232009067A10CA8FCF7A9F80CA9AF
:10428000584600F01BFF012D04D0022D06D0032D4F
:1042900009D118E0634A0221584602E00BF10600FA
:1042A00013E000F009FF08F0C9F8112868D01DDC00
:1042B000082851D00DDC01285BD00428D7D100207C
:1042C00011B0BDE8F08F0BF10C0080B2554A02210D
:1042D000E7E7092871D01028C9D1012D18D0022D87
:1042E00019D0032DC3D10198401C1FE0202839D0DC
:1042F00021287BD0402811D04128B8D1C82C01D921
:10430000641EA4B2642141200BF052F880B371E026
:104310000398401C12E00298401C17E0012D0BD0BE
:10432000022D11D0032DA2D101983B30B0FBF9F240
:1043300009FB120001909AE703981730B0FBFAF2DC
:104340000AFB1200039092E702983B30B0FBF9F2AF
:1043500009FB120002908AE76D1CEDB2032D86D98D
:10436000012584E76D1E15F0FF0580D103257EE74A
:104370002EE001A8FCF715FBC8F8000001209FE71C
:1043800040F69800844201D2641CA4B2642111203A
:104390000BF00EF850B12DE0641CA4B220460CF0D6
:1043A000C1FE31460CF006FFFFF746FD012111204A
:1043B0000AF0FEFF0028EFD01CE011E0641EA4B25A
:1043C00020460CF0AFFE31460CF0F4FEFFF734FD52
:1043D000012141200AF0ECFF0028EFD00AE005E0BF
:1043E00040F29E70844205D2643402E0DC2C01D994
:1043F000143CA4B220460CF095FE31460CF0DAFED7
:10440000FFF71AFDBC80FFF745FB30E7CC6C0020BE
:104410000AD7233C253032753A253032753A25309B
:104420003275000004E2010838B50C460988009195
:10443000694600F007F8002802D00098208001208B
:1044400038BD00002DE9F74F90B000251198904637
:1044500012F0FF070168724884884FEA12208146F3
:1044600001D0A9F10100C6B26E48A6EB070A50F8C8
:104470002600B1FBF0F200FB121B58460CF052FE76
:104480006849283151F827100CF052FD0CF0B0FCAF
:10449000CDE9000108F0FF034A4663A10AA8FBF733
:1044A00097FF0AA9109800F009FE1098AA4500EBA2
:1044B000450000DC801C80B25D4A012100F0FCFD5B
:1044C000681C0090864206D35648711B00EB8100A1
:1044D00050F8040C00E00120019007F0AFFF112814
:1044E00057D01CDC082843D007DC01284CD0042816
:1044F000C3D1002013B0BDE8F08F092879D010286F
:10450000BBD101990A20BBFBF1F1B1FBF0F200FB3A
:104510001210092815D001990BEB010020E020288A
:104520002AD021286BD040280ED04128A5D1C82CF4
:1045300001D9641EA4B2642141200AF039FFA0B35E
:1045400061E0019840420EE001990A20BBFBF1F1C5
:10455000B1FBF0F200FB121020B10199ABEB0100AE
:1045600083468AE7019800EBC00101EB0B00F7E7F7
:104570000098B0FBF6F103E0A819401E90FBF6F19D
:1045800006FB1100C5B278E711990120C1F800B00F
:10459000B0E740F69800844201D2641CA4B26421C2
:1045A00011200AF005FF58B12DE01AE0641CA4B2F6
:1045B00020460CF0B7FD1F490CF0FCFDFFF73CFC5A
:1045C000012111200AF0F4FE0028EFD01BE0641E48
:1045D000A4B220460CF0A6FD16490CF0EBFDFFF747
:1045E0002BFC012141200AF0E3FE0028EFD00AE075
:1045F000FFE740F29E70844205D2643402E0DC2C76
:1046000001D9143CA4B220460CF08CFD09490CF0F1
:10461000D1FDFFF711FC02488480FFF73BFA2CE73D
:10462000CC6C002084E7010825302A2E2A66000081
:1046300004E201080AD7233C2DE9F35F0A88894682
:104640004FF03C0BB2FBFBF16423B1FBF3F4DFF85A
:10465000FCA103FB14160BFB1125BAF804404FF024
:1046600000080127C6EB061005EB8001009804F056
:10467000B5FD012F06D0022F08D0032F18D0042F2C
:1046800009D118E0724A0121009802E00098801CCC
:1046900013E000F011FD07F0D1FE11287FD015DCEA
:1046A000082861D00DDC01286CD004285BD172E0B1
:1046B0000098801D01E00098083080B2644A012112
:1046C000E7E7092877D010284DD108E0202851D0FD
:1046D000212871D0402813D0412844D17EE0012FF9
:1046E00006D0022F06D0032F06D0042F3BD105E0C1
:1046F0000A360FE0711C15E00A3521E0691C26E03E
:10470000012F06D0022F0BD0032F18D0042F2AD14F
:104710001BE05A366420B6FBF0F100FB1166A1E7FE
:1047200006F109010A20B1FBF0F200FB1211B6FB01
:10473000F0F000EB800001EB4000C6B292E73235AA
:10474000B5FBFBF10BFB11558CE705F109010A20C4
:10475000B1FBF0F200FB1211B5FBF0F000EB8000B2
:1047600001EB4000C5B26AE07F1CFFB2042F66D99E
:10477000012764E07F1E17F0FF0760D104275EE089
:104780000DE0FFE7C6EB061005EB8001A9F800106D
:104790004FF0010856E04FF0000847464FE040F662
:1047A0009800844201D2641CA4B2642111200AF052
:1047B000FFFD60B137E02CE031E0641CA4B220467C
:1047C0000CF0B0FC23490CF0F5FCFFF735FB0121A0
:1047D00011200AF0EDFD0028EFD024E0C82C01D90B
:1047E000641EA4B2642141200AF0E2FD50B11AE037
:1047F000641EA4B220460CF095FC16490CF0DAFCBD
:10480000FFF71AFB012141200AF0D2FD0028EFD06A
:1048100009E040F29E70844205D2643402E0DC2C50
:1048200001D9143CA4B220460CF07CFC09490CF0E0
:10483000C1FCFFF701FBAAF80440FFF72BF9002F9A
:104840007FF46DAF4046BDE8FC9F0000CC6C0020BB
:1048500004E201080AD7233C704770B514460D46A0
:10486000064607F0E5F8E2B229463046FFF752FB6C
:10487000044607F0E5F8204670BD70B514460D46B5
:10488000064607F0D5F8E2B229463046FFF770FB3E
:10489000044607F0D5F8204670BD000070B50BA0A7
:1048A000FDF75AFA0C4D0024102255F824000B494C
:1048B000FDF774FA55F8240040221021FDF7C2F9E3
:1048C000641CE4B2052CEFD370BD00005C53414D75
:1048D000504C45520000000070E401084E010020D9
:1048E00010B51446064A01EB8101C90052F82000B8
:1048F0002423224603F0CCF8002800D1206010BD0C
:1049000070E4010870B50D460446164664210A4855
:10491000FBF7E3FF242231460748FBF767FF05EB6F
:104920008500C10005482823034A50F82400BDE84B
:10493000704003F0AFB800002068002070E4010868
:1049400070B58CB00D460446302226496846FBF708
:1049500092FF25492846FCF7DBF8234822492C30F2
:10496000C368CA6893423BD04B6903F26C734361DE
:104970000969491CC0E9032161696422481E90FB52
:10498000F2F3C51700EB9575C3EBA503950090FBFB
:10499000F5F633448E070ED191FBF2F602FB1612A8
:1049A00022B991FBF5F205FB121121B92169022907
:1049B00001DD012100E0002122696D4605EB820244
:1049C000E56852F8042C2A4440F26D1500FB0530CE
:1049D00010440844072190FBF1F201FB1200A06192
:1049E0000CB070BDD4E70108406B00202DE9FC5FDE
:1049F0000026354607F0E0F8564800F087FB01F046
:104A000063F9554C40F6184B04F108000190801CE6
:104A100041F2180A41F218394FF4407741F2186810
:104A20000090218800233A464FF4C36004F08CF9CB
:104A3000A18800233A4640F6181004F085F9218930
:104A400000233A46584604F07FF9618800233A462D
:104A5000504604F079F9E18800233A46484604F0CC
:104A600073F9618900233A46404604F06DF96D1CE4
:104A7000E9B20022374800F075FB0546072822D22C
:104A8000DFE800F02104090E12161A003A463249F6
:104A90004FF4C36013E03A46211D40F618100EE0B3
:104AA0003A46584601990AE03A46A11C504606E0AB
:104AB0003A46A11D484602E03A4640460099FFF7B3
:104AC000B3FC0126ADE7002DABD1002E3FD0012273
:104AD000214B49F64141104607F0DCFA642007F00B
:104AE000BFF80122231D49F64241104607F0D2FAD1
:104AF000642007F0B5F8012249F643411046019BB6
:104B000007F0C8FA642007F0ABF80122A31C49F6AD
:104B10004B41104607F0BEFA642007F0A1F80122CD
:104B2000A31D49F64C41104607F0B4FA642007F083
:104B300097F8012249F64D411046009B07F0AAFA6A
:104B4000642007F08DF8BDE8FC5F01F0C5B8BDE852
:104B5000FC9F0000B0E401081C69002070B5154CF2
:104B6000154E204694F8251090F82850C08C012945
:104B700015D0022909D003291BD10CF0D3FA3146F4
:104B80000CF018FB29460BF03FFA608D0CF0CAFAC6
:104B900031460CF00FFBBDE870400BF049BA0CF049
:104BA000C1FA31460CF006FB2946BDE870400BF017
:104BB0002BBA70BDCC6C0020CDCCCC3D11488169A6
:104BC00041F0010181611049202048610F480168CE
:104BD00021F400510160001F016821F45C41016073
:104BE0000A49091D0A680A60091D0A6842F4005250
:104BF0000A60064A411410321160016841F4005104
:104C000001607047001002400000014004040140B0
:104C100008B50020009001F0BDF808A140F616206C
:104C200000F04CFA4FF4C062694641F21620FFF7DB
:104C300009FC002800D0009808BD0000CAE4C8EBB9
:104C4000C3DCC2EB3A0000002DE9F041012440F63C
:104C500008064FF4C068194D40F60C6706F0ACFF2B
:104C6000174800F053FA00222146154800F07AFA5E
:104C70000446012807D0022C08D0032C1AD0002C9F
:104C8000ECD1BDE8F08109F0C3FFE7E706F094FF3F
:104C90000CA1304600F012FA424629463846FFF78A
:104CA000D1FB0028DAD000210AA000F08DFFFEF72A
:104CB000F1FED3E708F092FDD0E70000006D002080
:104CC000D8EC0108C7EBCAE4C8EBD0C2C3DCC2EB26
:104CD0003A000000C3DCC2EBD0DEB8C4B3C9B9A649
:104CE000210000002DE9F04F074669488BB0694963
:104CF00084880025DFF8A0A105A82E46EB4601EB2D
:104D000047080A90B8F822102BF815100BEB450055
:104D10006D1CB8F81810EDB281820A2D02D026B1B0
:104D20000A2103E000250126FAE72946684606F035
:104D300043FE2AF817000EB10A2100E029460A981E
:104D400006F03AFE0AEB4709A9F814000EB10A2151
:104D500000E02946684606F02FFE2AF817000EB13B
:104D60000A2100E029460A9806F026FEA9F8140058
:104D70004AA140F60F7000F0A1F9384607F0F6FCA2
:104D8000014640F2026900234A4641F20E5003F008
:104D9000B5FF44A140F61C7000F090F9384607F0CA
:104DA0004BFC014600234A4641F21B5003F0A6FF8C
:104DB000282007F0FBFC0028A4D007F03FFB1128B7
:104DC0001FD00BDC012817D0042815D0092899D151
:104DD00040F29E7084424DD264344AE0212845D08E
:104DE00041288FD1C82C01D9641EA4B2642141206E
:104DF0000AF0DEFA80B33DE0FEF7D6F80BB0BDE86E
:104E0000F08F40F69800844201D2641CA4B2642161
:104E100011200AF0CDFA58B12CE0641CA4B220464F
:104E20000CF080F949460CF0C5F9FFF705F801E0F0
:104E3000DFF87890012111200AF0BAFA0028ECD0AE
:104E400018E0641EA4B220460CF06CF949460CF040
:104E5000B1F9FEF7F1FF02E0FFE7DFF85090012122
:104E600041200AF0A5FA0028EBD003E0DC2C01D9A0
:104E7000143CA4B220460CF055F90C490CF09AF9F8
:104E8000FEF7DAFF02488480FEF704FE3AE70000EE
:104E9000CC6C0020E2680020586C0020C1F7C1BF34
:104EA0003A000000BCC6D1B93A0000000AD7233C42
:104EB0000449FF2008600348143801686FF30901B2
:104EC00001607047140401401348816941F00101F9
:104ED00081611248012181600021C1601048016890
:104EE0006FF309010160001F016821F44071016046
:104EF0000B49091D0A6842F0FF020A60091D0A6891
:104F000042F0FF020A60064AFF2110321160016878
:104F100041F0FD01016070470010024000000140B7
:104F20000404014010B5FFF7C3FF0348C068BDE8A3
:104F300010400AF0ADB900000800002010B50021B3
:104F400008480AF08DF9084C0021E0600548001D72
:104F50000AF086F9A06003480021BDE8104008303F
:104F60000AF0C0B990160108080000200F488169B6
:104F700041F004018161816941F0080181610C49BE
:104F8000FC2008600B4903200860094810380168BC
:104F9000094AC9B21143016006481038016821F07E
:104FA0000F0141F00801016070470000001002404D
:104FB00010080140100C01400088888806480068ED
:104FC0000649C0F38500096801F0010140EA81113A
:104FD0007F2088437047000008080140080C01400A
:104FE0002DE9F041274805682748854200DD054640
:104FF0002648008905F0F6F9254C0146E068A061D5
:10500000804628460CF05CFA05462249E0600CF028
:10501000D1F807462061204928460CF0CBF861689A
:105020000BF012FF06466060414628460CF048FA35
:105030001A490CF0BFF805466061314638460BF05E
:1050400003FF29460BF000FF15490CF0B3F80546A5
:105050001449A0680CF0AEF829460BF0F5FE124991
:10506000A060884202DC1149884200DAA160104940
:10507000A0680CF09FF80CF01DF8BDE8F04180B27C
:1050800000F080BE2C0000200000B041D468002059
:10509000900000204260E53B8FC2753CA69B443BDC
:1050A0006666663FCDCCCC3D83C02A3F0AD7A33C81
:1050B0000000D84604F08ABA02F03ABF03F032B8D2
:1050C00008498A6942F010028A6108B1891501E035
:1050D0004FF0807104480161416821F00F01C91C43
:1050E00041607047001002400010014070B50C464E
:1050F00000EBC40605467068FBF702FBC1B235F849
:1051000034007268BDE87040FFF7D6BF70B5018803
:105110000546080ACEB201D07043C6B2696819B11B
:105120004FF48170FFF7CAFF4FF424740C4A40F229
:105130000251204605F08BF8094A40F214512046EE
:1051400005F085F8012408E005EBC400416835F856
:105150003400FFF7B3FF641CE4B2B442F4D970BD6D
:10516000C4DF010800F03AB930B41C4613462246A9
:1051700030BC00F005BA30B41C461346224630BCA1
:1051800000F0E8BA30B41C461346224630BC00F0AA
:1051900001B800002DE9FF5F06460C4685483188BE
:1051A000904685884FF0000B080ACFB232D0784382
:1051B00000F0FF0A0CB1544500D9012406EBC409E4
:1051C000D9F80400FBF79CFAC1B236F83400D9F8DC
:1051D0000420FFF771FF00BF5FEA080000D080479E
:1051E000322007F0E3FA0028F6D036F83400D9F878
:1051F0000410FFF763FF07F021F9102847D00BDCFC
:105200000A28DBD2DFE800F005575B05D005A905C9
:105210002292D3E7BA46CDE7212872D008DC1128C4
:105220004FD02028CAD1039850EA0B003CD032E07E
:10523000402823D04128C1D1C82D01D96D1EADB25F
:10524000642141200AF0B4F8A0B379E0039850EA51
:105250000B0017D003E000BFA4EB0A000CE0B4FB86
:10526000F7F007FB104008B9E01BC4B2641CE4B2BD
:10527000A4E7E01B00E0E019C4B29FE7039830EA1E
:105280000B00ECD1E019C4B2544597D9E4E7039878
:1052900030EA0B0008D0641EE4B2B4FBF7F007FB61
:1052A000104000288AD1E6E7BC42E2D804EB0A00AD
:1052B000C4B2DEE731E0204604B0BDE8F09FFF2035
:1052C000FAE740F69800854201D26D1CADB2642128
:1052D00011200AF06DF858B132E06D1CADB22846CD
:1052E0000BF020FF49460BF065FFFEF7A5FD01E03E
:1052F000DFF8C490012111200AF05AF80028ECD000
:105300001EE019E06D1EADB228460BF00BFF4946BA
:105310000BF050FFFEF790FD01E0DFF89C900121BB
:1053200041200AF045F80028ECD009E040F29E70D8
:10533000854205D2643502E0DC2D01D9143DADB2C1
:1053400028460BF0EFFE1C490BF034FFFEF774FD0E
:1053500018488580FEF79EFB30E7C82106200AF03A
:1053600027F8002884D106F036FB642006F078FC8C
:1053700006F031FB06F020FC10A14FF4C160FFF7EE
:105380009DFEFEF7B7FA0B494FF4E062383140F664
:105390000C40FFF757F838B104210CA000F014FCC2
:1053A000062803D0FEF7A6FA002085E7FEF772FB79
:1053B000FAE70000CC6C00200AD7233CC7EBCAE414
:1053C000C8EBB3F6B3A7B1E0BAC53A00CAC7B7F1A4
:1053D000B1A3B4E6B1E0BAC53F0000002DE9F05F2B
:1053E0000C46DFF894B101880646BBF8045090469D
:1053F000080ACFB232D0784300F0FF0A0CB154450E
:1054000000D9012406EBC409D9F80400FBF778F9A8
:10541000C1B236F83400D9F80420FFF74DFE00BFC2
:105420005FEA080000D08047322007F0BFF900286B
:10543000F6D036F83400D9F80410FFF73FFE06F036
:10544000FDFF10283DD00BDC0A28DBD2DFE800F09E
:105450000540450543050505277DD3E7BA46CDE759
:10546000212878D00DDC112839D02028CAD1641E1B
:10547000E4B2B4FBF7F007FB10400028C2D1E019FA
:105480001DE0402815D04128BCD1C82D01D96D1E82
:10549000ADB26421412009F08BFFB8B35FE0B4FBEB
:1054A000F7F007FB104008B9E01BC4B2641CE4B27B
:1054B000A8E7E019C4B25445A4D9A4EB0A00C4B2C9
:1054C000A0E7BC4202D804EB0A00C4B2E01BF6E736
:1054D0002046BDE8F09F0020FBE7FF20F9E740F6FB
:1054E0009800854201D26D1CADB26421112009F0F3
:1054F0005FFF60B133E06D1CADB228460BF012FEC9
:1055000049460BF057FEFEF797FC02E013E0DFF888
:105510006C900121112009F04BFF0028EBD01EE018
:105520006D1EADB228460BF0FDFD49460BF042FE64
:10553000FEF782FC01E0DFF844900121412009F0F0
:1055400037FF0028ECD00AE005E040F29E7085426B
:1055500005D2643502E0DC2D01D9143DADB22846F8
:105560000BF0E0FD05490BF025FEFEF765FCABF8FE
:105570000450FEF78FFA45E7CC6C00200AD7233C95
:105580002DE9FF5F06460C467048318890468588B5
:105590004FF0000B080ACFB232D0784300F0FF0A78
:1055A0000CB1544500D9012406EBC409D9F8040014
:1055B000FBF7A6F8C1B236F83400D9F80420FFF79B
:1055C0007BFD00BF5FEA080000D08047322007F073
:1055D000EDF80028F6D036F83400D9F80410FFF7BB
:1055E0006DFD06F02BFF102847D00BDC0A28DBD21C
:1055F000DFE800F005575D055B0505052294D3E75C
:10560000BA46CDE7212874D008DC112851D02028D3
:10561000CAD1039850EA0B003CD032E0402823D096
:105620004128C1D1C82D01D96D1EADB264214120E0
:1056300009F0BEFEA0B37BE0039850EA0B0017D040
:1056400003E000BFA4EB0A000CE0B4FBF7F007FB9B
:10565000104008B9E01BC4B2641CE4B2A4E7E01B2C
:1056600000E0E019C4B29FE7039830EA0B00ECD1E8
:10567000E019C4B2544597D9E4E7039830EA0B0027
:1056800008D0641EE4B2B4FBF7F007FB104000281A
:105690008AD1E6E7BC42E2D804EB0A00C4B2DEE7F6
:1056A00033E0204604B0BDE8F09F0020FAE7FF2079
:1056B000F8E740F69800854201D26D1CADB2642136
:1056C000112009F075FE58B132E06D1CADB22846CC
:1056D0000BF028FD49460BF06DFDFEF7ADFB01E038
:1056E000DFF86C900121112009F062FE0028ECD057
:1056F0001EE019E06D1EADB228460BF013FD4946C1
:105700000BF058FDFEF798FB01E0DFF84490012113
:10571000412009F04DFE0028ECD009E040F29E70D7
:10572000854205D2643502E0DC2D01D9143DADB2CD
:1057300028460BF0F7FC06490BF03CFDFEF77CFB1E
:1057400002488580FEF7A6F92EE70000CC6C002009
:105750000AD7233C2DE9FF5F064673480C46318883
:105760008588080AC9B2984691468A4630D000FB1F
:105770000AF0C0B200900CB1844200D9012406F0B6
:1057800051FF834606EBC40703977868FAF7B8FF22
:10579000C1B236F834007A68FFF78EFC5FEA090080
:1057A00000D0804706F03EFFA0EB0B00C7B2A8EB8D
:1057B00007025EA101A8FAF70BFE01A940F60970E5
:1057C000FFF77CFC474507D3012004B0BDE8F09FFC
:1057D0000846CDF800A0CEE7322006F0E7FF00280B
:1057E000DCD00398416836F83400FFF767FC06F018
:1057F00025FE10283ED009DC0A28C3D2DFE800F0DD
:105800000542460544050505267CBBE7212879D0DD
:105810000EDC11283CD02028B4D1641EE4B2B4FBC5
:10582000FAF10AFB11400028ACD104EB0A001FE09A
:10583000402816D04128A5D1C82D01D96D1EADB282
:105840006421412009F0B4FDC8B35FE0B4FBFAF174
:105850000AFB114010B9A4EB0A00C4B2641CE4B204
:1058600090E704EB0A00C4B2009884428AD9201A57
:10587000C4B287E7544502D800982044C4B2A4EBD0
:105880000A00F5E72046A0E700209EE7FF209CE7FE
:1058900040F69800854201D26D1CADB26421112002
:1058A00009F086FD60B131E06D1CADB228460BF009
:1058B00039FC39460BF07EFCFEF7BEFA01E012E03F
:1058C0001C4F0121112009F073FD0028ECD01DE0D0
:1058D0006D1EADB228460BF025FC39460BF06AFC74
:1058E000FEF7AAFA00E0134F0121412009F060FD04
:1058F0000028EDD00AE005E040F29E70854205D216
:10590000643502E0DC2D01D9143DADB228460BF020
:1059100009FC08490BF04EFCFEF78EFA0248858020
:10592000FEF7B8F82EE70000CC6C00202825327571
:10593000732900000AD7233C2DE9F04F04468DB0AF
:10594000002001900546069003907A480A907A4814
:1059500005907A4800EB440080890BF0E3FB78491E
:1059600001EB0419D9F800100BF024FCDFF8D4B1D6
:105970004FF0000A099084B14BF824A00021204682
:1059800000F00EF90121204600F0F8F8642006F03E
:1059900067F909F029FC0646B7E06B4805905646C2
:1059A00000213046CBF800A000F0FAF80121304683
:1059B00000F0E4F8642006F053F909F015FC0646FF
:1059C00062480078012808D0A4E02046052C19D2AE
:1059D000DFE804F0041515151500204606F092FEC8
:1059E000804606F047FE074606F03AFD03460022D1
:1059F00039464046CDF800A0FCF7CEFD03E006F0A6
:105A000081FE00E000200146019F09980BF058FD3F
:105A10000190D9F8040001990BF0CCFB0790D9F85C
:105A2000080001990BF0C6FB29460BF00DFA05465C
:105A300047484FF07E58854201D9054602E045456A
:105A400000DD4546394601980BF03AFDD9F80C10B7
:105A50000BF0B0FB3F490BF0ADFB07463E49069803
:105A60000BF0A8FB39460BF0EFF90690404605997C
:105A70000BF026FD0746294607980BF0E5F9069935
:105A80000BF0E2F939460BF095FB074605990398B0
:105A90000BF090FB39460BF0D7F903900A990BF005
:105AA000D3F910F1FF4F01D3002002E0404500DDA3
:105AB00040464BF8240029490BF07CFB0BF0FAFA26
:105AC00081B2204600F06CF825484FF47A714FF40B
:105AD0007A720088484323490988514300EB1148F2
