:020000040800F2
:10000000D87100203D03000845030008470300089D
:10001000490300084B0300084D03000800000000DE
:100020000000000000000000000000007502000851
:100030005103000800000000ED0200082903000839
:1000400057030008570300085703000855760008B7
:100050005703000857030008CD3F0008ED3F000894
:10006000F53F0008FD3F0008054000085703000861
:1000700057030008570300085703000857030008F8
:1000800057030008570300085703000857030008E8
:100090005703000857030008570300080D400008E5
:1000A00057030008570300085703000857030008C8
:1000B0005703000857030008799400085703000805
:1000C00057030008570300085703000857030008A8
:1000D00057030008570300085703000871960008EB
:1000E000D53F0008570300085703000800F002F846
:1000F00000F07AF80AA090E8000C82448344AAF148
:100100000107DA4501D100F06FF8AFF2090EBAE845
:100110000F0013F0010F18BFFB1A43F0010318473B
:100120006CDC01008CDC01000A444FF0000C10F87C
:10013000013B13F0070408BF10F8014B1D1108BF65
:1001400010F8015B641E05D010F8016B641E01F805
:10015000016BF9D113F0080F1EBF10F8014BAD1C55
:100160000C1B09D16D1E58BF01F801CBFAD505E073
:1001700014F8016B01F8016B6D1EF9D59142D6D3CD
:10018000704700000023002400250026103A28BFF5
:1001900078C1FBD8520728BF30C148BF0B607047F9
:1001A000662911F04C83642900F07881752900F0EC
:1001B0007581782900F0AE81732900F0A4870020B2
:1001C00070471FB500F0A3FF04000020002110F0CD
:1001D000FDFDE0601FBD10B510BD03B4FFF7FBFFD0
:1001E00003BC01F093F8000000F0CCF81146FFF7D3
:1001F000E8FF0FF0D9F8044800210FF09BF90FF049
:10020000E5F800F053FA00004000002080F3098870
:100210007047EFF309807047684680F30988044807
:100220000078C00714BF0220032080F314887047B1
:10023000B8C80108DFF818C0EFF305831B0618BF24
:100240006047EFF31483DB0708BF604700DF7047A8
:1002500035F60008DFF818C0EFF305831B0618BF5A
:100260006047EFF31483DB0708BF604700DF704788
:1002700019F80008EFF30980816911F8021CF1B93F
:1002800090E80F10E047EFF3098C8CE80700144B5F
:1002900093E8060091420FD039B12CE9F00FC1F874
:1002A00024C00CB40FF0ECFD0CBC1A60D2F824C0D2
:1002B000BCE8F00F8CF309886FF0020E704710B5A0
:1002C000084A1268914209D8074C54F8214090E836
:1002D0000F10A047EFF3098C8CE80F0010BD000051
:1002E00058030020101B0008101B00080FF064FCCE
:1002F0000C4B93E80600914210D0EFF3098C2CE9E7
:10030000F00FC1F824C00CB40FF0BAFD0CBC1A6099
:10031000D2F824C0BCE8F00F8CF309886FF0020E0D
:1003200070470000580300200FF070FEE0E7000067
:100330000FF052F90FF06AFEDAE700000948804733
:1003400009480047FEE77047FEE7FEE7FEE7FEE7E5
:10035000FEE7FEE7FEE7FEE704480549054A064BCF
:100360007047000055930008ED000008D86B00208E
:10037000D8710020D86D0020D86D0020004870474B
:10038000786B00207546FFF7F9FFAE460500694619
:10039000534620F00700854618B020B5FFF7DCFF74
:1003A000BDE820404FF000064FF000074FF0000876
:1003B0004FF0000B21F00701AC46ACE8C009ACE8F7
:1003C000C009ACE8C009ACE8C0098D467047000020
:1003D0000FB41CB5074B06AA7B44694600900598EC
:1003E00000F067FE0020694600F076FE1CBC5DF858
:1003F00014FB0000FD0C000070B504468569006820
:10040000C10601D5302600E02026C00708D070BD07
:10041000D4E9012130469047206A00F101002062B2
:100420006D1EF5D570BD70B5044685690078C007AE
:1004300008D170BDD4E9012120209047206A00F145
:10044000010020626D1EF5D570BD70B50C460546E5
:10045000012A05D02878800600D5EA69002302E049
:10046000012305E05B1C934202D2E05C0028F9D135
:10047000A869E618C01AA861286A184428622846A4
:10048000FFF7BAFF04E0D5E9012114F8010B90470A
:10049000B442F8D32846FFF7C6FF70BD2DE9F041FE
:1004A0000646002410687529314616A511D0AFF311
:1004B0000080002803DAC0F1000013A507E03168CE
:1004C0008A0701D511A502E0490704D510A501242A
:1004D00001E0AFF3008000210A2306F1240707E0C2
:1004E000B0FBF3F203FB1200303078541046491C85
:1004F0000028F5D123462A463046BDE8F04100F0F9
:1005000067BB0000000000002D0000002B00000071
:100510002000000070B504460D4621461068AFF378
:1005200000802188090502D5104A7A4402E00F4A6A
:100530007A440E32002104F1240307E000F00F0694
:100540004FEA1010965D5E5401F101010028F5D1CB
:1005500003462078000704D5702D02D009B111326E
:1005600002232046BDE8704000F032BB82D001007B
:100570002DE9F05F894604464FF0000ADFF828B104
:10058000FB44C0F820A02046E168884700287CD0C2
:10059000252806D0D4E901219047206A401C20621A
:1005A000F1E700255F462046E16888472028064697
:1005B00008DB312E06D207EB060010F8200C08B13C
:1005C0000543F0E7A80701D525F00405C4F81CA0F1
:1005D0000027C4F818A02A2E09D0304609F089FF58
:1005E00038B304EB8708303EC8F8186019E059F8B2
:1005F000041B204604EB87029161E1688847012FC4
:10060000064618D1E069002820DA25F020051DE013
:10061000D8F8180000EB800006EB40003038C8F82E
:1006200018002046E1688847064609F062FF002866
:10063000EED1012F0AD02E2E08D12046E16888473E
:100640007F1C0646022F45F02005C4DBA069002868
:1006500003DA404245F00105A061E80701D025F02A
:10066000100596B1A6F14100192802D8203645F4AC
:1006700000654A463146204625604D46FFF790FD0D
:1006800060B1012807D0ED1D00E009E025F007006A
:1006900000F1080977E705F1040974E7304679E7C6
:1006A000206ABDE8F09F000054D001000446AFF37B
:1006B00000802046FFF791FD40EA0103024630B575
:1006C0009B0710D14FF0013400E008C208C91D1B80
:1006D0009D4315EAC41FF8D013F0FF0102F8011B77
:1006E0000DD01B0AF8E711F8013B002B02F8013B83
:1006F00005D011F8013B002B02F8013BF3D130BDCE
:1007000010B5431C02E010F8011B71B18107FAD14A
:100710004FF0013202C88C1A8C4314EAC211F9D08E
:10072000C01A0A0603D0C01E10BDC01A10BD0A04AC
:1007300001D0801E10BD0902FCD0401E10BD40EA51
:10074000010370B59B072ED14FF00136042A2AD33E
:1007500008C810C9121F9D1B9D4315EAC61517D066
:10076000D8B2E1B2401A50EA056110D198B2A1B2F4
:10077000401A50EA05410AD123F07F4024F07F411E
:10078000401A50EA052102D1180EA0EB146070BD8A
:10079000A342DBD018BA21BA884201D9012070BD2A
:1007A0004FF0FF3070BD0AB9002070BD10F8013B5A
:1007B00011F8014B63B1A3420AD1521E08D010F8C0
:1007C000013B11F8014B1BB1A34201D1521EEDD1E7
:1007D000181B70BD421E12F8013F002BFBD111F80F
:1007E000013B002B02F8013BF9D17047032A40F28C
:1007F000308010F0030C00F0158011F8013BBCF1C3
:10080000020F624498BF11F801CB00F8013B38BFDA
:1008100011F8013BA2F1040298BF00F801CB38BFE8
:1008200000F8013B11F0030300F02580083AC0F006
:10083000088051F8043B083A51F804CBA0E80810AE
:10084000F5E7121D5CBF51F8043B40F8043BAFF3E1
:100850000080D20724BF11F8013B11F801CB48BF3B
:1008600011F8012B24BF00F8013B00F801CB48BF71
:1008700000F8012B704710B5203AC0F00B80B1E8AA
:100880001850203AA0E81850B1E81850A0E81850C5
:10089000BFF4F5AF5FEA027C24BFB1E81850A0E8CE
:1008A000185044BF18C918C0BDE810405FEA827CE8
:1008B00024BF51F8043B40F8043B08BF7047D207FF
:1008C00028BF31F8023B48BF11F8012B28BF20F8A0
:1008D000023B48BF00F8012B70474FF0000204298B
:1008E000C0F0128010F0030C00F01B80CCF1040C5F
:1008F000BCF1020F18BF00F8012BA8BF20F8022B93
:10090000A1EB0C0100F00DB85FEAC17C24BF00F838
:10091000012B00F8012B48BF00F8012B70474FF066
:10092000000200B5134694469646203922BFA0E83F
:100930000C50A0E80C50B1F12001BFF4F7AF09074B
:1009400028BFA0E80C5048BF0CC05DF804EB89003C
:1009500028BF40F8042B08BF704748BF20F8022B7F
:1009600011F0804F18BF00F8012B704730B50368B5
:100970001C1404EB21459BB289B2194495FBF2F497
:1009800002FB145301EB034191FBF2F302FB131141
:1009900001E05B1E11440029FBDB016003EB044016
:1009A00030BD2DE9F04704464FF0FF3A86B00068AD
:1009B000029060680390A0680490E068019020694C
:1009C00000906569B5F1804F7EDCB5F1404F7BDB6F
:1009D0003C22002102A8FFF7C9FF3C22014603A8E0
:1009E000FFF7C4FF1822014604A8FFF7BFFF411E0E
:1009F00040F2B55201A8FFF7B9FF0C22064668463F
:100A00000021FFF7B3FF00EB860028443E4D00268F
:100A10007D440FE09A1A491CCDE90012022902D048
:100A20000C2907D104E0810704D0521C019201E097
:100A3000401C00960099019B6A5C9A42EADD0129FC
:100A400006D11C2B04D1810702D00221CDE900166A
:100A5000A0F146018B2940D20199009B00220F464C
:100A600002E0AE5C521C31449A42FADB012B02DDFB
:100A7000820700D0491E40F2B55540F26D16C217EC
:100A800000EB927292106A4300F0030505FB062208
:100A900085070A4400D1521E049D02EB4206DDF890
:100AA0000C80A94605EBC605184EC5EB0515DDF80B
:100AB00008C008EB850535442E14ADB2C6EB06160A
:100AC000C5EB0515B60000E007E00CEB850506EB6D
:100AD000154666F31F45360C03D0504606B0BDE8F8
:100AE000F0877F1CC4E90430521C072092FBF0F30E
:100AF00004F1180600FB1320A6E803042846C4E905
:100B00000297C4E900C8E9E7D5CB0100A039CEFDC2
:100B100070B50C46016800204A1C34D040F2B5552F
:100B20003C23B1FBF3F203FB12112160B2FBF3F1A2
:100B300003FB112218236260B1FBF3F203FB1211D5
:100B4000A16046F2E0310A440721B2FBF1F301FB58
:100B50001321B2FBF5F305FB1322A1619900B2F555
:100B6000B77F06D3521EAD10B2FBF5F3194405FB57
:100B700013220F4BE261616189077B440CD03B2A51
:100B80000AD3521C08E02C212046FFF7C8FE0120A2
:100B9000E0600AE0521A401C195C9142FAD9521CDA
:100BA000C4E903204FF0FF302062204670BD0000F2
:100BB0006BCA010070477047704710B500F0ACFA7F
:100BC000006810BD10B5044600F0A6FA046010BD20
:100BD0002DE9F0470D4699469246044600F1240857
:100BE0000168880604D5E06921F01001216000E069
:100BF0000120A84202DDA0EB050700E00027A16963
:100C000007EB050202EB0900A1EB0000A0612078D0
:100C1000C00602D42046FFF7EFFB002608E0D4E927
:100C200001211AF806009047206A401C761C2062B9
:100C30004E45F4DB2078C0060AD52046FFF7DCFBE2
:100C400006E0D4E9012130209047206A401C206250
:100C5000381EA7F10107F4DC07E0D4E9012118F8F8
:100C600005009047206A401C2062281EA5F101055E
:100C7000F3DC2046FFF7D7FB2078000602D50220E0
:100C8000BDE8F0870120FBE770472DE9FF4F0C46D8
:100C90001E464FF0FF378BB0D2E90001DDF86080CF
:100CA0000A908A46C1F30A5505B93D460021084617
:100CB0004FF00000BAF1000F00F4400005DA00EB3D
:100CC00080004FF4400101EA50004FEA9059B9F119
:100CD000010F00DDB9460A9850EA4A000ED044F6EA
:100CE0001050A5F2FF3545432F14B8F1000F1ED068
:100CF0007542291E1EDDC9F100021CE0B8F1010F8A
:100D00004FF0000001D0302103E0F24305E0215410
:100D1000401CB042FBDB30460022002121540B99DD
:100D2000C1F80880C1E900200FB0BDE8F08FBD1BFD
:100D30006D1CDEE74A4600DA694206A800F074FA44
:100D400006AB07CB03AB07C350460A9900F025FB5F
:100D50008DE80700A0F500501F3800900398002D83
:100D600009DD42F21F014A46084403A90390684680
:100D700000F084FD08E0A0F500504A461F3803A9A2
:100D80000390684600F08EFD8DE807000004000C1B
:100D900003D04FF0FF30410800E01046B8F1000FDB
:100DA00003D00022009215461FE0751E06D400F005
:100DB000B5F902F1300262556D1EF8D5B346012235
:100DC000084302D000227F1C04E02078302801D1A3
:100DD00000227F1E002A099787D01DE0112D07DA17
:100DE00000F09CF9303262556D1C50EA0102F5D1D9
:100DF00008430FD10021681E05E0235C625C635448
:100E0000491C2254401E8142F7DBAB46A81B401E02
:100E1000099001E0009848B1002004F80B000B98FD
:100E2000099AC0F80880C0E9002B7DE711264FF031
:100E300000085AE72DE9F04F88460446D21D22F0FB
:100E4000070191B0D1E90001CDE90A0109F0AFFA3B
:100E500002460B98C00F01D02D2007E020688107C3
:100E600001D52B2002E0202101EAC000032A0990CD
:100E700001D0072A05DB03464146204600F094F9DD
:100E80000FE12078800601D5E06900E00620B8F186
:100E9000650F814606D0B8F1660F18D0B8F1670F1C
:100EA00072D132E00020B9F1110F009001DB112363
:100EB00001E009F101030AAA01A90CA8FFF7E5FE68
:100EC000DDE90C70002609F10105834648E00120A8
:100ED0004B4600904FF000470AAA01A90CA8FFF763
:100EE000D4FEDDE90DB00C995D46002618B909F174
:100EF000010001EB0005B9EB050003D4C0F1FF369A
:100F000009F10105A5EB09002BE0B9F1010F01DAA8
:100F10004FF001090020B9F1110F0090484601DDA2
:100F2000112300E003460AAA01A90CA8FFF7ADFEB1
:100F3000DDE90C704D4600268346207800070AD470
:100F4000AB4500DA5D4601A8012D04DD411911F819
:100F5000011C302907D04F4502DA17F1040F04DADB
:100F60000120824610E06D1EEEE7002F02DCED1B33
:100F70003E4403E0781CA84200DD0546A7EB0600CE
:100F800000F1010A4FF000472078000703D4AA457A
:100F900001DB4FF0FF3A0021B7F1004F0DF143089C
:100FA0008DF8431023D002202B23002F01DA7F423B
:100FB0002D234FF00A0C011EA0F1010000DC4FB1FF
:100FC00097FBFCF10CFB11720F4602F1300208F89E
:100FD000012DF0E7A8F1010003702188090501D572
:100FE000452100E06521A0F1010800F8011C0998E5
:100FF0000FA9A1EB080707F1070700B1012000EBDB
:10100000050101EBEA70A1693844A1EB0000A0F1F1
:101010000100A0612078C00602D42046FFF7ECF959
:10102000099830B1D4E901219047206A00F101000C
:1010300020622078C00620D52046FFF7DDF91CE0AD
:10104000002E04DBB34502DD01A8805D00E0302006
:10105000D4E901219047206A761C401CBAF1010AAC
:1010600020620AD100F053F8C0680168405CD4E9FE
:1010700001219047206A401C2062281EA5F101052D
:10108000DEDC07E0D4E9012118F8010B9047206A63
:10109000401C2062381EA7F10107F3DC2046FFF751
:1010A000C2F9022011B040E601694A1C02610878C9
:1010B000704700B58FB0CDE9013100210591054998
:1010C0007944CDE9031011466846FFF751FA0FB095
:1010D00000BD0000E5FFFFFF0A6802F8010B0A608F
:1010E000704710B5436913B1AFF3008001E0FFF71B
:1010F000ACF9012010BD127800F124010A70002221
:101100004A700122EDE711684FF0FF32E9E710B5B0
:10111000FFF734F9203010BD09F05EB930B5B0F1F9
:101120000A024FEA900E71F100034EEA817EB0EBA5
:101130000E0061EB91014FEA101E4EEA017E10EBAA
:101140000E0041EB11114FEA102E4EEA016E10EB2A
:101150000E0041EB11214FEA104E4EEA014E10EB0A
:101160000E0041EB1141401841F100014FEAD0005F
:1011700040EA41704FEAD10110EB80054FEA81044B
:1011800044EA907444EB01046D1944EB0404521BCF
:10119000A3414FF0000348BF0A3200D530BD401CC8
:1011A00041F1000130BD00002DE9F0411F46044629
:1011B00003260168072A01F4006004DB08B116A5C4
:1011C00005E016A503E008B115A500E015A521F07E
:1011D00010002060A069C01EA0610FB1401EA06178
:1011E0002046FFF709F94FB1D4E90121384690476D
:1011F000206A401C2062C01C206206E0206AFAE7D8
:10120000D4E9012115F8010B9047761EF8D220464B
:10121000FFF709F9BDE8F0814E414E006E616E00A6
:10122000494E4600696E66002DE9F0478146164634
:101230008AB035487844D0E9002380680092CDE92F
:101240000130314878440C38D0E902230069039218
:101250004FF03702CDE9043041F69B30014491FB59
:10126000F2F0A0F1800502FB10141B3C02D5644291
:10127000012000E00020DFF890A080460027FA441B
:10128000AAF1C60A0DE0E00709D03246684607EB2E
:1012900047010AEB810100F005FB8DE807006410AF
:1012A0007F1C002CEFD1184F7F44B43F17E0E807B4
:1012B00013D007EB04100DF1180A90E80E00AAE80D
:1012C0000E00C068F04201D198190890324606A974
:1012D00003A800F0E7FA03AB07C36D10641C002DF0
:1012E000E5D132466946B8F1000F03A802D000F0FC
:1012F000C5FA01E000F0D6FAC9E90001C9F80820F2
:101300000AB0BDE8F08700003CC401000149182084
:10131000ABBEFEE7260002004FF0013C50F8042B64
:1013200051F8043B9A4221D1A2EB0C03934313EAF8
:10133000CC1317D150F8042B51F8043B9A4215D125
:10134000A2EB0C03934313EACC130BD150F8042BFC
:1013500051F8043B9A4209D1A2EB0C03934313EAE0
:10136000CC13DBD04FF00000704700BFD01A01BA99
:10137000B1FA81F101F0180122FA01F0CB40C1F17C
:101380002001DBB2C0B2C01A2CFA01F3D11A91438A
:1013900011EAC311E6D1704770475FEA400C08BFFD
:1013A00091F0000F4FEA8C234FEAC12243EA5151DA
:1013B0004FEA1C5018BF00F5F0404FEA300018BF4C
:1013C00041F000415FEA6C5C00F02980BCF1FF3F16
:1013D00008BF40F080407047130C06BF12044FF066
:1013E000100C4FF0000C130E04BF12020CF1080C8D
:1013F000130F04BF12010CF1040C930F04BF9200F1
:101400000CF1020CD30F04BF52000CF1010C114679
:101410004FF00002A0F11F00A0EB0C00704711F08C
:10142000004F08BF704731F000413FF4D5AF0B0CBF
:1014300006BF09044FF0100C4FF0000C0B0E04BF58
:1014400009020CF1080C0B0F04BF09010CF1040C8C
:101450008B0F04BF89000CF1020CCB0F04BF4900B5
:101460000CF1010CCCF12003A0EB0C0022FA03F3E9
:1014700002FA0CF241EA030100F10100704720F08A
:101480007F4C80EA030023F07F47ACEB070303F5B2
:101490007C5300F0004003F1FF032DE980494FEA3F
:1014A000154B09B44FEA144325EA0B4E24EA0348CE
:1014B0000FF2042606EB132749083E785FEA320252
:1014C00003FB0667C7F5000707FB06F64FEA54372C
:1014D0004FEAD64606F1020607FB066CCCF1005C2B
:1014E0004FEA1C472CEA074C07FB06F40CFB06F5F9
:1014F00004EB15464FEA961634BF00204FF000402B
:101500004FEAD13706FB07FC4FEA1C4C0CFB0BF7EC
:10151000D21B03FB0CF761EB07010CFB0EF7B0EBE2
:10152000074072EB17420CFB08F734BFA2EB0742EF
:10153000B2EB074261EB17414FEA0C444FEA9107C7
:1015400006FB07FC4FEA1C4C0CFB0BF7B0EBC7404B
:1015500072EB573203FB0CF734BFA2EBC742B2EB7E
:10156000C74261EB57310CFB0EF7B0EBC70072EBD3
:1015700057720CFB08F734BFA2EBC702B2EBC702ED
:1015800061EB5771039F4FEA816141EA921104EBCD
:10159000CC044FEAD1374FEA826206FB07FC42EAED
:1015A00090124FEA80604FEA1C4C0CFB0BF7D21BE9
:1015B00003FB0CF761EB07010CFB0EF7B0EB0740E8
:1015C00072EB17420CFB08F734BFA2EB0742B2EBF9
:1015D000074261EB17414FEA8C554FEA910704EB44
:1015E0009C2406FB07FC4FEA1C4C0CFB0BF7B0EBF2
:1015F000C74072EB573203FB0CF734BFA2EBC74274
:10160000B2EBC74261EB57310CFB0EF7B0EBC700F2
:1016100072EB57720CFB08F734BFA2EBC702B2EBB8
:10162000C70261EB577115EB4C254FEA816141EA26
:1016300092114FEA82624FEAD13742EA901206FBDA
:1016400007FC44F100044FEA80604FEA1C4C0CFB9D
:101650000BF7D21B03FB0CF761EB07010CFB0EF73A
:10166000B0EB074072EB17420CFB08F734BFA2EB5C
:101670000742B2EB074261EB174115EB1C154FEA2D
:10168000813141EA92414FEA823242EA90424FEA86
:1016900080304FEA0C7644F1000448EA03434EEAF6
:1016A0000B484FF0000EB2EB080C71EB030724BFA0
:1016B000624639464EEB0E0E4FF0000B00185241B9
:1016C00049414BEB0B0BB2EB080C71EB03077BF1C1
:1016D000000B24BF624639464EEB0E0E4FF0000B56
:1016E0000018524149414BEB0B0BB2EB080C71EB6C
:1016F00003077BF1000B24BF624639464EEB0E0E0A
:1017000051EA020718BF46F0010616EB0E7655F1B6
:10171000000254F1000103D5BDE88901BDE800884D
:10172000BDE88901BDE80048B619524141EB01010D
:10173000A3F10103704780807F7E7D7C7B7A79787E
:10174000777676757473727171706F6E6E6D6C6C86
:101750006B6A6A6968686766666564646363626128
:101760006160605F5F5E5E5D5D5C5C5B5B5A5A59A9
:101770005958585757565655555554545353525215
:101780005251515050504F4F4F4E4E4D4D4D4C4C6D
:101790004C4B4B4B4A4A4A494949484848474747B6
:1017A00047464646454545444444444343434342F3
:1017B000424242414141002B26D4770021D01CB542
:1017C0004FEA370703B44FF010004FF010014FF00D
:1017D00000000FBCBDE810400BF1010BBBF1010F85
:1017E00008BF5FEA170722BF12F1010211F10101E0
:1017F0004FF0004143F1000300F0004043EA0000D5
:101800007047F9D35708DAE746EA064613F1400F66
:101810004FEA16461FDD13F1200FDFBF16430A46BD
:10182000002120335B42C8D0C3F1200746EA0646B8
:1018300002FA07F74FEA164646EA0706C3F1200701
:1018400022FA03F201FA07F721FA03F14FF000033D
:1018500042EA0702B1E746EA020646EA06464FEACE
:10186000164646EA0106BCBF46EA0646360C4FF06D
:1018700000034FF000024FF000019EE72DE9C04841
:10188000934630B491E8380007C831EA400C48BFAD
:1018900034EA430C03D5FFF7F2FDFFF78CFFF0BCF1
:1018A000BDE800882DE9C048934630B491E838007F
:1018B00007C810F0804F08BF13F0804F03D100F02D
:1018C00005F8FFF778FFF0BCBDE8008820F07F47FF
:1018D00080EA030023F07F4C07EB0C03A3F57C5355
:1018E00000F00040A3F1FE0392F0000F00F0B3807F
:1018F00095F0000F00F077802DE901494FEA114083
:101900004FEA144621EA004800FB06FC24EA064799
:1019100008FB06F607FB08F800FB07F718EB06487C
:101920004CEB164C4FEA124B18EB07484FEA1546A2
:101930004CEB174022EA0B4E0BFB06FC25EA064750
:101940000EFB06F607FB0EFE0BFB07F71EEB064E23
:101950004CEB164C4FF000061EEB074E4CEB174BB2
:1019600018EB0B0840F1000018EB0E0B58EB0008C9
:1019700040F100008F1A4FF000013CBFC943661BC5
:1019800014BFB5EB040C00213CBFC943F61B4FEA62
:1019900017444EEA8E0E27EA04454FEA1C4704FB23
:1019A00007622CEA074C05FB07F70CFB05F604FB66
:1019B0000CFC16EB074642EB174216EB0C4642EBCB
:1019C0001C421BEB060658EB0202414146EA9E060A
:1019D00001D5BDE80189B619524141EB0101A3F1DE
:1019E0000103BDE801894FEA14454FEA114724EA93
:1019F000054621EA074C05FB07F406FB07F70CFB3D
:101A000006F105FB0CFC11EB074144EB17444FEAD0
:101A1000124711EB0C4144EB1C4422EA074C05FB36
:101A200007F206FB07F70CFB06F605FB0CFC16EBB2
:101A3000074642EB174216EB0C4642EB1C456A1870
:101A400054F1000148BF7047B619524141EB010102
:101A5000A3F10103704795F0000F37D04FEA114210
:101A60004FEA144721EA024624EA074C02FB07F139
:101A700006FB07F70CFB06F402FB0CFC14EB074417
:101A800041EB17414FEA154714EB0C4441EB1C4165
:101A900025EA074C02FB07F506FB07F70CFB06F6E9
:101AA00002FB0CFC16EB074645EB174516EB0C4604
:101AB00045EB1C42121951F1000148BF7047B6199D
:101AC000524141EB0101A3F1010370474FEA144574
:101AD0004FEA114724EA054621EA074C05FB07F1C6
:101AE00006FB07F70CFB06F24FF0000605FB0CFCAB
:101AF00012EB074241EB174112EB0C4251EB1C4138
:101B000048BF7047921841EB0101A3F101037047F0
:101B10000000000006F06CBA10B50022074B114619
:101B200001EB810403EB440434F81040491CC9B2B2
:101B300022441029F4D3C2F30F1010BD82030020F9
:101B4000044890F83C00012801D0034800E0034815
:101B500008F044BBD86A00208E9E01080E79010867
:101B6000264910B508684FF6FF021040244A40F499
:101B7000E06010430860062004F082F8072004F0BB
:101B80007FF8082004F07CF8092004F079F80A2096
:101B900004F076F8172004F073F8282004F070F8A9
:101BA0001E2004F06DF8272004F06AF807F014FCFA
:101BB000154A1448D16941F00201D1610021018028
:101BC000018540F65F13838501238382018446F2F9
:101BD000600303838383818601878187A0F8401097
:101BE000018841F001010180906940F0010090619D
:101BF0000648416841F44061416010BD0CED00E0D1
:101C00000000FA05000400400010024000000140FE
:101C100008B5024908440090008808BD006C0040E7
:101C200008B5024A10440090016008BD006C0040F5
:101C3000002007F06DBC00000148007807F068BC88
:101C40002800002070B515460E46044609F09CFE9B
:101C500021461648FEF730FD144800F077FA30466A
:101C600000F028F964211248FEF737FE00222946C9
:101C70000F4800F05FF90F4C6070012000F008FA87
:101C800064210A48FEF729FE64210948FEF725FE73
:101C900009F082FE6078142802D0172802D003E0F1
:101CA000012070BD09F067FE002070BDE8680020CB
:101CB000BC6700205601002010B5044609F064FE00
:101CC00021460648FEF7F8FC044800F03FFA00F011
:101CD00043FA044609F060FE204610BDE868002083
:101CE0002DE9F0411C4615460E46074609F04CFE0C
:101CF00023462A463146384600F07CF8142804D0A2
:101D000009F04AFE0020BDE8F08109F045FE0120FF
:101D1000F9E700002DE9F0411C4615460E4607463E
:101D200009F032FE23462A463146384600F092F842
:101D3000084C607009F030FE6078142802D0172833
:101D400003D004E00120BDE8F08109F014FE00207A
:101D5000F9E700005601002010B5044609F014FE12
:101D600021460B48FEF7A8FC094800F011F9094983
:101D70004870012000F08CF964210548FEF7ADFDA4
:101D800064210548FEF7A9FDBDE8104009F004BE36
:101D9000E868002056010020BC67002070B5154699
:101DA0000E46044609F0F0FD21460F48FEF784FC7C
:101DB0000D4800F07AF90D4CA9B20022607030464F
:101DC00000F0B8F86070012000F062F960706421E2
:101DD0000548FEF782FD64210548FEF77EFDBDE85B
:101DE000704009F0D9BD0000E868002056010020CD
:101DF000BC6700202DE9F0411C4616460F460546FB
:101E000009F0C2FD29461048FEF756FC0E4800F0C6
:101E10009DF9384600F04EF8A1B20022304600F09D
:101E200062F80A4C6070012000F032F96421064823
:101E3000FEF753FD64210648FEF74FFD09F0ACFDA7
:101E40006078BDE8F0810000E868002056010020BD
:101E5000BC6700202DE9F0411C4617460E4605469A
:101E600009F092FD29461048FEF726FC0E4800F0C6
:101E70006DF9384600F01EF8A1B20C4A304600F069
:101E800059F80A4CA41E6070012000F001F9642189
:101E90000548FEF722FD64210548FEF71EFD09F006
:101EA0007BFD6078BDE8F081E868002058010020E3
:101EB000BC67002010B5044639200EF075FFE0B273
:101EC0000EF07DFFC4F307200EF079FFC4F3074046
:101ED0000EF075FF200E0EF072FF0EF035FFBDE81C
:101EE000104008F087B970B5064614460D463A20F2
:101EF0000EF05AFFE8B20EF062FF280A0EF05FFF04
:101F00000EF022FF0CB1002011E008F073F91D283B
:101F10000FD1304600F052F905463B200EF044FF49
:101F20000EF012FF2E44002CEFD020882844208091
:101F3000EBE770BD2DE9F041064614460D463C2006
:101F40000EF032FFE8B20EF03AFF280A0EF037FF2B
:101F50000EF0FAFE0CB1002020800C4F08F04AF978
:101F60001E2810D1304600F03CFA054638703D205E
:101F70000EF01AFF0EF0E8FE2E44002CEED0208862
:101F800028442080EAE7BDE8F081000055010020E8
:101F900010B5044600F0C4F920785C2801D02F2841
:101FA00003D10021642000F032FABDE81040402047
:101FB00000F096B910B504F0EBFD08B100F0CFF8D1
:101FC000BDE81040302000F08BB9312000F088B916
:101FD00010B505200AF011FC5A2000F081F90446E2
:101FE00005200AF00AFC204610BD00002DE9F74F3D
:101FF00082B0834604980E46C700080E4FF0000AD0
:10200000C1F30729C1F30748009056200EF0CCFE1B
:10201000F0B20EF0D4FE48460EF0D1FE40460EF06F
:10202000CEFE00980EF0CBFE04980EF0C8FE0EF027
:102030008BFE3C4614E000BF08F0DCF805461E2885
:1020400001D07CB113E04021584600F0B4F957208C
:102050000EF0AAFE0EF078FE641E0BF1400BA4B247
:10206000002CE9D108F0C6F8054614280ED0162D2C
:1020700009D0FFF7ADFF0AF1010000F0FF0ABAF145
:10208000030FC2D1284605B0BDE8F08F1420FAE74F
:102090000146362000F017B910B508B100F040F93C
:1020A000BDE81040342000F01BB970B5054600F0C3
:1020B00021F904000DD00146284600F021F84128FE
:1020C00007D0142803D0422800D1B32070BD43208C
:1020D00070BD2819BDE87040FFF7DEBF10B504469B
:1020E00000F01EF920785C2801D02F2803D10021B0
:1020F000642000F08CF9BDE81040322000F0F0B808
:1021000070B5054600200E46012401E0641CE4B2CF
:10211000295D5C2913D02F2911D00029F6D1002484
:102120002844FFF7DBFF002C08D0B44206D041283A
:102130000AD0142806D0422800D1B32070BD641CF8
:10214000E4B2EDE7432070BD2046E1E7FF21FFF751
:10215000D7BF2B2000F054B8682000F045B810B568
:1021600022200EF021FE0EF018FE04460EF0ECFDCB
:10217000204610BD04480178012901D00020704795
:102180000021017001207047380000202DE9F04146
:102190000EF003FE06460EF000FE05460EF0FDFDB5
:1021A00004460EF0FAFD07460EF0CEFD46EA052085
:1021B00040EA044040EA0760BDE8F08170B505469A
:1021C00027200EF0F1FD0EF0E8FD0400264607D0B2
:1021D0000EF0E3FD641E05F8010B14F0FF04F7D1C7
:1021E0000EF0B2FD304670BD10B504460C200EF066
:1021F000DBFD20460EF0E3FDBDE81040FFF7C6BF53
:1022000010B504460A200EF0CFFD20460EF0D7FD93
:102210000EF0C3FD04460EF097FD204610BD10B52C
:1022200004464A200EF0C0FDE0B20EF0C8FDC4F333
:1022300007200EF0C4FDC4F307400EF0C0FD0020DF
:102240000EF0BDFD0EF080FDBDE8104007F0D2BFDE
:102250002DE9F04115000F46804601D0002028707E
:102260004C200EF0A1FD38460EF0A9FD0EF06CFDDD
:1022700007F0C0FF0646142823D127200EF094FD56
:102280000EF08BFD0EF089FD04460EF086FD0EF07B
:1022900084FD0EF082FDFFF779FF014684B12246EE
:1022A0004046FFF7A3FE064614280AD108EB44284F
:1022B00015B1287820442870381B10F0FF07CFD1C3
:1022C0003046BDE8F08110B50C460EF06DFD20469D
:1022D0000EF075FD0EF038FDBDE8104007F08ABF26
:1022E00010B50EF061FD0EF02FFDBDE8104007F0B7
:1022F00081BF0000014600E0491C0A78002AFBD19A
:1023000006E000BF11F8012D5C2A03D02F2A01D06E
:102310008142F7D1814200D0491C081AC0B27047EF
:1023200070B5054601200EF03FFD0EF036FD432846
:1023300028D22B20FFF764FF102823D22F200EF085
:1023400033FD00200EF03BFD3220FFF7C9FF1428BB
:1023500018D1CF20FFF754FF040013D04C20FFF713
:1023600043FF00EB04214C2000F051F85020FFF710
:102370003BFF00EB0421502000F049F800217020C1
:1023800000F045F82F200EF00FFD2C7806E000BF7E
:1023900015F8014F5C2C0AD02F2C08D020460EF0E7
:1023A0000EFD002CF4D1BDE870400EF0CDBC002035
:1023B0000EF005FDF7E770B505460C462C200EF033
:1023C000F3FC20460EF0FBFC3CB128780EF0F7FC45
:1023D0006D1C641E14F0FF04F7D1BDE870400EF0D0
:1023E000B3BC70B505462D200EF0DEFC0EF0D5FC1A
:1023F0000400264607D028780EF0E1FC6D1C641E10
:1024000014F0FF04F7D10EF09FFC304670BD70B59C
:1024100005460C460D200EF0C7FC28460EF0CFFCFA
:10242000E0B20EF0CCFCC4F307200EF0C8FCC4F3FD
:1024300007400EF0C4FC200E0EF0C1FCBDE8704059
:102440000EF082BC012009F0ADBA10B502F048FBD5
:1024500005F084FDBDE81040FFF7F4BF10B5044659
:102460000121502009F02AFBC8B1002009F0BEFA72
:102470002070002009F0BAFA6070002009F0B6FA66
:10248000A070012009F0B2FAE07009F051FB0021C0
:10249000502009F013FB09F04BFB012010BD09F09F
:1024A00047FB002010BDF8B50D46064609F090FA2E
:1024B0006846FFF7D3FF040011D09DF801009DF896
:1024C000001000EB0120C0F30D0030809DF80300E8
:1024D0009DF8021000EB0120C0F38D00288009F068
:1024E0007FFA2046F8BD000030B50E480E4C0023A0
:1024F0000078042234F81010401CC0B20D460528A4
:1025000000D3002034F810104D1BADB2521E2B44E6
:1025100012F0FF02F0D1C3F38F004FF4FA71484379
:1025200030BD0000000000207803002010B50446F4
:1025300012490EF089FF12490EF0D0FD21460EF02F
:1025400083FF10490EF0CAFD21460EF07DFF0E49B3
:102550000EF0C4FD21460EF077FF0C490EF0BEFDD3
:1025600021460EF071FF0A490EF0B8FD21460EF02B
:102570006BFFBDE8104007490EF0B0BD92EBD72CC1
:10258000EEC70B310DBDA2343E5ADE37774BBB3A56
:1025900045B8353D145C1C3F2DE9F04706461A4FFF
:1025A0000898984691468A46002540B10AF066F898
:1025B00004461649884504DA3046BDE8F0873C46B3
:1025C000F7E7134890F82C0018B15046FFF7AEFF1C
:1025D0000546494640460EF081FD29460FF0BAF8FF
:1025E00021460EF031FF0446394650460EF076FD86
:1025F00008490EF029FF31460EF026FF2146BDE8BE
:10260000F0470EF0DFBD0000339388436F12833A2A
:10261000D86A002066A6CA422DE9F0411F469046BE
:102620000C4606460AF02AF805460F4920460EF0E9
:1026300055FD0E490EF008FF0446414638460EF09F
:102640004DFD29460EF000FF21460EF0BBFD314640
:102650000EF0FAFE0649884202DA0020BDE8F08159
:10266000BDE8F0410EF032B83393884366A6CA4203
:102670006F12833A2DE9FF4F87B090460F461D46F3
:10268000182221496846FEF7F6F80026012440F298
:10269000013B40F2035941F60C0A00BF09F05CFA15
:1026A000684602F02DFD58F8251018A35A4640F24E
:1026B000191006F051FA37F8151000234A46504613
:1026C00006F070FA00222146684602F045FD0446F5
:1026D000012807D0022C0ED0002CDFD10BB03046E1
:1026E000BDE8F08F2B4642463946079800F010F8B7
:1026F00007E00126D2E707EB45014A46504601F0C4
:102700008DFE0028CAD0F4E7E4D101084C2F6D00FB
:102710002DE9FF4F8DB0002004908F481F460E46D4
:10272000848831F8175008880A90B1F802B0B1F8DF
:1027300004A0B1F806904FF0010852F8270087492D
:102740000EF082FE4FF07C510EF0C8FC0EF0FCFD46
:1027500081490D9A01EB42010691888101210D9872
:1027600004F004FA09F0F8F97DA1002002F0A0FCC1
:10277000F580B580758035800D9809F093FF039042
:102780007AA1002002F094FC002340F20352294673
:10279000192006F007FA78A14FF4406002F088FC97
:1027A00077A340F2036240F60C40039906F0D4F997
:1027B00074A14FF4C05002F07BFC0D9804F0C8F9EE
:1027C000014641F60C0006F01DFA642009F0BEFF38
:1027D0000028D1D009F002FE112856D008DC0128CB
:1027E0001AD0042878D0092877D0102813D106E011
:1027F000212873D0402808D041280CD162E042F251
:102800000F70854205D26D1C02E0632D01D96D1E4B
:10281000ADB20120049089E0069864215B4A80896A
:10282000484303210590880202F040FC40F2036215
:1028300005A940F60C4001F0FFFD00B30120049013
:1028400005980EF0B9FD0290642D19D3039810F08D
:10285000FF4F17D028460EF0AFFD05460698808939
:102860000EF0AAFD29460EF0ADFC014602980EF0CE
:10287000A9FC47490EF0A6FC0EF066FD85B201E00A
:102880004FF47A7509F068F950E040F698008442F8
:1028900001D2641CA4B2642111200CF0B1FE50B12D
:1028A00038E0641CA4B220460EF086FD39490EF0D3
:1028B000CBFD01F0BBFA012111200CF0A1FE002894
:1028C000EFD027E0C82C01D9641EA4B264214120B6
:1028D0000CF096FE68B11DE02CE011E016E0641EDD
:1028E000A4B220460EF068FD2A490EF0ADFD01F0BD
:1028F0009DFA012141200CF083FE0028EFD009E071
:1029000040F29E70844205D2643402E0DC2C01D98E
:10291000143CA4B220460EF04FFD1E490EF094FD6B
:1029200001F084FA0C48848001F0B4F8B8F1000F8B
:102930007FF41EAF00210D9804F018F90A9830803A
:10294000A6F802B0A6F804A0A6F8069026F817503C
:10295000049811B0BDE8F08FD86A00200000204133
:10296000B5F7CAD4C1F7C1BF00000000C1F7C1BFAD
:10297000B1B6C2CA3A000000C1F7C1BF3A000000B8
:102980004C2F6D00CAE4B3F63A0000008EC801086F
:102990000000C8420AD7233C2DE9F04F8FB0814692
:1029A0002022454902A8FDF766FF4449444801EB4F
:1029B000C906494600EB41000D9001243C36808950
:1029C0004FF0000A40F20355B9F1010F05D0B9F1FB
:1029D000020F02D040F2015B08E000EBC00101EB06
:1029E00000104FF6FF71AB4601EA8000ADF8000021
:1029F00040F60C0741F60C0809F0AEF802A802F008
:102A00007FFB494640F2151006F0EAFA2DA35A461C
:102A1000BDF80010384606F0C5F8318800232A4674
:102A2000404606F0BFF80022214602A802F094FBBF
:102A300004000FD0012C24D0022C33D0032CE5D17C
:102A40002A463146404601F0E9FC0028DED04FF02E
:102A5000010ADBE7BAF1000F0AD023211AA003F024
:102A6000ADF8062807D0072808D00124002CC3D1D0
:102A70000FB0BDE8F08F00F097FAF9E700F02AFAFE
:102A8000F4E75A466946384601F0C8FC0028BDD034
:102A9000BDF800106420B1FBF0F10D98818100F0C9
:102AA000F9FFB3E73146484600F016F80028A3D0F6
:102AB0004FF0010AA0E70000C4D10108646A0020B9
:102AC000D86A00204C2F6D00B1A3B4E6B1EAB6A8D5
:102AD000CAFDBEDD203F00002DE9FF5F80460020DB
:102AE00007460390B8480D4640F2035684880020FC
:102AF0008346019002905FEA080005D0012855D076
:102B0000B8F1020F04D151E040F2015BAFA0029096
:102B100009F022F80121404604F028F8AA4901EB07
:102B2000480A404609F0BEFD8146B8F1000F3FD08B
:102B30004E46A7A1002002F0BBFA2988002340F2EC
:102B40000352192006F02EF8A4A14FF4406002F0C1
:102B5000AFFA5A46494640F60C40029B05F0FCFF8E
:102B6000A0A14FF4C05002F0A3FA404603F0F0FFDA
:102B7000014641F60C0006F045F8642009F0E6FD38
:102B80000028CED009F02AFC112877D040DC01289B
:102B900056D0042873D0092872D01028C1D12888B3
:102BA00042F20F71884249D2401C46E0B346ADE77D
:102BB00009F026FC064609F02DFD014600200246DC
:102BC000009033464846FFF7E7FC064680A1002008
:102BD00002F06EFA2988002340F20352192005F012
:102BE000E1FF82A14FF4006002F062FA5A463146DA
:102BF00040F60C00029B05F0AFFF78A14FF4805027
:102C000002F056FA5A46494641F20C00029BA5E7EB
:102C100021287DD040280CD0412882D1C82C01D950
:102C2000641EA4B2642141200CF0EAFC002870D09C
:102C3000B3E02888632801D9401E2880012770E767
:102C4000B8F1000F1DD0BAF80C00642148430321ED
:102C50000190684A880202F029FA5A4601A940F612
:102C60000C4001F0E9FB0028E9D0012701980EF0A3
:102C7000A3FB81462888642838D234E051E09BE0E9
:102C800081E051485B4A0321808901904FF4006044
:102C900002F00CFA5A4601A940F60C0001F0CCFBF8
:102CA0000028CCD0012701980EF086FB81462888A9
:102CB000642818D316F0FF4F10D00EF07DFB0646A7
:102CC000414880890EF078FB31460EF07BFA0146D0
:102CD00048460EF077FA0EF037FB2880404609F0A0
:102CE000E1FC814664E74FF47A7018E016F0FF4F7C
:102CF000A5D00EF061FB0646BAF80C000EF05CFBA6
:102D000031460EF05FFA014648460EF05BFA01E0EC
:102D10003FE030E038490EF055FA0EF015FB288000
:102D2000FFE640F69800844201D2641CA4B26421FC
:102D300011200CF065FC58B12FE0641CA4B22046B1
:102D40000EF03AFB31460EF07FFB01F06FF800E029
:102D50002A4E012111200CF053FC0028EDD01CE07C
:102D6000641EA4B220460EF027FB31460EF06CFB29
:102D700001F05CF800E0214E012141200CF040FC04
:102D80000028EDD009E040F29E70844205D2643400
:102D900002E0DC2C01D9143CA4B220460EF00CFB5E
:102DA00016490EF051FB01F041F80748848000F00D
:102DB00071FE03980028B3D00021404603F0D6FEF0
:102DC00004B03846BDE8F09FD86A00204C2F6D0053
:102DD000C1F7C1BFB1B6C2CA3A000000B1EABFF63E
:102DE0003A000000CAE4B3F63A000000B9A4BFF606
:102DF0003A0000008EC801080000C8420AD7233CF0
:102E00002DE9F0472B49804601EB08002A4990F84C
:102E10002060012401EBC800002500F13C0A012ECE
:102E200016D0022E43D1254FDFF8949008F094FE7F
:102E3000384602F065F900222146384602F08CF946
:102E40000446052831D2DFE800F006181E282C00C1
:102E50001A4F283FE8E7002D29D0232119A002F0BE
:102E6000ADFE062805D0072821D1BDE8F04700F0C7
:102E700031B8BDE8F04700F097B809EB061200231F
:102E800004E00125D2E709EB061201235146404632
:102E9000FFF7F0FB0028C9D0F3E709EB0612022385
:102EA000F4E709EB06120323F0E7002CBED1BDE8DE
:102EB000F0870000D86A0020646A002024D201084C
:102EC000DCD00108B1A3B4E6B1EAB6A8CAFDBEDD04
:102ED000203F000010B5062231494FF4807001F008
:102EE000B5FC2F4845F6A5214FF47A7482888A42B2
:102EF00003D0E20002804480818072222949802030
:102F000001F0A4FC274845F6A422B0F870109142C5
:102F100044D046F6B321A0F86410A0F86810A0F8D9
:102F20006C10A0F86640A0F86A40A0F86E4041819D
:102F30008181C18101824182048544858485C48563
:102F400004864FF40041018041808180C18001816D
:102F50008182C182018341838183C4830484448448
:102F60008484C48444868486C48604874487848792
:102F7000A0F84440A0F84C40A0F85440A0F85640B7
:102F8000A0F85840A0F85A40A0F85C40A0F85E4075
:102F9000A0F86040A0F86240A0F8702010BD0000CA
:102FA00024020020646A002010B5062205494FF46F
:102FB000807001F05BFC7222BDE810400249802065
:102FC00001F054BC24020020646A00202DE9F04F77
:102FD0000746744800258BB084882E4608F0BCFD57
:102FE00040F20440052F0FD2DFE807F00305070980
:102FF0000B006DA106E071A104E075A102E079A1CA
:1030000000E07DA102F054F88049DFF804A205A891
:10301000EB4601EB47080A90B8F822102BF8151080
:103020000BEB45006D1CB8F81810EDB281820A2D2B
:1030300002D026B10A2103E000250126FAE729463D
:10304000684608F089FC2AF817000EB10A2100E052
:1030500029460A9808F080FC0AEB4709A9F81400F1
:103060000EB10A2100E02946684608F075FC2AF8EE
:1030700017000EB10A2100E029460A9808F06CFCFE
:10308000A9F8140063A140F6064002F011F8384692
:1030900009F03CFB014640F2026900234A4641F236
:1030A000082005F059FD5DA140F6144002F000F83B
:1030B000384609F091FA014600234A4641F21620AB
:1030C00005F04AFD282009F041FB0028A4D009F0B2
:1030D00085F911281FD00BDC012817D0042815D042
:1030E000092899D140F29E7084424DD264344AE05E
:1030F000212845D041288FD1C82C01D9641EA4B203
:10310000642141200CF07CFA80B33DE0FFF74CFFD6
:103110000BB0BDE8F08F40F69800844201D2641CE9
:10312000A4B2642111200CF06BFA58B12CE0641C9D
:10313000A4B220460EF040F949460EF085F900F0A1
:1031400075FE01E0DFF8DC90012111200CF058FA47
:103150000028ECD018E0641EA4B220460EF02CF932
:1031600049460EF071F900F061FE02E0FFE7DFF87A
:10317000B490012141200CF043FA0028EBD003E089
:10318000DC2C01D9143CA4B220460EF015F92549D7
:103190000EF05AF900F04AFE0248848000F07AFCF2
:1031A0003AE70000D86A00203CB7DB20B3BE3E20DF
:1031B000D7D4B6AFB5F7C1E3000000003CC8D5BE18
:1031C000F9413E20D7D4B6AFB5F7C1E30000000007
:1031D0003CC8D5BEF9423E20D7D4B6AFB5F7C1E35F
:1031E000000000003CCAB1BEF9433E20D7D4B6AFC0
:1031F000B5F7C1E3000000003CCAB1BEF9443E206F
:10320000D7D4B6AFB5F7C1E300000000FA660020DE
:10321000646A0020C1F7C1BF3A000000BCC6D1B942
:103220003A0000000AD7233C10B5044602F066FDC0
:1032300040F60E00052C09D2DFE804F003050D0F5F
:10324000110008A100E00BA101F032FF2046BDE80B
:10325000104001F021BD0BA1F6E70EA1F4E711A18A
:10326000F2E70000B7DB20B3BE20D7D4B6AFB5F786
:10327000C1E30000C8D5BEF94120D7D4B6AFB5F739
:10328000C1E30000C8D5BEF94220D7D4B6AFB5F728
:10329000C1E30000CAB1BEF94320D7D4B6AFB5F739
:1032A000C1E30000CAB1BEF94420D7D4B6AFB5F728
:1032B000C1E300002DE9F14F88B018227849684633
:1032C000FDF7D9FA774808990125848876484FF4A4
:1032D000A06800EB410606F114073236002041F2E7
:1032E0000C0940F2035A41F60C0B069001E00798D6
:1032F00058B108F031FC684601F002FF40F21510A9
:10330000089905F06DFE0020079039880023424699
:10331000484605F047FC318800235246584605F0E0
:1033200041FC2946684601F0DBFE60A14FF40060D5
:1033300001F0BEFE089809F04FF901465DA340F286
:10334000026240F60C0005F007FC192009F0FEF9B6
:103350000028EAD02946684601F0C2FE09F03EF88E
:10336000112849D008DC012819D004282ED00928BA
:103370007CD0102817D10CE021287DD0402802D025
:10338000412810D155E06D1CEDB2032D0BD3012562
:1033900009E0012D00D803256D1EEDB203E0012DDB
:1033A00006D0022D08D0002DAFD109B0BDE8F08FB6
:1033B00042463946484602E052463146584601F0F8
:1033C0002DF80028A1D0012006909EE7069800283D
:1033D000EBD0232138A002F0F1FB062802D0072809
:1033E00006D102E0FFF7E0FDDFE7FFF7DDFD002596
:1033F000002D7FF47BAFD8E740F69800844201D2DD
:10340000641CA4B2642111200CF0FAF850B137E02A
:10341000641CA4B220460DF0CFFF2B490EF014F827
:1034200000F004FD012111200CF0EAF80028EFD093
:1034300026E0C82C01D9641EA4B2642141200CF0FE
:10344000DFF850B11CE0641EA4B220460DF0B4FFBA
:103450001D490DF0F9FF00F0E9FC012141200CF0BD
:10346000CFF80028EFD00BE000E005E040F29E70BE
:10347000844205D2643402E0DC2C01D9143CA4B2AD
:1034800020460DF099FF10490DF0DEFF00F0CEFC54
:103490000448848000F0FEFA002D7FF428AF84E712
:1034A00094D10108D86A0020646A0020BCC6D1B952
:1034B0003A0000006B506100B1A3B4E6B1EAB6A8CF
:1034C000CAFDBEDD203F00000AD7233C2DE9F14FA5
:1034D000774882B0012584887648029940F20267D5
:1034E00000EB410606F10A082836002041F20C0BD9
:1034F00040F2035941F60C0A009001E0019858B1DE
:1035000008F02AFB6C4801F0FBFD40F2151002990F
:1035100005F066FD00200190B8F8001000233A463F
:10352000584605F03FFB318800234A46504605F0D7
:1035300039FB2946604801F0D3FD60A14FF40060DB
:1035400001F0B6FD029809F067F801465DA33A461E
:1035500040F60C0005F000FB192009F0F7F80028F0
:10356000EBD02946544801F0BBFD08F037FF112885
:1035700049D008DC012819D004282DD009287CD096
:10358000102817D10CE021287DD0402802D04128F6
:1035900010D155E06D1CEDB2032D0BD3012509E0D0
:1035A000012D00D803256D1EEDB203E0012D05D0DD
:1035B000022D07D0002DAFD1BDE8FE8F3A4641461F
:1035C000584602E04A463146504600F027FF0028A0
:1035D000A2D0012000909FE700980028ECD0232182
:1035E00039A002F0EBFA062802D0072807D103E041
:1035F000BDE8FE4FFFF7D8BCFFF7D6FC0025002D35
:103600007FF47BAFD8E740F69800844201D2641C77
:10361000A4B2642111200BF0F3FF50B137E0641C19
:10362000A4B220460DF0C8FE2B490DF00DFF00F0AE
:10363000FDFB012111200BF0E3FF0028EFD026E075
:10364000C82C01D9641EA4B2642141200BF0D8FF1C
:1036500050B11CE0641EA4B220460DF0ADFE1E4920
:103660000DF0F2FE00F0E2FB012141200BF0C8FF5B
:103670000028EFD00BE000E005E040F29E708442AD
:1036800005D2643402E0DC2C01D9143CA4B22046FB
:103690000DF092FE10490DF0D7FE00F0C7FB044874
:1036A000848000F0F7F9002D7FF428AF84E7000054
:1036B000D86A0020646A00207CD10108CEC2B6C856
:1036C0003A000000A1E60000B1A3B4E6B1EAB6A852
:1036D000CAFDBEDD203F00000AD7233C2DE9F14F93
:1036E00088B0182278496846FDF7C5F877480899E8
:1036F0000125848876484FF4A06800EB410700203C
:1037000007F11E0641F20C0940F2035A41F60C0B78
:10371000069001E0079858B108F01EFA684601F0DB
:10372000EFFC40F21510089905F05AFC00200790B4
:10373000398800234246484605F034FA3188002390
:103740005246584605F02EFA2946684601F0C8FC54
:1037500060A14FF4006001F0ABFC089808F0D6FFC0
:1037600001465EA340F2036240F60C0005F0F4F956
:10377000192008F0EBFF0028EAD02946684601F03E
:10378000AFFC08F02BFE112849D008DC012819D025
:1037900004282ED009287CD0102817D10CE021282D
:1037A0007DD0402802D0412810D155E06D1CEDB2EB
:1037B000032D0BD3012509E0012D00D803256D1E33
:1037C000EDB203E0012D06D0022D08D0002DAFD1BF
:1037D00009B0BDE8F08F42463946484602E05246FD
:1037E0003146584600F01AFE0028A1D0012006906C
:1037F0009EE706980028EBD0232139A002F0DEF9DD
:10380000062802D0072806D102E0FFF7CDFBDFE74C
:10381000FFF7CAFB0025002D7FF47BAFD8E740F609
:103820009800844201D2641CA4B2642111200BF0E0
:10383000E7FE50B137E0641CA4B220460DF0BCFD99
:103840002B490DF001FE00F0F1FA012111200BF0DF
:10385000D7FE0028EFD026E0C82C01D9641EA4B200
:10386000642141200BF0CCFE50B11CE0641EA4B2D8
:1038700020460DF0A1FD1E490DF0E6FD00F0D6FA40
:10388000012141200BF0BCFE0028EFD00BE000E04E
:1038900005E040F29E70844205D2643402E0DC2CE4
:1038A00001D9143CA4B220460DF086FD10490DF05C
:1038B000CBFD00F0BBFA0548848000F0EBF8002D4A
:1038C0007FF428AF84E70000ACD10108D86A00205B
:1038D000646A0020B2EED1B93A0000006B5061007A
:1038E000B1A3B4E6B1EAB6A8CAFDBEDD203F000030
:1038F0000AD7233C10B5402207494FF4C07000F0AE
:10390000A5FF0548C08FA0F5B4418B3903D0BDE8B1
:10391000104000F003B810BDD86A002030B50F4C3D
:10392000207830B1012807D0022808D003280BD115
:1039300008E000F08FF807E000F072F804E000F013
:1039400055F801E000F038F8E08F45F68B25A842E5
:1039500002D000F005F8E58730BD0000D86A0020ED
:1039600013484FF49671F0224185002180F8291008
:1039700080F82810C284012202728270C1704272E3
:1039800042F2957343814FF4FA638380322383714B
:103990000223C3714FF47A73C3850386642343867D
:1039A00080F82C100349416380F83C2070470000E8
:1039B000D86A0020D9AB09000B4803214FF47A7272
:1039C00000F8061C00218176C280C17602220281A5
:1039D0000177428101224277052383818277C38167
:1039E000C27780F827107047DE6A00200B48022259
:1039F000002300F8062C83764FF47A71C1800121F0
:103A0000C1760281017742814177052282818177E7
:103A1000C281C17780F8273070470000DE6A00203D
:103A20000B4801214FF47A7200F8061C8176C2809F
:103A30000022C27602230381027743814177052366
:103A400083818177C381C17780F827207047000088
:103A5000DE6A002010B50E480023012100F8063C64
:103A60004FF47A728176C28054100482C1760224A7
:103A700004814282017744818282417705248481D6
:103A8000C2828177C4810283C17780F8273010BD5C
:103A9000DE6A0020402202494FF4C07000F0E6BE0A
:103AA000D86A00202DE9F84FDFF8E8B0012500269C
:103AB0009BF82840BBF82600ADF8000040F2015703
:103AC00041F21448DFF8D09040F6164A08F044F866
:103AD00031481C3001F014FBC4EBC401494450468A
:103AE00001F0E6FA2DA33A46BDF80010404605F075
:103AF00059F82948002229461C3001F02DFB050009
:103B000023D0012D1DD0022DE6D13A46694640460C
:103B100000F084FC0028DFD0BDF80000962804D215
:103B20009620ADF8000007F026FFBDF800104FF416
:103B30009670814203D9ADF8000007F01CFF012602
:103B4000CAE7641C04F00304F9E7002E0BD023211C
:103B500013A002F033F802281AD0062805D007284F
:103B600001D1FFF7C7FEBDE8F88F0BF12605AC7059
:103B7000BDF80000ABF82600FFF78CFF28880DF099
:103B80001BFC0B490DF060FCA9780CF065FBEAE723
:103B900001259BE7D86A0020B0D30108A1E6000008
:103BA000B1A3B4E6C5E4D6C3CAFDBEDD203F000024
:103BB000CDCCCC3D2DE9F84F404E0125002796F89D
:103BC0002940708DADF8000040F2015A4FF4AF78F3
:103BD000DFF8EC9040F6194B07F0BEFF34B13848DF
:103BE000E03001F08DFA012C05D00CE03448F830BB
:103BF00001F086FA07E033A35246BDF8001040F604
:103C0000144004F0CFFF59F82410584601F050FA40
:103C10004FF00002294634B32948E03001F09CFA05
:103C2000050028D0012D21D0022DDCD1012CD3D1CB
:103C30005246694641F6140000F0F0FB0028CBD054
:103C4000BDF80000962804D29620ADF8000007F0D9
:103C500092FEBDF80010414503D9ADF8008007F091
:103C60008AFE0127B8E71648F830D7E70CB10024E0
:103C7000F7E70124F5E7002F0BD0232112A001F074
:103C80009DFF022817D0062805D0072801D1FFF78D
:103C900031FEBDE8F88FBDF80000708586F8294038
:103CA000FFF7F8FE708D0DF087FB0B490DF0CCFB94
:103CB0000CF0E6FAEDE701258EE70000D86A002057
:103CC00004D30108A1E60000B1A3B4E6C5E4D6C35D
:103CD000CAFDBEDD203F0000CDCCCC3D2DE9F05F1C
:103CE000002540F202594FF4247640F2145A4FF462
:103CF0008177DFF890804FF4897B234C07F02CFF0D
:103D0000224A4946304606F072FA204A5146304669
:103D100006F06DFA1EA1384601F0CAF91F4A0621C5
:103D2000384601F0C3F92178584658F8211001F0BF
:103D3000BFF9FFF7F3FD02F045FE08F04FFB012845
:103D40000ED00428DAD13DB1232115A001F036FFB1
:103D500006280FD00728D1D1BDE8F05FFFF7CABD14
:103D60002078401CC0B22070042801D300202070AD
:103D70000125C3E7FFF7D2FDFFF78CFEBDE8F05F3A
:103D800004F074BB5CCF0108D86A00204EC601085D
:103D9000D2C7C6F7D0CDBAC53A0000008EC8010818
:103DA000B1A3B4E6D0DEB8C4BDE1B9FB3F0000006A
:103DB0002DE9FF5F00249B4691468A46264625460C
:103DC0003AF814000DF0F8FA17490DF03DFBB04633
:103DD00059F8246001462F4630460DF0F3F90546A8
:103DE000014600980DF0FCFB03D2641CE4B25C4574
:103DF000E6D3394628460DF0ADFC04464146304630
:103E00000DF0A8FC21460DF0DDF904463946009876
:103E10000DF0A0FC21460DF017FB04B04146BDE8B3
:103E2000F05F0DF05BB900006F12833A0149486002
:103E3000704700002800002001490870FDF7FCBE13
:103E4000280000200A4980B1012806D0022807D0A6
:103E5000032808D04FF0FF3007E043F6982004E035
:103E600047F2305001E04EF6602048607047000095
:103E70000800002003F082BDC0B2202800D27F20BD
:103E8000024901EB0010A0F5007070473E190108CF
:103E9000C0B2202800D27F20034900EB400001EB94
:103EA0000010A0F5C06070470E6701080048704719
:103EB0003E1F010870B5C0B20123114D60F31F21F0
:103EC000F7229818400805EB400415F81060647854
:103ED00004EB0624A4B2A14205D10A4900EBC000BC
:103EE00001EBC00070BD03D900F1010083B202E014
:103EF000A0F1010082B29342E3D9024870BD0000F4
:103F00005E1F01084E21010870B50C460646154695
:103F10000021A02007F0D2FD60B1300A07F09CFD1F
:103F200040B1F0B207F098FD20B10121A02007F0C8
:103F3000C5FD48B907F0FCFD002070BD002007F06A
:103F400055FDC04304F8010B6D1E15F0FF05F5D1BA
:103F5000012007F04BFDC043207007F0E9FD012070
:103F600070BD000070B50C46064615460021A02025
:103F700007F0A4FD08B3300A07F06EFDE8B1F0B217
:103F800007F06AFDC8B100BF14F8010BC043C0B20E
:103F900007F062FD88B16D1E15F0FF05F4D107F042
:103FA000C7FDA0254FF4C8740021284607F086FD00
:103FB00030B107F0BDFD012070BD07F0B9FD03E091
:103FC000641E2404240CEFD1002070BD10B500F055
:103FD00083FF10BD034901200870034940030860B6
:103FE00070470000380000201404014010B500F0B4
:103FF00073FF10BD10B500F06FFF10BD10B500F0DD
:104000006BFF10BD10B500F067FF10BD10B500F0DC
:1040100063FF10BD2DE9F34FDFF808928B4691B096
:104020000126B9F8044001A95846FCF771FD06982D
:10403000DFF8F4A100F26C7085B20598401C00F026
:10404000FF080498C7B243462A4678A10CA80097F7
:10405000FCF7BEF90CA9119801F02AF8012E04D042
:10406000022E06D0032E09D118E0744A04211198BB
:1040700002E011980A3013E001F018F808F0AEF9E8
:1040800011286AD024DC082869D00DDC012873D0FF
:104090000428D8D1002013B0BDE8F08F119810305B
:1040A00080B2664A0221E7E7092873D01028CAD1F6
:1040B000012E1FD0022E26D0032EC4D14146284601
:1040C00007F04CFD7F1CFFB2B842BCD20127BAE713
:1040D00020284AD021287BD040281DD04128B2D1A9
:1040E000C82C01D9641EA4B2642141200BF088FAC7
:1040F00090B389E06D1CADB240F633008542A2D981
:104100004FF4FA659FE708F1010000F0FF08B8F1ED
:104110000C0F98D901201DE0012E0DD0022E13D0D6
:10412000032E90D17F1E17F0FF078CD14146284601
:1041300007F014FD074686E76D1EADB2B5F5FA6FC0
:1041400081D240F633057EE7A8F1010010F0FF08A8
:10415000BDD10C20804676E745E01CE0FFE7761CE9
:10416000F6B2032EB3D901266DE7761E16F0FF06D0
:10417000ADD1032667E7FFE7A5F26C75A8F1010052
:104180000497CDE9050501A8FCF70BFCCBF800006E
:10419000012080E72EE040F69800844201D2641CA2
:1041A000A4B2642111200BF02BFA50B12CE0641C56
:1041B000A4B220460DF000F951460DF045F9FFF785
:1041C00035FE012111200BF01BFA0028EFD01BE077
:1041D00016E0641EA4B220460DF0EEF851460DF034
:1041E00033F9FFF723FE012141200BF009FA0028E3
:1041F000EFD009E040F29E70844205D2643402E0C0
:10420000DC2C01D9143CA4B220460DF0D5F851465F
:104210000DF01AF9FFF70AFEA9F80440FFF73AFC7F
:1042200011E70000D86A00200AD7233C25303475F6
:104230002D253032752D2530327500008EC80108CD
:104240002DE9F04F6E4F884691B08346BC8801251A
:1042500001A94046FCF75CFC6A4E4FF0180A4FF08B
:104260003C090198DDE90232009067A10CA8FCF737
:10427000AFF80CA9584600F01BFF012D04D0022D09
:1042800006D0032D09D118E0634A0221584602E006
:104290000BF1060013E000F009FF08F09FF8112869
:1042A00068D01DDC082851D00DDC01285BD0042823
:1042B000D7D1002011B0BDE8F08F0BF10C0080B217
:1042C000554A0221E7E7092871D01028C9D1012DEC
:1042D00018D0022D19D0032DC3D10198401C1FE026
:1042E000202839D021287BD0402811D04128B8D1AE
:1042F000C82C01D9641EA4B2642141200BF080F9BE
:1043000080B371E00398401C12E00298401C17E053
:10431000012D0BD0022D11D0032DA2D101983B30DD
:10432000B0FBF9F209FB120001909AE703981730ED
:10433000B0FBFAF20AFB1200039092E702983B30BE
:10434000B0FBF9F209FB120002908AE76D1CEDB296
:10435000032D86D9012584E76D1E15F0FF0580D158
:1043600003257EE72EE001A8FCF71BFBC8F8000040
:1043700001209FE740F69800844201D2641CA4B259
:10438000642111200BF03CF950B12DE0641CA4B263
:1043900020460DF011F831460DF056F8FFF746FDB6
:1043A000012111200BF02CF90028EFD01CE011E0C6
:1043B000641EA4B220460CF0FFFF31460DF044F815
:1043C000FFF734FD012141200BF01AF90028EFD04E
:1043D0000AE005E040F29E70844205D2643402E0B7
:1043E000DC2C01D9143CA4B220460CF0E5FF314688
:1043F0000DF02AF8FFF71AFDBC80FFF74BFB30E702
:10440000D86A00200AD7233C253032753A2530324D
:10441000753A2530327500008EC8010838B50C4653
:1044200009880091694600F007F8002802D000983A
:104430002080012038BD00002DE9F74F90B0002505
:104440001198904612F0FF070168724884884FEA7D
:104450001220814601D0A9F10100C6B26E48A6EB38
:10446000070A50F82600B1FBF0F200FB121B584679
:104470000CF0A2FF6849283151F827100CF0A2FE79
:104480000CF000FECDE9000108F0FF034A4663A1ED
:104490000AA8FBF79DFF0AA9109800F009FE1098E2
:1044A000AA4500EB450000DC801C80B25D4A01217A
:1044B00000F0FCFD681C0090864206D35648711B34
:1044C00000EB810050F8040C00E00120019007F09F
:1044D00085FF112857D01CDC082843D007DC0128B1
:1044E0004CD00428C3D1002013B0BDE8F08F0928B8
:1044F00079D01028BBD101990A20BBFBF1F1B1FBA7
:10450000F0F200FB1210092815D001990BEB010005
:1045100020E020282AD021286BD040280ED0412826
:10452000A5D1C82C01D9641EA4B2642141200BF08E
:1045300067F8A0B361E0019840420EE001990A20BB
:10454000BBFBF1F1B1FBF0F200FB121020B10199BD
:10455000ABEB010083468AE7019800EBC00101EB59
:104560000B00F7E70098B0FBF6F103E0A819401E36
:1045700090FBF6F106FB1100C5B278E71199012016
:10458000C1F800B0B0E740F69800844201D2641C44
:10459000A4B2642111200BF033F858B12DE01AE0D9
:1045A000641CA4B220460CF007FF1F490CF04CFF1E
:1045B000FFF73CFC012111200BF022F80028EFD07E
:1045C0001BE0641EA4B220460CF0F6FE16490CF067
:1045D0003BFFFFF72BFC012141200BF011F80028D5
:1045E000EFD00AE0FFE740F29E70844205D26434C7
:1045F00002E0DC2C01D9143CA4B220460CF0DCFE15
:1046000009490CF021FFFFF711FC02488480FFF7F5
:1046100041FA2CE7D86A0020D4CD010825302A2E93
:104620002A6600008EC801080AD7233C2DE9F35FF3
:104630000A8889464FF03C0BB2FBFBF16423B1FBC7
:10464000F3F4DFF8FCA103FB14160BFB1125BAF8F9
:1046500004404FF000080127C6EB061005EB80016F
:10466000009804F0E9FC012F06D0022F08D0032F98
:1046700018D0042F09D118E0724A0121009802E0F5
:104680000098801C13E000F011FD07F0A7FE112830
:104690007FD015DC082861D00DDC01286CD00428FF
:1046A0005BD172E00098801D01E00098083080B274
:1046B000644A0121E7E7092877D010284DD108E0A6
:1046C000202851D0212871D0402813D0412844D12E
:1046D0007EE0012F06D0022F06D0032F06D0042F34
:1046E0003BD105E00A360FE0711C15E00A3521E0E8
:1046F000691C26E0012F06D0022F0BD0032F18D003
:10470000042F2AD11BE05A366420B6FBF0F100FBDF
:104710001166A1E706F109010A20B1FBF0F200FBE6
:104720001211B6FBF0F000EB800001EB4000C6B2C6
:1047300092E73235B5FBFBF10BFB11558CE705F128
:1047400009010A20B1FBF0F200FB1211B5FBF0F0F9
:1047500000EB800001EB4000C5B26AE07F1CFFB2B5
:10476000042F66D9012764E07F1E17F0FF0760D190
:1047700004275EE00DE0FFE7C6EB061005EB8001C5
:10478000A9F800104FF0010856E04FF00008474626
:104790004FE040F69800844201D2641CA4B2642128
:1047A00011200AF02DFF60B137E02CE031E0641CED
:1047B000A4B220460CF000FE23490CF045FEFFF7A2
:1047C00035FB012111200AF01BFF0028EFD024E067
:1047D000C82C01D9641EA4B2642141200AF010FF44
:1047E00050B11AE0641EA4B220460CF0E5FD164953
:1047F0000CF02AFEFFF71AFB012141200AF000FF0E
:104800000028EFD009E040F29E70844205D2643463
:1048100002E0DC2C01D9143CA4B220460CF0CCFD03
:1048200009490CF011FEFFF701FBAAF80440FFF75D
:1048300031F9002F7FF46DAF4046BDE8FC9F0000CA
:10484000D86A00208EC801080AD7233C70B51446E8
:104850000D46064607F0BCF8E2B229463046FFF79F
:1048600053FB044607F0BCF8204670BD70B51446F3
:104870000D46064607F0ACF8E2B229463046FFF78F
:1048800071FB044607F0ACF8204670BD70B50BA074
:10489000FDF762FA0C4D0024102255F824000B4954
:1048A000FDF77CFA55F8240040221021FDF7CAF9E3
:1048B000641CE4B2052CEFD370BD00005C53414D85
:1048C000504C455200000000F8CA01085A0100206F
:1048D00010B51446064A01EB8101C90052F82000C8
:1048E0002423224602F054FF002800D1206010BD8E
:1048F000F8CA010870B50D460446164664210A48F8
:10490000FBF7EBFF242231460748FBF76FFF05EB6F
:104910008500C10005482823034A50F82400BDE85B
:10492000704002F037BF000038660020F8CA010866
:1049300070B58CB00D460446302226496846FBF718
:104940009AFF25492846FCF7E3F8234822492C30F2
:10495000C368CA6893423BD04B6903F26C734361EE
:104960000969491CC0E9032161696422481E90FB62
:10497000F2F3C51700EB9575C3EBA503950090FB0B
:10498000F5F633448E070ED191FBF2F602FB1612B8
:1049900022B991FBF5F205FB121121B92169022917
:1049A00001DD012100E0002122696D4605EB820254
:1049B000E56852F8042C2A4440F26D1500FB0530DE
:1049C00010440844072190FBF1F201FB1200A061A2
:1049D0000CB070BD24CE01084C6900202DE9F05FB9
:1049E0000026354607F0B8F8234800F089FB01F0AF
:1049F00065F9224C4FF480674FF4C36A40F61819EA
:104A000040F6184840F2025B218800233A4650469F
:104A100004F0C8F8618800233A46484604F0C2F81A
:104A2000A18800233A46404604F0BCF800222946FB
:104A3000114800F091FB054601280BD0022D0DD046
:104A4000032D0FD0002DDFD1002E12D0BDE8F05F76
:104A500001F03CB93A460949504606E05A46A11CC5
:104A6000484602E05A46211D4046FFF7D7FC012682
:104A7000CAE7BDE8F09F00000CD501085A020020EB
:104A800070B5154C154E204694F8251090F8285016
:104A9000C08C012915D0022909D003291BD10CF0A3
:104AA0008BFC31460CF0D0FC29460BF0D5FB608D19
:104AB0000CF082FC31460CF0C7FCBDE870400BF0F6
:104AC000DFBB0CF079FC31460CF0BEFC2946BDE89A
:104AD00070400BF0C1BB70BDD86A0020CDCCCC3D7E
:104AE0001148816941F0010181611049202048612C
:104AF0000F48016821F400510160001F016821F492
:104B00005C4101600A49091D0A680A60091D0A68BA
:104B100042F400520A60064A4114103211600168E2
:104B200041F4005101607047001002400000014054
:104B30000404014008B50020009001F0DFF808A14E
:104B400040F6162000F0B4FA4FF4C062694641F214
:104B50001620FFF771FC002800D0009808BD000067
:104B6000CAE4C8EBC3DCC2EB3A00000010B50DA1EB
:104B700040F60F0000F09CFA0EA140F60F4000F046
:104B800097FA10A141F20F0000F092FA11A141F240
:104B90000F4000F08DFABDE8104012A141F60F0061
:104BA00000F086BAB0FCC0A8CAB1BCE4C9E8D6C35C
:104BB00000000000CEACBBA4C3DCC2EBB5C4D0DEA9
:104BC000B8C40000D2D4BCB0D2BABEA7C6C1C4BB60
:104BD000B5C40000CFD4CABEB6D4B1C8B6C820C1CF
:104BE000C1B6C800BACDC1C1C6C1CAB1B3A4000024
:104BF0002DE9F041012406F0AFFF4FF431664FF488
:104C0000C0681A4D41F2142701F078F8184800F0F6
:104C100077FA184A2146164800F09EFA0446012801
:104C200007D0022C08D0032C1CD0002CECD1BDE8FE
:104C3000F0810AF0D9F8E7E701F060F80EA13046FC
:104C400000F036FA424629463846FFF7F5FB0028C1
:104C5000DAD000210CA000F0B1FF06F07DFFFEF7D6
:104C600019FFD1E709F0FEFFCEE700000C6B002032
:104C700044D301086D4B0008C7EBCAE4C8EBD0C2AF
:104C8000C3DCC2EB3A000000C3DCC2EBD0DEB8C428
:104C9000B3C9B9A6210000002DE9F04F07466948C5
:104CA0008BB0694984880025DFF8A0A105A82E46AD
:104CB000EB4601EB47080A90B8F822102BF81510C4
:104CC0000BEB45006D1CB8F81810EDB281820A2D6F
:104CD00002D026B10A2103E000250126FAE7294681
:104CE000684606F039FE2AF817000EB10A2100E0E6
:104CF00029460A9806F030FE0AEB4709A9F8140085
:104D00000EB10A2100E02946684606F025FE2AF881
:104D100017000EB10A2100E029460A9806F01CFE91
:104D2000A9F814004AA140F60F7000F0C1F9384606
:104D300007F0ECFC014640F2026900234A4641F2CA
:104D40000E5003F009FF44A140F61C7000F0B0F9CA
:104D5000384607F041FC014600234A4641F21B5009
:104D600003F0FAFE282007F0F1FC0028A4D007F099
:104D700035FB11281FD00BDC012817D0042815D0D3
:104D8000092899D140F29E7084424DD264344AE0A1
:104D9000212845D041288FD1C82C01D9641EA4B246
:104DA000642141200AF02CFC80B33DE0FEF7FCF8C2
:104DB0000BB0BDE8F08F40F69800844201D2641C2D
:104DC000A4B2642111200AF01BFC58B12CE0641C31
:104DD000A4B220460CF0F0FA49460CF035FBFFF780
:104DE00025F801E0DFF87890012111200AF008FC95
:104DF0000028ECD018E0641EA4B220460CF0DCFAC7
:104E000049460CF021FBFFF711F802E0FFE7DFF85D
:104E10005090012141200AF0F3FB0028EBD003E081
:104E2000DC2C01D9143CA4B220460CF0C5FA0C4984
:104E30000CF00AFBFEF7FAFF02488480FEF72AFE18
:104E40003AE70000D86A0020FA660020646A002071
:104E5000C1F7C1BF3A000000BCC6D1B93A0000009A
:104E60000AD7233C0449FF2008600348143801682E
:104E70006FF3090101607047140401401348816910
:104E800041F0010181611248012181600021C1606E
:104E9000104801686FF309010160001F016821F4E7
:104EA000407101600B49091D0A6842F0FF020A6067
:104EB000091D0A6842F0FF020A60064AFF2110320B
:104EC0001160016841F0FD0101607047001002406F
:104ED000000001400404014010B5FFF7C3FF034880
:104EE000C068BDE810400AF0FBBA000008000020CE
:104EF00010B5002108480AF0DBFA084C0021E060F8
:104F00000548001D0AF0D4FAA06003480021BDE85E
:104F1000104008300AF00EBB2419010808000020D8
:104F20000F48816941F004018161816941F0080104
:104F300081610C49FC2008600B4903200860094886
:104F400010380168094AC9B2114301600648103897
:104F5000016821F00F0141F0080101607047000075
:104F60000010024010080140100C014000888888A1
:104F7000064800680649C0F38500096801F0010190
:104F800040EA81117F2088437047000008080140F3
:104F9000080C01402DE9F041374D28880CF00CFA3F
:104FA00036490CF051FA364C0646206168880CF000
:104FB00003FA344F39460CF047FA014630460CF0FC
:104FC00001F96061A8880CF0F7F939460CF03CFA59
:104FD00031460CF039FAA0612B4805682B48854210
:104FE00000DD05462A48008905F0CCF90146E06855
:104FF0006062804628460CF0ADFB0546E06029461D
:1050000020690CF021FA07466060294660690CF0BF
:105010001BFAA1680CF062F80646A06041462846DB
:105020000CF098FBA1690CF00FFA0546206231469E
:1050300038460CF053F829460CF050F815490CF09E
:1050400003FA05461449E0690CF0FEF929460CF014
:1050500045F81249E061884202DC1149884200DAD1
:10506000E1611049E0690CF0EFF90CF06DF9BDE871
:10507000F04180B200F03ABE5A020020ACC527379A
:10508000900000200AD7233C2C0000200000B041F3
:10509000EC6600203333333F9A99993E83C02A3F10
:1050A0000AD7A33C0000D84604F012BA02F0C0BDF3
:1050B00002F0B8BE08498A6942F010028A6108B15C
:1050C000891501E04FF0807104480161416821F0C9
:1050D0000F01C91C416070470010024000100140E0
:1050E00070B50C4600EBC40605467068FBF708FB7C
:1050F000C1B235F834007268BDE87040FFF7D6BF22
:1051000070B501880546080ACEB201D07043C6B218
:10511000696819B14FF48170FFF7CAFF4FF4247426
:105120000C4A40F20251204605F061F8094A40F26B
:105130001451204605F05BF8012408E005EBC4009B
:10514000416835F83400FFF7B3FF641CE4B2B442A1
:10515000F4D970BD4EC6010800F03AB930B41C460F
:105160001346224630BC00F005BA30B41C46134644
:10517000224630BC00F0E8BA30B41C461346224642
:1051800030BC00F001B800002DE9FF5F06460C4678
:1051900085483188904685884FF0000B080ACFB2C9
:1051A00032D0784300F0FF0A0CB1544500D90124F5
:1051B00006EBC409D9F80400FBF7A2FAC1B236F82D
:1051C0003400D9F80420FFF771FF00BF5FEA080040
:1051D00000D08047322007F0B9FA0028F6D036F820
:1051E0003400D9F80410FFF763FF07F0F7F8102830
:1051F00047D00BDC0A28DBD2DFE800F005575B055F
:10520000D005A9052292D3E7BA46CDE7212872D06E
:1052100008DC11284FD02028CAD1039850EA0B008F
:105220003CD032E0402823D04128C1D1C82D01D93B
:105230006D1EADB2642141200AF0E2F9A0B379E01D
:10524000039850EA0B0017D003E000BFA4EB0A005C
:105250000CE0B4FBF7F007FB104008B9E01BC4B248
:10526000641CE4B2A4E7E01B00E0E019C4B29FE7CD
:10527000039830EA0B00ECD1E019C4B2544597D939
:10528000E4E7039830EA0B0008D0641EE4B2B4FBF4
:10529000F7F007FB104000288AD1E6E7BC42E2D8CD
:1052A00004EB0A00C4B2DEE731E0204604B0BDE8FA
:1052B000F09FFF20FAE740F69800854201D26D1C6E
:1052C000ADB2642111200AF09BF958B132E06D1C97
:1052D000ADB228460CF070F849460CF0B5F8FEF770
:1052E000A5FD01E0DFF8C490012111200AF088F942
:1052F0000028ECD01EE019E06D1EADB228460CF07F
:105300005BF849460CF0A0F8FEF790FD01E0DFF8ED
:105310009C90012141200AF073F90028ECD009E0AB
:1053200040F29E70854205D2643502E0DC2D01D941
:10533000143DADB228460CF03FF81C490CF084F83F
:10534000FEF774FD18488580FEF7A4FB30E7C821FE
:1053500006200AF055F9002884D106F00CFB6420E1
:1053600006F04EFC06F007FB06F0F6FB10A14FF42A
:10537000C160FFF79DFEFEF7BDFA0B494FF4E062F6
:10538000383140F60C40FFF757F838B104210CA033
:1053900000F014FC062803D0FEF7ACFA002085E7E5
:1053A000FEF778FBFAE70000D86A00200AD7233C12
:1053B000C7EBCAE4C8EBB3F6B3A7B1E0BAC53A008D
:1053C000CAC7B7F1B1A3B4E6B1E0BAC53F00000067
:1053D0002DE9F05F0C46DFF894B101880646BBF872
:1053E00004509046080ACFB232D0784300F0FF0A4A
:1053F0000CB1544500D9012406EBC409D9F80400C6
:10540000FBF77EF9C1B236F83400D9F80420FFF773
:105410004DFE00BF5FEA080000D08047322007F051
:1054200095F90028F6D036F83400D9F80410FFF7C3
:105430003FFE06F0D3FF10283DD00BDC0A28DBD25C
:10544000DFE800F00540450543050505277DD3E766
:10545000BA46CDE7212878D00DDC112839D0202894
:10546000CAD1641EE4B2B4FBF7F007FB1040002879
:10547000C2D1E0191DE0402815D04128BCD1C82D6B
:1054800001D96D1EADB2642141200AF0B9F8B8B35C
:105490005FE0B4FBF7F007FB104008B9E01BC4B2B3
:1054A000641CE4B2A8E7E019C4B25445A4D9A4EB43
:1054B0000A00C4B2A0E7BC4202D804EB0A00C4B29E
:1054C000E01BF6E72046BDE8F09F0020FBE7FF2049
:1054D000F9E740F69800854201D26D1CADB2642117
:1054E00011200AF08DF860B133E06D1CADB2284692
:1054F0000BF062FF49460BF0A7FFFEF797FC02E0B6
:1055000013E0DFF86C90012111200AF079F80028EF
:10551000EBD01EE06D1EADB228460BF04DFF4946A4
:105520000BF092FFFEF782FC01E0DFF844900121CE
:1055300041200AF065F80028ECD00AE005E040F2CE
:105540009E70854205D2643502E0DC2D01D9143D00
:10555000ADB228460BF030FF05490BF075FFFEF7A2
:1055600065FCABF80450FEF795FA45E7D86A0020D1
:105570000AD7233C2DE9FF5F06460C467048318868
:10558000904685884FF0000B080ACFB232D078439E
:1055900000F0FF0A0CB1544500D9012406EBC40900
:1055A000D9F80400FBF7ACF8C1B236F83400D9F8EA
:1055B0000420FFF77BFD00BF5FEA080000D08047B2
:1055C000322007F0C3F80028F6D036F83400D9F8B6
:1055D0000410FFF76DFD06F001FF102847D00BDC2B
:1055E0000A28DBD2DFE800F005575D055B050505FD
:1055F0002294D3E7BA46CDE7212874D008DC1128DD
:1056000051D02028CAD1039850EA0B003CD032E098
:10561000402823D04128C1D1C82D01D96D1EADB27B
:105620006421412009F0ECFFA0B37BE0039850EA2D
:105630000B0017D003E000BFA4EB0A000CE0B4FBA2
:10564000F7F007FB104008B9E01BC4B2641CE4B2D9
:10565000A4E7E01B00E0E019C4B29FE7039830EA3A
:105660000B00ECD1E019C4B2544597D9E4E7039894
:1056700030EA0B0008D0641EE4B2B4FBF7F007FB7D
:10568000104000288AD1E6E7BC42E2D804EB0A00C9
:10569000C4B2DEE733E0204604B0BDE8F09F00204E
:1056A000FAE7FF20F8E740F69800854201D26D1C2A
:1056B000ADB26421112009F0A3FF58B132E06D1C96
:1056C000ADB228460BF078FE49460BF0BDFEFEF762
:1056D000ADFB01E0DFF86C900121112009F090FF93
:1056E0000028ECD01EE019E06D1EADB228460BF08C
:1056F00063FE49460BF0A8FEFEF798FB01E0DFF8D9
:1057000044900121412009F07BFF0028ECD009E002
:1057100040F29E70854205D2643502E0DC2D01D94D
:10572000143DADB228460BF047FE06490BF08CFE47
:10573000FEF77CFB02488580FEF7ACF92EE70000FF
:10574000D86A00200AD7233C2DE9FF5F064673483C
:105750000C4631888588080AC9B2984691468A461F
:1057600030D000FB0AF0C0B200900CB1844200D9E6
:10577000012406F027FF834606EBC40703977868E9
:10578000FAF7BEFFC1B236F834007A68FFF78EFC34
:105790005FEA090000D0804706F014FFA0EB0B0081
:1057A000C7B2A8EB07025EA101A8FAF711FE01A992
:1057B00040F60970FFF77CFC474507D3012004B091
:1057C000BDE8F09F0846CDF800A0CEE7322006F0F5
:1057D000BDFF0028DCD00398416836F83400FFF79D
:1057E00067FC06F0FBFD10283ED009DC0A28C3D276
:1057F000DFE800F00542460544050505267CBBE7C9
:10580000212879D00EDC11283CD02028B4D1641E88
:10581000E4B2B4FBFAF10AFB11400028ACD104EB6E
:105820000A001FE0402816D04128A5D1C82D01D973
:105830006D1EADB26421412009F0E2FEC8B35FE005
:10584000B4FBFAF10AFB114010B9A4EB0A00C4B290
:10585000641CE4B290E704EB0A00C4B200988442EE
:105860008AD9201AC4B287E7544502D80098204448
:10587000C4B2A4EB0A00F5E72046A0E700209EE7AB
:10588000FF209CE740F69800854201D26D1CADB226
:105890006421112009F0B4FE60B131E06D1CADB29D
:1058A00028460BF089FD39460BF0CEFDFEF7BEFA17
:1058B00001E012E01C4F0121112009F0A1FE002897
:1058C000ECD01DE06D1EADB228460BF075FD3946DB
:1058D0000BF0BAFDFEF7AAFA00E0134F01214120B8
:1058E00009F08EFE0028EDD00AE005E040F29E703F
:1058F000854205D2643502E0DC2D01D9143DADB2FC
:1059000028460BF059FD08490BF09EFDFEF78EFA74
:1059100002488580FEF7BEF82EE70000D86A002016
:1059200028253275732900000AD7233C2DE9F04F52
:1059300004468DB0002001900546069003907A48F9
:105940000A907A4805907A4800EB440080890BF071
:1059500033FD784901EB0419D9F800100BF074FD00
:10596000DFF8D4B14FF0000A099084B14BF824A0BD
:105970000021204600F00EF90121204600F0F8F841
:10598000642006F03DF909F057FD0646B7E06B4884
:105990000590564600213046CBF800A000F0FAF8FA
:1059A0000121304600F0E4F8642006F029F909F0FE
:1059B00043FD064662480078012808D0A4E020464E
:1059C000052C19D2DFE804F0041515151500204642
:1059D00006F068FE804606F01DFE074606F010FD44
:1059E0000346002239464046CDF800A0FCF7D4FD1E
:1059F00003E006F057FE00E000200146019F0998F1
:105A00000BF0A8FE0190D9F8040001990BF01CFDE1
:105A10000790D9F8080001990BF016FD29460BF004
:105A20005DFB054647484FF07E58854201D9054643
:105A300002E0454500DD4546394601980BF08AFEF7
:105A4000D9F80C100BF000FD3F490BF0FDFC0746A8
:105A50003E4906980BF0F8FC39460BF03FFB0690E8
:105A6000404605990BF076FE0746294607980BF04D
:105A700035FB06990BF032FB39460BF0E5FC074687
:105A8000059903980BF0E0FC39460BF027FB0390D7
:105A90000A990BF023FB10F1FF4F01D3002002E025
:105AA000404500DD40464BF8240029490BF0CCFC72
:105AB0000BF04AFC81B2204600F06CF825484FF408
:105AC0007A714FF47A720088484323490988514318
:105AD00000EB114809F0B0FC00EB08018A1B521ED4
