:020000040800F2
:10000000E07100203D030008450300084703000895
:10001000490300084B0300084D03000800000000DE
:100020000000000000000000000000007502000851
:100030005103000800000000ED0200082903000839
:10004000570300085703000857030008D578000835
:1000500057030008570300082540000845400008E2
:100060004D400008554000085D4000085703000857
:1000700057030008570300085703000857030008F8
:1000800057030008570300085703000857030008E8
:10009000570300085703000857030008654000088D
:1000A00057030008570300085703000857030008C8
:1000B00057030008570300084D970008570300082E
:1000C00057030008570300085703000857030008A8
:1000D0005703000857030008570300084599000814
:1000E0002D400008570300085703000800F002F8ED
:1000F00000F07AF80AA090E8000C82448344AAF148
:100100000107DA4501D100F06FF8AFF2090EBAE845
:100110000F0013F0010F18BFFB1A43F0010318473B
:1001200094E40100B4E401000A444FF0000C10F81C
:10013000013B13F0070408BF10F8014B1D1108BF65
:1001400010F8015B641E05D010F8016B641E01F805
:10015000016BF9D113F0080F1EBF10F8014BAD1C55
:100160000C1B09D16D1E58BF01F801CBFAD505E073
:1001700014F8016B01F8016B6D1EF9D59142D6D3CD
:10018000704700000023002400250026103A28BFF5
:1001900078C1FBD8520728BF30C148BF0B607047F9
:1001A000662911F02885642900F07881752900F00E
:1001B0007581782900F0AE81732900F0A4870020B2
:1001C00070471FB500F0A3FF04000020002110F0CD
:1001D000D9FFE0601FBD10B510BD03B4FFF7FBFFF2
:1001E00003BC01F093F8000000F0CCF81146FFF7D3
:1001F000E8FF0FF055FA044800210FF017FB0FF04D
:1002000061FA00F053FA00004000002080F30988F2
:100210007047EFF309807047684680F30988044807
:100220000078C00714BF0220032080F314887047B1
:1002300090D00108DFF818C0EFF305831B0618BF44
:100240006047EFF31483DB0708BF604700DF7047A8
:100250002DF90008DFF818C0EFF305831B0618BF5F
:100260006047EFF31483DB0708BF604700DF704788
:1002700011FB0008EFF30980816911F8021CF1B944
:1002800090E80F10E047EFF3098C8CE80700144B5F
:1002900093E8060091420FD039B12CE9F00FC1F874
:1002A00024C00CB40FF068FF0CBC1A60D2F824C054
:1002B000BCE8F00F8CF309886FF0020E704710B5A0
:1002C000084A1268914209D8074C54F8214090E836
:1002D0000F10A047EFF3098C8CE80F0010BD000051
:1002E00060030020101B0008101B00080FF0E0FD49
:1002F0000C4B93E80600914210D0EFF3098C2CE9E7
:10030000F00FC1F824C00CB40FF036FF0CBC1A601B
:10031000D2F824C0BCE8F00F8CF309886FF0020E0D
:1003200070470000600300200FF0ECFFE0E70000E2
:100330000FF0CEFA0FF0E6FFDAE700000948804739
:1003400009480047FEE77047FEE7FEE7FEE7FEE7E5
:10035000FEE7FEE7FEE7FEE704480549054A064BCF
:100360007047000029960008ED000008E06B0020AF
:10037000E0710020E06D0020E06D00200048704733
:10038000806B00207546FFF7F9FFAE460500694611
:10039000534620F00700854618B020B5FFF7DCFF74
:1003A000BDE820404FF000064FF000074FF0000876
:1003B0004FF0000B21F00701AC46ACE8C009ACE8F7
:1003C000C009ACE8C009ACE8C0098D467047000020
:1003D0000FB41CB5074B06AA7B44694600900598EC
:1003E00000F067FE0020694600F076FE1CBC5DF858
:1003F00014FB0000FD0C000070B504468569006820
:10040000C10601D5302600E02026C00708D070BD07
:10041000D4E9012130469047206A00F101002062B2
:100420006D1EF5D570BD70B5044685690078C007AE
:1004300008D170BDD4E9012120209047206A00F145
:10044000010020626D1EF5D570BD70B50C460546E5
:10045000012A05D02878800600D5EA69002302E049
:10046000012305E05B1C934202D2E05C0028F9D135
:10047000A869E618C01AA861286A184428622846A4
:10048000FFF7BAFF04E0D5E9012114F8010B90470A
:10049000B442F8D32846FFF7C6FF70BD2DE9F041FE
:1004A0000646002410687529314616A511D0AFF311
:1004B0000080002803DAC0F1000013A507E03168CE
:1004C0008A0701D511A502E0490704D510A501242A
:1004D00001E0AFF3008000210A2306F1240707E0C2
:1004E000B0FBF3F203FB1200303078541046491C85
:1004F0000028F5D123462A463046BDE8F04100F0F9
:1005000067BB0000000000002D0000002B00000071
:100510002000000070B504460D4621461068AFF378
:1005200000802188090502D5104A7A4402E00F4A6A
:100530007A440E32002104F1240307E000F00F0694
:100540004FEA1010965D5E5401F101010028F5D1CB
:1005500003462078000704D5702D02D009B111326E
:1005600002232046BDE8704000F032BBAAD801004B
:100570002DE9F05F894604464FF0000ADFF828B104
:10058000FB44C0F820A02046E168884700287CD0C2
:10059000252806D0D4E901219047206A401C20621A
:1005A000F1E700255F462046E16888472028064697
:1005B00008DB312E06D207EB060010F8200C08B13C
:1005C0000543F0E7A80701D525F00405C4F81CA0F1
:1005D0000027C4F818A02A2E09D030460AF0F3F8F4
:1005E00038B304EB8708303EC8F8186019E059F8B2
:1005F000041B204604EB87029161E1688847012FC4
:10060000064618D1E069002820DA25F020051DE013
:10061000D8F8180000EB800006EB40003038C8F82E
:1006200018002046E168884706460AF0CCF8002802
:10063000EED1012F0AD02E2E08D12046E16888473E
:100640007F1C0646022F45F02005C4DBA069002868
:1006500003DA404245F00105A061E80701D025F02A
:10066000100596B1A6F14100192802D8203645F4AC
:1006700000654A463146204625604D46FFF790FD0D
:1006800060B1012807D0ED1D00E009E025F007006A
:1006900000F1080977E705F1040974E7304679E7C6
:1006A000206ABDE8F09F00007CD801000446AFF34B
:1006B00000802046FFF791FD40EA0103024630B575
:1006C0009B0710D14FF0013400E008C208C91D1B80
:1006D0009D4315EAC41FF8D013F0FF0102F8011B77
:1006E0000DD01B0AF8E711F8013B002B02F8013B83
:1006F00005D011F8013B002B02F8013BF3D130BDCE
:1007000010B5431C02E010F8011B71B18107FAD14A
:100710004FF0013202C88C1A8C4314EAC211F9D08E
:10072000C01A0A0603D0C01E10BDC01A10BD0A04AC
:1007300001D0801E10BD0902FCD0401E10BD40EA51
:10074000010370B59B072ED14FF00136042A2AD33E
:1007500008C810C9121F9D1B9D4315EAC61517D066
:10076000D8B2E1B2401A50EA056110D198B2A1B2F4
:10077000401A50EA05410AD123F07F4024F07F411E
:10078000401A50EA052102D1180EA0EB146070BD8A
:10079000A342DBD018BA21BA884201D9012070BD2A
:1007A0004FF0FF3070BD0AB9002070BD10F8013B5A
:1007B00011F8014B63B1A3420AD1521E08D010F8C0
:1007C000013B11F8014B1BB1A34201D1521EEDD1E7
:1007D000181B70BD421E12F8013F002BFBD111F80F
:1007E000013B002B02F8013BF9D17047032A40F28C
:1007F000308010F0030C00F0158011F8013BBCF1C3
:10080000020F624498BF11F801CB00F8013B38BFDA
:1008100011F8013BA2F1040298BF00F801CB38BFE8
:1008200000F8013B11F0030300F02580083AC0F006
:10083000088051F8043B083A51F804CBA0E80810AE
:10084000F5E7121D5CBF51F8043B40F8043BAFF3E1
:100850000080D20724BF11F8013B11F801CB48BF3B
:1008600011F8012B24BF00F8013B00F801CB48BF71
:1008700000F8012B704710B5203AC0F00B80B1E8AA
:100880001850203AA0E81850B1E81850A0E81850C5
:10089000BFF4F5AF5FEA027C24BFB1E81850A0E8CE
:1008A000185044BF18C918C0BDE810405FEA827CE8
:1008B00024BF51F8043B40F8043B08BF7047D207FF
:1008C00028BF31F8023B48BF11F8012B28BF20F8A0
:1008D000023B48BF00F8012B70474FF0000204298B
:1008E000C0F0128010F0030C00F01B80CCF1040C5F
:1008F000BCF1020F18BF00F8012BA8BF20F8022B93
:10090000A1EB0C0100F00DB85FEAC17C24BF00F838
:10091000012B00F8012B48BF00F8012B70474FF066
:10092000000200B5134694469646203922BFA0E83F
:100930000C50A0E80C50B1F12001BFF4F7AF09074B
:1009400028BFA0E80C5048BF0CC05DF804EB89003C
:1009500028BF40F8042B08BF704748BF20F8022B7F
:1009600011F0804F18BF00F8012B704730B50368B5
:100970001C1404EB21459BB289B2194495FBF2F497
:1009800002FB145301EB034191FBF2F302FB131141
:1009900001E05B1E11440029FBDB016003EB044016
:1009A00030BD2DE9F04704464FF0FF3A86B00068AD
:1009B000029060680390A0680490E068019020694C
:1009C00000906569B5F1804F7EDCB5F1404F7BDB6F
:1009D0003C22002102A8FFF7C9FF3C22014603A8E0
:1009E000FFF7C4FF1822014604A8FFF7BFFF411E0E
:1009F00040F2B55201A8FFF7B9FF0C22064668463F
:100A00000021FFF7B3FF00EB860028443E4D00268F
:100A10007D440FE09A1A491CCDE90012022902D048
:100A20000C2907D104E0810704D0521C019201E097
:100A3000401C00960099019B6A5C9A42EADD0129FC
:100A400006D11C2B04D1810702D00221CDE900166A
:100A5000A0F146018B2940D20199009B00220F464C
:100A600002E0AE5C521C31449A42FADB012B02DDFB
:100A7000820700D0491E40F2B55540F26D16C217EC
:100A800000EB927292106A4300F0030505FB062208
:100A900085070A4400D1521E049D02EB4206DDF890
:100AA0000C80A94605EBC605184EC5EB0515DDF80B
:100AB00008C008EB850535442E14ADB2C6EB06160A
:100AC000C5EB0515B60000E007E00CEB850506EB6D
:100AD000154666F31F45360C03D0504606B0BDE8F8
:100AE000F0877F1CC4E90430521C072092FBF0F30E
:100AF00004F1180600FB1320A6E803042846C4E905
:100B00000297C4E900C8E9E7FDD30100A039CEFD92
:100B100070B50C46016800204A1C34D040F2B5552F
:100B20003C23B1FBF3F203FB12112160B2FBF3F1A2
:100B300003FB112218236260B1FBF3F203FB1211D5
:100B4000A16046F2E0310A440721B2FBF1F301FB58
:100B50001321B2FBF5F305FB1322A1619900B2F555
:100B6000B77F06D3521EAD10B2FBF5F3194405FB57
:100B700013220F4BE261616189077B440CD03B2A51
:100B80000AD3521C08E02C212046FFF7C8FE0120A2
:100B9000E0600AE0521A401C195C9142FAD9521CDA
:100BA000C4E903204FF0FF302062204670BD0000F2
:100BB00093D2010070477047704710B500F0ACFA4F
:100BC000006810BD10B5044600F0A6FA046010BD20
:100BD0002DE9F0470D4699469246044600F1240857
:100BE0000168880604D5E06921F01001216000E069
:100BF0000120A84202DDA0EB050700E00027A16963
:100C000007EB050202EB0900A1EB0000A0612078D0
:100C1000C00602D42046FFF7EFFB002608E0D4E927
:100C200001211AF806009047206A401C761C2062B9
:100C30004E45F4DB2078C0060AD52046FFF7DCFBE2
:100C400006E0D4E9012130209047206A401C206250
:100C5000381EA7F10107F4DC07E0D4E9012118F8F8
:100C600005009047206A401C2062281EA5F101055E
:100C7000F3DC2046FFF7D7FB2078000602D50220E0
:100C8000BDE8F0870120FBE770472DE9FF4F0C46D8
:100C90001E464FF0FF378BB0D2E90001DDF86080CF
:100CA0000A908A46C1F30A5505B93D460021084617
:100CB0004FF00000BAF1000F00F4400005DA00EB3D
:100CC00080004FF4400101EA50004FEA9059B9F119
:100CD000010F00DDB9460A9850EA4A000ED044F6EA
:100CE0001050A5F2FF3545432F14B8F1000F1ED068
:100CF0007542291E1EDDC9F100021CE0B8F1010F8A
:100D00004FF0000001D0302103E0F24305E0215410
:100D1000401CB042FBDB30460022002121540B99DD
:100D2000C1F80880C1E900200FB0BDE8F08FBD1BFD
:100D30006D1CDEE74A4600DA694206A800F074FA44
:100D400006AB07CB03AB07C350460A9900F025FB5F
:100D50008DE80700A0F500501F3800900398002D83
:100D600009DD42F21F014A46084403A90390684680
:100D700000F084FD08E0A0F500504A461F3803A9A2
:100D80000390684600F08EFD8DE807000004000C1B
:100D900003D04FF0FF30410800E01046B8F1000FDB
:100DA00003D00022009215461FE0751E06D400F005
:100DB000B5F902F1300262556D1EF8D5B346012235
:100DC000084302D000227F1C04E02078302801D1A3
:100DD00000227F1E002A099787D01DE0112D07DA17
:100DE00000F09CF9303262556D1C50EA0102F5D1D9
:100DF00008430FD10021681E05E0235C625C635448
:100E0000491C2254401E8142F7DBAB46A81B401E02
:100E1000099001E0009848B1002004F80B000B98FD
:100E2000099AC0F80880C0E9002B7DE711264FF031
:100E300000085AE72DE9F04F88460446D21D22F0FB
:100E4000070191B0D1E90001CDE90A0109F019FCCF
:100E500002460B98C00F01D02D2007E020688107C3
:100E600001D52B2002E0202101EAC000032A0990CD
:100E700001D0072A05DB03464146204600F094F9DD
:100E80000FE12078800601D5E06900E00620B8F186
:100E9000650F814606D0B8F1660F18D0B8F1670F1C
:100EA00072D132E00020B9F1110F009001DB112363
:100EB00001E009F101030AAA01A90CA8FFF7E5FE68
:100EC000DDE90C70002609F10105834648E00120A8
:100ED0004B4600904FF000470AAA01A90CA8FFF763
:100EE000D4FEDDE90DB00C995D46002618B909F174
:100EF000010001EB0005B9EB050003D4C0F1FF369A
:100F000009F10105A5EB09002BE0B9F1010F01DAA8
:100F10004FF001090020B9F1110F0090484601DDA2
:100F2000112300E003460AAA01A90CA8FFF7ADFEB1
:100F3000DDE90C704D4600268346207800070AD470
:100F4000AB4500DA5D4601A8012D04DD411911F819
:100F5000011C302907D04F4502DA17F1040F04DADB
:100F60000120824610E06D1EEEE7002F02DCED1B33
:100F70003E4403E0781CA84200DD0546A7EB0600CE
:100F800000F1010A4FF000472078000703D4AA457A
:100F900001DB4FF0FF3A0021B7F1004F0DF143089C
:100FA0008DF8431023D002202B23002F01DA7F423B
:100FB0002D234FF00A0C011EA0F1010000DC4FB1FF
:100FC00097FBFCF10CFB11720F4602F1300208F89E
:100FD000012DF0E7A8F1010003702188090501D572
:100FE000452100E06521A0F1010800F8011C0998E5
:100FF0000FA9A1EB080707F1070700B1012000EBDB
:10100000050101EBEA70A1693844A1EB0000A0F1F1
:101010000100A0612078C00602D42046FFF7ECF959
:10102000099830B1D4E901219047206A00F101000C
:1010300020622078C00620D52046FFF7DDF91CE0AD
:10104000002E04DBB34502DD01A8805D00E0302006
:10105000D4E901219047206A761C401CBAF1010AAC
:1010600020620AD100F053F8C0680168405CD4E9FE
:1010700001219047206A401C2062281EA5F101052D
:10108000DEDC07E0D4E9012118F8010B9047206A63
:10109000401C2062381EA7F10107F3DC2046FFF751
:1010A000C2F9022011B040E601694A1C02610878C9
:1010B000704700B58FB0CDE9013100210591054998
:1010C0007944CDE9031011466846FFF751FA0FB095
:1010D00000BD0000E5FFFFFF0A6802F8010B0A608F
:1010E000704710B5436913B1AFF3008001E0FFF71B
:1010F000ACF9012010BD127800F124010A70002221
:101100004A700122EDE711684FF0FF32E9E710B5B0
:10111000FFF734F9203010BD09F0C8BA30B5B0F18E
:101120000A024FEA900E71F100034EEA817EB0EBA5
:101130000E0061EB91014FEA101E4EEA017E10EBAA
:101140000E0041EB11114FEA102E4EEA016E10EB2A
:101150000E0041EB11214FEA104E4EEA014E10EB0A
:101160000E0041EB1141401841F100014FEAD0005F
:1011700040EA41704FEAD10110EB80054FEA81044B
:1011800044EA907444EB01046D1944EB0404521BCF
:10119000A3414FF0000348BF0A3200D530BD401CC8
:1011A00041F1000130BD00002DE9F0411F46044629
:1011B00003260168072A01F4006004DB08B116A5C4
:1011C00005E016A503E008B115A500E015A521F07E
:1011D00010002060A069C01EA0610FB1401EA06178
:1011E0002046FFF709F94FB1D4E90121384690476D
:1011F000206A401C2062C01C206206E0206AFAE7D8
:10120000D4E9012115F8010B9047761EF8D220464B
:10121000FFF709F9BDE8F0814E414E006E616E00A6
:10122000494E4600696E66002DE9F0478146164634
:101230008AB035487844D0E9002380680092CDE92F
:101240000130314878440C38D0E902230069039218
:101250004FF03702CDE9043041F69B30014491FB59
:10126000F2F0A0F1800502FB10141B3C02D5644291
:10127000012000E00020DFF890A080460027FA441B
:10128000AAF1C60A0DE0E00709D03246684607EB2E
:1012900047010AEB810100F005FB8DE807006410AF
:1012A0007F1C002CEFD1184F7F44B43F17E0E807B4
:1012B00013D007EB04100DF1180A90E80E00AAE80D
:1012C0000E00C068F04201D198190890324606A974
:1012D00003A800F0E7FA03AB07C36D10641C002DF0
:1012E000E5D132466946B8F1000F03A802D000F0FC
:1012F000C5FA01E000F0D6FAC9E90001C9F80820F2
:101300000AB0BDE8F087000064CC01000149182054
:10131000ABBEFEE7260002004FF0013C50F8042B64
:1013200051F8043B9A4221D1A2EB0C03934313EAF8
:10133000CC1317D150F8042B51F8043B9A4215D125
:10134000A2EB0C03934313EACC130BD150F8042BFC
:1013500051F8043B9A4209D1A2EB0C03934313EAE0
:10136000CC13DBD04FF00000704700BFD01A01BA99
:10137000B1FA81F101F0180122FA01F0CB40C1F17C
:101380002001DBB2C0B2C01A2CFA01F3D11A91438A
:1013900011EAC311E6D1704770475FEA400C08BFFD
:1013A00091F0000F4FEA8C234FEAC12243EA5151DA
:1013B0004FEA1C5018BF00F5F0404FEA300018BF4C
:1013C00041F000415FEA6C5C00F02980BCF1FF3F16
:1013D00008BF40F080407047130C06BF12044FF066
:1013E000100C4FF0000C130E04BF12020CF1080C8D
:1013F000130F04BF12010CF1040C930F04BF9200F1
:101400000CF1020CD30F04BF52000CF1010C114679
:101410004FF00002A0F11F00A0EB0C00704711F08C
:10142000004F08BF704731F000413FF4D5AF0B0CBF
:1014300006BF09044FF0100C4FF0000C0B0E04BF58
:1014400009020CF1080C0B0F04BF09010CF1040C8C
:101450008B0F04BF89000CF1020CCB0F04BF4900B5
:101460000CF1010CCCF12003A0EB0C0022FA03F3E9
:1014700002FA0CF241EA030100F10100704720F08A
:101480007F4C80EA030023F07F47ACEB070303F5B2
:101490007C5300F0004003F1FF032DE980494FEA3F
:1014A000154B09B44FEA144325EA0B4E24EA0348CE
:1014B0000FF2042606EB132749083E785FEA320252
:1014C00003FB0667C7F5000707FB06F64FEA54372C
:1014D0004FEAD64606F1020607FB066CCCF1005C2B
:1014E0004FEA1C472CEA074C07FB06F40CFB06F5F9
:1014F00004EB15464FEA961634BF00204FF000402B
:101500004FEAD13706FB07FC4FEA1C4C0CFB0BF7EC
:10151000D21B03FB0CF761EB07010CFB0EF7B0EBE2
:10152000074072EB17420CFB08F734BFA2EB0742EF
:10153000B2EB074261EB17414FEA0C444FEA9107C7
:1015400006FB07FC4FEA1C4C0CFB0BF7B0EBC7404B
:1015500072EB573203FB0CF734BFA2EBC742B2EB7E
:10156000C74261EB57310CFB0EF7B0EBC70072EBD3
:1015700057720CFB08F734BFA2EBC702B2EBC702ED
:1015800061EB5771039F4FEA816141EA921104EBCD
:10159000CC044FEAD1374FEA826206FB07FC42EAED
:1015A00090124FEA80604FEA1C4C0CFB0BF7D21BE9
:1015B00003FB0CF761EB07010CFB0EF7B0EB0740E8
:1015C00072EB17420CFB08F734BFA2EB0742B2EBF9
:1015D000074261EB17414FEA8C554FEA910704EB44
:1015E0009C2406FB07FC4FEA1C4C0CFB0BF7B0EBF2
:1015F000C74072EB573203FB0CF734BFA2EBC74274
:10160000B2EBC74261EB57310CFB0EF7B0EBC700F2
:1016100072EB57720CFB08F734BFA2EBC702B2EBB8
:10162000C70261EB577115EB4C254FEA816141EA26
:1016300092114FEA82624FEAD13742EA901206FBDA
:1016400007FC44F100044FEA80604FEA1C4C0CFB9D
:101650000BF7D21B03FB0CF761EB07010CFB0EF73A
:10166000B0EB074072EB17420CFB08F734BFA2EB5C
:101670000742B2EB074261EB174115EB1C154FEA2D
:10168000813141EA92414FEA823242EA90424FEA86
:1016900080304FEA0C7644F1000448EA03434EEAF6
:1016A0000B484FF0000EB2EB080C71EB030724BFA0
:1016B000624639464EEB0E0E4FF0000B00185241B9
:1016C00049414BEB0B0BB2EB080C71EB03077BF1C1
:1016D000000B24BF624639464EEB0E0E4FF0000B56
:1016E0000018524149414BEB0B0BB2EB080C71EB6C
:1016F00003077BF1000B24BF624639464EEB0E0E0A
:1017000051EA020718BF46F0010616EB0E7655F1B6
:10171000000254F1000103D5BDE88901BDE800884D
:10172000BDE88901BDE80048B619524141EB01010D
:10173000A3F10103704780807F7E7D7C7B7A79787E
:10174000777676757473727171706F6E6E6D6C6C86
:101750006B6A6A6968686766666564646363626128
:101760006160605F5F5E5E5D5D5C5C5B5B5A5A59A9
:101770005958585757565655555554545353525215
:101780005251515050504F4F4F4E4E4D4D4D4C4C6D
:101790004C4B4B4B4A4A4A494949484848474747B6
:1017A00047464646454545444444444343434342F3
:1017B000424242414141002B26D4770021D01CB542
:1017C0004FEA370703B44FF010004FF010014FF00D
:1017D00000000FBCBDE810400BF1010BBBF1010F85
:1017E00008BF5FEA170722BF12F1010211F10101E0
:1017F0004FF0004143F1000300F0004043EA0000D5
:101800007047F9D35708DAE746EA064613F1400F66
:101810004FEA16461FDD13F1200FDFBF16430A46BD
:10182000002120335B42C8D0C3F1200746EA0646B8
:1018300002FA07F74FEA164646EA0706C3F1200701
:1018400022FA03F201FA07F721FA03F14FF000033D
:1018500042EA0702B1E746EA020646EA06464FEACE
:10186000164646EA0106BCBF46EA0646360C4FF06D
:1018700000034FF000024FF000019EE72DE9C04841
:10188000934630B491E8380007C831EA400C48BFAD
:1018900034EA430C03D5FFF7F2FDFFF78CFFF0BCF1
:1018A000BDE800882DE9C048934630B491E838007F
:1018B00007C810F0804F08BF13F0804F03D100F02D
:1018C00005F8FFF778FFF0BCBDE8008820F07F47FF
:1018D00080EA030023F07F4C07EB0C03A3F57C5355
:1018E00000F00040A3F1FE0392F0000F00F0B3807F
:1018F00095F0000F00F077802DE901494FEA114083
:101900004FEA144621EA004800FB06FC24EA064799
:1019100008FB06F607FB08F800FB07F718EB06487C
:101920004CEB164C4FEA124B18EB07484FEA1546A2
:101930004CEB174022EA0B4E0BFB06FC25EA064750
:101940000EFB06F607FB0EFE0BFB07F71EEB064E23
:101950004CEB164C4FF000061EEB074E4CEB174BB2
:1019600018EB0B0840F1000018EB0E0B58EB0008C9
:1019700040F100008F1A4FF000013CBFC943661BC5
:1019800014BFB5EB040C00213CBFC943F61B4FEA62
:1019900017444EEA8E0E27EA04454FEA1C4704FB23
:1019A00007622CEA074C05FB07F70CFB05F604FB66
:1019B0000CFC16EB074642EB174216EB0C4642EBCB
:1019C0001C421BEB060658EB0202414146EA9E060A
:1019D00001D5BDE80189B619524141EB0101A3F1DE
:1019E0000103BDE801894FEA14454FEA114724EA93
:1019F000054621EA074C05FB07F406FB07F70CFB3D
:101A000006F105FB0CFC11EB074144EB17444FEAD0
:101A1000124711EB0C4144EB1C4422EA074C05FB36
:101A200007F206FB07F70CFB06F605FB0CFC16EBB2
:101A3000074642EB174216EB0C4642EB1C456A1870
:101A400054F1000148BF7047B619524141EB010102
:101A5000A3F10103704795F0000F37D04FEA114210
:101A60004FEA144721EA024624EA074C02FB07F139
:101A700006FB07F70CFB06F402FB0CFC14EB074417
:101A800041EB17414FEA154714EB0C4441EB1C4165
:101A900025EA074C02FB07F506FB07F70CFB06F6E9
:101AA00002FB0CFC16EB074645EB174516EB0C4604
:101AB00045EB1C42121951F1000148BF7047B6199D
:101AC000524141EB0101A3F1010370474FEA144574
:101AD0004FEA114724EA054621EA074C05FB07F1C6
:101AE00006FB07F70CFB06F24FF0000605FB0CFCAB
:101AF00012EB074241EB174112EB0C4251EB1C4138
:101B000048BF7047921841EB0101A3F101037047F0
:101B10000000000006F0ACBB10B50022074B1146D8
:101B200001EB810403EB440434F81040491CC9B2B2
:101B300022441029F4D3C2F30F1010BD8A030020F1
:101B4000044890F83C00012801D0034800E0034815
:101B500008F0AEBCE06A002064A60108E480010839
:101B6000264910B508684FF6FF021040244A40F499
:101B7000E06010430860062004F0D2F9072004F06A
:101B8000CFF9082004F0CCF9092004F0C9F90A20A3
:101B900004F0C6F9172004F0C3F9282004F0C0F9B6
:101BA0001E2004F0BDF9272004F0BAF907F07EFDED
:101BB000154A1448D16941F00201D1610021018028
:101BC000018540F65F13838501238382018446F2F9
:101BD000600303838383818601878187A0F8401097
:101BE000018841F001010180906940F0010090619D
:101BF0000648416841F44061416010BD0CED00E0D1
:101C00000000FA05000400400010024000000140FE
:101C100008B5024908440090008808BD006C0040E7
:101C200008B5024A10440090016008BD006C0040F5
:101C3000002007F0D7BD00000148007807F0D2BDB2
:101C40002800002070B515460E4604460AF010F82C
:101C500021461648FEF730FD144800F077FA30466A
:101C600000F028F964211248FEF737FE00222946C9
:101C70000F4800F05FF90F4C6070012000F008FA87
:101C800064210A48FEF729FE64210948FEF725FE73
:101C900009F0F6FF6078142802D0172802D003E07C
:101CA000012070BD09F0D7FF002070BDF068002052
:101CB000C46700205E01002010B5044609F0D8FF7B
:101CC00021460648FEF7F8FC044800F03FFA00F011
:101CD00043FA044609F0D4FF204610BDF068002006
:101CE0002DE9F0411C4615460E46074609F0C0FF97
:101CF00023462A463146384600F07CF8142804D0A2
:101D000009F0BEFF0020BDE8F08109F0B9FF012015
:101D1000F9E700002DE9F0411C4615460E4607463E
:101D200009F0A6FF23462A463146384600F092F8CD
:101D3000084C607009F0A4FF6078142802D01728BE
:101D400003D004E00120BDE8F08109F084FF002009
:101D5000F9E700005E01002010B5044609F088FF95
:101D600021460B48FEF7A8FC094800F011F9094983
:101D70004870012000F08CF964210548FEF7ADFDA4
:101D800064210548FEF7A9FDBDE8104009F078BFC1
:101D9000F06800205E010020C467002070B5154681
:101DA0000E46044609F064FF21460F48FEF784FC06
:101DB0000D4800F07AF90D4CA9B20022607030464F
:101DC00000F0B8F86070012000F062F960706421E2
:101DD0000548FEF782FD64210548FEF77EFDBDE85B
:101DE000704009F04DBF0000F06800205E01002047
:101DF000C46700202DE9F0411C4616460F460546F3
:101E000009F036FF29461048FEF756FC0E4800F050
:101E10009DF9384600F04EF8A1B20022304600F09D
:101E200062F80A4C6070012000F032F96421064823
:101E3000FEF753FD64210648FEF74FFD09F020FF31
:101E40006078BDE8F0810000F06800205E010020AD
:101E5000C46700202DE9F0411C4617460E46054692
:101E600009F006FF29461048FEF726FC0E4800F050
:101E70006DF9384600F01EF8A1B20C4A304600F069
:101E800059F80A4CA41E6070012000F001F9642189
:101E90000548FEF722FD64210548FEF71EFD09F006
:101EA000EFFE6078BDE8F081F0680020600100205E
:101EB000C467002010B5044639200FF051F9E0B294
:101EC0000FF059F9C4F307200FF055F9C4F3074098
:101ED0000FF051F9200E0FF04EF90FF011F9BDE897
:101EE000104008F0F1BA70B5064614460D463A2087
:101EF0000FF036F9E8B20FF03EF9280A0FF03BF97F
:101F00000FF0FEF80CB1002011E008F0DDFA1D28FA
:101F10000FD1304600F052F905463B200FF020F972
:101F20000FF0EEF82E44002CEFD0208828442080BB
:101F3000EBE770BD2DE9F041064614460D463C2006
:101F40000FF00EF9E8B20FF016F9280A0FF013F9A6
:101F50000FF0D6F80CB1002020800C4F08F0B4FA36
:101F60001E2810D1304600F03CFA054638703D205E
:101F70000FF0F6F80FF0C4F82E44002CEED02088B5
:101F800028442080EAE7BDE8F08100005D010020E0
:101F900010B5044600F0C4F920785C2801D02F2841
:101FA00003D10021642000F032FABDE81040402047
:101FB00000F096B910B504F02BFF08B100F0CFF88F
:101FC000BDE81040302000F08BB9312000F088B916
:101FD00010B505200AF085FD5A2000F081F904466D
:101FE00005200AF07EFD204610BD00002DE9F74FC8
:101FF00082B0834604980E46C700080E4FF0000AD0
:10200000C1F30729C1F30748009056200FF0A8F844
:10201000F0B20FF0B0F848460FF0ADF840460FF0C0
:10202000AAF800980FF0A7F804980FF0A4F80FF0A2
:1020300067F83C4614E000BF08F046FA05461E2843
:1020400001D07CB113E04021584600F0B4F957208C
:102050000FF086F80FF054F8641E0BF1400BA4B299
:10206000002CE9D108F030FA054614280ED0162DC0
:1020700009D0FFF7ADFF0AF1010000F0FF0ABAF145
:10208000030FC2D1284605B0BDE8F08F1420FAE74F
:102090000146362000F017B910B508B100F040F93C
:1020A000BDE81040342000F01BB970B5054600F0C3
:1020B00021F904000DD00146284600F021F84128FE
:1020C00007D0142803D0422800D1B32070BD43208C
:1020D00070BD2819BDE87040FFF7DEBF10B504469B
:1020E00000F01EF920785C2801D02F2803D10021B0
:1020F000642000F08CF9BDE81040322000F0F0B808
:1021000070B5054600200E46012401E0641CE4B2CF
:10211000295D5C2913D02F2911D00029F6D1002484
:102120002844FFF7DBFF002C08D0B44206D041283A
:102130000AD0142806D0422800D1B32070BD641CF8
:10214000E4B2EDE7432070BD2046E1E7FF21FFF751
:10215000D7BF2B2000F054B8682000F045B810B568
:1021600022200EF0FDFF0EF0F4FF04460EF0C8FF33
:10217000204610BD04480178012901D00020704795
:102180000021017001207047380000202DE9F04146
:102190000EF0DFFF06460EF0DCFF05460EF0D9FF1D
:1021A00004460EF0D6FF07460EF0AAFF46EA0520C9
:1021B00040EA044040EA0760BDE8F08170B505469A
:1021C00027200EF0CDFF0EF0C4FF0400264607D0F6
:1021D0000EF0BFFF641E05F8010B14F0FF04F7D1E9
:1021E0000EF08EFF304670BD10B504460C200EF088
:1021F000B7FF20460EF0BFFFBDE81040FFF7C6BF97
:1022000010B504460A200EF0ABFF20460EF0B3FFD7
:102210000EF09FFF04460EF073FF204610BD10B570
:1022200004464A200EF09CFFE0B20EF0A4FFC4F377
:1022300007200EF0A0FFC4F307400EF09CFF002023
:102240000EF099FF0EF05CFFBDE8104008F03CB9BD
:102250002DE9F04115000F46804601D0002028707E
:102260004C200EF07DFF38460EF085FF0EF048FF43
:1022700008F02AF90646142823D127200EF070FF13
:102280000EF067FF0EF065FF04460EF062FF0EF0E1
:1022900060FF0EF05EFFFFF779FF014684B1224632
:1022A0004046FFF7A3FE064614280AD108EB44284F
:1022B00015B1287820442870381B10F0FF07CFD1C3
:1022C0003046BDE8F08110B50C460EF049FF2046BF
:1022D0000EF051FF0EF014FFBDE8104008F0F4B806
:1022E00010B50EF03DFF0EF00BFFBDE8104008F0FA
:1022F000EBB80000014600E0491C0A78002AFBD137
:1023000006E000BF11F8012D5C2A03D02F2A01D06E
:102310008142F7D1814200D0491C081AC0B27047EF
:1023200070B5054601200EF01BFF0EF012FF43288A
:1023300028D22B20FFF764FF102823D22F200EF085
:102340000FFF00200EF017FF3220FFF7C9FF1428FF
:1023500018D1CF20FFF754FF040013D04C20FFF713
:1023600043FF00EB04214C2000F051F85020FFF710
:102370003BFF00EB0421502000F049F800217020C1
:1023800000F045F82F200EF0EBFE2C7806E000BFA1
:1023900015F8014F5C2C0AD02F2C08D020460EF0E7
:1023A000EAFE002CF4D1BDE870400EF0A9BE00207A
:1023B0000EF0E1FEF7E770B505460C462C200EF056
:1023C000CFFE20460EF0D7FE3CB128780EF0D3FEAB
:1023D0006D1C641E14F0FF04F7D1BDE870400EF0D0
:1023E0008FBE70B505462D200EF0BAFE0EF0B1FE80
:1023F0000400264607D028780EF0BDFE6D1C641E32
:1024000014F0FF04F7D10EF07BFE304670BD70B5BE
:1024100005460C460D200EF0A3FE28460EF0ABFE3E
:10242000E0B20EF0A8FEC4F307200EF0A4FEC4F341
:1024300007400EF0A0FE200E0EF09DFEBDE870409D
:102440000EF05EBE012009F021BC10B502F0B0FC18
:1024500005F0C4FEBDE81040FFF7F4BF10B5044618
:102460000121502009F09EFCC8B1002009F032FC87
:102470002070002009F02EFC6070002009F02AFC7A
:10248000A070012009F026FCE07009F0C5FC0021D5
:10249000502009F087FC09F0BFFC012010BD09F0B5
:1024A000BBFC002010BDF8B50D46064609F004FC43
:1024B0006846FFF7D3FF040011D09DF801009DF896
:1024C000001000EB0120C0F30D0030809DF80300E8
:1024D0009DF8021000EB0120C0F38D00288009F068
:1024E000F3FB2046F8BD000030B50E480E4C00232B
:1024F0000078042234F81010401CC0B20D460528A4
:1025000000D3002034F810104D1BADB2521E2B44E6
:1025100012F0FF02F0D1C3F38F004FF4FA71484379
:1025200030BD0000000000208003002010B50446EC
:1025300012490FF065F912490EF0ACFF21460FF079
:102540005FF910490EF0A6FF21460FF059F90E4928
:102550000EF0A0FF21460FF053F90C490EF09AFF40
:1025600021460FF04DF90A490EF094FF21460FF075
:1025700047F9BDE8104007490EF08CBF92EBD72C0D
:10258000EEC70B310DBDA2343E5ADE37774BBB3A56
:1025900045B8353D145C1C3F2DE9F04706461A4FFF
:1025A0000898984691468A46002540B10AF0DAF923
:1025B00004461649884504DA3046BDE8F0873C46B3
:1025C000F7E7134890F82C0018B15046FFF7AEFF1C
:1025D0000546494640460EF05DFF29460FF096FA43
:1025E00021460FF00DF90446394650460EF052FFD1
:1025F00008490FF005F931460FF002F92146BDE810
:10260000F0470EF0BBBF0000339388436F12833A4C
:10261000E06A002066A6CA422DE9F0411F469046B6
:102620000C4606460AF09EF905460F4920460EF074
:1026300031FF0E490FF0E4F80446414638460EF0EB
:1026400029FF29460FF0DCF821460EF097FF3146AE
:102650000FF0D6F80649884202DA0020BDE8F08182
:10266000BDE8F0410EF00ABA3393884366A6CA4229
:102670006F12833A2DE9FF4F87B090460F461D46F3
:10268000182221496846FEF7F6F80026012440F298
:10269000013B40F2035941F60C0A00BF09F0D0FBA0
:1026A000684602F07DFE58F8251018A35A4640F2FD
:1026B000191006F0BBFB37F8151000234A465046A8
:1026C00006F0DAFB00222146684602F095FE044639
:1026D000012807D0022C0ED0002CDFD10BB03046E1
:1026E000BDE8F08F2B4642463946079800F010F8B7
:1026F00007E00126D2E707EB45014A46504602F0C3
:1027000047F80028CAD0F4E70CDA01084C2F6D0016
:102710002DE9FF4F8DB0002004908F481F460E46D4
:10272000848831F8175008880A90B1F802B0B1F8DF
:1027300004A0B1F806904FF0010852F8270087492D
:102740000FF05EF84FF07C510EF0A4FE0EF0D8FFB3
:1027500081490D9A01EB42010691888101210D9872
:1027600004F044FB09F06CFB7DA1002002F0F0FDB9
:10277000F580B580758035800D980AF007F90390D3
:102780007AA1002002F0E4FD002340F20352294622
:10279000192006F071FB78A14FF4406002F0D8FDDB
:1027A00077A340F2036240F60C40039906F03EFB2B
:1027B00074A14FF4C05002F0CBFD0D9804F008FB5B
:1027C000014641F60C0006F087FB64200AF032F95E
:1027D0000028D1D009F076FF112856D008DC012856
:1027E0001AD0042878D0092877D0102813D106E011
:1027F000212873D0402808D041280CD162E042F251
:102800000F70854205D26D1C02E0632D01D96D1E4B
:10281000ADB20120049089E0069864215B4A80896A
:10282000484303210590880202F090FD40F20362C4
:1028300005A940F60C4001F0B9FF00B30120049057
:1028400005980EF095FF0290642D19D3039810F0AF
:10285000FF4F17D028460EF08BFF0546069880895B
:102860000EF086FF29460EF089FE014602980EF012
:1028700085FE47490EF082FE0EF042FF85B201E070
:102880004FF47A7509F0DCFA50E040F69800844283
:1028900001D2641CA4B2642111200DF02DF850B1B6
:1028A00038E0641CA4B220460EF062FF39490EF0F5
:1028B000A7FF01F0BBFA012111200DF01DF800283F
:1028C000EFD027E0C82C01D9641EA4B264214120B6
:1028D0000DF012F868B11DE02CE011E016E0641E66
:1028E000A4B220460EF044FF2A490EF089FF01F001
:1028F0009DFA012141200CF0FFFF0028EFD009E0F4
:1029000040F29E70844205D2643402E0DC2C01D98E
:10291000143CA4B220460EF02BFF1E490EF070FFAF
:1029200001F084FA0C48848001F0B4F8B8F1000F8B
:102930007FF41EAF00210D9804F058FA0A983080F9
:10294000A6F802B0A6F804A0A6F8069026F817503C
:10295000049811B0BDE8F08FE06A0020000020412B
:10296000B5F7CAD4C1F7C1BF00000000C1F7C1BFAD
:10297000B1B6C2CA3A000000C1F7C1BF3A000000B8
:102980004C2F6D00CAE4B3F63A00000064D0010891
:102990000000C8420AD7233C2DE9F04F8FB0814692
:1029A0002022454902A8FDF766FF4449444801EB4F
:1029B000C906494600EB41000D9001243C36808950
:1029C0004FF0000A40F20355B9F1010F05D0B9F1FB
:1029D000020F02D040F2015B08E000EBC00101EB06
:1029E00000104FF6FF71AB4601EA8000ADF8000021
:1029F00040F60C0741F60C0809F022FA02A802F092
:102A0000CFFC494640F2151006F054FC2DA35A465F
:102A1000BDF80010384606F02FFA318800232A4608
:102A2000404606F029FA0022214602A802F0E4FC02
:102A300004000FD0012C24D0022C33D0032CE5D17C
:102A40002A463146404601F0A3FE0028DED04FF072
:102A5000010ADBE7BAF1000F0AD023211AA003F024
:102A6000FDF9062807D0072808D00124002CC3D17F
:102A70000FB0BDE8F08F00F097FAF9E700F02AFAFE
:102A8000F4E75A466946384601F082FE0028BDD078
:102A9000BDF800106420B1FBF0F10D98818100F0C9
:102AA000F9FFB3E73146484600F016F80028A3D0F6
:102AB0004FF0010AA0E70000ECD901086C6A002081
:102AC000E06A00204C2F6D00B1A3B4E6B1EAB6A8CD
:102AD000CAFDBEDD203F00002DE9FF5F80460020DB
:102AE00007460390B8480D4640F2035684880020FC
:102AF0008346019002905FEA080005D0012855D076
:102B0000B8F1020F04D151E040F2015BAFA0029096
:102B100009F096F90121404604F068F9AA4901EB51
:102B2000480A404609F032FF8146B8F1000F3FD015
:102B30004E46A7A1002002F00BFC2988002340F29A
:102B40000352192006F098F9A4A14FF4406002F056
:102B5000FFFB5A46494640F60C40029B06F066F9D8
:102B6000A0A14FF4C05002F0F3FB404604F030F94E
:102B7000014641F60C0006F0AFF9642009F05AFF57
:102B80000028CED009F09EFD112877D040DC012826
:102B900056D0042873D0092872D01028C1D12888B3
:102BA00042F20F71884249D2401C46E0B346ADE77D
:102BB00009F09AFD064609F0A1FE014600200246F2
:102BC000009033464846FFF7E7FC064680A1002008
:102BD00002F0BEFB2988002340F20352192006F0C0
:102BE0004BF982A14FF4006002F0B2FB5A46314625
:102BF00040F60C00029B06F019F978A14FF48050C2
:102C000002F0A6FB5A46494641F20C00029BA5E79A
:102C100021287DD040280CD0412882D1C82C01D950
:102C2000641EA4B2642141200CF066FE002870D01E
:102C3000B3E02888632801D9401E2880012770E767
:102C4000B8F1000F1DD0BAF80C00642148430321ED
:102C50000190684A880202F079FB5A4601A940F6C1
:102C60000C4001F0A3FD0028E9D0012701980EF0E7
:102C70007FFD81462888642838D234E051E09BE00B
:102C800081E051485B4A0321808901904FF4006044
:102C900002F05CFB5A4601A940F60C0001F086FDEB
:102CA0000028CCD0012701980EF062FD81462888CB
:102CB000642818D316F0FF4F10D00EF059FD0646C9
:102CC000414880890EF054FD31460EF057FC014614
:102CD00048460EF053FC0EF013FD2880404609F0E4
:102CE00055FE814664E74FF47A7018E016F0FF4F06
:102CF000A5D00EF03DFD0646BAF80C000EF038FDEA
:102D000031460EF03BFC014648460EF037FC01E030
:102D10003FE030E038490EF031FC0EF0F1FC288045
:102D2000FFE640F69800844201D2641CA4B26421FC
:102D300011200CF0E1FD58B12FE0641CA4B2204634
:102D40000EF016FD31460EF05BFD01F06FF800E06D
:102D50002A4E012111200CF0CFFD0028EDD01CE0FF
:102D6000641EA4B220460EF003FD31460EF048FD6D
:102D700001F05CF800E0214E012141200CF0BCFD87
:102D80000028EDD009E040F29E70844205D2643400
:102D900002E0DC2C01D9143CA4B220460EF0E8FC81
:102DA00016490EF02DFD01F041F80748848000F02F
:102DB00071FE03980028B3D00021404604F016F8B5
:102DC00004B03846BDE8F09FE06A00204C2F6D004B
:102DD000C1F7C1BFB1B6C2CA3A000000B1EABFF63E
:102DE0003A000000CAE4B3F63A000000B9A4BFF606
:102DF0003A00000064D001080000C8420AD7233C12
:102E00002DE9F0472B49804601EB08002A4990F84C
:102E10002060012401EBC800002500F13C0A012ECE
:102E200016D0022E43D1254FDFF8949009F008F810
:102E3000384602F0B5FA00222146384602F0DCFAA4
:102E40000446052831D2DFE800F006181E282C00C1
:102E50001A4F283FE8E7002D29D0232119A002F0BE
:102E6000FDFF062805D0072821D1BDE8F04700F076
:102E700031B8BDE8F04700F097B809EB061200231F
:102E800004E00125D2E709EB061201235146404632
:102E9000FFF7F0FB0028C9D0F3E709EB0612022385
:102EA000F4E709EB06120323F0E7002CBED1BDE8DE
:102EB000F0870000E06A00206C6A00204CDA01080C
:102EC00004D90108B1A3B4E6B1EAB6A8CAFDBEDDD3
:102ED000203F000010B5062231494FF4807001F008
:102EE0006FFE2F4845F6A5214FF47A7482888A42F6
:102EF00003D0E20002804480818072222949802030
:102F000001F05EFE274845F6A422B0F87010914209
:102F100044D046F6B321A0F86410A0F86810A0F8D9
:102F20006C10A0F86640A0F86A40A0F86E4041819D
:102F30008181C18101824182048544858485C48563
:102F400004864FF40041018041808180C18001816D
:102F50008182C182018341838183C4830484448448
:102F60008484C48444868486C48604874487848792
:102F7000A0F84440A0F84C40A0F85440A0F85640B7
:102F8000A0F85840A0F85A40A0F85C40A0F85E4075
:102F9000A0F86040A0F86240A0F8702010BD0000CA
:102FA0002C0200206C6A002010B5062205494FF45F
:102FB000807001F015FE7222BDE8104002498020A9
:102FC00001F00EBE2C0200206C6A00202DE9F04FAB
:102FD0000746744800258BB084882E4608F030FFE1
:102FE00040F20440052F0FD2DFE807F00305070980
:102FF0000B006DA106E071A104E075A102E079A1CA
:1030000000E07DA102F0A4F98049DFF804A205A840
:10301000EB4601EB47080A90B8F822102BF8151080
:103020000BEB45006D1CB8F81810EDB281820A2D2B
:1030300002D026B10A2103E000250126FAE729463D
:10304000684608F0F9FD2AF817000EB10A2100E0E1
:1030500029460A9808F0F0FD0AEB4709A9F8140080
:103060000EB10A2100E02946684608F0E5FD2AF87D
:1030700017000EB10A2100E029460A9808F0DCFD8D
:10308000A9F8140063A140F6064002F061F9384641
:1030900009F0B0FC014640F2026900234A4641F2C1
:1030A000082005F0C3FE5DA140F6144002F050F97F
:1030B000384609F005FC014600234A4641F2162035
:1030C00005F0B4FE282009F0B5FC0028A4D009F0D2
:1030D000F9FA11281FD00BDC012817D0042815D0CD
:1030E000092899D140F29E7084424DD264344AE05E
:1030F000212845D041288FD1C82C01D9641EA4B203
:10310000642141200CF0F8FB80B33DE0FFF74CFF59
:103110000BB0BDE8F08F40F69800844201D2641CE9
:10312000A4B2642111200CF0E7FB58B12CE0641C20
:10313000A4B220460EF01CFB49460EF061FB00F0E5
:1031400075FE01E0DFF8DC90012111200CF0D4FBCA
:103150000028ECD018E0641EA4B220460EF008FB54
:1031600049460EF04DFB00F061FE02E0FFE7DFF89C
:10317000B490012141200CF0BFFB0028EBD003E00C
:10318000DC2C01D9143CA4B220460EF0F1FA2549FA
:103190000EF036FB00F04AFE0248848000F07AFC14
:1031A0003AE70000E06A00203CB7DB20B3BE3E20D7
:1031B000D7D4B6AFB5F7C1E3000000003CC8D5BE18
:1031C000F9413E20D7D4B6AFB5F7C1E30000000007
:1031D0003CC8D5BEF9423E20D7D4B6AFB5F7C1E35F
:1031E000000000003CCAB1BEF9433E20D7D4B6AFC0
:1031F000B5F7C1E3000000003CCAB1BEF9443E206F
:10320000D7D4B6AFB5F7C1E30000000002670020D5
:103210006C6A0020C1F7C1BF3A000000BCC6D1B93A
:103220003A0000000AD7233C10B5044602F0A6FE7F
:1032300040F60E00052C09D2DFE804F003050D0F5F
:10324000110008A100E00BA102F082F82046BDE8C1
:10325000104001F089BE0BA1F6E70EA1F4E711A121
:10326000F2E70000B7DB20B3BE20D7D4B6AFB5F786
:10327000C1E30000C8D5BEF94120D7D4B6AFB5F739
:10328000C1E30000C8D5BEF94220D7D4B6AFB5F728
:10329000C1E30000CAB1BEF94320D7D4B6AFB5F739
:1032A000C1E30000CAB1BEF94420D7D4B6AFB5F728
:1032B000C1E300002DE9F14F88B018227849684633
:1032C000FDF7D9FA774808990125848876484FF4A4
:1032D000A06800EB410606F114073236002041F2E7
:1032E0000C0940F2035A41F60C0B069001E00798D6
:1032F00058B108F0A5FD684602F052F840F21510EA
:10330000089905F0D7FF002007903988002342462E
:10331000484605F0B1FD318800235246584605F075
:10332000ABFD2946684602F02BF860A14FF400601F
:1033300002F00EF8089809F0C3FA01465DA340F2C6
:10334000026240F60C0005F071FD192009F072FBD5
:103350000028EAD02946684602F012F809F0B2F9CE
:10336000112849D008DC012819D004282ED00928BA
:103370007CD0102817D10CE021287DD0402802D025
:10338000412810D155E06D1CEDB2032D0BD3012562
:1033900009E0012D00D803256D1EEDB203E0012DDB
:1033A00006D0022D08D0002DAFD109B0BDE8F08FB6
:1033B00042463946484602E052463146584601F0F8
:1033C000E7F90028A1D0012006909EE70698002882
:1033D000EBD0232138A002F041FD062802D00728B7
:1033E00006D102E0FFF7E0FDDFE7FFF7DDFD002596
:1033F000002D7FF47BAFD8E740F69800844201D2DD
:10340000641CA4B2642111200CF076FA50B137E0AC
:10341000641CA4B220460EF0ABF92B490EF0F0F973
:1034200000F004FD012111200CF066FA0028EFD015
:1034300026E0C82C01D9641EA4B2642141200CF0FE
:103440005BFA50B11CE0641EA4B220460EF090F965
:103450001D490EF0D5F900F0E9FC012141200CF0E6
:103460004BFA0028EFD00BE000E005E040F29E7040
:10347000844205D2643402E0DC2C01D9143CA4B2AD
:1034800020460EF075F910490EF0BAF900F0CEFCA6
:103490000448848000F0FEFA002D7FF428AF84E712
:1034A000BCD90108E06A00206C6A0020BCC6D1B912
:1034B0003A0000006B506100B1A3B4E6B1EAB6A8CF
:1034C000CAFDBEDD203F00000AD7233C2DE9F14FA5
:1034D000774882B0012584887648029940F20267D5
:1034E00000EB410606F10A082836002041F20C0BD9
:1034F00040F2035941F60C0A009001E0019858B1DE
:1035000008F09EFC6C4801F04BFF40F21510029948
:1035100005F0D0FE00200190B8F8001000233A46D4
:10352000584605F0A9FC318800234A46504605F06C
:10353000A3FC2946604801F023FF60A14FF400601E
:1035400001F006FF029809F0DBF901465DA33A4657
:1035500040F60C0005F06AFC192009F06BFA00280F
:10356000EBD02946544801F00BFF09F0ABF81128C5
:1035700049D008DC012819D004282DD009287CD096
:10358000102817D10CE021287DD0402802D04128F6
:1035900010D155E06D1CEDB2032D0BD3012509E0D0
:1035A000012D00D803256D1EEDB203E0012D05D0DD
:1035B000022D07D0002DAFD1BDE8FE8F3A4641461F
:1035C000584602E04A463146504601F0E1F80028EC
:1035D000A2D0012000909FE700980028ECD0232182
:1035E00039A002F03BFC062802D0072807D103E0EF
:1035F000BDE8FE4FFFF7D8BCFFF7D6FC0025002D35
:103600007FF47BAFD8E740F69800844201D2641C77
:10361000A4B2642111200CF06FF950B137E0641CA2
:10362000A4B220460EF0A4F82B490EF0E9F800F001
:10363000FDFB012111200CF05FF90028EFD026E0FE
:10364000C82C01D9641EA4B2642141200CF054F9A5
:1036500050B11CE0641EA4B220460EF089F81E4949
:103660000EF0CEF800F0E2FB012141200CF044F90D
:103670000028EFD00BE000E005E040F29E708442AD
:1036800005D2643402E0DC2C01D9143CA4B22046FB
:103690000EF06EF810490EF0B3F800F0C7FB0448C6
:1036A000848000F0F7F9002D7FF428AF84E7000054
:1036B000E06A00206C6A0020A4D90108CEC2B6C816
:1036C0003A000000A1E60000B1A3B4E6B1EAB6A852
:1036D000CAFDBEDD203F00000AD7233C2DE9F14F93
:1036E00088B0182278496846FDF7C5F877480899E8
:1036F0000125848876484FF4A06800EB410700203C
:1037000007F11E0641F20C0940F2035A41F60C0B78
:10371000069001E0079858B108F092FB684601F066
:103720003FFE40F21510089905F0C4FD00200790F7
:10373000398800234246484605F09EFB3188002325
:103740005246584605F098FB2946684601F018FE97
:1037500060A14FF4006001F0FBFD089809F04AF900
:1037600001465EA340F2036240F60C0005F05EFBEA
:10377000192009F05FF90028EAD02946684601F0CF
:10378000FFFD08F09FFF112849D008DC012819D05F
:1037900004282ED009287CD0102817D10CE021282D
:1037A0007DD0402802D0412810D155E06D1CEDB2EB
:1037B000032D0BD3012509E0012D00D803256D1E33
:1037C000EDB203E0012D06D0022D08D0002DAFD1BF
:1037D00009B0BDE8F08F42463946484602E05246FD
:1037E0003146584600F0D4FF0028A1D001200690B1
:1037F0009EE706980028EBD0232139A002F02EFB8B
:10380000062802D0072806D102E0FFF7CDFBDFE74C
:10381000FFF7CAFB0025002D7FF47BAFD8E740F609
:103820009800844201D2641CA4B2642111200CF0DF
:1038300063F850B137E0641CA4B220460DF098FF45
:103840002B490DF0DDFF00F0F1FA012111200CF001
:1038500053F80028EFD026E0C82C01D9641EA4B28A
:10386000642141200CF048F850B11CE0641EA4B261
:1038700020460DF07DFF1E490DF0C2FF00F0D6FA84
:10388000012141200CF038F80028EFD00BE000E0D7
:1038900005E040F29E70844205D2643402E0DC2CE4
:1038A00001D9143CA4B220460DF062FF10490DF07E
:1038B000A7FF00F0BBFA0548848000F0EBF8002D6C
:1038C0007FF428AF84E70000D4D90108E06A002023
:1038D0006C6A0020B2EED1B93A0000006B50610072
:1038E000B1A3B4E6B1EAB6A8CAFDBEDD203F000030
:1038F0000AD7233C10B5402207494FF4C07001F0AD
:103900005FF90548C08FA0F5B4418B3903D0BDE8FD
:10391000104000F003B810BDE06A002030B50F4C35
:10392000207830B1012807D0022808D003280BD115
:1039300008E000F08FF807E000F072F804E000F013
:1039400055F801E000F038F8E08F45F68B25A842E5
:1039500002D000F005F8E58730BD0000E06A0020E5
:1039600013484FF49671F0224185002180F8291008
:1039700080F82810C284012202728270C1704272E3
:1039800042F2957343814FF4FA638380322383714B
:103990000223C3714FF47A73C3850386642343867D
:1039A00080F82C100349416380F83C2070470000E8
:1039B000E06A0020D9AB09000B4803214FF47A726A
:1039C00000F8061C00218176C280C17602220281A5
:1039D0000177428101224277052383818277C38167
:1039E000C27780F827107047E66A00200B48022251
:1039F000002300F8062C83764FF47A71C1800121F0
:103A0000C1760281017742814177052282818177E7
:103A1000C281C17780F8273070470000E66A002035
:103A20000B4801214FF47A7200F8061C8176C2809F
:103A30000022C27602230381027743814177052366
:103A400083818177C381C17780F827207047000088
:103A5000E66A002010B50E480023012100F8063C5C
:103A60004FF47A728176C28054100482C1760224A7
:103A700004814282017744818282417705248481D6
:103A8000C2828177C4810283C17780F8273010BD5C
:103A9000E66A0020402202494FF4C07001F0A0B84D
:103AA000E06A00202DE9F84FDFF8E8B00125002694
:103AB0009BF82840BBF82600ADF8000040F2015703
:103AC00041F21448DFF8D09040F6164A08F0B8F9F1
:103AD00031481C3001F064FCC4EBC4014944504639
:103AE00001F036FC2DA33A46BDF80010404605F023
:103AF000C3F92948002229461C3001F07DFC05004D
:103B000023D0012D1DD0022DE6D13A46694640460C
:103B100000F03EFE0028DFD0BDF80000962804D259
:103B20009620ADF8000008F096F8BDF800104FF4AC
:103B30009670814203D9ADF8000008F08CF8012698
:103B4000CAE7641C04F00304F9E7002E0BD023211C
:103B500013A002F083F902281AD0062805D00728FE
:103B600001D1FFF7C7FEBDE8F88F0BF12605AC7059
:103B7000BDF80000ABF82600FFF78CFF28880DF099
:103B8000F7FD0B490DF03CFEA9780CF0E1FCEAE7EB
:103B900001259BE7E06A0020D8DB0108A1E60000D0
:103BA000B1A3B4E6C5E4D6C3CAFDBEDD203F000024
:103BB000CDCCCC3D2DE9F84F404E0125002796F89D
:103BC0002940708DADF8000040F2015A4FF4AF78F3
:103BD000DFF8EC9040F6194B08F032F934B1384870
:103BE000E03001F0DDFB012C05D00CE03448F8306A
:103BF00001F0D6FB07E033A35246BDF8001040F6B3
:103C0000144005F039F959F82410584601F0A0FB8A
:103C10004FF00002294634B32948E03001F0ECFBB4
:103C2000050028D0012D21D0022DDCD1012CD3D1CB
:103C30005246694641F6140000F0AAFD0028CBD098
:103C4000BDF80000962804D29620ADF8000008F0D8
:103C500002F8BDF80010414503D9ADF8008007F027
:103C6000FAFF0127B8E71648F830D7E70CB100246F
:103C7000F7E70124F5E7002F0BD0232112A002F073
:103C8000EDF8022817D0062805D0072801D1FFF744
:103C900031FEBDE8F88FBDF80000708586F8294038
:103CA000FFF7F8FE708D0DF063FD0B490DF0A8FDD8
:103CB0000CF062FCEDE701258EE70000E06A0020D1
:103CC0002CDB0108A1E60000B1A3B4E6C5E4D6C32D
:103CD000CAFDBEDD203F0000CDCCCC3D2DE9F05F1C
:103CE000002540F202594FF4247640F2145A4FF462
:103CF0008177DFF890804FF4897B234C08F0A0F89F
:103D0000224A4946304606F0DCFB204A51463046FE
:103D100006F0D7FB1EA1384601F01AFB1F4A062108
:103D2000384601F013FB2178584658F8211001F06D
:103D30000FFBFFF7F3FD02F085FF08F0C3FC01283D
:103D40000ED00428DAD13DB1232115A002F086F867
:103D500006280FD00728D1D1BDE8F05FFFF7CABD14
:103D60002078401CC0B22070042801D300202070AD
:103D70000125C3E7FFF7D2FDFFF78CFEBDE8F05F3A
:103D800004F0B0BC34D70108E06A002024CE01085A
:103D9000D2C7C6F7D0CDBAC53A00000064D001083A
:103DA000B1A3B4E6D0DEB8C4BDE1B9FB3F0000006A
:103DB0002DE9FF5F00249B4691468A46264625460C
:103DC0003AF814000DF0D4FC17490DF019FDB04677
:103DD00059F8246001462F4630460DF0CFFB0546CA
:103DE000014600980DF0D8FD03D2641CE4B25C4596
:103DF000E6D3394628460DF089FE04464146304652
:103E00000DF084FE21460DF0B9FB044639460098BA
:103E10000DF07CFE21460DF0F3FC04B04146BDE8F8
:103E2000F05F0DF037BB00006F12833A0149486024
:103E30007047000028000020044908700448C07939
:103E4000002801D0FDF7F8BE7047000028000020D0
:103E5000E06A00200A4980B1012806D0022807D074
:103E6000032808D04FF0FF3007E043F6982004E025
:103E700047F2305001E04EF6602048607047000085
:103E80000800002003F0BABEC0B2202800D27F2074
:103E9000024901EB0010A0F500707047F41C010806
:103EA000C0B2202800D27F20034900EB400001EB84
:103EB0000010A0F5C0607047E46E010870B5C0B294
:103EC0000123114C60F31F211F229818400804EBB6
:103ED000400514F810606D7805EB0625ADB2A942D7
:103EE00005D1094901F1400101EB401070BD03D932
:103EF00000F1010083B202E0A0F1010082B293421E
:103F0000E3D90148403070BDF422010870B5C0B259
:103F10000123114D60F31F21F7229818400805EB8B
:103F2000400415F81060647804EB0624A4B2A142A2
:103F300005D10A4900EBC00001EBC00070BD03D9F8
:103F400000F1010083B202E0A0F1010082B29342CD
:103F5000E3D9024870BD0000342701082429010874
:103F600070B50C46064615460021A02007F01AFF42
:103F700060B1300A07F0E4FE40B1F0B207F0E0FEB5
:103F800020B10121A02007F00DFF48B907F044FF40
:103F9000002070BD002007F09DFEC04304F8010B17
:103FA0006D1E15F0FF05F5D1012007F093FEC0430B
:103FB000207007F031FF012070BD000070B50C4685
:103FC000064615460021A02007F0ECFE08B3300A93
:103FD00007F0B6FEE8B1F0B207F0B2FEC8B100BF1C
:103FE00014F8010BC043C0B207F0AAFE88B16D1EE1
:103FF00015F0FF05F4D107F00FFFA0254FF4C874AA
:104000000021284607F0CEFE30B107F005FF012061
:1040100070BD07F001FF03E0641E2404240CEFD1FF
:10402000002070BD10B501F0BFF810BD034901209C
:104030000870034940030860704700003800002002
:104040001404014010B501F0AFF810BD10B501F037
:10405000ABF810BD10B501F0A7F810BD10B501F018
:10406000A3F810BD10B501F09FF810BD2DE9F34F76
:10407000E04897B04FF00108858803A91898FCF72D
:1040800047FD0898DFF870B300F26C7087B20798AC
:104090004FF4FA6A401CC4B2069840F63309C6B21F
:1040A00023463A46D5A111A80096FCF791F911A92B
:1040B000179801F04DF94046B8F1010F05D00228DC
:1040C00007D0B8F1030F09D117E0D04A042117989F
:1040D00002E017980A3012E001F038F908F0F2FA1D
:1040E00010282ED00FDC0A28DAD2DFE800F005F124
:1040F0000505F0050505EFEED2E71798103080B200
:10410000C24A0221E8E721286FD00BDC11286DD0CC
:104110002028C5D1A8F1010010F0FF08C0D103206C
:104120008046BDE740287FD04128B9D1C82D01D9AC
:104130006D1EADB2642141200BF0DEFB002872D071
:104140004BE14046B8F1010F0BD002282BD0B8F15B
:10415000030FA5D13C2110200BF0CEFB00285AD034
:1041600026E03C2110200BF0C7FBA8B17F1CBFB29A
:104170004F4500D9574691E07F1CBFB24F4500D94B
:10418000574623463A469DA111A80096FCF720F910
:1041900011A9179801F0DCF80F2110200BF0ACFBEF
:1041A0000028E9D07AE03C2110200BF0A5FBA8B153
:1041B000641CE4B20C2C9FD9012471E7641CE4B2A6
:1041C0000C2C00D9012423463A468CA111A8009654
:1041D000FCF7FEF811A9179801F0BAF80F2110208A
:1041E0000BF08AFB002887D1E8E7F2E0BDE021462A
:1041F000384607F027FE761CF6B2B04200D2012600
:1042000023463A467DA111A80096FCF7E1F811A9D2
:10421000179801F09DF80F2110200BF06DFB00287E
:10422000CBD1E4E700E0C7E04046B8F1010F14D07D
:1042300002283FD0B8F1030FBFD13C2140200BF042
:104240005BFB002870D0761E16F0FF06B5D1214624
:10425000384607F0F7FD064622E73C2140200BF0E8
:104260004BFBA8B17F1EBFB2574517D24F4615E092
:104270007F1EBFB2574500D24F4623463A465FA144
:1042800011A80096FCF7A4F811A9179801F060F89E
:104290000F2140200BF030FB0028E9D023463A469E
:1042A00056A111A80096FCF793F811A9179801F0F0
:1042B0004FF80AE73C2140200BF01EFBC8B1641EFA
:1042C00014F0FF04C8D10C24EAE67CE033E04AE0B5
:1042D0003AE0641E14F0FF0400D10C2423463A4651
:1042E00046A111A80096FCF773F811A9179801F0E0
:1042F0002FF80F2140200BF0FFFA0028ACD1E8E79F
:10430000761E16F0FF0604D12146384607F09AFDC6
:10431000064623463A4639A111A80096FCF758F8FC
:1043200011A9179801F014F80F2140200BF0E4FABE
:10433000002891D1E4E708F1010000F0FF08B8F18E
:10434000030F89D90120EBE6641ECDE90664A7F2CC
:104350006C7703A80897FCF724FB189908600120E4
:1043600019B0BDE8F08F0020FAE740F698008542CA
:1043700001D26D1CADB2642111200BF0BDFA50B119
:104380002BE06D1CADB228460DF0F2F959460DF048
:1043900037FAFFF74BFD012111200BF0ADFA002891
:1043A000EFD01AE06D1EADB228460DF0E1F9594686
:1043B0000DF026FAFFF73AFD012141200BF09CFA9F
:1043C0000028EFD009E040F29E70854205D26435A6
:1043D00002E0DC2D01D9143DADB228460DF0C8F93C
:1043E00059460DF00DFAFFF721FD02488580FFF7D1
:1043F00051FB55E6E06A00200AD7233C253034758E
:104400002D253032752D25303275000064D001081D
:104410002DE9F04FDFF85C938A4691B08346B9F8F6
:104420000440012501A95046FCF772FB1827DFF86C
:1044300048833C260198DDE902320090CFA10CA808
:10444000FBF7C6FF0CA9584600F082FF012D04D0EF
:10445000022D06D0032D09D117E0CC4A022158467F
:1044600002E00BF1060012E000F070FF08F02AF9FC
:1044700010282CD00FDC0A28DCD2DFE800F005F091
:104480000505EF050505EEEDD4E70BF10C0080B254
:10449000BE4A0221E8E721287DD009DC11287BD023
:1044A0002028C7D16D1E15F0FF05C3D10325C1E734
:1044B00040287DD04128BDD1C82C01D9641EA4B2AA
:1044C000642141200BF018FA002867D044E1012D47
:1044D0000CD0022D2CD0032DACD13C2110200BF0A0
:1044E0000BFA00285DD00198401C6FE03C211020A1
:1044F0000BF002FAA8B10398401C74E00398401C2A
:10450000B0FBF7F107FB110003900198DDE90232DF
:1045100000909AA10CA8FBF75BFF0CA9584600F08D
:1045200017FF0F2110200BF0E7F90028E6D079E003
:104530003C2110200BF0E0F9A8B10298401C85E066
:104540000298401CB0FBF6F106FB110002900198A6
:10455000DDE90232009089A10CA8FBF739FF0CA914
:10456000584600F0F5FE0F2110200BF0C5F9002889
:104570008AD1E5E70198DDE90232401CB0FBF6F193
:1045800006FB1100019000907CA10CA8FBF720FF16
:104590000CA9584603E0DBE0A6E009E0CBE000F020
:1045A000D7FE0F2110200BF0A7F9002894D1E1E7E6
:1045B000012D11D0022D42D0032D8DD13C21402060
:1045C0000BF09AF9002877D001983B30B0FBF6F158
:1045D00006FB110001902DE73C2140200BF08CF9E7
:1045E000D0B103981730B0FBF7F107FB110003902F
:1045F00018E003981730B0FBF7F107FB11000390A8
:104600000198DDE9023200905CA10CA8FBF7E0FE06
:104610000CA9584600F09CFE0F2140200BF06CF9CD
:104620000028E6D00198DDE90232009053A10CA8E1
:10463000FBF7CEFE0CA9584600F08AFE0DE73C21A0
:1046400040200BF059F9F0B102983B30B0FBF6F185
:1046500006FB11000290EDE674E034E042E038E041
:1046600002983B30B0FBF6F106FB11000290019876
:10467000DDE90232009041A10CA8FBF7A9FE0CA9CC
:10468000584600F065FE0F2140200BF035F9002858
:10469000A1D1E5E70198DDE902323B30B0FBF6F14C
:1046A00006FB11000190009034A10CA8FBF790FECE
:1046B0000CA9584600F04CFE0F2140200BF01CF9CD
:1046C000002888D1E6E76D1CEDB2032DC3D9012582
:1046D000B0E601A8FCF765F9CAF80000012011B0A6
:1046E000BDE8F08F0020FAE740F69800844201D23E
:1046F000641CA4B2642111200BF0FEF850B12BE031
:10470000641CA4B220460DF033F841460DF078F851
:10471000FFF78CFB012111200BF0EEF80028EFD001
:104720001AE0641EA4B220460DF022F841460DF0B6
:1047300067F8FFF77BFB012141200BF0DDF8002833
:10474000EFD009E040F29E70844205D2643402E06A
:10475000DC2C01D9143CA4B220460DF009F84146E6
:104760000DF04EF8FFF762FBA9F80440FFF792F94D
:1047700060E60000E06A00200AD7233C253032754D
:104780003A253032753A25303275000064D0010880
:1047900038B50C4609880091694600F007F80028F2
:1047A00002D000982080012038BD00002DE9F74F8D
:1047B00090B000251198904612F0FF0701687248EA
:1047C00084884FEA1220814601D0A9F10100C6B2C7
:1047D0006E48A6EB070A50F82600B1FBF0F200FB8A
:1047E000121B58460CF0C4FF6849283151F82710B5
:1047F0000CF0C4FE0CF022FECDE9000108F0FF032E
:104800004A4663A10AA8FBF7E3FD0AA9109800F045
:104810009FFD1098AA4500EB450000DC801C80B28B
:104820005D4A012100F092FD681C0090864206D38B
:104830005648711B00EB810050F8040C00E0012089
:10484000019007F03FFF112857D01CDC082843D007
:1048500007DC01284CD00428C3D1002013B0BDE8E8
:10486000F08F092879D01028BBD101990A20BBFB11
:10487000F1F1B1FBF0F200FB1210092815D00199FB
:104880000BEB010020E020282AD021286BD0402803
:104890000ED04128A5D1C82C01D9641EA4B2642130
:1048A00041200BF029F8A0B361E0019840420EE0EE
:1048B00001990A20BBFBF1F1B1FBF0F200FB1210F1
:1048C00020B10199ABEB010083468AE7019800EB28
:1048D000C00101EB0B00F7E70098B0FBF6F103E035
:1048E000A819401E90FBF6F106FB1100C5B278E74F
:1048F00011990120C1F800B0B0E740F69800844259
:1049000001D2641CA4B2642111200AF0F5FF58B151
:104910002DE01AE0641CA4B220460CF029FF1F49C8
:104920000CF06EFFFFF782FA012111200AF0E4FF7C
:104930000028EFD01BE0641EA4B220460CF018FF44
:1049400016490CF05DFFFFF771FA012141200AF0D2
:10495000D3FF0028EFD00AE0FFE740F29E708442C8
:1049600005D2643402E0DC2C01D9143CA4B2204608
:104970000CF0FEFE09490CF043FFFFF757FA02481E
:104980008480FFF787F82CE7E06A0020ACD50108A7
:1049900025302A2E2A66000064D001080AD7233C5D
:1049A0002DE9F35F0A8889464FF03C0BB2FBFBF11F
:1049B0006423B1FBF3F4DFF8FCA103FB14160BFB3B
:1049C0001125BAF804404FF000080127C6EB061085
:1049D00005EB8001009804F099FC012F06D0022F0E
:1049E00008D0032F18D0042F09D118E0724A0121F2
:1049F000009802E00098801C13E000F0A7FC07F08C
:104A000061FE11287FD015DC082861D00DDC01285B
:104A10006CD004285BD172E00098801D01E0009802
:104A2000083080B2644A0121E7E7092877D01028CE
:104A30004DD108E0202851D0212871D0402813D032
:104A4000412844D17EE0012F06D0022F06D0032F4B
:104A500006D0042F3BD105E00A360FE0711C15E0AB
:104A60000A3521E0691C26E0012F06D0022F0BD069
:104A7000032F18D0042F2AD11BE05A366420B6FB2E
:104A8000F0F100FB1166A1E706F109010A20B1FB74
:104A9000F0F200FB1211B6FBF0F000EB800001EB2E
:104AA0004000C6B292E73235B5FBFBF10BFB115566
:104AB0008CE705F109010A20B1FBF0F200FB1211AD
:104AC000B5FBF0F000EB800001EB4000C5B26AE0FE
:104AD0007F1CFFB2042F66D9012764E07F1E17F008
:104AE000FF0760D104275EE00DE0FFE7C6EB06108C
:104AF00005EB8001A9F800104FF0010856E04FF0D7
:104B0000000847464FE040F69800844201D2641CFA
:104B1000A4B2642111200AF0EFFE60B137E02CE06E
:104B200031E0641CA4B220460CF022FE23490CF0B4
:104B300067FEFFF77BF9012111200AF0DDFE002856
:104B4000EFD024E0C82C01D9641EA4B26421412016
:104B50000AF0D2FE50B11AE0641EA4B220460CF056
:104B600007FE16490CF04CFEFFF760F901214120C9
:104B70000AF0C2FE0028EFD009E040F29E708442A5
:104B800005D2643402E0DC2C01D9143CA4B22046E6
:104B90000CF0EEFD09490CF033FEFFF747F9AAF8D7
:104BA0000440FEF777FF002F7FF46DAF4046BDE86D
:104BB000FC9F0000E06A002064D001080AD7233C73
:104BC00070B514460D46064607F076F8E2B229465F
:104BD0003046FFF7C5F9044607F076F8204670BD69
:104BE00070B514460D46064607F066F8E2B229464F
:104BF0003046FFF7E3F9044607F066F8204670BD3B
:104C000070B50BA0FDF7A8F80C4D0024102255F844
:104C100024000B49FDF7C2F855F82400402210216A
:104C2000FDF710F8641CE4B2052CEFD370BD000052
:104C30005C53414D504C455200000000D0D2010859
:104C40006201002010B51446064A01EB8101C9003B
:104C500052F820002423224602F0DAFE002800D178
:104C6000206010BDD0D2010870B50D46044616462E
:104C700064210A48FBF731FE242231460748FBF73E
:104C8000B5FD05EB8500C10005482823034A50F80F
:104C90002400BDE8704002F0BDBE00004066002068
:104CA000D0D2010870B58CB00D460446302226499A
:104CB0006846FBF7E0FD25492846FBF729FF234816
:104CC00022492C30C368CA6893423BD04B6903F237
:104CD0006C7343610969491CC0E90321616964225D
:104CE000481E90FBF2F3C51700EB9575C3EBA503C7
:104CF000950090FBF5F633448E070ED191FBF2F64A
:104D000002FB161222B991FBF5F205FB121121B933
:104D10002169022901DD012100E0002122696D469F
:104D200005EB8202E56852F8042C2A4440F26D1526
:104D300000FB053010440844072190FBF1F201FB11
:104D40001200A0610CB070BDFCD5010854690020B0
:104D500070B5154C154E204694F8251090F8285043
:104D6000C08C012915D0022909D003291BD10CF0D0
:104D7000FFFC31460CF044FD29460BF0E9FB608D49
:104D80000CF0F6FC31460CF03BFDBDE870400BF03A
:104D9000F3BB0CF0EDFC31460CF032FD2946BDE8CA
:104DA00070400BF0D5BB70BDE06A0020CDCCCC3D8F
:104DB0001148816941F00101816110492020486159
:104DC0000F48016821F400510160001F016821F4BF
:104DD0005C4101600A49091D0A680A60091D0A68E8
:104DE00042F400520A60064A411410321160016810
:104DF00041F4005101607047001002400000014082
:104E00000404014008B50020009001F0B7F808A1A3
:104E100040F6162000F09CFA4FF4C062694641F259
:104E20001620FFF7C3FC002800D0009808BD000042
:104E3000CAE4C8EBC3DCC2EB3A00000010B50DA118
:104E400040F60F0000F084FA0EA140F60F4000F08B
:104E50007FFA10A141F20F0000F07AFA11A141F29D
:104E60000F4000F075FABDE8104012A141F60F00A6
:104E700000F06EBAB0FCC0A8CAB1BCE4C9E8D6C3A1
:104E800000000000CEACBBA4C3DCC2EBB5C4D0DED6
:104E9000B8C40000D2D4BCB0D2BABEA7C6C1C4BB8D
:104EA000B5C40000CFD4CABEB6D4B1C8B6C820C1FC
:104EB000C1B6C800BACDC1C1C6C1CAB1B3A4000051
:104EC0002DE9F041012406F0BBFF4FF431664FF4A9
:104ED000C0681A4D41F2142701F050F8184800F04C
:104EE0005FFA184A2146164800F086FA044601285F
:104EF00007D0022C08D0032C1CD0002CECD1BDE82C
:104F0000F0810AF0EDF8E7E701F038F80EA130463D
:104F100000F01EFA424629463846FFF747FC0028B3
:104F2000DAD000210CA000F099FF06F089FFFEF70F
:104F3000B1FDD1E70AF016F8CEE70000146B0020AF
:104F40006CDB01083D4E0008C7EBCAE4C8EBD0C2D9
:104F5000C3DCC2EB3A000000C3DCC2EBD0DEB8C455
:104F6000B3C9B9A6210000002DE9F04F07466948F2
:104F70008BB0694984880025DFF8A0A105A82E46DA
:104F8000EB4601EB47080A90B8F822102BF81510F1
:104F90000BEB45006D1CB8F81810EDB281820A2D9C
:104FA00002D026B10A2103E000250126FAE72946AE
:104FB000684606F041FE2AF817000EB10A2100E00B
:104FC00029460A9806F038FE0AEB4709A9F81400AA
:104FD0000EB10A2100E02946684606F02DFE2AF8A7
:104FE00017000EB10A2100E029460A9806F024FEB7
:104FF000A9F814004AA140F60F7000F0A9F938464C
:1050000007F0F8FC014640F2026900234A4641F2EB
:105010000E5003F00BFF44A140F61C7000F098F90D
:10502000384607F04DFC014600234A4641F21B502A
:1050300003F0FCFE282007F0FDFC0028A4D007F0B8
:1050400041FB11281FD00BDC012817D0042815D0F4
:10505000092899D140F29E7084424DD264344AE0CE
:10506000212845D041288FD1C82C01D9641EA4B273
:10507000642141200AF040FC80B33DE0FDF794FF3D
:105080000BB0BDE8F08F40F69800844201D2641C5A
:10509000A4B2642111200AF02FFC58B12CE0641C4A
:1050A000A4B220460CF064FB49460CF0A9FBFEF7C5
:1050B000BDFE01E0DFF87890012111200AF01CFC10
:1050C0000028ECD018E0641EA4B220460CF050FB7F
:1050D00049460CF095FBFEF7A9FE02E0FFE7DFF87A
:1050E0005090012141200AF007FC0028EBD003E09A
:1050F000DC2C01D9143CA4B220460CF039FB0C493D
:105100000CF07EFBFEF792FE02488480FEF7C2FCA4
:105110003AE70000E06A0020026700206C6A002085
:10512000C1F7C1BF3A000000BCC6D1B93A000000C7
:105130000AD7233C0449FF2008600348143801685B
:105140006FF309010160704714040140134881693D
:1051500041F0010181611248012181600021C1609B
:10516000104801686FF309010160001F016821F414
:10517000407101600B49091D0A6842F0FF020A6094
:10518000091D0A6842F0FF020A60064AFF21103238
:105190001160016841F0FD0101607047001002409C
:1051A000000001400404014010B5FFF7C3FF0348AD
:1051B000C068BDE810400AF00FBB000008000020E6
:1051C00010B5002108480AF0EFFA084C0021E06011
:1051D0000548001D0AF0E8FAA06003480021BDE878
:1051E000104008300AF022BBDC1C01080800002037
:1051F0000F48816941F004018161816941F0080132
:1052000081610C49FC2008600B49032008600948B3
:1052100010380168094AC9B21143016006481038C4
:10522000016821F00F0141F00801016070470000A2
:105230000010024010080140100C014000888888CE
:10524000064800680649C0F38500096801F00101BD
:1052500040EA81117F208843704700000808014020
:10526000080C01402DE9F0412C4C2B48A0612C4842
:10527000E0612C4820622C4805682C48854200DDFE
:1052800005462B48008905F0E7F901466069E062B0
:10529000804628460CF03AFC054660612946A06924
:1052A0000CF0AEFA0746E0602946E0690CF0A8FA77
:1052B00021690CF0EFF806462061414628460CF0C3
:1052C00025FC216A0CF09CFA0546A062314638465E
:1052D0000CF0E0F829460CF0DDF816490CF090FAD5
:1052E00005461549606A0CF08BFA29460CF0D2F895
:1052F00012496062884202DC1149884200DA616228
:105300001049606A0CF07CFA0CF0FAF9BDE8F04143
:1053100080B200F02BBE0000A69B443C9000002011
:105320000E745A3C51499D3B2C0000200000B041B6
:10533000F46600203333333F9A99993E83C02A3F65
:105340000AD7A33C0000D84604F02CBA02F0B0BD46
:1053500002F0A8BE08498A6942F010028A6108B1C9
:10536000891501E04FF0807104480161416821F026
:105370000F01C91C4160704700100240001001403D
:1053800070B50C4600EBC40605467068FBF7B8F92B
:10539000C1B235F834007268BDE87040FFF7D6BF7F
:1053A00070B501880546080ACEB201D07043C6B276
:1053B000696819B14FF48170FFF7CAFF4FF4247484
:1053C0000C4A40F20251204605F07BF8094A40F2AF
:1053D0001451204605F075F8012408E005EBC400DF
:1053E000416835F83400FFF7B3FF641CE4B2B442FF
:1053F000F4D970BD24CE010800F03AB930B41C468F
:105400001346224630BC00F005BA30B41C461346A1
:10541000224630BC00F0E8BA30B41C46134622469F
:1054200030BC00F001B800002DE9FF5F06460C46D5
:1054300085483188904685884FF0000B080ACFB226
:1054400032D0784300F0FF0A0CB1544500D9012452
:1054500006EBC409D9F80400FBF752F9C1B236F8DB
:105460003400D9F80420FFF771FF00BF5FEA08009D
:1054700000D08047322007F0DDFA0028F6D036F859
:105480003400D9F80410FFF763FF07F01BF9102868
:1054900047D00BDC0A28DBD2DFE800F005575B05BC
:1054A000D005A9052292D3E7BA46CDE7212872D0CC
:1054B00008DC11284FD02028CAD1039850EA0B00ED
:1054C0003CD032E0402823D04128C1D1C82D01D999
:1054D0006D1EADB2642141200AF00EFAA0B379E04E
:1054E000039850EA0B0017D003E000BFA4EB0A00BA
:1054F0000CE0B4FBF7F007FB104008B9E01BC4B2A6
:10550000641CE4B2A4E7E01B00E0E019C4B29FE72A
:10551000039830EA0B00ECD1E019C4B2544597D996
:10552000E4E7039830EA0B0008D0641EE4B2B4FB51
:10553000F7F007FB104000288AD1E6E7BC42E2D82A
:1055400004EB0A00C4B2DEE731E0204604B0BDE857
:10555000F09FFF20FAE740F69800854201D26D1CCB
:10556000ADB2642111200AF0C7F958B132E06D1CC8
:10557000ADB228460CF0FCF849460CF041F9FEF7B4
:1055800055FC01E0DFF8C490012111200AF0B4F9C4
:105590000028ECD01EE019E06D1EADB228460CF0DC
:1055A000E7F849460CF02CF9FEF740FC01E0DFF883
:1055B0009C90012141200AF09FF90028ECD009E0DD
:1055C00040F29E70854205D2643502E0DC2D01D99F
:1055D000143DADB228460CF0CBF81C490CF010F984
:1055E000FEF724FC18488580FEF754FA30E7C821FE
:1055F00006200AF081F9002884D106F02CFB6420F3
:1056000006F072FC06F027FB06F01AFC10A14FF41E
:10561000C160FFF79DFEFEF76DF90B494FF4E062A4
:10562000383140F60C40FFF7C1F838B104210CA026
:1056300000F014FC062803D0FEF75CF9002085E793
:10564000FEF728FAFAE70000E06A00200AD7233CB8
:10565000C7EBCAE4C8EBB3F6B3A7B1E0BAC53A00EA
:10566000CAC7B7F1B1A3B4E6B1E0BAC53F000000C4
:105670002DE9F05F0C46DFF894B101880646BBF8CF
:1056800004509046080ACFB232D0784300F0FF0AA7
:105690000CB1544500D9012406EBC409D9F8040023
:1056A000FBF72EF8C1B236F83400D9F80420FFF722
:1056B0004DFE00BF5FEA080000D08047322007F0AF
:1056C000B9F90028F6D036F83400D9F80410FFF7FD
:1056D0003FFE06F0F7FF10283DD00BDC0A28DBD296
:1056E000DFE800F00540450543050505277DD3E7C4
:1056F000BA46CDE7212878D00DDC112839D02028F2
:10570000CAD1641EE4B2B4FBF7F007FB10400028D6
:10571000C2D1E0191DE0402815D04128BCD1C82DC8
:1057200001D96D1EADB2642141200AF0E5F8B8B38D
:105730005FE0B4FBF7F007FB104008B9E01BC4B210
:10574000641CE4B2A8E7E019C4B25445A4D9A4EBA0
:105750000A00C4B2A0E7BC4202D804EB0A00C4B2FB
:10576000E01BF6E72046BDE8F09F0020FBE7FF20A6
:10577000F9E740F69800854201D26D1CADB2642174
:1057800011200AF0B9F860B133E06D1CADB22846C3
:105790000BF0EEFF49460CF033F8FEF747FB02E052
:1057A00013E0DFF86C90012111200AF0A5F8002821
:1057B000EBD01EE06D1EADB228460BF0D9FF494676
:1057C0000CF01EF8FEF732FB01E0DFF844900121F7
:1057D00041200AF091F80028ECD00AE005E040F200
:1057E0009E70854205D2643502E0DC2D01D9143D5E
:1057F000ADB228460BF0BCFF05490CF001F8FEF7EE
:1058000015FBABF80450FEF745F945E7E06A0020C8
:105810000AD7233C2DE9FF5F06460C4670483188C5
:10582000904685884FF0000B080ACFB232D07843FB
:1058300000F0FF0A0CB1544500D9012406EBC4095D
:10584000D9F80400FAF75CFFC1B236F83400D9F891
:105850000420FFF77BFD00BF5FEA080000D080470F
:10586000322007F0E7F80028F6D036F83400D9F8EF
:105870000410FFF76DFD06F025FF102847D00BDC64
:105880000A28DBD2DFE800F005575D055B0505055A
:105890002294D3E7BA46CDE7212874D008DC11283A
:1058A00051D02028CAD1039850EA0B003CD032E0F6
:1058B000402823D04128C1D1C82D01D96D1EADB2D9
:1058C000642141200AF018F8A0B37BE0039850EA65
:1058D0000B0017D003E000BFA4EB0A000CE0B4FB00
:1058E000F7F007FB104008B9E01BC4B2641CE4B237
:1058F000A4E7E01B00E0E019C4B29FE7039830EA98
:105900000B00ECD1E019C4B2544597D9E4E70398F1
:1059100030EA0B0008D0641EE4B2B4FBF7F007FBDA
:10592000104000288AD1E6E7BC42E2D804EB0A0026
:10593000C4B2DEE733E0204604B0BDE8F09F0020AB
:10594000FAE7FF20F8E740F69800854201D26D1C87
:10595000ADB26421112009F0CFFF58B132E06D1CC7
:10596000ADB228460BF004FF49460BF049FFFEF7A5
:105970005DFA01E0DFF86C900121112009F0BCFF15
:105980000028ECD01EE019E06D1EADB228460BF0E9
:10599000EFFE49460BF034FFFEF748FA01E0DFF86E
:1059A00044900121412009F0A7FF0028ECD009E034
:1059B00040F29E70854205D2643502E0DC2D01D9AB
:1059C000143DADB228460BF0D3FE06490BF018FF8C
:1059D000FEF72CFA02488580FEF75CF82EE70000FF
:1059E000E06A00200AD7233C2DE9FF5F0646734892
:1059F0000C4631888588080AC9B2984691468A467D
:105A000030D000FB0AF0C0B200900CB1844200D943
:105A1000012406F04BFF834606EBC4070397786822
:105A2000FAF76EFEC1B236F834007A68FFF78EFCE2
:105A30005FEA090000D0804706F038FFA0EB0B00BA
:105A4000C7B2A8EB07025EA101A8FAF7C1FC01A941
:105A500040F60970FFF77CFC474507D3012004B0EE
:105A6000BDE8F09F0846CDF800A0CEE7322006F052
:105A7000E1FF0028DCD00398416836F83400FFF7D6
:105A800067FC06F01FFE10283ED009DC0A28C3D2AE
:105A9000DFE800F00542460544050505267CBBE726
:105AA000212879D00EDC11283CD02028B4D1641EE6
:105AB000E4B2B4FBFAF10AFB11400028ACD104EBCC
:105AC0000A001FE0402816D04128A5D1C82D01D9D1
:105AD0006D1EADB26421412009F00EFFC8B35FE036
