:020000040800F2
:10000000606D00203D030008450300084703000819
:10001000490300084B0300084D03000800000000DE
:100020000000000000000000000000007502000851
:100030005103000800000000ED0200082903000839
:100040005703000857030008570300084D780008BD
:100050005703000857030008613F0008813F00086C
:10006000893F0008913F0008993F000857030008A6
:1000700057030008570300085703000857030008F8
:1000800057030008570300085703000857030008E8
:10009000570300085703000857030008A13F000852
:1000A00057030008570300085703000857030008C8
:1000B00057030008570300088D95000857030008F0
:1000C00057030008570300085703000857030008A8
:1000D00057030008570300085703000885970008D6
:1000E000693F0008570300085703000800F002F8B2
:1000F00000F07AF80AA090E8000C82448344AAF148
:100100000107DA4501D100F06FF8AFF2090EBAE845
:100110000F0013F0010F18BFFB1A43F0010318473B
:10012000ACE30100CCE301000A444FF0000C10F8EE
:10013000013B13F0070408BF10F8014B1D1108BF65
:1001400010F8015B641E05D010F8016B641E01F805
:10015000016BF9D113F0080F1EBF10F8014BAD1C55
:100160000C1B09D16D1E58BF01F801CBFAD505E073
:1001700014F8016B01F8016B6D1EF9D59142D6D3CD
:10018000704700000023002400250026103A28BFF5
:1001900078C1FBD8520728BF30C148BF0B607047F9
:1001A000662911F0AC84642900F07881752900F08B
:1001B0007581782900F0AE81732900F0A4870020B2
:1001C00070471FB500F0A3FF04000020002110F0CD
:1001D0005DFFE0601FBD10B510BD03B4FFF7FBFF6E
:1001E00003BC01F093F8000000F0CCF81146FFF7D3
:1001F000E8FF0FF0E9F9044800210FF0ABFA0FF027
:10020000F5F900F053FA00004000002080F309885F
:100210007047EFF309807047684680F30988044807
:100220000078C00714BF0220032080F314887047B1
:10023000E0CF0108DFF818C0EFF305831B0618BFF5
:100240006047EFF31483DB0708BF604700DF7047A8
:1002500055F80008DFF818C0EFF305831B0618BF38
:100260006047EFF31483DB0708BF604700DF704788
:1002700039FA0008EFF30980816911F8021CF1B91D
:1002800090E80F10E047EFF3098C8CE80700144B5F
:1002900093E8060091420FD039B12CE9F00FC1F874
:1002A00024C00CB40FF0FCFE0CBC1A60D2F824C0C1
:1002B000BCE8F00F8CF309886FF0020E704710B5A0
:1002C000084A1268914209D8074C54F8214090E836
:1002D0000F10A047EFF3098C8CE80F0010BD000051
:1002E000A8030020101B0008101B00080FF074FD6D
:1002F0000C4B93E80600914210D0EFF3098C2CE9E7
:10030000F00FC1F824C00CB40FF0CAFE0CBC1A6088
:10031000D2F824C0BCE8F00F8CF309886FF0020E0D
:1003200070470000A80300200FF070FFE0E7000016
:100330000FF062FA0FF06AFFDAE700000948804721
:1003400009480047FEE77047FEE7FEE7FEE7FEE7E5
:10035000FEE7FEE7FEE7FEE704480549054A064BCF
:100360007047000069940008ED00000860670020F5
:10037000606D0020606900206069002000487047BF
:10038000FC6600207546FFF7F9FFAE46050069469A
:10039000534620F00700854618B020B5FFF7DCFF74
:1003A000BDE820404FF000064FF000074FF0000876
:1003B0004FF0000B21F00701AC46ACE8C009ACE8F7
:1003C000C009ACE8C009ACE8C0098D467047000020
:1003D0000FB41CB5074B06AA7B44694600900598EC
:1003E00000F067FE0020694600F076FE1CBC5DF858
:1003F00014FB0000FD0C000070B504468569006820
:10040000C10601D5302600E02026C00708D070BD07
:10041000D4E9012130469047206A00F101002062B2
:100420006D1EF5D570BD70B5044685690078C007AE
:1004300008D170BDD4E9012120209047206A00F145
:10044000010020626D1EF5D570BD70B50C460546E5
:10045000012A05D02878800600D5EA69002302E049
:10046000012305E05B1C934202D2E05C0028F9D135
:10047000A869E618C01AA861286A184428622846A4
:10048000FFF7BAFF04E0D5E9012114F8010B90470A
:10049000B442F8D32846FFF7C6FF70BD2DE9F041FE
:1004A0000646002410687529314616A511D0AFF311
:1004B0000080002803DAC0F1000013A507E03168CE
:1004C0008A0701D511A502E0490704D510A501242A
:1004D00001E0AFF3008000210A2306F1240707E0C2
:1004E000B0FBF3F203FB1200303078541046491C85
:1004F0000028F5D123462A463046BDE8F04100F0F9
:1005000067BB0000000000002D0000002B00000071
:100510002000000070B504460D4621461068AFF378
:1005200000802188090502D5104A7A4402E00F4A6A
:100530007A440E32002104F1240307E000F00F0694
:100540004FEA1010965D5E5401F101010028F5D1CB
:1005500003462078000704D5702D02D009B111326E
:1005600002232046BDE8704000F032BBCAD701002C
:100570002DE9F05F894604464FF0000ADFF828B104
:10058000FB44C0F820A02046E168884700287CD0C2
:10059000252806D0D4E901219047206A401C20621A
:1005A000F1E700255F462046E16888472028064697
:1005B00008DB312E06D207EB060010F8200C08B13C
:1005C0000543F0E7A80701D525F00405C4F81CA0F1
:1005D0000027C4F818A02A2E09D030460AF013F8D4
:1005E00038B304EB8708303EC8F8186019E059F8B2
:1005F000041B204604EB87029161E1688847012FC4
:10060000064618D1E069002820DA25F020051DE013
:10061000D8F8180000EB800006EB40003038C8F82E
:1006200018002046E1688847064609F0ECFF0028DC
:10063000EED1012F0AD02E2E08D12046E16888473E
:100640007F1C0646022F45F02005C4DBA069002868
:1006500003DA404245F00105A061E80701D025F02A
:10066000100596B1A6F14100192802D8203645F4AC
:1006700000654A463146204625604D46FFF790FD0D
:1006800060B1012807D0ED1D00E009E025F007006A
:1006900000F1080977E705F1040974E7304679E7C6
:1006A000206ABDE8F09F00009CD701000446AFF32C
:1006B00000802046FFF791FD40EA0103024630B575
:1006C0009B0710D14FF0013400E008C208C91D1B80
:1006D0009D4315EAC41FF8D013F0FF0102F8011B77
:1006E0000DD01B0AF8E711F8013B002B02F8013B83
:1006F00005D011F8013B002B02F8013BF3D130BDCE
:1007000010B5431C02E010F8011B71B18107FAD14A
:100710004FF0013202C88C1A8C4314EAC211F9D08E
:10072000C01A0A0603D0C01E10BDC01A10BD0A04AC
:1007300001D0801E10BD0902FCD0401E10BD40EA51
:10074000010370B59B072ED14FF00136042A2AD33E
:1007500008C810C9121F9D1B9D4315EAC61517D066
:10076000D8B2E1B2401A50EA056110D198B2A1B2F4
:10077000401A50EA05410AD123F07F4024F07F411E
:10078000401A50EA052102D1180EA0EB146070BD8A
:10079000A342DBD018BA21BA884201D9012070BD2A
:1007A0004FF0FF3070BD0AB9002070BD10F8013B5A
:1007B00011F8014B63B1A3420AD1521E08D010F8C0
:1007C000013B11F8014B1BB1A34201D1521EEDD1E7
:1007D000181B70BD421E12F8013F002BFBD111F80F
:1007E000013B002B02F8013BF9D17047032A40F28C
:1007F000308010F0030C00F0158011F8013BBCF1C3
:10080000020F624498BF11F801CB00F8013B38BFDA
:1008100011F8013BA2F1040298BF00F801CB38BFE8
:1008200000F8013B11F0030300F02580083AC0F006
:10083000088051F8043B083A51F804CBA0E80810AE
:10084000F5E7121D5CBF51F8043B40F8043BAFF3E1
:100850000080D20724BF11F8013B11F801CB48BF3B
:1008600011F8012B24BF00F8013B00F801CB48BF71
:1008700000F8012B704710B5203AC0F00B80B1E8AA
:100880001850203AA0E81850B1E81850A0E81850C5
:10089000BFF4F5AF5FEA027C24BFB1E81850A0E8CE
:1008A000185044BF18C918C0BDE810405FEA827CE8
:1008B00024BF51F8043B40F8043B08BF7047D207FF
:1008C00028BF31F8023B48BF11F8012B28BF20F8A0
:1008D000023B48BF00F8012B70474FF0000204298B
:1008E000C0F0128010F0030C00F01B80CCF1040C5F
:1008F000BCF1020F18BF00F8012BA8BF20F8022B93
:10090000A1EB0C0100F00DB85FEAC17C24BF00F838
:10091000012B00F8012B48BF00F8012B70474FF066
:10092000000200B5134694469646203922BFA0E83F
:100930000C50A0E80C50B1F12001BFF4F7AF09074B
:1009400028BFA0E80C5048BF0CC05DF804EB89003C
:1009500028BF40F8042B08BF704748BF20F8022B7F
:1009600011F0804F18BF00F8012B704730B50368B5
:100970001C1404EB21459BB289B2194495FBF2F497
:1009800002FB145301EB034191FBF2F302FB131141
:1009900001E05B1E11440029FBDB016003EB044016
:1009A00030BD2DE9F04704464FF0FF3A86B00068AD
:1009B000029060680390A0680490E068019020694C
:1009C00000906569B5F1804F7EDCB5F1404F7BDB6F
:1009D0003C22002102A8FFF7C9FF3C22014603A8E0
:1009E000FFF7C4FF1822014604A8FFF7BFFF411E0E
:1009F00040F2B55201A8FFF7B9FF0C22064668463F
:100A00000021FFF7B3FF00EB860028443E4D00268F
:100A10007D440FE09A1A491CCDE90012022902D048
:100A20000C2907D104E0810704D0521C019201E097
:100A3000401C00960099019B6A5C9A42EADD0129FC
:100A400006D11C2B04D1810702D00221CDE900166A
:100A5000A0F146018B2940D20199009B00220F464C
:100A600002E0AE5C521C31449A42FADB012B02DDFB
:100A7000820700D0491E40F2B55540F26D16C217EC
:100A800000EB927292106A4300F0030505FB062208
:100A900085070A4400D1521E049D02EB4206DDF890
:100AA0000C80A94605EBC605184EC5EB0515DDF80B
:100AB00008C008EB850535442E14ADB2C6EB06160A
:100AC000C5EB0515B60000E007E00CEB850506EB6D
:100AD000154666F31F45360C03D0504606B0BDE8F8
:100AE000F0877F1CC4E90430521C072092FBF0F30E
:100AF00004F1180600FB1320A6E803042846C4E905
:100B00000297C4E900C8E9E71DD30100A039CEFD72
:100B100070B50C46016800204A1C34D040F2B5552F
:100B20003C23B1FBF3F203FB12112160B2FBF3F1A2
:100B300003FB112218236260B1FBF3F203FB1211D5
:100B4000A16046F2E0310A440721B2FBF1F301FB58
:100B50001321B2FBF5F305FB1322A1619900B2F555
:100B6000B77F06D3521EAD10B2FBF5F3194405FB57
:100B700013220F4BE261616189077B440CD03B2A51
:100B80000AD3521C08E02C212046FFF7C8FE0120A2
:100B9000E0600AE0521A401C195C9142FAD9521CDA
:100BA000C4E903204FF0FF302062204670BD0000F2
:100BB000B3D1010070477047704710B500F0ACFA30
:100BC000006810BD10B5044600F0A6FA046010BD20
:100BD0002DE9F0470D4699469246044600F1240857
:100BE0000168880604D5E06921F01001216000E069
:100BF0000120A84202DDA0EB050700E00027A16963
:100C000007EB050202EB0900A1EB0000A0612078D0
:100C1000C00602D42046FFF7EFFB002608E0D4E927
:100C200001211AF806009047206A401C761C2062B9
:100C30004E45F4DB2078C0060AD52046FFF7DCFBE2
:100C400006E0D4E9012130209047206A401C206250
:100C5000381EA7F10107F4DC07E0D4E9012118F8F8
:100C600005009047206A401C2062281EA5F101055E
:100C7000F3DC2046FFF7D7FB2078000602D50220E0
:100C8000BDE8F0870120FBE770472DE9FF4F0C46D8
:100C90001E464FF0FF378BB0D2E90001DDF86080CF
:100CA0000A908A46C1F30A5505B93D460021084617
:100CB0004FF00000BAF1000F00F4400005DA00EB3D
:100CC00080004FF4400101EA50004FEA9059B9F119
:100CD000010F00DDB9460A9850EA4A000ED044F6EA
:100CE0001050A5F2FF3545432F14B8F1000F1ED068
:100CF0007542291E1EDDC9F100021CE0B8F1010F8A
:100D00004FF0000001D0302103E0F24305E0215410
:100D1000401CB042FBDB30460022002121540B99DD
:100D2000C1F80880C1E900200FB0BDE8F08FBD1BFD
:100D30006D1CDEE74A4600DA694206A800F074FA44
:100D400006AB07CB03AB07C350460A9900F025FB5F
:100D50008DE80700A0F500501F3800900398002D83
:100D600009DD42F21F014A46084403A90390684680
:100D700000F084FD08E0A0F500504A461F3803A9A2
:100D80000390684600F08EFD8DE807000004000C1B
:100D900003D04FF0FF30410800E01046B8F1000FDB
:100DA00003D00022009215461FE0751E06D400F005
:100DB000B5F902F1300262556D1EF8D5B346012235
:100DC000084302D000227F1C04E02078302801D1A3
:100DD00000227F1E002A099787D01DE0112D07DA17
:100DE00000F09CF9303262556D1C50EA0102F5D1D9
:100DF00008430FD10021681E05E0235C625C635448
:100E0000491C2254401E8142F7DBAB46A81B401E02
:100E1000099001E0009848B1002004F80B000B98FD
:100E2000099AC0F80880C0E9002B7DE711264FF031
:100E300000085AE72DE9F04F88460446D21D22F0FB
:100E4000070191B0D1E90001CDE90A0109F039FBB0
:100E500002460B98C00F01D02D2007E020688107C3
:100E600001D52B2002E0202101EAC000032A0990CD
:100E700001D0072A05DB03464146204600F094F9DD
:100E80000FE12078800601D5E06900E00620B8F186
:100E9000650F814606D0B8F1660F18D0B8F1670F1C
:100EA00072D132E00020B9F1110F009001DB112363
:100EB00001E009F101030AAA01A90CA8FFF7E5FE68
:100EC000DDE90C70002609F10105834648E00120A8
:100ED0004B4600904FF000470AAA01A90CA8FFF763
:100EE000D4FEDDE90DB00C995D46002618B909F174
:100EF000010001EB0005B9EB050003D4C0F1FF369A
:100F000009F10105A5EB09002BE0B9F1010F01DAA8
:100F10004FF001090020B9F1110F0090484601DDA2
:100F2000112300E003460AAA01A90CA8FFF7ADFEB1
:100F3000DDE90C704D4600268346207800070AD470
:100F4000AB4500DA5D4601A8012D04DD411911F819
:100F5000011C302907D04F4502DA17F1040F04DADB
:100F60000120824610E06D1EEEE7002F02DCED1B33
:100F70003E4403E0781CA84200DD0546A7EB0600CE
:100F800000F1010A4FF000472078000703D4AA457A
:100F900001DB4FF0FF3A0021B7F1004F0DF143089C
:100FA0008DF8431023D002202B23002F01DA7F423B
:100FB0002D234FF00A0C011EA0F1010000DC4FB1FF
:100FC00097FBFCF10CFB11720F4602F1300208F89E
:100FD000012DF0E7A8F1010003702188090501D572
:100FE000452100E06521A0F1010800F8011C0998E5
:100FF0000FA9A1EB080707F1070700B1012000EBDB
:10100000050101EBEA70A1693844A1EB0000A0F1F1
:101010000100A0612078C00602D42046FFF7ECF959
:10102000099830B1D4E901219047206A00F101000C
:1010300020622078C00620D52046FFF7DDF91CE0AD
:10104000002E04DBB34502DD01A8805D00E0302006
:10105000D4E901219047206A761C401CBAF1010AAC
:1010600020620AD100F053F8C0680168405CD4E9FE
:1010700001219047206A401C2062281EA5F101052D
:10108000DEDC07E0D4E9012118F8010B9047206A63
:10109000401C2062381EA7F10107F3DC2046FFF751
:1010A000C2F9022011B040E601694A1C02610878C9
:1010B000704700B58FB0CDE9013100210591054998
:1010C0007944CDE9031011466846FFF751FA0FB095
:1010D00000BD0000E5FFFFFF0A6802F8010B0A608F
:1010E000704710B5436913B1AFF3008001E0FFF71B
:1010F000ACF9012010BD127800F124010A70002221
:101100004A700122EDE711684FF0FF32E9E710B5B0
:10111000FFF734F9203010BD09F0E8B930B5B0F16F
:101120000A024FEA900E71F100034EEA817EB0EBA5
:101130000E0061EB91014FEA101E4EEA017E10EBAA
:101140000E0041EB11114FEA102E4EEA016E10EB2A
:101150000E0041EB11214FEA104E4EEA014E10EB0A
:101160000E0041EB1141401841F100014FEAD0005F
:1011700040EA41704FEAD10110EB80054FEA81044B
:1011800044EA907444EB01046D1944EB0404521BCF
:10119000A3414FF0000348BF0A3200D530BD401CC8
:1011A00041F1000130BD00002DE9F0411F46044629
:1011B00003260168072A01F4006004DB08B116A5C4
:1011C00005E016A503E008B115A500E015A521F07E
:1011D00010002060A069C01EA0610FB1401EA06178
:1011E0002046FFF709F94FB1D4E90121384690476D
:1011F000206A401C2062C01C206206E0206AFAE7D8
:10120000D4E9012115F8010B9047761EF8D220464B
:10121000FFF709F9BDE8F0814E414E006E616E00A6
:10122000494E4600696E66002DE9F0478146164634
:101230008AB035487844D0E9002380680092CDE92F
:101240000130314878440C38D0E902230069039218
:101250004FF03702CDE9043041F69B30014491FB59
:10126000F2F0A0F1800502FB10141B3C02D5644291
:10127000012000E00020DFF890A080460027FA441B
:10128000AAF1C60A0DE0E00709D03246684607EB2E
:1012900047010AEB810100F005FB8DE807006410AF
:1012A0007F1C002CEFD1184F7F44B43F17E0E807B4
:1012B00013D007EB04100DF1180A90E80E00AAE80D
:1012C0000E00C068F04201D198190890324606A974
:1012D00003A800F0E7FA03AB07C36D10641C002DF0
:1012E000E5D132466946B8F1000F03A802D000F0FC
:1012F000C5FA01E000F0D6FAC9E90001C9F80820F2
:101300000AB0BDE8F087000084CB01000149182035
:10131000ABBEFEE7260002004FF0013C50F8042B64
:1013200051F8043B9A4221D1A2EB0C03934313EAF8
:10133000CC1317D150F8042B51F8043B9A4215D125
:10134000A2EB0C03934313EACC130BD150F8042BFC
:1013500051F8043B9A4209D1A2EB0C03934313EAE0
:10136000CC13DBD04FF00000704700BFD01A01BA99
:10137000B1FA81F101F0180122FA01F0CB40C1F17C
:101380002001DBB2C0B2C01A2CFA01F3D11A91438A
:1013900011EAC311E6D1704770475FEA400C08BFFD
:1013A00091F0000F4FEA8C234FEAC12243EA5151DA
:1013B0004FEA1C5018BF00F5F0404FEA300018BF4C
:1013C00041F000415FEA6C5C00F02980BCF1FF3F16
:1013D00008BF40F080407047130C06BF12044FF066
:1013E000100C4FF0000C130E04BF12020CF1080C8D
:1013F000130F04BF12010CF1040C930F04BF9200F1
:101400000CF1020CD30F04BF52000CF1010C114679
:101410004FF00002A0F11F00A0EB0C00704711F08C
:10142000004F08BF704731F000413FF4D5AF0B0CBF
:1014300006BF09044FF0100C4FF0000C0B0E04BF58
:1014400009020CF1080C0B0F04BF09010CF1040C8C
:101450008B0F04BF89000CF1020CCB0F04BF4900B5
:101460000CF1010CCCF12003A0EB0C0022FA03F3E9
:1014700002FA0CF241EA030100F10100704720F08A
:101480007F4C80EA030023F07F47ACEB070303F5B2
:101490007C5300F0004003F1FF032DE980494FEA3F
:1014A000154B09B44FEA144325EA0B4E24EA0348CE
:1014B0000FF2042606EB132749083E785FEA320252
:1014C00003FB0667C7F5000707FB06F64FEA54372C
:1014D0004FEAD64606F1020607FB066CCCF1005C2B
:1014E0004FEA1C472CEA074C07FB06F40CFB06F5F9
:1014F00004EB15464FEA961634BF00204FF000402B
:101500004FEAD13706FB07FC4FEA1C4C0CFB0BF7EC
:10151000D21B03FB0CF761EB07010CFB0EF7B0EBE2
:10152000074072EB17420CFB08F734BFA2EB0742EF
:10153000B2EB074261EB17414FEA0C444FEA9107C7
:1015400006FB07FC4FEA1C4C0CFB0BF7B0EBC7404B
:1015500072EB573203FB0CF734BFA2EBC742B2EB7E
:10156000C74261EB57310CFB0EF7B0EBC70072EBD3
:1015700057720CFB08F734BFA2EBC702B2EBC702ED
:1015800061EB5771039F4FEA816141EA921104EBCD
:10159000CC044FEAD1374FEA826206FB07FC42EAED
:1015A00090124FEA80604FEA1C4C0CFB0BF7D21BE9
:1015B00003FB0CF761EB07010CFB0EF7B0EB0740E8
:1015C00072EB17420CFB08F734BFA2EB0742B2EBF9
:1015D000074261EB17414FEA8C554FEA910704EB44
:1015E0009C2406FB07FC4FEA1C4C0CFB0BF7B0EBF2
:1015F000C74072EB573203FB0CF734BFA2EBC74274
:10160000B2EBC74261EB57310CFB0EF7B0EBC700F2
:1016100072EB57720CFB08F734BFA2EBC702B2EBB8
:10162000C70261EB577115EB4C254FEA816141EA26
:1016300092114FEA82624FEAD13742EA901206FBDA
:1016400007FC44F100044FEA80604FEA1C4C0CFB9D
:101650000BF7D21B03FB0CF761EB07010CFB0EF73A
:10166000B0EB074072EB17420CFB08F734BFA2EB5C
:101670000742B2EB074261EB174115EB1C154FEA2D
:10168000813141EA92414FEA823242EA90424FEA86
:1016900080304FEA0C7644F1000448EA03434EEAF6
:1016A0000B484FF0000EB2EB080C71EB030724BFA0
:1016B000624639464EEB0E0E4FF0000B00185241B9
:1016C00049414BEB0B0BB2EB080C71EB03077BF1C1
:1016D000000B24BF624639464EEB0E0E4FF0000B56
:1016E0000018524149414BEB0B0BB2EB080C71EB6C
:1016F00003077BF1000B24BF624639464EEB0E0E0A
:1017000051EA020718BF46F0010616EB0E7655F1B6
:10171000000254F1000103D5BDE88901BDE800884D
:10172000BDE88901BDE80048B619524141EB01010D
:10173000A3F10103704780807F7E7D7C7B7A79787E
:10174000777676757473727171706F6E6E6D6C6C86
:101750006B6A6A6968686766666564646363626128
:101760006160605F5F5E5E5D5D5C5C5B5B5A5A59A9
:101770005958585757565655555554545353525215
:101780005251515050504F4F4F4E4E4D4D4D4C4C6D
:101790004C4B4B4B4A4A4A494949484848474747B6
:1017A00047464646454545444444444343434342F3
:1017B000424242414141002B26D4770021D01CB542
:1017C0004FEA370703B44FF010004FF010014FF00D
:1017D00000000FBCBDE810400BF1010BBBF1010F85
:1017E00008BF5FEA170722BF12F1010211F10101E0
:1017F0004FF0004143F1000300F0004043EA0000D5
:101800007047F9D35708DAE746EA064613F1400F66
:101810004FEA16461FDD13F1200FDFBF16430A46BD
:10182000002120335B42C8D0C3F1200746EA0646B8
:1018300002FA07F74FEA164646EA0706C3F1200701
:1018400022FA03F201FA07F721FA03F14FF000033D
:1018500042EA0702B1E746EA020646EA06464FEACE
:10186000164646EA0106BCBF46EA0646360C4FF06D
:1018700000034FF000024FF000019EE72DE9C04841
:10188000934630B491E8380007C831EA400C48BFAD
:1018900034EA430C03D5FFF7F2FDFFF78CFFF0BCF1
:1018A000BDE800882DE9C048934630B491E838007F
:1018B00007C810F0804F08BF13F0804F03D100F02D
:1018C00005F8FFF778FFF0BCBDE8008820F07F47FF
:1018D00080EA030023F07F4C07EB0C03A3F57C5355
:1018E00000F00040A3F1FE0392F0000F00F0B3807F
:1018F00095F0000F00F077802DE901494FEA114083
:101900004FEA144621EA004800FB06FC24EA064799
:1019100008FB06F607FB08F800FB07F718EB06487C
:101920004CEB164C4FEA124B18EB07484FEA1546A2
:101930004CEB174022EA0B4E0BFB06FC25EA064750
:101940000EFB06F607FB0EFE0BFB07F71EEB064E23
:101950004CEB164C4FF000061EEB074E4CEB174BB2
:1019600018EB0B0840F1000018EB0E0B58EB0008C9
:1019700040F100008F1A4FF000013CBFC943661BC5
:1019800014BFB5EB040C00213CBFC943F61B4FEA62
:1019900017444EEA8E0E27EA04454FEA1C4704FB23
:1019A00007622CEA074C05FB07F70CFB05F604FB66
:1019B0000CFC16EB074642EB174216EB0C4642EBCB
:1019C0001C421BEB060658EB0202414146EA9E060A
:1019D00001D5BDE80189B619524141EB0101A3F1DE
:1019E0000103BDE801894FEA14454FEA114724EA93
:1019F000054621EA074C05FB07F406FB07F70CFB3D
:101A000006F105FB0CFC11EB074144EB17444FEAD0
:101A1000124711EB0C4144EB1C4422EA074C05FB36
:101A200007F206FB07F70CFB06F605FB0CFC16EBB2
:101A3000074642EB174216EB0C4642EB1C456A1870
:101A400054F1000148BF7047B619524141EB010102
:101A5000A3F10103704795F0000F37D04FEA114210
:101A60004FEA144721EA024624EA074C02FB07F139
:101A700006FB07F70CFB06F402FB0CFC14EB074417
:101A800041EB17414FEA154714EB0C4441EB1C4165
:101A900025EA074C02FB07F506FB07F70CFB06F6E9
:101AA00002FB0CFC16EB074645EB174516EB0C4604
:101AB00045EB1C42121951F1000148BF7047B6199D
:101AC000524141EB0101A3F1010370474FEA144574
:101AD0004FEA114724EA054621EA074C05FB07F1C6
:101AE00006FB07F70CFB06F24FF0000605FB0CFCAB
:101AF00012EB074241EB174112EB0C4251EB1C4138
:101B000048BF7047921841EB0101A3F101037047F0
:101B10000000000006F04EBB10B50022074B114636
:101B200001EB810403EB440434F81040491CC9B2B2
:101B300022441029F4D3C2F30F1010BDD2030020A9
:101B4000044890F83C00012801D0034800E0034815
:101B500008F0CEBB5C660020B6A5010836800108FF
:101B6000264910B508684FF6FF021040244A40F499
:101B7000E06010430860062004F086F9072004F0B6
:101B800083F9082004F080F9092004F07DF90A2087
:101B900004F07AF9172004F077F9282004F074F99A
:101BA0001E2004F071F9272004F06EF907F09EFC66
:101BB000154A1448D16941F00201D1610021018028
:101BC000018540F65F13838501238382018446F2F9
:101BD000600303838383818601878187A0F8401097
:101BE000018841F001010180906940F0010090619D
:101BF0000648416841F44061416010BD0CED00E0D1
:101C00000000FA05000400400010024000000140FE
:101C100008B5024908440090008808BD006C0040E7
:101C200008B5024A10440090016008BD006C0040F5
:101C3000002007F0F7BC00000148007807F0F2BC74
:101C40002800002070B515460E46044609F030FF06
:101C500021461648FEF730FD144800F077FA30466A
:101C600000F028F964211248FEF737FE00222946C9
:101C70000F4800F05FF90F4C6070012000F008FA87
:101C800064210A48FEF729FE64210948FEF725FE73
:101C900009F016FF6078142802D0172802D003E05C
:101CA000012070BD09F0F7FE002070BD6C640020BB
:101CB000406300205A01002010B5044609F0F8FEE8
:101CC00021460648FEF7F8FC044800F03FFA00F011
:101CD00043FA044609F0F4FE204610BD6C6400206F
:101CE0002DE9F0411C4615460E46074609F0E0FE78
:101CF00023462A463146384600F07CF8142804D0A2
:101D000009F0DEFE0020BDE8F08109F0D9FE0120D7
:101D1000F9E700002DE9F0411C4615460E4607463E
:101D200009F0C6FE23462A463146384600F092F8AE
:101D3000084C607009F0C4FE6078142802D017289F
:101D400003D004E00120BDE8F08109F0A4FE0020EA
:101D5000F9E700005A01002010B5044609F0A8FE7A
:101D600021460B48FEF7A8FC094800F011F9094983
:101D70004870012000F08CF964210548FEF7ADFDA4
:101D800064210548FEF7A9FDBDE8104009F098BEA2
:101D90006C6400205A0100204063002070B5154695
:101DA0000E46044609F084FE21460F48FEF784FCE7
:101DB0000D4800F07AF90D4CA9B20022607030464F
:101DC00000F0B8F86070012000F062F960706421E2
:101DD0000548FEF782FD64210548FEF77EFDBDE85B
:101DE000704009F06DBE00006C6400205A010020B4
:101DF000406300202DE9F0411C4616460F4605467B
:101E000009F056FE29461048FEF756FC0E4800F031
:101E10009DF9384600F04EF8A1B20022304600F09D
:101E200062F80A4C6070012000F032F96421064823
:101E3000FEF753FD64210648FEF74FFD09F040FE12
:101E40006078BDE8F08100006C6400205A01002039
:101E5000406300202DE9F0411C4617460E4605461A
:101E600009F026FE29461048FEF726FC0E4800F031
:101E70006DF9384600F01EF8A1B20C4A304600F069
:101E800059F80A4CA41E6070012000F001F9642189
:101E90000548FEF722FD64210548FEF71EFD09F006
:101EA0000FFE6078BDE8F0816C6400205C010020CA
:101EB0004063002010B5044639200FF0D5F8E0B299
:101EC0000FF0DDF8C4F307200FF0D9F8C4F3074092
:101ED0000FF0D5F8200E0FF0D2F80FF095F8BDE80E
:101EE000104008F011BA70B5064614460D463A2067
:101EF0000FF0BAF8E8B20FF0C2F8280A0FF0BFF8F6
:101F00000FF082F80CB1002011E008F0FDF91D2857
:101F10000FD1304600F052F905463B200FF0A4F8EF
:101F20000FF072F82E44002CEFD020882844208037
:101F3000EBE770BD2DE9F041064614460D463C2006
:101F40000FF092F8E8B20FF09AF8280A0FF097F81D
:101F50000FF05AF80CB1002020800C4F08F0D4F993
:101F60001E2810D1304600F03CFA054638703D205E
:101F70000FF07AF80FF048F82E44002CEED02088AD
:101F800028442080EAE7BDE8F081000059010020E4
:101F900010B5044600F0C4F920785C2801D02F2841
:101FA00003D10021642000F032FABDE81040402047
:101FB00000F096B910B504F0E5FE08B100F0CFF8D6
:101FC000BDE81040302000F08BB9312000F088B916
:101FD00010B505200AF0E3FC5A2000F081F9044610
:101FE00005200AF0DCFC204610BD00002DE9F74F6B
:101FF00082B0834604980E46C700080E4FF0000AD0
:10200000C1F30729C1F30748009056200FF02CF8C0
:10201000F0B20FF034F848460FF031F840460FF0B8
:102020002EF800980FF02BF804980FF028F80EF017
:10203000EBFF3C4614E000BF08F066F905461E2899
:1020400001D07CB113E04021584600F0B4F957208C
:102050000FF00AF80EF0D8FF641E0BF1400BA4B28B
:10206000002CE9D108F050F9054614280ED0162DA1
:1020700009D0FFF7ADFF0AF1010000F0FF0ABAF145
:10208000030FC2D1284605B0BDE8F08F1420FAE74F
:102090000146362000F017B910B508B100F040F93C
:1020A000BDE81040342000F01BB970B5054600F0C3
:1020B00021F904000DD00146284600F021F84128FE
:1020C00007D0142803D0422800D1B32070BD43208C
:1020D00070BD2819BDE87040FFF7DEBF10B504469B
:1020E00000F01EF920785C2801D02F2803D10021B0
:1020F000642000F08CF9BDE81040322000F0F0B808
:1021000070B5054600200E46012401E0641CE4B2CF
:10211000295D5C2913D02F2911D00029F6D1002484
:102120002844FFF7DBFF002C08D0B44206D041283A
:102130000AD0142806D0422800D1B32070BD641CF8
:10214000E4B2EDE7432070BD2046E1E7FF21FFF751
:10215000D7BF2B2000F054B8682000F045B810B568
:1021600022200EF081FF0EF078FF04460EF04CFFA7
:10217000204610BD04480178012901D00020704795
:102180000021017001207047380000202DE9F04146
:102190000EF063FF06460EF060FF05460EF05DFF91
:1021A00004460EF05AFF07460EF02EFF46EA0520C1
:1021B00040EA044040EA0760BDE8F08170B505469A
:1021C00027200EF051FF0EF048FF0400264607D0EE
:1021D0000EF043FF641E05F8010B14F0FF04F7D165
:1021E0000EF012FF304670BD10B504460C200EF004
:1021F0003BFF20460EF043FFBDE81040FFF7C6BF8F
:1022000010B504460A200EF02FFF20460EF037FFCF
:102210000EF023FF04460EF0F7FE204610BD10B569
:1022200004464A200EF020FFE0B20EF028FFC4F36F
:1022300007200EF024FFC4F307400EF020FF00201B
:102240000EF01DFF0EF0E0FEBDE8104008F05CB897
:102250002DE9F04115000F46804601D0002028707E
:102260004C200EF001FF38460EF009FF0EF0CCFEB8
:1022700008F04AF80646142823D127200EF0F4FE71
:102280000EF0EBFE0EF0E9FE04460EF0E6FE0EF058
:10229000E4FE0EF0E2FEFFF779FF014684B122462C
:1022A0004046FFF7A3FE064614280AD108EB44284F
:1022B00015B1287820442870381B10F0FF07CFD1C3
:1022C0003046BDE8F08110B50C460EF0CDFE20463C
:1022D0000EF0D5FE0EF098FEBDE8104008F014B8E0
:1022E00010B50EF0C1FE0EF08FFEBDE8104008F0F4
:1022F0000BB80000014600E0491C0A78002AFBD117
:1023000006E000BF11F8012D5C2A03D02F2A01D06E
:102310008142F7D1814200D0491C081AC0B27047EF
:1023200070B5054601200EF09FFE0EF096FE432884
:1023300028D22B20FFF764FF102823D22F200EF085
:1023400093FE00200EF09BFE3220FFF7C9FF1428F9
:1023500018D1CF20FFF754FF040013D04C20FFF713
:1023600043FF00EB04214C2000F051F85020FFF710
:102370003BFF00EB0421502000F049F800217020C1
:1023800000F045F82F200EF06FFE2C7806E000BF1D
:1023900015F8014F5C2C0AD02F2C08D020460EF0E7
:1023A0006EFE002CF4D1BDE870400EF02DBE002072
:1023B0000EF065FEF7E770B505460C462C200EF0D2
:1023C00053FE20460EF05BFE3CB128780EF057FE1F
:1023D0006D1C641E14F0FF04F7D1BDE870400EF0D0
:1023E00013BE70B505462D200EF03EFE0EF035FEF4
:1023F0000400264607D028780EF041FE6D1C641EAE
:1024000014F0FF04F7D10EF0FFFD304670BD70B53B
:1024100005460C460D200EF027FE28460EF02FFE36
:10242000E0B20EF02CFEC4F307200EF028FEC4F339
:1024300007400EF024FE200E0EF021FEBDE8704095
:102440000EF0E2BD012009F041BB10B502F064FCC2
:1024500005F09CFEBDE81040FFF7F4BF10B5044640
:102460000121502009F0FCFBC8B1002009F090FBCD
:102470002070002009F08CFB6070002009F088FBC0
:10248000A070012009F084FBE07009F023FC00211A
:10249000502009F0E5FB09F01DFC012010BD09F0FA
:1024A00019FC002010BDF8B50D46064609F062FB88
:1024B0006846FFF7D3FF040011D09DF801009DF896
:1024C000001000EB0120C0F30D0030809DF80300E8
:1024D0009DF8021000EB0120C0F38D00288009F068
:1024E00051FB2046F8BD000030B50E480E4C0023CD
:1024F0000078042234F81010401CC0B20D460528A4
:1025000000D3002034F810104D1BADB2521E2B44E6
:1025100012F0FF02F0D1C3F38F004FF4FA71484379
:1025200030BD000000000020C803002010B50446A4
:1025300012490FF0E9F812490EF030FF21460FF072
:10254000E3F810490EF02AFF21460FF0DDF80E499E
:102550000EF024FF21460FF0D7F80C490EF01EFFB5
:1025600021460FF0D1F80A490EF018FF21460FF06E
:10257000CBF8BDE8104007490EF010BF92EBD72C06
:10258000EEC70B310DBDA2343E5ADE37774BBB3A56
:1025900045B8353D145C1C3F2DE9F04706461A4FFF
:1025A0000898984691468A46002540B10AF038F9C5
:1025B00004461649884504DA3046BDE8F0873C46B3
:1025C000F7E7134890F82C0018B15046FFF7AEFF1C
:1025D0000546494640460EF0E1FE29460FF01AFA3C
:1025E00021460FF091F80446394650460EF0D6FECB
:1025F00008490FF089F831460FF086F82146BDE80A
:10260000F0470EF03FBF0000339388436F12833AC8
:102610005C66002066A6CA422DE9F0411F4690463E
:102620000C4606460AF0FCF805460F4920460EF017
:10263000B5FE0E490FF068F80446414638460EF0E4
:10264000ADFE29460FF060F821460EF01BFF314623
:102650000FF05AF80649884202DA0020BDE8F081FE
:10266000BDE8F0410EF08EB93393884366A6CA42A6
:102670006F12833A2DE9FF4F87B090460F461D46F3
:10268000182226496846FEF7F6F80026012440F293
:10269000151B40F2035941F60C0A00BF09F02EFB4E
:1026A000684602F031FE5846079906F077FD1CA1F6
:1026B00040F6020002F000FE58F825101AA340F27E
:1026C000013240F60C0006F025FB37F81510002308
:1026D0004A46504606F044FB00222146684602F076
:1026E0003FFE0446012807D0022C0ED0002CD5D185
:1026F0000BB03046BDE8F08F2B464246394607986E
:1027000000F014F807E00126C8E707EB45014A4648
:10271000504601F0E3FF0028C0D0F4E75CD901087F
:10272000C1F7C1BF3A0000004C2F6D002DE9FF4FEB
:102730008DB0002004908F481F460E46848831F8E3
:10274000175008880A90B1F802B0B1F804A0B1F8A7
:1027500006904FF0010852F8270087490EF0D4FF89
:102760004FF07C510EF01AFE0EF04EFF81490D9A8B
:1027700001EB42010691888101210D9804F0F0FAE5
:1027800009F0BCFA7DA1002002F096FDF580B5802D
:10279000758035800D980AF057F803907AA10020D3
:1027A00002F08AFD002340F203522946192006F068
:1027B000D7FA78A14FF4406002F07EFD77A340F293
:1027C000036240F60C40039906F0A4FA74A14FF49A
:1027D000C05002F071FD0D9804F0B4FA014641F6C4
:1027E0000C0006F0EDFA64200AF082F80028D1D03F
:1027F00009F0C6FE112856D008DC01281AD004289A
:1028000078D0092877D0102813D106E0212873D07A
:10281000402808D041280CD162E042F20F70854276
:1028200005D26D1C02E0632D01D96D1EADB20120F1
:10283000049089E0069864215B4A8089484303211B
:102840000590880202F036FD40F2036205A940F6C9
:102850000C4001F051FF00B30120049005980EF0E8
:102860000BFF0290642D19D3039810F0FF4F17D07F
:1028700028460EF001FF0546069880890EF0FCFE02
:1028800029460EF0FFFD014602980EF0FBFD474978
:102890000EF0F8FD0EF0B8FE85B201E04FF47A7547
:1028A00009F02CFA50E040F69800844201D2641CF2
:1028B000A4B2642111200CF0B3FF50B138E0641CC5
:1028C000A4B220460EF0D8FE39490EF01DFF01F0EB
:1028D0004BFA012111200CF0A3FF0028EFD027E0D4
:1028E000C82C01D9641EA4B2642141200CF098FFC9
:1028F00068B11DE02CE011E016E0641EA4B2204691
:102900000EF0BAFE2A490EF0FFFE01F02DFA012169
:1029100041200CF085FF0028EFD009E040F29E70C6
:10292000844205D2643402E0DC2C01D9143CA4B208
:1029300020460EF0A1FE1E490EF0E6FE01F014FA4C
:102940000C48848001F044F8B8F1000F7FF41EAF0A
:1029500000210D9804F004FA0A983080A6F802B01D
:10296000A6F804A0A6F8069026F81750049811B00F
:10297000BDE8F08F5C66002000002041B5F7CAD4A6
:10298000C1F7C1BF00000000C1F7C1BFB1B6C2CAE4
:102990003A000000C1F7C1BF3A0000004C2F6D00A3
:1029A000CAE4B3F63A000000B6CF01080000C842FE
:1029B0000AD7233C2DE9F04F8BB0824620223D49B7
:1029C00001A8FDF758FF40F2015009903B483A49F1
:1029D00000EB4A0B01EBCA05BBF80C0001243C35A7
:1029E0004FF00009ADF8000040F60C0640F2035726
:1029F00041F60C0809F082F901A802F085FC514665
:102A000040F2151006F0CAFB2DA3BDF800103046A9
:102A1000099A06F0A5F9298800233A46404606F0AF
:102A20009FF90022214601A802F09AFC04000FD071
:102A3000012C24D0022C33D0032CE5D13A46294670
:102A4000404601F04BFE0028DED04FF00109DBE7E5
:102A5000B9F1000F0AD023211AA003F0B3F9062818
:102A600007D0072808D00124002CC3D10BB0BDE843
:102A7000F08F00F037FAF9E700F0CAF9F4E7694699
:102A80003046099A01F02AFE0028BDD0BDF80000AA
:102A90006421B0FBF1F1ABF80C1000F099FFB3E743
:102AA0002946504600F016F80028A3D04FF001093F
:102AB000A0E700003CD90108E86500205C66002022
:102AC0004C2F6D00B1A3B4E6B1EAB6A8CAFDBEDDD5
:102AD000203F00002DE9F04F5FEA000987B08A48E7
:102AE0004FF00007039784880D46049703D0002019
:102AF00007B0BDE8F08F40F20150019083A0029032
:102B000009F0FCF80121484604F02AF97E494FF407
:102B1000006B01EB490040F60C0A0590484609F0AD
:102B200093FE804609F03EFD064609F045FE01464B
:102B300000200246009033464046FFF72DFD064632
:102B400073A1002002F0B8FB2988002340F2035251
:102B5000192006F005F971A1584602F0ADFBDDE938
:102B600001233146504606F0D5F86EA14FF480504F
:102B700002F0A2FBDDE90123414641F20C0006F020
:102B8000C9F86AA14FF4C05002F096FB484604F021
:102B9000D9F8014641F60C0006F012F9642009F05C
:102BA000A7FE0028BAD009F0EBFC112858D00EDCA3
:102BB000012825D0042872D0092871D01028ADD161
:102BC000288842F20F71884217D2401C14E0212855
:102BD00067D040280CD04128A0D1C82C01D9641E50
:102BE000A4B2642141200CF01BFE002865D076E0E1
:102BF0002888632801D9401E2880012003908DE792
:102C000005984C4A032180890490584602F052FBF3
:102C100004A95046019A01F06FFD0028EFD0012071
:102C2000039004980EF028FD80462888642814D369
:102C300016F0FF4FE3D00EF01FFD06460598808981
:102C40000EF01AFD31460EF01DFC014640460EF016
:102C500019FC0EF0D9FC288060E74FF47A70FAE78F
:102C600040F69800844201D2641CA4B26421112071
:102C70000CF0D6FD58B132E0641CA4B220460EF030
:102C8000FBFC31460EF040FD01F06EF800E02A4EEC
:102C9000012111200CF0C4FD0028EDD01FE02CE034
:102CA00013E018E0641EA4B220460EF0E5FC3146A5
:102CB0000EF02AFD01F058F800E01F4E01214120DE
:102CC0000CF0AEFD0028EDD009E040F29E70844289
:102CD00005D2643402E0DC2C01D9143CA4B22046B5
:102CE0000EF0CAFC14490EF00FFD01F03DF8064845
:102CF000848000F06DFE002FAED00021484604F025
:102D00002FF80398F4E600005C6600204C2F6D005D
:102D1000C1F7C1BFB1B6C2CA3A000000B9A4BFF63C
:102D20003A000000B1EABFF63A000000CAE4B3F688
:102D30003A000000B6CF01080AD7233C2DE9F0473E
:102D40002B49804601EB08002A4990F820600124B5
:102D500001EBC800002500F13C0A012E16D0022E1E
:102D600043D1254FDFF8949008F0C8FF384602F0B1
:102D7000CBFA00222146384602F0F2FA0446052832
:102D800031D2DFE800F006181E282C001A4F283F29
:102D9000E8E7002D29D0232119A003F013F8062815
:102DA00005D0072821D1BDE8F04700F031B8BDE8D3
:102DB000F04700F097B809EB0612002304E0012564
:102DC000D2E709EB0612012351464046FFF752FCB9
:102DD0000028C9D0F3E709EB06120223F4E709EB58
:102DE00006120323F0E7002CBED1BDE8F0870000F7
:102DF0005C660020E86500209CD9010854D80108D1
:102E0000B1A3B4E6B1EAB6A8CAFDBEDD203F00001A
:102E100010B5062231494FF4807001F077FE2F483B
:102E200045F6A5214FF47A7482888A4203D0E200E5
:102E300002804480818072222949802001F066FE50
:102E4000274845F6A422B0F87010914244D046F6C7
:102E5000B321A0F86410A0F86810A0F86C10A0F8D6
:102E60006640A0F86A40A0F86E4041818181C1812E
:102E700001824182048544858485C48504864FF49B
:102E80000041018041808180C18001818182C182B5
:102E9000018341838183C483048444848484C484FF
:102EA00044868486C486048744878487A0F8444087
:102EB000A0F84C40A0F85440A0F85640A0F8584064
:102EC000A0F85A40A0F85C40A0F85E40A0F860402E
:102ED000A0F86240A0F8702010BD00002802002079
:102EE000E865002010B5062205494FF4807001F016
:102EF0001DFE7222BDE810400249802001F016BE7E
:102F000028020020E86500202DE9F04F07467448AC
:102F100000258BB084882E4608F0F0FE40F2044075
:102F2000052F0FD2DFE807F0030507090B006DA19D
:102F300006E071A104E075A102E079A100E07DA1A5
:102F400002F0BAF98049DFF804A205A8EB4601EBCC
:102F500047080A90B8F822102BF815100BEB450023
:102F60006D1CB8F81810EDB281820A2D02D026B17E
:102F70000A2103E000250126FAE72946684608F001
:102F80007BFD2AF817000EB10A2100E029460A98B5
:102F900008F072FD0AEB4709A9F814000EB10A21E6
:102FA00000E02946684608F067FD2AF817000EB1D0
:102FB0000A2100E029460A9808F05EFDA9F81400ED
:102FC00063A140F6064002F077F9384609F070FC3C
:102FD000014640F2026900234A4641F2082005F00A
:102FE00099FE5DA140F6144002F066F9384609F0FA
:102FF000C5FB014600234A4641F2162005F08AFE31
:10300000282009F075FC0028A4D009F0B9FA11288D
:103010001FD00BDC012817D0042815D0092899D11E
:1030200040F29E7084424DD264344AE0212845D05B
:1030300041288FD1C82C01D9641EA4B2642141203B
:103040000CF0EEFB80B33DE0FFF74CFF0BB0BDE8AA
:10305000F08F40F69800844201D2641CA4B264212F
:1030600011200CF0DDFB58B12CE0641CA4B220460A
:103070000EF002FB49460EF047FB00F075FE01E042
:10308000DFF8DC90012111200CF0CAFB0028ECD005
:1030900018E0641EA4B220460EF0EEFA49460EF087
:1030A00033FB00F061FE02E0FFE7DFF8B49001219E
:1030B00041200CF0B5FB0028EBD003E0DC2C01D95B
:1030C000143CA4B220460EF0D7FA25490EF01CFBA2
:1030D00000F04AFE0248848000F07AFC3AE70000E3
:1030E0005C6600203CB7DB20B3BE3E20D7D4B6AF31
:1030F000B5F7C1E3000000003CC8D5BEF9413E2051
:10310000D7D4B6AFB5F7C1E3000000003CC8D5BEC8
:10311000F9423E20D7D4B6AFB5F7C1E300000000B6
:103120003CCAB1BEF9433E20D7D4B6AFB5F7C1E330
:10313000000000003CCAB1BEF9443E20D7D4B6AF6F
:10314000B5F7C1E3000000002E620020E865002012
:10315000C1F7C1BF3A000000BCC6D1B93A000000B7
:103160000AD7233C10B5044602F0BCFE40F60E0020
:10317000052C09D2DFE804F003050D0F110008A1AA
:1031800000E00BA102F098F82046BDE8104001F0E5
:103190009FBE0BA1F6E70EA1F4E711A1F2E7000034
:1031A000B7DB20B3BE20D7D4B6AFB5F7C1E300007C
:1031B000C8D5BEF94120D7D4B6AFB5F7C1E30000FA
:1031C000C8D5BEF94220D7D4B6AFB5F7C1E30000E9
:1031D000CAB1BEF94320D7D4B6AFB5F7C1E30000FA
:1031E000CAB1BEF94420D7D4B6AFB5F7C1E30000E9
:1031F0002DE9F14F88B0182278496846FDF73BFB6E
:10320000774808990125848876484FF4A06800EB38
:10321000410606F114073236002041F20C0940F253
:10322000035A41F60C0B069001E0079858B108F0DC
:1032300065FD684602F068F840F21510089905F03F
:10324000ADFF00200790398800234246484605F02C
:1032500087FD318800235246584605F081FD2946F6
:10326000684602F041F860A140F6020002F024F83E
:10327000089809F083FA01465DA340F2026240F625
:103280000C0005F047FD192009F032FB0028EAD0B8
:103290002946684602F028F809F072F9112849D049
:1032A00008DC012819D004282ED009287CD0102849
:1032B00017D10CE021287DD0402802D0412810D120
:1032C00055E06D1CEDB2032D0BD3012509E0012D56
:1032D00000D803256D1EEDB203E0012D06D0022DAE
:1032E00008D0002DAFD109B0BDE8F08F4246394675
:1032F000484602E052463146584601F0EFF90028B0
:10330000A1D0012006909EE706980028EBD023214B
:1033100038A002F057FD062802D0072806D102E0A7
:10332000FFF7E0FDDFE7FFF7DDFD0025002D7FF46F
:103330007BAFD8E740F69800844201D2641CA4B267
:10334000642111200CF06CFA50B137E0641CA4B277
:1033500020460EF091F92B490EF0D6F900F004FD4D
:10336000012111200CF05CFA0028EFD026E0C82CD7
:1033700001D9641EA4B2642141200CF051FA50B16D
:103380001CE0641EA4B220460EF076F91D490EF032
:10339000BBF900F0E9FC012141200CF041FA0028C2
:1033A000EFD00BE000E005E040F29E70844205D2D1
:1033B000643402E0DC2C01D9143CA4B220460EF0A7
:1033C0005BF910490EF0A0F900F0CEFC04488480AF
:1033D00000F0FEFA002D7FF428AF84E70CD9010835
:1033E0005C660020E8650020BCC6D1B93A00000048
:1033F0006B506100B1A3B4E6B1EAB6A8CAFDBEDD68
:10340000203F00000AD7233C2DE9F14F774882B0D6
:10341000012584887648029940F2026700EB410654
:1034200006F10A082836002041F20C0B40F203593D
:1034300041F60C0A009001E0019858B108F05EFCDA
:103440006C4801F061FF40F21510029905F0A6FEEC
:1034500000200190B8F8001000233A46584605F0C5
:103460007FFC318800234A46504605F079FC294606
:10347000604801F039FF60A140F6020001F01CFF36
:10348000029809F09BF901465DA33A4640F60C000C
:1034900005F040FC192009F02BFA0028EBD0294652
:1034A000544801F021FF09F06BF8112849D008DCDD
:1034B000012819D004282DD009287CD0102817D134
:1034C0000CE021287DD0402802D0412810D155E0C1
:1034D0006D1CEDB2032D0BD3012509E0012D00D8A1
:1034E00003256D1EEDB203E0012D05D0022D07D09E
:1034F000002DAFD1BDE8FE8F3A464146584602E066
:103500004A463146504601F0E9F80028A2D0012091
:1035100000909FE700980028ECD0232139A002F00A
:1035200051FC062802D0072807D103E0BDE8FE4F72
:10353000FFF7D8BCFFF7D6FC0025002D7FF47BAF4A
:10354000D8E740F69800844201D2641CA4B26421FA
:1035500011200CF065F950B137E0641CA4B220468C
:103560000EF08AF82B490EF0CFF800F0FDFB012198
:1035700011200CF055F90028EFD026E0C82C01D915
:10358000641EA4B2642141200CF04AF950B11CE041
:10359000641EA4B220460EF06FF81E490EF0B4F877
:1035A00000F0E2FB012141200CF03AF90028EFD0B5
:1035B0000BE000E005E040F29E70844205D26434E6
:1035C00002E0DC2C01D9143CA4B220460EF054F8E1
:1035D00010490EF099F800F0C7FB0448848000F011
:1035E000F7F9002D7FF428AF84E700005C66002027
:1035F000E8650020F4D80108CEC2B6C83A00000041
:10360000A1E60000B1A3B4E6B1EAB6A8CAFDBEDDEA
:10361000203F00000AD7233C2DE9F14F88B0182243
:1036200078496846FDF727F9774808990125848885
:1036300076484FF4A06800EB4107002007F11E0612
:1036400041F20C0940F2035A41F60C0B069001E0DE
:10365000079858B108F052FB684601F055FE40F259
:103660001510089905F09AFD00200790398800236D
:103670004246484605F074FB3188002352465846BE
:1036800005F06EFB2946684601F02EFE60A140F66B
:10369000020001F011FE089809F00AF901465EA344
:1036A00040F2036240F60C0005F034FB192009F0EB
:1036B0001FF90028EAD02946684601F015FE08F0F7
:1036C0005FFF112849D008DC012819D004282ED02A
:1036D00009287CD0102817D10CE021287DD0402863
:1036E00002D0412810D155E06D1CEDB2032D0BD353
:1036F000012509E0012D00D803256D1EEDB203E080
:10370000012D06D0022D08D0002DAFD109B0BDE8A3
:10371000F08F42463946484602E052463146584606
:1037200000F0DCFF0028A1D0012006909EE706985B
:103730000028EBD0232139A002F044FB062802D058
:10374000072806D102E0FFF7CDFBDFE7FFF7CAFB52
:103750000025002D7FF47BAFD8E740F69800844227
:1037600001D2641CA4B2642111200CF059F850B1AC
:1037700037E0641CA4B220460DF07EFF2B490DF00B
:10378000C3FF00F0F1FA012111200CF049F80028E4
:10379000EFD026E0C82C01D9641EA4B264214120D8
:1037A0000CF03EF850B11CE0641EA4B220460DF0AF
:1037B00063FF1E490DF0A8FF00F0D6FA0121412059
:1037C0000CF02EF80028EFD00BE000E005E040F20E
:1037D0009E70844205D2643402E0DC2C01D9143C92
:1037E000A4B220460DF048FF10490DF08DFF00F007
:1037F000BBFA0548848000F0EBF8002D7FF428AF79
:1038000084E7000024D901085C660020E8650020F8
:10381000B2EED1B93A0000006B506100B1A3B4E63A
:10382000B1EAB6A8CAFDBEDD203F00000AD7233C9E
:1038300010B5402207494FF4C07001F067F9054800
:10384000C08FA0F5B4418B3903D0BDE8104000F023
:1038500003B810BD5C66002030B50F4C207830B145
:10386000012807D0022808D003280BD108E000F077
:103870008FF807E000F072F804E000F055F801E07E
:1038800000F038F8E08F45F68B25A84202D000F012
:1038900005F8E58730BD00005C66002013484FF452
:1038A0009671F0224185002180F8291080F82810B7
:1038B000C284012202728270C170427242F2957318
:1038C00043814FF4FA638380322383710223C371EF
:1038D0004FF47A73C38503866423438680F82C10E3
:1038E0000349416380F83C20704700005C6600207B
:1038F000D9AB09000B4803214FF47A7200F8061C7B
:1039000000218176C2800122C276022303810277E0
:1039100043814177052383818177C381C27780F812
:1039200027107047626600200B480222002300F82F
:10393000062C83764FF47A71C1800121C176028111
:10394000017742814177052282818177C281C177E7
:1039500080F8273070470000626600200B48012184
:103960004FF47A7200F8061C8176C2800022C2767B
:103970000223038102774381417705238381817785
:10398000C381C17780F8272070470000626600205D
:1039900010B50E480023012100F8063C4FF47A725E
:1039A0008176C28054100482C1760224048142824E
:1039B000017744818282417705248481C2828177A4
:1039C000C4810283C17780F8273010BD6266002071
:1039D000402202494FF4C07001F0A8B85C66002094
:1039E0002DE9F84FDFF8E8B0012500269BF82840C4
:1039F000BBF82600ADF8000040F2015741F2144830
:103A0000DFF8D09040F6164A08F078F931481C30BB
:103A100001F07AFCC4EBC4014944504601F04CFC6F
:103A20002DA33A46BDF80010404605F099F9294803
:103A3000002229461C3001F093FC050023D0012D03
:103A40001DD0022DE6D13A466946404600F046FEBA
:103A50000028DFD0BDF80000962804D29620ADF8EB
:103A6000000008F018F8BDF800104FF4967081427D
:103A700003D9ADF8000008F00EF80126CAE7641C6F
:103A800004F00304F9E7002E0BD0232113A002F069
:103A900099F902281AD0062805D0072801D1FFF786
:103AA000C7FEBDE8F88F0BF12605AC70BDF800002D
:103AB000ABF82600FFF78CFF28880DF0DDFD0B49E1
:103AC0000DF022FEA9780CF0C7FCEAE701259BE780
:103AD0005C660020F8DA0108A1E60000B1A3B4E6B4
:103AE000C5E4D6C3CAFDBEDD203F0000CDCCCC3D31
:103AF0002DE9F84F404E0125002796F82940708D9A
:103B0000ADF8000040F2015A4FF4AF78DFF8EC90C6
:103B100040F6194B08F0F2F834B13848C83001F0DB
:103B2000F3FB012C05D00CE03448E03001F0ECFB55
:103B300007E033A35246BDF8001040F6144005F0EC
:103B40000FF959F82410584601F0B6FB4FF0000267
:103B5000294634B32948C83001F002FC050028D0BA
:103B6000012D21D0022DDCD1012CD3D15246694642
:103B700041F6140000F0B2FD0028CBD0BDF80000E3
:103B8000962804D29620ADF8000007F084FFBDF817
:103B90000010414503D9ADF8008007F07CFF0127F4
:103BA000B8E71648E030D7E70CB10024F7E7012466
:103BB000F5E7002F0BD0232112A002F003F9022811
:103BC00017D0062805D0072801D1FFF731FEBDE840
:103BD000F88FBDF80000708586F82940FFF7F8FEE1
:103BE000708D0DF049FD0B490DF08EFD0CF048FC79
:103BF000EDE701258EE700005C66002064DA01082D
:103C0000A1E60000B1A3B4E6C5E4D6C3CAFDBEDD9B
:103C1000203F0000CDCCCC3D2DE9F05F002540F2E7
:103C200002594FF4247640F2145A4FF48177DFF8AA
:103C300090804FF4897B234C08F060F8224A494673
:103C4000304606F05EFB204A5146304606F059FBEE
:103C50001EA1384601F030FB1F4A0621384601F00C
:103C600029FB2178584658F8211001F025FBFFF771
:103C7000F3FD02F0A1FF08F083FC01280ED0042818
:103C8000DAD13DB1232115A002F09CF806280FD00F
:103C90000728D1D1BDE8F05FFFF7CABD2078401CEE
:103CA000C0B22070042801D3002020700125C3E792
:103CB000FFF7D2FDFFF78CFEBDE8F05F04F0B4BC67
:103CC00084D601085C66002076CD0108D2C7C6F70D
:103CD000D0CDBAC53A000000B6CF0108B1A3B4E612
:103CE000D0DEB8C4BDE1B9FB3F0000002DE9FF5FA5
:103CF00000249B4691468A46264625463AF81400FB
:103D00000DF0BAFC17490DF0FFFCB04659F82460DD
:103D100001462F4630460DF0B5FB0546014600989A
:103D20000DF0BEFD03D2641CE4B25C45E6D3394617
:103D300028460DF06FFE0446414630460DF06AFEFF
:103D400021460DF09FFB0446394600980DF062FEB7
:103D500021460DF0D9FC04B04146BDE8F05F0DF0FE
:103D60001DBB00006F12833A014948607047000094
:103D700028000020044908700448C079002801D0B8
:103D8000FDF75ABF70470000280000205C66002045
:103D90000A4980B1012806D0022807D0032808D09C
:103DA0004FF0FF3007E043F6982004E047F2305030
:103DB00001E04EF6602048607047000008000020D7
:103DC00003F0F4BEC0B2202800D27F20024901EBEC
:103DD0000010A0F500707047FC1B0108C0B220283D
:103DE00000D27F20034900EB400001EB0010A0F55A
:103DF000C0607047366E010870B5C0B20123114C27
:103E000060F31F211F229818400804EB400514F8A6
:103E100010606D7805EB0625ADB2A94205D10949C0
:103E200001F1400101EB401070BD03D900F1010028
:103E300083B202E0A0F1010082B29342E3D90148CB
:103E4000403070BDFC21010870B5C0B20123114D96
:103E500060F31F21F8229818400805EB400415F87C
:103E60001060647804EB0624A4B2A14205D10A498B
:103E700000EBC00001EBC00070BD03D900F10100F0
:103E800083B202E0A0F1010082B29342E3D902487A
:103E900070BD00003C2601082E28010870B50C46B4
:103EA000064615460021A02007F0DAFE60B1300A70
:103EB00007F0A4FE40B1F0B207F0A0FE20B101214E
:103EC000A02007F0CDFE48B907F004FF002070BD28
:103ED000002007F05DFEC04304F8010B6D1E15F0D5
:103EE000FF05F5D1012007F053FEC043207007F015
:103EF000F1FE012070BD000070B50C460646154667
:103F00000021A02007F0ACFE08B3300A07F076FECF
:103F1000E8B1F0B207F072FEC8B100BF14F8010BAF
:103F2000C043C0B207F06AFE88B16D1E15F0FF05F0
:103F3000F4D107F0CFFEA0254FF4C8740021284625
:103F400007F08EFE30B107F0C5FE012070BD07F00E
:103F5000C1FE03E0641E2404240CEFD1002070BDD8
:103F600010B501F0D5F810BD0349012008700349D0
:103F7000400308607047000038000020140401402E
:103F800010B501F0C5F810BD10B501F0C1F810BDB5
:103F900010B501F0BDF810BD10B501F0B9F810BDB5
:103FA00010B501F0B5F810BD2DE9F34FE44897B016
:103FB0004FF00108858803A91898FCF7A9FD089817
:103FC000DFF880B300F26C7087B207984FF4FA6A9A
:103FD000401CC6B2069840F63309C4B233463A468E
:103FE000D9A111A80094FCF7F3F911A9179801F0D1
:103FF00063F94046B8F1010F05D0022807D0B8F1A7
:10400000030F09D117E0D44A0421179802E017984A
:104010000A3012E001F04EF908F0B2FA10282ED062
:104020000FDC0A28DAD2DFE800F005EF0505EE051F
:104030000505EDECD2E71798103080B2C64A022190
:10404000E8E7212878D00BDC112876D02028C5D1CC
:10405000A8F1010010F0FF08C0D103208046BDE7A1
:1040600040286BD04128B9D1C82D01D96D1EADB201
:10407000642141200BF0D4FB00287BD053E1404663
:10408000B8F1010F14D0022834D0B8F1030FA5D134
:104090003C2110200BF0C4FB002864D03146384688
:1040A00007F02EFE641CE4B2A04297D2012495E7EB
:1040B0003C2110200BF0B4FBA8B17F1CBFB24F45D0
:1040C00000D9574691E07F1CBFB24F4500D95746F3
:1040D00033463A469CA111A80094FCF779F911A93E
:1040E000179801F0E9F80F2110200BF099FB002838
:1040F000E9D07AE03C2110200BF092FBA8B1761CAD
:10410000F6B20C2E96D9012668E7761CF6B20C2E74
:1041100000D9012633463A468BA111A80094FCF73A
:1041200057F911A9179801F0C7F80F2110200BF0CB
:1041300077FB002893D1E8E7F1E0BCE01BE03146D3
:10414000384607F0DDFD641CE4B2A04200D2012431
:1041500033463A467CA111A80094FCF739F911A91D
:10416000179801F0A9F80F2110200BF059FB002837
:104170009DD1E4E7C6E04046B8F1010F14D0022813
:1041800043D0B8F1030F92D13C2140200BF048FB03
:10419000002870D0641E14F0FF0488D131463846E0
:1041A00007F0AEFD044619E73C2140200BF038FB38
:1041B000A8B17F1EBFB2574517D24F4615E07F1EEC
:1041C000BFB2574500D24F4633463A465EA111A8CA
:1041D0000094FCF7FDF811A9179801F06DF80F2174
:1041E00040200BF01DFB0028E9D033463A4656A18B
:1041F00011A80094FCF7ECF811A9179801F05CF8ED
:1042000001E786E03EE054E045E03C2140200BF031
:1042100007FBA8B1761E16F0FF06C4D10C26DDE61A
:10422000761E16F0FF0600D10C2633463A4646A10C
:1042300011A80094FCF7CCF811A9179801F03CF8EC
:104240000F2140200BF0ECFA0028ACD1E8E7641E07
:1042500014F0FF0404D13146384607F051FD0446FE
:1042600033463A4638A111A80094FCF7B1F811A9D9
:10427000179801F021F80F2140200BF0D1FA002807
:1042800091D1E4E708F1010000F0FF08B8F1030F55
:1042900089D90120E2E606A9A7F26C77761ED0C183
:1042A00003A8FCF77EFB18990860012019B0BDE84F
:1042B000F08F0020FAE740F69800854201D26D1C8D
:1042C000ADB2642111200BF0ABFA50B12BE06D1CA4
:1042D000ADB228460DF0D0F959460DF015FAFFF7AA
:1042E00043FD012111200BF09BFA0028EFD01AE0CA
:1042F0006D1EADB228460DF0BFF959460DF004FA17
:10430000FFF732FD012141200BF08AFA0028EFD09F
:1043100009E040F29E70854205D2643502E0DC2D52
:1043200001D9143DADB228460DF0A6F959460DF05D
:10433000EBF9FFF719FD02488580FFF749FB4DE6D1
:104340005C6600200AD7233C253034752D25303299
:10435000752D253032750000B6CF01082DE9F04FDC
:10436000DFF85C938A4691B08346B9F80440012592
:1043700001A95046FCF7CCFB1827DFF848833C2600
:104380000198DDE902320090CFA10CA8FCF720F8DB
:104390000CA9584600F090FF012D04D0022D06D044
:1043A000032D09D117E0CC4A0221584602E00BF157
:1043B000060012E000F07EFF08F0E2F810282CD092
:1043C0000FDC0A28DCD2DFE800F005F00505EF0578
:1043D0000505EEEDD4E70BF10C0080B2BE4A0221D8
:1043E000E8E721287DD009DC11287BD02028C7D11F
:1043F0006D1E15F0FF05C3D10325C1E740287DD010
:104400004128BDD1C82C01D9641EA4B26421412029
:104410000BF006FA002867D044E1012D0CD0022DE4
:104420002CD0032DACD13C2110200BF0F9F9002841
:104430005DD00198401C6FE03C2110200BF0F0F99A
:10444000A8B10398401C74E00398401CB0FBF7F13E
:1044500007FB110003900198DDE9023200909AA158
:104460000CA8FBF7B5FF0CA9584600F025FF0F215B
:1044700010200BF0D5F90028E6D079E03C2110207F
:104480000BF0CEF9A8B10298401C85E00298401CC0
:10449000B0FBF6F106FB110002900198DDE9023253
:1044A000009089A10CA8FBF793FF0CA9584600F0D7
:1044B00003FF0F2110200BF0B3F900288AD1E5E7A4
:1044C0000198DDE90232401CB0FBF6F106FB110059
:1044D000019000907CA10CA8FBF77AFF0CA958462C
:1044E00003E0DBE0A6E009E0CBE000F0E5FE0F2111
:1044F00010200BF095F9002894D1E1E7012D11D09F
:10450000022D42D0032D8DD13C2140200BF088F9A3
:10451000002877D001983B30B0FBF6F106FB110084
:1045200001902DE73C2140200BF07AF9D0B103989F
:104530001730B0FBF7F107FB1100039018E0039868
:104540001730B0FBF7F107FB110003900198DDE98C
:10455000023200905CA10CA8FBF73AFF0CA9584668
:1045600000F0AAFE0F2140200BF05AF90028E6D0F7
:104570000198DDE90232009053A10CA8FBF728FF57
:104580000CA9584600F098FE0DE73C2140200BF0A6
:1045900047F9F0B102983B30B0FBF6F106FB110091
:1045A0000290EDE674E034E042E038E002983B30FF
:1045B000B0FBF6F106FB110002900198DDE9023232
:1045C000009041A10CA8FBF703FF0CA9584600F08E
:1045D00073FE0F2140200BF023F90028A1D1E5E75D
:1045E0000198DDE902323B30B0FBF6F106FB110029
:1045F0000190009034A10CA8FBF7EAFE0CA95846E4
:1046000000F05AFE0F2140200BF00AF9002888D153
:10461000E6E76D1CEDB2032DC3D90125B0E601A874
:10462000FCF7BFF9CAF80000012011B0BDE8F08F17
:104630000020FAE740F69800844201D2641CA4B23C
:10464000642111200BF0ECF850B12BE0641CA4B2F3
:1046500020460DF011F841460DF056F8FFF784FBA7
:10466000012111200BF0DCF80028EFD01AE0641EC5
:10467000A4B220460DF000F841460DF045F8FFF7D2
:1046800073FB012141200BF0CBF80028EFD009E0AB
:1046900040F29E70844205D2643402E0DC2C01D9E1
:1046A000143CA4B220460CF0E7FF41460DF02CF874
:1046B000FFF75AFBA9F80440FFF78AF960E600000B
:1046C0005C6600200AD7233C253032753A2530320B
:1046D000753A253032750000B6CF010838B50C4662
:1046E00009880091694600F007F8002802D0009878
:1046F0002080012038BD00002DE9F74F90B0002543
:104700001198904612F0FF070168724884884FEABA
:104710001220814601D0A9F10100C6B26E48A6EB75
:10472000070A50F82600B1FBF0F200FB121B5846B6
:104730000CF0A2FF6849283151F827100CF0A2FEB6
:104740000CF000FECDE9000108F0FF034A4663A12A
:104750000AA8FBF73DFE0AA9109800F0ADFD1098DD
:10476000AA4500EB450000DC801C80B25D4A0121B7
:1047700000F0A0FD681C0090864206D35648711BCD
:1047800000EB810050F8040C00E00120019007F0DC
:10479000F7FE112857D01CDC082843D007DC01287D
:1047A0004CD00428C3D1002013B0BDE8F08F0928F5
:1047B00079D01028BBD101990A20BBFBF1F1B1FBE4
:1047C000F0F200FB1210092815D001990BEB010043
:1047D00020E020282AD021286BD040280ED0412864
:1047E000A5D1C82C01D9641EA4B2642141200BF0CC
:1047F00017F8A0B361E0019840420EE001990A2049
:10480000BBFBF1F1B1FBF0F200FB121020B10199FA
:10481000ABEB010083468AE7019800EBC00101EB96
:104820000B00F7E70098B0FBF6F103E0A819401E73
:1048300090FBF6F106FB1100C5B278E71199012053
:10484000C1F800B0B0E740F69800844201D2641C81
:10485000A4B2642111200AF0E3FF58B12DE01AE060
:10486000641CA4B220460CF007FF1F490CF04CFF5B
:10487000FFF77AFA012111200AF0D2FF0028EFD0C9
:104880001BE0641EA4B220460CF0F6FE16490CF0A4
:104890003BFFFFF769FA012141200AF0C1FF002820
:1048A000EFD00AE0FFE740F29E70844205D2643404
:1048B00002E0DC2C01D9143CA4B220460CF0DCFE52
:1048C00009490CF021FFFFF74FFA02488480FFF7F7
:1048D0007FF82CE75C660020FCD4010825302A2EE6
:1048E0002A660000B6CF01080AD7233C2DE9F35F02
:1048F0000A8889464FF03C0BB2FBFBF16423B1FB05
:10490000F3F4DFF8FCA103FB14160BFB1125BAF836
:1049100004404FF000080127C6EB061005EB8001AC
:10492000009804F067FC012F06D0022F08D0032F57
:1049300018D0042F09D118E0724A0121009802E032
:104940000098801C13E000F0B5FC07F019FE112858
:104950007FD015DC082861D00DDC01286CD004283C
:104960005BD172E00098801D01E00098083080B2B1
:10497000644A0121E7E7092877D010284DD108E0E3
:10498000202851D0212871D0402813D0412844D16B
:104990007EE0012F06D0022F06D0032F06D0042F71
:1049A0003BD105E00A360FE0711C15E00A3521E025
:1049B000691C26E0012F06D0022F0BD0032F18D040
:1049C000042F2AD11BE05A366420B6FBF0F100FB1D
:1049D0001166A1E706F109010A20B1FBF0F200FB24
:1049E0001211B6FBF0F000EB800001EB4000C6B204
:1049F00092E73235B5FBFBF10BFB11558CE705F166
:104A000009010A20B1FBF0F200FB1211B5FBF0F036
:104A100000EB800001EB4000C5B26AE07F1CFFB2F2
:104A2000042F66D9012764E07F1E17F0FF0760D1CD
:104A300004275EE00DE0FFE7C6EB061005EB800102
:104A4000A9F800104FF0010856E04FF00008474663
:104A50004FE040F69800844201D2641CA4B2642165
:104A600011200AF0DDFE60B137E02CE031E0641C7B
:104A7000A4B220460CF000FE23490CF045FEFFF7DF
:104A800073F9012111200AF0CBFE0028EFD024E0B9
:104A9000C82C01D9641EA4B2642141200AF0C0FED2
:104AA00050B11AE0641EA4B220460CF0E5FD164990
:104AB0000CF02AFEFFF758F9012141200AF0B0FE60
:104AC0000028EFD009E040F29E70844205D26434A1
:104AD00002E0DC2C01D9143CA4B220460CF0CCFD41
:104AE00009490CF011FEFFF73FF9AAF80440FEF760
:104AF0006FFF002F7FF46DAF4046BDE8FC9F0000C4
:104B00005C660020B6CF01080AD7233C70B5144676
:104B10000D46064607F02EF8E2B229463046FFF76A
:104B2000BDF9044607F02EF8204670BD70B5144656
:104B30000D46064607F01EF8E2B229463046FFF75A
:104B4000DBF9044607F01EF8204670BD70B50BA0D7
:104B5000FDF702F90C4D0024102255F824000B49F2
:104B6000FDF71CF955F8240040221021FDF76AF8E2
:104B7000641CE4B2052CEFD370BD00005C53414DC2
:104B8000504C45520000000020D201085E01002078
:104B900010B51446064A01EB8101C90052F8200005
:104BA0002423224602F0F0FE002800D1206010BD30
:104BB00020D201080A460146052301A002F0E6BE04
:104BC0005C53445F4552525C4552522E5458540037
:104BD00070B50D460446164664210A48FBF77DFE73
:104BE000242231460748FBF701FE05EB8500C10092
:104BF00005482823034A50F82400BDE8704002F01D
:104C0000C5BE0000BC61002020D2010870B58CB088
:104C10000D460446302226496846FBF72CFE2549FE
:104C20002846FBF775FF234822492C30C368CA6821
:104C300093423BD04B6903F26C7343610969491C91
:104C4000C0E9032161696422481E90FBF2F3C51795
:104C500000EB9575C3EBA503950090FBF5F6334487
:104C60008E070ED191FBF2F602FB161222B991FBD0
:104C7000F5F205FB121121B92169022901DD01219B
:104C800000E0002122696D4605EB8202E56852F8DA
:104C9000042C2A4440F26D1500FB053010440844F2
:104CA000072190FBF1F201FB1200A0610CB070BD76
:104CB0004CD50108D064002070B5154C154E204627
:104CC00094F8251090F82850C08C012915D002299D
:104CD00009D003291BD10CF0CFFC31460CF014FD98
:104CE00029460BF0B9FB608D0CF0C6FC31460CF088
:104CF0000BFDBDE870400BF0C3BB0CF0BDFC3146B2
:104D00000CF002FD2946BDE870400BF0A5BB70BD5C
:104D10005C660020CDCCCC3D1148816941F0010199
:104D200081611049202048610F48016821F4005139
:104D30000160001F016821F45C4101600A49091DFE
:104D40000A680A60091D0A6842F400520A60064AAD
:104D5000411410321160016841F400510160704744
:104D600000100240000001400404014008B500208A
:104D7000009001F0B7F808A140F6162000F09CFA68
:104D80004FF4C062694641F21620FFF7B5FC0028D7
:104D900000D0009808BD0000CAE4C8EBC3DCC2EB39
:104DA0003A00000010B50DA140F60F0000F084FAA3
:104DB0000EA140F60F4000F07FFA10A141F20F0063
:104DC00000F07AFA11A141F20F4000F075FABDE847
:104DD000104012A141F60F0000F06EBAB0FCC0A85E
:104DE000CAB1BCE4C9E8D6C300000000CEACBBA485
:104DF000C3DCC2EBB5C4D0DEB8C40000D2D4BCB0B2
:104E0000D2BABEA7C6C1C4BBB5C40000CFD4CABE07
:104E1000B6D4B1C8B6C820C1C1B6C800BACDC1C1E8
:104E2000C6C1CAB1B3A400002DE9F041012406F0C7
:104E300065FF4FF431664FF4C0681A4D41F21427F4
:104E400001F050F8184800F05FFA184A2146164859
:104E500000F086FA0446012807D0022C08D0032C63
:104E60001CD0002CECD1BDE8F0810AF0CDF8E7E7CA
:104E700001F038F80EA1304600F01EFA42462946ED
:104E80003846FFF739FC0028DAD000210CA000F0EA
:104E900099FF06F033FFFEF79BFDD1E709F0F6FF1F
:104EA000CEE7000090660020ACDA0108A54D0008AE
:104EB000C7EBCAE4C8EBD0C2C3DCC2EB3A000000C7
:104EC000C3DCC2EBD0DEB8C4B3C9B9A62100000070
:104ED0002DE9F04F074669488BB069498488002561
:104EE000DFF8A0A105A82E46EB4601EB47080A9083
:104EF000B8F822102BF815100BEB45006D1CB8F814
:104F00001810EDB281820A2D02D026B10A2103E0E9
:104F100000250126FAE72946684606F0ADFD2AF885
:104F200017000EB10A2100E029460A9806F0A4FDF8
:104F30000AEB4709A9F814000EB10A2100E029463E
:104F4000684606F099FD2AF817000EB10A2100E024
:104F500029460A9806F090FDA9F814004AA140F6E7
:104F60000F7000F0A9F9384607F0A2FC014640F2A4
:104F7000026900234A4641F20E5003F0CBFE44A1E1
:104F800040F61C7000F098F9384607F0F7FB014630
:104F900000234A4641F21B5003F0BCFE282007F0D4
:104FA000A7FC0028A4D007F0EBFA11281FD00BDCD7
:104FB000012817D0042815D0092899D140F29E70F5
:104FC00084424DD264344AE0212845D041288FD113
:104FD000C82C01D9641EA4B2642141200AF020FC2F
:104FE00080B33DE0FDF77EFF0BB0BDE8F08F40F6EB
:104FF0009800844201D2641CA4B2642111200AF0FA
:105000000FFC58B12CE0641CA4B220460CF034FB19
:1050100049460CF079FBFEF7A7FE01E0DFF8789037
:10502000012111200AF0FCFB0028ECD018E0641EDE
:10503000A4B220460CF020FB49460CF065FBFEF7BD
:1050400093FE02E0FFE7DFF85090012141200AF0D3
:10505000E7FB0028EBD003E0DC2C01D9143CA4B220
:1050600020460CF009FB0C490CF04EFBFEF77CFED1
:1050700002488480FEF7ACFC3AE700005C66002042
:105080002E620020E8650020C1F7C1BF3A00000091
:10509000BCC6D1B93A0000000AD7233C0449FF201E
:1050A00008600348143801686FF309010160704714
:1050B000140401401348816941F0010181611248E3
:1050C000012181600021C160104801686FF309016E
:1050D0000160001F016821F4407101600B49091D46
:1050E0000A6842F0FF020A60091D0A6842F0FF02E6
:1050F0000A60064AFF2110321160016841F0FD018B
:1051000001607047001002400000014004040140AB
:1051100010B5FFF7C3FF0348C068BDE810400AF0B0
:10512000EFBA00000800002010B5002108480AF07E
:10513000CFFA084C0021E0600548001D0AF0C8FACB
:10514000A06003480021BDE8104008300AF002BB0F
:10515000E41B0108080000200F48816941F00401A8
:105160008161816941F0080181610C49FC2008607E
:105170000B4903200860094810380168094AC9B280
:105180001143016006481038016821F00F0141F019
:105190000801016070470000001002401008014043
:1051A000100C014000888888064800680649C0F352
:1051B0008500096801F0010140EA81117F208843E0
:1051C0007047000008080140080C01402DE9F0413B
:1051D0002C4C2B4860612C48A0612C48E0612C4885
:1051E00005682C48854200DD05462B48008905F0FE
:1051F00053F901462069A062804628460CF00AFC5B
:1052000005462061294660690CF07EFA0746A060D9
:105210002946A0690CF078FAE1680CF0BFF8064660
:10522000E060414628460CF0F5FBE1690CF06CFAB1
:1052300005466062314638460CF0B0F829460CF05D
:10524000ADF816490CF060FA05461549206A0CF0D5
:105250005BFA29460CF0A2F812492062884202DC6F
:105260001149884200DA21621049206A0CF04CFA98
:105270000CF0CAF9BDE8F04180B200F02BBE00008E
:10528000A69B443C900000200E745A3C51499D3B23
:105290002C0000200000B041206200203333333F57
:1052A0009A99993E83C02A3F0AD7A33C0000D8466A
:1052B00004F098B902F0D4BD02F0CCBE08498A6966
:1052C00042F010028A6108B1891501E04FF0807147
:1052D00004480161416821F00F01C91C4160704719
:1052E000001002400010014070B50C4600EBC406EF
:1052F00005467068FBF704FAC1B235F834007268ED
:10530000BDE87040FFF7D6BF70B501880546080AB2
:10531000CEB201D07043C6B2696819B14FF4817042
:10532000FFF7CAFF4FF424740C4A40F202512046A2
:1053300004F0E7FF094A40F21451204604F0E1FF6F
:10534000012408E005EBC400416835F83400FFF79C
:10535000B3FF641CE4B2B442F4D970BD76CD010849
:1053600000F03AB930B41C461346224630BC00F077
:1053700005BA30B41C461346224630BC00F0E8BAE9
:1053800030B41C461346224630BC00F001B8000081
:105390002DE9FF5F06460C46854831889046858892
:1053A0004FF0000B080ACFB232D0784300F0FF0A6A
:1053B0000CB1544500D9012406EBC409D9F8040006
:1053C000FBF79EF9C1B236F83400D9F80420FFF794
:1053D00071FF00BF5FEA080000D08047322007F06D
:1053E00087FA0028F6D036F83400D9F80410FFF711
:1053F00063FF07F0C5F8102847D00BDC0A28DBD282
:10540000DFE800F005575B05D005A9052292D3E738
:10541000BA46CDE7212872D008DC11284FD02028C9
:10542000CAD1039850EA0B003CD032E0402823D088
:105430004128C1D1C82D01D96D1EADB264214120D2
:105440000AF0EEF9A0B379E0039850EA0B0017D008
:1054500003E000BFA4EB0A000CE0B4FBF7F007FB8D
:10546000104008B9E01BC4B2641CE4B2A4E7E01B1E
:1054700000E0E019C4B29FE7039830EA0B00ECD1DA
:10548000E019C4B2544597D9E4E7039830EA0B0019
:1054900008D0641EE4B2B4FBF7F007FB104000280C
:1054A0008AD1E6E7BC42E2D804EB0A00C4B2DEE7E8
:1054B00031E0204604B0BDE8F09FFF20FAE740F657
:1054C0009800854201D26D1CADB2642111200AF012
:1054D000A7F958B132E06D1CADB228460CF0CCF8FB
:1054E00049460CF011F9FEF73FFC01E0DFF8C490EB
:1054F000012111200AF094F90028ECD01EE019E0F7
:105500006D1EADB228460CF0B7F849460CF0FCF819
:10551000FEF72AFC01E0DFF89C90012141200AF00F
:105520007FF90028ECD009E040F29E70854205D258
:10553000643502E0DC2D01D9143DADB228460CF0F3
:105540009BF81C490CF0E0F8FEF70EFC184885802B
:10555000FEF73EFA30E7C82106200AF061F900287C
:1055600084D106F098FA642006F01CFC06F093FA49
:1055700006F0C4FB10A14FF4C160FFF79DFEFEF7DB
:1055800057F90B494FF4E062383140F60C40FFF711
:10559000B3F838B104210CA000F014FC062803D0A5
:1055A000FEF746F9002085E7FEF712FAFAE7000059
:1055B0005C6600200AD7233CC7EBCAE4C8EBB3F60D
:1055C000B3A7B1E0BAC53A00CAC7B7F1B1A3B4E610
:1055D000B1E0BAC53F0000002DE9F05F0C46DFF8EE
:1055E00094B101880646BBF804509046080ACFB231
:1055F00032D0784300F0FF0A0CB1544500D90124A1
:1056000006EBC409D9F80400FBF77AF8C1B236F802
:105610003400D9F80420FFF74DFE00BF5FEA080010
:1056200000D08047322007F063F90028F6D036F822
:105630003400D9F80410FFF73FFE06F0A1FF102850
:105640003DD00BDC0A28DBD2DFE800F00540450541
:1056500043050505277DD3E7BA46CDE7212878D055
:105660000DDC112839D02028CAD1641EE4B2B4FB65
:10567000F7F007FB10400028C2D1E0191DE04028D8
:1056800015D04128BCD1C82D01D96D1EADB2642101
:1056900041200AF0C5F8B8B35FE0B4FBF7F007FBB0
:1056A000104008B9E01BC4B2641CE4B2A8E7E019DA
:1056B000C4B25445A4D9A4EB0A00C4B2A0E7BC42CA
:1056C00002D804EB0A00C4B2E01BF6E72046BDE8AE
:1056D000F09F0020FBE7FF20F9E740F698008542A5
:1056E00001D26D1CADB2642111200AF099F860B1AD
:1056F00033E06D1CADB228460BF0BEFF49460CF0FE
:1057000003F8FEF731FB02E013E0DFF86C900121B3
:1057100011200AF085F80028EBD01EE06D1EADB216
:1057200028460BF0A9FF49460BF0EEFFFEF71CFBE5
:1057300001E0DFF84490012141200AF071F80028CF
:10574000ECD00AE005E040F29E70854205D2643557
:1057500002E0DC2D01D9143DADB228460BF08CFFE0
:1057600005490BF0D1FFFEF7FFFAABF80450FEF746
:105770002FF945E75C6600200AD7233C2DE9FF5F3F
:1057800006460C4670483188904685884FF0000BDD
:10579000080ACFB232D0784300F0FF0A0CB154456A
:1057A00000D9012406EBC409D9F80400FAF7A8FFD0
:1057B000C1B236F83400D9F80420FFF77BFD00BFF2
:1057C0005FEA080000D08047322007F091F80028F7
:1057D000F6D036F83400D9F80410FFF76DFD06F066
:1057E000CFFE102847D00BDC0A28DBD2DFE800F020
:1057F00005575D055B0505052294D3E7BA46CDE75D
:10580000212874D008DC112851D02028CAD103984F
:1058100050EA0B003CD032E0402823D04128C1D1CF
:10582000C82D01D96D1EADB26421412009F0F8FFE9
:10583000A0B37BE0039850EA0B0017D003E000BF51
:10584000A4EB0A000CE0B4FBF7F007FB104008B92A
:10585000E01BC4B2641CE4B2A4E7E01B00E0E01962
:10586000C4B29FE7039830EA0B00ECD1E019C4B250
:10587000544597D9E4E7039830EA0B0008D0641E3A
:10588000E4B2B4FBF7F007FB104000288AD1E6E74A
:10589000BC42E2D804EB0A00C4B2DEE733E02046A3
:1058A00004B0BDE8F09F0020FAE7FF20F8E740F6DB
:1058B0009800854201D26D1CADB26421112009F01F
:1058C000AFFF58B132E06D1CADB228460BF0D4FEEC
:1058D00049460BF019FFFEF747FA01E0DFF86C903C
:1058E0000121112009F09CFF0028ECD01EE019E0F6
:1058F0006D1EADB228460BF0BFFE49460BF004FF0B
:10590000FEF732FA01E0DFF844900121412009F06E
:1059100087FF0028ECD009E040F29E70854205D256
:10592000643502E0DC2D01D9143DADB228460BF000
:10593000A3FE06490BF0E8FEFEF716FA0248858042
:10594000FEF746F82EE700005C6600200AD7233CED
:105950002DE9FF5F064673480C4631888588080AA2
:10596000C9B2984691468A4630D000FB0AF0C0B2D0
:1059700000900CB1844200D9012406F0F5FE834664
:1059800006EBC40703977868FAF7BAFEC1B236F897
:1059900034007A68FFF78EFC5FEA090000D0804788
:1059A00006F0E2FEA0EB0B00C7B2A8EB07025EA177
:1059B00001A8FAF70DFD01A940F60970FFF77CFC7C
:1059C000474507D3012004B0BDE8F09F0846CDF855
:1059D00000A0CEE7322006F08BFF0028DCD0039831
:1059E000416836F83400FFF767FC06F0C9FD10285F
:1059F0003ED009DC0A28C3D2DFE800F005424605A4
:105A000044050505267CBBE7212879D00EDC11284A
:105A10003CD02028B4D1641EE4B2B4FBFAF10AFBF6
:105A200011400028ACD104EB0A001FE0402816D03A
:105A30004128A5D1C82D01D96D1EADB264214120E8
:105A400009F0EEFEC8B35FE0B4FBFAF10AFB1140C7
:105A500010B9A4EB0A00C4B2641CE4B290E704EBF2
:105A60000A00C4B2009884428AD9201AC4B287E7D7
:105A7000544502D800982044C4B2A4EB0A00F5E7CC
:105A80002046A0E700209EE7FF209CE740F6980014
:105A9000854201D26D1CADB26421112009F0C0FE17
:105AA00060B131E06D1CADB228460BF0E5FD394622
:105AB0000BF02AFEFEF758F901E012E01C4F01211D
:105AC000112009F0ADFE0028ECD01DE06D1EADB236
:105AD00028460BF0D1FD39460BF016FEFEF744F9CF
