:020000040800F2
:10000000B05100203D0300084503000847030008E5
:10001000490300084B0300084D03000800000000DE
:100020000000000000000000000000007502000851
:100030005103000800000000ED0200082903000839
:10004000570300085703000857030008296E0008EB
:100050005703000857030008CD3F0008ED3F000894
:10006000F53F0008FD3F0008054000085703000861
:1000700057030008570300085703000857030008F8
:1000800057030008570300085703000857030008E8
:100090005703000857030008570300080D400008E5
:1000A00057030008570300085703000857030008C8
:1000B0005703000857030008B58A000857030008D3
:1000C00057030008570300085703000857030008A8
:1000D000570300085703000857030008798B0008EE
:1000E000D53F0008570300085703000800F002F846
:1000F00000F07AF80AA090E8000C82448344AAF148
:100100000107DA4501D100F06FF8AFF2090EBAE845
:100110000F0013F0010F18BFFB1A43F0010318473B
:1001200018EA010038EA01000A444FF0000C10F808
:10013000013B13F0070408BF10F8014B1D1108BF65
:1001400010F8015B641E05D010F8016B641E01F805
:10015000016BF9D113F0080F1EBF10F8014BAD1C55
:100160000C1B09D16D1E58BF01F801CBFAD505E073
:1001700014F8016B01F8016B6D1EF9D59142D6D3CD
:10018000704700000023002400250026103A28BFF5
:1001900078C1FBD8520728BF30C148BF0B607047F9
:1001A000662910F06484642900F07881752900F0D4
:1001B0007581782900F0AE81732900F0A4870020B2
:1001C00070471FB500F0A3FF0400002000210FF0CE
:1001D00015FFE0601FBD10B510BD03B4FFF7FBFFB6
:1001E00003BC01F093F8000000F0CCF81146FFF7D3
:1001F000E8FF0EF01BFA044800210EF0DDFA0EF0C5
:1002000027FA00F053FA00003800002080F3098834
:100210007047EFF309807047684680F30988044807
:100220000078C00714BF0220032080F314887047B1
:10023000F4D60108DFF818C0EFF305831B0618BFDA
:100240006047EFF31483DB0708BF604700DF7047A8
:10025000B9E80008DFF818C0EFF305831B0618BFE4
:100260006047EFF31483DB0708BF604700DF704788
:100270009DEA0008EFF30980816911F8021CF1B9C9
:1002800090E80F10E047EFF3098C8CE80700144B5F
:1002900093E8060091420FD039B12CE9F00FC1F874
:1002A00024C00CB40EF02EFF0CBC1A60D2F824C08F
:1002B000BCE8F00F8CF309886FF0020E704710B5A0
:1002C000084A1268914209D8074C54F8214090E836
:1002D0000F10A047EFF3098C8CE80F0010BD000051
:1002E0003C030020101B0008101B00080EF0A6FDA8
:1002F0000C4B93E80600914210D0EFF3098C2CE9E7
:10030000F00FC1F824C00CB40EF0FCFE0CBC1A6057
:10031000D2F824C0BCE8F00F8CF309886FF0020E0D
:10032000704700003C0300200EF0B2FFE0E7000041
:100330000EF094FA0EF0ACFFDAE7000009488047AF
:1003400009480047FEE77047FEE7FEE7FEE7FEE7E5
:10035000FEE7FEE7FEE7FEE704480549054A064BCF
:100360007047000091890008ED000008B04B0020A4
:10037000B0510020B04D0020B04D00200048704723
:10038000504B00207546FFF7F9FFAE460500694661
:10039000534620F00700854618B020B5FFF7DCFF74
:1003A000BDE820404FF000064FF000074FF0000876
:1003B0004FF0000B21F00701AC46ACE8C009ACE8F7
:1003C000C009ACE8C009ACE8C0098D467047000020
:1003D0000FB41CB5074B06AA7B44694600900598EC
:1003E00000F067FE0020694600F076FE1CBC5DF858
:1003F00014FB0000FD0C000070B504468569006820
:10040000C10601D5302600E02026C00708D070BD07
:10041000D4E9012130469047206A00F101002062B2
:100420006D1EF5D570BD70B5044685690078C007AE
:1004300008D170BDD4E9012120209047206A00F145
:10044000010020626D1EF5D570BD70B50C460546E5
:10045000012A05D02878800600D5EA69002302E049
:10046000012305E05B1C934202D2E05C0028F9D135
:10047000A869E618C01AA861286A184428622846A4
:10048000FFF7BAFF04E0D5E9012114F8010B90470A
:10049000B442F8D32846FFF7C6FF70BD2DE9F041FE
:1004A0000646002410687529314616A511D0AFF311
:1004B0000080002803DAC0F1000013A507E03168CE
:1004C0008A0701D511A502E0490704D510A501242A
:1004D00001E0AFF3008000210A2306F1240707E0C2
:1004E000B0FBF3F203FB1200303078541046491C85
:1004F0000028F5D123462A463046BDE8F04100F0F9
:1005000067BB0000000000002D0000002B00000071
:100510002000000070B504460D4621461068AFF378
:1005200000802188090502D5104A7A4402E00F4A6A
:100530007A440E32002104F1240307E000F00F0694
:100540004FEA1010965D5E5401F101010028F5D1CB
:1005500003462078000704D5702D02D009B111326E
:1005600002232046BDE8704000F032BB6EDE010081
:100570002DE9F05F894604464FF0000ADFF828B104
:10058000FB44C0F820A02046E168884700287CD0C2
:10059000252806D0D4E901219047206A401C20621A
:1005A000F1E700255F462046E16888472028064697
:1005B00008DB312E06D207EB060010F8200C08B13C
:1005C0000543F0E7A80701D525F00405C4F81CA0F1
:1005D0000027C4F818A02A2E09D0304609F02FFAB7
:1005E00038B304EB8708303EC8F8186019E059F8B2
:1005F000041B204604EB87029161E1688847012FC4
:10060000064618D1E069002820DA25F020051DE013
:10061000D8F8180000EB800006EB40003038C8F82E
:1006200018002046E1688847064609F008FA0028C5
:10063000EED1012F0AD02E2E08D12046E16888473E
:100640007F1C0646022F45F02005C4DBA069002868
:1006500003DA404245F00105A061E80701D025F02A
:10066000100596B1A6F14100192802D8203645F4AC
:1006700000654A463146204625604D46FFF790FD0D
:1006800060B1012807D0ED1D00E009E025F007006A
:1006900000F1080977E705F1040974E7304679E7C6
:1006A000206ABDE8F09F000040DE01000446AFF381
:1006B00000802046FFF791FD40EA0103024630B575
:1006C0009B0710D14FF0013400E008C208C91D1B80
:1006D0009D4315EAC41FF8D013F0FF0102F8011B77
:1006E0000DD01B0AF8E711F8013B002B02F8013B83
:1006F00005D011F8013B002B02F8013BF3D130BDCE
:1007000010B5431C02E010F8011B71B18107FAD14A
:100710004FF0013202C88C1A8C4314EAC211F9D08E
:10072000C01A0A0603D0C01E10BDC01A10BD0A04AC
:1007300001D0801E10BD0902FCD0401E10BD40EA51
:10074000010370B59B072ED14FF00136042A2AD33E
:1007500008C810C9121F9D1B9D4315EAC61517D066
:10076000D8B2E1B2401A50EA056110D198B2A1B2F4
:10077000401A50EA05410AD123F07F4024F07F411E
:10078000401A50EA052102D1180EA0EB146070BD8A
:10079000A342DBD018BA21BA884201D9012070BD2A
:1007A0004FF0FF3070BD0AB9002070BD10F8013B5A
:1007B00011F8014B63B1A3420AD1521E08D010F8C0
:1007C000013B11F8014B1BB1A34201D1521EEDD1E7
:1007D000181B70BD421E12F8013F002BFBD111F80F
:1007E000013B002B02F8013BF9D17047032A40F28C
:1007F000308010F0030C00F0158011F8013BBCF1C3
:10080000020F624498BF11F801CB00F8013B38BFDA
:1008100011F8013BA2F1040298BF00F801CB38BFE8
:1008200000F8013B11F0030300F02580083AC0F006
:10083000088051F8043B083A51F804CBA0E80810AE
:10084000F5E7121D5CBF51F8043B40F8043BAFF3E1
:100850000080D20724BF11F8013B11F801CB48BF3B
:1008600011F8012B24BF00F8013B00F801CB48BF71
:1008700000F8012B704710B5203AC0F00B80B1E8AA
:100880001850203AA0E81850B1E81850A0E81850C5
:10089000BFF4F5AF5FEA027C24BFB1E81850A0E8CE
:1008A000185044BF18C918C0BDE810405FEA827CE8
:1008B00024BF51F8043B40F8043B08BF7047D207FF
:1008C00028BF31F8023B48BF11F8012B28BF20F8A0
:1008D000023B48BF00F8012B70474FF0000204298B
:1008E000C0F0128010F0030C00F01B80CCF1040C5F
:1008F000BCF1020F18BF00F8012BA8BF20F8022B93
:10090000A1EB0C0100F00DB85FEAC17C24BF00F838
:10091000012B00F8012B48BF00F8012B70474FF066
:10092000000200B5134694469646203922BFA0E83F
:100930000C50A0E80C50B1F12001BFF4F7AF09074B
:1009400028BFA0E80C5048BF0CC05DF804EB89003C
:1009500028BF40F8042B08BF704748BF20F8022B7F
:1009600011F0804F18BF00F8012B704730B50368B5
:100970001C1404EB21459BB289B2194495FBF2F497
:1009800002FB145301EB034191FBF2F302FB131141
:1009900001E05B1E11440029FBDB016003EB044016
:1009A00030BD2DE9F04704464FF0FF3A86B00068AD
:1009B000029060680390A0680490E068019020694C
:1009C00000906569B5F1804F7EDCB5F1404F7BDB6F
:1009D0003C22002102A8FFF7C9FF3C22014603A8E0
:1009E000FFF7C4FF1822014604A8FFF7BFFF411E0E
:1009F00040F2B55201A8FFF7B9FF0C22064668463F
:100A00000021FFF7B3FF00EB860028443E4D00268F
:100A10007D440FE09A1A491CCDE90012022902D048
:100A20000C2907D104E0810704D0521C019201E097
:100A3000401C00960099019B6A5C9A42EADD0129FC
:100A400006D11C2B04D1810702D00221CDE900166A
:100A5000A0F146018B2940D20199009B00220F464C
:100A600002E0AE5C521C31449A42FADB012B02DDFB
:100A7000820700D0491E40F2B55540F26D16C217EC
:100A800000EB927292106A4300F0030505FB062208
:100A900085070A4400D1521E049D02EB4206DDF890
:100AA0000C80A94605EBC605184EC5EB0515DDF80B
:100AB00008C008EB850535442E14ADB2C6EB06160A
:100AC000C5EB0515B60000E007E00CEB850506EB6D
:100AD000154666F31F45360C03D0504606B0BDE8F8
:100AE000F0877F1CC4E90430521C072092FBF0F30E
:100AF00004F1180600FB1320A6E803042846C4E905
:100B00000297C4E900C8E9E7C1D90100A039CEFDC8
:100B100070B50C46016800204A1C34D040F2B5552F
:100B20003C23B1FBF3F203FB12112160B2FBF3F1A2
:100B300003FB112218236260B1FBF3F203FB1211D5
:100B4000A16046F2E0310A440721B2FBF1F301FB58
:100B50001321B2FBF5F305FB1322A1619900B2F555
:100B6000B77F06D3521EAD10B2FBF5F3194405FB57
:100B700013220F4BE261616189077B440CD03B2A51
:100B80000AD3521C08E02C212046FFF7C8FE0120A2
:100B9000E0600AE0521A401C195C9142FAD9521CDA
:100BA000C4E903204FF0FF302062204670BD0000F2
:100BB00057D8010070477047704710B500F0ACFA85
:100BC000006810BD10B5044600F0A6FA046010BD20
:100BD0002DE9F0470D4699469246044600F1240857
:100BE0000168880604D5E06921F01001216000E069
:100BF0000120A84202DDA0EB050700E00027A16963
:100C000007EB050202EB0900A1EB0000A0612078D0
:100C1000C00602D42046FFF7EFFB002608E0D4E927
:100C200001211AF806009047206A401C761C2062B9
:100C30004E45F4DB2078C0060AD52046FFF7DCFBE2
:100C400006E0D4E9012130209047206A401C206250
:100C5000381EA7F10107F4DC07E0D4E9012118F8F8
:100C600005009047206A401C2062281EA5F101055E
:100C7000F3DC2046FFF7D7FB2078000602D50220E0
:100C8000BDE8F0870120FBE770472DE9FF4F0C46D8
:100C90001E464FF0FF378BB0D2E90001DDF86080CF
:100CA0000A908A46C1F30A5505B93D460021084617
:100CB0004FF00000BAF1000F00F4400005DA00EB3D
:100CC00080004FF4400101EA50004FEA9059B9F119
:100CD000010F00DDB9460A9850EA4A000ED044F6EA
:100CE0001050A5F2FF3545432F14B8F1000F1ED068
:100CF0007542291E1EDDC9F100021CE0B8F1010F8A
:100D00004FF0000001D0302103E0F24305E0215410
:100D1000401CB042FBDB30460022002121540B99DD
:100D2000C1F80880C1E900200FB0BDE8F08FBD1BFD
:100D30006D1CDEE74A4600DA694206A800F074FA44
:100D400006AB07CB03AB07C350460A9900F025FB5F
:100D50008DE80700A0F500501F3800900398002D83
:100D600009DD42F21F014A46084403A90390684680
:100D700000F084FD08E0A0F500504A461F3803A9A2
:100D80000390684600F08EFD8DE807000004000C1B
:100D900003D04FF0FF30410800E01046B8F1000FDB
:100DA00003D00022009215461FE0751E06D400F005
:100DB000B5F902F1300262556D1EF8D5B346012235
:100DC000084302D000227F1C04E02078302801D1A3
:100DD00000227F1E002A099787D01DE0112D07DA17
:100DE00000F09CF9303262556D1C50EA0102F5D1D9
:100DF00008430FD10021681E05E0235C625C635448
:100E0000491C2254401E8142F7DBAB46A81B401E02
:100E1000099001E0009848B1002004F80B000B98FD
:100E2000099AC0F80880C0E9002B7DE711264FF031
:100E300000085AE72DE9F04F88460446D21D22F0FB
:100E4000070191B0D1E90001CDE90A0108F055FD93
:100E500002460B98C00F01D02D2007E020688107C3
:100E600001D52B2002E0202101EAC000032A0990CD
:100E700001D0072A05DB03464146204600F094F9DD
:100E80000FE12078800601D5E06900E00620B8F186
:100E9000650F814606D0B8F1660F18D0B8F1670F1C
:100EA00072D132E00020B9F1110F009001DB112363
:100EB00001E009F101030AAA01A90CA8FFF7E5FE68
:100EC000DDE90C70002609F10105834648E00120A8
:100ED0004B4600904FF000470AAA01A90CA8FFF763
:100EE000D4FEDDE90DB00C995D46002618B909F174
:100EF000010001EB0005B9EB050003D4C0F1FF369A
:100F000009F10105A5EB09002BE0B9F1010F01DAA8
:100F10004FF001090020B9F1110F0090484601DDA2
:100F2000112300E003460AAA01A90CA8FFF7ADFEB1
:100F3000DDE90C704D4600268346207800070AD470
:100F4000AB4500DA5D4601A8012D04DD411911F819
:100F5000011C302907D04F4502DA17F1040F04DADB
:100F60000120824610E06D1EEEE7002F02DCED1B33
:100F70003E4403E0781CA84200DD0546A7EB0600CE
:100F800000F1010A4FF000472078000703D4AA457A
:100F900001DB4FF0FF3A0021B7F1004F0DF143089C
:100FA0008DF8431023D002202B23002F01DA7F423B
:100FB0002D234FF00A0C011EA0F1010000DC4FB1FF
:100FC00097FBFCF10CFB11720F4602F1300208F89E
:100FD000012DF0E7A8F1010003702188090501D572
:100FE000452100E06521A0F1010800F8011C0998E5
:100FF0000FA9A1EB080707F1070700B1012000EBDB
:10100000050101EBEA70A1693844A1EB0000A0F1F1
:101010000100A0612078C00602D42046FFF7ECF959
:10102000099830B1D4E901219047206A00F101000C
:1010300020622078C00620D52046FFF7DDF91CE0AD
:10104000002E04DBB34502DD01A8805D00E0302006
:10105000D4E901219047206A761C401CBAF1010AAC
:1010600020620AD100F053F8C0680168405CD4E9FE
:1010700001219047206A401C2062281EA5F101052D
:10108000DEDC07E0D4E9012118F8010B9047206A63
:10109000401C2062381EA7F10107F3DC2046FFF751
:1010A000C2F9022011B040E601694A1C02610878C9
:1010B000704700B58FB0CDE9013100210591054998
:1010C0007944CDE9031011466846FFF751FA0FB095
:1010D00000BD0000E5FFFFFF0A6802F8010B0A608F
:1010E000704710B5436913B1AFF3008001E0FFF71B
:1010F000ACF9012010BD127800F124010A70002221
:101100004A700122EDE711684FF0FF32E9E710B5B0
:10111000FFF734F9203010BD08F004BC30B5B0F151
:101120000A024FEA900E71F100034EEA817EB0EBA5
:101130000E0061EB91014FEA101E4EEA017E10EBAA
:101140000E0041EB11114FEA102E4EEA016E10EB2A
:101150000E0041EB11214FEA104E4EEA014E10EB0A
:101160000E0041EB1141401841F100014FEAD0005F
:1011700040EA41704FEAD10110EB80054FEA81044B
:1011800044EA907444EB01046D1944EB0404521BCF
:10119000A3414FF0000348BF0A3200D530BD401CC8
:1011A00041F1000130BD00002DE9F0411F46044629
:1011B00003260168072A01F4006004DB08B116A5C4
:1011C00005E016A503E008B115A500E015A521F07E
:1011D00010002060A069C01EA0610FB1401EA06178
:1011E0002046FFF709F94FB1D4E90121384690476D
:1011F000206A401C2062C01C206206E0206AFAE7D8
:10120000D4E9012115F8010B9047761EF8D220464B
:10121000FFF709F9BDE8F0814E414E006E616E00A6
:10122000494E4600696E66002DE9F0478146164634
:101230008AB035487844D0E9002380680092CDE92F
:101240000130314878440C38D0E902230069039218
:101250004FF03702CDE9043041F69B30014491FB59
:10126000F2F0A0F1800502FB10141B3C02D5644291
:10127000012000E00020DFF890A080460027FA441B
:10128000AAF1C60A0DE0E00709D03246684607EB2E
:1012900047010AEB810100F005FB8DE807006410AF
:1012A0007F1C002CEFD1184F7F44B43F17E0E807B4
:1012B00013D007EB04100DF1180A90E80E00AAE80D
:1012C0000E00C068F04201D198190890324606A974
:1012D00003A800F0E7FA03AB07C36D10641C002DF0
:1012E000E5D132466946B8F1000F03A802D000F0FC
:1012F000C5FA01E000F0D6FAC9E90001C9F80820F2
:101300000AB0BDE8F087000028D20100014918208A
:10131000ABBEFEE7260002004FF0013C50F8042B64
:1013200051F8043B9A4221D1A2EB0C03934313EAF8
:10133000CC1317D150F8042B51F8043B9A4215D125
:10134000A2EB0C03934313EACC130BD150F8042BFC
:1013500051F8043B9A4209D1A2EB0C03934313EAE0
:10136000CC13DBD04FF00000704700BFD01A01BA99
:10137000B1FA81F101F0180122FA01F0CB40C1F17C
:101380002001DBB2C0B2C01A2CFA01F3D11A91438A
:1013900011EAC311E6D1704770475FEA400C08BFFD
:1013A00091F0000F4FEA8C234FEAC12243EA5151DA
:1013B0004FEA1C5018BF00F5F0404FEA300018BF4C
:1013C00041F000415FEA6C5C00F02980BCF1FF3F16
:1013D00008BF40F080407047130C06BF12044FF066
:1013E000100C4FF0000C130E04BF12020CF1080C8D
:1013F000130F04BF12010CF1040C930F04BF9200F1
:101400000CF1020CD30F04BF52000CF1010C114679
:101410004FF00002A0F11F00A0EB0C00704711F08C
:10142000004F08BF704731F000413FF4D5AF0B0CBF
:1014300006BF09044FF0100C4FF0000C0B0E04BF58
:1014400009020CF1080C0B0F04BF09010CF1040C8C
:101450008B0F04BF89000CF1020CCB0F04BF4900B5
:101460000CF1010CCCF12003A0EB0C0022FA03F3E9
:1014700002FA0CF241EA030100F10100704720F08A
:101480007F4C80EA030023F07F47ACEB070303F5B2
:101490007C5300F0004003F1FF032DE980494FEA3F
:1014A000154B09B44FEA144325EA0B4E24EA0348CE
:1014B0000FF2042606EB132749083E785FEA320252
:1014C00003FB0667C7F5000707FB06F64FEA54372C
:1014D0004FEAD64606F1020607FB066CCCF1005C2B
:1014E0004FEA1C472CEA074C07FB06F40CFB06F5F9
:1014F00004EB15464FEA961634BF00204FF000402B
:101500004FEAD13706FB07FC4FEA1C4C0CFB0BF7EC
:10151000D21B03FB0CF761EB07010CFB0EF7B0EBE2
:10152000074072EB17420CFB08F734BFA2EB0742EF
:10153000B2EB074261EB17414FEA0C444FEA9107C7
:1015400006FB07FC4FEA1C4C0CFB0BF7B0EBC7404B
:1015500072EB573203FB0CF734BFA2EBC742B2EB7E
:10156000C74261EB57310CFB0EF7B0EBC70072EBD3
:1015700057720CFB08F734BFA2EBC702B2EBC702ED
:1015800061EB5771039F4FEA816141EA921104EBCD
:10159000CC044FEAD1374FEA826206FB07FC42EAED
:1015A00090124FEA80604FEA1C4C0CFB0BF7D21BE9
:1015B00003FB0CF761EB07010CFB0EF7B0EB0740E8
:1015C00072EB17420CFB08F734BFA2EB0742B2EBF9
:1015D000074261EB17414FEA8C554FEA910704EB44
:1015E0009C2406FB07FC4FEA1C4C0CFB0BF7B0EBF2
:1015F000C74072EB573203FB0CF734BFA2EBC74274
:10160000B2EBC74261EB57310CFB0EF7B0EBC700F2
:1016100072EB57720CFB08F734BFA2EBC702B2EBB8
:10162000C70261EB577115EB4C254FEA816141EA26
:1016300092114FEA82624FEAD13742EA901206FBDA
:1016400007FC44F100044FEA80604FEA1C4C0CFB9D
:101650000BF7D21B03FB0CF761EB07010CFB0EF73A
:10166000B0EB074072EB17420CFB08F734BFA2EB5C
:101670000742B2EB074261EB174115EB1C154FEA2D
:10168000813141EA92414FEA823242EA90424FEA86
:1016900080304FEA0C7644F1000448EA03434EEAF6
:1016A0000B484FF0000EB2EB080C71EB030724BFA0
:1016B000624639464EEB0E0E4FF0000B00185241B9
:1016C00049414BEB0B0BB2EB080C71EB03077BF1C1
:1016D000000B24BF624639464EEB0E0E4FF0000B56
:1016E0000018524149414BEB0B0BB2EB080C71EB6C
:1016F00003077BF1000B24BF624639464EEB0E0E0A
:1017000051EA020718BF46F0010616EB0E7655F1B6
:10171000000254F1000103D5BDE88901BDE800884D
:10172000BDE88901BDE80048B619524141EB01010D
:10173000A3F10103704780807F7E7D7C7B7A79787E
:10174000777676757473727171706F6E6E6D6C6C86
:101750006B6A6A6968686766666564646363626128
:101760006160605F5F5E5E5D5D5C5C5B5B5A5A59A9
:101770005958585757565655555554545353525215
:101780005251515050504F4F4F4E4E4D4D4D4C4C6D
:101790004C4B4B4B4A4A4A494949484848474747B6
:1017A00047464646454545444444444343434342F3
:1017B000424242414141002B26D4770021D01CB542
:1017C0004FEA370703B44FF010004FF010014FF00D
:1017D00000000FBCBDE810400BF1010BBBF1010F85
:1017E00008BF5FEA170722BF12F1010211F10101E0
:1017F0004FF0004143F1000300F0004043EA0000D5
:101800007047F9D35708DAE746EA064613F1400F66
:101810004FEA16461FDD13F1200FDFBF16430A46BD
:10182000002120335B42C8D0C3F1200746EA0646B8
:1018300002FA07F74FEA164646EA0706C3F1200701
:1018400022FA03F201FA07F721FA03F14FF000033D
:1018500042EA0702B1E746EA020646EA06464FEACE
:10186000164646EA0106BCBF46EA0646360C4FF06D
:1018700000034FF000024FF000019EE72DE9C04841
:10188000934630B491E8380007C831EA400C48BFAD
:1018900034EA430C03D5FFF7F2FDFFF78CFFF0BCF1
:1018A000BDE800882DE9C048934630B491E838007F
:1018B00007C810F0804F08BF13F0804F03D100F02D
:1018C00005F8FFF778FFF0BCBDE8008820F07F47FF
:1018D00080EA030023F07F4C07EB0C03A3F57C5355
:1018E00000F00040A3F1FE0392F0000F00F0B3807F
:1018F00095F0000F00F077802DE901494FEA114083
:101900004FEA144621EA004800FB06FC24EA064799
:1019100008FB06F607FB08F800FB07F718EB06487C
:101920004CEB164C4FEA124B18EB07484FEA1546A2
:101930004CEB174022EA0B4E0BFB06FC25EA064750
:101940000EFB06F607FB0EFE0BFB07F71EEB064E23
:101950004CEB164C4FF000061EEB074E4CEB174BB2
:1019600018EB0B0840F1000018EB0E0B58EB0008C9
:1019700040F100008F1A4FF000013CBFC943661BC5
:1019800014BFB5EB040C00213CBFC943F61B4FEA62
:1019900017444EEA8E0E27EA04454FEA1C4704FB23
:1019A00007622CEA074C05FB07F70CFB05F604FB66
:1019B0000CFC16EB074642EB174216EB0C4642EBCB
:1019C0001C421BEB060658EB0202414146EA9E060A
:1019D00001D5BDE80189B619524141EB0101A3F1DE
:1019E0000103BDE801894FEA14454FEA114724EA93
:1019F000054621EA074C05FB07F406FB07F70CFB3D
:101A000006F105FB0CFC11EB074144EB17444FEAD0
:101A1000124711EB0C4144EB1C4422EA074C05FB36
:101A200007F206FB07F70CFB06F605FB0CFC16EBB2
:101A3000074642EB174216EB0C4642EB1C456A1870
:101A400054F1000148BF7047B619524141EB010102
:101A5000A3F10103704795F0000F37D04FEA114210
:101A60004FEA144721EA024624EA074C02FB07F139
:101A700006FB07F70CFB06F402FB0CFC14EB074417
:101A800041EB17414FEA154714EB0C4441EB1C4165
:101A900025EA074C02FB07F506FB07F70CFB06F6E9
:101AA00002FB0CFC16EB074645EB174516EB0C4604
:101AB00045EB1C42121951F1000148BF7047B6199D
:101AC000524141EB0101A3F1010370474FEA144574
:101AD0004FEA114724EA054621EA074C05FB07F1C6
:101AE00006FB07F70CFB06F24FF0000605FB0CFCAB
:101AF00012EB074241EB174112EB0C4251EB1C4138
:101B000048BF7047921841EB0101A3F101037047F0
:101B10000000000005F056BE10B50022074B11462C
:101B200001EB810403EB440434F81040491CC9B2B2
:101B300022441029F4D3C2F30F1010BD6603002015
:101B4000044890F83C00012801D0034800E0034815
:101B500007F0EABDB04A0020C8AC01084887010878
:101B6000264910B508684FF6FF021040244A40F499
:101B7000E06010430860062003F0CAFF072003F06E
:101B8000C7FF082003F0C4FF092003F0C1FF0A20AB
:101B900003F0BEFF172003F0BBFF282003F0B8FFBF
:101BA0001E2003F0B5FF272003F0B2FF06F032FF3E
:101BB000154A1448D16941F00201D1610021018028
:101BC000018540F65F13838501238382018446F2F9
:101BD000600303838383818601878187A0F8401097
:101BE000018841F001010180906940F0010090619D
:101BF0000648416841F44061416010BD0CED00E0D1
:101C00000000FA05000400400010024000000140FE
:101C100008B5024908440090008808BD006C0040E7
:101C200008B5024A10440090016008BD006C0040F5
:101C3000002006F08BBF00000148007806F086BF48
:101C40002800002070B515460E46044609F042F9FA
:101C500021461648FEF730FD144800F077FA30466A
:101C600000F028F964211248FEF737FE00222946C9
:101C70000F4800F05FF90F4C6070012000F008FA87
:101C800064210A48FEF729FE64210948FEF725FE73
:101C900009F028F96078142802D0172802D003E050
:101CA000012070BD09F00DF9002070BDC048002072
:101CB000944700204201002010B5044609F00AF9BB
:101CC00021460648FEF7F8FC044800F03FFA00F011
:101CD00043FA044609F006F9204610BDC04800202A
:101CE0002DE9F0411C4615460E46074609F0F2F86C
:101CF00023462A463146384600F07CF8142804D0A2
:101D000009F0F0F80020BDE8F08109F0EBF80120BF
:101D1000F9E700002DE9F0411C4615460E4607463E
:101D200009F0D8F823462A463146384600F092F8A2
:101D3000084C607009F0D6F86078142802D0172893
:101D400003D004E00120BDE8F08109F0BAF80020DA
:101D5000F9E700004201002010B5044609F0BAF886
:101D600021460B48FEF7A8FC094800F011F9094983
:101D70004870012000F08CF964210548FEF7ADFDA4
:101D800064210548FEF7A9FDBDE8104009F0AAB896
:101D9000C0480020420100209447002070B515463D
:101DA0000E46044609F096F821460F48FEF784FCDB
:101DB0000D4800F07AF90D4CA9B20022607030464F
:101DC00000F0B8F86070012000F062F960706421E2
:101DD0000548FEF782FD64210548FEF77EFDBDE85B
:101DE000704009F07FB80000C04800204201002088
:101DF000944700202DE9F0411C4616460F46054643
:101E000009F068F829461048FEF756FC0E4800F025
:101E10009DF9384600F04EF8A1B20022304600F09D
:101E200062F80A4C6070012000F032F96421064823
:101E3000FEF753FD64210648FEF74FFD09F052F806
:101E40006078BDE8F0810000C04800204201002019
:101E5000944700202DE9F0411C4617460E460546E2
:101E600009F038F829461048FEF726FC0E4800F025
:101E70006DF9384600F01EF8A1B20C4A304600F069
:101E800059F80A4CA41E6070012000F001F9642189
:101E90000548FEF722FD64210548FEF71EFD09F006
:101EA00021F86078BDE8F081C0480020440100209E
:101EB0009447002010B5044639200EF08DF8E0B2AA
:101EC0000EF095F8C4F307200EF091F8C4F3074024
:101ED0000EF08DF8200E0EF08AF80EF04DF8BDE8E9
:101EE000104007F02DBC70B5064614460D463A204A
:101EF0000EF072F8E8B20EF07AF8280A0EF077F8D1
:101F00000EF03AF80CB1002011E007F019FC1D2882
:101F10000FD1304600F052F905463B200EF05CF838
:101F20000EF02AF82E44002CEFD020882844208080
:101F3000EBE770BD2DE9F041064614460D463C2006
:101F40000EF04AF8E8B20EF052F8280A0EF04FF8F8
:101F50000EF012F80CB1002020800C4F07F0F0FBBF
:101F60001E2810D1304600F03CFA054638703D205E
:101F70000EF032F80EF000F82E44002CEED020883F
:101F800028442080EAE7BDE8F081000041010020FC
:101F900010B5044600F0C4F920785C2801D02F2841
:101FA00003D10021642000F032FABDE81040402047
:101FB00000F096B910B504F0D5F908B100F0CFF8EB
:101FC000BDE81040302000F08BB9312000F088B916
:101FD00010B5052009F09EFE5A2000F081F9044654
:101FE000052009F097FE204610BD00002DE9F74FAF
:101FF00082B0834604980E46C700080E4FF0000AD0
:10200000C1F30729C1F30748009056200DF0E4FF03
:10201000F0B20DF0ECFF48460DF0E9FF40460DF040
:10202000E6FF00980DF0E3FF04980DF0E0FF0DF0DF
:10203000A3FF3C4614E000BF07F082FB05461E28C4
:1020400001D07CB113E04021584600F0B4F957208C
:102050000DF0C2FF0DF090FF641E0BF1400BA4B217
:10206000002CE9D107F06CFB054614280ED0162D84
:1020700009D0FFF7ADFF0AF1010000F0FF0ABAF145
:10208000030FC2D1284605B0BDE8F08F1420FAE74F
:102090000146362000F017B910B508B100F040F93C
:1020A000BDE81040342000F01BB970B5054600F0C3
:1020B00021F904000DD00146284600F021F84128FE
:1020C00007D0142803D0422800D1B32070BD43208C
:1020D00070BD2819BDE87040FFF7DEBF10B504469B
:1020E00000F01EF920785C2801D02F2803D10021B0
:1020F000642000F08CF9BDE81040322000F0F0B808
:1021000070B5054600200E46012401E0641CE4B2CF
:10211000295D5C2913D02F2911D00029F6D1002484
:102120002844FFF7DBFF002C08D0B44206D041283A
:102130000AD0142806D0422800D1B32070BD641CF8
:10214000E4B2EDE7432070BD2046E1E7FF21FFF751
:10215000D7BF2B2000F054B8682000F045B810B568
:1021600022200DF039FF0DF030FF04460DF004FF82
:10217000204610BD04480178012901D00020704795
:102180000021017001207047300000202DE9F0414E
:102190000DF01BFF06460DF018FF05460DF015FF6C
:1021A00004460DF012FF07460DF0E6FE46EA052054
:1021B00040EA044040EA0760BDE8F08170B505469A
:1021C00027200DF009FF0DF000FF0400264607D080
:1021D0000DF0FBFE641E05F8010B14F0FF04F7D1AF
:1021E0000DF0CAFE304670BD10B504460C200DF04F
:1021F000F3FE20460DF0FBFEBDE81040FFF7C6BF22
:1022000010B504460A200DF0E7FE20460DF0EFFE63
:102210000DF0DBFE04460DF0AFFE204610BD10B5FC
:1022200004464A200DF0D8FEE0B20DF0E0FEC4F303
:1022300007200DF0DCFEC4F307400DF0D8FE0020AF
:102240000DF0D5FE0DF098FEBDE8104007F078BA0D
:102250002DE9F04115000F46804601D0002028707E
:102260004C200DF0B9FE38460DF0C1FE0DF084FE95
:1022700007F066FA0646142823D127200DF0ACFE9D
:102280000DF0A3FE0DF0A1FE04460DF09EFE0DF034
:102290009CFE0DF09AFEFFF779FF014684B12246BD
:1022A0004046FFF7A3FE064614280AD108EB44284F
:1022B00015B1287820442870381B10F0FF07CFD1C3
:1022C0003046BDE8F08110B50C460DF085FE204685
:1022D0000DF08DFE0DF050FEBDE8104007F030BA55
:1022E00010B50DF079FE0DF047FEBDE8104007F087
:1022F00027BA0000014600E0491C0A78002AFBD1F9
:1023000006E000BF11F8012D5C2A03D02F2A01D06E
:102310008142F7D1814200D0491C081AC0B27047EF
:1023200070B5054601200DF057FE0DF04EFE432816
:1023300028D22B20FFF764FF102823D22F200DF086
:102340004BFE00200DF053FE3220FFF7C9FF14288A
:1023500018D1CF20FFF754FF040013D04C20FFF713
:1023600043FF00EB04214C2000F051F85020FFF710
:102370003BFF00EB0421502000F049F800217020C1
:1023800000F045F82F200DF027FE2C7806E000BF66
:1023900015F8014F5C2C0AD02F2C08D020460DF0E8
:1023A00026FE002CF4D1BDE870400DF0E5BD002004
:1023B0000DF01DFEF7E770B505460C462C200DF01C
:1023C0000BFE20460DF013FE3CB128780DF00FFEF9
:1023D0006D1C641E14F0FF04F7D1BDE870400DF0D1
:1023E000CBBD70B505462D200DF0F6FD0DF0EDFDD1
:1023F0000400264607D028780DF0F9FD6D1C641EF8
:1024000014F0FF04F7D10DF0B7FD304670BD70B584
:1024100005460C460D200DF0DFFD28460DF0E7FDCA
:10242000E0B20DF0E4FDC4F307200DF0E0FDC4F3CD
:1024300007400DF0DCFD200E0DF0D9FDBDE8704029
:102440000DF09ABD012008F053BD10B502F0F8FA66
:1024500005F06EF9BDE81040FFF7F4BF10B5044673
:102460000121502008F0D0FDC8B1002008F064FD23
:102470002070002008F060FD6070002008F05CFD16
:10248000A070012008F058FDE07008F0F7FD002171
:10249000502008F0B9FD08F0F1FD012010BD08F052
:1024A000EDFD002010BDF8B50D46064608F036FDDE
:1024B0006846FFF7D3FF040011D09DF801009DF896
:1024C000001000EB0120C0F30D0030809DF80300E8
:1024D0009DF8021000EB0120C0F38D00288008F069
:1024E00025FD2046F8BD000030B50E480E4C0023F7
:1024F0000078042234F81010401CC0B20D460528A4
:1025000000D3002034F810104D1BADB2521E2B44E6
:1025100012F0FF02F0D1C3F38F004FF4FA71484379
:1025200030BD0000000000205C03002010B5044610
:1025300012490EF0A1F812490DF0E8FE21460EF006
:102540009BF810490DF0E2FE21460EF095F80E4979
:102550000DF0DCFE21460EF08FF80C490DF0D6FE92
:1025600021460EF089F80A490DF0D0FE21460EF002
:1025700083F8BDE8104007490DF0C8BE92EBD72C98
:10258000EEC70B310DBDA2343E5ADE37774BBB3A56
:1025900045B8353D145C1C3F2DE9F04706461A4FFF
:1025A0000898984691468A46002540B109F00CFBF0
:1025B00004461649884504DA3046BDE8F0873C46B3
:1025C000F7E7134890F82C0018B15046FFF7AEFF1C
:1025D0000546494640460DF099FE29460EF0D2F9CF
:1025E00021460EF049F80446394650460DF08EFE5D
:1025F00008490EF041F831460EF03EF82146BDE89C
:10260000F0470DF0F7BE0000339388436F12833A12
:10261000B04A002066A6CA422DE9F0411F46904606
:102620000C46064609F0D0FA05460F4920460DF043
:102630006DFE0E490EF020F80446414638460DF076
:1026400065FE29460EF018F821460DF0D3FE3146FE
:102650000EF012F80649884202DA0020BDE8F08147
:10266000BDE8F0410DF04AB93393884366A6CA42EB
:102670006F12833A2DE9FF4F87B090460F461D46F3
:10268000182221496846FEF7F6F80026012440F298
:10269000013B40F2035941F60C0A00BF08F002FD6D
:1026A000684602F075FC58F8251018A35A4640F207
:1026B000191005F0C3FD37F8151000234A4650469F
:1026C00005F0E2FD00222146684602F08DFC04463A
:1026D000012807D0022C0ED0002CDFD10BB03046E1
:1026E000BDE8F08F2B4642463946079800F010F8B7
:1026F00007E00126D2E707EB45014A46504601F0C4
:102700008DFE0028CAD0F4E714E001084C2F6D00BC
:102710002DE9FF4F8DB0002004908F481F460E46D4
:10272000848831F8175008880A90B1F802B0B1F8DF
:1027300004A0B1F806904FF0010852F8270087492D
:102740000DF09AFF4FF07C510DF0E0FD0DF014FFFD
:1027500081490D9A01EB42010691888101210D9872
:1027600003F0EEFD08F09EFC7DA1002002F0E8FBE6
:10277000F580B580758035800D9809F039FA0390A1
:102780007AA1002002F0DCFB002340F2035229462C
:10279000192005F079FD78A14FF4406002F0D0FBDC
:1027A00077A340F2036240F60C40039905F046FD22
:1027B00074A14FF4C05002F0C3FB0D9803F0B2FDBA
:1027C000014641F60C0005F08FFD642009F064FA23
:1027D0000028D1D009F0A8F8112856D008DC01282B
:1027E0001AD0042878D0092877D0102813D106E011
:1027F000212873D0402808D041280CD162E042F251
:102800000F70854205D26D1C02E0632D01D96D1E4B
:10281000ADB20120049089E0069864215B4A80896A
:10282000484303210590880202F088FB40F20362CE
:1028300005A940F60C4001F0FFFD00B30120049013
:1028400005980DF0D1FE0290642D19D3039810F075
:10285000FF4F17D028460DF0C7FE05460698808921
:102860000DF0C2FE29460DF0C5FD014602980DF09F
:10287000C1FD47490DF0BEFD0DF07EFE85B201E0C1
:102880004FF47A7508F00EFC50E040F69800844250
:1028900001D2641CA4B2642111200BF0F3FF50B1EB
:1028A00038E0641CA4B220460DF09EFE39490DF0BC
:1028B000E3FE01F0BBFA012111200BF0E3FF002839
:1028C000EFD027E0C82C01D9641EA4B264214120B6
:1028D0000BF0D8FF68B11DE02CE011E016E0641E9B
:1028E000A4B220460DF080FE2A490DF0C5FE01F08D
:1028F0009DFA012141200BF0C5FF0028EFD009E02F
:1029000040F29E70844205D2643402E0DC2C01D98E
:10291000143CA4B220460DF067FE1E490DF0ACFE3B
:1029200001F084FA0C48848001F0AEF8B8F1000F91
:102930007FF41EAF00210D9803F002FD0A9830804D
:10294000A6F802B0A6F804A0A6F8069026F817503C
:10295000049811B0BDE8F08FB04A0020000020417B
:10296000B5F7CAD4C1F7C1BF00000000C1F7C1BFAD
:10297000B1B6C2CA3A000000C1F7C1BF3A000000B8
:102980004C2F6D00CAE4B3F63A000000C8D6010827
:102990000000C8420AD7233C2DE9F04F8FB0814692
:1029A0002022454902A8FDF766FF4449444801EB4F
:1029B000C906494600EB41000D9001243C36808950
:1029C0004FF0000A40F20355B9F1010F05D0B9F1FB
:1029D000020F02D040F2015B08E000EBC00101EB06
:1029E00000104FF6FF71AB4601EA8000ADF8000021
:1029F00040F60C0741F60C0808F054FB02A802F060
:102A0000C7FA494640F2151005F05CFE2DA35A4660
:102A1000BDF80010384605F037FC318800232A46FF
:102A2000404605F031FC0022214602A802F0DCFA03
:102A300004000FD0012C24D0022C33D0032CE5D17C
:102A40002A463146404601F0E9FC0028DED04FF02E
:102A5000010ADBE7BAF1000F0AD023211AA002F025
:102A6000F5FF062807D0072808D00124002CC3D181
:102A70000FB0BDE8F08F00F097FAF9E700F02AFAFE
:102A8000F4E75A466946384601F0C8FC0028BDD034
:102A9000BDF800106420B1FBF0F10D98818100F0C9
:102AA000F3FFB3E73146484600F016F80028A3D0FC
:102AB0004FF0010AA0E70000F4DF01083C4A0020C3
:102AC000B04A00204C2F6D00B1A3B4E6B1EAB6A81D
:102AD000CAFDBEDD203F00002DE9FF5F80460020DB
:102AE00007460390B8480D4640F2035684880020FC
:102AF0008346019002905FEA080005D0012855D076
:102B0000B8F1020F04D151E040F2015BAFA0029096
:102B100008F0C8FA0121404603F012FCAA4901EB73
:102B2000480A404609F064F88146B8F1000F3FD0EA
:102B30004E46A7A1002002F003FA2988002340F2A4
:102B40000352192005F0A0FBA4A14FF4406002F04D
:102B5000F7F95A46494640F60C40029B05F06EFBD9
:102B6000A0A14FF4C05002F0EBF9404603F0DAFBAD
:102B7000014641F60C0005F0B7FB642009F08CF823
:102B80000028CED008F0D0FE112877D040DC0128F4
:102B900056D0042873D0092872D01028C1D12888B3
:102BA00042F20F71884249D2401C46E0B346ADE77D
:102BB00008F0CCFE064608F0D3FF0146002002468E
:102BC000009033464846FFF7E7FC064680A1002008
:102BD00002F0B6F92988002340F20352192005F0CB
:102BE00053FB82A14FF4006002F0AAF95A46314625
:102BF00040F60C00029B05F021FB78A14FF48050B9
:102C000002F09EF95A46494641F20C00029BA5E7A4
:102C100021287DD040280CD0412882D1C82C01D950
:102C2000641EA4B2642141200BF02CFE002870D059
:102C3000B3E02888632801D9401E2880012770E767
:102C4000B8F1000F1DD0BAF80C00642148430321ED
:102C50000190684A880202F071F95A4601A940F6CB
:102C60000C4001F0E9FB0028E9D0012701980DF0A4
:102C7000BBFC81462888642838D234E051E09BE0D0
:102C800081E051485B4A0321808901904FF4006044
:102C900002F054F95A4601A940F60C0001F0CCFBB1
:102CA0000028CCD0012701980DF09EFC8146288891
:102CB000642818D316F0FF4F10D00DF095FC06468F
:102CC000414880890DF090FC31460DF093FB0146A0
:102CD00048460DF08FFB0DF04FFC2880404608F071
:102CE00087FF814664E74FF47A7018E016F0FF4FD3
:102CF000A5D00DF079FC0646BAF80C000DF074FC76
:102D000031460DF077FB014648460DF073FB01E0BC
:102D10003FE030E038490DF06DFB0DF02DFC2880D0
:102D2000FFE640F69800844201D2641CA4B26421FC
:102D300011200BF0A7FD58B12FE0641CA4B220466F
:102D40000DF052FC31460DF097FC01F06FF800E0F9
:102D50002A4E012111200BF095FD0028EDD01CE03A
:102D6000641EA4B220460DF03FFC31460DF084FCF9
:102D700001F05CF800E0214E012141200BF082FDC2
:102D80000028EDD009E040F29E70844205D2643400
:102D900002E0DC2C01D9143CA4B220460DF024FC46
:102DA00016490DF069FC01F041F80748848000F0F5
:102DB0006BFE03980028B3D00021404603F0C0FA10
:102DC00004B03846BDE8F09FB04A00204C2F6D009B
:102DD000C1F7C1BFB1B6C2CA3A000000B1EABFF63E
:102DE0003A000000CAE4B3F63A000000B9A4BFF606
:102DF0003A000000C8D601080000C8420AD7233CA8
:102E00002DE9F0472B49804601EB08002A4990F84C
:102E10002060012401EBC800002500F13C0A012ECE
:102E200016D0022E43D1254FDFF8949008F03AF9DE
:102E3000384602F0ADF800222146384602F0D4F8B8
:102E40000446052831D2DFE800F006181E282C00C1
:102E50001A4F283FE8E7002D29D0232119A002F0BE
:102E6000F5FD062805D0072821D1BDE8F04700F080
:102E700031B8BDE8F04700F097B809EB061200231F
:102E800004E00125D2E709EB061201235146404632
:102E9000FFF7F0FB0028C9D0F3E709EB0612022385
:102EA000F4E709EB06120323F0E7002CBED1BDE8DE
:102EB000F0870000B04A00203C4A002054E001089E
:102EC0000CDF0108B1A3B4E6B1EAB6A8CAFDBEDDC5
:102ED000203F000010B5062231494FF4807001F008
:102EE000B6FC2F4845F6A5214FF47A7482888A42B1
:102EF00003D0E20002804480818072222949802030
:102F000001F0A5FC274845F6A422B0F870109142C4
:102F100044D046F6B321A0F86410A0F86810A0F8D9
:102F20006C10A0F86640A0F86A40A0F86E4041819D
:102F30008181C18101824182048544858485C48563
:102F400004864FF40041018041808180C18001816D
:102F50008182C182018341838183C4830484448448
:102F60008484C48444868486C48604874487848792
:102F7000A0F84440A0F84C40A0F85440A0F85640B7
:102F8000A0F85840A0F85A40A0F85C40A0F85E4075
:102F9000A0F86040A0F86240A0F8702010BD0000CA
:102FA000100200203C4A002010B5062205494FF4CB
:102FB000807001F05CFC7222BDE810400249802064
:102FC00001F055BC100200203C4A00202DE9F04FD2
:102FD0000746744800258BB084882E4608F062F8B6
:102FE00040F20440052F0FD2DFE807F00305070980
:102FF0000B006DA106E071A104E075A102E079A1CA
:1030000000E07DA101F09CFF8049DFF804A205A843
:10301000EB4601EB47080A90B8F822102BF8151080
:103020000BEB45006D1CB8F81810EDB281820A2D2B
:1030300002D026B10A2103E000250126FAE729463D
:10304000684607F02FFF2AF817000EB10A2100E0AA
:1030500029460A9807F026FF0AEB4709A9F8140049
:103060000EB10A2100E02946684607F01BFF2AF846
:1030700017000EB10A2100E029460A9807F012FF56
:10308000A9F8140063A140F6064001F059FF384644
:1030900008F0E2FD014640F2026900234A4641F28F
:1030A000082005F0CBF85DA140F6144001F048FF80
:1030B000384608F037FD014600234A4641F2162003
:1030C00005F0BCF8282008F0E7FD0028A4D008F09F
:1030D0002BFC11281FD00BDC012817D0042815D099
:1030E000092899D140F29E7084424DD264344AE05E
:1030F000212845D041288FD1C82C01D9641EA4B203
:10310000642141200BF0BEFB80B33DE0FFF74CFF94
:103110000BB0BDE8F08F40F69800844201D2641CE9
:10312000A4B2642111200BF0ADFB58B12CE0641C5B
:10313000A4B220460DF058FA49460DF09DFA00F071
:1031400075FE01E0DFF8DC90012111200BF09AFB05
:103150000028ECD018E0641EA4B220460DF044FA1A
:1031600049460DF089FA00F061FE02E0FFE7DFF862
:10317000B490012141200BF085FB0028EBD003E047
:10318000DC2C01D9143CA4B220460DF02DFA2549BF
:103190000DF072FA00F04AFE0248848000F074FCE0
:1031A0003AE70000B04A00203CB7DB20B3BE3E2027
:1031B000D7D4B6AFB5F7C1E3000000003CC8D5BE18
:1031C000F9413E20D7D4B6AFB5F7C1E30000000007
:1031D0003CC8D5BEF9423E20D7D4B6AFB5F7C1E35F
:1031E000000000003CCAB1BEF9433E20D7D4B6AFC0
:1031F000B5F7C1E3000000003CCAB1BEF9443E206F
:10320000D7D4B6AFB5F7C1E300000000D246002026
:103210003C4A0020C1F7C1BF3A000000BCC6D1B98A
:103220003A0000000AD7233C10B5044602F09EFC89
:1032300040F60E00052C09D2DFE804F003050D0F5F
:10324000110008A100E00BA101F07AFE2046BDE8C4
:10325000104001F089BC0BA1F6E70EA1F4E711A123
:10326000F2E70000B7DB20B3BE20D7D4B6AFB5F786
:10327000C1E30000C8D5BEF94120D7D4B6AFB5F739
:10328000C1E30000C8D5BEF94220D7D4B6AFB5F728
:10329000C1E30000CAB1BEF94320D7D4B6AFB5F739
:1032A000C1E30000CAB1BEF94420D7D4B6AFB5F728
:1032B000C1E300002DE9F14F88B018227849684633
:1032C000FDF7D9FA774808990125848876484FF4A4
:1032D000A06800EB410606F114073236002041F2E7
:1032E0000C0940F2035A41F60C0B069001E00798D6
:1032F00058B107F0D7FE684601F04AFE40F21510BB
:10330000089905F0DFF9002007903988002342462C
:10331000484604F0B9FF318800235246584604F06D
:10332000B3FF2946684601F023FE60A14FF4006018
:1033300001F006FE089808F0F5FB01465DA340F297
:10334000026240F60C0004F079FF192008F0A4FC9A
:103350000028EAD02946684601F00AFE08F0E4FA9F
:10336000112849D008DC012819D004282ED00928BA
:103370007CD0102817D10CE021287DD0402802D025
:10338000412810D155E06D1CEDB2032D0BD3012562
:1033900009E0012D00D803256D1EEDB203E0012DDB
:1033A00006D0022D08D0002DAFD109B0BDE8F08FB6
:1033B00042463946484602E052463146584601F0F8
:1033C0002DF80028A1D0012006909EE7069800283D
:1033D000EBD0232138A002F039FB062802D00728C1
:1033E00006D102E0FFF7E0FDDFE7FFF7DDFD002596
:1033F000002D7FF47BAFD8E740F69800844201D2DD
:10340000641CA4B2642111200BF03CFA50B137E0E7
:10341000641CA4B220460DF0E7F82B490DF02CF9FE
:1034200000F004FD012111200BF02CFA0028EFD050
:1034300026E0C82C01D9641EA4B2642141200BF0FF
:1034400021FA50B11CE0641EA4B220460DF0CCF865
:103450001D490DF011F900F0E9FC012141200BF0AC
:1034600011FA0028EFD00BE000E005E040F29E707A
:10347000844205D2643402E0DC2C01D9143CA4B2AD
:1034800020460DF0B1F810490DF0F6F800F0CEFC32
:103490000448848000F0F8FA002D7FF428AF84E718
:1034A000C4DF0108B04A00203C4A0020BCC6D1B9A4
:1034B0003A0000006B506100B1A3B4E6B1EAB6A8CF
:1034C000CAFDBEDD203F00000AD7233C2DE9F14FA5
:1034D000774882B0012584887648029940F20267D5
:1034E00000EB410606F10A082836002041F20C0BD9
:1034F00040F2035941F60C0A009001E0019858B1DE
:1035000007F0D0FD6C4801F043FD40F21510029920
:1035100005F0D8F800200190B8F8001000233A46D2
:10352000584604F0B1FE318800234A46504604F064
:10353000ABFE2946604801F01BFD60A14FF400601E
:1035400001F0FEFC029808F00DFB01465DA33A462F
:1035500040F60C0004F072FE192008F09DFB0028D4
:10356000EBD02946544801F003FD08F0DDF911289D
:1035700049D008DC012819D004282DD009287CD096
:10358000102817D10CE021287DD0402802D04128F6
:1035900010D155E06D1CEDB2032D0BD3012509E0D0
:1035A000012D00D803256D1EEDB203E0012D05D0DD
:1035B000022D07D0002DAFD1BDE8FE8F3A4641461F
:1035C000584602E04A463146504600F027FF0028A0
:1035D000A2D0012000909FE700980028ECD0232182
:1035E00039A002F033FA062802D0072807D103E0F9
:1035F000BDE8FE4FFFF7D8BCFFF7D6FC0025002D35
:103600007FF47BAFD8E740F69800844201D2641C77
:10361000A4B2642111200BF035F950B137E0641CDD
:10362000A4B220460CF0E0FF2B490DF025F800F085
:10363000FDFB012111200BF025F90028EFD026E039
:10364000C82C01D9641EA4B2642141200BF01AF9E0
:1036500050B11CE0641EA4B220460CF0C5FF1E4908
:103660000DF00AF800F0E2FB012141200BF00AF90D
:103670000028EFD00BE000E005E040F29E708442AD
:1036800005D2643402E0DC2C01D9143CA4B22046FB
:103690000CF0AAFF10490CF0EFFF00F0C7FB044844
:1036A000848000F0F1F9002D7FF428AF84E700005A
:1036B000B04A00203C4A0020ACDF0108CEC2B6C8A8
:1036C0003A000000A1E60000B1A3B4E6B1EAB6A852
:1036D000CAFDBEDD203F00000AD7233C2DE9F14F93
:1036E00088B0182278496846FDF7C5F877480899E8
:1036F0000125848876484FF4A06800EB410700203C
:1037000007F11E0641F20C0940F2035A41F60C0B78
:10371000069001E0079858B107F0C4FC684601F034
:1037200037FC40F21510089904F0CCFF00200790F8
:10373000398800234246484604F0A6FD318800231C
:103740005246584604F0A0FD2946684601F010FC98
:1037500060A14FF4006001F0F3FB089808F07CFAD8
:1037600001465EA340F2036240F60C0004F066FDE1
:10377000192008F091FA0028EAD02946684601F09D
:10378000F7FB08F0D1F8112849D008DC012819D03E
:1037900004282ED009287CD0102817D10CE021282D
:1037A0007DD0402802D0412810D155E06D1CEDB2EB
:1037B000032D0BD3012509E0012D00D803256D1E33
:1037C000EDB203E0012D06D0022D08D0002DAFD1BF
:1037D00009B0BDE8F08F42463946484602E05246FD
:1037E0003146584600F01AFE0028A1D0012006906C
:1037F0009EE706980028EBD0232139A002F026F995
:10380000062802D0072806D102E0FFF7CDFBDFE74C
:10381000FFF7CAFB0025002D7FF47BAFD8E740F609
:103820009800844201D2641CA4B2642111200BF0E0
:1038300029F850B137E0641CA4B220460CF0D4FE45
:103840002B490CF019FF00F0F1FA012111200BF0C7
:1038500019F80028EFD026E0C82C01D9641EA4B2C4
:10386000642141200BF00EF850B11CE0641EA4B29C
:1038700020460CF0B9FE1E490CF0FEFE00F0D6FA10
:10388000012141200AF0FEFF0028EFD00BE000E00C
:1038900005E040F29E70844205D2643402E0DC2CE4
:1038A00001D9143CA4B220460CF09EFE10490CF045
:1038B000E3FE00F0BBFA0548848000F0E5F8002D37
:1038C0007FF428AF84E70000DCDF0108B04A002065
:1038D0003C4A0020B2EED1B93A0000006B506100C2
:1038E000B1A3B4E6B1EAB6A8CAFDBEDD203F000030
:1038F0000AD7233C70B5402207494FF4C07000F04E
:10390000A6FF054C45F68B25E08FA84202D000F0BB
:1039100005F8E58770BD0000B04A002030B50F4CB7
:10392000207830B1012807D0022808D003280BD115
:1039300008E000F08FF807E000F072F804E000F013
:1039400055F801E000F038F8E08F45F68B25A842E5
:1039500002D000F005F8E58730BD0000B04A002035
:1039600013484FF49671F0224185002180F8291008
:1039700080F82810C284012202728270C1704272E3
:1039800042F2957343814FF4FA638380322383714B
:103990000223C3714FF47A73C3850386642343867D
:1039A00080F82C100349416380F83C2070470000E8
:1039B000B04A0020D9AB09000B4803214FF47A72BA
:1039C00000F8061C00218176C280C17602220281A5
:1039D0000177428101224277052383818277C38167
:1039E000C27780F827107047B64A00200B480222A1
:1039F000002300F8062C83764FF47A71C1800121F0
:103A0000C1760281017742814177052282818177E7
:103A1000C281C17780F8273070470000B64A002085
:103A20000B4801214FF47A7200F8061C8176C2809F
:103A30000022C27602230381027743814177052366
:103A400083818177C381C17780F827207047000088
:103A5000B64A00200B480022012100F8062C81768E
:103A60004FF47A73C380C1760223038101774381C7
:103A70004177052383818177C381C17780F827202F
:103A800070470000B64A0020402202494FF4C0703F
:103A900000F0EDBEB04A00202DE9F84FDFF8ECB0A1
:103AA000012500269BF82840BBF82600ADF8000051
:103AB00040F2015741F21648DFF8D49040F6164A1A
:103AC00007F0F0FA3248183001F062FA04EB4401D2
:103AD00009EB4101504601F033FA2EA33A46BDF8F6
:103AE0000010404604F0D0FB294800222946183037
:103AF00001F07AFA050023D0012D1DD0022DE5D169
:103B00003A466946404600F089FC0028DED0BDF800
:103B10000000962804D29620ADF8000007F0D1F9F5
:103B2000BDF800104FF49670814203D9ADF8000043
:103B300007F0C7F90126C9E7641C04F00304F9E79C
:103B4000002E0BD0232114A001F080FF02281AD0F0
:103B5000062805D0072801D1FFF7CCFEBDE8F88F75
:103B60000BF12605AC70BDF80000ABF82600FFF79E
:103B70008BFF28880CF038FD0B490CF07DFDA978EF
:103B80000BF0ACFCEAE701259AE70000B04A002000
:103B9000C0E10108A1E60000B1A3B4E6C5E4D6C3C4
:103BA000CAFDBEDD203F0000CDCCCC3D2DE9F84F55
:103BB000404E0125002796F82940708DADF8000091
:103BC00040F2015A4FF4AF78DFF8EC9040F6194B11
:103BD00007F068FA34B13848BC3001F0D9F9012C4B
:103BE00005D00CE03448D43001F0D2F907E033A31B
:103BF0005246BDF8001040F6144004F045FB59F859
:103C00002410584601F09CF94FF00002294634B3C5
:103C10002948BC3001F0E8F9050028D0012D21D059
:103C2000022DDCD1012CD3D15246694641F6140055
:103C300000F0F4FB0028CBD0BDF80000962804D299
:103C40009620ADF8000007F03CF9BDF800104145A2
:103C500003D9ADF8008007F034F90127B8E716481A
:103C6000D430D7E70CB10024F7E70124F5E7002FA3
:103C70000BD0232112A001F0E9FE022817D006285C
:103C800005D0072801D1FFF735FEBDE8F88FBDF854
:103C90000000708586F82940FFF7F6FE708D0CF065
:103CA000A3FC0B490CF0E8FC0BF02CFCEDE7012524
:103CB0008EE70000B04A002034E10108A1E60000D0
:103CC000B1A3B4E6C5E4D6C3CAFDBEDD203F000003
:103CD000CDCCCC3D2DE9F05F00252F4F2F4C2E464B
:103CE00040F60B0AA7F1100840F60B7BA94600BF6F
:103CF00007F0D8F92848643001F04AF9607857F89D
:103D00002010504601F01CF9207858F82010584631
:103D100001F016F9204800222946643001F064F9C8
:103D2000050021D0012D08D0022D11D0032DDFD1A7
:103D3000FFF7F4FD02F006F9DAE707F0B3F960786F
:103D4000401CC0B2607006280CD384F8019009E0D2
:103D500007F0A8F92078401CC0B22070042801D3D5
:103D600084F800900126C3E78EB123210CA001F056
:103D70006DFE062803D0072809D00125B8E7FFF714
:103D8000CDFDFFF781FEBDE8F05F03F059BFBDE850
:103D9000F05FFFF7AFBD0000A8DD0108B04A0020CA
:103DA000B1A3B4E6D0DEB8C4BDE1B9FB3F0000006A
:103DB0002DE9FF5F00249B4691468A46264625460C
:103DC0003AF814000CF010FC17490CF055FCB04602
:103DD00059F8246001462F4630460CF00BFB05468F
:103DE000014600980CF014FD03D2641CE4B25C455B
:103DF000E6D3394628460CF0C5FD04464146304618
:103E00000CF0C0FD21460CF0F5FA04463946009846
:103E10000CF0B8FD21460CF02FFC04B04146BDE883
:103E2000F05F0CF073BA00006F12833A01494860EA
:103E3000704700002800002001490870FDF7FCBE13
:103E4000280000200A4980B1012806D0022807D0A6
:103E5000032808D04FF0FF3007E043F6982004E035
:103E600047F2305001E04EF6602048607047000095
:103E70000800002003F06CB9C0B2202800D27F20D7
:103E8000024901EB0010A0F5007070476E0B0108AD
:103E9000C0B2202800D27F20034900EB400001EB94
:103EA0000010A0F5C06070474875010800487047D1
:103EB0006E11010870B5C0B2114D60F31F210123CE
:103EC0004FF4AC729818400805EB400415F81060E8
:103ED000647804EB0624A4B2A14205D1094900EBA1
:103EE000C00001EBC00070BD03D900F1010083B236
:103EF00002E0A0F1010082B29342E3D9014870BD13
:103F00008E1101084014010870B50C46064615468E
:103F10000021A02007F078F860B1300A07F042F8DD
:103F200040B1F0B207F03EF820B10121A02007F027
:103F30006BF848B907F0A2F8002070BD002006F029
:103F4000FBFFC04304F8010B6D1E15F0FF05F5D112
:103F5000012006F0F1FFC043207007F08FF8012028
:103F600070BD000070B50C46064615460021A02025
:103F700007F04AF808B3300A07F014F8E8B1F0B2D5
:103F800007F010F8C8B100BF14F8010BC043C0B26D
:103F900007F008F888B16D1E15F0FF05F4D107F0A1
:103FA0006DF8A0254FF4C8740021284607F02CF8BE
:103FB00030B107F063F8012070BD07F05FF803E04F
:103FC000641E2404240CEFD1002070BD10B500F055
:103FD000EBFE10BD0349012008700349400308604F
:103FE00070470000300000201404014010B500F0BC
:103FF000DBFE10BD10B500F0D7FE10BD10B500F00F
:10400000D3FE10BD10B500F0CFFE10BD10B500F00E
:10401000CBFE10BD2DE9F34FDFF808928B4691B02F
:104020000126B9F8044001A95846FCF771FD06982D
:10403000DFF8F4A100F26C7085B20598401C00F026
:10404000FF080498C7B243462A4678A10CA80097F7
:10405000FCF7BEF90CA9119800F072FF012E04D0F4
:10406000022E06D0032E09D118E0744A04211198BB
:1040700002E011980A3013E000F060FF07F054FCF2
:1040800011286AD024DC082869D00DDC012873D0FF
:104090000428D8D1002013B0BDE8F08F119810305B
:1040A00080B2664A0221E7E7092873D01028CAD1F6
:1040B000012E1FD0022E26D0032EC4D14146284601
:1040C00006F0F2FF7F1CFFB2B842BCD20127BAE76C
:1040D00020284AD021287BD040281DD04128B2D1A9
:1040E000C82C01D9641EA4B2642141200AF0CAFB85
:1040F00090B389E06D1CADB240F633008542A2D981
:104100004FF4FA659FE708F1010000F0FF08B8F1ED
:104110000C0F98D901201DE0012E0DD0022E13D0D6
:10412000032E90D17F1E17F0FF078CD14146284601
:1041300006F0BAFF074686E76D1EADB2B5F5FA6F19
:1041400081D240F633057EE7A8F1010010F0FF08A8
:10415000BDD10C20804676E745E01CE0FFE7761CE9
:10416000F6B2032EB3D901266DE7761E16F0FF06D0
:10417000ADD1032667E7FFE7A5F26C75A8F1010052
:104180000497CDE9050501A8FCF70BFCCBF800006E
:10419000012080E72EE040F69800844201D2641CA2
:1041A000A4B2642111200AF06DFB50B12CE0641C14
:1041B000A4B220460CF018FA51460CF05DFAFFF755
:1041C00035FE012111200AF05DFB0028EFD01BE035
:1041D00016E0641EA4B220460CF006FA51460CF01C
:1041E0004BFAFFF723FE012141200AF04BFB002888
:1041F000EFD009E040F29E70844205D2643402E0C0
:10420000DC2C01D9143CA4B220460CF0EDF9514647
:104210000CF032FAFFF70AFEA9F80440FFF734FC6D
:1042200011E70000B04A00200AD7233C253034753E
:104230002D253032752D253032750000C8D6010885
:104240002DE9F04F6E4F884691B08346BC8801251A
:1042500001A94046FCF75CFC6A4E4FF0180A4FF08B
:104260003C090198DDE90232009067A10CA8FCF737
:10427000AFF80CA9584600F063FE012D04D0022DC2
:1042800006D0032D09D118E0634A0221584602E006
:104290000BF1060013E000F051FE07F045FB11287A
:1042A00068D01DDC082851D00DDC01285BD0042823
:1042B000D7D1002011B0BDE8F08F0BF10C0080B217
:1042C000554A0221E7E7092871D01028C9D1012DEC
:1042D00018D0022D19D0032DC3D10198401C1FE026
:1042E000202839D021287BD0402811D04128B8D1AE
:1042F000C82C01D9641EA4B2642141200AF0C2FA7C
:1043000080B371E00398401C12E00298401C17E053
:10431000012D0BD0022D11D0032DA2D101983B30DD
:10432000B0FBF9F209FB120001909AE703981730ED
:10433000B0FBFAF20AFB1200039092E702983B30BE
:10434000B0FBF9F209FB120002908AE76D1CEDB296
:10435000032D86D9012584E76D1E15F0FF0580D158
:1043600003257EE72EE001A8FCF71BFBC8F8000040
:1043700001209FE740F69800844201D2641CA4B259
:10438000642111200AF07EFA50B12DE0641CA4B221
:1043900020460CF029F931460CF06EF9FFF746FD86
:1043A000012111200AF06EFA0028EFD01CE011E084
:1043B000641EA4B220460CF017F931460CF05CF9EB
:1043C000FFF734FD012141200AF05CFA0028EFD00C
:1043D0000AE005E040F29E70844205D2643402E0B7
:1043E000DC2C01D9143CA4B220460CF0FDF8314677
:1043F0000CF042F9FFF71AFDBC80FFF745FB30E7F0
:10440000B04A00200AD7233C253032753A25303295
:10441000753A253032750000C8D6010838B50C460B
:1044200009880091694600F007F8002802D000983A
:104430002080012038BD00002DE9F74F90B0002505
:104440001198904612F0FF070168724884884FEA7D
:104450001220814601D0A9F10100C6B26E48A6EB38
:10446000070A50F82600B1FBF0F200FB121B584679
:104470000CF0BAF86849283151F827100BF0BAFF50
:104480000BF018FFCDE9000108F0FF034A4663A1D5
:104490000AA8FBF79DFF0AA9109800F051FD10989B
:1044A000AA4500EB450000DC801C80B25D4A01217A
:1044B00000F044FD681C0090864206D35648711BEC
:1044C00000EB810050F8040C00E00120019007F09F
:1044D0002BFA112857D01CDC082843D007DC012810
:1044E0004CD00428C3D1002013B0BDE8F08F0928B8
:1044F00079D01028BBD101990A20BBFBF1F1B1FBA7
:10450000F0F200FB1210092815D001990BEB010005
:1045100020E020282AD021286BD040280ED0412826
:10452000A5D1C82C01D9641EA4B2642141200AF08F
:10453000A9F9A0B361E0019840420EE001990A2078
:10454000BBFBF1F1B1FBF0F200FB121020B10199BD
:10455000ABEB010083468AE7019800EBC00101EB59
:104560000B00F7E70098B0FBF6F103E0A819401E36
:1045700090FBF6F106FB1100C5B278E71199012016
:10458000C1F800B0B0E740F69800844201D2641C44
:10459000A4B2642111200AF075F958B12DE01AE097
:1045A000641CA4B220460CF01FF81F490CF064F8FC
:1045B000FFF73CFC012111200AF064F90028EFD03C
:1045C0001BE0641EA4B220460CF00EF816490CF055
:1045D00053F8FFF72BFC012141200AF053F9002882
:1045E000EFD00AE0FFE740F29E70844205D26434C7
:1045F00002E0DC2C01D9143CA4B220460BF0F4FFFD
:1046000009490CF039F8FFF711FC02488480FFF7E4
:104610003BFA2CE7B04A002010DC010825302A2E96
:104620002A660000C8D601080AD7233C2DE9F35FAB
:104630000A8889464FF03C0BB2FBFBF16423B1FBC7
:10464000F3F4DFF8FCA103FB14160BFB1125BAF8F9
:1046500004404FF000080127C6EB061005EB80016F
:10466000009804F05BF8012F06D0022F08D0032F2A
:1046700018D0042F09D118E0724A0121009802E0F5
:104680000098801C13E000F059FC07F04DF9112848
:104690007FD015DC082861D00DDC01286CD00428FF
:1046A0005BD172E00098801D01E00098083080B274
:1046B000644A0121E7E7092877D010284DD108E0A6
:1046C000202851D0212871D0402813D0412844D12E
:1046D0007EE0012F06D0022F06D0032F06D0042F34
:1046E0003BD105E00A360FE0711C15E00A3521E0E8
:1046F000691C26E0012F06D0022F0BD0032F18D003
:10470000042F2AD11BE05A366420B6FBF0F100FBDF
:104710001166A1E706F109010A20B1FBF0F200FBE6
:104720001211B6FBF0F000EB800001EB4000C6B2C6
:1047300092E73235B5FBFBF10BFB11558CE705F128
:1047400009010A20B1FBF0F200FB1211B5FBF0F0F9
:1047500000EB800001EB4000C5B26AE07F1CFFB2B5
:10476000042F66D9012764E07F1E17F0FF0760D190
:1047700004275EE00DE0FFE7C6EB061005EB8001C5
:10478000A9F800104FF0010856E04FF00008474626
:104790004FE040F69800844201D2641CA4B2642128
:1047A00011200AF06FF860B137E02CE031E0641CB2
:1047B000A4B220460BF018FF23490BF05DFFFFF772
:1047C00035FB012111200AF05DF80028EFD024E02C
:1047D000C82C01D9641EA4B2642141200AF052F809
:1047E00050B11AE0641EA4B220460BF0FDFE16493B
:1047F0000BF042FFFFF71AFB012141200AF042F8BB
:104800000028EFD009E040F29E70844205D2643463
:1048100002E0DC2C01D9143CA4B220460BF0E4FEEB
:1048200009490BF029FFFFF701FBAAF80440FFF745
:104830002BF9002F7FF46DAF4046BDE8FC9F0000D0
:10484000B04A0020C8D601080AD7233C704770B58B
:1048500014460D46064606F061FBE2B22946304694
:10486000FFF752FB044606F061FB204670BD70B5B1
:1048700014460D46064606F051FBE2B22946304684
:10488000FFF770FB044606F051FB204670BD0000A8
:1048900070B50BA0FDF760FA0C4D0024102255F8FE
:1048A00024000B49FDF77AFA55F824004022102124
:1048B000FDF7C8F9641CE4B2052CEFD370BD00000D
:1048C0005C53616D706C65720000000034D90108A2
:1048D0004601002010B51446064A01EB8101C900CB
:1048E00052F820002423224602F03CFB002800D18D
:1048F000206010BD34D9010870B50D460446164637
:1049000064210A48FBF7E9FF242231460748FBF7F8
:104910006DFF05EB8500C10005482823034A50F8C8
:104920002400BDE8704002F01FBB000010460020CC
:1049300034D9010870B58CB00D46044630222649A2
:104940006846FBF798FF25492846FCF7E1F823481D
:1049500022492C30C368CA6893423BD04B6903F2AA
:104960006C7343610969491CC0E9032161696422D0
:10497000481E90FBF2F3C51700EB9575C3EBA5033A
:10498000950090FBF5F633448E070ED191FBF2F6BD
:1049900002FB161222B991FBF5F205FB121121B9A7
:1049A0002169022901DD012100E0002122696D4613
:1049B00005EB8202E56852F8042C2A4440F26D159A
:1049C00000FB053010440844072190FBF1F201FB85
:1049D0001200A0610CB070BD60DC01082449002009
:1049E00070B5154C154E204694F8251090F82850B7
:1049F000C08C012915D0022909D003291BD10BF045
:104A0000F3FD31460BF038FE29460AF067FD608D54
:104A10000BF0EAFD31460BF02FFEBDE870400AF0C6
:104A200071BD0BF0E1FD31460BF026FE2946BDE8D5
:104A300070400AF053BD70BDB04A0020CDCCCC3DD3
:104A40001148816941F001018161104920204861CC
:104A50000F48016821F400510160001F016821F432
:104A60005C4101600A49091D0A680A60091D0A685B
:104A700042F400520A60064A411410321160016883
:104A800041F40051016070470010024000000140F5
:104A90000404014008B50020009001F067F808A167
:104AA00040F6162000F04CFA4FF4C062694641F21D
:104AB0001620FFF7C1FC002800D0009808BD0000B8
:104AC000CAE4C8EBC3DCC2EB3A0000002DE9F041B8
:104AD000012440F608064FF4C068194D40F60C67F3
:104AE00006F0E0FA174800F053FA00222146154874
:104AF00000F07AFA0446012807D0022C08D0032CD3
:104B00001AD0002CECD1BDE8F08109F0EDFAE7E70E
:104B100006F0C8FA0CA1304600F012FA42462946C7
:104B20003846FFF789FC0028DAD000210AA000F0FF
:104B30008DFFFEF7A9FFD3E708F0BEF8D0E700002D
:104B4000E44A002054E10108C7EBCAE4C8EBD0C234
:104B5000C3DCC2EB3A000000C3DCC2EBD0DEB8C459
:104B6000B3C9B9A6210000002DE9F04F07466948F6
:104B70008BB0694984880025DFF8A0A105A82E46DE
:104B8000EB4601EB47080A90B8F822102BF81510F5
:104B90000BEB45006D1CB8F81810EDB281820A2DA0
:104BA00002D026B10A2103E000250126FAE72946B2
:104BB000684606F077F92AF817000EB10A2100E0DE
:104BC00029460A9806F06EF90AEB4709A9F814007D
:104BD0000EB10A2100E02946684606F063F92AF87A
:104BE00017000EB10A2100E029460A9806F05AF98A
:104BF000A9F814004AA140F60F7000F0A1F9384658
:104C000007F02AF8014640F2026900234A4641F2C1
:104C10000E5003F013FB44A140F61C7000F090F915
:104C2000384606F07FFF014600234A4641F21B50FA
:104C300003F004FB282007F02FF80028A4D006F08A
:104C400073FE11281FD00BDC012817D0042815D0C3
:104C5000092899D140F29E7084424DD264344AE0D2
:104C6000212845D041288FD1C82C01D9641EA4B277
:104C70006421412009F006FE80B33DE0FEF794F97F
:104C80000BB0BDE8F08F40F69800844201D2641C5E
:104C9000A4B26421112009F0F5FD58B12CE0641C88
:104CA000A4B220460BF0A0FC49460BF0E5FCFFF750
:104CB000BDF801E0DFF878900121112009F0E2FD54
:104CC0000028ECD018E0641EA4B220460BF08CFC47
:104CD00049460BF0D1FCFFF7A9F802E0FFE7DFF847
:104CE00050900121412009F0CDFD0028EBD003E0D8
:104CF000DC2C01D9143CA4B220460BF075FC0C4905
:104D00000BF0BAFCFFF792F802488480FEF7BCFE75
:104D10003AE70000B04A0020D24600203C4A00207A
:104D2000C1F7C1BF3A000000BCC6D1B93A000000CB
:104D30000AD7233C0449FF2008600348143801685F
:104D40006FF3090101607047140401401348816941
:104D500041F0010181611248012181600021C1609F
:104D6000104801686FF309010160001F016821F418
:104D7000407101600B49091D0A6842F0FF020A6098
:104D8000091D0A6842F0FF020A60064AFF2110323C
:104D90001160016841F0FD010160704700100240A0
:104DA000000001400404014010B5FFF7C3FF0348B1
:104DB000C068BDE8104009F0D5BC00000800002024
:104DC00010B50021084809F0B5FC084C0021E0604E
:104DD0000548001D09F0AEFCA06003480021BDE8B5
:104DE0001040083009F0E8BC540B0108080000200E
:104DF0000F48816941F004018161816941F0080136
:104E000081610C49FC2008600B49032008600948B7
:104E100010380168094AC9B21143016006481038C8
:104E2000016821F00F0141F00801016070470000A6
:104E30000010024010080140100C014000888888D2
:104E4000064800680649C0F38500096801F00101C1
:104E500040EA81117F208843704700000808014024
:104E6000080C01402DE9F041274805682748854294
:104E700000DD05462648008904F02AFD254C014640
:104E8000E068A061804628460BF07CFD054622497B
:104E9000E0600BF0F1FB07462061204928460BF04B
:104EA000EBFB61680BF032FA06466060414628462B
:104EB0000BF068FD1A490BF0DFFB054660613146D7
:104EC00038460BF023FA29460BF020FA15490BF06F
:104ED000D3FB05461449A0680BF0CEFB29460BF026
:104EE00015FA1249A060884202DC1149884200DAB2
:104EF000A1601049A0680BF0BFFB0BF03DFBBDE8C3
:104F0000F04180B200F02ABE2C0000200000B04129
:104F1000C4460020880000204260E53B8FC2753CFB
:104F2000A69B443B6666663FCDCCCC3D83C02A3F02
:104F30000AD7A33C0000D84603F0E8BD02F062BAED
:104F400002F05ABB08498A6942F010028A6108B12E
:104F5000891501E04FF0807104480161416821F03A
:104F60000F01C91C41607047001002400010014051
:104F700070B50C4600EBC40605467068FBF7C0FB35
:104F8000C1B235F834007268BDE87040FFF7D6BF93
:104F900070B501880546080ACEB201D07043C6B28A
:104FA000696819B14FF48170FFF7CAFF4FF4247498
:104FB0000C4A40F20251204604F0BFFB094A40F27D
:104FC0001451204604F0B9FB012408E005EBC400AD
:104FD000416835F83400FFF7B3FF641CE4B2B44213
:104FE000F4D970BD88D4010800F03AB930B41C4639
:104FF0001346224630BC00F005BA30B41C461346B6
:10500000224630BC00F0E8BA30B41C4613462246B3
:1050100030BC00F001B800002DE9FF5F06460C46E9
:1050200085483188904685884FF0000B080ACFB23A
:1050300032D0784300F0FF0A0CB1544500D9012466
:1050400006EBC409D9F80400FBF75AFBC1B236F8E5
:105050003400D9F80420FFF771FF00BF5FEA0800B1
:1050600000D08047322006F017FE0028F6D036F830
:105070003400D9F80410FFF763FF06F055FC102840
:1050800047D00BDC0A28DBD2DFE800F005575B05D0
:10509000D005A9052292D3E7BA46CDE7212872D0E0
:1050A00008DC11284FD02028CAD1039850EA0B0001
:1050B0003CD032E0402823D04128C1D1C82D01D9AD
:1050C0006D1EADB26421412009F0DCFBA0B379E094
:1050D000039850EA0B0017D003E000BFA4EB0A00CE
:1050E0000CE0B4FBF7F007FB104008B9E01BC4B2BA
:1050F000641CE4B2A4E7E01B00E0E019C4B29FE73F
:10510000039830EA0B00ECD1E019C4B2544597D9AA
:10511000E4E7039830EA0B0008D0641EE4B2B4FB65
:10512000F7F007FB104000288AD1E6E7BC42E2D83E
:1051300004EB0A00C4B2DEE731E0204604B0BDE86B
:10514000F09FFF20FAE740F69800854201D26D1CDF
:10515000ADB26421112009F095FB58B132E06D1C0D
:10516000ADB228460BF040FA49460BF085FAFEF73F
:105170005DFE01E0DFF8C4900121112009F082FBFF
:105180000028ECD01EE019E06D1EADB228460BF0F1
:105190002BFA49460BF070FAFEF748FE01E0DFF803
:1051A0009C900121412009F06DFB0028ECD009E022
:1051B00040F29E70854205D2643502E0DC2D01D9B3
:1051C000143DADB228460BF00FFA1C490BF054FA0F
:1051D000FEF72CFE18488580FEF756FC30E7C82104
:1051E000062009F04FFB002884D105F06AFE6420F8
:1051F00005F0ACFF05F065FE05F054FF10A14FF47B
:10520000C160FFF79DFEFEF775FB0B494FF4E062AE
:10521000383140F60C40FFF70FF938B104210CA0EB
:1052200000F014FC062803D0FEF764FB002085E79D
:10523000FEF72AFCFAE70000B04A00200AD7233C18
:10524000C7EBCAE4C8EBB3F6B3A7B1E0BAC53A00FE
:10525000CAC7B7F1B1A3B4E6B1E0BAC53F000000D8
:105260002DE9F05F0C46DFF894B101880646BBF8E3
:1052700004509046080ACFB232D0784300F0FF0ABB
:105280000CB1544500D9012406EBC409D9F8040037
:10529000FBF736FAC1B236F83400D9F80420FFF72C
:1052A0004DFE00BF5FEA080000D08047322006F0C4
:1052B000F3FC0028F6D036F83400D9F80410FFF7D4
:1052C0003FFE06F031FB10283DD00BDC0A28DBD274
:1052D000DFE800F00540450543050505277DD3E7D8
:1052E000BA46CDE7212878D00DDC112839D0202806
:1052F000CAD1641EE4B2B4FBF7F007FB10400028EB
:10530000C2D1E0191DE0402815D04128BCD1C82DDC
:1053100001D96D1EADB26421412009F0B3FAB8B3D2
:105320005FE0B4FBF7F007FB104008B9E01BC4B224
:10533000641CE4B2A8E7E019C4B25445A4D9A4EBB4
:105340000A00C4B2A0E7BC4202D804EB0A00C4B20F
:10535000E01BF6E72046BDE8F09F0020FBE7FF20BA
:10536000F9E740F69800854201D26D1CADB2642188
:10537000112009F087FA60B133E06D1CADB2284608
:105380000BF032F949460BF077F9FEF74FFD02E0DA
:1053900013E0DFF86C900121112009F073FA002866
:1053A000EBD01EE06D1EADB228460BF01DF949464C
:1053B0000BF062F9FEF73AFD01E0DFF844900121BD
:1053C000412009F05FFA0028ECD00AE005E040F245
:1053D0009E70854205D2643502E0DC2D01D9143D72
:1053E000ADB228460BF000F905490BF045F9FEF780
:1053F0001DFDABF80450FEF747FB45E7B04A00201F
:105400000AD7233C2DE9FF5F06460C4670483188D9
:10541000904685884FF0000B080ACFB232D078430F
:1054200000F0FF0A0CB1544500D9012406EBC40971
:10543000D9F80400FBF764F9C1B236F83400D9F8A2
:105440000420FFF77BFD00BF5FEA080000D0804723
:10545000322006F021FC0028F6D036F83400D9F8C6
:105460000410FFF76DFD06F05FFA102847D00BDC43
:105470000A28DBD2DFE800F005575D055B0505056E
:105480002294D3E7BA46CDE7212874D008DC11284E
:1054900051D02028CAD1039850EA0B003CD032E00A
:1054A000402823D04128C1D1C82D01D96D1EADB2ED
:1054B0006421412009F0E6F9A0B37BE0039850EAAB
:1054C0000B0017D003E000BFA4EB0A000CE0B4FB14
:1054D000F7F007FB104008B9E01BC4B2641CE4B24B
:1054E000A4E7E01B00E0E019C4B29FE7039830EAAC
:1054F0000B00ECD1E019C4B2544597D9E4E7039806
:1055000030EA0B0008D0641EE4B2B4FBF7F007FBEE
:10551000104000288AD1E6E7BC42E2D804EB0A003A
:10552000C4B2DEE733E0204604B0BDE8F09F0020BF
:10553000FAE7FF20F8E740F69800854201D26D1C9B
:10554000ADB26421112009F09DF958B132E06D1C13
:10555000ADB228460BF048F849460BF08DF8FEF73F
:1055600065FC01E0DFF86C900121112009F08AF957
:105570000028ECD01EE019E06D1EADB228460BF0FD
:1055800033F849460BF078F8FEF750FC01E0DFF8FD
:1055900044900121412009F075F90028ECD009E080
:1055A00040F29E70854205D2643502E0DC2D01D9BF
:1055B000143DADB228460BF017F806490BF05CF825
:1055C000FEF734FC02488580FEF75EFA2EE7000005
:1055D000B04A00200AD7233C2DE9FF5F06467348F6
:1055E0000C4631888588080AC9B2984691468A4691
:1055F00030D000FB0AF0C0B200900CB1844200D958
:10560000012406F085FA834606EBC4070397786801
:10561000FBF776F8C1B236F834007A68FFF78EFCF3
:105620005FEA090000D0804706F072FAA0EB0B0099
:10563000C7B2A8EB07025EA101A8FAF7C9FE01A94B
:1056400040F60970FFF77CFC474507D3012004B002
:10565000BDE8F09F0846CDF800A0CEE7322006F066
:105660001BFB0028DCD00398416836F83400FFF7B4
:1056700067FC06F059F910283ED009DC0A28C3D28D
:10568000DFE800F00542460544050505267CBBE73A
:10569000212879D00EDC11283CD02028B4D1641EFA
:1056A000E4B2B4FBFAF10AFB11400028ACD104EBE0
:1056B0000A001FE0402816D04128A5D1C82D01D9E5
:1056C0006D1EADB26421412009F0DCF8C8B35FE083
:1056D000B4FBFAF10AFB114010B9A4EB0A00C4B202
:1056E000641CE4B290E704EB0A00C4B20098844260
:1056F0008AD9201AC4B287E7544502D800982044BA
:10570000C4B2A4EB0A00F5E72046A0E700209EE71C
:10571000FF209CE740F69800854201D26D1CADB297
:105720006421112009F0AEF860B131E06D1CADB21A
:1057300028460AF059FF39460AF09EFFFEF776FB2D
:1057400001E012E01C4F0121112009F09BF8002814
:10575000ECD01DE06D1EADB228460AF045FF39467B
:105760000AF08AFFFEF762FB00E0134F012141209F
:1057700009F088F80028EDD00AE005E040F29E70BC
:10578000854205D2643502E0DC2D01D9143DADB26D
:1057900028460AF029FF08490AF06EFFFEF746FB8B
:1057A00002488580FEF770F92EE70000B04A00201D
:1057B00028253275732900000AD7233C2DE9F04FC4
:1057C00004468DB0002001900546069003907A486B
:1057D0000A907A4805907A4800EB440080890AF0E4
:1057E00003FF784901EB0419D9F800100AF044FFCF
:1057F000DFF8D4B14FF0000A099084B14BF824A02F
:105800000021204600F00EF90121204600F0F8F8B2
:10581000642005F09BFC08F051FF0646B7E06B489A
:105820000590564600213046CBF800A000F0FAF86B
:105830000121304600F0E4F8642005F087FC08F010
:105840003DFF064662480078012808D0A4E02046C3
:10585000052C19D2DFE804F00415151515002046B3
:1058600006F0C6F9804606F07BF9074606F06EF8AA
:105870000346002239464046CDF800A0FCF78CFED6
:1058800003E006F0B5F900E000200146019F099809
:105890000BF078F80190D9F8040001990AF0ECFEB9
:1058A0000790D9F8080001990AF0E6FE29460AF0A7
:1058B0002DFD054647484FF07E58854201D90546E3
:1058C00002E0454500DD4546394601980BF05AF89F
:1058D000D9F80C100AF0D0FE3F490AF0CDFE074679
:1058E0003E4906980AF0C8FE39460AF00FFD0690B8
:1058F000404605990BF046F80746294607980AF0F6
:1059000005FD06990AF002FD39460AF0B5FE074684
:10591000059903980AF0B0FE39460AF0F7FC0390A7
:105920000A990AF0F3FC10F1FF4F01D3002002E0C6
:10593000404500DD40464BF8240029490AF09CFE12
:105940000AF01AFE81B2204600F06CF825484FF4A8
:105950007A714FF47A720088484323490988514389
:1059600000EB114808F0AAFE00EB08018A1B521E4A
:10597000B2FBF8F1B1F5967F02D2C1F5967701E05E
:1059800006461E27B8B205F0E1FB07FB0866104883
:10599000005D01283FF45BAF55464BF824A0002181
:1059A000204600F03FF80021204600F029F8084882
:1059B00005550DB0BDE8F08F3333B33ECDCC4C3F31
:1059C000B04A002098D90108804700206666663FEB
:1059D0003C010020000080BFFA7EAA3E83C02A3F1F
:1059E0000000D846ECD60108EED6010810B5C0B2CA
:1059F000FFF7E4FE08F004FFBDE8104008F00CBF1C
:105A00000A4608B506496B4631F810008DF80020AB
:105A1000401C81B20122104605F0B2FD08BD000015
:105A200048D901080A4608B507496B4631F8100005
:105A300049F641410844ADF8002081B201221046E8
:105A400005F09EFD08BD000048D901082DE9F04190
:105A50000D46040006D005F025FB214640F20670F5
:105A6000FFF76EFA264805F00F0450F82460304620
:105A7000FFF78EFA4FF42477224A41F602013846A6
:105A800003F05BFE1F4A41F61401384603F055FE51
:105A90004AF201071C4A40F20251384603F04DFE1B
:105AA0001A4A40F22651384603F047FEC5F3031167
:105AB0000022491C3046FFF797FA062C04D2DFE893
:105AC00004F0030307131319012815D1BDE8F08171
:105AD000012802D0032811D101E00320F6E70520B8
